:100000000C946A050C9492050C9492050C9492053C
:100010000C9492050C9492050C9492050C94920504
:100020000C9492050C9492050C9436190C94A81912
:100030000C9492050C9492050C9492050C949205E4
:100040000C9492050C94F50F0C9492050C94920567
:100050000C9492050C9492050C9492050C94AB0FA1
:100060000C9492050C9492050C9492050C949205B4
:100070000C9492050C9492050C9492050C949205A4
:100080000C9492050C9492050C9492050C94920594
:100090000C9492050C9492050C9492050C94920584
:1000A0000C9492050C9492050C949205F220F82081
:1000B000FE200A2116216B216B216B2122212E218A
:1000C0003A21462154216B215D211C2B1E2B242B10
:1000D000262B2C2B322B342B3A2B402B422BBB0EB6
:1000E000BE0EAD0EB10EB70EDF0EDF0EDF0EC20E6E
:1000F000C60ECA0ED00ED40EDF0EDA0E05A84CCDF9
:10010000B2D44EB93836A9020C50B9918688083C51
:10011000A6AAAA2ABE000000803F0101FF03010138
:10012000F7031E011A0100000000240027002A0026
:100130002D003000D5F08D14A1C881CFD9F1AF20AA
:100140000000000000250028002B002E00310003D5
:10015000053F213F1208120A100A0E1C0E0C1E0C3D
:10016000141A14161F161E131E1E1B1E1E1F1E3FC2
:10017000213F3A2F3A173D173F213F181F02040A2B
:10018000041F0E04040E1F0A1F0A0E0E1F04110E78
:100190002E252E2F2A2E262929021F02081F081578
:1001A0000E04040E150E15151B151B040604040C75
:1001B000040000000017000300031F0A1F16371A6F
:1001C0001904130A153A000300000E11110E000A5B
:1001D000040A040E04003000040404001000180493
:1001E000031F111F121F101D151711151F07041FC4
:1001F00017151D1F151D01011F1F151F17151F00A6
:100200000A00003200040A110A0A0A110A04011540
:10021000020E11171E051E1F150A0E110A1F110EC0
:100220001F15111F05010E111D1F041F111F11089D
:10023000100F1F041B1F10101F061F1E040F0E118E
:100240000E1F09060E112E1F051A121509011F0196
:100250001F101F0F180F1F0C1F1B041B031C03195B
:100260001513001F11030418111F000201022020A2
:10027000200001020C121E1F120C0C12120C121F75
:100280000C1A14041E05242A1E1F021C141D102003
:10029000201D1F0814111F101E041E1E021C0C120C
:1002A0000C3E0A040C123E1E040214160A020F121F
:1002B0000E101E0E100E1E081E120C1226281E32C4
:1002C0002A26041E21001F00211E040102013F21D5
:1002D0003F0500893008023802497868140000059B
:1002E00080C1816401640164010000080500F048D8
:1002F000F00008050000F800000805C0704870C054
:10030000458091884182080600000803E0E0E04152
:100310008205805C01FC015801FC015001FC014890
:1003200001FC0140080000418205808C02880280A7
:1003300002780270080000418205805C01FC055CC7
:1003400001FC015C01FC074001FC054001FC01408F
:1003500001FC070000418205805C02640240044801
:10036000084002500258045C080000030001000528
:100370000007000900010005000B000D000F00112F
:10038000000F0013000F001100FFFF000002000427
:100390000006000800020004000A000C000E001015
:1003A000000E0012000E001000FFFF17534400164D
:1003B00013780016131400151020001520100020CB
:1003C000202000050202BE915A7D8C7D820111120F
:1003D000C80A0202BE915A73647382011213C832B2
:1003E0000300BE915A68965E78011313321403001D
:1003F000BE915A7C64727801121232320300BE91AF
:100400005A91647364021013280A0300BE915A9132
:1004100064736402101328320202BE915A868C84DF
:100420007801141432020202BE915A6E647078018F
:100430001010321E0300BE915A736E7378011111B1
:1004400032020300BE915A81868178011313323241
:100450000300BE915A82787264030F1419140300CA
:10046000BE915A82787264030F14193C0202C3AF22
:10047000916EB4466402101432140202C3AF91822A
:100480003CAA640210142D0A0202C3AF916EB44656
:100490006402111332140202C3AF91823CAA6402B7
:1004A00011132D320300BE915A7278726402111337
:1004B00014140300BE915A7278726402111314224C
:1004C0000300BE915A788C875A031117280F030036
:1004D000BE915A788C875A031117280F0300BE91DA
:1004E0005A788C875A031117281E0300BE915A6E42
:1004F000917C5A0211131E0F0300BE915A8C5F7338
:100500005A0211131E500202C8AF7D78A5555A0435
:100510000F15280A0202C8AF7D78A5555A04101499
:10052000280A0202C8AF7D78A5555A04101428463F
:100530000701BEAA5A82787378060F151946030080
:10054000BE915A676C6250020E101E0A0300BE91E3
:100550005A676C6250020E101E020300BE915A8848
:10056000838D500214161E0A0300BE915A88838D93
:10057000500216141E3C0202BEA5787D5096500211
:100580000F1514080202BEA5787D50965001111176
:1005900028080202BEA5787D509650011010280848
:1005A0000202BEA5787D509650020F151408020273
:1005B000BEA5787D50965001111128080202BEA5F3
:1005C000787D50965001101028280202BEA578733D
:1005D000A05050030F15190A0202BEA57873A0504F
:1005E00050031014190A0202BEA57873A0505003DC
:1005F0001014190A0202BEA57873A05050030F15FB
:1006000019280300BE915A78646E5A030D13190F0E
:100610000300BE915A78646E5A030D13190F03003C
:10062000BE915A78646E5A030D13193C0202BE91B2
:100630005A735F6E46020E1028010202BE915A7D67
:10064000918246021416281E0202BE915A735F6EF2
:1006500046020E1028010202BE915A7D9182460286
:10066000141628500501BEAA5A6E78696E040E163B
:1006700023050501BEAA5A8278876E040E16235000
:100680000300C3A55F788C8250031317280F030063
:10069000C3A55F788C8250031317280F0300C3A5EE
:1006A0005F788C8250031115280A0300C3A55F7878
:1006B000646E50030D11280F0300C3A55F78646EAC
:1006C00050030D11280F0300C3A55F78646E5A0311
:1006D0000F1328280202BE915A87878B6E021014CE
:1006E00019020202BE915A7D7D7F6E02101419021A
:1006F0000202BE915A7373716E0210141902020243
:10070000BE915A6969656E02101419140202BE91F5
:100710005A8282806E02101419020202BE915A7827
:1007200078786E02101419020202BE915A6E6E7031
:100730006E02101419460701BEAA5A827873780611
:100740000F1519320300BEA55A788C825003131777
:10075000280F0300BEA55A788C8250031317280F68
:100760000300BEA55A788C8250031115280A030095
:10077000BEA55A78646E50030D11280F0300BEA564
:100780005A78646E50030D11280F0300BEA55A78E5
:10079000646E5A030F1328500202C3AF916EAA462B
:1007A00046030F1514140202C3AF918246AA4603F2
:1007B0000F150F0A0202C3AF916EAA46460310142A
:1007C00014140202C3AF918246AA46030F150F14F8
:1007D0000300BE915A6E917C5A0210140F0A030056
:1007E000BE915A8C5F735A0210140F460501BEAABF
:1007F0005A6E78696E040E1623050501BEAA5A8248
:1008000078876E040E16231E0701BEAA5A787878E0
:1008100050060F1519640202BE915A765D7150039D
:100820000D1128010202BE915A7D968250031317C2
:1008300028140202BE915A765D7150030D112801F1
:100840000202BE915A7D96825003131728140202A9
:10085000BE915A765D7150030D1128010202BE91BE
:100860005A7D968250031317283C0300BE915A828A
:100870008C808C03141619020300BE915A6E6470AA
:100880008C03100E190A0300BE915A736E738C0309
:10089000110F19020300BE915A7D827D8C0313153E
:1008A000195A0501BEAA5A82787364040F151E14E2
:1008B0000300BEA55A788C8250031317280A030040
:1008C000BEA55A788C8250031317280A0300BEA5D0
:1008D0005A788C8250031115280A0300BEA55A7855
:1008E000646E50030D11280A0300BEA55A78646E89
:1008F00050030D11280A0300BEA55A78646E5A03EE
:100900000F1328640701BEAA5A6E786978030E1681
:1009100019050701BEAA5A82788778030E16190AAC
:100920000501BEAA5A6E786982040C1819050501E2
:10093000BEAA5A82788782040C1819781E03C2BC9A
:10094000B27A7A7A14000C18FF45805188418238B7
:1009500005000005804D88C181500200000580C15E
:1009600081080100000806FC30787830FC100D206A
:10097000007FE02FC0078033001F80F9801F803385
:100980000007802FC07FE0200008061C70FCFC7070
:100990001C080618FC3838FC18058041814C0154AD
:1009A00001000005003801680100004500680100F1
:1009B000000500680138010000F6E8DBCFC3B8AEDF
:1009C000A49B928A827B746E68625C57524E494542
:1009D000413E3A3734312E2C2927252321080B009C
:1009E00002020201000904000001020200000524C5
:1009F000001001052401010104240206052406005B
:100A0000010705810310004009040100020A0000EB
:100A100000070502024000000705830240000004B1
:100A200003090441726475696E6F204C4C430041A8
:100A3000726475696E6F204C656F6E6172646F00D1
:100A40001201000200000040412336800001010233
:100A5000030112010002EF02014041233680000130
:100A600001020301000000002300260029002C00E1
:100A70002F00040404040403040502020202040318
:100A80000202020206060606060604040202020428
:100A9000040408020110408040102040804080087B
:100AA00002040180402010020110801020404020EC
:100AB0000000000200090F0000030401000C000008
:100AC000000000000000000000000000000000081E
:100AD00001C03A2D11241FBECFEFDAE0DEBFCDBF3B
:100AE00012E0A0E0B1E0E8E7F7E602C005900D9261
:100AF000A234B107D9F727E0A2E4B2E001C01D9209
:100B0000AF39B207E1F715E0CAE6D5E004C0219796
:100B1000FE010E94792DC936D107C9F70E94291F0D
:100B20000C94BA330C9400002F923F924F925F9234
:100B30006F927F928F929F92AF92BF92CF92DF92ED
:100B4000EF92FF920F931F93CF93DF93CDB7DEB752
:100B500069970FB6F894DEBF0FBECDBF80919E049B
:100B60008111109279032AED32E03E832D838EEDC0
:100B700092E09C878B87EDEDF2E0FE87ED872BEE10
:100B800032E03A8B298B2CEE222E22E0322E86EE9A
:100B900092E0988B8F87ED81FE818081882309F414
:100BA00035C4F1E0F0937903EF85F88980818F5F98
:100BB0008083EB85FC851081133041F4F101379778
:100BC0009081981718F4EF85F8899083EF85F8895C
:100BD000608170E080E090E00E94EB316B017C016D
:100BE000F1013797608170E080E090E00E94EB3186
:100BF0009B01AC01C701B6010E94052E6F83788767
:100C000089879A879B01AC0160E070E080E89FE3F0
:100C10000E94932D6B017C019B01AC010E944C3220
:100C20004B015C012F81388549855A85CA01B9017C
:100C30000E94942DA70196010E944C326B017C0109
:100C40002F81388549855A85CA01B9010E944C32E5
:100C500069837A838B839C83F1013D97608170E087
:100C600080E090E00E94ED319B01AC01C501B40130
:100C70000E944C322B013C01F1013C97608170E0F5
:100C800080E090E00E94ED319B01AC01C701B6010C
:100C90000E944C329B01AC01C301B2010E94942D11
:100CA0002B013C01F1013B97608170E080E090E016
:100CB0000E94ED319B01AC0169817A818B819C811D
:100CC0000E944C329B01AC01C301B2010E94942DE1
:100CD0000E947E2E662EF1017197608337966081A7
:100CE00070E080E090E00E94ED319B01AC01C50115
:100CF000B4010E944C324B015C01F10139976081D3
:100D000070E080E090E00E94ED319B01AC01C701F2
:100D1000B6010E944C329B01AC01C501B4010E9496
:100D2000942D6B017C01F1013897608170E080E0C7
:100D300090E00E94ED319B01AC0169817A818B8149
:100D40009C810E944C329B01AC01C701B6010E94FC
:100D5000942D0E947E2EF101709760839CE9792E7C
:100D6000760C6456698F20E030E040E85FE36F81E5
:100D7000788589859A850E94EC2E87FD21C11330E4
:100D800009F01EC180917203811109C08091750321
:100D9000909176030196909376038093750310915A
:100DA00074031F5F10937403809173038F5F8093AC
:100DB00073036091750370917603072E000C880B06
:100DC000990B0E94ED3120E030E040EC50E40E94AD
:100DD000052E0E94F12E20E030E040E851E40E9410
:100DE0004C3220E030E048EA51E40E94942D0E9409
:100DF000772E698F1C3108F466C080919D04843180
:100E000008F061C007ED10E0862F660F990B9C017A
:100E1000245031093A832983472C072C000C5508AC
:100E200034E0431A5108FC013496FC8BEB8BF98DAE
:100E3000F53134F4B801012E000C880B990B08C071
:100E400068E671E0601B710B072E000C880B990B94
:100E50000E94ED3122E73AE84EE85CE30E944C3212
:100E60006B017C010E94002E20E030E040EA51E45A
:100E70000E944C320E94772E4B015C01C701B601E3
:100E80000E94F12E20E030E040EA51E40E944C3212
:100E90000E94772E9B01AC01898DA40185311CF441
:100EA0006B897C8902C069817A81C2010E949C138E
:100EB0000D5011090F36110509F0B9CF8091740357
:100EC0008C518093740380917303843638F0898D3C
:100ED0008351853018F491E09093720380917203EE
:100EE000882309F46DC010927403109273038F5F0E
:100EF0008093720369E00E94592D992341F08091FB
:100F00007203833308F45CC01092720359C080915D
:100F10009D048431A0F700E710E0E98D0E2E000C4F
:100F2000FF0BFA83E983472C072C000C5508F3E0EC
:100F30004F1A51088091720329E3829F812D112459
:100F40008695B80133E0839F600D711D1124072E33
:100F5000000C880B990B0E94ED3122E73AE84EE82D
:100F60005CE30E944C326B017C010E94002E4B011D
:100F70005C01C701B6010E94F12E20E030E040EA9A
:100F800051E40E944C320E94772E6B017C0120E0DC
:100F900030E040EA51E4C501B4010E944C320E94A5
:100FA000772E9601AB0169817A81C2010E949C1360
:100FB0000F5E1F4F093081E0180709F0BBCF9FCFAC
:100FC000F1018081811116C1EB85FC85B080F98D1E
:100FD000CF2E0F2E000CDD08E72C072C000CFF088D
:100FE00022E0B21661F033E0B31609F453C04F2F7C
:100FF00042506AE9660D81E0B81270C028C06AE903
:10100000660D21E939E0498D42508DE197E00E945B
:101010008C1000919A0410E02091990430E041E98D
:1010200059E0B60162507109C70102970E94311C54
:10103000882309F4DEC280919B048111DAC2809179
:101040009D048111D6C291E090939B04C4C229E80B
:1010500039E08DE197E00E948C1000919A0410E035
:101060002091990430E049E859E0B60162507109D5
:10107000C70102970E94311C882309F4BAC28091EB
:101080009B048111B6C280919D048111B2C2B092BD
:101090009B04A1C267E9660D2DE639E0498D4650F3
:1010A0008DE197E00E948C1000919A0410E020914D
:1010B000990430E04DE659E0B60166507109C70168
:1010C00005970E94311C8823B9F180919B048111FE
:1010D00033C080919D04882329F12EC025E639E094
:1010E0008DE197E00E948C1000919A0410E020910D
:1010F000990430E045E659E0B60162507109C70134
:1011000002970E94311C882309F473C280919B04CA
:1011100081116FC280919D0481116BC221E02093E7
:101120009B0459C2F1E0F0939B0440E060E073E05F
:1011300084EF96E00E944E1085E09BEF0EE412E0F3
:101140004701E4E08E1A91085601A90EB11C97FDE3
:10115000BA94F1E0AF1AB10823E0E20EF11CC80E18
:10116000D11C3FEFC31AD30AED81FE818081882311
:10117000C9F1F80180818823A9F1818192816AE017
:1011800070E00E94652D9B01681579055CF18381F3
:1011900094816AE070E00E94652D6A157B0514F168
:1011A000E216F306FCF0C616D706E4F0ED85FE85E0
:1011B000808118165CF48150808380919504909111
:1011C0009604C2969093960480939504F801108239
:1011D00021E0F101208340E06DE579E084EF96E0C5
:1011E0000E944E10095F1F4F32E00A3D130709F0BD
:1011F000BBCF02C0F1011082E989FA8980818F5F3B
:101200008083F10132979081891738F4ED85FE854E
:10121000808118160CF4E1C0B9C0E989FA891082FE
:1012200000E010E09101255031093A832983C10182
:1012300004979C8B8B8BF1013397FE8BED8B298D63
:10124000022E000C330B388F2F8B472C072C000CF1
:101250005508E981FA818081E82EF12C0E151F05D1
:10126000ACF68230D8F0B801012E000C880B990B37
:101270000E94ED314B015C01B70161507109072EED
:10128000000C880B990B0E94ED319B01AC01C5014C
:10129000B4010E94052E6B017C0105C0C12CD12C2C
:1012A000E12C8FE3F82EEB89FC89608170E080E00F
:1012B00090E00E94ED319B01AC01C701B6010E9494
:1012C0004C3220E030E040E251E40E944C324B01CD
:1012D0005C01A701960160E070E080E89FE30E9456
:1012E000932D6B017C01ED89FE89608170E080E0C7
:1012F00090E00E94ED319B01AC01C701B6010E9454
:101300004C3220E030E040E251E40E944C329B013C
:10131000AC01C501B4010E94942D22E73AE84EE8E1
:101320005CE30E944C326B017C010E94002E4B0159
:101330005C01C701B6010E94F12E20919D04243169
:1013400010F520E030E048E851E40E944C320E9461
:10135000772E6B017C0120E030E048E851E4C501C4
:10136000B4010E944C320E94772E9601AB016F8926
:10137000788DC2010E949C1340E063E579E084EF20
:1013800096E00E944E100F5F1F4F63CF698D872D2F
:101390000E948113809191048F5F8093910440E0BB
:1013A00069E479E084EF96E00E944E10EB85FC85BD
:1013B00020818091950490919604213029F023306A
:1013C00031F488519C4F05C088539F4F02C08C59FF
:1013D0009F4F9093960480939504ED85FE858081C0
:1013E00018168CF420E030E040E85FE36F817885E8
:1013F00089859A850E94EC2E181644F4EB85FC85AD
:101400008081833019F0ED81FE8110822D813E8133
:101410002D5E3F4F3E832D838B859C8543969C8715
:101420008B87ED85FE857396FE87ED8729893A893E
:101430002D5E3F4F3A8B298B33E1230E311C8F8574
:1014400098894396988B8F87ED81FE81E257F34010
:1014500009F0A1CB40918D0450918E0420918B0412
:1014600030918C0460918904F0909E0473E111E046
:101470000FEF421753070CF48FC0653608F08CC08D
:10148000FF2009F489C0A0E07A9FF0011124E65200
:10149000FD4F8081882311F0AF5FF6CFA83008F0B0
:1014A000A0E07A9FD0011124A652BD4F1C93119643
:1014B0000C93119712960C9312971C961C921C97E2
:1014C00051961C925197EEE06E9FC0011124FC01D1
:1014D000EC53FC4FE4911396EC931397FC01EB5300
:1014E000FC4FE4911496EC931497FC01EA53FC4FE3
:1014F000E4911596EC931597FC01E953FC4FE491A8
:101500001696EC931697FC01E853FC4FE49117965E
:10151000EC931797FC01E753FC4FE4911896EC937A
:101520001897FC01E653FC4FE4911996EC93199738
:10153000FC01E553FC4FE4911A96EC931A97FC01D9
:10154000E453FC4FE4911B96EC931B97FC01E3538F
:10155000FC4FE4911D96EC931D97FC01E253FC4F68
:10156000E4911E96EC931E97FC01E153FC4FE4912D
:101570001F96EC931F97FC01E053FC4FE4915096AB
:10158000EC936F5F8EE0689FF0011124ED53FC4FE8
:10159000E4912E0F311D6DCF6093890430938C043C
:1015A00020938B0469960FB6F894DEBF0FBECDBFB3
:1015B000DF91CF911F910F91FF90EF90DF90CF902F
:1015C000BF90AF909F908F907F906F905F904F9063
:1015D0003F902F90089540E060E073E084EF96E044
:1015E0000E944E10ED81FE811082698D872D0E9430
:1015F000811383E09EEFA2CD8F929F92AF92BF9214
:10160000CF92DF92EF92FF920F931F93CF93DF93CE
:10161000CDB7DEB7A8970FB6F894DEBF0FBECDBF2B
:10162000942E822E21E0209323071CA21BA21EA22F
:101630001DA218A61FA22AE0AE014F5F5F4F7A01DC
:101640000E94AA31F70101900020E9F73197AF011C
:101650004E195F09B701CE0183960E94180E10E063
:101660008FA198A58017910760F56DE372E0C7011F
:101670000E94550E8FA198A5ABA0BCA0CD80DE80A6
:10168000A114B104E9F1009799F0C80ED91EB60172
:10169000C7010E94DF0D882399F129813A818D814C
:1016A0009E81B501820F931F0E941A30DE82CD8287
:1016B000B701CE0183960E94390EC7010E94500ED9
:1016C000CFCF9092260780922707CE0183960E9463
:1016D000E51BCE0183960E94500EA8960FB6F89493
:1016E000DEBF0FBECDBFDF91CF911F910F91FF9055
:1016F000EF90DF90CF90BF90AF909F908F90089524
:10170000C7010E94060ED4CF1F93CF93DF93CDB7AE
:10171000DEB727970FB6F894DEBF0FBECDBF162FEA
:101720001A8219821C821B821E821D82BC01CE017C
:1017300001964F830E94390E109326074F814093E4
:10174000270781E080932307CE0101960E94E51BC5
:10175000CE0101960E94500E27960FB6F894DEBF78
:101760000FBECDBFDF91CF911F910895CF92DF9231
:10177000EF92FF920F931F93CF93DF938111AEC02F
:1017800080914207882309F4A9C01092E70681E0FE
:1017900080932307109222071092210780932C0731
:1017A00080932D07CFEBD3E01CE00E9477148823B1
:1017B000E1F3FE01849110922607109327078FEB27
:1017C00093E00E94891D80912407982F990F890F1B
:1017D00081958D5A8093260780912507982F990F20
:1017E000890F8195835D809327078091340784FF5B
:1017F00003C08BEB93E002C087EB93E00E94941749
:1018000080912407982F990F890F81958D5A809385
:101810002607809127078F5F809327078091F9061D
:10182000882319F083EB93E002C08FEA93E00E94D3
:10183000941780912407982F990F890F81958D5ABD
:1018400080932607809127078F5F809327078BEA75
:1018500093E00E9494178091E506813099F480917D
:10186000F9068F5F082E000C990B6091FA0670E064
:101870006F5F7F4F0E94652D8093F90684EF96E09D
:101880000E9482108091E4068130B9F08091420775
:10189000482F50E060E070E0C0903407D0903507EA
:1018A000E0903607F0903707C416D506E606F7062F
:1018B00008F47BCF8F3F09F478CF8FEF80934207F6
:1018C00060E084EF96E00E943B101092F50684EFF2
:1018D00096E00E94871081E08093E70680E090E028
:1018E0000E940A33C82FD0E0D0939404C09393048D
:1018F00081E090E00E940A3390E0982F8827C80F7B
:10190000D91FC136FAEEDF0728F4D0939404C093B0
:10191000930404C010929404109293048091640084
:101920008E7F8093640087EC80937C0080E28093BC
:101930007B0062E070E080E090E00E94710F809197
:101940007A00806480937A0080917A0086FDFCCFD3
:101950000091780010917900009510958EE58093A4
:101960007C0062E070E080E090E00E94710F809166
:101970007A00806480937A0080917A00C82FC074C6
:1019800086FDFACFE0907800F09079000E944C0F2D
:101990009B01AC012095309540955095E094F094D2
:1019A000E09ED001E19EB00DF09EB00D11240E948A
:1019B0003F336B017C010E944C0F6C0D7D1D8E1D11
:1019C0009F1D611571058105910511F00E94A131DE
:1019D000809164008160809364001092E7068AE041
:1019E0008093990488E180939A0482E380939D0414
:1019F00083E080939E0410929B0410929F041092A7
:101A0000A00410928E0410928D04109296041092ED
:101A1000950410927803109277031092910410921B
:101A2000A3041092900410927903109276031092FE
:101A3000750310927403109273031092720381E085
:101A400080938F0410928A04109287041092880465
:101A5000109298041092970410929204EEE4F2E02F
:101A60001082379682E0EA3DF807D1F7EAEDF2E01E
:101A70001082739683E0E237F807D1F7EAE7F3E0E4
:101A80001082379684E0EF36F807D1F710924202C1
:101A90001092460210924A0210928904E3ECF3E09D
:101AA000E491F0E0F0938C04E0938B040FE614E0F3
:101AB0006AE070E080E090E00E946A0E6C0F6C5962
:101AC000F801608360E370E080E090E00E946A0EBD
:101AD000F8016183C95F0E5F1F4FC43549F7DF917D
:101AE000CF911F910F91FF90EF90DF90CF900895CD
:101AF0000895CF92DF92EF92FF920F931F93CF93AF
:101B0000DF936C017A018B01C0E0D0E0CE15DF05D8
:101B100089F0D8016D918D01D601ED91FC91019074
:101B2000F081E02DC6010995892B11F47E0102C0D8
:101B30002196ECCFC701DF91CF911F910F91FF90BC
:101B4000EF90DF90CF9008950E940C300F931F9379
:101B5000CF93DF938C01EB01FC0180819181009791
:101B6000B1F0688179816115710579F04281538105
:101B70002C813D814217530740F00E941A308C811E
:101B80009D81F8019583848313C00E94B6308881BB
:101B90009981F801918380838A819B8193838283D9
:101BA0008C819D8195838483198218821B821A827D
:101BB0001D821C82DF91CF911F910F9108950F9389
:101BC0001F93CF93DF93EC0188819981009729F0CF
:101BD0002A813B812617370788F48B016F5F7F4F7F
:101BE0000E94422F009761F0998388831B830A83A8
:101BF0002C813D81232B11F4FC01108281E001C076
:101C000080E0DF91CF911F910F910895CF93DF93E3
:101C1000EC0188819981009711F00E94B6301982F9
:101C200018821D821C821B821A82DF91CF91089537
:101C3000EF92FF920F931F93CF93DF93EC017B0101
:101C40008A01BA010E94DF0D811104C0CE010E94F9
:101C5000060E07C01D830C83B701888199810E94FD
:101C60001A30CE01DF91CF911F910F91FF90EF902D
:101C70000895CF93DF93EC01FB018617970761F07E
:101C8000608171816115710529F0448155810E943F
:101C9000180E02C00E94060ECE01DF91CF9108956A
:101CA000FC01808191810C94B630FC01118210827C
:101CB00013821282158214826115710551F0FB01A5
:101CC00001900020E9F73197AF01461B570B0C94A8
:101CD000180E0895CF93DF9300D000D0CDB7DEB7B4
:101CE000611571058105910579F09B01AC0169834E
:101CF0003A834B835C830E949C3129813A814B81DA
:101D00005C810E94203303C060E070E0CB010F9043
:101D10000F900F900F90DF91CF910895611571058D
:101D200079F0FB0101900020E9F73197AF01461BE4
:101D3000570BDC01ED91FC910280F381E02D0994B9
:101D400080E090E0089590E0FC013197EF30F105DC
:101D5000B0F5E159FF4F0C94792D809180008F7779
:101D600003C0809180008F7D8093800008958091D2
:101D70008000877FF9CF84B58F7702C084B58F7DCF
:101D800084BD0895809190008F7707C08091900066
:101D90008F7D03C080919000877F8093900008958D
:101DA0008091C0008F7703C08091C0008F7D8093A9
:101DB000C00008958091C200877F8093C20008957B
:101DC0001F93CF93DF93282F30E0F901E055F54FB3
:101DD0008491F901EF56F54FD491F901EE58F54F82
:101DE000C491CC23C9F0162F81110E94A30EEC2FB1
:101DF000F0E0EE0FFF1FEF5BFE4FA591B4918FB7A0
:101E0000F894111105C09C91ED2FE095E92302C0D3
:101E1000EC91ED2BEC938FBFDF91CF911F91089543
:101E2000CF93DF9390E0FC01EF56F54F2491FC0136
:101E3000EE58F54F8491882361F190E0880F991F47
:101E4000FC01EA5DFE4FC591D491FC01EF5BFE4FB2
:101E5000A591B491611109C09FB7F894888120952C
:101E600082238883EC912E230BC0623061F49FB7EC
:101E7000F8943881822F809583238883EC912E2BD0
:101E80002C939FBF06C08FB7F894E8812E2B288330
:101E90008FBFDF91CF9108953FB7F8948091AB0445
:101EA0009091AC04A091AD04B091AE0426B5A89B6E
:101EB00005C02F3F19F00196A11DB11D3FBFBA2FDC
:101EC000A92F982F8827820F911DA11DB11DBC013C
:101ED000CD0142E0660F771F881F991F4A95D1F701
:101EE00008958F929F92AF92BF92CF92DF92EF921E
:101EF000FF926B017C010E944C0F4B015C01C114ED
:101F0000D104E104F104F1F00E944C0FDC01CB019B
:101F100088199909AA09BB09883E9340A105B10512
:101F200070F321E0C21AD108E108F10888EE880EAA
:101F300083E0981EA11CB11CC114D104E104F1047A
:101F400019F7DDCFFF90EF90DF90CF90BF90AF906B
:101F50009F908F9008951F920F920FB60F921124A9
:101F60002F933F938F939F93AF93BF938091B80626
:101F70009091B906A091BA06B091BB063091AA041F
:101F800023E0230F2D3720F40196A11DB11D05C0BC
:101F900026E8230F0296A11DB11D2093AA04809369
:101FA000B8069093B906A093BA06B093BB06809189
:101FB000AB049091AC04A091AD04B091AE04019635
:101FC000A11DB11D8093AB049093AC04A093AD040C
:101FD000B093AE04BF91AF919F918F913F912F919C
:101FE0000F900FBE0F901F9018951F920F920FB673
:101FF0000F9211242F936F937F938F939F936091F0
:10200000B504662371F18091A9048F5F8093A904C0
:102010009091B604891728F12091B30481E0282714
:102020002093B3041092A9048091B704882369F027
:102030008091000193E4899F802D1124895B809316
:1020400000010E94592D9093B404222341F0809105
:10205000B40490E0909399008093980002C080E0CF
:10206000F8CF9F918F917F916F912F910F900FBE1D
:102070000F901F901895FC0161110FC0178A158AE7
:1020800014A213A2108E1092B4041092B5041092F0
:10209000B30410929900109298000895EF92FF9265
:1020A0000F931F93CF93DF931F92CDB7DEB77C01C1
:1020B0008B01411105C060E049830E943B104981BA
:1020C00050E0FA01EE0FFF1FEE0DFF1D168705878A
:1020D000DA011996AA0FBB1FAE0DBF1D1D921C92EF
:1020E000F701E40FF51F81E0818389E0868B118E73
:1020F000138E158E0F90DF91CF911F910F91FF904E
:10210000EF90089540E06BEA79E00C944E1040E0C7
:1021100063EA79E00C944E104F925F926F927F9237
:102120008F929F92AF92BF92CF92DF92EF92FF92E7
:102130000F931F93CF93DF93F901C490319654917D
:10214000EC010F8564350CF018C140330CF015C15B
:102150000C2C000CDD08A62F062E000CBB0B7D01FD
:10216000EC0CFD1C1E141F040CF007C1A52E842EC0
:10217000042E000C9908F401E50FF11D57FDFA95A6
:102180001E161F060CF0F9C02E5F3F4FE601279682
:10219000D7FD279673E0D595C7957A95E1F747FF68
:1021A0000AC0A52EA40EC89DA001C99D500D1124E2
:1021B000241B350B40E0EA2D0A2C000CFF0BE40F2A
:1021C000F11D47FDFA95F1971CF050E3A52EA41AD6
:1021D00067FD60E0F701E535F10514F0E4E5F0E0B6
:1021E0007E2FFC01D484D426862F062E000C990B5A
:1021F000FC01EA1BFB0BDF017F01F7E0EF22FF246C
:10220000E0E8F0E002C0F595E795EA94E2F71E2FCA
:10221000B7FD179653E0B595A7955A95E1F72A0FA4
:102220003B1FE42FE77051E001C0550FEA95EAF734
:10223000459545954595B4E54B02800D911D1124BA
:1022400088549B4FC12C0A2C000CBB0899249394F2
:102250002E015524EC2DF0E0EA15FB050CF08DC0A5
:10226000F90144910130E1F47C01A12F862E881AF6
:10227000B82DBE0DB71708F077C0B42FBA2321F0E0
:10228000E701B881B52BB883B0E0B595A795109755
:1022900019F431964491A0E8DFEFED1AFD0AE8CF7A
:1022A00001111FC0752E70947C01A12FF901862E9B
:1022B000881AB82DBE0DB71708F056C0B42FBA2330
:1022C00021F0E701B881B721B883B0E0B595A795B3
:1022D000109719F431964491A0E8DFEFED1AFD0A4A
:1022E000E8CF033031F07C01A12FF901862E881A46
:1022F00037C0752E7094862E7C01A12FF9018716A8
:10230000D8F4B42FBA2359F0E701B881682C6D24B2
:1023100060FE02C0B52B02C0B721E701B883B0E070
:10232000B595A795109719F431964491A0E8839438
:10233000DFEFED1AFD0AE3CFD92416C0B42FBA237C
:1023400021F0E701B881B527B883B0E0B595A7952E
:10235000109719F431964491A0E8DFEFED1AFD0AC9
:10236000B82DBE0DB71750F3550F19F48C5A9F4F67
:1023700051E0C394240D351D6DCFDF91CF911F9196
:102380000F91FF90EF90DF90CF90BF90AF909F9014
:102390008F907F906F905F904F900895FC0164350F
:1023A00008F053C0403308F050C09785742F7595DE
:1023B00075957595262F062E000C330B542F5770EC
:1023C0009230A1F4F901E854FB4F84E57802E00D66
:1023D000F11D1124808190E0052E02C0959587950E
:1023E0000A94E2F78095982F91700AC0933041F4D7
:1023F00084858170462740954170841303C014C0C2
:10240000911112C084E57802200D311D1124F901CB
:10241000E854FB4F81E090E001C0880F5A95EAF73D
:1024200080959081892310C084E57802200D311DAC
:102430001124F901E854FB4F81E090E001C0880FBE
:102440005A95EAF79081892B80830895DF92EF9265
:10245000FF920F931F93CF93DF931F92CDB7DEB7F9
:102460008C01D62EF42EE12CE21654F46E2D6D0D57
:102470004F2DC80129830E94CE11E3942981F4CF06
:102480000F90DF91CF911F910F91FF90EF90DF9010
:102490000895DF92EF92FF920F931F93CF93DF93F4
:1024A0007C01D62FD22EC42F002E000C110B040F4E
:1024B000111D47FD1A954C2F0C2E000C550B401783
:1024C000510744F42D2D4C2F6D2FC7010E94261269
:1024D000CF5FF1CFDF91CF911F910F91FF90EF90E0
:1024E000DF9008956F927F928F929F92AF92BF92EA
:1024F000CF92DF92EF92FF920F931F93CF93DF93D0
:10250000EC016A3019F428859E81A1C06D3009F470
:10251000A4C01E81BA84D9848F8483E58D150CF400
:102520007FC08FE28B150CF47BC08F8190E0019708
:10253000189F9001199F300D1124C9018D0D911D17
:10254000D7FC9A95181619060CF06AC08885819FE9
:10255000C00111248B0D911DB7FC9A951816190610
:102560000CF05EC09D2CCD2CE62EF12CEC2DED193F
:102570000E2E000CFF0B8F8190E0E817F9070CF08E
:102580004EC00197E817F90779F0E89E9001E99E9F
:10259000300DF89E300D1124E20FF31F8D859E85BE
:1025A000E80FF91F749001C0712C6B2CAB2C2A2DF5
:1025B0002B19022E000C330B888590E02817390761
:1025C0005CF570FE10C0113031F44A2D6C2DCE0137
:1025D0000E94CE111DC0012F212F462D692DCE0145
:1025E0000E94491215C088899F85891789F08F87B5
:1025F000113031F44A2D6C2DCE010E94CE1107C04E
:10260000012F212F462D692DCE010E9449128F8660
:102610007694A394610ECBCFC394910EA7CF8F86EF
:102620002E813F818985329F800D112489879D816C
:10263000992399F0082E000C990B44E550E0239F54
:10264000401951091124481759073CF498858A8587
:10265000299F800D11248A87198681E090E0DF91FF
:10266000CF911F910F91FF90EF90DF90CF90BF908F
:10267000AF909F908F907F906F9008958EBD0000D7
:102680000DB407FEFDCF8EB50895E0E027E02E9F44
:10269000D0011124A25BBD4F9C91992311F0EF5FF3
:1026A000F6CFE43108F0E0E097E0E99FF001112473
:1026B000E25BFD4F91E090832091990430E021503E
:1026C00031099AE0929FD001939FB00D1124B283FB
:1026D000A18320919A0430E0241B350B929FA00126
:1026E000939F500D11249A01260F371F34832383A3
:1026F0008583668340E069E979E084EF96E00C9495
:102700004E10E0E094E0E99FD0011124AE5BBD4F94
:102710009C91913011F4EF5FF5CFE33008F0E0E0E9
:1027200094E0E99FF0011124EE5BFD4F91E090836E
:102730008183628313820895CF93DF93EC01E0E0FD
:1027400097E09E9FD0011124A658BC4F8C918823FE
:1027500011F0EF5FF6CFE33208F0E0E087E0E89FAA
:10276000F0011124E658FC4F81E080839AE09C9FA1
:10277000D0019D9FB00D1124B283A183969FD001FB
:10278000979FB00D1124B483A38345832683DF91E3
:10279000CF910895CF93DF931F92CDB7DEB76983B2
:1027A000DC01ED91FC910280F381E02D41E050E0ED
:1027B000BE016F5F7F4F09950F90DF91CF91089514
:1027C00083E08093E9008091F200882319F08AE386
:1027D0008093E80008958F929F92AF92BF92CF921C
:1027E000DF92EF92FF920F931F93CF93DF935C01E1
:1027F0006B018A0180910801882309F45EC08091F1
:10280000B204882309F459C08091B00480FF05C048
:102810008091E00082608093E000E8018AEFF82E6A
:1028200093E0E92E2FE3822E3AE3932E209709F4CA
:102830003DC08FB7F894E092E9009091E80095FFD1
:1028400006C09091F200282D291B922F01C090E024
:102850008FBF91110AC0FA94FF2079F161E070E016
:1028600080E090E00E94710FE1CF292F30E0C21785
:10287000D3070CF49C2F8FB7F894E092E9002091D5
:10288000E80025FF11C0292F30E0C21BD30BF60151
:10289000915020F041914093F100FACFC20ED31E27
:1028A0009091E80095FF13C08FBFC0CF5D9884E67C
:1028B0008093AF041016110644F081E090E0F5011A
:1028C0009383828380E090E005C0C80103C09092AA
:1028D000E800EACFDF91CF911F910F91FF90EF9029
:1028E000DF90CF90BF90AF909F908F900895DF9230
:1028F000EF92FF920F931F93CF93DF931F92CDB769
:10290000DEB74091440750914507609146077091AA
:1029100047072FB7F8948091B8069091B906A09117
:10292000BA06B091BB062FBF481B590B6A0B7B0B35
:102930008091430790E0A0E0B0E000913C07109147
:102940003D0720913E0730913F0784179507A60762
:10295000B70730F4011511052105310509F09AC2B8
:1029600080E0012B022B032B09F0D5C20E940D1D24
:102970008091F506882309F4ADC080910907811183
:10298000A9C08091010790910207E0910607F0919C
:102990000707EE0FFF1FE80FF91F459154914115EE
:1029A000510501F520910507222331F01092070708
:1029B00010920607FC0114C01092F5068091F406EF
:1029C000882341F080E00E940D1DE0910607F09100
:1029D00007072FC060E084EF96E00E943B107AC0AA
:1029E000459154919A01369527953695279540FF44
:1029F00051C0CA01B6E096958795BA95E1F78F71F7
:102A0000952F96959695969590512F70223071F14D
:102A1000F8F4211117C08B3008F08AE080930A0780
:102A2000E0910607F09107073196F0930707E093CE
:102A30000607EE0FFF1F8091010790910207E80F34
:102A4000F91FCECF213061F760E00E944E1DE8CF24
:102A50002330B1F0243021F72091F806829F802D99
:102A600011248093110790931207DACF2091F80672
:102A7000829F802D112480930D0790930E07D0CF55
:102A80002091F806829F802D112480930F07909348
:102A90001007C6CF2F73209308078091F806859FF3
:102AA000802D11248093090710921907109218079E
:102AB0001092170781E080930B078093B304109264
:102AC0000C078091060790910707019690930707DE
:102AD0008093060780910B07882309F4E7C0809153
:102AE0000907811106C060E084EF96E00E943B1068
:102AF000DDC081508093090780911907811148C07A
:102B000020911707309118072F5F3F4FC901880F99
:102B1000991FE0911307F0911407E80FF91F6591D1
:102B20007491862F877080931A07AB0163E05695E6
:102B300047956A95E1F7CA0196958795972F9695DF
:102B4000969590931B078F739091F806899F802D1F
:102B500011248093190741704093B70430931807EC
:102B6000209317078091150790E02817390780F008
:102B700020911607222339F0821B910990931807A0
:102B80008093170705C060E084EF96E00E943B1039
:102B90008091190781508093190780910C0721E0DB
:102BA000280F20930C074091080730911B07340F22
:102BB00080910007380F3093F60660910F07662367
:102BC00071F070E0822F022E000C990B0E94652D8F
:102BD00080911007869F300D11243093F606809166
:102BE000F60690E0849664E270E00E94652D809382
:102BF000F60630910A073093F70660910D076623B9
:102C000081F0062E000C770B822F022E000C990B00
:102C10000E94652D80910E07869F300D1124309300
:102C2000F706609111076623A1F0822F220F990BFE
:102C300070E00E94652DCB0162E070E00E94652D7E
:102C4000209112079091F706289F900D11249093E0
:102C5000F7068091F7064F3341F08A300CF089E097
:102C600087FD80E08093F70602C01092F706F89483
:102C7000E091F606F0E0E754F64FE491E093B604F5
:102C800080911C079091F906899F802D11249091C5
:102C9000F706899F802D112490911A07899F802D16
:102CA00011248093B5048093B404789480914807EC
:102CB000882309F482C08C3020F49CE0E92EE81AC5
:102CC00001C0E12CFF24F394F092230710922C070B
:102CD00010922D07309125079DE2D92E1D2D131B33
:102CE0001E0D03E0030F2EE4412F63E08DE197E01A
:102CF00039830E94491239810CEF030F1D5F202F89
:102D000041E0612F80E50E94401E202F42E0612FAC
:102D100083E00E94401EF0922C07F0922D07009154
:102D20002507FD2CF01AFE0C2EE44F2D63E08DE1FB
:102D300097E00E94261213E0100F1F0D4FEF410F76
:102D40002EE463E08DE197E00E942612035023E019
:102D5000F20E402F6F2D80E00E94281E402F6F2D15
:102D600083E50E94281E41E06F2D83E00E94AA1D8A
:102D700042E06F2D80E50E94AA1D145044E0612FAF
:102D800080E50E94AA1D48E0612F83E00E94AA1DF1
:102D900084E08093260780912507E81A8E2D815DB7
:102DA000809327078091490790914A070E94891DC7
:102DB00080914807815080934807809129078F5F51
:102DC0008093290788EBE82E84E0F82ED12C0E940E
:102DD0009B1E82E20E943E13D3948D2D0E943E13CF
:102DE00087E00E943E1381E20E943E1385E10E942B
:102DF0003E138FE70E943E13E0913007F0913107B8
:102E0000908180913307892B8083E0912E07F09188
:102E10002F0790818091320780958923808300E07D
:102E200010E0F701E00FF11F80810E943E130F5F59
:102E30001F4F04351105A9F734E5E30EF11C86E0B8
:102E4000D812C5CF8091210781110EC088EF91E083
:102E5000E8EBF4E0DF019C011D9221503040E1F7E6
:102E600010922607109227070E944C0F60933C0790
:102E700070933D0780933E0790933F07209138075A
:102E800030913907621B730B7093410760934007C1
:102E900080E041C02FB7F8948091B8069091B906B0
:102EA000A091BA06B091BB062FBF20914307820FB5
:102EB000911DA11DB11D8093440790934507A093D8
:102EC0004607B09347078091340790913507A0914A
:102ED0003607B09137070196A11DB11D80933407C5
:102EE00090933507A0933607B093370710923C07AD
:102EF00010923D0710923E0710923F070E944C0F20
:102F0000609338077093390780933A0790933B0793
:102F10000E94BC1E81E00F90DF91CF911F910F9115
:102F2000FF90EF90DF900895CF93DF930E94891D6B
:102F3000EC016FE372E08DE197E00E948E0E8C0F42
:102F40009D1FDF91CF91089540E061EB79E084EF20
:102F500096E00C944E10E0911D07F0911E07019031
:102F6000F081E02D682F8DE197E00994AF92BF9238
:102F7000DF92EF92FF920F931F93CF93DF9300D0D6
:102F8000CDB7DEB78C017B0161E472E049835A83DF
:102F90000E94550ED70114968D919C9115974981E9
:102FA0005A81009741F15A018A159B0508F45C018A
:102FB000D701ED91FC911197EA0DFB1DD080108295
:102FC0006D917C916115710561F0FB01019000200C
:102FD000E9F73197AF01461B570BC8010E94180E45
:102FE00003C0C8010E94060EF701808191818A0DFD
:102FF0009B1DDC01DC92C8010F900F90DF91CF91F7
:103000001F910F91FF90EF90DF90BF90AF900895C8
:10301000FC018091B204811103C08FEF9FEF0895EE
:103020009FB7F89482E08093E9002091F20030E0AD
:103030001216130614F421E030E02115310559F081
:10304000289884E68093B1048091F1008083809178
:10305000F200882319F09FBFC90108958BE6809381
:10306000E800F9CF8091C00681110DC082E0809305
:10307000BC0684E08093BD061092BF061092BE0687
:1030800081E08093C0068CEB96E00895FC01848576
:10309000958597FD0BC09FB7F89482E08093E90077
:1030A0008091F2009FBF90E0019608959FB7F89439
:1030B00082E08093E9008091F2009FBF90E0089544
:1030C0004091CD065091CE062091CB063091CC0692
:1030D00042175307B4F49091E8009570E1F3909192
:1030E000E80092FD19C08093F1008091CD06909187
:1030F000CE0601968F739927892B19F48EEF809352
:10310000E8008091CD069091CE0601969093CE0670
:103110008093CD0681E0089580E00895DF92EF92DC
:10312000FF920F931F93CF93DF93D82E8A017B01D9
:10313000E40EF51EEB01CE15DF0571F0D7FE03C0DE
:10314000FE01849101C088810E946018219681113E
:10315000F2CF8FEF9FEF01C0C801DF91CF911F9198
:103160000F91FF90EF90DF900895615030F0209123
:10317000F100FC0120830196F8CF289884E6809323
:10318000B10408950F931F93CF93DF931F92CDB790
:10319000DEB78C01FC018485958597FF0EC0CE01BA
:1031A00001960E940818019719F4298130E002C0A5
:1031B0002FEF3FEFF80135872487F8018485958547
:1031C0000F90DF91CF911F910F910895CF93DF93CF
:1031D0001F92CDB7DEB7FC018485958597FD05C0AC
:1031E0002FEF3FEF358724870BC0CE0101960E9459
:1031F0000818019719F4898190E002C08FEF9FEFC2
:103200000F90DF91CF9108950F931F93CF93DF938A
:103210001F92CDB7DEB782E0898342E450E06DEDC6
:1032200079E080E80E948E180E943218DC01129624
:103230000D911C9113970115110569F0D801ED91BD
:10324000FC910280F381E02DBE016F5F7F4FC801CA
:10325000099597FF07C089810F90DF91CF911F914A
:103260000F910895F80100851185E5CF1F920F9207
:103270000FB60F9211248F939F938091E10090914C
:10328000E100937F9093E10083FF0FC01092E9006B
:1032900091E09093EB001092EC0092E39093ED009C
:1032A0001092B20498E09093F00082FF20C093E067
:1032B0009093E9009091F200992319F09AE390938A
:1032C000E8009091AF04992339F09091AF049150A8
:1032D0009093AF04992389F19091B104992339F027
:1032E0009091B10491509093B104992341F184FFDE
:1032F00010C08091E2008E7E81608093E200809118
:10330000E1008F7E8093E1008091B0048E7E806129
:1033100011C080FF16C08091E2008E7E8061809394
:10332000E2008091E1008E7E8093E1008091B00404
:103330008E7E81608093B00404C05D9ACDCF289AC0
:10334000D6CF9F918F910F900FBE0F901F90189521
:103350001F920F920FB60F921124CF92DF92EF922D
:10336000FF920F931F932F933F934F935F936F930E
:103370007F938F939F93AF93BF93EF93FF93CF93DD
:10338000DF93CDB7DEB76C97DEBFCDBF1092E900FB
:103390008091E80083FFFAC168E0CE0145960E9463
:1033A000B51882EF8093E8008D8987FF05C0909162
:1033B000E80090FFFCCF03C09EEF9093E800982FA9
:1033C000907609F0C6C09E892F89188D91110CC086
:1033D000803829F48091C9068093F10002C01092D0
:1033E000F1001092F10047C1422F50E0512B913073
:1033F00051F4811140C14130510509F03CC1809127
:10340000C9068D7F0BC0933061F4811134C1413006
:10341000510509F030C18091C90682608093C906C8
:103420002AC1953041F48091E80080FFFCCF2068EC
:103430002093E30020C1963009F05FC0EB8CFC8C38
:103440001092E9001092CE061092CD06123091F53E
:103450001092CC061092CB060E94041999E0BE018E
:103460006F5F7F4FDB01E92F1D92EA95E9F79983A2
:103470001A8391E09E8390EA98879AEF998720912A
:10348000CD063091CE06275F3F4F3C832B838D8343
:103490001092E9001092CE061092CD06F092CC0662
:1034A000E092CB0649E050E080E00E948E180E9436
:1034B0000419E1C0F092CC06E092CB060E943218CB
:1034C000DC011296ED90FC901397E114F10409F4DD
:1034D000C0C0D701ED91FC910480F581E02DBE01C3
:1034E0006B5E7F4FC7010995009719F00CF0C3C0C0
:1034F000C6C0F701E084F184E8CF973009F4BFC07B
:10350000983021F481E08093F100B5C0993009F042
:10351000B2C0837009F0B3C0E8E1F1E081E021E0DE
:1035200036E39081992361F08093E9002093EB00CA
:1035300091919093EC003093ED008F5F873089F785
:103540008EE78093EA001092EA008F898093B2049C
:1035500092C08B8D9C8D1092E9001092CE06109235
:10356000CD069093CC068093CB06898D811156C0F1
:103570008E899D89913A59F4813209F080C047E0E3
:1035800050E061E071E080E00E948E1874C09132DA
:1035900009F075C0833289F4888D90E0982F8827D0
:1035A0002F89822BA0E0B0E08093090190930A015B
:1035B000A0930B01B0930C015EC0803269F480913E
:1035C000E80082FFFCCF67E081E091E00E94B5183F
:1035D0008BEF8093E80006C0823209F04CC08F89DF
:1035E000809308018091C806882319F0EEEFFAE075
:1035F00002C0E0E0F8E08091010190910201A09109
:103600000301B0910401803B9440A105B10509F08C
:1036100088C08091080180FFA0C083C00E9432183A
:10362000DC0112960D911C9113970115110539F1CA
:10363000D801ED91FC910190F081E02DBE016B5E0F
:103640007F4FC8010995811116C0F80100851185C9
:10365000ECCF1130C1F0133091F48F89882309F435
:1036600055C08230E9F440E860E18FE29AE00E94C0
:10367000FD2C882321F08EEF8093E80087C081E243
:103680008093EB0083C08B8D9C8D089711F4109371
:10369000CA068091CA06811136C060E47AE038C05B
:1036A000813029F440E86BE083E29AE0E0CF833098
:1036B00031F70E943218DC011296ED90FC901397BE
:1036C0008E010F5F1F4F6801E114F10479F0D701FB
:1036D000ED91FC910680F781E02DB801C7010995B5
:1036E000080F111DF701E084F184EECFD8011C9280
:1036F000F60101900020E9F73197BF016C197D09AF
:1037000040E0C601B4CF62E57AE002C06FE17AE042
:103710006115710509F4B3CFFB01449150E080E8D5
:1037200033CF0FB6F894A89580916000886180939C
:103730006000109260000FBEA895EE3F2AE0F207ED
:1037400039F08091FE0A9091FF0A9183808393CF94
:103750001092FF0A1092FE0A8ECFEE3F8AE0F80721
:1037600031F0808191819093FF0A8093FE0A87E770
:1037700097E7918380839BE088E10FB6F894A89542
:10378000809360000FBE9093600075CF6C960FB66B
:10379000F894DEBF0FBECDBFDF91CF91FF91EF91C7
:1037A000BF91AF919F918F917F916F915F914F9159
:1037B0003F912F911F910F91FF90EF90DF90CF904D
:1037C0000F900FBE0F901F901895FC0144815581FA
:1037D000608171818DE197E00C94790D8F929F92B9
:1037E000AF92BF920F931F93CF93DF93CDB7DEB706
:1037F000A1970FB6F894DEBF0FBECDBF19A242301D
:1038000008F44AE08E010F5D1F4F842E912CA12CED
:10381000B12CA50194010E948933E62FB901CA0198
:1038200001501109EA3014F4E05D01C0E95CD801EF
:10383000EC93232B242B252B61F7B8018DE197E026
:103840000E948E0EA1960FB6F894DEBF0FBECDBFBC
:10385000DF91CF911F910F91BF90AF909F908F906C
:1038600008954F925F926F927F928F929F92AF9244
:10387000BF92CF92DF92EF92FF920F931F93CF935D
:10388000DF93FA01E490F12C3196A491EFEC6E2EC7
:10389000EAE07E2EF301B491E0EDFAE0E4914C0110
:1038A0008E0C9F1C28153905A4F46901CB0ED11C80
:1038B0008C159D0574F4B0E05B01AA0EBB1E0A15C1
:1038C0001B053CF4E801CE0FD11DFE016C177D07EE
:1038D00014F080E091C0821793070CF08AC0290190
:1038E000481A590A6017710724F4E801C61BD70B60
:1038F00002C0C0E0D0E08C149D041CF07601E81AF0
:10390000F90AAE16BF061CF0DF01A61BB70B1C2F71
:10391000C0E8D0E0982E921AA62EA01A612F70E06F
:103920006A177B07B4F6042DCA2CC10ED12C802F48
:1039300090E08E159F050CF058C0FA012491FC010F
:1039400033E0F595E7953A95E1F7329630E0295F57
:103950003F4F83E0359527958A95E1F7629FC00137
:10396000639F900D729F900D1124E80FF91FE40FD3
:10397000F51FE491F0E0802F87709E0102C035951D
:1039800027958A95E2F7E223F323EF2B61F1F30108
:103990002491B92CB00EEB2DF0E083E0F595E7957E
:1039A0008A95E1F730E0295F3F4F93E03595279501
:1039B0009A95E1F7C29EC001C39E900DD29E900DD4
:1039C0001124E80FF91FEF52F54FE491F0E08B2D31
:1039D00087709E0102C0359527958A95E2F7E2230C
:1039E000F323EF2B21F40F5FA2CF1F5F97CF81E06E
:1039F00003C0412C512C76CFDF91CF911F910F91B5
:103A0000FF90EF90DF90CF90BF90AF909F908F90FE
:103A10007F906F905F904F900895CF93DF93482FE2
:103A200050E0EA01C153D94F9DA19923A1F19EA174
:103A3000911131C09EA5FA01EE0FFF1FEA52F94F16
:103A400035A126A1E32FF22FE90FF11DE90FF11D9A
:103A5000259134912F3F9FEF390711F41DA21BC010
:103A600039AB440F551FFA01E752F94F3327220FA4
:103A7000331F05A0F6A1E02DE20FF31F65917491AD
:103A8000811105C040E084EF96E00E944E10299617
:103A90008DA18F5F8DA3DF91CF91089570E0DB0141
:103AA000AA0FBB1FA153B94FD4962C91D497D5968A
:103AB0009C91D597E22FF92FE80FF11DE80FF11D2A
:103AC000259134915F9696963C932E939597F901A4
:103AD000859194919091F806989F802D11246153BF
:103AE000794FFB01B19685A3F901A591B4914B2FB4
:103AF00050E0E82FF0E04E175F0720F4F901259120
:103B00003491832FFB01B296899F802D112485A3C8
:103B100008950F931F93CF93DF938C01C0E0D0E003
:103B2000F801EC0FFD1F6491662371F0E0911D0711
:103B3000F0911E070190F081E02D8DE197E009954D
:103B4000892B11F02196ECCFCE01DF91CF911F91FF
:103B50000F910895AF92BF92CF92DF92EF92FF92B2
:103B60000F931F93CF93DF93182F062FC1E0D3E05D
:103B70008AEFD82E9EEFE92E842F8470C82E842FD2
:103B80008270B82E842F8870A82E4170F42E8C2F4E
:103B9000880F8F5FE80ECC2081F04D2F400F6C2FE7
:103BA000610F8DE197E00E94CE114C2F400F6D2FD9
:103BB000610F8DE197E00E94CE11BB2081F0402F74
:103BC0004D1B6C2F610F8DE197E00E94CE11402FAD
:103BD0004C1B6D2F610F8DE197E00E94CE11AA2042
:103BE00081F04C2F400F612F6D1B8DE197E00E94FB
:103BF000CE114D2F400F612F6C1B8DE197E00E947D
:103C0000CE11FF2081F0402F4C1B612F6D1B8DE1E9
:103C100097E00E94CE11402F4D1B612F6C1B8DE150
:103C200097E00E94CE11CD1744F4E7FC04C0D150B8
:103C3000D394D394ED0CCF5FAACFDF91CF911F9196
:103C40000F91FF90EF90DF90CF90BF90AF900895CD
:103C50000F931F93CF93DF93182F062FD42FC0E01D
:103C6000CD174CF44C2F400F612F8DE197E00E944F
:103C7000CE11CF5FF5CFDF91CF911F910F910895B6
:103C80009F92AF92BF92CF92DF92EF92FF920F93EB
:103C90001F93CF93DF93F82EE62EB22E03E0020F90
:103CA000D0E0C3E08AEFC82E1EEF842F8170982EDB
:103CB000AA24A394A20E4270D42EDF5F802F8B190A
:103CC000180F992081F04C2F440F4A0D6E2D6C1B5C
:103CD0008D2F8F0D0E94281E402F6E2D6D1B8C2F57
:103CE0008F0D0E94281EDD2081F04C2F440F4A0DBD
:103CF0006E2D6C1B8F2D8D1B0E94281E402F6E2D4C
:103D00006D1B8F2D8C1B0E94281EDC1744F417FDA1
:103D100004C0C150C394C3941C0D0E5FCECFDF917D
:103D2000CF911F910F91FF90EF90DF90CF90BF90B8
:103D3000AF909F900895CF93DF93EEE2F7E0C081BC
:103D4000D1819881A2E3B7E08C91892B8883C091BF
:103D50003007D0913107988180913307809589236E
:103D600088830190F081E02D90818C91809589234A
:103D70008083DF91CF910895CF92DF92EF92FF92EF
:103D80000F931F93CF93DF93C9EDD6E000EE16E0BB
:103D9000FF24FA9496E0E92EE00E62E088810E940A
:103DA000100F288130E0F901E055F54F8491F901B9
:103DB000EF56F54FC490F901EE58F54FD490DD2041
:103DC00071F081110E94A30EED2DF0E0EE0FFF1FA8
:103DD000EC59F54FA591B491EC91EC2131F5F80136
:103DE00080818F5F808360E088810E94100F219620
:103DF0000F5F1F4FE012D1CF9091E006915080915C
:103E0000E6069E3F38F49091E20691509E3F10F4F2
:103E10008F5F08C08823A1F08F3F19F41092E60647
:103E20000FC08FEF8093E6060BC0F80180818823D6
:103E3000F1F2F8018F3F11F41082D5CFF082D3CF89
:103E4000DF91CF911F910F91FF90EF90DF90CF9076
:103E50000895CF93DF93CDB7DEB72E970FB6F894C2
:103E6000DEBF0FBECDBF789484B5826084BD84B5BB
:103E7000816084BD85B5826085BD85B5816085BD65
:103E800080916E00816080936E001092810080911D
:103E900081008260809381008091810081608093A5
:103EA00081008091800081608093800080919100EA
:103EB0008260809391008091910081608093910055
:103EC000809190008160809390008091C100846017
:103ED0008093C1008091C10082608093C100809175
:103EE000C10081608093C1008091C3008160809394
:103EF000C3008091C00082608093C0008091C200A6
:103F000081608093C20080917A00846080937A00FF
:103F100080917A00826080937A0080917A0081603B
:103F200080937A0080917A00806880937A00109262
:103F3000B2041092C9061092B0048091D70081603B
:103F40008093D70080EA8093D80089B5806189BDCD
:103F500089B5826089BD09B400FEFDCF61E070E0E3
:103F600080E090E00E94710F8091D8008F7C80618A
:103F70008093D8008091E000807F8093E000809162
:103F8000E1008E7E8093E1008DE08093E200559AFF
:103F9000209AEEEFFFE7859194918B3F9C4D19F4A9
:103FA00081E08093C80682E38093430781E090E03C
:103FB000A0E0B0E080933C0790933D07A0933E07BC
:103FC000B0933F0711E01093FA061093F9068FEFB4
:103FD0008093420784E18093D90682E18093DA06D8
:103FE00083E18093DB0685E18093DC0687E08093A4
:103FF000DD0688E08093DE061092DF060E94BC1E7C
:1040000010932C0710922D0710932207109323076B
:10401000EFE4F1E0E491EF5FE0932407E0E5F1E005
:10402000E491EF5FE093250781E591E090932B0702
:1040300080932A071FB7F8948091A404811127C0A8
:10404000E3E8FAE08491E2EAFAE09491E82FF0E004
:10405000EE0FFF1FEA5DFE4FA591B491EC91E923AD
:1040600021F461E081E10E94E00E61E081E10E94C3
:10407000100F8CB580618CBD8CB580648CBD61E007
:104080008FE00E94100F61E080E10E94100F80918C
:10409000A4048F5F8093A4041FBF8CB58C7F8CBD5C
:1040A0008DB581608DBD61E084E00E94100F61E0FC
:1040B0008CE00E94100F61E086E00E94100F61E02A
:1040C00086E00E94E00E61E070E080E090E00E94F7
:1040D000710F60E086E00E94E00E6AE070E080E030
:1040E00090E00E94710F61E086E00E94E00EEEE732
:1040F000FAE0E491F0E0EE0FFF1FEF5BFE4F8591D9
:10410000949190932F0780932E07E6E7FAE0E491CD
:10411000F0E0EE0FFF1FEF5BFE4F859194919093BF
:10412000310780933007EDE9FAE0E491E09332073C
:10413000E5E9FAE0E491E09333070E949B1E04E373
:1041400011E07DE0F72EF00EF80184910E943E13FD
:104150000F5F1F4FF012F8CFE0913007F091310759
:10416000908180913307892B8083E0912E07F09115
:104170002F0790818091320780958923808300E00A
:1041800014E080E00E943E1301501109D1F781E054
:104190008093F80684E080931C0782E291E090937C
:1041A00004078093030760E080E00E944E1D61E0F9
:1041B00085E00E94100F61E08DE00E94100F61E029
:1041C00085E00E94100FE5EBFAE0E4918E2F90E07D
:1041D000FC013197EF30F10508F07DC0EA5AFF4F3E
:1041E0000C94792D84B5806884BD81E087BD77C04B
:1041F00084B5806284BD81E088BD71C080918000FB
:1042000080688093800081E090E0909389008093A3
:10421000880065C08091800080628093800081E08A
:1042200090E090938B0080938A0059C08091800029
:1042300088608093800081E090E090938D0080936F
:104240008C004DC08091900080688093900081E048
:1042500090E0909399008093980041C080919000E5
:1042600080628093900081E090E090939B00809327
:104270009A0035C08091900088608093900081E022
:1042800090E090939D0080939C0029C08091C00095
:1042900080688093C0008091C0008F7B8093C000B5
:1042A00081E08093CF001BC08091C000806280932A
:1042B000C00081E08093D00012C08091C20088606D
:1042C0008093C2008091C2008B7F8093C20081E006
:1042D0008093D20004C060E085E00E94E00E8091EF
:1042E0009100887F816080939100F8941092800003
:1042F00010928100109285001092840088E191E074
:1043000090938900809388008091810088608093D9
:1043100081008091810081608093810080916F0095
:10432000826080936F0078948091E506813019F463
:104330001092F90607C040E061ED72E084EF96E06C
:104340000E944E1080E00E94B60B4AE0A42EB12CD1
:104350000E947714882311F40C94CC2B8091A30431
:1043600081110C94082A8091900481110C94F129F8
:10437000D0908F042FE6422E24E0522E30E7E32E19
:1043800034E0F32E8201D8018C918D19843610F01F
:104390008C930BC08C5AF801808360E370E080E05E
:1043A00090E00E946A0ED7016C93F8016081645618
:1043B000D7014C918DE197E00E94CE110E5F1F4F07
:1043C000B2E0EB0EF11CE4E007381E07E1F6809145
:1043D0008D0490918E040F9714F482E001C081E067
:1043E00080938F040E9494059AE7692E93E0792EBA
:1043F000812C912C830133243394D8018C91882310
:1044000009F46CC030927903F401E658FC4F8581C1
:104410001196CD90DC901297C80ED11C87FDDA94CE
:104420001296DC92CE92119786811396ED90FC90B5
:104430001497E80EF11C87FDFA941496FC92EE9204
:104440001397C701B5010E94652D4FEF460FC601B6
:10445000B5010E94652D61502AE033E08DE197E0BF
:104460000E948C1080919B04811126C030919A0487
:104470008091990421E0280FC60166EF7FEF0E942A
:10448000652D822F860F8430B8F4C70166EF7FEF69
:104490000E94652D630F62307CF46F3F6CF0809159
:1044A0009D04811109C030929B0440E060E073E0FC
:1044B00084EF96E00E944E10BDE1CB0ED11CE3E8E4
:1044C000CE16E3E0DE0640F4FDE1EF0EF11C2BEC2E
:1044D000E21621E0F20610F0D8011C92095F1F4F8E
:1044E000B7E08B0E911CE5EF8E16910409F085CF95
:1044F00010919F041A30E8F48091E206815051E057
:104500008E3F08F050E08091E006815041E08E3F00
:1045100008F040E08091E106815031E08E3F08F0E4
:1045200030E08091E306815021E08E3F00F120E0F1
:104530001EC080919A04883130F421E0843108F063
:1045400020E030E002C031E020E0809199048C301E
:1045500020F440E0883020F001C041E050E001C08C
:1045600051E08850843018F48AE080939904809157
:104570009B048111CFC1123308F05AC080919A0474
:10458000909199045523A1F0411124C0222311F0E8
:104590008D5F0AC0332351F0282F30E023303105DE
:1045A00014F0835001C080E080939A049D5F0FC097
:1045B00041110C94E42C0EC031110C94EA2C292FDB
:1045C00030E02330310514F40C94F62C9350909382
:1045D000990410C0222311F08D5F0AC0332351F0DB
:1045E000282F30E02330310514F0835001C080E0E3
:1045F00080939A0480919904823018F482E0809329
:10460000990480919A04823018F482E080939A048D
:1046100080919904823518F081E580939904809106
:104620009A04883208F45CC087E280939A0458C0E8
:10463000812E912CB401092C000C880B990B0E943F
:10464000ED3120E030E048E452E40E94932D20E078
:1046500030E04CE852E40E94052E6B017C0120E022
:1046600030E04AEA52E40E944C32A70196010E94CF
:104670004C3220E030E040E251E40E94942D6B0186
:104680007C0120E030E048EC52E40E94EC2E181649
:104690002CF0C701B6010E947E2E01C064E6609333
:1046A00099046C3068F0183768F420918F042F5FFC
:1046B000862F90E00B97B5010E94652D620F0EC00A
:1046C000183770F0163948F4C401885791096BEF18
:1046D0007FEF0E94652D6B5F01C060E060938F04E7
:1046E00010919D041431B0F185E180939A04612FFB
:1046F00070E080E090E00E94EB3120E030E040EF9D
:1047000051E40E94932D20E030E040E751E40E9404
:10471000052E9B01AC010E944C3220E030E040EFBE
:1047200051E40E944C329B01AC0160E070E088ECE7
:1047300091E40E94932D0E947E2E6093990414337D
:1047400058F4EAE7F3E01082379624E0EF36F207F8
:10475000D1F702C0112329F0115010939D0410923B
:104760009F0410919904F0909A0400919D0400FF19
:104770000DC080919E04833029F01092A104109204
:10478000A20442C0809198048111F7CF1250FA948C
:10479000FA94043138F480919F048035C0F429EFF5
:1047A00032E00FC0802F90E04497877099278230C5
:1047B0009105ACF30497029710F00C94F92C22EFBA
:1047C00032E04F2D612F8DE197E00E948C10809197
:1047D0009F048035B8F090E087709927823091056A
:1047E0001CF429EF32E008C00497029718F422EF76
:1047F00032E002C02BEE32E04F2D612F8DE197E0C9
:104800000E948C100111B9CF8091A1048E3171F4F6
:104810008091E40681508E3F48F480919F048A3055
:1048200028F485E08093A2041092A1048091A10451
:104830008D3139F440E06FED72E084EF96E00E9434
:104840004E101091A204153021F0812F8D7F813000
:1048500041F54FEF5FEF6BEF7FEF8DE290E00E944D
:10486000451341E050E065E070E08DE290E00E9489
:10487000451340E050E060E070E087E390E00E9484
:1048800045134FEF5FEF60E070E082E390E00E943D
:10489000451341E050E060E070E082E390E00E9468
:1048A0004513112329F011501093A2041092A10472
:1048B0008091E40681508E3F38F480919C048111F0
:1048C00003C0043108F472C780919C04882329F046
:1048D000815080939C041092A10480919C048111CA
:1048E00007C08091A1048E3118F48F5F8093A104DA
:1048F0008091A1048A3078F180918904853658F539
:1049000080919504909196040596909396048093D7
:10491000950421C01092A10480919E04823078F009
:104920009CE390939D04815080939E0410929B047D
:1049300060919A04809199040E9481130CC088238D
:1049400041F060919A04809199040E948113109221
:10495000A00410929E0410919E04112331F08091C6
:104960007903882309F491C099C08091A0048F5FD6
:104970008093A0048A3098F310922C0710922D0790
:104980000AE02CE24AE064E18DE197E00E944912DE
:104990000CE02CE24DE164E18DE197E00E944912C8
:1049A00001E000932C0700932D0766E371E0CE0130
:1049B00001960E94550E86E1809326078AE0809337
:1049C000270700932307CE0101960E94E51BCE0125
:1049D00001960E94500E2091A00482ED90E0821B6F
:1049E0009109883C91054CF464E170E00E94652DCA
:1049F000072E000C880B990B04C069E070E080E082
:104A000090E001E02AE04CE30E94FC0A60E471E0DF
:104A1000CE0101960E94550E4DE164E1CE01019652
:104A20000E94840BCE0101960E94500E6DE471E04D
:104A3000CE0101960E94550E44E268E1CE01019636
:104A40000E94840BCE0101960E94500E8091A0041A
:104A500064E10E94592D9A3021F484EF96E00E947F
:104A600082108091E506813029F486EE8093A004BF
:104A70000E94A4178091E606813009F4B4C68091A3
:104A8000E406813009F4AFC66ACF80918904853687
:104A900028F080919F048F5F80939F040EE412E0C2
:104AA000812C912CD8018C918823D1F1F401E25B07
:104AB000FD4F85811196CD90DC901297C80ED11CC8
:104AC00087FDDA941296DC92CE9211978681139626
:104AD000ED90FC901497E80EF11C87FDFA94149663
:104AE000FC92EE921397C701B5010E94652D462FE7
:104AF000C601B5010E94652D23E08DE197E00E947B
:104B00002612BCE0CB16B3E0DB0644F4E9E0EE0E7F
:104B1000F11CF9EEEF16F1E0FF0610F0D8011C923F
:104B2000095F1F4FB7E08B0E911CECE88E169104C5
:104B300009F0B8CF12E4C12E12E0D12E05E4802E88
:104B400002E0902E84E4E82E82E0F82E03E412E0E6
:104B5000D6018C91813009F03AC2F401F081FD87D1
:104B6000F23009F492C108F09FC0FF2309F4CCC0D1
:104B7000F13009F024C2D7017C9022242394270C21
:104B8000F8016080422D662D8DE197E00E94CE11E4
:104B900033243A94360C422D632D8DE197E00E9428
:104BA000CE1144244394460C422D642D8DE197E0B0
:104BB0000E94CE1122242A94270C422D662D8DE1CD
:104BC00097E00E94CE11422D632D8DE197E00E9467
:104BD000CE11422D642D8DE197E00E94CE11472D1C
:104BE000632D8DE197E00E94CE11472D642D8DE15C
:104BF00097E00E94CE11AEEF4A2E460C472D642D51
:104C00008DE197E00E94CE116DEF660D472D8DE18D
:104C100097E00E94CE11B2E02B2E260C472D622D7C
:104C20008DE197E00E94CE1163E0660D472D8DE186
:104C300097E00E94CE1182E0582E570C452D662D2C
:104C40008DE197E00E94CE1143E0470D662D8DE186
:104C500097E00E94CE119EEF392E370C432D662D22
:104C60008DE197E00E94CE114DEF470D662D8DE14D
:104C700097E00E94CE11452D622D8DE197E00E94B4
:104C8000CE11452D642D8DE197E00E94CE11432D6C
:104C9000622D8DE197E00E94CE11432D642D8DE1B0
:104CA00097E00E94CE11BBC02D85243009F452C07C
:104CB00008F4B5C0253009F082C1D7016C90F80125
:104CC0007080462D672D8DE197E00E94CE11A6E001
:104CD0004A2E460CB6E03B2E370C442D632D8DE159
:104CE00097E00E94CE11FAEF6F0E7F0E462D672DD2
:104CF0008DE197E00E94CE11462D632D8DE197E066
:104D00000E94CE11442D56C1D7016C90F8017080DD
:104D1000462D672D8DE197E00E94CE1141E0460DB2
:104D2000672D8DE197E00E94CE114FEF460D672D64
:104D30008DE197E00E94CE1161E0670D462D8DE177
:104D400097E00E94CE116FEF670D462D8DE197E041
:104D50000E94CE11D7017C9023E0322E370CF8014F
:104D6000608033E0232E260C432D622D8DE197E0E9
:104D70000E94CE114DEF442E460C432D642D8DE143
:104D800097E00E94CE115DEF352E370C432D622D3A
:104D90008DE197E00E94CE11432D642D8DE197E0C7
:104DA0000E94CE1165E0362E370C75E0272E260CBA
:104DB000432D622D8DE197E00E94CE11EBEF4E2E38
:104DC000460C432D642D8DE197E00E94CE11FBEF40
:104DD0003F2E370C432D622D8DE197E00E94CE11BE
:104DE000432D642D8DE197E00E94CE116CEF660D8E
:104DF000472D8DE197E00E94CE1164E0660D472DAE
:104E00008DE197E00E94CE1144E0470D662D8DE1C3
:104E100097E00E94CE114CEF470D662DCCC0D70114
:104E20006C90F80170806BEF670D462D8DE197E077
:104E30000E94CE1165E0670D462D8DE197E00E943E
:104E4000CE1145E0460D672D8DE197E00E94CE1111
:104E50004BEF460D672D8DE197E00E94CE11E4E007
:104E60003E2E360CF4E04F2E470C432D642D8DE181
:104E700097E00E94CE11FCEF7F0E432D672D8DE150
:104E800097E00E94CE112CEF8DC0D7016C902224A8
:104E90002394260CF8017080422D672D8DE197E058
:104EA0000E94CE1133243A94370C422D632D8DE1AC
:104EB00097E00E94CE1144244394470C422D642D68
:104EC0008DE197E00E94CE1122242A94260C422DD7
:104ED000672D8DE197E00E94CE11422D632D8DE16B
:104EE00097E00E94CE11422D642D8DE197E00E9443
:104EF000CE11462D632D8DE197E00E94CE11462DF7
:104F0000642D8DE197E00E94CE116EEF670D462D66
:104F10008DE197E00E94CE116CEF670D462D8DE17B
:104F200097E00E94CE1162E0670D462D8DE197E07B
:104F30000E94CE1164E0670D462D8DE197E00E943E
:104F4000CE1142E0460D672D8DE197E00E94CE1113
:104F500044E0460D672D8DE197E00E94CE114EEFA3
:104F6000460D672D8DE197E00E94CE114CEF460D66
:104F7000672D8DE197E00E94CE1163E0362E360C4E
:104F800073E0472E470C432D642D8DE197E00E947E
:104F9000CE11FDEF7F0E432D672D8DE197E00E942E
:104FA000CE112DEF620E462D642D8DE197E00E940B
:104FB000CE11462D672D8DE197E00E94CE118D8593
:104FC0008F5FD4018C93863010F0F6011082F4E0EC
:104FD000CF0ED11C24E0820E911C44E0E40EF11CA3
:104FE0000C5F1F4F5EE4C51652E0D50609F0B0CD48
:104FF00010922C0710922D0706E024E54AE260E0AB
:105000008DE197E00E94491281E080932C07809304
:105010002D0780918D0490918E0489970CF4BBC06C
:105020002091A104220F245103E04CE260E18DE1C4
:1050300097E00E94491280919504909196042091E6
:10504000770330917803A9014E5C5F4F48175907E9
:1050500030F4235D3F4F3093780320937703209102
:10506000770330917803275E3F4F2817390720F4E4
:10507000309378032093770320917703309178035E
:105080002817390768F4821B930B8630910510F0BE
:1050900085E090E0820F931F9093780380937703CD
:1050A000609177037091780380E090E006E02BE256
:1050B0004CE30E94FC0A8BE28093270788E08093F0
:1050C000260760919E0470E080E090E04AE00E9434
:1050D000EE1BE9EFF2E08491EAEFF2E0E491682E52
:1050E000712C630197E0C90ED11C43E0D594C7949D
:1050F0004A95E1F720E0EE2EF12C57E2552E580E9E
:10510000822F022E000C990B861597050CF05EC0BD
:10511000022F27FF02C007E0020F059505950595B0
:10512000822F877887FF03C08150886F8F5F30E8B8
:10513000832E912C02C0959487948A95E2F7312CA6
:10514000002E000C110B0E5F1F4F452C421A832DB1
:10515000032C000C990B8E159F05DCF48C9DF0013F
:105160008D9DF00D9C9DF00D1124E00FF11FE75077
:10517000FD4FE491F0E0E821F9213394EF2B39F36E
:10518000442D632D8DE197E02E870E94CE112E8550
:10519000DECF2F5FB5CF68E571E0CE0101960E94AA
:1051A000550E4BE261E0CE0101960E94840BCE01C8
:1051B00001960E94500E609193047091940480E0D7
:1051C00090E006E02BE24CE30E94FC0A80918D0403
:1051D00090918E04019690938E0480938D0420917B
:1051E0008B0430918C04245131098217930794F178
:1051F00080919E04882371F180918A04811105C0F9
:10520000909189049230E0F425C0813029F4909186
:1052100089049731A8F41EC0823029F49091890442
:10522000903370F417C0833029F490918904963438
:1052300038F410C0843071F490918904903650F0A5
:105240008F5F80938A0488E2809388048091890428
:105250008093870400918804002309F49DC00150C5
:105260000093880480918A0410E0853008F04DC0D6
:1052700063E671E0CE0107960E94550E48E250E0C9
:10528000401B510B57FF02C04F5F5F4F559547952D
:10529000BE01695F7F4FCE0101960E94B617BE0125
:1052A0006F5F7F4FCE0107960E94A60DCE0101963B
:1052B0000E94500E1A8219821C821B821E821D823D
:1052C000BE01695F7F4FCE0101960E94390E40E01A
:1052D00060E3CE0101960E94840BCE0101960E94EC
:1052E000500E809188048C3150F460918A0470E0F3
:1052F00080E090E001E020E048E40E94FC0A809118
:105300008804873108F444C03DC06DE671E0CE01E9
:1053100007960E94550E48E250E0401B510B57FF84
:1053200002C04F5F5F4F55954795BE01695F7F4F44
:10533000CE0101960E94B617BE016F5F7F4FCE016E
:1053400007960E94A60DCE0101960E94500E1A8269
:1053500019821C821B821E821D82BE01695F7F4FE3
:10536000CE0101960E94390E40E068E2CE0101961E
:105370000E94840BCE0101960E94500E80918804F9
:10538000833130F080FD04C084EF96E00E948210EB
:10539000CE0107960E94500E1091E606113069F476
:1053A00080919E04882349F080919F048A3028F4DC
:1053B00080919D048D3208F475C280919E048823EB
:1053C00009F4EDC280919F04853B08F4E5C180910A
:1053D000A3048111E1C181E08093A3041092A80489
:1053E000DBC18091E606813009F4DFC28091E406DA
:1053F000813009F4DAC28091E506813009F0CCC130
:10540000109221070E94A41780E00E94B60BC4C12D
:1054100080919E04811103C069E771E002C063E8D6
:1054200071E0CE0101960E94550E88E08093260718
:105430001092270782E080932307CE0101960E94F5
:10544000E51BCE0101960E94500E8091A8048111A7
:1054500015C020919E04A0EDB7E02A9FC0012B9FAC
:10546000900D11249093A7048093A6048091980432
:10547000882321F01092A7041092A6048091A6041C
:105480009091A704892B01F16DE871E0CE0101969E
:105490000E94550E4EE061E0CE0101960E94840B01
:1054A000CE0101960E94500E6091910470E080E060
:1054B00090E003E02EE048E40E94FC0A80919E0404
:1054C000882309F46CC042C0809197048111DCCF1D
:1054D00011E0109397046091950470919604809167
:1054E0009304909194048617970780F47093940422
:1054F0006093930480E090E00E94123360919404E2
:1055000081E090E00E941233109392040091950480
:105510001091960480E060E774E98A30A1F0FF24DE
:10552000F394F80E0617170770F480E090E00E94DD
:10553000EB3120E030E040E45FE30E944C320E9417
:105540007E2E8F2DEACF8093A5049ECF6FE971E068
:10555000CE0101960E94550E44E161E0CE01019614
:105560000E94840BCE0101960E94500E80E580932C
:10557000260760919E0470E080E090E04AE00E947F
:10558000EE1B6091A6047091A7046115710539F0B6
:1055900080E090E004E02AE144E40E94FC0A80916B
:1055A0009204882321F08091A804853118F461EBDE
:1055B00071E007C06AE00E94592D973080F46FEBCC
:1055C00071E0CE0101960E94550E44E261E0CE01E9
:1055D00001960E94840BCE0101960E94500E6091AC
:1055E00095047091960480E090E006E024E24CE39C
:1055F0000E94FC0A8091A6049091A704892B09F0CF
:105600004EC081E0809326078EE1809327076BECE4
:1056100071E08DE197E00E948E0E80E58093260771
:10562000E091A5048E2F90E08A309105A8F5FC0149
:10563000EB59FF4F0C94792D83E52FC08CE48093B8
:10564000260762ED71E023C081E427C08CE48093DB
:10565000260765ED71E01BC08CE48093260768ED9A
:1056600071E015C082E419C08CE4809326076BEDCD
:1056700071E00DC08CE4809326076EED71E007C0E9
:1056800083E40BC08CE48093260761EE71E08DE12A
:1056900097E00E948E0E03C084E40E94AB178091B5
:1056A000A6049091A704892B29F58091A80485313F
:1056B00008F190E044976CE370E00E94652D4E97EE
:1056C0004CF464EE71E0CE0101960E94550E4AE260
:1056D0006EE108C06CEE71E0CE0101960E94550E9D
:1056E0004AE26CE0CE0101960E94840BCE01019645
:1056F0000E94500E8091A6049091A704892BC9F4B2
:105700008091A8048531A8F08091E406813039F4B5
:1057100084EF96E00E94871081E00E94B60B809192
:10572000E506813009F44AC18091E606813009F42A
:1057300045C18091A6049091A704009709F120919A
:10574000A8042531E8F08C018236910510F001E6BD
:1057500010E0801B910B9093A7048093A60484EF24
:1057600096E00E9482108091950490919604080F13
:10577000191F109396040093950484E18093A80464
:105780008091A80491E0980F913518F49093A804A3
:1057900003C08B538093A80480E090E0892B11F420
:1057A0000C94A8210E9400000C94A8218091A204CE
:1057B00081118AC880919F048A3008F085C84FEF14
:1057C0005FEF60E070E082E390E00E94451341E00B
:1057D00050E060E070E082E390E00E94451386E0D4
:1057E00080939C0471C884EF96E00E94871083E048
:1057F00080939E0482E380939D04109296041092FD
:105800009504109278031092770310929B0481E024
:1058100080939804809187048093890480918D04FB
:1058200090918E04C29690938C0480938B04109276
:105830008A041092910410927903109276031092C8
:105840007503109274031092730310927203EAEDC1
:10585000F2E01082739643E0E237F407D1F7D30108
:105860001C92B7E06B0E711CEFE66E16E4E07E064C
:10587000B1F76AE070E080E090E00E946A0E610F8C
:105880006C59D2016C9360E370E080E090E00E947C
:105890006A0EF2016183195FF2E04F0E511C14355C
:1058A00041F75DC8109390040E94A417109321073C
:1058B00010922C0710922D070AE020E340E060E1EF
:1058C0008DE197E00E9449120BE024E54CE060E096
:1058D0008DE197E00E9449120CE024E34DE160E184
:1058E0008DE197E00E94491210932C0710932D0729
:1058F0006DEF71E0CE0101960E94550E80E180931C
:1059000026071092270782E080932307CE01019695
:105910000E94E51BCE0101960E94500E64E072E0E9
:10592000CE0101960E94550E4CE060E0CE0101963A
:105930000E94840BCE0101960E94500E68E172E035
:10594000CE0101960E94550E42E160E0CE01019623
:105950000E94840BCE0101960E94500E60E471E01B
:10596000CE0101960E94550E4DE164E1CE010196F3
:105970000E94840BCE0101960E94500E6EE272E0EE
:10598000CE0101960E94550E44E260E1CE010196DF
:105990000E94840BCE0101960E94500E0ECD809184
:1059A000A004833D08F013CDF7CE1092900484EF4D
:1059B00096E00E948710109221071DCD0E94A41727
:1059C00080E00E94B60BB5CE222311F40C94DC22A9
:1059D0008D5F08C0282F30E02330310514F083504C
:1059E00001C080E080939A040C94DF2290E00C9434
:1059F000E7222BEE32E00C94E123CF92DF92EF927C
:105A0000FF920F931F93CF93DF931F92CDB7DEB713
:105A1000182F062FE42E862F880F8E5F99830E9401
:105A2000601883E00E946018F12EC12E9981D92E52
:105A30008C2D8F19801798F4F601E7FE02C084912F
:105A400001C080810E946018182F80E00E946018B9
:105A50008123FFEFCF1ADF0A8111EACF01C081E075
:105A60000F90DF91CF911F910F91FF90EF90DF90FA
:105A7000CF900895EBE4F7E01382128288EE93E072
:105A8000A0E0B0E084839583A683B78382E291E0AF
:105A9000918380838FEF9FEF9587848710922007F3
:105AA00010921F0782E391E090931E0780931D07D9
:105AB0000895991B79E004C0991F961708F0961B6A
:105AC000881F7A95C9F78095089597FB072E16F4DD
:105AD000009407D077FD09D00E947F2D07FC05D0E8
