:100000000C94C4060C94EC060C94EC060C94EC06D0
:100010000C94EC060C94EC060C94EC060C94EC0698
:100020000C94EC060C94EC060C94A0190C94121A87
:100030000C94EC060C94EC060C94EC060C94EC0678
:100040000C94EC060C94DB1E0C94EC060C94EC0661
:100050000C94EC060C94EC060C94EC060C94911E9B
:100060000C94EC060C94EC060C94EC060C94EC0648
:100070000C94EC060C94EC060C94EC060C94EC0638
:100080000C94EC060C94EC060C94EC060C94EC0628
:100090000C94EC060C94EC060C94EC060C94EC0618
:1000A0000C94EC060C94EC060C94EC0651245724AA
:1000B0005D2469247524CA24CA24CA2481248D2479
:1000C0009924A524B324CA24BC24F92EFB2E012F85
:1000D000032F092F0F2F112F172F1D2F1F2FA11D9A
:1000E000A41D931D971D9D1DC51DC51DC51DA81DC6
:1000F000AC1DB01DB61DBA1DC51DC01D05A84CCD3B
:10010000B2D44EB93836A9020C50B9918688083C51
:10011000A6AAAA2ABE000000803F0101FF03010138
:10012000F7031E011A0100000000240027002A0026
:100130002D003000D5F08D14A1C881CFD9F1AF20AA
:100140000000000000250028002B002E00310003D5
:10015000053F213F1208120A100A0E1C0E0C1E0C3D
:10016000141A14161F161E131E1E1B1E1E1F1E3FC2
:10017000213F3A2F3A173D173F213F181F02040A2B
:10018000041F0E04040E1F0A1F0A0E0E1F04110E78
:100190002E252E2F2A2E262929021F02081F081578
:1001A0000E04040E150E15151B151B040604040C75
:1001B000040000000017000300031F0A1F16371A6F
:1001C0001904130A153A000300000E11110E000A5B
:1001D000040A040E04003000040404001000180493
:1001E000031F111F121F101D151711151F07041FC4
:1001F00017151D1F151D01011F1F151F17151F00A6
:100200000A00003200040A110A0A0A110A04011540
:10021000020E11171E051E1F150A0E110A1F110EC0
:100220001F15111F05010E111D1F041F111F11089D
:10023000100F1F041B1F10101F061F1E040F0E118E
:100240000E1F09060E112E1F051A121509011F0196
:100250001F101F0F180F1F0C1F1B041B031C03195B
:100260001513001F11030418111F000201022020A2
:10027000200001020C121E1F120C0C12120C121F75
:100280000C1A14041E05242A1E1F021C141D102003
:10029000201D1F0814111F101E041E1E021C0C120C
:1002A0000C3E0A040C123E1E040214160A020F121F
:1002B0000E101E0E100E1E081E120C1226281E32C4
:1002C0002A26041E21001F00211E040102013F21D5
:1002D0003F0500893008023802497868140000059B
:1002E00080C1816401640164010000080500F048D8
:1002F000F00008050000F800000805C0704870C054
:10030000458091884182080600000803E0E0E04152
:100310008205805C01FC015801FC015001FC014890
:1003200001FC0140080000418205808C02880280A7
:1003300002780270080000418205805C01FC055CC7
:1003400001FC015C01FC074001FC054001FC01408F
:1003500001FC070000418205805C02640240044801
:10036000084002500258045C080000030001000528
:100370000007000900010005000B000D000F00112F
:10038000000F0013000F001100FFFF000002000427
:100390000006000800020004000A000C000E001015
:1003A000000E0012000E001000FFFF058001812CDE
:1003B00004FC022C02FC084004FC024002FC080081
:1003C00000058001815C066C0678046C0678068066
:1003D000040000058001812C04FC022C02FC08347E
:1003E00004FC023402FC080000058001815C066CFC
:1003F00006780464066C065804000005800181102C
:1004000004FC021002FC081804FC023C02FC080078
:100410000005800181400650065C044806580664C9
:10042000040000058001814001FC034001FC033C05
:1004300001FC033C01FC034801FC034801FC035C94
:1004400001FC033C01FC0300000580018170086C85
:1004500004700478085C048C040000058001812C81
:1004600001FC052C01FC012C01FC034001FC0334C0
:1004700001FC053401FC013C01FC03EC01FC030020
:1004800000058001815C0C5802500264086C080071
:1004900000058001813C01FC053C01FC013C01FCA4
:1004A000032001FC033401FC053401FC013401FC90
:1004B000031801FC030000058001816C1064066CC8
:1004C0000658040000058001812C01FC052C01FC6C
:1004D000012C01FC034001FC033C01FC053C01FC38
:1004E000013C01FC031C01FC030000058001815C50
:1004F0000C580264026C0870080000058001813C01
:1005000001FC053C01FC013C01FC031C01FC033C1B
:1005100001FC053C01FC013C01FC031C01FC030047
:1005200000058001816C1064065C0658040000051B
:10053000800181400C3C0240023C064006480450C9
:100540000C3C024002480650065804000005800199
:10055000815C0C500258025C0870080000058001A4
:10056000812C01FC052C01FC012C01FC034001FC49
:10057000032C01FC052C01FC012C01FC034001FCB7
:10058000030000058001811004FC021002FC02102F
:1005900002FC040C02FC041002FC041802FC022001
:1005A00004FC022002FC042002FC021804FC0220CD
:1005B00002FC02200228040000175344001613789E
:1005C00000161314001510200015201000540A0303
:1005D000E181867F3E186D830F0F0E0183866033A5
:1005E000186DC3198F1803C38E6033186DE330CFB5
:1005F0001803C39E603630CDE360CF3006C79E7EC1
:100600003E30CDB360CF300CC6F6603330D9B66023
:10061000CF33CFCCF66061B0DB1E60CF30D86CE654
:10062000C061B0DB1E618F19986CC6C063B19B0EB0
:10063000330F0FB078C6FF7E1F1B061E0F83055DAC
:10064000054D052F052105FB04EB04C504B70491F6
:100650000481045B04490423041104FB03E903D36C
:1006600003C103AB035503370327030F03202020E7
:1006700000050202BE915A7D8C7D82011112C80ACA
:100680000202BE915A73647382011213C8320300CE
:10069000BE915A68965E7801131332140300BE911E
:1006A0005A7C64727801121232320300BE915A9160
:1006B000647364021013280A0300BE915A91647394
:1006C0006402101328320202BE915A868C8478018B
:1006D000141432020202BE915A6E64707801101036
:1006E000321E0300BE915A736E73780111113202EB
:1006F0000300BE915A8186817801131332320300C0
:10070000BE915A82787264030F1419140300BE91CB
:100710005A82787264030F14193C0202C3AF916EBF
:10072000B4466402101432140202C3AF91823CAA90
:10073000640210142D0A0202C3AF916EB446640223
:10074000111332140202C3AF91823CAA6402111346
:100750002D320300BE915A72787264021113141480
:100760000300BE915A7278726402111314220300BE
:10077000BE915A788C875A031117280F0300BE9137
:100780005A788C875A031117280F0300BE915A78A4
:100790008C875A031117281E0300BE915A6E917C54
:1007A0005A0211131E0F0300BE915A8C5F735A0236
:1007B00011131E500202C8AF7D78A5555A040F15BB
:1007C000280A0202C8AF7D78A5555A041014280AD9
:1007D0000202C8AF7D78A5555A04101428460701B7
:1007E000BEAA5A82787378060F1519460300BE9187
:1007F0005A676C6250020E101E0A0300BE915A67BF
:100800006C6250020E101E020300BE915A88838D46
:10081000500214161E0A0300BE915A88838D50029E
:1008200016141E3C0202BEA5787D509650020F158C
:1008300014080202BEA5787D5096500111112808B7
:100840000202BEA5787D50965001101028080202C1
:10085000BEA5787D509650020F1514080202BEA561
:10086000787D50965001111128080202BEA5787DAE
:1008700050965001101028280202BEA57873A0508F
:1008800050030F15190A0202BEA57873A050500339
:100890001014190A0202BEA57873A0505003101458
:1008A000190A0202BEA57873A05050030F1519282B
:1008B0000300BE915A78646E5A030D13190F03009A
:1008C000BE915A78646E5A030D13190F0300BE913E
:1008D0005A78646E5A030D13193C0202BE915A7382
:1008E0005F6E46020E1028010202BE915A7D91826F
:1008F00046021416281E0202BE915A735F6E46020B
:100900000E1028010202BE915A7D918246021416F1
:1009100028500501BEAA5A6E78696E040E1623058A
:100920000501BEAA5A8278876E040E162350030072
:10093000C3A55F788C8250031317280F0300C3A54B
:100940005F788C8250031317280F0300C3A55F78CC
:100950008C8250031115280A0300C3A55F78646ECA
:1009600050030D11280F0300C3A55F78646E500378
:100970000D11280F0300C3A55F78646E5A030F138F
:1009800028280202BE915A87878B6E021014190222
:100990000202BE915A7D7D7F6E021014190202027E
:1009A000BE915A7373716E02101419020202BE9145
:1009B0005A6969656E02101419140202BE915A82B6
:1009C00082806E02101419020202BE915A78787861
:1009D0006E02101419020202BE915A6E6E706E02FF
:1009E000101419460701BEAA5A82787378060F15AB
:1009F00019320300BEA55A788C8250031317280FB2
:100A00000300BEA55A788C8250031317280F0300E9
:100A1000BEA55A788C8250031115280A0300BEA582
:100A20005A78646E50030D11280F0300BEA55A7842
:100A3000646E50030D11280F0300BEA55A78646E32
:100A40005A030F1328500202C3AF916EAA46460301
:100A50000F1514140202C3AF918246AA46030F1564
:100A60000F0A0202C3AF916EAA4646031014141473
:100A70000202C3AF918246AA46030F150F1403006A
:100A8000BE915A6E917C5A0210140F0A0300BE9157
:100A90005A8C5F735A0210140F460501BEAA5A6E93
:100AA00078696E040E1623050501BEAA5A8278875E
:100AB0006E040E16231E0701BEAA5A7878785006D7
:100AC0000F1519640202BE915A765D7150030D1123
:100AD00028010202BE915A7D9682500313172814F2
:100AE0000202BE915A765D7150030D112801020277
:100AF000BE915A7D96825003131728140202BE91AC
:100B00005A765D7150030D1128010202BE915A7D83
:100B1000968250031317283C0300BE915A828C80A2
:100B20008C03141619020300BE915A6E64708C0374
:100B3000100E190A0300BE915A736E738C03110FC5
:100B400019020300BE915A7D827D8C031315195A38
:100B50000501BEAA5A82787364040F151E1403009F
:100B6000BEA55A788C8250031317280A0300BEA52D
:100B70005A788C8250031317280A0300BEA55A78AE
:100B80008C8250031115280A0300BEA55A78646EA2
:100B900050030D11280A0300BEA55A78646E500355
:100BA0000D11280A0300BEA55A78646E5A030F136C
:100BB00028640701BEAA5A6E786978030E161905D3
:100BC0000701BEAA5A82788778030E16190A050112
:100BD000BEAA5A6E786982040C1819050501BEAACE
:100BE0005A82788782040C1819781E03C2BCB27A24
:100BF0007A7A14000C18FF4580518841823805002C
:100C00000005804D88C181500200000580C1810827
:100C10000100000806FC30787830FC100D20007FC1
:100C2000E02FC0078033001F80F9801F803300074A
:100C3000802FC07FE0200008061C70FCFC701C08A0
:100C40000618FC3838FC18058041814C015401001D
:100C5000000500680138010000F6E8DBCFC3B8AE3C
:100C6000A49B928A827B746E68625C57524E49459F
:100C7000413E3A3734312E2C29272523211F1D1CB4
:100C80001A1917161514131211100F0E0D0C0B0A4A
:100C900009080706000000002300260029002C0098
:100CA0002F000404040404030405020202020403E6
:100CB00002020202060606060606040402020204F6
:100CC0000404080201104080401020408040800849
:100CD00002040180402010020110801020404020BA
:100CE0000000000200090F0000030401000C0000D6
:100CF00000000000000000000000000000000008EC
:100D000001C0080B000202020100090400000102F8
:100D10000200000524001001052401010104240241
:100D2000060524060001070581031000400904019F
:100D300000020A00000007050202400000070583C8
:100D4000024000000403090412010002EF02014006
:100D50004123368000010102030141726475696E0E
:100D60006F204C4C430041726475696E6F204C6576
:100D70006F6E6172646F0005003801680100004504
:100D8000006801000000D43011241FBECFEFDAE06C
:100D9000DEBFCDBF12E0A0E0B1E0ECEAFEE602C0AB
:100DA00005900D92A834B107D9F727E0A8E4B2E086
:100DB00001C01D92A43FB207E1F716E0C4ECD6E0F3
:100DC00004C02197FE010E945B36C33CD107C9F7DE
:100DD0000E9473220C9454370C940000CF93DF933D
:100DE000EC01E0E097E09E9FD0011124A058BC4F99
:100DF0008C91882311F0EF5FF6CFE33208F0E0E04A
:100E000087E0E89FF0011124E058FC4F81E08083E7
:100E10009AE09C9FD0019D9FB00D1124B283A183C5
:100E2000969FD001979FB00D1124B483A38345836F
:100E30002683DF91CF910895089580E090E0089592
:100E4000FC01643508F053C0403308F050C097856A
:100E5000742F759575957595262F062E000C330BFE
:100E6000542F57709230A1F4F901E254FB4F84E5FE
:100E70007802E00DF11D1124808190E0052E02C062
:100E8000959587950A94E2F78095982F91700AC0FE
:100E9000933041F4848581704627409541708413D6
:100EA00003C014C0911112C084E57802200D311DD9
:100EB0001124F901E254FB4F81E090E001C0880F5A
:100EC0005A95EAF780959081892310C084E57802CD
:100ED000200D311D1124F901E254FB4F81E090E017
:100EE00001C0880F5A95EAF79081892B8083089575
:100EF0008EBD00000DB407FEFDCF8EB50895E0E075
:100F000027E02E9FD0011124AC5ABD4F9C9199230C
:100F100011F0EF5FF6CFE43108F0E0E097E0E99FF1
:100F2000F0011124EC5AFD4F91E0908320919F0431
:100F300030E0215031099AE0929FD001939FB00D8B
:100F40001124B283A1832091A00430E0241B350B2F
:100F5000929FA001939F500D11249A01260F371FD5
:100F6000348323838583668340E067E47CE08FEDF0
:100F700096E00C949B1FE0E094E0E99FD0011124DF
:100F8000A85BBD4F9C91913011F4EF5FF5CFE3303A
:100F900008F0E0E094E0E99FF0011124E85BFD4FE8
:100FA00091E0908381836283138208952F923F9210
:100FB0004F925F926F927F928F929F92AF92BF9269
:100FC000CF92DF92EF92FF920F931F93CF93DF9315
:100FD000CDB7DEB769970FB6F894DEBF0FBECDBFB1
:100FE0008091A404811110927F0320EE32E03E83B1
:100FF0002D8384EE92E09C878B87E3EEF2E0FE8700
:10100000ED8721EF32E03A8B298B22EF222E22E06E
:10101000322E8CEE92E0988B8F87ED81FE8180815D
:10102000882309F435C4F1E0F0937F03EF85F88954
:1010300080818F5F8083EB85FC851081133041F4C4
:10104000F10137979081981718F4EF85F88990830C
:10105000EF85F889608170E080E090E00E94BD3209
:101060006B017C01F1013797608170E080E090E0D6
:101070000E94BD329B01AC01C701B6010E94FE3443
:101080006F83788789879A879B01AC0160E070E065
:1010900080E89FE30E948C346B017C019B01AC01D2
:1010A0000E941E334B015C012F81388549855A858A
:1010B000CA01B9010E948D34A70196010E941E3316
:1010C0006B017C012F81388549855A85CA01B90198
:1010D0000E941E3369837A838B839C83F1013D9741
:1010E000608170E080E090E00E94BF329B01AC0123
:1010F000C501B4010E941E332B013C01F1013C9754
:10110000608170E080E090E00E94BF329B01AC0102
:10111000C701B6010E941E339B01AC01C301B2019D
:101120000E948D342B013C01F1013B97608170E0FE
:1011300080E090E00E94BF329B01AC0169817A811E
:101140008B819C810E941E339B01AC01C301B201C3
:101150000E948D340E947735662EF101719760836D
:101160003796608170E080E090E00E94BF329B0182
:10117000AC01C501B4010E941E334B015C01F101B9
:101180003997608170E080E090E00E94BF329B015F
:10119000AC01C701B6010E941E339B01AC01C50121
:1011A000B4010E948D346B017C01F101389760819C
:1011B00070E080E090E00E94BF329B01AC01698149
:1011C0007A818B819C810E941E339B01AC01C701F7
:1011D000B6010E948D340E947735F10170976083CB
:1011E0009CE9792E760C6456698F20E030E040E867
:1011F0005FE36F81788589859A850E94E53587FD53
:1012000021C1133009F01EC180917803811109C0FA
:1012100080917B0390917C03019690937C03809353
:101220007B0310917A031F5F10937A0380917903F7
:101230008F5F8093790360917B0370917C03072E0D
:10124000000C880B990B0E94BF3220E030E040EC8C
:1012500050E40E94FE340E94EA3520E030E040E88D
:1012600051E40E941E3320E030E048EA51E40E943D
:101270008D340E947035698F1C3108F466C08091EE
:10128000A304843108F061C007ED10E0862F660FDB
:10129000990B9C01245031093A832983472C072C50
:1012A000000C550834E0431A5108FC013496FC8BBD
:1012B000EB8BF98DF53134F4B801012E000C880B5D
:1012C000990B08C068E671E0601B710B072E000CDB
:1012D000880B990B0E94BF3222E73AE84EE85CE3A4
:1012E0000E941E336B017C010E94F93420E030E043
:1012F00040EA51E40E941E330E9470354B015C01AC
:10130000C701B6010E94EA3520E030E040EA51E42E
:101310000E941E330E9470359B01AC01898DA4018F
:1013200085311CF46B897C8902C069817A81C20194
:101330000E94EE060D5011090F36110509F0B9CFC4
:1013400080917A038C5180937A038091790384365B
:1013500038F0898D8351853018F491E090937803AB
:1013600080917803882309F46DC010927A0310925B
:1013700079038F5F8093780369E00E943B3699235D
:1013800041F080917803833308F45CC010927803B5
:1013900059C08091A3048431A0F700E710E0E98DE3
:1013A0000E2E000CFF0BFA83E983472C072C000C50
:1013B0005508F3E04F1A51088091780329E3829F82
:1013C000812D11248695B80133E0839F600D711D36
:1013D0001124072E000C880B990B0E94BF3222E7C4
:1013E0003AE84EE85CE30E941E336B017C010E94E8
:1013F000F9344B015C01C701B6010E94EA3520E0D7
:1014000030E040EA51E40E941E330E9470356B01C7
:101410007C0120E030E040EA51E4C501B4010E94C3
:101420001E330E9470359601AB0169817A81C20139
:101430000E94EE060F5E1F4F093081E0180709F089
:10144000BBCF9FCFF1018081811116C1EB85FC8557
:10145000B080F98DCF2E0F2E000CDD08E72C072C65
:10146000000CFF0822E0B21661F033E0B31609F475
:1014700053C04F2F42506AE9660D81E0B81270C028
:1014800028C06AE9660D2FE33CE0498D425084E5AF
:1014900097E00E94DE1F0091A00410E020919F04BD
:1014A00030E04FE35CE0B60162507109C70102977A
:1014B0000E946711882309F4DEC28091A104811182
:1014C000DAC28091A3048111D6C291E09093A10465
:1014D000C4C227E33CE084E597E00E94DE1F009150
:1014E000A00410E020919F0430E047E35CE0B601E7
:1014F00062507109C70102970E946711882309F49D
:10150000BAC28091A1048111B6C28091A304811155
:10151000B2C2B092A104A1C267E9660D2BE13CE022
:10152000498D465084E597E00E94DE1F0091A0049B
:1015300010E020919F0430E04BE15CE0B601665082
:101540007109C70105970E9467118823B9F180913D
:10155000A104811133C08091A304882329F12EC0F6
:1015600023E13CE084E597E00E94DE1F0091A004A7
:1015700010E020919F0430E043E15CE0B60162504E
:101580007109C70102970E946711882309F473C289
:101590008091A10481116FC28091A30481116BC25B
:1015A00021E02093A10459C2F1E0F093A10440E0AE
:1015B00060E073E08FED96E00E949B1F85E09BEF5B
:1015C00004E512E04701E4E08E1A91085601A90EE5
:1015D000B11C97FDBA94F1E0AF1AB10823E0E20E16
:1015E000F11CC80ED11C3FEFC31AD30AED81FE8156
:1015F00080818823C9F1F80180818823A9F1818144
:1016000092816AE070E00E9447369B016815790577
:101610005CF1838194816AE070E00E9447366A152C
:101620007B0514F1E216F306FCF0C616D706E4F0CB
:10163000ED85FE85808118165CF481508083809151
:101640009B0490919C04C29690939C0480939B046D
:10165000F801108221E0F101208340E06BE07CE0A2
:101660008FED96E00E949B1F095F1F4F32E0003E06
:10167000130709F0BBCF02C0F1011082E989FA8992
:1016800080818F5F8083F10132979081891738F4D0
:10169000ED85FE85808118160CF4E1C0B9C0E9899A
:1016A000FA89108200E010E09101255031093A8357
:1016B0002983C10104979C8B8B8BF1013397FE8B9F
:1016C000ED8B298D022E000C330B388F2F8B472C7E
:1016D000072C000C5508E981FA818081E82EF12C55
:1016E0000E151F05ACF68230D8F0B801012E000CA3
:1016F000880B990B0E94BF324B015C01B70161500E
:101700007109072E000C880B990B0E94BF329B01B8
:10171000AC01C501B4010E94FE346B017C0105C01F
:10172000C12CD12CE12C8FE3F82EEB89FC89608150
:1017300070E080E090E00E94BF329B01AC01C701E5
:10174000B6010E941E3320E030E040E251E40E94E6
:101750001E334B015C01A701960160E070E080E858
:101760009FE30E948C346B017C01ED89FE896081CE
:1017700070E080E090E00E94BF329B01AC01C701A5
:10178000B6010E941E3320E030E040E251E40E94A6
:101790001E339B01AC01C501B4010E948D3422E7C8
:1017A0003AE84EE85CE30E941E336B017C010E9424
:1017B000F9344B015C01C701B6010E94EA35209162
:1017C000A304243110F520E030E048E851E40E9401
:1017D0001E330E9470356B017C0120E030E048E848
:1017E00051E4C501B4010E941E330E947035960178
:1017F000AB016F89788DC2010E94EE0640E061E086
:101800007CE08FED96E00E949B1F0F5F1F4F63CF20
:10181000698D872D0E94BB07809197048F5F80930D
:10182000970440E067EF7BE08FED96E00E949B1FFE
:10183000EB85FC85208180919B0490919C04213054
:1018400029F0233031F488519C4F05C088539F4FB5
:1018500002C08C599F4F90939C0480939B04ED850C
:10186000FE85808118168CF420E030E040E85FE3CC
:101870006F81788589859A850E94E535181644F42C
:10188000EB85FC858081833019F0ED81FE8110822B
:101890002D813E812D5E3F4F3E832D838B859C8520
:1018A00043969C878B87ED85FE857396FE87ED8733
:1018B00029893A892D5E3F4F3A8B298B33E1230EDC
:1018C000311C8F8598894396988B8F87ED81FE8197
:1018D000E857F34009F0A1CB409193045091940450
:1018E000209191043091920460918F04F090A404AF
:1018F00073E111E00FEF421753070CF48FC0653608
:1019000008F08CC0FF2009F489C0A0E07A9FF001A4
:101910001124E052FD4F8081882311F0AF5FF6CF94
:10192000A83008F0A0E07A9FD0011124A052BD4F4A
:101930001C9311960C93119712960C9312971C9668
:101940001C921C9751961C925197EEE06E9FC0011D
:101950001124FC01EE58F94FE4911396EC93139780
:10196000FC01ED58F94FE4911496EC931497FC01A7
:10197000EC58F94FE4911596EC931597FC01EB5850
:10198000F94FE4911696EC931697FC01EA58F94F3B
:10199000E4911796EC931797FC01E958F94FE491FD
:1019A0001896EC931897FC01E858F94FE4911996B2
:1019B000EC931997FC01E758F94FE4911A96EC93D0
:1019C0001A97FC01E658F94FE4911B96EC931B978C
:1019D000FC01E558F94FE4911D96EC931D97FC012D
:1019E000E458F94FE4911E96EC931E97FC01E358DE
:1019F000F94FE4911F96EC931F97FC01E258F94FC1
:101A0000E4915096EC936F5F8EE0689FF001112493
:101A1000EF58F94FE4912E0F311D6DCF60938F0475
:101A2000309392042093910469960FB6F894DEBF28
:101A30000FBECDBFDF91CF911F910F91FF90EF901F
:101A4000DF90CF90BF90AF909F908F907F906F90DE
:101A50005F904F903F902F90089540E060E073E0DA
:101A60008FED96E00E949B1FED81FE811082698DB3
:101A7000872D0E94BB0783E09EEFA2CD8F929F929D
:101A8000AF92BF92CF92DF92EF92FF920F931F938C
:101A9000CF93DF93CDB7DEB7A8970FB6F894DEBF2C
:101AA0000FBECDBF942E822E21E020935A071CA298
:101AB0001BA21EA21DA218A61FA22AE0AE014F5F04
:101AC0005F4F7A010E947C32F70101900020E9F714
:101AD0003197AF014E195F09B701CE0183960E947D
:101AE000FE1C10E08FA198A58017910760F563E4B4
:101AF00072E0C7010E943B1D8FA198A5ABA0BCA0BE
:101B0000CD80DE80A114B104E9F1009799F0C80EF0
:101B1000D91EB601C7010E94C51C882399F12981ED
:101B20003A818D819E81B501820F931F0E944D37AE
:101B3000DE82CD82B701CE0183960E941F1DC701B0
:101B40000E94361DCFCF90925D0780925E07CE0136
:101B500083960E941B11CE0183960E94361DA89683
:101B60000FB6F894DEBF0FBECDBFDF91CF911F91AE
:101B70000F91FF90EF90DF90CF90BF90AF909F902C
:101B80008F900895C7010E94EC1CD4CF1F93CF9370
:101B9000DF93CDB7DEB727970FB6F894DEBF0FBE41
:101BA000CDBF162F1A8219821C821B821E821D82B3
:101BB000BC01CE0101964F830E941F1D10935D074B
:101BC0004F8140935E0781E080935A07CE010196D2
:101BD0000E941B11CE0101960E94361D27960FB65A
:101BE000F894DEBF0FBECDBFDF91CF911F91089556
:101BF000CF92DF92EF92FF920F931F93CF93DF93D9
:101C00008111B6C080917907882309F4B1C0109280
:101C1000D20681E080935A07109259071092580714
:101C20008093630780936407CDE6D6E01CE00E94B2
:101C300041138823E1F3FE0184912DEC35E040E06F
:101C400060E084E597E00E94DE1F10925D0710932C
:101C50005E078DE696E00E94921280915B07982FB6
:101C6000990F890F81958D5A80935D0780915C074C
:101C7000982F990F890F8195835D80935E078091DE
:101C80006B0784FF03C089EC95E002C085EC95E00A
:101C90000E94411780915B07982F990F890F8195BA
:101CA0008D5A80935D0780915E078F5F80935E07FA
:101CB0008091EC06882319F081EC95E002C08DEB51
:101CC00095E00E94411780915B07982F990F890F2B
:101CD00081958D5A80935D0780915E078F5F809319
:101CE0005E0789EB95E00E9441178091D006813014
:101CF00099F48091EC068F5F082E000C990B60918F
:101D0000ED0670E06F5F7F4F0E9447368093EC06D0
:101D10008FED96E00E94D41F8091CF068130B9F0FC
:101D200080917907482F50E060E070E0C0906B0729
:101D3000D0906C07E0906D07F0906E07C416D50642
:101D4000E606F70608F473CF8F3F09F470CF8FEFE4
:101D50008093790760E08FED96E00E94771F1092E4
:101D6000E2068FED96E00E94D91F81E08093D206B3
:101D700080E090E00E94DC33C82FD0E0D0939A043A
:101D8000C093990481E090E00E94DC3390E0982FAA
:101D90008827C80FD91FC136FAEEDF0728F4D09381
:101DA0009A04C093990404C010929A041092990462
:101DB0008DE396E09093FA068093F9069093FC06E3
:101DC0008093FB0681E00E9443121092F5068BE897
:101DD00093E09093F1068093F006C1E0C093E00693
:101DE00082E00E9443121092F6068BE693E09093F5
:101DF000F3068093F206C093E106809164008E7F23
:101E00008093640087EC80937C0080E280937B0069
:101E100062E070E080E090E00E94571E80917A00BE
:101E2000806480937A0080917A0086FDFCCF0091D7
:101E3000780010917900009510958EE580937C00D4
:101E400062E070E080E090E00E94571E80917A008E
:101E5000806480937A0080917A00C82FC07486FDD8
:101E6000FACFE0907800F09079000E94321E9B013A
:101E7000AC012095309540955095E094F094E09E0B
:101E8000D001E19EB00DF09EB00D11240E941134DE
:101E90006B017C010E94321E6C0D7D1D8E1D9F1DED
:101EA000611571058105910511F00E9473328091D1
:101EB00064008160809364001092D2068AE080936F
:101EC0009F0488E18093A00482E38093A30483E0CD
:101ED0008093A4041092A1041092A5041092A60469
:101EE000109294041092930410929C0410929B04FC
:101EF00010927E0310927D03109297041092A90411
:101F00001092960410927F0310927C0310927B0330
:101F100010927A03109279031092780381E08093F3
:101F200095041092900410928D0410928E041092D9
:101F30009E0410929D0410929804E4E5F2E0108251
:101F4000379682E0E03EF807D1F7E0EEF2E010824B
:101F5000739683E0E837F807D1F7E0E8F3E0108202
:101F6000379684E0E537F807D1F7109248021092CF
:101F70004C021092500210928F04E1E7F6E0E491D7
:101F8000F0E0F0939204E093910405E714E06AE036
:101F900070E080E090E00E94501D6C0F6C59F801D9
:101FA000608360E370E080E090E00E94501DF801E3
:101FB0006183C95F0E5F1F4FC43549F7DF91CF9131
:101FC0001F910F91FF90EF90DF90CF900895CF93E6
:101FD000DF93682F70E0EB01C654D94F9DA1992380
:101FE000B1F198A5911133C09AADFB01EE0FFF1F1F
:101FF000E753F94F35A126A1E32FF22FE90FF11D89
:10200000E90FF11D259134912F3F9FEF390711F40E
:102010001DA21DC0FE017E9635A3660F771FFB0132
:10202000EE52F94F3327220F331F05A0F6A1E02D02
:10203000E20FF31F65917491833028F4482F8FEDE0
:1020400096E00E949B1F65968DA18F5F8DA3DF9107
:10205000CF910895AF92BF92CF92DF92EF92FF920D
:102060000F931F93CF93DF93182F062FC1E0D3E078
:102070008AEFD82E9EEFE92E842F8470C82E842FED
:102080008270B82E842F8870A82E4170F42E8C2F69
:10209000880F8F5FE80ECC2081F04D2F400F6C2F02
:1020A000610F84E597E00E9420074C2F400F6D2FB1
:1020B000610F84E597E00E942007BB2081F0402F4C
:1020C0004D1B6C2F610F84E597E00E942007402F85
:1020D0004C1B6D2F610F84E597E00E942007AA201A
:1020E00081F04C2F400F612F6D1B84E597E00E941B
:1020F00020074D2F400F612F6C1B84E597E00E9455
:102100002007FF2081F0402F4C1B612F6D1B84E5C1
:1021100097E00E942007402F4D1B612F6C1B84E528
:1021200097E00E942007CD1744F4E7FC04C0D1508B
:10213000D394D394ED0CCF5FAACFDF91CF911F91B1
:102140000F91FF90EF90DF90CF90BF90AF900895E8
:102150000F931F93CF93DF93182F062FD42FC0E038
:10216000CD174CF44C2F400F612F84E597E00E946F
:102170002007CF5FF5CFDF91CF911F910F91089589
:102180009F92AF92BF92CF92DF92EF92FF920F9306
:102190001F93CF93DF93F82EE62EB22E03E0020FAB
:1021A000D0E0C3E08AEFC82E1EEF842F8170982EF6
:1021B000AA24A394A20E4270D42EDF5F802F8B1925
:1021C000180F992081F04C2F440F4A0D6E2D6C1B77
:1021D0008D2F8F0D0E94A810402F6E2D6D1B8C2F00
:1021E0008F0D0E94A810DD2081F04C2F440F4A0D66
:1021F0006E2D6C1B8F2D8D1B0E94A810402F6E2DF5
:102200006D1B8F2D8C1B0E94A810DC1744F417FD4A
:1022100004C0C150C394C3941C0D0E5FCECFDF9198
:10222000CF911F910F91FF90EF90DF90CF90BF90D3
:10223000AF909F900895FC01448155816081718128
:1022400084E597E00C94431C8F929F92AF92BF92CB
:102250000F931F93CF93DF93CDB7DEB7A1970FB640
:10226000F894DEBF0FBECDBF19A2423008F44AE099
:102270008E010F5D1F4F842E912CA12CB12CA50136
:1022800094010E945B34E62FB901CA010150110983
:10229000EA3014F4E05D01C0E95CD801EC93232B33
:1022A000242B252B61F7B80184E597E00E94741D6B
:1022B000A1960FB6F894DEBF0FBECDBFDF91CF91D0
:1022C0001F910F91BF90AF909F908F9008954F9264
:1022D0005F926F927F928F929F92AF92BF92CF92B6
:1022E000DF92EF92FF920F931F93CF93DF93FA0148
:1022F000E490F12C3196A491EFEF6E2EECE07E2E5F
:10230000F301B491E0E0FDE0E4914C018E0C9F1CE0
:1023100028153905A4F46901CB0ED11C8C159D0537
:1023200074F4B0E05B01AA0EBB1E0A151B053CF459
:10233000E801CE0FD11DFE016C177D0714F080E07F
:1023400091C0821793070CF08AC02901481A590AD4
:102350006017710724F4E801C61BD70B02C0C0E068
:10236000D0E08C149D041CF07601E81AF90AAE1630
:10237000BF061CF0DF01A61BB70B1C2FC0E8D0E086
:10238000982E921AA62EA01A612F70E06A177B076A
:10239000B4F6042DCA2CC10ED12C802F90E08E15DE
:1023A0009F050CF058C0FA012491FC0133E0F5952B
:1023B000E7953A95E1F7329630E0295F3F4F83E0A9
:1023C000359527958A95E1F7629FC001639F900D2F
:1023D000729F900D1124E80FF91FE40FF51FE4918F
:1023E000F0E0802F87709E0102C0359527958A9571
:1023F000E2F7E223F323EF2B61F1F3012491B92CEF
:10240000B00EEB2DF0E083E0F595E7958A95E1F7C6
:1024100030E0295F3F4F93E0359527959A95E1F796
:10242000C29EC001C39E900DD29E900D1124E80F54
:10243000F91FEF5FF24FE491F0E08B2D87709E0162
:1024400002C0359527958A95E2F7E223F323EF2B17
:1024500021F40F5FA2CF1F5F97CF81E003C0412C13
:10246000512C76CFDF91CF911F910F91FF90EF907C
:10247000DF90CF90BF90AF909F908F907F906F90A4
:102480005F904F900895CF93DF93833058F4682F77
:10249000C82FD0E0C654D94F1DA28FED96E00E9400
:1024A000771F18A6DF91CF91089570E09B01220F4E
:1024B000331F2654394FF901B79645A196A1E42F51
:1024C000F92FE80FF11DE80FF11D45915491D90145
:1024D000A95ABF4F96965C934E939597FA018591B2
:1024E00094919091EB06989F802D11246654794F1A
:1024F000FB01E35AFF4F85A3FA01A591B4912B2F5D
:1025000030E0E82FF0E02E173F0720F4FA01259184
:102510003491832FFB01E05AFF4F899F802D1124B6
:1025200085A308950F931F93CF93DF938C01C0E091
:10253000D0E0F801EC0FFD1F6491662371F0E0918B
:102540005407F09155070190F081E02D84E597E064
:102550000995892B11F02196ECCFCE01DF91CF9117
:102560001F910F910895CF93DF93E5E6F7E0C081C7
:10257000D1819881A9E6B7E08C91892B8883C0919D
:102580006707D0916807988180916A0780958923B1
:1025900088830190F081E02D90818C918095892332
:1025A0008083DF91CF910895CF92DF92EF92FF92D7
:1025B0000F931F93CF93DF93C4ECD6E00BEC16E0A0
:1025C000FF24FA9496E0E92EE00E62E088810E94F2
:1025D000F61D288130E0F901E052F34F8491F901B2
:1025E000EF53F34FC490F901EE55F34FD490DD2033
:1025F00071F081110E94891DED2DF0E0EE0FFF1F9B
:10260000EC56F34FA591B491EC91EC2131F5F80122
:1026100080818F5F808360E088810E94F61D219613
:102620000F5F1F4FE012D1CF9091CB069150809158
:10263000D1069E3F38F49091CD0691509E3F10F404
:102640008F5F08C08823A1F08F3F19F41092D10644
:102650000FC08FEF8093D1060BC0F80180818823D3
:10266000F1F2F8018F3F11F41082D5CFF082D3CF71
:10267000DF91CF911F910F91FF90EF90DF90CF905E
:1026800008952F923F924F925F926F927F928F9216
:102690009F92AF92BF92CF92DF92EF92FF920F93F1
:1026A0001F93CF93DF93CDB7DEB72D970FB6F89476
:1026B000DEBF0FBECDBF40917B0750917C0760917C
:1026C0007D0770917E072FB7F8948091B6069091A0
:1026D000B706A091B806B091B9062FBF481B590B99
:1026E0006A0B7B0B80917A0790E0A0E0B0E000914C
:1026F000730710917407209175073091760784173E
:102700009507A607B70730F4011511052105310516
:1027100009F05DC380E0012B022B032B09F098C365
:102720000E94E70F81E00E94E70F82E00E94E70F1E
:102730003AEB632E36E0732E4FE0E42E47E0F42EA2
:1027400050E0C52E57E0D52E7D866C8600E010E067
:10275000BB24B394A02ED801A654B94F98968C915F
:102760009897882309F4F2C08C849D843EE5830EFB
:10277000911CF40180818111E9C0F6018081918171
:10278000F70120813181F901EE0FFF1FE80FF91FDA
:10279000259134912115310511F5EC85FD85EE5A11
:1027A000FF4F2081222329F0D7011D921C92FC01AA
:1027B00014C098961C92989795968C918823C1F195
:1027C000802F0E94E70FD701ED91FC91EE0FFF1FC4
:1027D000D6018D919C91E80FF91F25913491EC85DC
:1027E000FD85E659FF4FFA83E9838C859D858359E2
:1027F0009F4F9C838B83AC85BD85A059BF4FBE8303
:10280000AD83EC85FD85ED58FF4FF887EF832C8471
:102810003D84F6E72F0E311C4C845D8489E7480E19
:10282000511CAC85BD85AF59BF4FBA87A9872EC053
:10283000602F8FED96E00E94771F88C0C901E6E007
:1028400096958795EA95E1F78F71932F96959695D2
:10285000969590514F704230A1F130F541111EC054
:102860008B3008F08AE0E985FA858083D701ED9105
:10287000FC9111973196ED93FC93EE0FFF1FD6015B
:102880008D919C91E80FF91F25913491A9015695DE
:1028900047955695479520FDD1CF2AC0413031F755
:1028A0006A2D0E945512E2CF4330B1F04430F1F668
:1028B0002091EB06829F802D1124D1018C93F2018F
:1028C00015C02091EB06829F802D1124A981BA8129
:1028D0008C93EB81FC810AC02091EB06829F802DB6
:1028E0001124AD81BE818C93EF81F8859083BECF9A
:1028F000EC85FD85E55AFF4F4F7340838091EB06D1
:10290000839F802D1124F4018083EC85FD85E2579F
:10291000FF4F1082F801EE0FFF1FEE5BF84F1182A0
:102920001082EC85FD85EC59FF4FB082F801E1552E
:10293000FB4FB082EC85FD85E959FF4F1082D7012E
:102940008D919C91119701968D939C930F5F1F4FD2
:102950002C853D852F5F3F4F3D872C8732E0E30E6E
:10296000F11C82E0C80ED11C0330110509F0F2CE33
:10297000F5EEEF2EF6E0FF2E08EE16E0A8E4CA2EE4
:10298000A7E0DA2EB2E4AB2EB7E0BB2E1C821B828E
:102990008BE3282E312C92E0492E512CF301EC5977
:1029A000FF4F8081882309F404C13697808181110B
:1029B00006C06B818FED96E00E94771FFAC08150B0
:1029C0008083D6018C91F301EF56FF4F4F019301A5
:1029D0002C563F4F3A832983811150C0D5012D9148
:1029E0003C912F5F3F4FEB81FC81EE0FFF1FEA5CB4
:1029F000F84FC901880F991F0190F081E02DE80F71
:102A0000F91F45915491842F8770F4018083CA0186
:102A100063E0969587956A95E1F7BC017695679591
:102A2000952F96959695A981BA819C936F739091F5
:102A3000EB06699F602D1124F6016083EB81FC8118
:102A4000E554FB4F81708083D50111963C932E9302
:102A5000F301EE57FF4F808190E02817390770F09F
:102A600033962081222329F0821B91098D939C9318
:102A700005C06B818FED96E00E94771FF601808183
:102A800081508083F301E959FF4F20812F5F20831C
:102A90003C974081A981BA813C91340F789780811D
:102AA000380FF7013083F301E059FF4F608166234F
:102AB00071F070E0822F022E000C990B0E944736B5
:102AC00033968081869F300D1124D7013C93F70106
:102AD000808190E0CB96B1010E9447368083F3015C
:102AE000EF59FF4F3081D8013C93399660816623BE
:102AF00081F0062E000C770B822F022E000C990B12
:102B00000E94473633968081869F300D1124F8014C
:102B10003083F301EA58FF4F6081662391F0822FE2
:102B2000220F990B70E00E944736CB01B2010E9440
:102B3000473633962081D8019C91289F900D11240F
:102B40009C93F80180814F3341F08A300CF089E08A
:102B500087FD80E0D8018C9302C0F8011082F894C0
:102B6000D701EC91F0E0E75AF34FE491AB81BC81DF
:102B7000A854BB4FEC93F8018081F301E956FF4F55
:102B80009081899F802D11249091EC06899F802D42
:102B90001124D4019C91899F802D1124EB81FC810B
:102BA000EB54FB4F8083EB81FC81EE54FB4F808321
:102BB00078942B813C812F5F3F4F3C832B833FEFE9
:102BC000631A730A8FEFE81AF80A0F5F1F4F9FEF1F
:102BD000C91AD90AA2E0AA0EB11C2B813C8123306C
:102BE000310509F0DBCE80917F07882309F482C08C
:102BF0008C3020F49CE0E92EE81A01C0E12CFF247F
:102C0000F394F0925A071092630710926407309180
:102C10005C079DE2D92E1D2D131B1E0D03E0030F33
:102C20002EE4412F63E084E597E03B870E94432137
:102C30003B850CEF030F1D5F202F41E0612F80E5E6
:102C40000E94C010202F42E0612F83E00E94C0103C
:102C5000F0926307F092640700915C07FD2CF01A74
:102C6000FE0C2EE44F2D63E084E597E00E942021C6
:102C700013E0100F1F0D4FEF410F2EE463E084E5CA
:102C800097E00E942021035033E0F30E402F6F2D78
:102C900080E00E94A810402F6F2D83E50E94A810AD
:102CA00041E06F2D83E00E942A1042E06F2D80E505
:102CB0000E942A10145044E0612F80E50E942A10DF
:102CC00048E0612F83E00E942A1084E080935D0732
:102CD00080915C07E81A8E2D815D80935E0780915C
:102CE0008007909181070E94921280917F07815006
:102CF00080937F07809160078F5F809360078EEBE2
:102D0000E82E84E0F82ED12C0E94B31282E20E94B9
:102D10007807D3948D2D0E94780787E00E9478076A
:102D200081E20E94780786E10E9478078FE70E947F
:102D30007807E0916707F0916807908180916A07B2
:102D4000892B8083E0916507F091660790818091DF
:102D5000690780958923808300E010E0F701E00F88
:102D6000F11F80810E9478070F5F1F4F0435110506
:102D7000A9F784E5E80EF11C96E0D912C5CF809141
:102D8000580781110EC088EF91E0EEEBF4E0DF010F
:102D90009C011D9221503040E1F710925D07109286
:102DA0005E070E94321E60937307709374078093CE
:102DB00075079093760720916F0730917007621B1B
:102DC000730B709378076093770780E041C02FB74B
:102DD000F8948091B6069091B706A091B806B0918C
:102DE000B9062FBF20917A07820F911DA11DB11D39
:102DF00080937B0790937C07A0937D07B0937E0719
:102E000080916B0790916C07A0916D07B0916E0750
:102E10000196A11DB11D80936B0790936C07A09341
:102E20006D07B0936E07109273071092740710929B
:102E30007507109276070E94321E60936F07709399
:102E4000700780937107909372070E94D41281E0FB
:102E50002D960FB6F894DEBF0FBECDBFDF91CF9198
:102E60001F910F91FF90EF90DF90CF90BF90AF90A8
:102E70009F908F907F906F905F904F903F902F909A
:102E80000895CF93DF930E949212EC0165E472E003
:102E900084E597E00E94741D8C0F9D1FDF91CF91F8
:102EA000089540E061E57CE08FED96E00C949B1F77
:102EB000E0915407F09155070190F081E02D682FC3
:102EC00084E597E00994FC018091DA07811103C041
:102ED0008FEF9FEF08959FB7F89482E08093E90009
:102EE0002091F20030E01216130614F421E030E0D5
:102EF0002115310559F0289884E68093D9078091EF
:102F0000F10080838091F200882319F09FBFC901EE
:102F100008958BE68093E800F9CF2FB7F89483E00B
:102F20008093E9009091E800892F807295FF04C09A
:102F30009091F20080E4891B2FBF08958091E007F3
:102F400081110DC082E08093DC0784E08093DD076F
:102F50001092DF071092DE0781E08093E0078CED8E
:102F600097E00895CF93DF931F92CDB7DEB76983C3
:102F7000DC01ED91FC910280F381E02D41E050E015
:102F8000BE016F5F7F4F09950F90DF91CF9108953C
:102F900083E08093E9008091F200882319F08AE3AE
:102FA0008093E80008950E948D1790E00895CF93D4
:102FB000DF931F92CDB7DEB7FC018485958597FD21
:102FC00005C02FEF3FEF358724870BC0CE01019658
:102FD0000E946317019719F4898190E002C08FEF76
:102FE0009FEF0F90DF91CF9108950F931F93CF9391
:102FF000DF931F92CDB7DEB78C01FC0184859585E8
:1030000097FF0EC0CE0101960E946317019719F435
:10301000298130E002C02FEF3FEFF8013587248788
:10302000F801848595850F90DF91CF911F910F91C5
:103030000895FC018485958597FD0BC09FB7F89492
:1030400082E08093E9008091F2009FBF90E00196BA
:1030500008959FB7F89482E08093E9008091F20090
:103060009FBF90E008958F929F92AF92BF92CF92B0
:10307000DF92EF92FF920F931F93CF93DF935C0148
:103080006B017A0180910B01882309F45BC0809168
:10309000DA07882309F456C08091D80780FF05C05D
:1030A0008091E00082608093E000E70110E00AEF89
:1030B00083E0882E9AE3992E2097D9F10E948D17EC
:1030C00081110AC0015009F43DC061E070E080E068
:1030D00090E00E94571EF0CF282F30E0C217D30790
:1030E0000CF48C2F4FB7F8948092E9009091E8008F
:1030F00095FF1DC0282F30E0C21BD30BF601982F7F
:10310000915020F081918093F100FACFC20ED31E2E
:10311000112319F09092E80009C08091E80085FD24
:1031200006C09092E80011E0209709F010E04FBF30
:10313000C3CF1111C3CF5D9884E68093DB071E14C3
:103140001F0444F081E090E0F5019383828380E0E6
:1031500090E001C0C701DF91CF911F910F91FF90C7
:10316000EF90DF90CF90BF90AF909F908F90089599
:10317000CF92DF92EF92FF920F931F93CF93DF9343
:103180001F92CDB7DEB7182F062FE42E862F880F9B
:103190008E5F99830E94382283E00E943822F12EAC
:1031A000C12E9981D92E8C2D8F19801798F4F60194
:1031B000E7FE02C0849101C080810E943822182F4E
:1031C00080E00E9438228123FFEFCF1ADF0A8111AD
:1031D000EACF01C081E00F90DF91CF911F910F9155
:1031E000FF90EF90DF90CF900895DF92EF92FF92E3
:1031F0000F931F93CF93DF93D82E8A017B01E40EA8
:10320000F51EEB01CE15DF0571F0D7FE03C0FE0100
:10321000849101C088810E94382221968111F2CFC9
:103220008FEF9FEF01C0C801DF91CF911F910F91E8
:10323000FF90EF90DF9008950F931F93CF93DF934C
:103240001F92CDB7DEB782E0898342E450E062E0AE
:103250007DE080E80E94F5180E949E17DC0112961E
:103260000D911C9113970115110569F0D801ED918D
:10327000FC910280F381E02DBE016F5F7F4FC8019A
:10328000099597FF07C089810F90DF91CF911F911A
:103290000F910895F80100851185E5CFAF92BF9297
:1032A000DF92EF92FF920F931F93CF93DF9300D0A3
:1032B000CDB7DEB78C017B0167E472E049835A83A6
:1032C0000E943B1DD70114968D919C9115974981C1
:1032D0005A81009741F15A018A159B0508F45C0157
:1032E000D701ED91FC911197EA0DFB1DD080108262
:1032F0006D917C916115710561F0FB0101900020D9
:10330000E9F73197AF01461B570BC8010E94FE1C1D
:1033100003C0C8010E94EC1CF701808191818A0DD5
:103320009B1DDC01DC92C8010F900F90DF91CF91C3
:103330001F910F91FF90EF90DF90BF90AF90089595
:103340001F920F920FB60F9211248F939F9380912B
:10335000E1009091E100937F9093E10083FF0FC023
:103360001092E90091E09093EB001092EC0092E350
:103370009093ED001092DA0798E09093F00082FFAE
:1033800020C093E09093E9009091F200992319F006
:103390009AE39093E8009091DB07992339F090919C
:1033A000DB0791509093DB07992389F19091D9071E
:1033B000992339F09091D90791509093D907992387
:1033C00041F184FF10C08091E2008E7E8160809385
:1033D000E2008091E1008F7E8093E1008091D80728
:1033E0008E7E806111C080FF16C08091E2008E7ECB
:1033F00080618093E2008091E1008E7E8093E10005
:103400008091D8078E7E81608093D80704C05D9A32
:10341000CDCF289AD6CF9F918F910F900FBE0F904E
:103420001F9018951F920F920FB60F921124CF92F2
:10343000DF92EF92FF920F931F932F933F934F933F
:103440005F936F937F938F939F93AF93BF93EF930C
:10345000FF93CF93DF93CDB7DEB76C97DEBFCDBFC1
:103460001092E9008091E80083FFEDC168E0CE0191
:1034700045960E94662282EF8093E8008D8987FF3F
:1034800005C09091E80090FFFCCF03C09EEF9093A1
:10349000E800982F907609F0C6C09E892F89188D74
:1034A00091110CC0803829F48091D7078093F100E6
:1034B00002C01092F1001092F10048C1422F50E07A
:1034C000512B913051F4811141C14130510509F026
:1034D0003DC18091D7078D7F0BC0933061F481117E
:1034E00035C14130510509F031C18091D707826063
:1034F0008093D7072BC1953041F48091E80080FF7D
:10350000FCCF20682093E30021C1963009F05FC012
:10351000EB8CFC8C1092E9001092D5071092D40726
:10352000123091F51092D3071092D2070E941C1905
:1035300099E0BE016F5F7F4FDB01E92F1D92EA9595
:10354000E9F799831A8391E09E8390EA98879AEF2E
:1035500099872091D4073091D507275F3F4F3C834F
:103560002B838D831092E9001092D5071092D40717
:10357000F092D307E092D20749E050E080E00E9449
:10358000F5180E941C19E2C0F092D307E092D2070E
:103590000E949E17DC011296ED90FC901397E114A7
:1035A000F10409F4C0C0D701ED91FC910480F581CC
:1035B000E02DBE016B5E7F4FC7010995009719F0A2
:1035C0000CF0C4C0C7C0F701E084F184E8CF9730A5
:1035D00009F4C0C0983021F481E08093F100B6C0B6
:1035E000993009F0B3C0837009F0B4C0E6E3F1E0AC
:1035F00081E021E036E39081992361F08093E90036
:103600002093EB0091919093EC003093ED008F5F4D
:10361000873089F78EE78093EA001092EA008F895D
:103620008093DA0793C08B8D9C8D1092E9001092E5
:10363000D5071092D4079093D3078093D207898D32
:10364000811156C08E899D89913A59F4813209F0D1
:1036500081C047E050E064E071E080E00E94F5182E
:1036600075C0913209F076C0833289F4888D90E07C
:10367000982F88272F89822BA0E0B0E0809300014B
:1036800090930101A0930201B09303015FC08032C7
:1036900069F48091E80082FFFCCF67E084E091E06C
:1036A0000E9466228BEF8093E80006C0823209F008
:1036B0004DC08F8980930B018091D607882319F024
:1036C000EEEFFAE002C0E0E0F8E0809104019091B2
:1036D0000501A0910601B0910701803B9440A1052E
:1036E000B10509F07BC080910B0180FF93C076C0CB
:1036F0000E949E17DC0112960D911C9113970115E3
:10370000110541F1D801ED91FC910190F081E02D7E
:10371000BE016B5E7F4FC8010995811117C0F8018A
:1037200000851185ECCF113009F44EC0133091F4AF
:103730008F89882309F445C0823081F440E860E134
:1037400086E69DE00E94B818882321F08EEF8093D2
:10375000E80079C081E28093EB0075C0813029F4E4
:1037600040E86BE08AE59DE0EDCF833099F70E9459
:103770009E17DC011296ED90FC9013978E010F5F5F
:103780001F4F6801E114F10479F0D701ED91FC912C
:103790000680F781E02DB801C7010995080F111DBA
:1037A000F701E084F184EECFD8011C92F60101907C
:1037B0000020E9F73197BF016C197D0940E0C6018F
:1037C000C1CF64E47DE002C068E47DE0611571056D
:1037D00009F2FB01449150E080E840CF0FB6F89425
:1037E000A8958091600088618093600010926000CD
:1037F0000FBEA895EE3F2AE0F20739F08091FE0A4D
:103800009091FF0A91838083A1CF1092FF0A1092BA
:10381000FE0A9CCFEE3F8AE0F80731F0808191816B
:103820009093FF0A8093FE0A87E797E7918380834E
:103830009BE088E10FB6F894A895809360000FBED6
:103840009093600083CF6C960FB6F894DEBF0FBEE6
:10385000CDBFDF91CF91FF91EF91BF91AF919F913C
:103860008F917F916F915F914F913F912F911F9118
:103870000F91FF90EF90DF90CF900F900FBE0F90C1
:103880001F9018950895CF92DF92EF92FF920F93B9
:103890001F93CF93DF936C017A018B01C0E0D0E0DE
:1038A000CE15DF0589F0D8016D918D01D601ED911E
:1038B000FC910190F081E02DC6010995892B11F44E
:1038C0007E0102C02196ECCFC701DF91CF911F91FD
:1038D0000F91FF90EF90DF90CF9008958091AF040B
:1038E000882319F08091B20401C080E09091B00467
:1038F000992319F09091B304890F9091B104992301
:1039000019F09091B404890F90E0909399008093FE
:10391000980008950E943F370F931F93CF93DF9332
:103920008C01EB01FC01808191810097B1F06881ED
:1039300079816115710579F0428153812C813D8136
:103940004217530740F00E944D378C819D81F8014A
:103950009583848313C00E94883188819981F801FE
:10396000918380838A819B81938382838C819D81D3
:1039700095838483198218821B821A821D821C827D
:10398000DF91CF911F910F9108950F931F93CF93C4
:10399000DF93EC0188819981009729F02A813B818E
:1039A0002617370788F48B016F5F7F4F0E947536AB
:1039B000009761F0998388831B830A832C813D8162
:1039C000232B11F4FC01108281E001C080E0DF9123
:1039D000CF911F910F910895CF93DF93EC018881D0
:1039E0009981009711F00E948831198218821D82F6
:1039F0001C821B821A82DF91CF910895EF92FF9271
:103A00000F931F93CF93DF93EC017B018A01BA01DF
:103A10000E94C51C811104C0CE010E94EC1C07C08D
:103A20001D830C83B701888199810E944D37CE0197
:103A3000DF91CF911F910F91FF90EF900895CF9359
:103A4000DF93EC01FB018617970761F060817181BC
:103A50006115710529F0448155810E94FE1C02C048
:103A60000E94EC1CCE01DF91CF910895FC01808172
:103A700091810C948831FC01118210821382128290
:103A8000158214826115710551F0FB01019000202F
:103A9000E9F73197AF01461B570B0C94FE1C0895B4
:103AA000CF93DF9300D000D0CDB7DEB7611571059D
:103AB0008105910579F09B01AC0169833A834B83C1
:103AC0005C830E946E3229813A814B815C810E9425
:103AD000F23303C060E070E0CB010F900F900F90C5
:103AE0000F90DF91CF9108956115710579F0FB0179
:103AF00001900020E9F73197AF01461B570BDC011D
:103B0000ED91FC910280F381E02D099480E090E03A
:103B1000089590E0FC013197EF30F105B0F5E159DF
:103B2000FF4F0C945B36809180008F7703C08091AB
:103B300080008F7D80938000089580918000877F32
:103B4000F9CF84B58F7702C084B58F7D84BD089589
:103B5000809190008F7707C0809190008F7D03C087
:103B600080919000877F8093900008958091C0009D
:103B70008F7703C08091C0008F7D8093C00008952F
:103B80008091C200877F8093C20008951F93CF93D6
:103B9000DF93282F30E0F901E052F34F8491F901CF
:103BA000EF53F34FD491F901EE55F34FC491CC2369
:103BB000C9F0162F81110E94891DEC2FF0E0EE0F45
:103BC000FF1FEF5BFE4FA591B4918FB7F8941111D1
:103BD00005C09C91ED2FE095E92302C0EC91ED2BFF
:103BE000EC938FBFDF91CF911F910895CF93DF9317
:103BF00090E0FC01EF53F34F2491FC01EE55F34F9D
:103C00008491882361F190E0880F991FFC01EA5D9F
:103C1000FE4FC591D491FC01EF5BFE4FA591B4918D
:103C2000611109C09FB7F894888120958223888309
:103C3000EC912E230BC0623061F49FB7F894388169
:103C4000822F809583238883EC912E2B2C939FBF0A
:103C500006C08FB7F894E8812E2B28838FBFDF91A1
:103C6000CF9108953FB7F8948091EC079091ED07BC
:103C7000A091EE07B091EF0726B5A89B05C02F3F96
:103C800019F00196A11DB11D3FBFBA2FA92F982F82
:103C90008827820F911DA11DB11DBC01CD0142E0FD
:103CA000660F771F881F991F4A95D1F708958F9245
:103CB0009F92AF92BF92CF92DF92EF92FF926B01F1
:103CC0007C010E94321E4B015C01C114D104E1044D
:103CD000F104F1F00E94321EDC01CB018819990930
:103CE000AA09BB09883E9340A105B10570F321E004
:103CF000C21AD108E108F10888EE880E83E0981E08
:103D0000A11CB11CC114D104E104F10419F7DDCFE9
:103D1000FF90EF90DF90CF90BF90AF909F908F90EB
:103D200008951F920F920FB60F9211242F933F9375
:103D30008F939F93AF93BF938091B6069091B706F0
:103D4000A091B806B091B9063091EB0723E0230F9C
:103D50002D3720F40196A11DB11D05C026E8230FC3
:103D60000296A11DB11D2093EB078093B606909398
:103D7000B706A093B806B093B9068091EC0790916E
:103D8000ED07A091EE07B091EF070196A11DB11DBF
:103D90008093EC079093ED07A093EE07B093EF07A5
:103DA000BF91AF919F918F913F912F910F900FBE37
:103DB0000F901F9018951F920F920FB60F9211241B
:103DC0002F933F934F935F936F937F938F939F9323
:103DD000AF93BF93EF93FF936091B504611102C05D
:103DE00080E023C08091E8078F5F8093E80790917F
:103DF000B8048917A8F39091AF0481E089278093D4
:103E0000AF041092E8078091BB04882369F0809189
:103E10000C0193E4899F802D1124895B80930C0110
:103E20000E943B369093B20481E06091B604662311
:103E300019F19091E9079F5F9093E9072091B904E8
:103E40009217D0F09091B00481E089278093B0045C
:103E50001092E9078091BC04882369F080910C01DD
:103E600093E4899F802D1124895B80930C010E942B
:103E70003B369093B30481E06091B704662319F157
:103E80009091EA079F5F9093EA072091BA049217F6
:103E9000D0F09091B10481E089278093B104109211
:103EA000EA078091BD04882379F080910C0193E4A6
:103EB000899F802D1124895B80930C010E943B36E1
:103EC0009093B40401C081110E946E1CFF91EF9188
:103ED000BF91AF919F918F917F916F915F914F9122
:103EE0003F912F910F900FBE0F901F901895633048
:103EF00008F570E0FC01E60FF71F17AE11AE9B014D
:103F0000220F331F820F931FDC01AD59BF4F1D924B
:103F10001C92EE5BFF4F1082FB01EE54FB4F1082B0
:103F2000FB01EB54FB4F1082FB01E155FB4F10826C
:103F30000C946E1C0895EF92FF920F931F93CF93F2
:103F4000DF938C017B01C42FD0E0433038F4642F21
:103F50000E94771FF801EC0FFD1F1382FE01EE0F88
:103F6000FF1FE00FF11FF2A2E1A2FE017896EE0F13
:103F7000FF1FE00FF11F11821082F801EC0FFD1FEF
:103F800081E0838389E084AFDF01AB5BBF4F1C928C
:103F900016961C92EF5AFF4F1082DF91CF911F911E
:103FA0000F91FF90EF90089540E06FE77DE00C9453
:103FB0009B1F40E067E77DE00C949B1F4F925F9250
:103FC0006F927F928F929F92AF92BF92CF92DF9229
:103FD000EF92FF920F931F93CF93DF93F901C49059
:103FE00031965491EC010F8564350CF018C14033C3
:103FF0000CF015C10C2C000CDD08A62F062E000CB1
:10400000BB0B7D01EC0CFD1C1E141F040CF007C142
:10401000A52E842E042E000C9908F401E50FF11D45
:1040200057FDFA951E161F060CF0F9C02E5F3F4F84
:10403000E6012796D7FD279673E0D595C7957A9523
:10404000E1F747FF0AC0A52EA40EC89DA001C99D97
:10405000500D1124241B350B40E0EA2D0A2C000CD6
:10406000FF0BE40FF11D47FDFA95F1971CF050E3AB
:10407000A52EA41A67FD60E0F701E535F10514F0FF
:10408000E4E5F0E07E2FFC01D484D426862F062EB2
:10409000000C990BFC01EA1BFB0BDF017F01F7E031
:1040A000EF22FF24E0E8F0E002C0F595E795EA94FE
:1040B000E2F71E2FB7FD179653E0B595A7955A95D1
:1040C000E1F72A0F3B1FE42FE77051E001C0550FC5
:1040D000EA95EAF7459545954595B4E54B02800D7F
:1040E000911D112482549B4FC12C0A2C000CBB083B
:1040F000992493942E015524EC2DF0E0EA15FB054C
:104100000CF08DC0F90144910130E1F47C01A12F44
:10411000862E881AB82DBE0DB71708F077C0B42FB9
:10412000BA2321F0E701B881B52BB883B0E0B5958B
:10413000A795109719F431964491A0E8DFEFED1A96
:10414000FD0AE8CF01111FC0752E70947C01A12FCC
:10415000F901862E881AB82DBE0DB71708F056C083
:10416000B42FBA2321F0E701B881B721B883B0E0BA
:10417000B595A795109719F431964491A0E8DFEF13
:10418000ED1AFD0AE8CF033031F07C01A12FF901CF
:10419000862E881A37C0752E7094862E7C01A12F2A
:1041A000F9018716D8F4B42FBA2359F0E701B88182
:1041B000682C6D2460FE02C0B52B02C0B721E70158
:1041C000B883B0E0B595A795109719F4319644914E
:1041D000A0E88394DFEFED1AFD0AE3CFD92416C0DF
:1041E000B42FBA2321F0E701B881B527B883B0E036
:1041F000B595A795109719F431964491A0E8DFEF93
:10420000ED1AFD0AB82DBE0DB71750F3550F19F46E
:104210008C5A9F4F51E0C394240D351D6DCFDF9113
:10422000CF911F910F91FF90EF90DF90CF90BF90B3
:10423000AF909F908F907F906F905F904F90089578
:10424000DF92EF92FF920F931F93CF93DF931F9212
:10425000CDB7DEB78C01D62EF42EE12CE21654F445
:104260006E2D6D0D4F2DC80129830E942007E39408
:104270002981F4CF0F90DF91CF911F910F91FF9083
:10428000EF90DF900895DF92EF92FF920F931F93CC
:10429000CF93DF937C01D62FD22EC42F002E000C9B
:1042A000110B040F111D47FD1A954C2F0C2E000CFD
:1042B000550B4017510744F42D2D4C2F6D2FC7017E
:1042C0000E942021CF5FF1CFDF91CF911F910F91FD
:1042D000FF90EF90DF9008956F927F928F929F9260
:1042E000AF92BF92CF92DF92EF92FF920F931F9304
:1042F000CF93DF93EC016A3019F428859E81A1C029
:104300006D3009F4A4C01E81BA84D9848F8483E5FA
:104310008D150CF47FC08FE28B150CF47BC08F8160
:1043200090E00197189F9001199F300D1124C90149
:104330008D0D911DD7FC9A95181619060CF06AC0C0
:104340008885819FC00111248B0D911DB7FC9A9522
:10435000181619060CF05EC09D2CCD2CE62EF12C03
:10436000EC2DED190E2E000CFF0B8F8190E0E8175D
:10437000F9070CF04EC00197E817F90779F0E89EAD
:104380009001E99E300DF89E300D1124E20FF31FCD
:104390008D859E85E80FF91F749001C0712C6B2CE0
:1043A000AB2C2A2D2B19022E000C330B888590E0A4
:1043B000281739075CF570FE10C0113031F44A2D12
:1043C0006C2DCE010E9420071DC0012F212F462DEC
:1043D000692DCE010E94432115C088899F858917C8
:1043E00089F08F87113031F44A2D6C2DCE010E9457
:1043F000200707C0012F212F462D692DCE010E94D5
:1044000043218F867694A394610ECBCFC394910EF3
:10441000A7CF8F862E813F818985329F800D112401
:1044200089879D81992399F0082E000C990B44E50A
:1044300050E0239F401951091124481759073CF4B3
:1044400098858A85299F800D11248A87198681E0A5
:1044500090E0DF91CF911F910F91FF90EF90DF904F
:10446000CF90BF90AF909F908F907F906F90089566
:104470004091D4075091D5072091D2073091D307AE
:1044800042175307B4F49091E8009570E1F39091CE
:10449000E80092FD19C08093F1008091D4079091BB
:1044A000D50701968F739927892B19F48EEF809386
:1044B000E8008091D4079091D50701969093D50795
:1044C0008093D40781E0089580E00895615030F032
:1044D0002091F100FC0120830196F8CF289884E612
:1044E0008093D9070895CF93DF93CDB7DEB7609758
:1044F0000FB6F894DEBF0FBECDBF789484B582604E
:1045000084BD84B5816084BD85B5826085BD85B577
:10451000816085BD80916E00816080936E001092F5
:104520008100809181008260809381008091810070
:104530008160809381008091800081608093800001
:1045400080919100826080939100809191008160C0
:104550008093910080919000816080939000809181
:10456000C10084608093C1008091C100826080930B
:10457000C1008091C10081608093C1008091C3001F
:1045800081608093C3008091C00082608093C000EE
:104590008091C20081608093C20080917A00846023
:1045A00080937A0080917A00826080937A00809173
:1045B0007A00816080937A0080917A00806880938D
:1045C0007A001092DA071092D7071092D8078091DC
:1045D000D70081608093D70080EA8093D80089B5A6
:1045E000806189BD89B5826089BD09B400FEFDCFB7
:1045F00061E070E080E090E00E94571E8091D8005A
:104600008F7C80618093D8008091E000807F8093D0
:10461000E0008091E1008E7E8093E1008DE0809348
:10462000E200559A209AEEEFFFE7859194918B3F37
:104630009C4D19F481E08093D60782E380937A073A
:1046400081E090E0A0E0B0E080937307909374075E
:10465000A0937507B093760711E01093ED061093C1
:10466000EC068FEF8093790784E18093C40682E1A2
:104670008093C50683E18093C60685E18093C706D3
:1046800087E08093C80688E08093C9061092CA0626
:104690000E94D41210936307109264071093590775
:1046A00010935A07EFE4F1E0E491EF5FE0935B07CA
:1046B000E0E5F1E0E491EF5FE0935C0781E591E0F4
:1046C00090936207809361071FB7F8948091AA04C2
:1046D000811127C0E3EBFCE08491E2EDFCE09491D2
:1046E000E82FF0E0EE0FFF1FEA5DFE4FA591B491B9
:1046F000EC91E92321F461E081E10E94C61D61E0B3
:1047000081E10E94F61D8CB580618CBD8CB5806402
:104710008CBD61E08FE00E94F61D61E080E10E94A7
:10472000F61D8091AA048F5F8093AA041FBF8CB5E9
:104730008C7F8CBD8DB581608DBD61E084E00E9471
:10474000F61D61E08CE00E94F61D61E086E00E94AB
:10475000F61D61E086E00E94C61D61E070E080E029
:1047600090E00E94571E60E086E00E94C61D6AE04D
:1047700070E080E090E00E94571E61E086E00E94B9
:10478000C61DEEEAFCE0E491F0E0EE0FFF1FEF5BE8
:10479000FE4F859194919093660780936507E6EAB2
:1047A000FCE0E491F0E0EE0FFF1FEF5BFE4F859120
:1047B00094919093680780936707EDECFCE0E49197
:1047C000E0936907E5ECFCE0E491E0936A070E945E
:1047D000B31204E311E0EDE0FE2EF00EF801849137
:1047E0000E9478070F5F1F4FF012F8CFE091670724
:1047F000F0916807908180916A07892B8083E0910E
:104800006507F091660790818091690780958923FB
:10481000808300E014E080E00E94780701501109D5
:10482000D1F711E01093EB061093510752E2E52EF9
:1048300051E0F52EF0920707E092060760E080E075
:104840000E94551210935207F0920907E092080750
:1048500061E080E00E94551210935307F0920B071D
:10486000E0920A0762E080E00E94551261E085E074
:104870000E94F61D61E08DE00E94F61D61E085E07A
:104880000E94F61DE5EEFCE0E4918E2F90E0FC0125
:104890003197EF30F10508F07DC0EA5AFF4F0C94D4
:1048A0005B3684B5806884BD81E087BD77C084B500
:1048B000806284BD81E088BD71C080918000806885
:1048C0008093800081E090E090938900809388003D
:1048D00065C08091800080628093800081E090E0DC
:1048E00090938B0080938A0059C0809180008860EB
:1048F0008093800081E090E090938D0080938C0005
:104900004DC08091900080688093900081E090E09D
:10491000909399008093980041C0809190008062AC
:104920008093900081E090E090939B0080939A00A8
:1049300035C08091900088608093900081E090E085
:1049400090939D0080939C0029C08091C000806856
:104950008093C0008091C0008F7B8093C00081E075
:104960008093CF001BC08091C00080628093C00004
:1049700081E08093D00012C08091C2008860809353
:10498000C2008091C2008B7F8093C20081E080933F
:10499000D20004C060E085E00E94C61D80919100B5
:1049A000887F816080939100F8941092800010922B
:1049B0008100109285001092840088E191E090932C
:1049C00089008093880080918100886080938100B5
:1049D0008091810081608093810080916F0082606E
:1049E00080936F0078948091D006813019F41092F2
:1049F000EC0615C040E061ED72E08FED96E00E949C
:104A00009B1F41E061ED72E08FED96E00E949B1FDD
:104A100042E061ED72E08FED96E00E949B1F80E026
:104A20000E94F80D4AE0A42EB12C0E944113882365
:104A300011F40C94A92F8091A90481110C94E52DF7
:104A40008091E006811123C08091A5048A30F8F49A
:104A50008091A4048823D9F081E00E94431210922F
:104A6000F5068BE893E09093F1068093F00611E051
:104A70001093E00682E00E9443121092F6068BE645
:104A800093E09093F3068093F2061093E1068091F1
:104A9000960481110C94C92DD090950425E7422EDF
:104AA00024E0522E36E7E32E34E0F32E8201D801C3
:104AB0008C918D19843610F08C930BC08C5AF801B0
:104AC000808360E370E080E090E00E94501DD70199
:104AD0006C93F80160816456D7014C9184E597E0AE
:104AE0000E9420070E5F1F4FB2E0EB0EF11CE4E0C6
:104AF0000D381E07E1F680919304909194040F976E
:104B000014F482E001C081E0809395040E94D607EE
:104B100090E8692E93E0792E812C912C8301332427
:104B20003394D8018C91882309F46CC030927F03B0
:104B3000F401E058FC4F85811196CD90DC901297DE
:104B4000C80ED11C87FDDA941296DC92CE92119792
:104B500086811396ED90FC901497E80EF11C87FD6A
:104B6000FA941496FC92EE921397C701B5010E9435
:104B700047364FEF460FC601B5010E9447366150D8
:104B80002AE033E084E597E00E94DE1F8091A104D3
:104B9000811126C03091A00480919F0421E0280F4C
:104BA000C60166EF7FEF0E944736822F860F843062
:104BB000B8F4C70166EF7FEF0E944736630F62309B
:104BC0007CF46F3F6CF08091A304811109C0309296
:104BD000A10440E060E073E08FED96E00E949B1F2F
:104BE000BDE1CB0ED11CE3E8CE16E3E0DE0640F4D7
:104BF000FDE1EF0EF11C2BECE21621E0F20610F0C5
:104C0000D8011C92095F1F4FB7E08B0E911CE5EF96
:104C10008E16910409F085CF1091A5041A30E8F49E
:104C20008091CD06815041E08E3F08F040E08091B8
:104C3000CB06815031E08E3F08F030E08091CC0609
:104C4000815021E08E3F08F020E08091CE06815017
:104C500001E08E3F70F100E02CC08091A00488310B
:104C600030F401E0843108F000E020E002C021E0EF
:104C700000E080919F048C3020F430E0883020F0F8
:104C800001C031E040E001C041E08850843018F4B8
:104C90008AE080939F041A3061F481E0288B3F877B
:104CA0004E870E94431282E00E9443124E853F8548
:104CB00028898091A1048111CFC1123308F05AC014
:104CC0008091A00490919F044423A1F0311124C04D
:104CD000002311F08D5F0AC0222351F0282F30E00D
:104CE0002330310514F0835001C080E08093A0048C
:104CF0009D5F0FC031110C94BB300EC021110C947C
:104D0000C130292F30E02330310514F40C94CD301C
:104D1000935090939F0410C0002311F08D5F0AC040
:104D2000222351F0282F30E02330310514F0835036
:104D300001C080E08093A00480919F04823018F429
:104D400082E080939F048091A004823018F482E076
:104D50008093A00480919F04823518F081E58093B0
:104D60009F048091A004883208F45CC087E280939D
:104D7000A00458C0812E912CB401092C000C880B82
:104D8000990B0E94BF3220E030E048E452E40E94D8
:104D90008C3420E030E04CE852E40E94FE346B0199
:104DA0007C0120E030E04AEA52E40E941E33A70171
:104DB00096010E941E3320E030E040E251E40E9460
:104DC0008D346B017C0120E030E048EC52E40E941D
:104DD000E53518162CF0C701B6010E94773501C0E1
:104DE00064E660939F046C3068F0183768F4209193
:104DF00095042F5F862F90E00B97B5010E944736F0
:104E0000620F0EC0183770F0163948F4C401885785
:104E100091096BEF7FEF0E9447366B5F01C060E046
:104E2000609395041091A3041431B0F185E180934F
:104E3000A004612F70E080E090E00E94BD3220E08D
:104E400030E040EF51E40E948C3420E030E040E755
:104E500051E40E94FE349B01AC010E941E3320E00D
:104E600030E040EF51E40E941E339B01AC0160E052
:104E700070E088EC91E40E948C340E947735609356
:104E80009F04143358F4E0E8F3E01082379624E0EE
:104E9000E537F207D1F702C0112329F01150109322
:104EA000A3041092A50410919F04F090A004009117
:104EB000A30400FF0DC08091A404833029F0109258
:104EC000A7041092A80442C080919E048111F7CFDC
:104ED0001250FA94FA94043138F48091A504803584
:104EE000C0F429EF32E00FC0802F90E04497877024
:104EF000992782309105ACF30497029710F00C9437
:104F0000D03022EF32E04F2D612F84E597E00E94F0
:104F1000DE1F8091A5048035B8F090E08770992756
:104F2000823091051CF429EF32E008C00497029703
:104F300018F422EF32E002C02BEE32E04F2D612F49
:104F400084E597E00E94DE1F0111B9CF8091A7048C
:104F50008E3171F48091CF0681508E3F48F480915C
:104F6000A5048A3028F485E08093A8041092A70451
:104F70008091A7048D3139F440E06FED72E08FED40
:104F800096E00E949B1F1091A804153021F0812FFC
:104F90008D7F813041F54FEF5FEF6BEF7FEF8DE25B
:104FA00090E00E947F0741E050E065E070E08DE214
:104FB00090E00E947F0740E050E060E070E087E30F
:104FC00090E00E947F074FEF5FEF60E070E082E3C8
:104FD00090E00E947F0741E050E060E070E082E3F3
:104FE00090E00E947F07112329F011501093A8042C
:104FF0001092A7048091CF0681508E3F38F48091A3
:10500000A204811103C0043108F4ADC78091A20449
:10501000882329F081508093A2041092A7048091E4
:10502000A204811107C08091A7048E3118F48F5F0C
:105030008093A7048091A7048A30A8F180918F04FF
:10504000853688F580919B0490919C0405969093F9
:105050009C0480939B0427C01092A7048091A40411
:10506000823078F09CE39093A30481508093A40451
:105070001092A1046091A00480919F040E94BB073C
:1050800012C0882341F06091A00480919F040E9487
:10509000BB071092A6041092A40481E00E94431260
:1050A00082E00E9443121091A404112331F08091F8
:1050B0007F03882309F491C099C08091A6048F5F73
:1050C0008093A6048A3098F31092630710926407C5
:1050D0000AE02CE24AE064E184E597E00E94432183
:1050E0000CE02CE24DE164E184E597E00E9443216D
:1050F00001E000936307009364076CE371E0CE0165
:1051000001960E943B1D86E180935D078AE08093B3
:105110005E0700935A07CE0101960E941B11CE0133
:1051200001960E94361D2091A60482ED90E0821B1C
:105130009109883C91054CF464E170E00E94473687
:10514000072E000C880B990B04C069E070E080E02A
:1051500090E001E02AE04CE30E943E0D66E471E03D
:10516000CE0101960E943B1D4DE164E1CE01019606
:105170000E94C60DCE0101960E94361D63E571E0C6
:10518000CE0101960E943B1D44E268E1CE010196EA
:105190000E94C60DCE0101960E94361D8091A60484
:1051A00064E10E943B369A3021F48FED96E00E9434
:1051B000D41F8091D006813029F486EE8093A60416
:1051C0000E9451178091D106813009F4E9C680917F
:1051D000CF06813009F4E4C66ACF80918F0485360A
:1051E00028F08091A5048F5F8093A50404E512E068
:1051F000812C912CD8018C918823D1F1F401EC5AA7
:10520000FD4F85811196CD90DC901297C80ED11C70
:1052100087FDDA941296DC92CE92119786811396CE
:10522000ED90FC901497E80EF11C87FDFA9414960B
:10523000FC92EE921397C701B5010E944736462FA4
:10524000C601B5010E94473623E084E597E00E943D
:105250002021BCE0CB16B3E0DB0644F4E9E0EE0E1F
:10526000F11CF9EEEF16F1E0FF0610F0D8011C92E8
:10527000095F1F4FB7E08B0E911CECE88E1691046E
:1052800009F0B8CF18E4C12E12E0D12E0BE4802E25
:1052900002E0902E8AE4E82E82E0F82E09E412E083
:1052A000D6018C91813009F03AC2F401F081FD877A
:1052B000F23009F492C108F09FC0FF2309F4CCC07A
:1052C000F13009F024C2D7017C9022242394270CCA
:1052D000F8016080422D662D84E597E00E9420074A
:1052E00033243A94360C422D632D84E597E00E94D6
:1052F000200744244394460C422D642D84E597E016
:105300000E94200722242A94270C422D662D84E532
:1053100097E00E942007422D632D84E597E00E94CC
:105320002007422D642D84E597E00E942007472D39
:10533000632D84E597E00E942007472D642D84E5C6
:1053400097E00E942007AEEF4A2E460C472D642DB1
:1053500084E597E00E9420076DEF660D472D84E5F8
:1053600097E00E942007B2E02B2E260C472D622DDD
:1053700084E597E00E94200763E0660D472D84E5F1
:1053800097E00E94200782E0582E570C452D662D8D
:1053900084E597E00E94200743E0470D662D84E5F1
:1053A00097E00E9420079EEF392E370C432D662D83
:1053B00084E597E00E9420074DEF470D662D84E5B8
:1053C00097E00E942007452D622D84E597E00E941A
:1053D0002007452D642D84E597E00E942007432D8A
:1053E000622D84E597E00E942007432D642D84E51B
:1053F00097E00E942007BBC02D85243009F452C0DD
:1054000008F4B5C0253009F082C1D7016C90F801CD
:105410007080462D672D84E597E00E942007A6E066
:105420004A2E460CB6E03B2E370C442D632D84E506
:1054300097E00E942007FAEF6F0E7F0E462D672D32
:1054400084E597E00E942007462D632D84E597E0D0
:105450000E942007442D56C1D7016C90F80170803E
:10546000462D672D84E597E00E94200741E0460D18
:10547000672D84E597E00E9420074FEF460D672DCA
:1054800084E597E00E94200761E0670D462D84E5E2
:1054900097E00E9420076FEF670D462D84E597E0A7
:1054A0000E942007D7017C9023E0322E370CF801B0
:1054B000608033E0232E260C432D622D84E597E097
:1054C0000E9420074DEF442E460C432D642D84E5A9
:1054D00097E00E9420075DEF352E370C432D622D9B
:1054E00084E597E00E942007432D642D84E597E032
:1054F0000E94200765E0362E370C75E0272E260C1B
:10550000432D622D84E597E00E942007EBEF4E2E9D
:10551000460C432D642D84E597E00E942007FBEFA5
:105520003F2E370C432D622D84E597E00E94200723
:10553000432D642D84E597E00E9420076CEF660DF3
:10554000472D84E597E00E94200764E0660D472D13
:1055500084E597E00E94200744E0470D662D84E52E
:1055600097E00E9420074CEF470D662DCCC0D70175
:105570006C90F80170806BEF670D462D84E597E025
:105580000E94200765E0670D462D84E597E00E94A4
:10559000200745E0460D672D84E597E00E9420072F
:1055A0004BEF460D672D84E597E00E942007E4E06D
:1055B0003E2E360CF4E04F2E470C432D642D84E52F
:1055C00097E00E942007FCEF7F0E432D672D84E5B6
:1055D00097E00E9420072CEF8DC0D7016C90222409
:1055E0002394260CF8017080422D672D84E597E006
:1055F0000E94200733243A94370C422D632D84E512
:1056000097E00E94200744244394470C422D642DC8
:1056100084E597E00E94200722242A94260C422D3C
:10562000672D84E597E00E942007422D632D84E5D5
:1056300097E00E942007422D642D84E597E00E94A8
:105640002007462D632D84E597E00E942007462D14
:10565000642D84E597E00E9420076EEF670D462DCC
:1056600084E597E00E9420076CEF670D462D84E5E6
:1056700097E00E94200762E0670D462D84E597E0E1
:105680000E94200764E0670D462D84E597E00E94A4
:10569000200742E0460D672D84E597E00E94200731
:1056A00044E0460D672D84E597E00E9420074EEF09
:1056B000460D672D84E597E00E9420074CEF460DCC
:1056C000672D84E597E00E94200763E0362E360CB4
:1056D00073E0472E470C432D642D84E597E00E942C
:1056E0002007FDEF7F0E432D672D84E597E00E9494
:1056F00020072DEF620E462D642D84E597E00E9471
:105700002007462D672D84E597E00E9420078D85B0
:105710008F5FD4018C93863010F0F6011082F4E094
:10572000CF0ED11C24E0820E911C44E0E40EF11C4B
:105730000C5F1F4F54E5C51652E0D50609F0B0CDF9
:10574000109263071092640706E024E54AE260E0E5
:1057500084E597E00E94432181E080936307809372
:105760006407809193049091940489970CF4BBC0D2
:105770002091A704220F245103E04CE260E184E56C
:1057800097E00E94432180919B0490919C0420917A
:105790007D0330917E03A9014E5C5F4F4817590786
:1057A00030F4235D3F4F30937E0320937D0320919F
:1057B0007D0330917E03275E3F4F2817390720F481
:1057C00030937E0320937D0320917D0330917E03EF
:1057D0002817390768F4821B930B8630910510F067
:1057E00085E090E0820F931F90937E0380937D036A
:1057F00060917D0370917E0380E090E006E02BE2F3
:105800004CE30E943E0D8BE280935E0788E080931C
:105810005D076091A40470E080E090E04AE00E949F
:105820002411E9EFF2E08491EAEFF2E0E491682ECE
:10583000712C630197E0C90ED11C43E0D594C79445
:105840004A95E1F720E0EE2EF12C57E2552E580E46
:10585000822F022E000C990B861597050CF05EC066
:10586000022F27FF02C007E0020F05950595059559
:10587000822F877887FF03C08150886F8F5F30E861
:10588000832E912C02C0959487948A95E2F7312C4F
:10589000002E000C110B0E5F1F4F452C421A832D5A
:1058A000032C000C990B8E159F05DCF48C9DF001E8
:1058B0008D9DF00D9C9DF00D1124E00FF11FE75020
:1058C000FD4FE491F0E0E821F9213394EF2B39F317
:1058D000442D632D84E597E0288B0E9420072889BA
:1058E000DECF2F5FB5CF6EE571E0CE0101960E944D
:1058F0003B1D4BE261E0CE0101960E94C60DCE0138
:1059000001960E94361D6091990470919A0480E07E
:1059100090E006E02BE24CE30E943E0D8091930460
:105920009091940401969093940480939304209111
:10593000910430919204245131098217930794F114
:105940008091A404882371F180919004811105C095
:1059500090918F049230E0F425C0813029F4909129
:105960008F049731A8F41EC0823029F490918F04DF
:10597000903370F417C0833029F490918F049634DB
:1059800038F410C0843071F490918F04903650F048
:105990008F5F8093900488E280938E0480918F04BF
:1059A00080938D0400918E04002309F49DC0015062
:1059B00000938E048091900410E0853008F04DC073
:1059C00069E671E0CE0107960E943B1D48E250E077
:1059D000401B510B57FF02C04F5F5F4F55954795D6
:1059E000BE01695F7F4FCE0101960E944E19BE0134
:1059F0006F5F7F4FCE0107960E948C1CCE010196EF
:105A00000E94361D1A8219821C821B821E821D82F0
:105A1000BE01695F7F4FCE0101960E941F1D40E0CD
:105A200060E3CE0101960E94C60DCE0101960E9450
:105A3000361D80918E048C3150F46091900470E09A
:105A400080E090E001E020E048E40E943E0D80917B
:105A50008E04873108F444C03DC063E771E0CE0195
:105A600007960E943B1D48E250E0401B510B57FF38
:105A700002C04F5F5F4F55954795BE01695F7F4FED
:105A8000CE0101960E944E19BE016F5F7F4FCE017D
:105A900007960E948C1CCE0101960E94361D1A8228
:105AA00019821C821B821E821D82BE01695F7F4F8C
:105AB000CE0101960E941F1D40E068E2CE010196D2
:105AC0000E94C60DCE0101960E94361D80918E0463
:105AD000833130F080FD04C08FED96E00E94D41F2A
