:100000000C9436030C945E030C945E030C945E0314
:100010000C945E030C945E030C945E030C945E03DC
:100020000C945E030C945E030C94DA060C944C075B
:100030000C945E030C945E030C945E030C945E03BC
:100040000C945E030C94720B0C945E030C945E0390
:100050000C945E030C945E030C945E030C94EE0A05
:100060000C945E030C945E030C945E030C945E038C
:100070000C945E030C945E030C945E030C945E037C
:100080000C945E030C945E030C945E030C945E036C
:100090000C945E030C945E030C945E030C945E035C
:1000A0000C945E030C945E030C945E035217581775
:1000B0005E176A177617CB17CB17CB1782178E17D9
:1000C0009A17A617B417CB17BD17FE09010AF00936
:1000D000F409FA09220A220A220A050A090A0D0A63
:1000E000130A170A220A1D0A084AD73B3BCE016EA3
:1000F00084BCBFFDC12F3D6C74319ABD56833DDA7F
:100100003D00C77F11BED9E4BB4C3E916BAAAABE8D
:10011000000000803F05A84CCDB2D44EB93836A9B6
:10012000020C50B9918688083CA6AAAA2ABE0000F3
:1001300000803F000101FF030101F7033801340192
:1001400000000000240027002A002D003000D5F018
:100150008D14A1C881CFD9F1AF2000000000002587
:100160000028002B002E00310003053F213F12081C
:10017000120A100A0E1C0E0C1E0C141A14161F164E
:100180001E131E1E1B1E1E1F1E3F213F3A2F3A1715
:100190003D173F213F181F02040A041F0E04040EDE
:1001A0001F0A1F0A0E0E1F04110E2E252E2F2A2E97
:1001B000262929021F02081F08150E04040E150E19
:1001C00015151B151B040604040C04000000001781
:1001D000000300031F0A1F16371A1904130A153AE1
:1001E000000300000E11110E000A040A040E0400A0
:1001F00030000404040010001804031F111F121F14
:10020000101D151711151F07041F17151D1F151D8C
:1002100001011F1F151F17151F000A0000320004DF
:100220000A110A0A0A110A040115020E11171E0505
:100230001E1F150A0E110A1F110E1F15111F050191
:100240000E111D1F041F111F1108100F1F041B1F6B
:1002500010101F061F1E040F0E110E1F09060E118F
:100260002E1F051A121509011F011F101F0F180F4D
:100270001F0C1F1B041B031C03191513001F110364
:100280000418111F000201022020200001020C129C
:100290001E1F120C0C12120C121F0C1A14041E0535
:1002A000242A1E1F021C141D1020201D1F081411BB
:1002B0001F101E041E1E021C0C120C3E0A040C12FF
:1002C0003E1E040214160A020F120E101E0E100E0D
:1002D0001E081E120C1226281E322A26041E210079
:1002E0001F00211E040102013F213F050089300843
:1002F00002380249786814000020004849474853F2
:10030000434F5245530050524553532015000500AA
:100310006801380100001773617665001662616339
:100320006B001574797065000A0A0A153A6F6B61E3
:100330007920163A6564697400596F7520656E748A
:10034000657265640A004E45572048494748534343
:100350004F524500505245535320150054484520F4
:10036000454E4400080800000000646E7FFF424FC5
:100370004E555320504F494E545300080B00020273
:10038000020100090400000102020000052400101F
:1003900001052401010104240206052406000107C9
:1003A00005810310004009040100020A0000000753
:1003B0000502024000000705830240000004030913
:1003C0000412010002EF02014041233680000101C6
:1003D00002030141726475696E6F204C4C43004109
:1003E000726475696E6F204C656F6E6172646F0028
:1003F0004024FFF0000000000FFFFC0FFFFFFFFF95
:10040000F03FE3FFFFFFFFFFFFC79FFFFFFFFFFF7F
:10041000FFF9779EEEF9C279F7BA77AE4EF6DEBAFB
:10042000EB9A6B8E4D77C6DB5DAA63AEAC74DEDBF8
:100430005DB26BA6ED76DEBAEBBA49B6E939C279A0
:10044000F7BABFFFFFFFFFFFFFFDDFFFE0FFFF0782
:10045000FFFBE3FE1F1FF8F87FC7F8E1FFEFF7FF90
:10046000871FFE0FFFF7EFFFF07FFFFFFFF7EFFFA4
:10047000FFFFFFFFFFFBDFFFFFFFFFFFFFFBDFFFD4
:10048000FFFFFFFFFE03C07FFFFFFFFFE1FBDF87F2
:10049000FFFFFFFFDFF3CFFBFFFFFFFFDFF3CFFB2C
:1004A000FFFFFFFFDFF3CFFBFFFFFFFFE1F3CF878E
:1004B000FFFFFFFFFE17E87FFFFFFFFFFFE007FFE3
:1004C000FFFFFFFFFFF7EFFFFFFFFFFFFFE7E7FF84
:1004D000FFFFFFFFFFE7E7FFFFFFFFFFFFEFF7FF74
:1004E000FFFFFFFFFFEFF7FFFFFFFFFFFFEFF7FF4C
:1004F000FFFFFFFFFFDFFBFFFFFFFFFFFFBFFDFF72
:10050000FFFFFFFFFE7FFE7FFFFFFFFFFDFFFFBF3F
:10051000FFFF00175344001613780016131400153C
:1005200010200015201000540A03E181867F3E1838
:100530006D830F0F0E0183866033186DC3198F18FA
:1005400003C38E6033186DE330CF1803C39E60364B
:1005500030CDE360CF3006C79E7E3E30CDB360CF56
:10056000300CC6F6603330D9B660CF33CFCCF660EE
:1005700061B0DB1E60CF30D86CE6C061B0DB1E61BD
:100580008F19986CC6C063B19B0E330F0FB078C63D
:10059000FF7E1F1B061E0F08080000000000002041
:1005A0006208080000000000665A81080818181840
:1005B000242442428105003801680100004500689A
:1005C000010000F6E8DBCFC3B8AEA49B928A827B21
:1005D000746E68625C57524E4945413E3A37343139
:1005E0002E2C29272523211F1D1C1A191716151417
:1005F000131211100F0E0D0C0B0A0908070600004C
:1006000000002300260029002C002F00040404040D
:1006100004030405020202020403020202020606A7
:10062000060606060404020202040404080201107D
:10063000408040102040804080080204018040201B
:10064000100201108010204040200000000200092C
:100650000F0000030401000C000000000000000077
:1006600000000000000000000000BF2211241FBE97
:10067000CFEFDAE0DEBFCDBF12E0A0E0B1E0E2E311
:10068000FFE402C005900D92A63CB107D9F726E021
:10069000A6ECB2E001C01D92AC30B207E1F713E066
:1006A000C6E3D3E004C02197FE010E947127C53341
:1006B000D107C9F70E9487150C9497270C94000066
:1006C000FC0180912B03811103C08FEF9FEF0895F0
:1006D0009FB7F89482E08093E9002091F20030E027
:1006E0001216130614F421E030E02115310559F0FB
:1006F000289884E680932A038091F100808380917A
:10070000F200882319F09FBFC90108958BE68093FA
:10071000E800F9CF2FB7F89483E08093E900909137
:10072000E800892F807295FF04C09091F20080E468
:10073000891B2FBF08958091310381110DC082E084
:1007400080932D0384E080932E0310923003109247
:100750002F0381E0809331038DE293E00895CF93DE
:10076000DF931F92CDB7DEB76983DC01ED91FC9179
:100770000280F381E02D41E050E0BE016F5F7F4FCA
:1007800009950F90DF91CF91089583E08093E90060
:100790008091F200882319F08AE38093E80008959D
:1007A0000E948A0390E00895CF93DF931F92CDB704
:1007B000DEB7FC018485958597FD05C02FEF3FEFDF
:1007C000358724870BC0CE0101960E9460030197F4
:1007D00019F4898190E002C08FEF9FEF0F90DF91B5
:1007E000CF9108950F931F93CF93DF931F92CDB7AF
:1007F000DEB78C01FC018485958597FF0EC0CE0184
:1008000001960E946003019719F4298130E002C02B
:100810002FEF3FEFF80135872487F8018485958510
:100820000F90DF91CF911F910F910895FC01848566
:10083000958597FD0BC09FB7F89482E08093E900FF
:100840008091F2009FBF90E0019608959FB7F894C1
:1008500082E08093E9008091F2009FBF90E00895CC
:100860008F929F92AF92BF92CF92DF92EF92FF92C0
:100870000F931F93CF93DF935C016B017A018091FB
:100880007A02882309F45BC080912B03882309F442
:1008900056C08091290380FF05C08091E0008260EE
:1008A0008093E000E70110E00AEF83E0882E9AE3EE
:1008B000992E2097D9F10E948A0381110AC0015014
:1008C00009F43DC061E070E080E090E00E94B40A6D
:1008D000F0CF282F30E0C217D3070CF48C2F4FB77E
:1008E000F8948092E9009091E80095FF1DC0282FB0
:1008F00030E0C21BD30BF601982F915020F081916C
:100900008093F100FACFC20ED31E112319F09092FA
:10091000E80009C08091E80085FD06C09092E800DB
:1009200011E0209709F010E04FBFC3CF1111C3CFE2
:100930005D9884E680932C031E141F0444F081E02C
:1009400090E0F5019383828380E090E001C0C701CD
:10095000DF91CF911F910F91FF90EF90DF90CF909B
:10096000BF90AF909F908F900895CF92DF92EF92BB
:10097000FF920F931F93CF93DF931F92CDB7DEB7F4
:10098000182F062FE42E862F880F8E5F99830E94E2
:100990004C1583E00E944C15F12EC12E9981D92E61
:1009A0008C2D8F19801798F4F601E7FE02C0849110
:1009B00001C080810E944C15182F80E00E944C15C8
:1009C0008123FFEFCF1ADF0A8111EACF01C081E056
:1009D0000F90DF91CF911F910F91FF90EF90DF90DB
:1009E000CF900895DF92EF92FF920F931F93CF93D2
:1009F000DF93D82E8A017B01E40EF51EEB01CE15A4
:100A0000DF0571F0D7FE03C0FE01849101C088812B
:100A10000E944C1521968111F2CF8FEF9FEF01C0FC
:100A2000C801DF91CF911F910F91FF90EF90DF9060
:100A300008950F931F93CF93DF931F92CDB7DEB727
:100A400082E0898342E450E06BE773E080E80E9433
:100A5000F2040E949B03DC0112960D911C911397E6
:100A60000115110569F0D801ED91FC910280F38127
:100A7000E02DBE016F5F7F4FC801099597FF07C04A
:100A800089810F90DF91CF911F910F910895F80107
:100A900000851185E5CFCF92DF92EF92FF920F9301
:100AA0001F93CF93DF931092580581E080939405B4
:100AB000109293051092920580939D0580939E0558
:100AC000C2E1D5E01CE00E943D128823E1F3FE0163
:100AD0008491882319F00091960501C000E027E277
:100AE00035E040E060E08EE895E00E94040C4CE0C8
:100AF000400F20EF33E060E08EE895E00E94040CA8
:100B0000109297051093980562E175E08EE895E0E4
:100B10000E94AD0980919505982F990F890F8195B5
:100B20008D5A8093970580919605982F990F890F7C
:100B30008195835D809398058091A50584FF03C00E
:100B400083E295E002C08FE195E00E94321580912A
:100B50009505982F990F890F81958D5A8093970548
:100B6000809198058F5F8093980580916A0588230E
:100B700019F08BE195E002C087E195E00E94321503
:100B800080919505982F990F890F81958D5A8093A3
:100B90009705809198058F5F8093980583E195E094
:100BA0000E94321580915605813089F480916A0542
:100BB0008F5F082E000C990B60916B0570E06F5FE2
:100BC0007F4F0E945D2780936A050E9445158091A2
:100BD00055058130B9F08091B305482F50E060E0B1
:100BE00070E0C090A505D090A605E090A705F09014
:100BF000A805C416D506E606F70608F464CF8F3FAD
:100C000009F461CF8FEF8093B30560E085E695E04E
:100C10000E94B80B1092660585E695E00E94FF0BD6
:100C200081E080935805DF91CF911F910F91FF9044
:100C3000EF90DF90CF9008958F929F92AF92BF92E6
:100C40000F931F93CF93DF93CDB7DEB7A1970FB666
:100C5000F894DEBF0FBECDBF19A2423008F44AE0BF
:100C60008E010F5D1F4F842E912CA12CB12CA5015C
:100C700094010E948223E62FB901CA010150110993
:100C8000EA3014F4E05D01C0E95CD801EC93232B59
:100C9000242B252B61F7B8018EE895E00E94D1093D
:100CA000A1960FB6F894DEBF0FBECDBFDF91CF91F6
:100CB0001F910F91BF90AF909F908F9008954AE041
:100CC00060E070E0CB010C941C06CF92DF92EF92B3
:100CD000FF920F931F93CF93DF93C82FD62F142F1C
:100CE000422F022E000C550B461B510967FD5395F0
:100CF00057FF03C0519541955109812F012E000CDA
:100D0000990B8C1B9109C7FD939597FF03C0919593
:100D100081959109DD24D3948417950714F0D12C83
:100D200006C0812F122F282F8C2FCD2FD82F1C17C4
:100D300034F48D2FD22F282F8C2FC12F182FE12E76
:100D4000EC1A822F022E000C990B8D1B9109D7FDF6
:100D5000939597FF03C0919581959109F82E0E2DDB
:100D6000E7FE02C001E00E0D0595D2171CF0CC2461
:100D7000CA9411C0CC24C3940EC0DD2079F04C2F4E
:100D80006D2F8EE895E00E94460D0F1907FF02C0F7
:100D9000DC0D0E0DCF5F1C1784F703C04D2F6C2F99
:100DA000F0CFDF91CF911F910F91FF90EF90DF90E7
:100DB000CF9008951F920F920FB60F9211248F9328
:100DC0009F938091E1009091E100937F9093E100E7
:100DD00083FF0FC01092E90091E09093EB00109216
:100DE000EC0092E39093ED0010922B0398E0909327
:100DF000F00082FF20C093E09093E9009091F20010
:100E0000992319F09AE39093E80090912C03992389
:100E100039F090912C03915090932C03992389F1F0
:100E200090912A03992339F090912A03915090933D
:100E30002A03992341F184FF10C08091E2008E7E45
:100E400081608093E2008091E1008F7E8093E100D9
:100E5000809129038E7E806111C080FF16C0809131
:100E6000E2008E7E80618093E2008091E1008E7EC0
:100E70008093E100809129038E7E81608093290315
:100E800004C05D9ACDCF289AD6CF9F918F910F90B5
:100E90000FBE0F901F9018951F920F920FB60F92D2
:100EA0001124CF92DF92EF92FF920F931F932F9313
:100EB0003F934F935F936F937F938F939F93AF93E2
:100EC000BF93EF93FF93CF93DF93CDB7DEB76C97CC
:100ED000DEBFCDBF1092E9008091E80083FFEDC135
:100EE00068E0CE0145960E947A1582EF8093E80073
:100EF0008D8987FF05C09091E80090FFFCCF03C06B
:100F00009EEF9093E800982F907609F0C6C09E89D6
:100F10002F89188D91110CC0803829F480912803F5
:100F20008093F10002C01092F1001092F10048C1CC
:100F3000422F50E0512B913051F4811141C1413089
:100F4000510509F03DC1809128038D7F0BC093307E
:100F500061F4811135C14130510509F031C18091F1
:100F600028038260809328032BC1953041F480913F
:100F7000E80080FFFCCF20682093E30021C1963079
:100F800009F05FC0EB8CFC8C1092E90010922603F4
:100F900010922503123091F510922403109223032E
:100FA0000E94190599E0BE016F5F7F4FDB01E92FB9
:100FB0001D92EA95E9F799831A8391E09E8390EA5E
:100FC00098879AEF99872091250330912603275F10
:100FD0003F4F3C832B838D831092E90010922603B0
:100FE00010922503F0922403E092230349E050E09D
:100FF00080E00E94F2040E941905E2C0F0922403EE
:10100000E09223030E949B03DC011296ED90FC907A
:101010001397E114F10409F4C0C0D701ED91FC91DC
:101020000480F581E02DBE016B5E7F4FC7010995FD
:10103000009719F00CF0C4C0C7C0F701E084F18438
:10104000E8CF973009F4C0C0983021F481E0809354
:10105000F100B6C0993009F0B3C0837009F0B4C094
:10106000E1E8F2E081E021E036E39081992361F04C
:101070008093E9002093EB0091919093EC003093E2
:10108000ED008F5F873089F78EE78093EA0010923A
:10109000EA008F8980932B0393C08B8D9C8D1092D7
:1010A000E900109226031092250390932403809365
:1010B0002303898D811156C08E899D89913A59F4F7
:1010C000813209F081C047E050E063E772E080E0E0
:1010D0000E94F20475C0913209F076C0833289F41F
:1010E000888D90E0982F88272F89822BA0E0B0E090
:1010F00080936F0290937002A0937102B09372027A
:101100005FC0803269F48091E80082FFFCCF67E025
:1011100083E792E00E947A158BEF8093E80006C087
:10112000823209F04DC08F8980937A028091270323
:10113000882319F0EEEFFAE002C0E0E0F8E08091D9
:10114000730290917402A0917502B0917602803B77
:101150009440A105B10509F07BC080917A0280FF1F
:1011600093C076C00E949B03DC0112960D911C91E6
:1011700013970115110541F1D801ED91FC910190F2
:10118000F081E02DBE016B5E7F4FC8010995811192
:1011900017C0F80100851185ECCF113009F44EC05D
:1011A000133091F48F89882309F445C0823081F48B
:1011B00040E860E18FED93E00E94B504882321F0C0
:1011C0008EEF8093E80079C081E28093EB0075C0D8
:1011D000813029F440E86BE083ED93E0EDCF83307C
:1011E00099F70E949B03DC011296ED90FC901397F7
:1011F0008E010F5F1F4F6801E114F10479F0D701F0
:10120000ED91FC910680F781E02DB801C7010995A9
:10121000080F111DF701E084F184EECFD8011C9274
:10122000F60101900020E9F73197BF016C197D09A3
:1012300040E0C601C1CF6DEB73E002C061EC73E02A
:101240006115710509F2FB01449150E080E840CF3F
:101250000FB6F894A8958091600088618093600033
:10126000109260000FBEA895EE3F2AE0F20739F019
:101270008091FE0A9091FF0A91838083A1CF109202
:10128000FF0A1092FE0A9CCFEE3F8AE0F80731F089
:10129000808191819093FF0A8093FE0A87E797E708
:1012A000918380839BE088E10FB6F894A8958093A2
:1012B00060000FBE9093600083CF6C960FB6F894D9
:1012C000DEBF0FBECDBFDF91CF91FF91EF91BF91F8
:1012D000AF919F918F917F916F915F914F913F91CE
:1012E0002F911F910F91FF90EF90DF90CF900F9073
:1012F0000FBE0F901F901895CF92DF92EF92FF9242
:101300000F931F93CF93DF936C017A018B01C0E0A1
:10131000D0E0CE15DF0589F0D8016D918D01D601A1
:10132000ED91FC910190F081E02DC6010995892B8A
:1013300011F47E0102C02196ECCFC701DF91CF915D
:101340001F910F91FF90EF90DF90CF900895089537
:1013500080E090E008950E948B27EF92FF920F9318
:101360001F93CF93DF938C017B01C0E0D0E0F701A6
:10137000EC0FFD1F6491662361F0D801ED91FC91A3
:101380000190F081E02DC8010995892B11F021967B
:10139000EECFCE01DF91CF911F910F91FF90EF9093
:1013A00008956115710579F0FB0101900020E9F7BE
:1013B0003197AF01461B570BDC01ED91FC91028088
:1013C000F381E02D099480E090E0089590E0FC0125
:1013D0003197EF30F105B0F5EB59FF4F0C947127C1
:1013E000809180008F7703C0809180008F7D8093F3
:1013F0008000089580918000877FF9CF84B58F7732
:1014000002C084B58F7D84BD0895809190008F7750
:1014100007C0809190008F7D03C080919000877FEE
:101420008093900008958091C0008F7703C08091D1
:10143000C0008F7D8093C00008958091C200877F97
:101440008093C20008951F93CF93DF93282F30E03D
:10145000F901E65BF94F8491F901E55DF94FD4910B
:10146000F901E45FF94FC491CC23C9F0162F811123
:101470000E94E609EC2FF0E0EE0FFF1FE55AFE4F49
:10148000A591B4918FB7F894111105C09C91ED2FDF
:10149000E095E92302C0EC91ED2BEC938FBFDF9137
:1014A000CF911F910895CF93DF9390E0FC01E55D0C
:1014B000F94F2491FC01E45FF94F8491882361F195
:1014C00090E0880F991FFC01E05CFE4FC591D4911C
:1014D000FC01E55AFE4FA591B491611109C09FB777
:1014E000F8948881209582238883EC912E230BC069
:1014F000623061F49FB7F8943881822F80958323FE
:101500008883EC912E2B2C939FBF06C08FB7F89445
:10151000E8812E2B28838FBFDF91CF9108953FB7AD
:10152000F89480913B0390913C03A0913D03B091CE
:101530003E0326B5A89B05C02F3F19F00196A11DBB
:10154000B11D3FBFBA2FA92F982F8827820F911D59
:10155000A11DB11DBC01CD0142E0660F771F881FA0
:10156000991F4A95D1F708958F929F92AF92BF929B
:10157000CF92DF92EF92FF926B017C010E948F0A63
:101580004B015C01C114D104E104F104F1F00E94AB
:101590008F0ADC01CB0188199909AA09BB09883E89
:1015A0009340A105B10570F321E0C21AD108E1080A
:1015B000F10888EE880E83E0981EA11CB11CC114AE
:1015C000D104E104F10419F7DDCFFF90EF90DF9033
:1015D000CF90BF90AF909F908F9008951F920F92E1
:1015E0000FB60F9211242F933F938F939F93AF9336
:1015F000BF9380913C0590913D05A0913E05B0912F
:101600003F0530913A0323E0230F2D3720F4019654
:10161000A11DB11D05C026E8230F0296A11DB11D15
:1016200020933A0380933C0590933D05A0933E059B
:10163000B0933F0580913B0390913C03A0913D0303
:10164000B0913E030196A11DB11D80933B03909381
:101650003C03A0933D03B0933E03BF91AF919F9194
:101660008F913F912F910F900FBE0F901F90189563
:1016700050E0DA01AA0FBB1FA80FB91F1F963C91BB
:101680001F9750962C915097E32FF22FE60FF11DE4
:10169000E60FF11D6591749190967C936E935F9720
:1016A000FB0125913491FC013481329F202D1124BE
:1016B000DC01A40FB51F91962C939197FB018591A6
:1016C0009491E92FF0E0822F90E0E817F90720F4D9
:1016D000FB0185919491292F239F202D112492960F
:1016E0002C9308951F920F920FB60F9211242F93EF
:1016F0006F937F938F939F9360914103662371F162
:10170000809139038F5F8093390390914203891749
:1017100028F120913F0381E0282720933F03109276
:10172000390380914303882369F080917B0293E41D
:10173000899F802D1124895B80937B020E94512711
:1017400090934003222341F08091400390E09093D6
:1017500099008093980002C080E0F8CF9F918F910C
:101760007F916F912F910F900FBE0F901F90189542
:10177000FC0161110FC0178A158A14A213A2108EE2
:10178000109240031092410310923F03109299006F
:10179000109298000895EF92FF920F931F93CF93AA
:1017A000DF931F92CDB7DEB77C018B01411105C0DD
:1017B00060E049830E94B80B498150E0FA01EE0FC6
:1017C000FF1FEE0DFF1D16870587DA011996AA0F78
:1017D000BB1FAE0DBF1D1D921C92F701E40FF51F3C
:1017E00081E0818389E0868B118E138E158E0F9098
:1017F000DF91CF911F910F91FF90EF90089540E0FE
:1018000065EB75E00C94CB0B4F925F926F927F92D9
:101810008F929F92AF92BF92CF92DF92EF92FF9200
:101820000F931F93CF93DF93F901C4903196549196
:10183000EC010F8564350CF018C140330CF015C174
:101840000C2C000CDD08A62F062E000CBB0B7D0116
:10185000EC0CFD1C1E141F040CF007C1A52E842ED9
:10186000042E000C9908F401E50FF11D57FDFA95BF
:101870001E161F060CF0F9C02E5F3F4FE60127969B
:10188000D7FD279673E0D595C7957A95E1F747FF81
:101890000AC0A52EA40EC89DA001C99D500D1124FB
:1018A000241B350B40E0EA2D0A2C000CFF0BE40F43
:1018B000F11D47FDFA95F1971CF050E3A52EA41AEF
:1018C00067FD60E0F701E535F10514F0E4E5F0E0CF
:1018D0007E2FFC01D484D426862F062E000C990B73
:1018E000FC01EA1BFB0BDF017F01F7E0EF22FF2485
:1018F000E0E8F0E002C0F595E795EA94E2F71E2FE4
:10190000B7FD179653E0B595A7955A95E1F72A0FBD
:101910003B1FE42FE77051E001C0550FEA95EAF74D
:10192000459545954595B4E54B02800D911D1124D3
:101930008C5B9C4FC12C0A2C000CBB0899249394FF
:101940002E015524EC2DF0E0EA15FB050CF08DC0BE
:10195000F90144910130E1F47C01A12F862E881A0F
:10196000B82DBE0DB71708F077C0B42FBA2321F0F9
:10197000E701B881B52BB883B0E0B595A79510976E
:1019800019F431964491A0E8DFEFED1AFD0AE8CF93
:1019900001111FC0752E70947C01A12FF901862EB4
:1019A000881AB82DBE0DB71708F056C0B42FBA2349
:1019B00021F0E701B881B721B883B0E0B595A795CC
:1019C000109719F431964491A0E8DFEFED1AFD0A63
:1019D000E8CF033031F07C01A12FF901862E881A5F
:1019E00037C0752E7094862E7C01A12FF9018716C1
:1019F000D8F4B42FBA2359F0E701B881682C6D24CC
:101A000060FE02C0B52B02C0B721E701B883B0E089
:101A1000B595A795109719F431964491A0E8839451
:101A2000DFEFED1AFD0AE3CFD92416C0B42FBA2395
:101A300021F0E701B881B527B883B0E0B595A79547
:101A4000109719F431964491A0E8DFEFED1AFD0AE2
:101A5000B82DBE0DB71750F3550F19F48C5A9F4F80
:101A600051E0C394240D351D6DCFDF91CF911F91AF
:101A70000F91FF90EF90DF90CF90BF90AF909F902D
:101A80008F907F906F905F904F900895FC01643528
:101A900008F053C0403308F050C09785742F7595F7
:101AA00075957595262F062E000C330B542F577005
:101AB0009230A1F4F901EC5BFC4F84E57802E00D73
:101AC000F11D1124808190E0052E02C09595879527
:101AD0000A94E2F78095982F91700AC0933041F4F0
:101AE00084858170462740954170841303C014C0DB
:101AF000911112C084E57802200D311D1124F901E5
:101B0000EC5BFC4F81E090E001C0880F5A95EAF74A
:101B100080959081892310C084E57802200D311DC5
:101B20001124F901EC5BFC4F81E090E001C0880FCB
:101B30005A95EAF79081892B80830895DF92EF927E
:101B4000FF920F931F93CF93DF931F92CDB7DEB712
:101B50008C01D62EF42EE12CE21654F46E2D6D0D70
:101B60004F2DC80129830E94460DE3942981F4CFAB
:101B70000F90DF91CF911F910F91FF90EF90DF9029
:101B800008952F923F924F925F926F927F928F9221
:101B90009F92AF92BF92CF92DF92EF92FF920F93FC
:101BA0001F93CF93DF93EC013F8464350CF09FC00B
:101BB00040330CF09CC0EF81F0E031970E9FC001E4
:101BC0000F9F900D1124860F911D67FD9A95181691
:101BD00019060CF08CC0E885E09FF0011124E40F99
:101BE000F11D47FDFA951E161F060CF080C0E42E6D
:101BF000F62E462EC62EA22EB12C802E002E000CC4
:101C00009908EC2DEF190E2E000CFF0B8F8190E040
:101C1000E817F9070CF06AC00197E817F90779F09F
:101C2000A89E9001A99E300DB89E300D1124E20FA0
:101C3000F31F8D859E85E80FF91F149101C010E0F8
:101C4000DE2C5E2C252D2E19022E000C330B8885E0
:101C500090E0281739070CF046C010FF1DC0013076
:101C600031F4452D6C2DCE010E94460D38C02D2C2F
:101C700034016D0C711CD7FC7A94822D022C000C5F
:101C8000990B861597055CF5202F422D642DCE010A
:101C90000E949E0D2394F1CF88899F858917F9F0C2
:101CA0008F87013031F4452D6C2DCE010E94460DF9
:101CB00015C02D2C34016D0C711CD7FC7A94822D2B
:101CC000022C000C990B8615970544F4202F422D09
:101CD000642DCE010E949E0D2394F1CF3F86169570
:101CE0005394D00EAFCFC394400E8BCF3F86DF917D
:101CF000CF911F910F91FF90EF90DF90CF90BF9009
:101D0000AF909F908F907F906F905F904F903F909B
:101D10002F9008950F93CF93DF93EC016A3019F45D
:101D200028859E811FC06D3019F1262F0E814A85AE
:101D300069850E94C10D2E813F818985329F800D6A
:101D4000112489879D81992399F0082E000C990B05
:101D500044E550E0239F40195109112448175907C1
:101D60003CF498858A85299F800D11248A871986DD
:101D700081E090E0DF91CF910F910895DF92EF9293
:101D8000FF920F931F93CF93DF931F92CDB7DEB7D0
:101D90008C01D62EF42EE12CE21654F44E2D4F0D6C
:101DA0006D2DC80129830E94460DE3942981F4CF4B
:101DB0000F90DF91CF911F910F91FF90EF90DF90E7
:101DC00008958EBD00000DB407FEFDCF8EB50895B9
:101DD0000F931F93CF93DF9300E415E0C5E0F80164
:101DE000C3AF10927E0510927F05C89FC0011124D9
:101DF000EC01C957DD4F9C818B8121A5829F802DED
:101E00001124809380059093810540E0688185E6E8
:101E100095E00E94380B8A819981F80191AF91A5D4
:101E2000899F802D112482AF10928A051092890516
:101E30001092880581E084AF80933F0310927D0566
:101E4000DF91CF911F910F9108951F93CF93DF934F
:101E5000809167028823A9F010E0DFE2C9E1809158
:101E60000401181770F44D2F6C2F8EE895E00E9436
:101E7000460DC0FF03C0CF5F1F5FF1CFC150D150EF
:101E8000FBCF80916A028823A9F010E0DFE2C7E36C
:101E900080910501181770F44D2F6C2F8EE895E096
:101EA0000E94460DC0FF03C0CF5F1F5FF1CFC1503E
:101EB000D150FBCFDF91CF911F9108950F931F93C6
:101EC000CF93DF9305E612E0C2E0D0E0F801808115
:101ED000D23011F0D53041F4882319F02BEA35E0E7
:101EE0000AC021EA35E007C0882319F024E633E070
:101EF00002C027E935E048E26C2F8EE895E00E94A9
:101F0000040CDF5FC65F0F5F1F4FD830F9F6DF911B
:101F1000CF911F910F9108958EE1809397051092B4
:101F200098058091C7029091C802A091C902B09112
:101F3000CA02803A9648A140B10510F40E945F069B
:101F40008091C7029091C802A091C902B091CA02C3
:101F500080319742A105B10510F40E945F0680917F
:101F6000C7029091C802A091C902B091CA02883EEE
:101F70009340A105B10510F40E945F068091C7024D
:101F80009091C802A091C902B091CA02843691050D
:101F9000A105B10510F40E945F068091C7029091DF
:101FA000C802A091C902B091CA020A97A105B10561
:101FB00010F40E945F066091C7027091C802809180
:101FC000C9029091CA024AE00C941C06CF93DF9399
:101FD0008091C60261E0680F6093C602A5E6B2E098
:101FE000EBECF2E098E09E0F21912D939E13FCCF35
:101FF00091E09093670290936A029AE090930401B3
:1020000090930501CEE1D2E0A2E3B2E0EAE5F2E08E
:1020100094E62AE02E0F98839C939193229614962F
:102020002E13F9CF6B3010F4855F01C084E18093EB
:102030006402633190F470E080E090E00E944225F9
:102040002DEC3CEC4CEC5DE30E9465262DEC3CEC69
:102050004CE45EE30E94B42304C060E070E080E0E2
:1020600090E46093000170930101809302019093CA
:102070000301DF91CF910895CF93DF93482F50E074
:10208000EA01C05CDA4F9DA19923A1F19EA19111B3
:1020900031C09EA5FA01EE0FFF1FE95BFA4F35A193
:1020A00026A1E32FF22FE90FF11DE90FF11D259174
:1020B00034912F3F9FEF390711F41DA21BC039AB9C
:1020C000440F551FFA01E65BFA4F3327220F331FE7
:1020D00005A0F6A1E02DE20FF31F65917491811127
:1020E00005C040E085E695E00E94CB0B29968DA1C6
:1020F0008F5F8DA3DF91CF910895AF92BF92CF9262
:10210000DF92EF92FF920F931F93CF93DF93182FDD
:10211000062FC1E0D3E08AEFD82E9EEFE92E842F60
:102120008470C82E842F8270B82E842F8870A82EB9
:102130004170F42E8C2F880F8F5FE80ECC2081F039
:102140004D2F400F6C2F610F8EE895E00E94460DD9
:102150004C2F400F6D2F610F8EE895E00E94460DC9
:10216000BB2081F0402F4D1B6C2F610F8EE895E056
:102170000E94460D402F4C1B6D2F610F8EE895E09D
:102180000E94460DAA2081F04C2F400F612F6D1B3D
:102190008EE895E00E94460D4D2F400F612F6C1B7D
:1021A0008EE895E00E94460DFF2081F0402F4C1BE9
:1021B000612F6D1B8EE895E00E94460D402F4D1B50
:1021C000612F6C1B8EE895E00E94460DCD1744F4FC
:1021D000E7FC04C0D150D394D394ED0CCF5FAACFC9
:1021E000DF91CF911F910F91FF90EF90DF90CF90F3
:1021F000BF90AF9008959F92AF92BF92CF92DF921F
:10220000EF92FF920F931F93CF93DF93F82EE62E5A
:10221000B22E03E0020FD0E0C3E08AEFC82E1EEF1B
:10222000842F8170982EAA24A394A20E4270D42EDB
:10223000DF5F802F8B19180F9920A1F02C2F220F10
:102240002A0D4E2D4C1B6D2F6F0D8EE895E00E94D0
:10225000BE0E202F4E2D4D1B6C2F6F0D8EE895E07E
:102260000E94BE0EDD20A1F02C2F220F2A0D4E2D34
:102270004C1B6F2D6D1B8EE895E00E94BE0E202F2B
:102280004E2D4D1B6F2D6C1B8EE895E00E94BE0EEF
:10229000DC1744F417FD04C0C150C394C3941C0D53
:1022A0000E5FC6CFDF91CF911F910F91FF90EF90FE
:1022B000DF90CF90BF90AF909F900895DF92EF9204
:1022C000FF920F931F93CF93DF93C82FD62FE42E47
:1022D000022F8AEFD82ED40E93E0F92EFC0E2D2D6E
:1022E000462F6F2D8EE895E00E949E0D1D2F100F3A
:1022F0004FEF410F2D2D6F2D8EE895E00E949E0D22
:102300000650DD5F202F4D2F6C2F8EE895E00E9448
:10231000BE0ECE0D6FEF6C0F202F4D2F8EE895E087
:102320000E94BE0E41E06D2F8F2D0E947D10C45083
:1023300042E06D2F8C2F0E947D10145044E0612FDD
:102340008C2F0E947D1048E0612F8F2DDF91CF915F
:102350001F910F91FF90EF90DF900C947D10CF9321
:10236000DF93EFE9F5E0C081D1819881A3EAB5E080
:102370008C91892B8883C091A105D091A205988169
:102380008091A4058095892388830190F081E02DB8
:1023900090818C91809589238083DF91CF910895DE
:1023A000CF92DF92EF92FF920F931F93CF93DF9321
:1023B000CAE4D5E001E515E0FF24FA9496E0E92EA1
:1023C000E00E62E088810E94530A288130E0F90122
:1023D000E65BF94F8491F901E55DF94FC490F9018D
:1023E000E45FF94FD490DD2071F081110E94E6097D
:1023F000ED2DF0E0EE0FFF1FE250FA4FA591B491E2
:10240000EC91EC2131F5F80180818F5F808360E0F1
:1024100088810E94530A21960F5F1F4FE012D1CF8F
:10242000909151059150809157059E3F38F49091BD
:10243000530591509E3F10F48F5F08C08823A1F090
:102440008F3F19F4109257050FC08FEF80935705F7
:102450000BC0F80180818823F1F2F8018F3F11F45D
:102460001082D5CFF082D3CFDF91CF911F910F9102
:10247000FF90EF90DF90CF900895EF92FF920F932F
:102480001F93CF93DF934091B5055091B6056091AE
:10249000B7057091B8052FB7F89480913C059091DD
:1024A0003D05A0913E05B0913F052FBF481B590B3C
:1024B0006A0B7B0B8091B40590E0A0E0B0E0009146
:1024C000AD051091AE052091AF053091B005841790
:1024D0009507A607B70730F4011511052105310549
:1024E00009F078C280E0012B022B032B09F0B3C264
:1024F0000E943C1080916605882309F4AFC080914A
:102500007A058111ABC08091720590917305E091BD
:102510007705F0917805EE0FFF1FE80FF91F259161
:1025200034912115310501F520917605222331F0F2
:102530001092780510927705FC0114C01092660580
:1025400080916505882341F080E00E943C10E09175
:102550007705F09178052FC060E085E695E00E9450
:10256000B80B7CC025913491C901969587959695B5
:10257000879520FF53C0B901B6E076956795BA9567
:10258000E1F76F71932F96959695969590518F7070
:10259000823081F108F5811117C06B3008F06AE0D4
:1025A00060937B05E0917705F09178053196F09383
:1025B0007805E0937705EE0FFF1F809172059091EB
:1025C0007305E80FF91FCECF813061F740E085E653
:1025D00095E00E94380BE6CF8330B1F0843011F7DC
:1025E00080916905689F602D112460938205909306
:1025F0008305D8CF80916905689F602D1124609371
:102600007E0590937F05CECF80916905689F602DF0
:1026100011246093800590938105C4CF8F738093BC
:10262000790580916905839F802D112480937A0517
:1026300010928A05109289051092880581E0809396
:102640007C0580933F0310927D05809177059091E2
:1026500078050196909378058093770580917C05A5
:10266000882309F4E7C080917A05811106C060E0F3
:1026700085E695E00E94B80BDDC0815080937A0515
:1026800080918A05811148C0209188053091890583
:102690002F5F3F4FC901880F991FE0918405F0918A
:1026A0008505E80FF91F65917491862F87708093D7
:1026B0008B05AB0163E0569547956A95E1F7CA0132
:1026C00096958795972F9695969590938C058F73F1
:1026D00090916905899F802D112480938A0541700E
:1026E00040934303309389052093880580918605A4
:1026F00090E02817390780F020918705222339F0D0
:10270000821B9109909389058093880505C060E03C
:1027100085E695E00E94B80B80918A0581508093F0
:102720008A0580917D0521E0280F20937D05409149
:10273000790530918C05340F80917105380F3093F5
:10274000670560918005662371F070E0822F022E8C
:10275000000C990B0E945D2780918105869F300DAA
:102760001124309367058091670590E0CB966BE369
:1027700070E00E945D278093670530917B05309360
:10278000680560917E05662381F0062E000C770BAC
:10279000822F022E000C990B0E945D2780917F05ED
:1027A000869F300D11243093680560918205662361
:1027B000A1F0822F220F990B70E00E945D27CB01C0
:1027C00062E070E00E945D2720918305909168058A
:1027D000289F900D112490936805809168054F33D0
:1027E00041F08A300CF089E087FD80E08093680535
:1027F00002C010926805F894E0916705F0E0ED538F
:10280000FA4FE491E093420380918D0590916A051F
:10281000899F802D112490916805899F802D112416
:1028200090918B05899F802D112480934103809383
:10283000400378948091B905882309F460C08C30F6
:1028400018F4CCE0C81B01C0C0E081E0809394057F
:1028500010929D0510929E051091960583E0810FC0
:10286000DC2FD11BD35D0D2FE82E880FFF08ED0E56
:10287000F11CD7FDFA94802F002E000C990B8E15B9
:102880009F054CF42EE4402F63E08EE895E00E9413
:102890009E0D0F5FF0CF1450DD5F212F41E06D2FB3
:1028A00080E50E94FB10212F42E06D2F83E00E9403
:1028B000FB1081E080939D0580939E058091960595
:1028C00023E0280F6C2F681B635D44E580E00E94C5
:1028D0005E1184E08093970580919605C81BC15DC9
:1028E000C09398056091BA057091BB058EE895E09C
:1028F0000E94AD098091B90581508093B9058091FE
:102900009A058F5F80939A0504E413E0C0E00E946B
:10291000AF1182E20E94E10ECF5F8C2F0E94E10E88
:1029200087E00E94E10E81E20E94E10E86E10E94B2
:10293000E10E8FE70E94E10EE091A105F091A20562
:1029400090818091A405892B8083E0919F05F0916F
:10295000A00590818091A305809589238083E12C37
:10296000F12CF801EE0DFF1D80810E94E10E2FEF8A
:10297000E21AF20A34E5E316F10499F70C5A1F4FF4
:10298000C63029F68091920581110EC088EF91E042
:10299000E4E4F3E0DF019C011D9221503040E1F7B7
:1029A00010929705109298050E948F0A6093AD05CA
:1029B0007093AE058093AF059093B0052091A90563
:1029C0003091AA05621B730B7093B2056093B10539
:1029D00080E041C02FB7F89480913C0590913D056F
:1029E000A0913E05B0913F052FBF2091B405820F05
:1029F000911DA11DB11D8093B5059093B605A093BF
:102A0000B705B093B8058091A5059091A605A09152
:102A1000A705B091A8050196A11DB11D8093A5053C
:102A20009093A605A093A705B093A8051092AD05B5
:102A30001092AE051092AF051092B0050E948F0A59
:102A40006093A9057093AA058093AB059093AC059C
:102A50000E94D01181E0DF91CF911F910F91FF90E3
:102A6000EF900895CF93DF93BC018EE895E00E942C
:102A7000AD09EC0163EC72E08EE895E00E94D109AB
:102A80008C0F9D1FDF91CF91089540E06DEB75E0B5
:102A900085E695E00C94CB0B4091250350912603DD
:102AA000209123033091240342175307B4F49091EB
:102AB000E8009570E1F39091E80092FD19C08093D1
:102AC000F100809125039091260301968F73992739
:102AD000892B19F48EEF8093E80080912503909163
:102AE00026030196909326038093250381E00895A1
:102AF00080E00895615030F02091F100FC012083C6
:102B00000196F8CF289884E680932A030895CF93FE
:102B1000DF93CDB7DEB7A9970FB6F894DEBF0FBE2F
:102B2000CDBF789484B5826084BD84B5816084BD56
:102B300085B5826085BD85B5816085BD80916E005B
:102B4000816080936E00109281008091810082608C
:102B500080938100809181008160809381008091C9
:102B600080008160809380008091910082608093DA
:102B700091008091910081608093910080919000FC
:102B80008160809390008091C10084608093C10037
:102B90008091C10082608093C1008091C1008160FA
:102BA0008093C1008091C30081608093C3008091B5
:102BB000C00082608093C0008091C20081608093D9
:102BC000C20080917A00846080937A0080917A00BC
:102BD000826080937A0080917A00816080937A008D
:102BE00080917A00806880937A0010922B03109273
:102BF0002803109229038091D70081608093D70029
:102C000080EA8093D80089B5806189BD89B58260EA
:102C100089BD09B400FEFDCF61E070E080E090E086
:102C20000E94B40A8091D8008F7C80618093D80084
:102C30008091E000807F8093E0008091E1008E7EB3
:102C40008093E1008DE08093E200559A209AEEEFA8
:102C5000FFE7859194918B3F9C4D19F481E080931F
:102C6000270382E38093B40581E090E0A0E0B0E028
:102C70008093AD059093AE05A093AF05B093B005DA
:102C800011E010936B0510936A058FEF8093B305E5
:102C900084E180934A0582E180934B0583E1809330
:102CA0004C0585E180934D0587E080934E0588E0D3
:102CB00080934F05109250050E94D01110939D05EE
:102CC00010929E051093930510939405E9E6F1E0A8
:102CD000E491EF5FE0939505EAE6F1E0E491EF5FC0
:102CE000E09396058BE691E090939C0580939B057D
:102CF0001FB7F8948091D302811127C0EDE1F6E06F
:102D00008491ECE3F6E09491E82FF0E0EE0FFF1FE2
:102D1000E05CFE4FA591B491EC91E92321F461E0D0
:102D200081E10E94230A61E081E10E94530A8CB58F
:102D300080618CBD8CB580648CBD61E08FE00E94A9
:102D4000530A61E080E10E94530A8091D3028F5FB1
:102D50008093D3021FBF8CB58C7F8CBD8DB58160F5
:102D60008DBD61E084E00E94530A61E08CE00E9426
:102D7000530A61E086E00E94530A61E086E00E9407
:102D8000230A61E070E080E090E00E94B40A60E015
:102D900086E00E94230A6AE070E080E090E00E94F2
:102DA000B40A61E086E00E94230AE8E1F6E0E491DB
:102DB000F0E0EE0FFF1FE55AFE4F8591949190933E
:102DC000A00580939F05E0E1F6E0E491F0E0EE0FCE
:102DD000FF1FE55AFE4F859194919093A205809331
:102DE000A105E7E3F6E0E491E093A305EFE2F6E066
:102DF000E491E093A4050E94AF110EE411E02DE0F0
:102E0000F22EF00EF80184910E94E10E0F5F1F4F29
:102E1000F012F8CFE091A105F091A2059081809188
:102E2000A405892B8083E0919F05F091A0059081F6
:102E30008091A30580958923808300E014E080E0E1
:102E40000E94E10E01501109D1F781E080936905DC
:102E500084E080938D058CE391E0909375058093D9
:102E6000740540E060E085E695E00E94380B61E083
:102E700085E00E94530A61E08DE00E94530A61E000
:102E800085E00E94530AEFE4F6E0E4918E2F90E093
:102E9000FC013197EF30F10508F07DC0EA5AFF4F91
:102EA0000C94712784B5806884BD81E087BD77C0AC
:102EB00084B5806284BD81E088BD71C0809180004E
:102EC00080688093800081E090E0909389008093F7
:102ED000880065C08091800080628093800081E0DE
:102EE00090E090938B0080938A0059C0809180007D
:102EF00088608093800081E090E090938D008093C3
:102F00008C004DC08091900080688093900081E09B
:102F100090E0909399008093980041C08091900038
:102F200080628093900081E090E090939B0080937A
:102F30009A0035C08091900088608093900081E075
:102F400090E090939D0080939C0029C08091C000E8
:102F500080688093C0008091C0008F7B8093C00008
:102F600081E08093CF001BC08091C000806280937D
:102F7000C00081E08093D00012C08091C2008860C0
:102F80008093C2008091C2008B7F8093C20081E059
:102F90008093D20004C060E085E00E94230A809103
:102FA0009100887F816080939100F8941092800056
:102FB00010928100109285001092840088E191E0C7
:102FC000909389008093880080918100886080932D
:102FD00081008091810081608093810080916F00E9
:102FE000826080936F00789480915605813019F447
:102FF00010926A0507C040E06BEE72E085E695E04E
:103000000E94CB0B1BE0C12E13E0D12E04EDA02EAD
:1030100002E0B02EE12CF12C00E010E0C8018E0D92
:103020009F1D0A30110530F40E943A23F501E00F8C
:10303000F11F06C00E943A23F8013A97EC0DFD1DDE
:1030400080830F5F1F4F0F30110541F7FFE0EF0E38
:10305000F11C2BE0A20EB11C34E0C30ED11C4BE4DA
:10306000E416F104C9F68091B30581110E944B0565
:1030700010925805809164008E7F8093640087ECE5
:1030800080937C0080E280937B0062E070E080E0CF
:1030900090E00E94B40A80917A00806480937A0064
:1030A00080917A0086FDFCCF009178001091790024
:1030B000009510958EE580937C0062E070E080E0E2
:1030C00090E00E94B40A80917A00806480937A0034
:1030D00080917A0086FDFCCFE0907800F090790036
:1030E0000E948F0A9B01AC01209530954095509528
:1030F000E094F094E09ED001E19EB00DF09EB00D02
:1031000011240E946F236B017C010E948F0A6C0DB9
:103110007D1D8E1D9F1D611571058105910511F0A5
:103120000E943123809164008160809364008BEC65
:1031300092E0A8E0A80FADA38AE592E0BAE0B80F4C
:10314000BAA30E943D12882311F40C94E1208091CF
:103150002203823009F467C538F4882309F481C753
:10316000813039F00C94D120853008F42EC60C94AF
:10317000D12080915505813009F051C0EEE1F2E097
:1031800000E010E08081853508F442C0809167023C
:10319000882369F180910401882349F1F801EE0F39
:1031A000FF1FE25EFD4F90916E02908390916D0241
:1031B00091839CE0909FF001919FF00D1124EA55BE
:1031C000FE4F40E050E068EC71E44083518362833D
:1031D000738340E050E060E87FE340875187628777
:1031E000738781508093040180E00E94E80E8CE098
:1031F000809FF001819FF00D1124EA55FE4F80E081
:1032000090E0A0E2B2E484839583A683B78307C0ED
:103210000F5F1F4F32960A30110509F0B3CF80912E
:103220005605813009F051C0EEE1F2E000E010E017
:103230008081853508F442C080916A02882369F153
:1032400080910501882349F1F801EE0FFF1FE25E2E
:10325000FD4F90916E02908390916D0291839CE05E
:10326000909FF001919FF00D1124EA55FE4F40E030
:1032700050E060E672E4408351836283738340E0F0
:1032800050E060E070E44087518762877387815027
:103290008093050180E00E94E80E8CE0809FF001A1
:1032A000819FF00D1124EA55FE4F80E090E0A0E2EE
:1032B000B2E484839583A683B78307C00F5F1F4F53
:1032C00032960A30110509F0B3CF80915105815033
:1032D0008E3F58F480916E02282F30E02430310563
:1032E0000CF479C7835080936E028091530581500E
:1032F0008E3F58F480916E02282F30E02135310541
:103300000CF06BC78D5F80936E02809152058150E7
:103310008E3F58F480916D02282F30E02430310523
:103320000CF45DC7835080936D02809154058150E9
:103330008E3F58F480916D02282F30E02D323105F8
:103340000CF04FC78D5F80936D02809164028823DB
:1033500009F44CC0FAE5EF2EF2E0FF2EF70181915F
:10336000853508F440C72AA12E13F9CF00E010E0FC
:10337000D7018D917D01853508F44AC080916402A2
:103380008150809364020E942C23F801E65AFD4F7D
:103390007F0128E030E040E050E00E945023D70158
:1033A0006C930E942C23E4E0000F111FEA95E1F7D3
:1033B0000A5F1E4F24E530E040E050E00E945023B9
:1033C0000E944225F8016083718382839383148273
:1033D0001582168217826087718782879387148689
:1033E00015861686178681E00E94E80EE2E3F2E079
:1033F000F9A3E8A35FE1252E52E0352E26EA31E05D
:10340000398F288F8901C12CD12CFF8BEE8B07C0FF
:103410000F5F1F4F0A30110509F0AACFE7CFF10166
:103420003197E08094E59E1508F4B7C0AE89BF8956
:103430008C91853508F4B1C0D8018D919D910D9086
:10344000BC91A02D8A8F9B8FAC8FBD8F6E2D70E0AD
:1034500080E090E00E9442252A8D3B8D4C8D5D8D51
:103460000E94B3234B015C0120E030E0A9010E94DF
:103470005826F101F08018165CF420E030E040E8B6
:1034800050E4C501B4010E94922487FD0BC041C0E5
:1034900020E030E040E850ECC501B4010E9458261D
:1034A0001816BCF56F2D70E080E090E00E94422578
:1034B000D80114962D913D914D915C9117970E94E2
:1034C000B3232B013C0120E030E0A9010E945826E3
:1034D00018165CF420E030E040E850E4C301B2018B
:1034E0000E94922487FD0BC014C020E030E040E829
:1034F00050ECC301B2010E945826181654F4EE890C
:10350000FF89E082F601EE5CFD4FF18212821382A8
:1035100044C06F2D70E080E090E00E944225D80109
:1035200014962D913D914D915C9117970E94B32374
:10353000A50194010E9433244B015C010E94972451
:1035400020E030E040E850E40E9465269B01AC0199
:103550006A8D7B8D8C8D9D8D0E94B423F8016083D4
:10356000718382839383C501B4010E94D22620E037
:1035700030E040E850E40E9465269B01AC01D80190
:1035800014966D917D918D919C9117970E94B42313
:10359000F80164837583868397832E893F892C5F26
:1035A0003F4F3F8B2E8B34E0C30ED11C42E0240EE4
:1035B000311C045F1F4F88E2C816D10409F02FCFD9
:1035C000AAE5B2E0BCA3ABA346E0242E41E0342E32
:1035D0008101BB8FAA8FAA8DBB8DED91BB8FAA8F66
:1035E000EE8BE53508F0C4C02E2F30E03F8F2E8FD4
:1035F000D8011896CD90DD90ED90FC901B97BAE025
:10360000EB9FB00111246A5F7F4F072E000C880BDF
:10361000990B0E944225A70196010E94B3234B01FA
:103620005C0120E030E0A9010E94582618165CF4E5
:1036300020E030E040E850E4C501B4010E9492244B
:1036400087FD0CC04DC020E030E040E850ECC501E3
:10365000B4010E94582618160CF042C0F8012485C7
:1036600035854685578560E070E080E392E40E94EE
:10367000B3232B013C0120E030E0A9010E94582631
:1036800018165CF420E030E040E850E4C301B201D9
:103690000E94922487FD0BC023C020E030E040E868
:1036A00050ECC301B2010E9458261816CCF4EE8DDE
:1036B000FF8DEB59FD4F1082FE89F23019F4109204
:1036C000040105C02E89253011F410920501EA8D00
:1036D000FB8D319734E6308384E00E94E80E48C0C9
:1036E000D8011C962D913D914D915C911F9760E002
:1036F00070E080E392E40E94B323A50194010E944C
:1037000033242B013C018090000190900101A09096
:103710000201B09003010E9497249B01AC01C501F6
:10372000B4010E9465269B01AC01C701B6010E944D
:10373000B423F8016087718782879387C301B20140
:103740000E94D2269B01AC01C501B4010E946526EE
:103750009B01AC01D8011C966D917D918D919C913E
:103760001F970E94B423F80164877587868797871F
:10377000005F1F4FFAA12A8DF2132DCF80912103F4
:1037800080FF03C000E010E033C02EE132E0E4E34C
:10379000F2E085E392E002E312E054E661E0D80152
:1037A0004C914535D0F4DC014C91411108C0408169
:1037B000473018F44F5F408302C0DC016C93DC019A
:1037C0004C91413051F44081442319F041504083E1
:1037D00004C0D8015C93D9015C930C5F1F4F2E5F2E
:1037E0003F4F34960496B2E00A351B07C1F6CACFA4
:1037F000F801EE5CFD4FFF8FEE8F8081853510F173
:103800000C5F1F4F0832110599F70E948C0F109121
:103810006D0200916E026FEF600F23E0412F8EE882
:1038200095E00E949E0D4FEF410F23E0602F8EE840
:1038300095E00E94BE0E32E3E32E32E0F32E00E06C
:1038400010E08DC026E031E03F8B2E8BAAE5B2E080
:10385000BB8FAA8FC82ED12CE12CF12CEA8DFB8DC9
:103860008191FB8FEA8F853508F06FC0C701B601E3
:103870000E9442259B01AC01AE89BF8918966D91CB
:103880007D918D919C911B970E94B3232B013C014C
:10389000EE8DFF8D618170E080E090E00E94422516
:1038A0009B01AC01AE89BF891C966D917D918D9174
:1038B0009C911F970E94B3234B015C01A3019201CD
:1038C000C301B2010E9465262B013C01A5019401B0
:1038D000C501B4010E9465269B01AC01C301B20180
:1038E0000E94B4230E94E0269B01AC01EE8DFF8D67
:1038F000628170E080E090E029A73FA34EA358A723
:103900000E94422529A53FA14EA158A50E945826F4
:1039100087FD1BC0EA8DFB8D319724E620838091C3
:10392000C7029091C802A091C902B091CA024996FB
:10393000A11DB11D8093C7029093C802A093C90234
:10394000B093CA0282E00E94E80E8E899F89409659
:103950009F8B8E8B9AA1AA8D9A1380CF51CFF8019D
:10396000E25EFD4F6081653548F4D7018C91853565
:1039700028F041818EE895E00E94460D0E5F1F4FB2
:10398000B4E0EB0EF11C0431110549F70E945E0F03
:103990000E94250F0EE112E0F8018081853508F0C4
:1039A00045C0A8A1B9A18C91853508F43FC020E09D
:1039B00030E040E85FE3E88DF98D608571858285B0
:1039C00093850E949224A88DB98D811117C01496F9
:1039D0006D917D918D919C9117970E940A25262FBC
:1039E000E88DF98D608171818281938129A70E9480
:1039F0000A25462F29A568E289E116C014966D9123
:103A00007D918D919C9117970E940A25262FE88D14
:103A1000F98D608171818281938129A70E940A2595
:103A2000462F29A568E288E30E9465060E5F1F4FB6
:103A300028A139A12C5F3F4F39A328A3888D998DE8
:103A40000C96998F888F2A55324009F0A5CF0AE548
:103A500012E0D8018D918D01853548F5F10164851D
:103A60007585868597850E940A25262FD10118968F
:103A70006D917D918D919C911B9729A70E940A259C
:103A8000462FF10164817581868197814EA30E9442
:103A90000A25F62ED1016D917D918D919C910E9408
:103AA0000A25862F29A54EA16F2D0E946506B0E13B
:103AB0002B0E311CE6EA2E16E1E03E0651F6C12C33
:103AC000D12CAA24A394F601EE5CFD4F00810535AC
:103AD00040F0F4E0CF0ED11C28E2C216D10499F7D1
:103AE00072C01281E180BA2CB11A912E9194990C76
:103AF0004E2D410F602F8EE895E00E94460D4E2D11
:103B0000411B602F8EE895E00E94460D612F600FEB
:103B10004E2D8EE895E00E94460D602F611B4E2DC4
:103B20008EE895E00E94460DF12CF11694F6B7FC54
:103B300004C0115093949394B90CF3948F2D880F73
:103B40008F5FB80E6F2C600E812E8E0C482D662D67
:103B50008EE895E00E94460D702E7F18482D672D47
:103B60008EE895E00E94460D8E2C811A482D662D18
:103B70008EE895E00E94460D482D672D8EE895E071
:103B80000E94460D8F2C8E0C482D712E700E672DC5
:103B90008EE895E00E94460D482D802E811A682DF2
:103BA0008EE895E00E94460D6E2C6F18462D672D0D
:103BB0008EE895E00E94460D462D682D8EE895E032
:103BC0000E94460DB2CF80916402811115C0ABA155
:103BD000BCA18D91BCA3ABA3853570F0BAA1BA137B
:103BE000F6CF10922003EBECF2E011922DA12E13F0
:103BF000FCCF82E080932203E5E6F2E080E08230B1
:103C000029F0853019F090819111CBC28F5F3196E8
:103C10008830A9F71092210383E08093220385E086
:103C20000E94E80EBEC210912103812F837079F5A6
:103C300080910401811104C090910501992339F10B
:103C4000909120039F5F909320034091C702509171
:103C5000C8026091C9027091CA02465F5F4F6F4F00
:103C60007F4F4093C7025093C8026093C90270937C
:103C7000CA02882321F081508093040105C08091FD
:103C8000050181508093050183E00E94E80E1770C2
:103C9000D9F580910401811137C08091050181110E
:103CA00033C080E090E08230910531F1853021F120
:103CB000FC01EB59FD4F20812223F1F0DC01A553DB
:103CC000BD4F21E02C938091C7029091C802A09132
:103CD000C902B091CA028C599F4FAF4FBF4F80931A
:103CE000C7029093C802A093C902B093CA0210827F
:103CF00083E00E94E80E08C001968830910599F68D
:103D00000E94E60F81E079C082E18093970589E007
:103D1000809398056EE673E08EE895E00E94AD0909
:103D20008AE08093970580919805865F8093980537
:103D30006091200370E080E090E04AE00E941C0661
:103D400010E080912003181750F4612F660F6E5E0B
:103D500045E18EE895E00E94460D1F5FF2CF8AE0B4
:103D60008093970580919805865F8093980580E001
:103D700010E0883048F4E82FF0E0E553FD4F9081E3
:103D800091111F5F8F5FF5CF812F90E0A0E0B0E031
:103D90004AE0BC01CD010E941C0652E100E001177F
:103DA00069F024E633E04AE1652F8EE895E058A7F4
:103DB0000E94040C0F5F58A5575FF1CF0E948C0F33
:103DC0000E945E0F0E94250FECC18BE18093970546
:103DD00083E1809398056CE573E08EE895E00E949E
:103DE000AD0980912203833059F48091210364E16D
:103DF0000E9451279111D5C184E080932203D1C143
:103E0000843009F0CEC180912103877029F480911C
:103E10001F03809580931F0380911F03882311F156
:103E20008BE18093970587E28093980564E573E0C2
:103E30008EE895E00E94AD094091C7025091C802FA
:103E40006091C9027091CA0280911B0390911C037A
:103E5000A0911D03B0911E0384179507A607B7070D
:103E600008F4D0C180915505813009F09AC1409184
:103E7000C7025091C8026091C9027091CA02809134
:103E80001B0390911C03A0911D03B0911E03841786
:103E90009507A607B70708F4C2C1D8C01A300CF0BE
:103EA00007C22F2DA0E1EA9E200D11242111E8C1A7
:103EB0000E943D128823E1F3809154058F3F09F061
:103EC000C1C1809152058F3F09F0C1C18091530556
:103ED0008F3F09F0C1C1809151058F3F09F0C1C1E9
:103EE00030E1F312C3C1F12C48E0E412C4C1E12C6B
:103EF000909196058091950580958F9D802D112438
:103F0000895D8D2CDD0C9908880E911C87FD9A9493
:103F100097FE03C08FEF881A980A95948794382CDF
:103F2000D82C84E1891B90959E9D800D1124AC2C8A
:103F3000CC0CBB08A80EB11C87FDBA94B7FE03C019
:103F40009FEFA91AB90AB594A7942A2CCA2C80917C
:103F50005505813009F4A2CF80915605813009F4CE
:103F6000B1C180915705813009F0CEC185E695E059
:103F70000E94FF0B0E943D128823E1F389E393E046
:103F80000E943215BE016F5F7F4F8EE895E00E9460
:103F9000D10988E293E00E94321580915505813065
:103FA00009F0A6C185E695E00E94FF0B8090C7024C
:103FB0009090C802A090C902B090CA02B4EDEB2E56
:103FC000B2E0FB2E0BE013E080E0D8014D905D9055
:103FD0006D907C90481459046A047B0408F49FC2D5
:103FE00081119DC20C5F1F4FFBE0EF0EF11C23E01F
:103FF0000F31120751F7FBE0AF2EF3E0BF2EE12C9B
:10400000F12CA4EDCA2EA2E0DA2E00E010E0C801E7
:104010008E0D9F1D0A30110508F09CC2F601E00FBD
:10402000F11F60810E9442230F5F1F4F0F30110567
:1040300071F73BE0C30ED11C4FE0E40EF11C84E0AD
:10404000A80EB11C9BE4E916F104F9F61092C70220
:104050001092C8021092C9021092CA021092220352
:10406000A0C086E18093970585E0809398056BEF6B
:1040700072E08EE895E00E94AD090BE013E064ED7C
:10408000E62E62E0F62EB12C75E0A72EE6E39E2E1A
:10409000A09297058CE08B0D80939805B7018EE870
:1040A00095E00E94D10969EF72E08EE895E00E94E8
:1040B000AD09909297056801F80180819181A281F4
:1040C000B381803A9648A140B10510F40E945F0682
:1040D000F80180819181A281B38180319742A1054D
:1040E000B10510F40E945F06F80180819181A281E0
:1040F000B381883E9340A105B10510F40E945F068C
:10410000F80180819181A281B38184369105A10556
:10411000B10510F40E945F06F80180819181A281AF
:10412000B3810A97A105B10510F40E945F060C5FE8
:104130001F4FD6016D917D918D919C914AE00E9417
:104140001C06B5E0BB0EEBE0EE0EF11CF9E1BF1270
:104150009FCF80912103877029F480911F03809560
:1041600080931F0380911F03882361F08BE180936C
:10417000970587E28093980566E073E08EE895E006
:104180000E94AD0980915505813059F48FEF8093DD
:10419000C602EBECF2E081E081932DA12E13FCCF5F
:1041A000AFCD80915705813039F48091B3058111ED
:1041B0000E944B0510925805809121038F5F8093D8
:1041C000210380E090E0892B11F40C94A1180E9447
:1041D00000000C949C1880E086C884E594C880E0B8
:1041E000A2C880E3B0C80E942C2324E630E040E05F
:1041F00050E00E94502362307105810591050CF456
:10420000B5C8F4C88FE08093970581E28093980544
:1042100066E473E08EE895E00E94AD0923CE10922B
:1042200092051B8680E3C82E94E5D92E22E0E22E6B
:10423000F12C10E03AEF732E42E0442E512C50E363
:10424000652E36CE8370813009F03BCE88C18370F5
:10425000813009F03BCE87C18370813009F03BCEBD
:1042600086C18370813009F03BCE85C1F7FE3CCE1C
:104270002FE0F22E39CEE7FE3BCE97E0E92E38CE86
:104280002A3009F415CE2D3009F412CE812F012EDB
:10429000000C990BE1E0F0E0EC0FFD1FE80FF91FB7
:1042A0002083E2E0F0E0EC0FFD1FE80FF91F108221
:1042B0001F5F85E695E00E94FF0B1C300CF44CCE8E
:1042C0001BE04ACE115040E06EE073E085E695E0D9
:1042D0000E94CB0B17FD0AC0E1E0F0E0EC0FFD1FE0
:1042E000E10FF11D17FDFA9510823BCE10E039CE9B
:1042F00080915605813009F03DCE40E06EE073E0DC
:1043000085E695E00E94CB0B70E050E030E0232F73
:10431000270F80919605452F589F400D1124420D7F
:1043200080919505632F389F600D1124630D01E086
:104330008EE895E03FA358A77EA30E94C10D3FA140
:104340003F5F58A57EA1303111F75F5F705F583035
:10435000E9F680919505B82D879DB00D11248B2F1E
:10436000825080939705809196058F5F8A0D809388
:10437000980562E273E08EE895E00E94AD098091B5
:104380009505E82D879DE00D11248E2F8250809396
:10439000970580919605880F8E5F8A0D809398050A
:1043A0006CE173E08EE895E00E94AD09809195057F
:1043B000F82D879DF00D11248F2F82508093970543
:1043C0008091960590E00196982F990F890F8A0D9C
:1043D0008093980566E173E08EE895E00E94AD0950
:1043E00010929D0510929E05809196054E2DE89E97
:1043F000400D112442504A0D809195056F2DF89E75
:10440000600D11246150680D27E08EE895E00E9450
:104410009E0D81E080939D0580939E0530919605C9
:1044200040919505E42FF0E025E0230F4E5FCF018A
:104430000197B2010E945D27480F6E2DE39E600D2B
:10444000112463506A0D8F2DFE9E800D1124825021
:10445000880D0E945E11809196054EE2481B24E56E
:1044600060E08EE895E00E949E0D10929D051092EE
:104470009E0580919605AA24A394A80E0FE2081B1E
:104480000A2C000CBB08A00EB11C07FDBA94802FAB
:10449000002E000C990B8A159B054CF424E5402F47
:1044A00060E08EE895E00E949E0D0F5FF0CF1092C5
:1044B000970580919605262D281B2093980581E06D
:1044C00080939D0580939E05BE016F5F7F4F8EE8B0
:1044D00095E00E94D1098091A5059091A605A09133
:1044E000A705B091A80587709927AA27BB2704972D
:1044F000A105B10508F0DCCC1A300CF0D9CC8091C4
:104500009605462D481B60919505169F602D112438
:1045100001E02FE58EE895E00E94C10DC9CCB701FE
:10452000CE010C960E949027F80180829182A2828F
:10453000B382BE016F5F7F4FC7010E949027BE010B
:10454000645F7F4FCE0101960E9490275301420184
:1045500081E048CDF8013A97EA0DFB1D62CDE39466
:104560000E944515AECCEA940E944515AFCCF39459
:104570000E944515B0CCFA940E944515B1CCECEBE5
:10458000F5E01382128288EE93E0A0E0B0E084832D
:104590009583A683B78389EA92E0918380838FEF26
:1045A0009FEF9587848710929105109290058BEB71
:1045B00092E090938F0580938E0508958F929F923D
:1045C000AF92BF92CF92DF92EF92FF92CF93DF93A1
:1045D000EC01688179818A819B8161157105810572
:1045E000910521F464E279ED8BE597E02DE133EF5D
:1045F00041E050E00E94502349015A019B01AC0167
:10460000A7EAB1E40E946F236B017C01ACEEB4EF2A
:10461000A50194010E947D23DC01CB018C0D9D1D21
:10462000AE1DBF1DB7FF03C00197A109B048888325
:104630009983AA83BB83BC01CD019F77DF91CF9182
:10464000FF90EF90DF90CF90BF90AF909F908F90B2
:1046500008950E94DE2208958CE792E00E94DE22F7
:10466000089560937C0270937D0280937E02909304
:104670007F020895F999FECF92BD81BDF89A9927DE
:1046800080B50895262FF999FECF1FBA92BD81BD3E
:1046900020BD0FB6F894FA9AF99A0FBE01960895C4
:1046A000052E97FB1EF400940E94672357FD07D048
:1046B0000E94822307FC03D04EF40C94672350958C
:1046C0004095309521953F4F4F4F5F4F08959095FE
:1046D0008095709561957F4F8F4F9F4F08950E94F1
:1046E000A423A59F900DB49F900DA49F800D911DB4
:1046F00011240895B7FF0C946F230E946F23821B2F
:10470000930B0895A1E21A2EAA1BBB1BFD010DC03D
:10471000AA1FBB1FEE1FFF1FA217B307E407F50771
:1047200020F0A21BB30BE40BF50B661F771F881F4D
:10473000991F1A9469F760957095809590959B01E3
:10474000AC01BD01CF010895A29FB001B39FC0018C
:10475000A39F700D811D1124911DB29F700D811DAD
:104760001124911D08955058BB27AA270E94CB23DE
:104770000C940A260E94D12538F00E94D82520F0FA
:1047800039F49F3F19F426F40C94A7250EF4E09514
:10479000E7FB0C94A125E92F0E942F2658F3BA17A6
:1047A000620773078407950720F079F4A6F50C9447
:1047B00051260EF4E0950B2EBA2FA02D0B01B90156
:1047C00090010C01CA01A0011124FF27591B99F087
:1047D000593F50F4503E68F11A16F040A22F232F93
:1047E000342F4427585FF3CF469537952795A795E3
:1047F000F0405395C9F77EF41F16BA0B620B730B8A
:10480000840BBAF09150A1F0FF0FBB1F661F771FFA
:10481000881FC2F70EC0BA0F621F731F841F48F4AF
:10482000879577956795B795F7959E3F08F0B0CF38
:104830009395880F08F09927EE0F9795879508951F
:104840000E94D12560F080E891E009F49EEF0E947B
:10485000D82528F040E851E071F45EEF0CC00C94CC
:10486000A7250C945126E92FE0780E942F2640F3CB
:10487000092E052AB1F3261737074807590738F0DC
:104880000E2E07F8E02569F0E025E0640AC0EF632A
:1048900007F8009407FADB01B9019D01DC01CA01A8
:1048A000AD01EF930E94AF240E940A260E94632468
:1048B0005F91552339F02BED3FE049E450FD49EC81
:1048C0000C94B4230895DF93DD27B92FBF7740E818
:1048D0005FE31616170648075B0718F4D92F0E94E6
:1048E0005D269F938F937F936F930E942027E8EE1E
:1048F000F0E00E94AA250E940A262F913F914F9135
:104900005F910E947826DD2351F09058A2EA2AEDAB
:104910003FE049EC5FE3D0785D270E94CB23DF9135
:104920000C940A260E947D2508F481E008950E94D7
:10493000E125E3950C941B260E94D82558F00E948F
:10494000D12540F029F45F3F29F00C94A1255111A5
:104950000C9452260C94A7250E942F2668F39923C5
:10496000B1F3552391F3951B550BBB27AA2762176B
:104970007307840738F09F5F5F4F220F331F441F78
:10498000AA1FA9F335D00E2E3AF0E0E832D09150AC
:104990005040E695001CCAF72BD0FE2F29D0660F99
:1049A000771F881FBB1F261737074807AB07B0E8DC
:1049B00009F0BB0B802DBF01FF2793585F4F3AF0E2
:1049C0009E3F510578F00C94A1250C9452265F3F30
:1049D000E4F3983ED4F3869577956795B795F79568
:1049E0009F5FC9F7880F911D9695879597F9089550
:1049F000E1E0660F771F881FBB1F621773078407EC
:104A0000BA0720F0621B730B840BBA0BEE1F88F7FA
:104A1000E09508950E9411256894B1110C945226D6
:104A200008950E94372688F09F5798F0B92F99274C
:104A3000B751B0F0E1F0660F771F881F991F1AF089
:104A4000BA95C9F714C0B13091F00E945126B1E077
:104A500008950C945126672F782F8827B85F39F076
:104A6000B93FCCF3869577956795B395D9F73EF422
:104A700090958095709561957F4F8F4F9F4F0895CA
:104A8000E89409C097FB3EF49095809570956195E8
:104A90007F4F8F4F9F4F9923A9F0F92F96E9BB279E
:104AA0009395F695879577956795B795F111F8CF1A
:104AB000FAF4BB0F11F460FF1BC06F5F7F4F8F4F85
:104AC0009F4F16C0882311F096E911C0772321F07B
:104AD0009EE8872F762F05C0662371F096E8862F13
:104AE00070E060E02AF09A95660F771F881FDAF76A
:104AF000880F9695879597F90895990F0008550F97
:104B0000AA0BE0E8FEEF16161706E807F907C0F053
:104B100012161306E407F50798F0621B730B840B5B
:104B2000950B39F40A2661F0232B242B252B21F435
:104B300008950A2609F4A140A6958FEF811D811DD5
:104B4000089597F99F6780E870E060E008959FEF0F
:104B500080EC0895DF93CF931F930F93FF92EF9212
:104B6000DF927B018C01689406C0DA2EEF010E946F
:104B70007826FE01E894A5912591359145915591AE
:104B8000A6F3EF010E94CB23FE019701A801DA945E
:104B900069F7DF90EF90FF900F911F91CF91DF9118
:104BA000089500240A941616170618060906089593
:104BB00000240A94121613061406050608950C9490
:104BC000A7250E943726D8F3E894E0E0BB279F573B
:104BD000F0F02AED3FE049EC06C0EE0FBB0F661F78
:104BE000771F881F28F0B23A62077307840728F0FE
:104BF000B25A620B730B840BE3959A9572F7803867
:104C000030F49A95BB0F661F771F881FD2F7904824
:104C10000C942A27092E0394000C11F4882352F0D7
:104C2000BB0F40F4BF2B11F460FF04C06F5F7F4FD8
:104C30008F4F9F4F0895EF93E0FF07C0A2EA2AED40
:104C40003FE049EC5FEB0E94CB230E940A260F90C5
:104C5000039401FC9058E5E1F1E00C943D2757FDE9
:104C60009058440F551F59F05F3F71F04795880FDA
:104C700097FB991F61F09F3F79F087950895121671
:104C800013061406551FF2CF4695F1DF08C016161D
:104C900017061806991FF1CF8695710561050894CE
:104CA0000895E894BB2766277727CB0197F90895E5
:104CB0000E947D2508F48FEF08959B01AC0160E010
:104CC00070E080E89FE30C9424270E9478260C94DF
:104CD0000A260E94D12538F00E94D82520F095237D
:104CE00011F00C94A1250C94A72511240C945226A4
:104CF0000E942F2670F3959FC1F3950F50E0551F2A
:104D0000629FF001729FBB27F00DB11D639FAA2720
:104D1000F00DB11DAA1F649F6627B00DA11D661F6F
:104D2000829F2227B00DA11D621F739FB00DA11D90
:104D3000621F839FA00D611D221F749F3327A00D4A
:104D4000611D231F849F600D211D822F762F6A2FE6
:104D500011249F5750409AF0F1F088234AF0EE0F4B
:104D6000FF1FBB1F661F771F881F91505040A9F778
:104D70009E3F510580F00C94A1250C9452265F3F74
:104D8000E4F3983ED4F3869577956795B795F795B4
:104D9000E7959F5FC1F7FE2B880F911D969587952C
:104DA00097F908959F930E94E1250F9007FCEE5F0D
:104DB0000C941B2619F416F40C94A7250C942827A0
:104DC0000E943726B8F39923C9F3B6F39F57550BC2
:104DD00087FF0E9436270024A0E640EA9001805811
:104DE0005695979528F4805C660F771F881F20F0F2
:104DF00026173707480730F4621B730B840B2029F2
:104E000031294A2BA69517940794202531254A2746
:104E100058F7660F771F881F20F0261737074807B7
:104E200030F4620B730B840B200D311D411DA095D6
:104E300081F7B901842F9158880F96958795089529
:104E40009B01AC010C9465260E94AC240C940A26AC
:104E50009F3F31F0915020F4879577956795B795EE
:104E6000880F911D9695879597F908959150504018
:104E7000660F771F881FD2F708959F938F937F93B4
:104E80006F93FF93EF939B01AC010E946526EF9116
:104E9000FF910E94AA252F913F914F915F910C9411
:104EA0006526991B79E004C0991F961708F0961B98
:104EB000881F7A95C9F78095089597FB072E16F4F9
:104EC000009407D077FD09D00E94772707FC05D012
:104ED0003EF4909581959F4F0895709561957F4F11
:104EE0000895EE0FFF1F0590F491E02D0994AA1B81
:104EF000BB1B51E107C0AA1FBB1FA617B70710F0C5
:104F0000A61BB70B881F991F5A95A9F780959095F6
:104F1000BC01CD01089581E090E0F8940C949727AE
:104F2000FB01DC0101900D920020E1F70895F89457
:024F3000FFCFB1
:104F3200CDCC4C3E0A0A0000C8420000C842000024
:104F4200C8420000C8420000C8420000C842000037
:104F5200C8420000C8420000C8420000C842000027
:104F6200C8420000C8420000C8420000C842000017
:104F7200C8420000C8420000C8420000C842000007
:104F8200C8420000C8420000C8420000C8420000F7
:104F9200C8420000C8420000C8420000C8420000E7
:104FA200C8420000C8420000C8420000C8420000D7
:104FB200C8420000C8420000C8420000C8420000C7
:104FC200C8420000C8420000C8420000C8420000B7
:104FD200C8420000C8420000C8420000C8420000A7
:104FE20000000000C8420000C842000000000000AB
:104FF200C8420000C842000000000000C842000091
:10500200C842000000000000C8420000C842000080
:1050120000000000C8420000C8420000000000007A
:10502200C8420000C842000000000000C842000060
:10503200C842000000000000C8420000C842000050
:1050420000000000C8420000C84200000000646482
:10505200646464646464646464646464646464640E
:105062006464646400006464000064640000646456
:10507200000064640000646400006464000064640E
:105082000000646400006464000064646464646436
:1050920064646464050101010101010101182AFF30
:1050A200FFFFFF00E100000000000001010000001E
:1050B20000C18081000000001405010100190501F2
:1050C200FF010A0501FF010A02000001020A01FFB5
:1050D20000140E03FF00000000AF033004D003C52C
:1050E200031604D403F203000000008A0E7C09A810
:0650F20009A7090D0A00E8
:00000001FF
