:100000000C9429050C9451050C9451050C94510540
:100010000C9451050C9451050C9451050C94510508
:100020000C9451050C9451050C94871F0C94F91FE6
:100030000C9451050C9451050C9451050C945105E8
:100040000C9451050C944F1B0C9451050C945105C4
:100050000C9451050C9451050C9451050C94051BFE
:100060000C9451050C9451050C9451050C945105B8
:100070000C9451050C9451050C9451050C945105A8
:100080000C9451050C9451050C9451050C94510598
:100090000C9451050C9451050C9451050C94510588
:1000A0000C9451050C9451050C945105F028F62838
:1000B000FC280829142969296929692920292C295A
:1000C00038294429522969295B29151A181A071A4F
:1000D0000B1A111A391A391A391A1C1A201A241A29
:1000E0002A1A2E1A391A341A08080008001838B4C7
:1000F00000100808FF81FFA3C5FF81FF0808002446
:10010000187E3C7E3C0008080000183C18240000C3
:10011000450084010000484947482053434F524559
:100120005300177361766500166261636B00157486
:10013000797065000A0A0A153A6F6B617920163AE0
:100140006564697400596F7520656E7465726564C5
:100150000A0045004001418149788D782C05000056
:1001600045000181307F000045002C010000450062
:1001700054010000450049707C014D782C040000BA
:100180004F7574206F6620616D6D6F210045004CC6
:1001900001000074016E01680160015201450049CF
:1001A000784D78280A0000526566696C6C65642099
:1001B00021000500400150015C01700180016C01CB
:1001C00054016001740184014C015C0168017C01EF
:1001D0008C010000557067726164656420210045E0
:1001E00061726E20243520666972737400153A615D
:1001F0006363657074002063726162732E000A622B
:1002000079206B696C6C696E670A00596F75206D97
:1002100061646520240047414D45204F56455221D9
:10022000004E4557204849474853434F52450047E1
:10023000414D45204F5645522100450064050000C0
:100240000808000C1C181000000008086C9282447A
:100250002810000008086CFEFE7C3810000008081A
:10026000003C5A7E7E7E3C00153A73686F6F7420A6
:10027000163A72756E004C4554275320474F2100A3
:100280000101FF030101F7034D61696E204D656EA9
:10029000750053797374656D20496E666F00486907
:1002A00067682073636F726573005265737461725F
:1002B0007400506C61790084028002000000002408
:1002C0000027002A002D003000D5F08D14A1C88130
:1002D000CFD9F1AF200000000000250028002B003E
:1002E0002E00310005008930080238024978681470
:1002F00000002F00566F6C756D653A004261636BAC
:100300006C696768743A004C696768743A002F3406
:1003100000426174206C766C3A006D560042617444
:100320003A0005077F4141417F3E5B4F5B3E3E6B9C
:100330004F6B3E183C783C18183C7E3C181C577D8F
:10034000571C1C5E7F5E1C007E43437E007E7373E1
:100350007E007E7F7F7E7F4141417F30483A060E9E
:1003600006297929067F4141417F60703F02042AB6
:100370001C361C2A7F3E1C080000081C3E7F1422ED
:100380007F22143C3C3C7EFF18423C817E3E6375DC
:10039000633E3E616B633E3E636B6B3E04027F02D5
:1003A0000410207F201008082A1C08081C2A0808AE
:1003B000143E554122637569756310181C181004AA
:1003C0000C1C0C04000000000000005F000000078F
:1003D000000700147F147F14042A7F2A10231308B7
:1003E000646236495620500008070300001C224171
:1003F000000041221C002A1C3E1C2A08083E080856
:1004000000E0600000080808080800606000006064
:10041000100804033E5149453E00427F40006251AE
:100420004949462141494D331814127F102745454B
:1004300045393C4A49493041211109073649494962
:1004400036064949291E000024000000806400008F
:100450000814224100141414141400412214080238
:10046000015909063E415D594E7C1211127C7F49AB
:100470004949363E414141227F4141221C7F494941
:1004800049417F090909013E414151327F0808086D
:100490007F00417F41002041413F017F08142241FC
:1004A0007F404040407F020C027F7F0204087F3E75
:1004B0004141413E7F090909063E416141BE7F0934
:1004C000192946264949493201017F01013F40402F
:1004D000403F1F2040201F3F4038403F6314081416
:1004E0006303047804036151494543007F4141009F
:1004F00003040810600041417F00040201020480EF
:1005000080808080000307080020545478407F28B2
:100510004444383844444428384444287F385454A8
:100520005418087E09090218A4A49C787F080404C2
:100530007800447D4000006080847D7F1010284456
:1005400000417F40007C047804787C0804047838FB
:1005500044444438FC1824241818242418FC7C082B
:100560000404080854545420043F4444203C4040B0
:10057000207C1C2040201C3C4020403C442810286B
:10058000444C9090907C4464544C440008364100A4
:1005900000007F00000041360800180408100C7F9E
:1005A0004141417F03053F213F1208120A100A0E04
:1005B0001C0E0C1E0C141A14161F161E131E1E1BC6
:1005C0001E1E1F1E3F213F3A2F3A173D173F213F66
:1005D000181F02040A041F0E04040E1F0A1F0A0E2D
:1005E0000E1F04110E2E252E2F2A2E262929021F1A
:1005F00002081F08150E04040E150E15151B151BF9
:10060000040604040C040000000017000300031F8C
:100610000A1F16371A1904130A153A000300000EB0
:1006200011110E000A040A040E0400300004040430
:100630000010001804031F111F121F101D151711A1
:10064000151F07041F17151D1F151D01011F1F155D
:100650001F17151F000A00003200040A110A0A0AB7
:10066000110A040115020E11171E051E1F150A0E90
:10067000110A1F110E1F15111F05010E111D1F0458
:100680001F111F1108100F1F041B1F10101F061F22
:100690001E040F0E110E1F09060E112E1F051A1231
:1006A0001509011F011F101F0F180F1F0C1F1B041E
:1006B0001B031C03191513001F11030418111F003D
:1006C0000201022020200001020C121E1F120C0C3D
:1006D00012120C121F0C1A14041E05242A1E1F02CB
:1006E0001C141D1020201D1F0814111F101E041E95
:1006F0001E021C0C120C3E0A040C123E1E040214B4
:10070000160A020F120E101E0E100E1E081E120CDC
:100710001226281E322A26041E21001F00211E0434
:100720000102013F213FB202AA029E029202880208
:1007300017534400161378001613140015102000E8
:1007400015201000540A03E181867F3E186D830F47
:100750000F0E0183866033186DC3198F1803C38E83
:100760006033186DE330CF1803C39E603630CDE39D
:1007700060CF3006C79E7E3E30CDB360CF300CC612
:10078000F6603330D9B660CF33CFCCF66061B0DBE2
:100790001E60CF30D86CE6C061B0DB1E618F199847
:1007A0006CC6C063B19B0E330F0FB078C6FF7E1FBF
:1007B0001B061E0F4024FFFFFFFFFFFFFFFF80000F
:1007C00000000001414180000180060414118000F6
:1007D00001800600808180000180060000418F3F7B
:1007E00079B9EF9E7E1199BBCDFB3633762199B353
:1007F0000D983633664598307D99F633600398300E
:10080000CD9B363361419830CD9B3633641599B01A
:10081000DD9B76336089CF30FDF3F39E604180002D
:10082000000000000515A0000000002080A1C0000D
:10083000180C00000FF59000245280F00813D0022D
:10084000AC5681F80FF1994334DAE1F80A35954254
:10085000255281F80C59DDC219CC61680FF1804036
:10086000000000F008158080000000000FF1C000BB
:10087000000006000005800000000F000003C0001B
:100880000000060000019000000009000005800043
:10089000000000000009C14000000000000193D0EA
:1008A000000000000005A3E000000006000183E056
:1008B0000545400F054583D0020200060203814032
:1008C0000141400901418000041410000415FFFF9C
:1008D000FFFFFFFFFFFF00450068010000F6E8DBB7
:1008E000CFC3B8AEA49B928A827B746E68625C5759
:1008F000524E4945413E3A3734312E2C2927252383
:10090000211F1D1C1A1917161514131211100F0E82
:100910000D0C0B0A090807060500380168010000E4
:100920000500680138010000080B00020202010006
:100930000904000001020200000524001001052442
:1009400001010104240206052406000107058103B4
:1009500010004009040100020A000000070502021D
:10096000400000070583024000000403090412014F
:100970000002EF0201404123368000010102030121
:1009800041726475696E6F204C4C4300417264750E
:10099000696E6F204C656F6E6172646F00000000BD
:1009A000002300260029002C002F00040404040466
:1009B0000304050202020204030202020206060602
:1009C00006060604040202020404040802011040A0
:1009D00080401020408040800802040180402010A8
:1009E0000201108010204040200000000200090F8A
:1009F0000000030401000C000000000000000000E3
:100A000000000000000000004D4734320052504703
:100A100000414B343700503930002E33353700CF8A
:100A2000CF804001FC39E00C06871FC3C181013C27
:100A30003307E08409C1CF080854201441880451C9
:100A40000A696E66001A0A160A110A0D0A080A00D7
:100A5000162C11241FBECFEFDAE0DEBFCDBF11E0B0
:100A6000A0E0B1E0EAE9FAE502C005900D92A637F0
:100A7000B107D9F725E0A6E7B1E001C01D92A93E74
:100A8000B207E1F715E0C9E2D5E004C02197FE0105
:100A90000E942A2DC832D107C9F70E9440270C9422
:100AA0004B2D0C940000089580E090E00895DF92B3
:100AB000EF92FF920F931F93CF93DF930E9429151C
:100AC0008823E1F362E070E080E090E00E946A1920
:100AD000675F60936E0562E070E080E090E00E94E6
:100AE0006A1960936F0566E171E085E695E00E9402
:100AF000E91910926A0510926E0580916D05809338
:100B00006F05C5EBD2E00FEB12E0DD24D3947E013C
:100B100088819981892B21F48DE20E94D22305C01E
:100B2000B80185E695E00E94D41980916C05982F54
:100B3000990F890F81958C5A80936E0580916D0570
:100B4000D89E802D112480936F052296F701808115
:100B500091810E94DD23D394055F1F4FF6E0DF12E1
:100B6000D6CF80912C05813049F080912D058130C0
:100B700029F080912E05813009F0A0CF8CE395E01B
:100B8000DF91CF911F910F91FF90EF90DF900C9428
:100B9000E11B2F923F924F925F927F928F929F9292
:100BA000AF92BF92CF92DF92EF92FF920F931F937B
:100BB000CF93DF9300D000D0CDB7DEB7782E90E092
:100BC0008C010D561D4FD8014C91880F991FFC01C7
:100BD000ED58FD4F6F01608171819C012D5A3D4F91
:100BE0007901242FD7018D919C910E944726811174
:100BF0004DC09091F802E3E7F2E0FC83EB8323E53C
:100C000032E03A832983E3E9F2E0160127012E2F2F
:100C1000A3E9B2E02A1B2917C8F5721641F1208119
:100C2000AB81BC81CD90DC90A981BA816D917C9122
:100C3000D8014C9150E0D101ED90FC90D201AD90E3
:100C4000BC904501840E951E6815790584F430E04A
:100C5000620F731FA616B70654F44E0D5F1DC4161F
:100C6000D5062CF42C0D3D1DE216F30674F03196DA
:100C70002B813C812E5F3F4F3C832B8349815A81DE
:100C80004E5F5F4F5A834983C2CF81E00F900F9030
:100C90000F900F90DF91CF911F910F91FF90EF90E8
:100CA000DF90CF90BF90AF909F908F907F905F909C
:100CB0004F903F902F9008959F92AF92BF92CF9206
:100CC000DF92EF92FF920F931F93CF93DF93982EB3
:100CD000C82FD0E0DE01AD56BD4F84E08C93FE01FD
:100CE000EA52FE4F8AE080838091F601811112C0A2
:100CF0009091F701292F30E02330310514F0915005
:100D000001C091E09093F7019093F60186E08C93F7
:100D100084E680838E01000F111FA8014D5A5D4F9C
:100D20007A010D581D4F30E8A32EB12C40E6C42E99
:100D3000D12C60E270E080E090E00E946A19660FBA
:100D4000771F660F771FF7017183608368E170E09A
:100D500080E090E00E946A19660F771F660F771F88
:100D6000F80171836083892D0E94C9058111E1CF4B
:100D7000F7018081918180589F4F2091A702309187
:100D8000A802821B930BB5010E94162D8435910594
:100D900084F2F80120813181205A3F4F8091A502D1
:100DA0009091A602A901481B590BCA01B6010E94E5
:100DB000162DC0970CF4BDCF0E94832CC850DE4F77
:100DC00024E030E040E050E00E94A72C688381E0FE
:100DD000DF91CF911F910F91FF90EF90DF90CF9017
:100DE000BF90AF909F900895CF93DF93EC01FB01EC
:100DF000DA018C91813099F058F08230B9F083306B
:100E000001F588819981820F911D27FD9A9517C060
:100E100080819181821B910927FD93950DC0888166
:100E20009981821B910927FD939509C08081918149
:100E3000820F911D27FD9A959183808302C099832B
:100E400088838881998180589F4F60E870E00E9474
:100E5000162D9983888380819181805A9F4F60E607
:100E600070E00E94162D91838083DF91CF910895C9
:100E7000CF93DF93FB01EA014091A7025091A802B2
:100E8000841B950B089697FD03C08F77992706C0A2
:100E900060E870E00E94162D80589F4F0897998354
:100EA00088838091A5029091A602AF01481B590B3F
:100EB000CA01089660E670E097FD03C00E94162DF7
:100EC00004C00E94162D805A9F4FAC014850510912
:100ED000F90151834083888199818535910524F4F6
:100EE00081E0413351050CF080E0DF91CF9108950E
:100EF0002F923F924F925F926F927F928F929F922A
:100F0000AF92BF92CF92DF92EF92FF920F931F9317
:100F1000CF93DF9300D000D01F92CDB7DEB7382E2D
:100F2000C82ED12C70E0CB01865C9D4F2C01DC01DA
:100F30008C9190E0F601EA52FE4FDC01AA5EBE4FB2
:100F400020802C91221A2082FC01EF5EFE4F30811E
:100F5000F601ED56FD4F5F018081863011F4369524
:100F60003695CB01805D9D4F7C018601000F111FDE
:100F7000D801AD58BD4F3D01F801ED5AFD4F4F016D
:100F8000232FA701BD01CF013D830E94F406832DCD
:100F90000E94C9053D81882339F0232F2195A7019F
:100FA000B301C4010E94F406F601E850FE4FD701D8
:100FB0008C9190E0029683709927808312140CF430
:100FC0009FC08091E3059091E40501969093E4051C
:100FD0008093E3058091F6029091F7020196909339
:100FE000F7028093F6028091F60181508093F6011A
:100FF000F2018081833039F040E060E171E08CE300
:1010000095E00E94A81BD5018C91863049F480910F
:10101000E3059091E40504969093E4058093E3053D
:10102000F801ED58FD4F20813181F801ED5AFD4F57
:1010300040815181E6EEF1E080E090E06191611144
:101040001EC0FC01EA51FE4F61E060837C01EE0CA2
:10105000FF1CF701EA54FE4F51834083F701EA5623
:10106000FE4F3183208365E070E080E090E00E94D5
:101070006A19F701EA58FE4F7183608304C0019634
:1010800080319105D9F6F801ED58FD4F60817181ED
:10109000F801ED5AFD4F9E012F5F3F4FAE014D5FAE
:1010A0005F4F808191810E943807882361F0F501AC
:1010B00020812F5F498141506B816150022F85E66D
:1010C00095E00E94B71D832D0E945C062091F802D6
:1010D0002031B0F48091F6029091F70266E070E062
:1010E0000E94162D6D5F7F4F822F90E06817790761
:1010F0003CF081E0820F8093F802822F0E945C0610
:101100000F900F900F900F900F90DF91CF911F9144
:101110000F91FF90EF90DF90CF90BF90AF909F9096
:101120008F907F906F905F904F903F902F90089599
:10113000FF920F931F93CF93DF9300D000D0CDB7D2
:10114000DEB7F12C8091F802F81698F50F2D10E01B
:10115000C801880F991FFC01ED58FD4F6081718116
:10116000FC01ED5AFD4F9E012F5F3F4FAE014D5FD9
:101170005F4F808191810E9438078823C1F0F80178
:10118000ED56FD4F9081F801E850FE4F69818B814B
:10119000963031F06250208146E051E0825005C027
:1011A000615020814CEF50E081500E940223F39463
:1011B000C9CF0F900F900F900F90DF91CF911F919B
:1011C0000F91FF900895CF93DF9300D000D0CDB75B
:1011D000DEB760915102709152029E012F5F3F4F26
:1011E000AE014D5F5F4F80914F02909150020E947F
:1011F0003807882341F022EF30E049816B8185E692
:1012000095E00E94FA1B0F900F900F900F90DF91C6
:10121000CF9108950F931F93CF93DF9300D000D009
:10122000CDB7DEB711E060E170E080E090E00E94B1
:101230006A1983E0660F771F8A95E1F77093500271
:1012400060934F026CE070E080E090E00E946A19C9
:1012500093E0660F771F9A95E1F7709352026093BF
:10126000510228E048E080914F02909150020E9484
:101270004726082F60915102709152029E012F5F04
:101280003F4FAE014D5F5F4F80914F0290915002F2
:101290000E9438078111C7CF011729F20F900F90D4
:1012A0000F900F90DF91CF911F910F9108952F9282
:1012B0003F924F925F926F927F928F929F92AF92E6
:1012C000BF92CF92DF92EF92FF920F931F93CF9333
:1012D000DF93CDB7DEB72D970FB6F894DEBF0FBE04
:1012E000CDBF2091E3053091E4058091BD0290913E
:1012F000BE02821793070CF04DC262E273E085E6EE
:1013000095E00E94E61B109269051092F502A0E399
:10131000CA2EB4E5DB2E12E0E12EF12C10E00AEF2C
:10132000502E82E0682E712C90E3492E0E942915E0
:101330008823E1F380912B058F3F21F0837081306A
:1013400009F4A1C2809129058F3F21F0837081307B
:1013500009F49DC280912A058F3F21F0837081306E
:1013600009F499C2809128058F3F21F08370813064
:1013700009F495C280E1F81629F0F7FE04C0FFE0F9
:10138000FF2E01C0F12C98E0E91629F0E7FE04C019
:10139000E7E0EE2E01C0E12C90916D0580916C0587
:1013A00080958F9D802D1124895D8D2CDD0C9908F1
:1013B000880E911C87FD9A9497FE03C0EFEF8E1A5A
:1013C0009E0A95948794382CD82C84E1891B90959B
:1013D0009E9D800D1124AC2CCC0CBB08A80EB11C1A
:1013E00087FDBA94B7FE03C0FFEFAF1ABF0AB594EA
:1013F000A7942A2CCA2C80912C05813021F51A3013
:10140000D4F42F2D80E1E89E200D1124222309F42D
:101410008DCF2A3009F48ACF2D3009F487CF812F60
:10142000012E000C990BFC01E551FD4F2083FC01BE
:10143000E451FD4F10821F5F8CE395E00E94E11B99
:101440001C300CF01BE080912D05813081F411508F
:101450008CE395E00E94DC1B17FD08C0E12F012EF4
:10146000000CFF0BE551FD4F108201C010E0809190
:101470002E058130E9F58CE395E00E94E11B0E9486
:1014800029158823E1F365E471E085E695E00E9483
:10149000E9196BEE72E085E695E00E94D41964E3E9
:1014A00071E085E695E00E94E91980912C05813074
:1014B000B9F48CE395E00E94E11B8091E3059091E3
:1014C000E4059093BE028093BD024DEBE42E42E012
:1014D000F42E0BEE12E05FEBC52E52E0D52E1DC1AF
:1014E00080912D05813059F68CE395E00E94DC1B3C
:1014F00070E050E030E0232F270F80916D05452FDD
:10150000589F400D1124420D80916C05632F389F28
:10151000600D1124630D01E085E695E03B875C8753
:101520007D870E94E01D3B853F5F5C857D85303176
:1015300011F75F5F705F5830E9F680916C05982D68
:10154000859D900D1124892F825080936E05809186
:101550006D058F5F8A0D80936F056EE271E085E601
:1015600095E00E94B01980916C05E82D859DE00DF5
:1015700011248E2F825080936E0580916D05880F07
:101580008E5F8A0D80936F0568E271E085E695E0D5
:101590000E94B01980916C05F82D859DF00D1124E5
:1015A0008F2F825080936E0580916D0590E001969B
:1015B000982F990F890F8A0D80936F0562E271E071
:1015C00085E695E00E94B019109274051092750599
:1015D00080916D054E2DE89E400D112442504A0D1C
:1015E00080916C056F2DF89E600D11246150680D7F
:1015F00027E085E695E00E94941DBB24B394B09249
:101600007405B092750530916D0540916C05E42F1D
:10161000F0E025E0230F4E5FCF010197B3010E9458
:10162000162D480F6E2DE39E600D112463506A0D38
:101630008F2DFE9E800D11248250880D0E948C24D7
:1016400080916D054EE2481B24E560E085E695E05B
:101650000E94941D109274051092750580916D057D
:1016600001E0080F4FE2481B24E560E085E695E0C5
:101670000E94B71D10926E0580916D05942D981BE8
:1016800090936F05B0927405B09275056BEE72E0A1
:1016900085E695E00E94D41980917C0590917D05A6
:1016A000A0917E05B0917F0587709927AA27BB2757
:1016B0000497A105B10508F039CE1A300CF036CEEA
:1016C00080916D05442D481B60916C05169F602D1F
:1016D000112401E02FE585E695E00E94E01D26CE6D
:1016E0005801FBE0AF1AB108B501CE0101960E9486
:1016F000442DB801C5010E94442DBE016F5F7F4F8C
:10170000C8010E94442DF701718260829382828217
:101710008501F2E00F3B1F0749F0F701929082909C
:101720007F016280738086149704D4F235EBA32E78
:1017300032E0B32E0AE010E0E12CF12C48019AE0EF
:10174000891A9108F601EE0DFF1D6081C701880D11
:10175000991D0E94992C8FEFE81AF80A9AE0E91671
:10176000F10481F7F5016081C8010E94992CF5010F
:101770006181F2E0AF0EB11CC80101960E94992C64
:10178000045F1F4F8BE0C80ED11C06341105A1F673
:101790000E9457051092E4051092E3051092F7029B
:1017A0001092F6021092E8058FE097E29093E6051A
:1017B0008093E5051092E7051092A30286E08093DE
:1017C000A40280E18093F7018093F60184E0809386
:1017D000F8022FE0E22E27E2F22E60E170E080E0D6
:1017E00090E00E946A1983E0660F771F8A95E1F7FF
:1017F0007093AC026093AB026CE070E080E090E02C
:101800000E946A1993E0660F771F9A95E1F770932B
:10181000AA026093A90226E046E08091AB02909173
:10182000AC020E9447268111D8CF8091AB029091E3
:10183000AC0287979093A8028093A7028091A90297
:101840009091AA0245979093A6028093A502909149
:10185000F802A3E5B2E0E3E7F2E080E0891731F0B7
:10186000ED92FD92E192F1928F5FF8CF10E08091BE
:10187000F8021817C0F4812F0E945C06882309F42F
:10188000ACCF1F5FF4CFE3940E941A185BCDEA94AB
:101890000E941A185FCDF3940E941A1863CDFA942F
:1018A0000E941A1867CD0E940A09E4E4F2E08AE077
:1018B0008E0F11928E13FDCFE6EEF1E080E18E0FD8
:1018C00011928E13FDCF10924E022D960FB6F89402
:1018D000DEBF0FBECDBFDF91CF911F910F91FF9063
:1018E000EF90DF90CF90BF90AF909F908F907F90C0
:1018F0006F905F904F903F902F900895EF92FF92DE
:101900000F931F93CF93DF9300D000D0CDB7DEB7F6
:1019100086EEE82E81E0F82E00E010E0F7018081ED
:10192000882319F1F801EA56FE4F608171819E010A
:101930002F5F3F4FAE014D5F5F4FF801EA54FE4FFE
:10194000808191810E943807882369F06981625003
:101950008B81F801EA58FE4F208148EE50E082501A
:101960000E94022302C0F7011082FFEFEF1AFF0A64
:101970000E5F1F4F0032110589F60F900F900F90E8
:101980000F90DF91CF911F910F91FF90EF900895ED
:101990008F929F92AF92BF92CF92DF92EF92FF927F
:1019A0000F931F93CF93DF9300D000D0CDB7DEB756
:1019B0008CE1882E82E0982E98E0A92E92E0B92E34
:1019C0002AE3C22E22E0D22E34E4E32E32E0F32EBC
:1019D0001AE01E0DD7018D917D01882331F1F401AC
:1019E000608171819E012F5F3F4FAE014D5F5F4F60
:1019F000D5018D919C910E9438078823B1F0D601C2
:101A0000EC91F0E0E15DFE4F2081213039F4498115
:101A10006B8185E695E00E943C1D07C0022F49813D
:101A20006B8185E695E00E94B71DB2E08B0E911C9C
:101A3000E2E0AE0EB11CFFEFCF1ADF0A1E11CACFD3
:101A40000F900F900F900F90DF91CF911F910F91FA
:101A5000FF90EF90DF90CF90BF90AF909F908F90CE
:101A600008952F923F924F925F926F927F928F9242
:101A70009F92AF92BF92CF92DF92EF92FF920F931D
:101A80001F93CF93DF93CDB7DEB72F970FB6F894A0
:101A9000DEBF0FBECDBF10922F0510E002E0B6E012
:101AA000FB2E80E1E82E1A3091F00E942915882340
:101AB000D1F300936B05F0926E05E0926F0566E737
:101AC00072E085E695E00E94B0191F5FECCF81E0DF
:101AD00080936B0588E692E0909392058093910540
:101AE00088E4809390050E9429158823E1F3809172
:101AF0002E058130E9F48CE395E00E94DC1B2F96E3
:101B00000FB6F894DEBF0FBECDBFDF91CF911F910E
:101B10000F91FF90EF90DF90CF90BF90AF909F908C
:101B20008F907F906F905F904F903F902F9008958F
:101B300080912A0581508E3F10F483E029C2809164
:101B4000280581508E3F08F422C290E080912B0539
:101B500081508E3F08F020C282E08093B402109141
:101B6000B302212F44EB52E069EA72E08BEA92E083
:101B70000E94F4066091A9027091AA0226E046E054
:101B80008091AB029091AC020E944726882351F0CD
:101B9000212F219544EB52E069EA72E08BEA92E052
:101BA0000E94F4068091AB029091AC0287979093CB
:101BB000A8028093A7028091A9029091AA0245975A
:101BC0009093A6028093A5028091A302882309F432
:101BD0005FC081508093A3026091B20270E09B01CC
:101BE0002F5F3F4F032E000C440B550B71956195F1
:101BF0007109072E000C880B990B0E948E19009119
:101C0000A7021091A802012E000C220B330BDC015D
:101C1000CB01800F911FA21FB31F9093A802809346
:101C2000A7026091B20270E09B012F5F3F4F032E2D
:101C3000000C440B550B719561957109072E000C32
:101C4000880B990B0E948E190091A5021091A60293
:101C5000012E000C220B330BDC01CB01800F911FF6
:101C6000A21FB31F9093A6028093A50220911C058A
:101C7000269526958091B202289F90011124032E6B
:101C8000000C440B550B60E070E0CB010E948E19F4
:101C90006091A5027091A6028091A7029091A8027E
:101CA0000E94BB266091A9027091AA029E012B5F3F
:101CB0003F4FAE01495F5F4F8091AB029091AC0204
:101CC0000E9438076D8161508F812091B4024EE5EA
:101CD00052E081500E940223B12CA0E8AA2E8091EC
:101CE000F802B81608F06DC00B2D10E09801220F15
:101CF000331FF901ED5AFD4F208031806090A7021B
:101D00007090A802F901ED58FD4F408051808090FD
:101D1000A5029090A6028091AB029091AC02A10125
:101D2000481B590BCA0157FF03C091958195910932
:101D3000682FAC0155274034510514F06A2D681BFB
:101D40006437E8F58091A9029091AA02B201681B5C
:101D5000790BCB0177FF03C0919581959109682F8D
:101D6000AC0155274033510514F060E6681B60351F
:101D700030F508501E4FF901ED58FD4F6F01A901D4
:101D80004D5A5D4F7A0121E0A801BF01C7010E94B1
:101D9000F4068B2D0E94C905882309F409C12FEF91
:101DA000A801B601C7010E94F4060E94832C24E01A
:101DB00030E040E050E00E94A72CD8016C93B3942F
:101DC0008ECF0E9498088091E705882319F08150F2
:101DD0008093E70580912C0581508E3F08F0CFC09D
:101DE00080912D0581508E3F08F4C9C02091E505F2
:101DF0003091E6052115310509F461C18091E705AF
:101E00008111BDC0E4E4F2E000E010E0302E8191E9
:101E100081114EC181E0F801EC5BFD4F8083809120
:101E2000E805F801E65CFD4F808390E0FC01EB5D86
:101E3000FE4F40814093E705215031093093E6057C
:101E40002093E505FC01E05EFE4FC080FC01E15DF2
:101E5000FE4F80814C2C80FD03C14194A090AB02C9
:101E6000B090AC020C2C000CDD08BFEFCB1ADB0AE3
:101E70000D2C000CEE08FF08042C000C5508660819
:101E80007708A7019601C301B2010E948E1948018B
:101E9000880C991CD401A85FBD4FE3E0AE0EB11CC5
:101EA000E091E805F0E0E15DFE4F20812695A21A61
:101EB000B1086A0D7B1D6D937C93A090A902B09030
:101EC000AA02A7019601C301B2010E948E192091B6
:101ED000E805E22FF0E0A401445E5D4F4A0153E0C3
:101EE000A50EB11CAF01415D5E4FDA013C91369504
:101EF000A31AB108A501460F571FD4014D935C9357
:101F0000D801A05DBD4F8091B4028C933092AD0298
:101F1000213009F0A7C080917C0580FFA6C0809188
:101F2000E805813009F4ADC0E091E805F0E0E55E38
:101F3000FE4F0081202F219544EB52E069EA72E0C8
:101F40008BEA92E00E94F40610E0101771F06091A5
:101F5000A9027091AA0226E046E08091AB0290911E
:101F6000AC020E944726811198C08091E805843018
:101F700031F481E08093B20282E08093A3028091E9
:101F80002D0581508E3F08F0B8C082E0B7C081E0D7
:101F90008093B40291E0DACD8091290581508E3F83
:101FA00020F0992309F4FECDDACD1092B402D7CDFA
:101FB00060E270E080E090E00E946A19672B682B75
:101FC000692B59F40E94832C24E030E040E050E07B
:101FD0000E94A72CF8016083F2CE60E170E080E0FF
:101FE00090E00E946A19672B682B692B09F0E7CEF5
:101FF00062E070E080E090E00E946A19672B682B35
:10200000692BB9F0C10180589F4F8619970960E884
:1020100070E00E94162D2AE230E0281B390BC9011E
:102020001816190614F4E3E015C081E0D8018C936A
:10203000C6CEC201805A9F4F8819990960E670E0A8
:102040000E94162DE8E1F0E0E81BF90B1E161F06B2
:1020500024F4E2E0D801EC93B2CED8011C92AFCECA
:102060004094FCCE243009F456CFEE0FFF1FED56FE
:10207000FE4F6591749140E08CE395E00E94A81BAF
:102080004ECF0E94832C60FF4FCF40E06DE871E09F
:102090008CE395E00E94A81B47CF21E044EB52E07F
:1020A00069EA72E08BEA92E00E94F4061F5F4DCF6E
:1020B0000F5F1F4F0A30110509F0A8CE60CFE091E5
:1020C000E805E111E150E093E805F0E0EE0FFF1FB5
:1020D000EC5CFE4F808191819093E6058093E5054D
:1020E00084E18093E70580E891E0909392058093E6
:1020F00091058AE28093900542CF81E08093B302FC
:1021000034E4432E32E0532E08E012E04CE1642E1A
:1021100042E0742EE12CF12C58E0C52EED86F20140
:102120008081882309F49FC0F701E65CFD4FD080D1
:102130008D2D90E0FC01E15DFE4F2080FC01E65D0D
:10214000FE4F2081A701405D5D4FB301C8010E9491
:10215000F406D3016D917C91222D422DF8018081EE
:1021600091810E944726811110C09091F80223E7C7
:1021700032E03A87298743E552E05C874B8723E9C1
:10218000822E22E0922E312C3BC0D2011C92B3E071
:10219000DB1269C0F801808191819093B102809334
:1021A000B002D3018D919C919093AF028093AE02C7
:1021B000C0924E0240E06DE971E08CE395E00E9430
:1021C000A81B51C0F40121914F01A985BA85AD909A
:1021D000BD90BA87A987EB85FC8541915191FC8719
:1021E000EB87D3010D90BC91A02DBF87AE87F8017E
:1021F000A081B181BD01620D731D461757073CF0E8
:10220000882DE3E9F2E08E1B8917E0F22CC030E064
:10221000420F531FA417B5079CF74E855F85420DEB
:10222000531DA416B50664F72A0D3B1D4E855F8528
:10223000421753072CF753E0D51297C1B093B10260
:10224000A093B0026E857F857093AF026093AE025B
:10225000C0924E0240E06DE971E08CE395E00E948F
:10226000A81BD2011C92FFEFEF1AFF0A2FEF421AB0
:10227000520A0E5F1F4F32E0630E711C4AE0E416F3
:10228000F10409F04BCF0E94C80C80914E028823C4
:1022900009F48FC0815080934E0284E08093B20293
:1022A00082E08093A30266E070E080E090E00E940C
:1022B0006A191AE0160FC090B002D090B10268E01F
:1022C00070E080E090E00E946A19A12EA694B12CE3
:1022D000DC01CB010497A109B109B601680F791F90
:1022E0007B01EA18FB088090AE029090AF0268E094
:1022F00070E080E090E00E946A19DC01CB01049755
:10230000A109B109B401680F791F6B01CA18DB0874
:1023100000E0A12EB12C47018A0C9B1CAC0CBD1C0B
:102320008091F802081738F5402F50E0FA01ED5679
:10233000FD4F208130E0440F551FFA01ED58FD4F4D
:1023400080819181FA01ED5AFD4F40815181BA019E
:10235000620F731FE616F70664F4481559054CF42E
:10236000280F391FC216D30624F48A159B050CF4D6
:1023700000C10F5FD5CF9E012F5F3F4FAE014D5F74
:102380005F4FB601C7010E943807882391F082E0B1
:102390008093740580937505012F212F49816B81EE
:1023A00085E695E00E94B71D81E0809374058093D7
:1023B00075050E947E0C2091A9023091AA026091BD
:1023C000AB027091AC028091510290915202409107
:1023D0004F0250915002FA0136966E177F071CF596
:1023E0006A5F7F4F4E5F5F4F46175707E4F4AC01BB
:1023F0004A5F5F4F24173507B4F42A5F3F4F0296B8
:102400008217930784F48091E3059091E405059782
:102410000CF0B5C08FED91E09093920580939105FB
:102420008AE2809390050E94E308B6E5DB2E00E087
:1024300010E0EE24E394F090A4028F2D0F2C000CFA
:10244000990B801791071CF024E532E012C010921E
:1024500074051092750524E532E040E06D2D85E6A7
:1024600095E00E94FA1BE0927405109275052AE42B
:1024700032E040E06D2D85E695E00E94FA1B0E5F8C
:102480001F4F57EFD50E62E3D612D5CFF1100BC018
:1024900080917C0580FD0EC082E08093B20281E0D5
:1024A0008093A30207C071E0F71204C0F092B20259
:1024B000F092A302F0FE10C0F7FCF394F594F094B0
:1024C00069E0F69E602D11246A5A20E432E040E073
:1024D00085E695E00E94FA1B8091E5059091E6055E
:1024E000892B11F00E94ED250E94332710E002E0B5
:1024F000F4E0FF2EA3E0EA2E8091F802181708F00E
:10250000F2CA8091A9029091AA026091AB027091E7
:10251000AC02212F30E0F901ED56FD4FB0804B2D7C
:1025200050E0220F331FF901ED58FD4F0190F0816B
:10253000E02D2D5A3D4FD9012D913C916901C40EDA
:10254000D51E6C157D057CF46A5F7F4F2617370713
:1025500054F44E0F5F1F841795072CF40696E81766
:10256000F9070CF455C01F5FC7CF6D850E9478072F
:1025700078CE6091AD02802F0E947807FACE8091CC
:10258000E805843088F484ED91E09093920580937F
:1025900091058AE28093900540E062EB71E08CE364
:1025A00095E00E94A81B09C087EA91E090939205EC
:1025B000809391058AE2809390058091E305909144
:1025C000E40505979093E4058093E3050E940A09CA
:1025D000E091E8058E2F90E0049714F4EF5F01C0BE
:1025E000E4E0E093E805F0E0EE0FFF1FEC5CFE4F47
:1025F000808191819093E6058093E5058091A40206
:10260000853014F48F5F01C086E08093A4020BCF65
:102610008091A4029FEF980F9093A4020093B202BE
:10262000F092A30266E0B61205C082508093A40225
:10263000E092B20240E06AE372E08CE395E00E942F
:10264000A81B812F0E945C068091A40287FF8BCF7C
:1026500010E084E5D82EFF24F3949CE0E92E0E943C
:1026600029158823E1F30E9498080E94C80C0E9453
:102670007E0C0E94E3088091E5059091E605892B88
:1026800011F00E94ED250E9433276091A502709100
:10269000A6028091A7029091A8020E94BB266D819C
:1026A00061508F812091B4024EE552E081500E942A
:1026B0000223109274051092750500E3212F40E06B
:1026C00060E085E695E00E94B71D6D2D611B212F0E
:1026D00040E085E695E00E94B71DF09274051092E7
:1026E0007505E0926E05F0926F056FE272E085E687
:1026F00095E00E94B0191E5F1E3309F0B0CF1CE0B8
:10270000FF24F39408E20E9429158823E1F3209125
:10271000E3053091E4058091BD029091BE028217DD
:102720009307A4F462E070E080E090E00E946A19F0
:102730006E5F60936E0562E070E080E090E00E9462
:102740006A1960936F0561E272E006C010936E052E
:10275000F0926F0566E172E085E695E00E94B0199F
:1027600010926E0510936F056BE072E085E695E0C0
:102770000E94B0198091E3059091E4050E94FD1834
:102780006EEF71E085E695E00E94B0198091F60247
:102790009091F7020E94FD1866EF71E085E695E0E2
:1027A0000E94B01910926E0500936F056DEE71E0F6
:1027B00085E695E00E94B01980912C05813009F0E2
:1027C000A2CF8CE395E00E94E11B0E9457098BC9C0
:1027D000FC018091FD02811103C08FEF9FEF0895EE
:1027E0009FB7F89482E08093E9002091F20030E0F6
:1027F0001216130614F421E030E02115310559F0CA
:10280000289884E68093FC028091F1008083809177
:10281000F200882319F09FBFC90108958BE68093C9
:10282000E800F9CF2FB7F89483E08093E900909106
:10283000E800892F807295FF04C09091F20080E437
:10284000891B2FBF0895CF93DF931F92CDB7DEB7BB
:102850006983DC01ED91FC910280F381E02D41E080
:1028600050E0BE016F5F7F4F09950F90DF91CF91D0
:10287000089583E08093E9008091F200882319F0A5
:102880008AE38093E80008950E94121490E008956E
:10289000CF93DF931F92CDB7DEB7FC01848595857A
:1028A00097FD05C02FEF3FEF358724870BC0CE0182
:1028B00001960E94E813019719F4898190E002C003
:1028C0008FEF9FEF0F90DF91CF9108950F931F939C
:1028D000CF93DF931F92CDB7DEB78C01FC018485C7
:1028E000958597FF0EC0CE0101960E94E8130197CF
:1028F00019F4298130E002C02FEF3FEFF80135874E
:102900002487F801848595850F90DF91CF911F91E1
:102910000F910895FC018485958597FD0BC09FB7A5
:10292000F89482E08093E9008091F2009FBF90E0EC
:10293000019608959FB7F89482E08093E900809112
:10294000F2009FBF90E008958F929F92AF92BF9246
:10295000CF92DF92EF92FF920F931F93CF93DF936B
:102960005C016B017A0180910701882309F45BC047
:102970008091FD02882309F456C08091FB0280FFFC
:1029800005C08091E00082608093E000E70110E0E4
:102990000AEF83E0882E9AE3992E2097D9F10E94BE
:1029A000121481110AC0015009F43DC061E070E0C9
:1029B00080E090E00E94CB1AF0CF282F30E0C217C1
:1029C000D3070CF48C2F4FB7F8948092E9009091C4
:1029D000E80095FF1DC0282F30E0C21BD30BF60185
:1029E000982F915020F081918093F100FACFC20E80
:1029F000D31E112319F09092E80009C08091E800DD
:102A000085FD06C09092E80011E0209709F010E0E3
:102A10004FBFC3CF1111C3CF5D9884E68093FA02F4
:102A20001E141F0444F081E090E0F501938382833B
:102A300080E090E001C0C701DF91CF911F910F911D
:102A4000FF90EF90DF90CF90BF90AF909F908F90CE
:102A50000895DF92EF92FF920F931F93CF93DF932E
:102A60001F92CDB7DEB740918C0550918D056091D6
:102A70008E0570918F052FB7F8948091FB0490918B
:102A8000FC04A091FD04B091FE042FBF481B590B1C
:102A90006A0B7B0B80918B0590E0A0E0B0E0009189
:102AA000840510918505209186053091870584174E
:102AB0009507A607B70730F4011511052105310563
:102AC00009F06EC280E0012B022B032B09F0A9C292
:102AD0000E94102480913D05882309F4ADC08091A7
:102AE00051058111A9C08091490590914A05E09155
:102AF0004E05F0914F05EE0FFF1FE80FF91F4591AE
:102B000054914115510501F520914D05222331F0D5
:102B100010924F0510924E05FC0114C010923D0515
:102B200080913C05882341F080E00E941024E091D0
:102B30004E05F0914F052FC060E08CE395E00E94B8
:102B4000951B7AC0459154919A01369527953695F3
:102B5000279540FF51C0CA01B6E096958795BA9572
:102B6000E1F78F71952F96959695969590512F70C8
:102B7000223071F1F8F4211117C08B3008F08AE08F
:102B800080935205E0914E05F0914F053196F093F8
:102B90004F05E0934E05EE0FFF1F80914905909180
:102BA0004A05E80FF91FCECF213061F760E00E949F
:102BB0005124E8CF2330B1F0243021F72091400593
:102BC000829F802D11248093590590935A05DACF66
:102BD00020914005829F802D11248093550590936C
:102BE0005605D0CF20914005829F802D11248093DF
:102BF000570590935805C6CF2F73209350058091A9
:102C00004005859F802D1124809351051092610508
:102C10001092600510925F0581E0809353058093C8
:102C2000FE021092540580914E0590914F05019639
:102C300090934F0580934E0580915305882309F4A6
:102C4000E7C080915105811106C060E08CE395E0FA
:102C50000E94951BDDC081508093510580916105D4
:102C6000811148C020915F05309160052F5F3F4F73
:102C7000C901880F991FE0915B05F0915C05E80F91
:102C8000F91F65917491862F877080936205AB015F
:102C900063E0569547956A95E1F7CA019695879541
:102CA000972F96959695909363058F739091400515
:102CB000899F802D11248093610541704093020308
:102CC0003093600520935F0580915D0590E02817A3
:102CD000390780F020915E05222339F0821B91098B
:102CE0009093600580935F0505C060E08CE395E0FC
:102CF0000E94951B809161058150809361058091B0
:102D0000540521E0280F209354054091500530913F
:102D10006305340F80914805380F30933E0560916C
:102D20005705662371F070E0822F022E000C990B7C
:102D30000E94162D80915805869F300D11243093E6
:102D40003E0580913E0590E0CB966BE370E00E94DB
:102D5000162D80933E053091520530933F056091CA
:102D60005505662381F0062E000C770B822F022E6C
:102D7000000C990B0E94162D80915605869F300DF0
:102D8000112430933F05609159056623A1F0822FED
:102D9000220F990B70E00E94162DCB0162E070E0CB
:102DA0000E94162D20915A0590913F05289F900D65
:102DB000112490933F0580913F054F3341F08A30B5
:102DC0000CF089E087FD80E080933F0502C01092FF
:102DD0003F05F894E0913E05F0E0E352F74FE491AF
:102DE000E09301038091640590914105899F802DB6
:102DF000112490913F05899F802D112490916205A7
:102E0000899F802D1124809300038093FF02789482
:102E100080919005882309F456C08C3020F49CE002
:102E2000E92EE81A01C0E12CFF24F394F0926B051F
:102E3000109274051092750530916D051DE2D12E2A
:102E4000D31ADE0C03E0030F2EE44D2D63E085E67C
:102E500095E039830E94B71D39810CEF030F23E001
:102E6000D20E202F41E06D2D80E50E94D924202F25
:102E700042E06D2D83E00E94D924F0927405F09217
:102E8000750580916D0523E0280F612F681B6E0D7D
:102E900044E580E00E948C2484E080936E0580915C
:102EA0006D05E81A8E2D815D80936F056091910507
:102EB0007091920585E695E00E94B0198091900589
:102EC000815080939005809171058F5F809371058B
:102ED00083E0E82E83E0F82ED12C0E94342582E294
:102EE0000E94E625D3948D2D0E94E62587E00E945E
:102EF000E62581E20E94E62586E10E94E6258FE72D
:102F00000E94E625E0917805F09179059081809105
:102F10007B05892B8083E0917605F0917705908180
:102F200080917A0580958923808300E010E0F70185
:102F3000E00FF11F80810E94E6250F5F1F4F0435CF
:102F40001105A9F734E5E30EF11C86E0D812C5CFD0
:102F50008091690581110EC088EF91E0E3E0F3E014
:102F6000DF019C011D9221503040E1F710926E0567
:102F700010926F050E94A61A6093840570938505D0
:102F80008093860590938705209180053091810577
:102F9000621B730B709389056093880580E041C0C4
:102FA0002FB7F8948091FB049091FC04A091FD044C
:102FB000B091FE042FBF20918B05820F911DA11DA2
:102FC000B11D80938C0590938D05A0938E05B093D1
:102FD0008F0580917C0590917D05A0917E05B09133
:102FE0007F050196A11DB11D80937C0590937D0501
:102FF000A0937E05B0937F051092840510928505FD
:1030000010928605109287050E94A61A609380058B
:103010007093810580938205909383050E945525C6
:1030200081E00F90DF91CF911F910F91FF90EF9072
:10303000DF90089540E067ED78E08CE395E00C9434
:10304000A81BCF92DF92EF92FF920F931F93CF9323
:10305000DF9380918A05882309F4C6C010922F055A
:1030600081E080936B0510926A0510926905809348
:10307000740580937505C6EDD8E01CE00E94291503
:103080008823E1F3FE018491882319F000916D05F6
:1030900001C000E024E437E040E060E085E695E030
:1030A0000E94FA1B4CE0400F24EB37E060E085E61D
:1030B00095E00E94FA1B10926E0510936F0566ED65
:1030C00078E085E695E00E94B01980916C05982F14
:1030D000990F890F81958D5A80936E0580916D05AA
:1030E000982F990F890F8195835D80936F0580914B
:1030F0007C0584FF03C060E477E002C06CE377E006
:1031000085E695E00E94E91980916C05982F990F4A
:10311000890F81958D5A80936E0580916F058F5F21
:1031200080936F0580914105882319F068E377E06B
:1031300002C064E377E085E695E00E94E91980919A
:103140006C05982F990F890F81958D5A80936E0584
:1031500080916F058F5F80936F0560E377E085E670
:1031600095E00E94E91980912D05813089F48091C4
:1031700041058F5F082E000C990B6091420570E0AD
:103180006F5F7F4F0E94162D809341050E941A1891
:1031900080912C058130B9F080918A05482F50E04C
:1031A00060E070E0C0907C05D0907D05E0907E05E9
:1031B000F0907F05C416D506E606F70608F45ECF44
:1031C0008F3F09F45BCF8FEF80938A0560E08CE33B
:1031D00095E00E94951B10923D058CE395E00E94BE
:1031E000E11B81E080932F05DF91CF911F910F911B
:1031F000FF90EF90DF90CF900895CF92DF92EF9203
:10320000FF92CF93DF936C01990FEE08FF08F7FE52
:1032100017C08DE20E94D223EC0166277727CB01ED
:103220006C197D098E099F094AE00E94BF228C0F0C
:103230009D1FDF91CF91FF90EF90DF90CF90089589
:103240004AE0C701B601DF91CF91FF90EF90DF9088
:10325000CF900C94BF228091030581110DC082E0B4
:103260008093FF0484E08093000510920205109281
:10327000010581E0809303058FEF94E00895CF92DC
:10328000DF92EF92FF920F931F93CF93DF936C0126
:103290007A018B01C0E0D0E0CE15DF0589F0D801BE
:1032A0006D918D01D601ED91FC910190F081E02DA1
:1032B000C6010995892B11F47E0102C02196ECCF3D
:1032C000C701DF91CF911F910F91FF90EF90DF9099
:1032D000CF900895CF93DF9300D000D0CDB7DEB765
:1032E000611571058105910579F09B01AC01698338
:1032F0003A834B835C830E94832C29813A814B81E2
:103300005C810E94A72C03C060E070E0CB010F90AD
:103310000F900F900F90DF91CF910895CF92DF9291
:10332000EF92FF920F931F9362177307840795071D
:1033300084F489019A016B017C01C901B8016C19FF
:103340007D098E099F090E946A196C0D7D1D8E1DD5
:103350009F1D1F910F91FF90EF90DF90CF900895E8
:10336000EF92FF920F931F93CF93DF938C017B011A
:10337000C0E0D0E0F701EC0FFD1F6491662361F01F
:10338000D801ED91FC910190F081E02DC8010995E3
:10339000892B11F02196EECFCE01DF91CF911F91B5
:1033A0000F91FF90EF9008956115710579F0FB0181
:1033B00001900020E9F73197AF01461B570BDC0164
:1033C000ED91FC910280F381E02D099480E090E082
:1033D00008950F931F93CF93DF93EC010E94B019D0
:1033E0008C0163E671E0CE010E94D419800F911F19
:1033F000DF91CF911F910F91089590E0FC013197DB
:10340000EF30F105B0F5EB59FF4F0C942A2D809168
:1034100080008F7703C0809180008F7D8093800033
:10342000089580918000877FF9CF84B58F7702C09F
:1034300084B58F7D84BD0895809190008F7707C0FB
:10344000809190008F7D03C080919000877F809352
:10345000900008958091C0008F7703C08091C000D4
:103460008F7D8093C00008958091C200877F8093F4
:10347000C20008951F93CF93DF93282F30E0F90106
:10348000E751F64F8491F901E653F64FD491F901D3
:10349000E555F64FC491CC23C9F0162F81110E9437
:1034A000FD19EC2FF0E0EE0FFF1FEA52FD4FA59142
:1034B000B4918FB7F894111105C09C91ED2FE09550
:1034C000E92302C0EC91ED2BEC938FBFDF91CF91FC
:1034D0001F910895CF93DF9390E0FC01E653F64FE0
:1034E0002491FC01E555F64F8491882361F190E029
:1034F000880F991FFC01E554FD4FC591D491FC0143
:10350000EA52FD4FA591B491611109C09FB7F8949B
:103510008881209582238883EC912E230BC0623012
:1035200061F49FB7F8943881822F80958323888334
:10353000EC912E2B2C939FBF06C08FB7F894E88197
:103540002E2B28838FBFDF91CF9108953FB7F8943A
:1035500080910D0590910E05A0910F05B091100579
:1035600026B5A89B05C02F3F19F00196A11DB11DDE
:103570003FBFBA2FA92F982F8827820F911DA11D19
:10358000B11DBC01CD0142E0660F771F881F991F56
:103590004A95D1F708958F929F92AF92BF92CF92A2
:1035A000DF92EF92FF926B017C010E94A61A4B0101
:1035B0005C01C114D104E104F104F1F00E94A61AE7
:1035C000DC01CB0188199909AA09BB09883E9340FF
:1035D000A105B10570F321E0C21AD108E108F10894
:1035E00088EE880E83E0981EA11CB11CC114D10482
:1035F000E104F10419F7DDCFFF90EF90DF90CF9059
:10360000BF90AF909F908F9008951F920F920FB62A
:103610000F9211242F933F938F939F93AF93BF9358
:103620008091FB049091FC04A091FD04B091FE04F4
:1036300030910C0523E0230F2D3720F40196A11DB6
:10364000B11D05C026E8230F0296A11DB11D2093D0
:103650000C058093FB049093FC04A093FD04B093AD
:10366000FE0480910D0590910E05A0910F05B0917B
:1036700010050196A11DB11D80930D0590930E05B7
:10368000A0930F05B0931005BF91AF919F918F91BB
:103690003F912F910F900FBE0F901F9018951F9282
:1036A0000F920FB60F9211242F936F937F938F93E6
:1036B0009F9360910003662371F180910B058F5FEA
:1036C00080930B0590910103891728F12091FE0248
:1036D00081E028272093FE0210920B0580910203BF
:1036E000882369F08091080193E4899F802D11243B
:1036F000895B809308010E940A2D9093FF02222388
:1037000041F08091FF0290E090939900809398009F
:1037100002C080E0F8CF9F918F917F916F912F91A0
:103720000F900FBE0F901F901895FC0161110FC0F4
:10373000178A158A14A213A2108E1092FF021092FB
:1037400000031092FE0210929900109298000895C2
:10375000EF92FF920F931F93CF93DF931F92CDB7FA
:10376000DEB77C018B01411105C060E049830E94F6
:10377000951B498150E0FA01EE0FFF1FEE0DFF1D72
:1037800016870587DA011996AA0FBB1FAE0DBF1D5C
:103790001D921C92F701E40FF51F81E0818389E0FF
:1037A000868B118E138E158E0F90DF91CF911F9106
:1037B0000F91FF90EF90089540E060E279E00C9463
:1037C000A81B40E068E179E00C94A81BDC01FB0138
:1037D00084918F5F17968C9317973196E491EF5FE2
:1037E0001896EC9318976E5F7F4F1E967C936E939E
:1037F0001D9708954F925F926F927F928F929F9242
:10380000AF92BF92CF92DF92EF92FF920F931F93EE
:10381000CF93DF93F901C49031965491EC010F8559
:1038200064350CF018C140330CF015C10C2C000CA1
:10383000DD08A62F062E000CBB0B7D01EC0CFD1C39
:103840001E141F040CF007C1A52E842E042E000C9C
:103850009908F401E50FF11D57FDFA951E161F0694
:103860000CF0F9C02E5F3F4FE6012796D7FD279653
:1038700073E0D595C7957A95E1F747FF0AC0A52E65
:10388000A40EC89DA001C99D500D1124241B350B09
:1038900040E0EA2D0A2C000CFF0BE40FF11D47FD60
:1038A000FA95F1971CF050E3A52EA41A67FD60E08D
:1038B000F701E535F10514F0E4E5F0E07E2FFC01B9
:1038C000D484D426862F062E000C990BFC01EA1B0B
:1038D000FB0BDF017F01F7E0EF22FF24E0E8F0E0DF
:1038E00002C0F595E795EA94E2F71E2FB7FD17960B
:1038F00053E0B595A7955A95E1F72A0F3B1FE42FA2
:10390000E77051E001C0550FEA95EAF745954595F6
:103910004595B4E54B02800D911D11248D5F9C4FA0
:10392000C12C0A2C000CBB08992493942E01552419
:10393000EC2DF0E0EA15FB050CF08DC0F901449187
:103940000130E1F47C01A12F862E881AB82DBE0D1E
:10395000B71708F077C0B42FBA2321F0E701B88178
:10396000B52BB883B0E0B595A795109719F43196AB
:103970004491A0E8DFEFED1AFD0AE8CF01111FC066
:10398000752E70947C01A12FF901862E881AB82D0E
:10399000BE0DB71708F056C0B42FBA2321F0E701C7
:1039A000B881B721B883B0E0B595A795109719F401
:1039B00031964491A0E8DFEFED1AFD0AE8CF03301D
:1039C00031F07C01A12FF901862E881A37C0752E9F
:1039D0007094862E7C01A12FF9018716D8F4B42F9C
:1039E000BA2359F0E701B881682C6D2460FE02C04B
:1039F000B52B02C0B721E701B883B0E0B595A79514
:103A0000109719F431964491A0E88394DFEFED1AF2
:103A1000FD0AE3CFD92416C0B42FBA2321F0E70161
:103A2000B881B527B883B0E0B595A795109719F47C
:103A300031964491A0E8DFEFED1AFD0AB82DBE0DD6
:103A4000B71750F3550F19F48C5A9F4F51E0C39498
:103A5000240D351D6DCFDF91CF911F910F91FF90F8
:103A6000EF90DF90CF90BF90AF909F908F907F901E
:103A70006F905F904F900895FC01643508F053C03B
:103A8000403308F050C09785742F759575957595DE
:103A9000262F062E000C330B542F57709230A1F4B2
:103AA000F901ED5FFC4F84E57802E00DF11D112472
:103AB000808190E0052E02C0959587950A94E2F7E3
:103AC0008095982F91700AC0933041F4848581705D
:103AD000462740954170841303C014C0911112C051
:103AE00084E57802200D311D1124F901ED5FFC4FB2
:103AF00081E090E001C0880F5A95EAF780959081A7
:103B0000892310C084E57802200D311D1124F901AC
:103B1000ED5FFC4F81E090E001C0880F5A95EAF715
:103B20009081892B80830895DF92EF92FF920F930B
:103B30001F93CF93DF931F92CDB7DEB78C01D62EA4
:103B4000F42EE12CE21654F46E2D6D0D4F2DC801AC
:103B500029830E943C1DE3942981F4CF0F90DF91CB
:103B6000CF911F910F91FF90EF90DF900895DF921A
:103B7000EF92FF920F931F93CF93DF937C01D62F89
:103B8000D22EC42F002E000C110B040F111D47FD67
:103B90001A954C2F0C2E000C550B4017510744F46E
:103BA0002D2D4C2F6D2FC7010E94941DCF5FF1CF9B
:103BB000DF91CF911F910F91FF90EF90DF900895CB
:103BC0006F927F928F929F92AF92BF92CF92DF922D
:103BD000EF92FF920F931F93CF93DF93EC018F84AB
:103BE00064350CF080C040330CF07DC0EF81F0E014
:103BF00031970E9FC0010F9F900D1124860F911DCC
:103C000067FD9A95181619060CF06DC0E885E09FBF
:103C1000F0011124E40FF11D47FDFA951E161F0651
:103C20000CF061C0102FE42EF62E962EB62EC22E6A
:103C3000D12CEB2DEF190E2E000CFF0B8F8190E095
:103C4000E817F9070CF04EC00197E817F90779F06B
:103C5000C89E9001C99E300DD89E300D1124E20FF0
:103C6000F31F8D859E85E80FF91F749001C0712C9C
:103C70006E2CAE2C2A2D2E19022E000C330B8885AB
:103C800090E0281739075CF570FE10C0113031F450
:103C90004A2D6B2DCE010E943C1D1DC0012F212FEE
:103CA000462D692DCE010E94B71D15C088899F85BC
:103CB000891789F08F87113031F44A2D6B2DCE0191
:103CC0000E943C1D07C0012F212F462D692DCE01DA
:103CD0000E94B71D8F867694A394610ECBCFB394C8
:103CE000910EA7CF8F86DF91CF911F910F91FF90FB
:103CF000EF90DF90CF90BF90AF909F908F907F908C
:103D00006F9008950F93CF93DF93EC016A3019F40D
:103D100028859E811FC06D3019F1262F0E814A859E
:103D200069850E94E01D2E813F818985329F800D2B
:103D3000112489879D81992399F0082E000C990BF5
:103D400044E550E0239F40195109112448175907B1
:103D50003CF498858A85299F800D11248A871986CD
:103D600081E090E0DF91CF910F910895409115058A
:103D700050911605209113053091140542175307F1
:103D8000B4F49091E8009570E1F39091E80092FD11
:103D900019C08093F1008091150590911605019648
:103DA0008F739927892B19F48EEF8093E800809107
:103DB00015059091160501969093160580931505AB
:103DC00081E0089580E00895CF92DF92EF92FF9214
:103DD0000F931F93CF93DF931F92CDB7DEB7182FAA
:103DE000062FE42E862F880F8E5F99830E94B61EC1
:103DF00083E00E94B61EF12EC12E9981D92E8C2D02
:103E00008F19801798F4F601E7FE02C0849101C073
:103E100080810E94B61E182F80E00E94B61E81236A
:103E2000FFEFCF1ADF0A8111EACF01C081E00F90C6
:103E3000DF91CF911F910F91FF90EF90DF90CF9086
:103E40000895DF92EF92FF920F931F93CF93DF932A
:103E5000D82E8A017B01E40EF51EEB01CE15DF059D
:103E600071F0D7FE03C0FE01849101C088810E94D9
:103E7000B61E21968111F2CF8FEF9FEF01C0C801CE
:103E8000DF91CF911F910F91FF90EF90DF900895F8
:103E9000615030F02091F100FC0120830196F8CFB1
:103EA000289884E68093FC0208950F931F93CF9384
:103EB000DF931F92CDB7DEB782E0898342E450E002
:103EC00068E279E080E80E94211F0E942B19DC0142
:103ED00012960D911C9113970115110569F0D801E7
:103EE000ED91FC910280F381E02DBE016F5F7F4F69
:103EF000C801099597FF07C089810F90DF91CF9185
:103F00001F910F910895F80100851185E5CF1F924B
:103F10000F920FB60F9211248F939F938091E1001F
:103F20009091E100937F9093E10083FF0FC0109286
:103F3000E90091E09093EB001092EC0092E39093F3
:103F4000ED001092FD0298E09093F00082FF20C0F7
:103F500093E09093E9009091F200992319F09AE38D
:103F60009093E8009091FA02992339F09091FA0227
:103F700091509093FA02992389F19091FC02992330
:103F800039F09091FC0291509093FC02992341F1F9
:103F900084FF10C08091E2008E7E81608093E200F9
:103FA0008091E1008F7E8093E1008091FB028E7E04
:103FB000806111C080FF16C08091E2008E7E80611A
:103FC0008093E2008091E1008E7E8093E1008091F9
:103FD000FB028E7E81608093FB0204C05D9ACDCF90
:103FE000289AD6CF9F918F910F900FBE0F901F9060
:103FF00018951F920F920FB60F921124CF92DF9255
:10400000EF92FF920F931F932F933F934F935F93E2
:104010006F937F938F939F93AF93BF93EF93FF9390
:10402000CF93DF93CDB7DEB76C97DEBFCDBF1092D5
:10403000E9008091E80083FFEDC168E0CE0145967C
:104040000E94481F82EF8093E8008D8987FF05C09A
:104050009091E80090FFFCCF03C09EEF9093E800A2
:10406000982F907609F0C6C09E892F89188D9111DE
:104070000CC0803829F4809112058093F10002C0B1
:104080001092F1001092F10048C1422F50E0512BE4
:10409000913051F4811141C14130510509F03DC1C8
:1040A000809112058D7F0BC0933061F4811135C171
:1040B0004130510509F031C1809112058260809331
:1040C00012052BC1953041F48091E80080FFFCCFB0
:1040D00020682093E30021C1963009F05FC0EB8C8B
:1040E000FC8C1092E9001092160510921505123002
:1040F00091F510921405109213050E94551F99E036
:10410000BE016F5F7F4FDB01E92F1D92EA95E9F752
:1041100099831A8391E09E8390EA98879AEF998712
:104120002091150530911605275F3F4F3C832B8367
:104130008D831092E9001092160510921505F092E9
:104140001405E092130549E050E080E00E94211F31
:104150000E94551FE2C0F0921405E09213050E94E0
:104160002B19DC011296ED90FC901397E114F104E9
:1041700009F4C0C0D701ED91FC910480F581E02DD8
:10418000BE016B5E7F4FC7010995009719F00CF0D7
:10419000C4C0C7C0F701E084F184E8CF973009F4C8
:1041A000C0C0983021F481E08093F100B6C099300E
:1041B00009F0B3C0837009F0B4C0EFE3F1E081E02F
:1041C00021E036E39081992361F08093E900209308
:1041D000EB0091919093EC003093ED008F5F87306E
:1041E00089F78EE78093EA001092EA008F89809326
:1041F000FD0293C08B8D9C8D1092E90010921605E4
:10420000109215059093140580931305898D8111E3
:1042100056C08E899D89913A59F4813209F081C046
:1042200047E050E060E071E080E00E94211F75C02F
:10423000913209F076C0833289F4888D90E0982F0E
:1042400088272F89822BA0E0B0E08093090190930A
:104250000A01A0930B01B0930C015FC0803269F496
:104260008091E80082FFFCCF67E080E091E00E944F
:10427000481F8BEF8093E80006C0823209F04DC0E2
:104280008F898093070180911105882319F0EEEF43
:10429000FAE002C0E0E0F8E08091000190910101B5
:1042A000A0910201B0910301803B9440A105B105AA
:1042B00009F07BC08091070180FF93C076C00E9407
:1042C0002B19DC0112960D911C9113970115110504
:1042D00041F1D801ED91FC910190F081E02DBE01FA
:1042E0006B5E7F4FC8010995811117C0F8010085E9
:1042F0001185ECCF113009F44EC0133091F48F8941
:10430000882309F445C0823081F440E860E18CE8FC
:1043100099E00E94E41E882321F08EEF8093E8004C
:1043200079C081E28093EB0075C0813029F440E8C8
:104330006BE080E899E0EDCF833099F70E942B196C
:10434000DC011296ED90FC9013978E010F5F1F4FCA
:104350006801E114F10479F0D701ED91FC91068038
:10436000F781E02DB801C7010995080F111DF7016C
:10437000E084F184EECFD8011C92F6010190002078
:10438000E9F73197BF016C197D0940E0C601C1CF43
:104390006AE679E002C06EE679E06115710509F21E
:1043A000FB01449150E080E840CF0FB6F894A89507
:1043B00080916000886180936000109260000FBE61
:1043C000A895EE3F2AE0F20739F08091FE0A90911D
:1043D000FF0A91838083A1CF1092FF0A1092FE0AF8
:1043E0009CCFEE3F8AE0F80731F080819181909375
:1043F000FF0A8093FE0A87E797E7918380839BE01B
:1044000088E10FB6F894A895809360000FBE909352
:10441000600083CF6C960FB6F894DEBF0FBECDBFA1
:10442000DF91CF91FF91EF91BF91AF919F918F91CC
:104430007F916F915F914F913F912F911F910F91BC
:10444000FF90EF90DF90CF900F900FBE0F901F90D6
:104450001895AF92BF92CF92DF92EF92FF920F9397
:104460001F93CF93DF93182F062FC1E0D3E08AEF7D
:10447000D82E9EEFE92E842F8470C82E842F827050
:10448000B82E842F8870A82E4170F42E8C2F880FA0
:104490008F5FE80ECC2081F04D2F400F6C2F610F05
:1044A00085E695E00E943C1D4C2F400F6D2F610F5B
:1044B00085E695E00E943C1DBB2081F0402F4D1BFE
:1044C0006C2F610F85E695E00E943C1D402F4C1B30
:1044D0006D2F610F85E695E00E943C1DAA2081F0BA
:1044E0004C2F400F612F6D1B85E695E00E943C1D0F
:1044F0004D2F400F612F6C1B85E695E00E943C1DFF
:10450000FF2081F0402F4C1B612F6D1B85E695E04D
:104510000E943C1D402F4D1B612F6C1B85E695E0D2
:104520000E943C1DCD1744F4E7FC04C0D150D39445
:10453000D394ED0CCF5FAACFDF91CF911F910F9154
:10454000FF90EF90DF90CF90BF90AF9008950F93C2
:104550001F93CF93DF93182F062FD42FC0E0CD17D2
:104560004CF44C2F400F612F85E695E00E943C1DD6
:10457000CF5FF5CFDF91CF911F910F9108958F926B
:104580009F92AF92BF920F931F93CF93DF93CDB7BC
:10459000DEB7A1970FB6F894DEBF0FBECDBF19A24C
:1045A000423008F44AE08E010F5D1F4F842E912C9B
:1045B000A12CB12CA50194010E94D92CE62FB901A0
:1045C000CA0101501109EA3014F4E05D01C0E95C50
:1045D000D801EC93232B242B252B61F7B80185E61A
:1045E00095E00E94D419A1960FB6F894DEBF0FBED5
:1045F000CDBFDF91CF911F910F91BF90AF909F9052
:104600008F9008952F923F924F925F926F927F9278
:104610008F929F92AF92BF92CF92DF92EF92FF92D2
:104620000F931F93CF93DF9300D000D000D0CDB76E
:10463000DEB721111FC09A01462F682F85E695E04D
:1046400026960FB6F894DEBF0FBECDBFDF91CF9197
:104650001F910F91FF90EF90DF90CF90BF90AF90A0
:104660009F908F907F906F905F904F903F902F9092
:104670000C94FA1B6A01562F382FF60134903196AC
:10468000E491432C512C5201F7E0AF0EB11C83E0B2
:10469000B594A7948A95E1F723702D833A941E82EE
:1046A00090E8892E912C7FEF7E0FEE2EF12C2E813B
:1046B000822F220F990B841595050CF05AC00E819C
:1046C00007FD095F0595059505958E81877887FF1C
:1046D00003C08150886F8F5F340102C07594679466
:1046E0008A95E2F7272F212C002E000C110B0E5F6C
:1046F0001F4F822D022C000C990B8E159F05A4F5DF
:104700008A9DF0018B9DF00D9A9DF00D1124E00F14
:10471000F11FEC0DFD1DE491F0E0E621F721EF2BF8
:1047200001F18D81823039F0833041F0813049F4DC
:10473000432D622D08C0632D422F05C0622F4E818C
:1047400002C0422D6E81630F450F85E695E02983F7
:104750003B835C837A830E943C1D7A815C813B8130
:10476000298123942150C5CF2E812F5F2E833A9427
:104770009ECF26960FB6F894DEBF0FBECDBFDF9159
:10478000CF911F910F91FF90EF90DF90CF90BF904E
:10479000AF909F908F907F906F905F904F903F90E1
:1047A0002F900895E0916505F09166050190F081E4
:1047B000E02D682F85E695E00994CF92DF92EF9285
:1047C000FF92CF93DF936C01990FEE08FF08F7FE7D
:1047D00012C08DE20E94D223EC0166277727CB011D
:1047E0006C197D098E099F094AE00E94BF227C0155
:1047F000EC0EFD1E06C04AE0C701B6010E94BF22B2
:104800007C0163E671E085E695E00E94D4198E0D87
:104810009F1DDF91CF91FF90EF90DF90CF90089593
:10482000CF93DF93482F50E0EA01C95EDA4F9DA194
:104830009923A1F19EA1911131C09EA5FA01EE0F1D
:10484000FF1FE25EFA4F35A126A1E32FF22FE90FF9
:10485000F11DE90FF11D259134912F3F9FEF39078D
:1048600011F41DA21BC039AB440F551FFA01EF5DB7
:10487000FA4F3327220F331F05A0F6A1E02DE20FD8
:10488000F31F65917491811105C040E08CE395E0C0
:104890000E94A81B29968DA18F5F8DA3DF91CF91D8
:1048A000089570E0DB01AA0FBB1FA95EBA4FD49632
:1048B0002C91D497D5969C91D597E22FF92FE80F9C
:1048C000F11DE80FF11D259134915F9696963C936A
:1048D0002E939597F9018591949190914005989F19
:1048E000802D1124695E7A4FFB01B19685A3F901F1
:1048F000A591B4914B2F50E0E82FF0E04E175F07E1
:1049000020F4F90125913491832FFB01B296899F00
:10491000802D112485A30895DF92EF92FF920F93CB
:104920001F93CF93DF93C82FD62FE42E022F8AEF49
:10493000D82ED40E93E0F92EFC0E2D2D462F6F2D80
:1049400085E695E00E94941D1D2F100F4FEF410F3B
:104950002D2D6F2D85E695E00E94941D0650DD5F9C
:10496000402F6D2F8C2F0E94A722CE0D402F6D2F30
:104970008FEF8C0F0E94A72241E06D2F8F2D0E9498
:104980002922C45042E06D2F8C2F0E9429221450FE
:1049900044E0612F8C2F0E94292248E0612F8F2D47
:1049A000DF91CF911F910F91FF90EF90DF900C94CA
:1049B00029229F92AF92BF92CF92DF92EF92FF9205
:1049C0000F931F93CF93DF93F82EE62EB22E03E0C2
:1049D000020FD0E0C3E08AEFC82E1EEF842F817053
:1049E000982EAA24A394A20E4270D42EDF5F802FAB
:1049F0008B19180F992081F04C2F440F4A0D6E2D02
:104A00006C1B8D2F8F0D0E94A722402F6E2D6D1BCA
:104A10008C2F8F0D0E94A722DD2081F04C2F440F98
:104A20004A0D6E2D6C1B8F2D8D1B0E94A722402FCF
:104A30006E2D6D1B8F2D8C1B0E94A722DC1744F45A
:104A400017FD04C0C150C394C3941C0D0E5FCECF9C
:104A5000DF91CF911F910F91FF90EF90DF90CF905A
:104A6000BF90AF909F900895CF93DF93E6E7F5E076
:104A7000C081D1819881AAE7B5E08C91892B888388
:104A8000C0917805D0917905988180917B058095BA
:104A9000892388830190F081E02D90818C9180950D
:104AA00089238083DF91CF910895CF92DF92EF9297
:104AB000FF920F931F93CF93DF93C1E2D5E008E2FB
:104AC00015E0FF24FA9496E0E92EE00E62E088817A
:104AD0000E946A1A288130E0F901E751F64F84916B
:104AE000F901E653F64FC490F901E555F64FD4901D
:104AF000DD2071F081110E94FD19ED2DF0E0EE0F27
:104B0000FF1FE356F64FA591B491EC91EC2131F5DE
:104B1000F80180818F5F808360E088810E946A1A3B
:104B200021960F5F1F4FE012D1CF90912805915031
:104B300080912E059E3F38F490912A0591509E3F1A
:104B400010F48F5F08C08823A1F08F3F19F41092F2
:104B50002E050FC08FEF80932E050BC0F8018081CA
:104B60008823F1F2F8018F3F11F41082D5CFF08243
:104B7000D3CFDF91CF911F910F91FF90EF90DF90F6
:104B8000CF900895282F862F6CE00E940A2DE22FE7
:104B9000EF70F0E083E0F595E7958A95E1F7E90F8E
:104BA000F11DE90FF11DE15EF54FE491F0E0277092
:104BB00080E890E002C0959587952A95E2F7E82372
:104BC000F92381E0EF2B09F480E008958EBD000009
:104BD0000DB407FEFDCF8EB508950F9310926E05AC
:104BE00090916D0580E3891B80936F05E091E80546
:104BF000F0E0EE0FFF1FEB5BF54F6591749185E6DA
:104C000095E00E94B0192091E705233038F002E0CA
:104C10004EE26EEF85E695E00E94B71D9091E805A3
:104C200020916D0580916C059923F9F06091E5055F
:104C30007091E6056436710530F4982F6A3071057D
:104C400018F4990F01C090E0382F330F830F981B91
:104C50009C5A90936E0580E3821B80936F0580E0E1
:104C600090E04AE00F910C94BF22982F990F890F82
:104C700081958C5A80936E0580E3821B80936F052B
:104C800061E47AE085E695E00F910C94B0198F927B
:104C90009F92BF92CF92DF92EF92FF920F931F935A
:104CA000CF93DF931F92CDB7DEB78C014B01B22EAD
:104CB0006B0177FF03C087E0C80ED11C33E0D594A9
:104CC000C7943A95E1F7780117FF03C087E0E80E33
:104CD000F11C23E0F594E7942A95E1F76C2D8E2DD5
:104CE00049830E94C2254981811137C0040F111DDB
:104CF000C801019797FD07968C0193E015950795DC
:104D00009A95E1F76C2D802F0E94C225811125C054
:104D10008B0C911CB4016150710977FF02C0695F6F
:104D20007F4F6B0183E0D594C7948A95E1F76C2D92
:104D3000802F0E94C225811110C06C2D8E2D0F90E6
:104D4000DF91CF911F910F91FF90EF90DF90CF9067
:104D5000BF909F908F900C94C22581E00F90DF91BF
:104D6000CF911F910F91FF90EF90DF90CF90BF9068
:104D70009F908F9008958F929F92AF92BF92CF9203
:104D8000DF92EF92FF920F931F93CF93DF939B01DC
:104D900080589F4F60E870E00E94162DFC01C90109
:104DA000805A9F4F60E670E00E94162D9C0197FF8D
:104DB00002C0295F3F4FA90123E0559547952A95E9
:104DC000E1F7F42E9F01F7FF02C0295F3F4F93E008
:104DD000359527959A95E1F7922EB42EBB0CBB0C16
:104DE000BB0CB81AC22ECC0CCC0CCC0CCE1AD12CCD
:104DF0008A010A5F1F4FE9012A968F2D0F2C000CA4
:104E0000990B0817190714F18D2C8B0CE92CA12C88
:104E10008E2D0E2C000C990BC817D9079CF06F2D06
:104E20008E2D0E94C225882349F027E33AE0482DC1
:104E30006A2D6C0D85E695E00E94FA1BE39488E0EC
:104E4000A80EE6CFF39488E0D80ED7CFDF91CF91AC
:104E50001F910F91FF90EF90DF90CF90BF90AF9098
:104E60009F908F90089510926E0510926F0584E2C6
:104E70000E94D2238091E3059091E4050C94DD23F8
:104E8000789484B5826084BD84B5816084BD85B525
:104E9000826085BD85B5816085BD80916E00816031
:104EA00080936E00109281008091810082608093D7
:104EB00081008091810081608093810080918000D9
:104EC0008160809380008091910082608093910046
:104ED0008091910081608093910080919000816029
:104EE000809390008091C10084608093C100809184
:104EF000C10082608093C1008091C1008160809375
:104F0000C1008091C30081608093C3008091C00084
:104F100082608093C0008091C20081608093C20053
:104F200080917A00846080937A0080917A00826018
:104F300080937A0080917A00816080937A008091DA
:104F40007A00806880937A001092FD021092120518
:104F50001092FB028091D70081608093D70080EA95
:104F60008093D80089B5806189BD89B5826089BD8B
:104F700009B400FEFDCF61E070E080E090E00E94A7
:104F8000CB1A8091D8008F7C80618093D80080916B
:104F9000E000807F8093E0008091E1008E7E80932E
:104FA000E1008DE08093E200559A209AEEEFFFE752
:104FB000859194918B3F9C4D19F481E0809311056C
:104FC00082E380938B0581E090E0A0E0B0E08093E5
:104FD000840590938505A0938605B0938705C1E06D
:104FE000C0934205C09341058FEF80938A0584E109
:104FF0008093210582E18093220583E1809323053C
:1050000085E18093240587E08093250588E08093DF
:105010002605109227050E945525C093740510920D
:105020007505C0936A05C0936B0564EA75E085E673
:1050300095E00E94E61BCFB7F8948091F9028111A8
:1050400027C0ECEBF9E08491EBEDF9E09491E82FC7
:10505000F0E0EE0FFF1FE554FD4FA591B491EC91E8
:10506000E92321F461E081E10E943A1A61E081E1E3
:105070000E946A1A8CB580618CBD8CB580648CBD31
:1050800061E08FE00E946A1A61E080E10E946A1A82
:105090008091F9028F5F8093F902CFBF8CB58C7F2E
:1050A0008CBD8DB581608DBD61E084E00E946A1A7F
:1050B00061E08CE00E946A1A61E086E00E946A1A50
:1050C00061E086E00E943A1A61E070E080E090E0E2
:1050D0000E94CB1A60E086E00E943A1A6AE070E013
:1050E00080E090E00E94CB1A61E086E00E943A1ACC
:1050F000E7EBF9E0E491F0E0EE0FFF1FEA52FD4F1D
:10510000859194919093770580937605EFEAF9E085
:10511000E491F0E0EE0FFF1FEA52FD4F859194916C
:105120009093790580937805E6EDF9E0E491E093BA
:105130007A05EEECF9E0E491E0937B050E943425DA
:10514000C9ECD2E01C2F135FFE0184910E94E6257A
:1051500021961C13F9CFE0917805F09179059081A3
:1051600080917B05892B8083E0917605F09177050E
:10517000908180917A05809589238083C0E0D4E076
:1051800080E00E94E6252197D9F781E080934005D1
:1051900084E08093640587EB92E090934C058093C4
:1051A0004B0560E080E00E94512461E085E00E94B0
:1051B0006A1A61E08DE00E946A1A61E085E00E944F
:1051C0006A1AEEEEF9E0E4918E2F90E0FC0131973F
:1051D000EF30F10508F07DC0EA5AFF4F0C942A2DFC
:1051E00084B5806884BD81E087BD77C084B5806266
:1051F00084BD81E088BD71C080918000806880930B
:10520000800081E090E0909389008093880065C0E1
:105210008091800080628093800081E090E0909394
:105220008B0080938A0059C08091800088608093B1
:10523000800081E090E090938D0080938C004DC0C1
:105240008091900080688093900081E090E090933E
:1052500099008093980041C0809190008062809373
:10526000900081E090E090939B0080939A0035C07D
:105270008091900088608093900081E090E090930E
:105280009D0080939C0029C08091C000806880931D
:10529000C0008091C0008F7B8093C00081E080932C
:1052A000CF001BC08091C00080628093C00081E06D
:1052B0008093D00012C08091C20088608093C200A9
:1052C0008091C2008B7F8093C20081E08093D200E6
:1052D00004C060E085E00E943A1A80919100887FC6
:1052E000816080939100F894109280001092810068
:1052F000109285001092840088E191E090938900DB
:1053000080938800809181008860809381008091E3
:10531000810081608093810080916F008260809322
:105320006F00789480912D05813019F41092410519
:1053300007C040E064EE72E08CE395E00E94A81B99
:1053400062E273E085E695E00E94E61B0E94211868
:10535000809164008E7F8093640087EC80937C0052
:1053600080E280937B0062E070E080E090E00E9449
:10537000CB1A80917A00806480937A0080917A00C1
:1053800086FDFCCFC0917800D0917900C095D09572
:105390008EE580937C0062E070E080E090E00E9407
:1053A000CB1A80917A00806480937A0080917A0091
:1053B00086FDFCCF00917800109179000E94A61A1A
:1053C0009B01AC0120953095409550950095109526
:1053D0000C9FD0010D9FB00D1C9FB00D11240E9499
:1053E000C62C6B017C010E94A61A6C0D7D1D8E1DC2
:1053F0009F1D611571058105910511F00E94882C92
:105400008091640081608093640075EBE72E72E008
:10541000F72EEFEBCE2EE2E0DE2E0AE010E0C0E049
:10542000D0E058012AE0A21AB108CE018A0D9B1DD6
:105430000E94912CF601EC0FFD1F80832196CA304B
:10544000D10599F7C8010E94912CC82FD0E0F7012F
:10545000D183C083C80101960E94912C282F30E08F
:10546000322F22272C0F3D1F2F3FFFEF3F0711F454
:1054700020E030E0F701219331937F01045F1F4F5B
:10548000FBE0CF0ED11C0634110549F60E945709E6
:1054900053E0B52EFF24F3940E9429158823E1F3ED
:1054A000109269050FEF512CA12C40E3E42E10E07F
:1054B0000E9429158823E1F380912C05813051F158
:1054C00090912D05913031F190912E05913011F18F
:1054D000511036C080912B058F3F21F083708130B1
:1054E00009F49CC1809129058F3F21F083708130A0
:1054F00009F498C1153021F017FF03C014E001C072
:1055000010E090916D0584E0890FA82E919FA0185E
:10551000112448C0C0916D05813009F07AC18CE337
:1055200095E00E94E11B012F8C2F90E091958195D1
:105530009109A82EAA0CAA0C8A0D9EEFA92EA80EDE
:105540008E2D0E2C000C990B8A199109A7FC9395AE
:10555000029734F5023009F49DC0CCF4002309F41D
:1055600082C0013009F04BC10E94570964EA75E01E
:1055700085E695E00E94E61B0E94310D62E273E031
:1055800085E695E00E94E61B00932F0538C10330A5
:1055900009F483C0043009F032C10E9421187CCF85
:1055A00055245394CA2D0A2C000CDD0BCE0DD11DB1
:1055B000E7FCDA95D7FD2196D595C7954C2EEC2EB4
:1055C00010926E05C0936F05F0926B0510926A05FC
:1055D00036E2632E37E0732EC12CD12C812E012EA2
:1055E000000C9908C814D90451F4B0926E0580914A
:1055F0006D05942D189F900D112490936F05F30164
:105600006591749185E695E00E94E919EFEFCE1A55
:10561000DE0AF2E06F0E711C25E0C216D10411F70C
:10562000109274051092750580916D054C2F189F8E
:10563000400D1124415024E560E085E695E00E948C
:10564000941DF0927405F092750580916D0523E02C
:10565000280F6C2F189F600D1124625044E580E0E4
:105660000E948C2425CF64E670E080E090E00E94E8
:10567000CB1A64EA75E085E695E00E94E61B0E947D
:10568000310D62E273E085E695E00E94E61BF09240
:105690002F0502CF0E945705FFCE64EA75E085E62C
:1056A00095E00E94E61B0E9429158823E1F3809172
:1056B0002E05813059F462E273E085E695E00E94A0
:1056C000E61B8CE395E00E94DC1BE6CE6DE173E007
:1056D00085E695E00E94B019609131057091320520
:1056E00080E090E04AE00E94BF226AE173E085E634
:1056F00095E00E94E91961E173E085E695E00E947A
:10570000B0196091300570E080E090E04AE00E94BE
:10571000BF226EE073E085E695E00E94E91967E03C
:1057200073E085E695E00E94B019609118057091CC
:10573000190580E090E04AE00E94BF2263E671E034
:1057400085E695E00E94D4196CEF72E085E695E05D
:105750000E94B01960911A0570E080E090E04AE084
:105760000E94BF2263E671E085E695E00E94D419AD
:1057700064EF72E085E695E00E94B0196091410502
:1057800070E080E090E04AE00E94BF2262EF72E0A9
:1057900085E695E00E94B0196091420570E080E0D6
:1057A00090E04AE00E94BF2263E671E085E695E062
:1057B0000E94D41966E671E085E695E00E94D4194E
:1057C0006091F80270E080E090E04AE00E94BF2221
:1057D0006CE671E085E695E00E94D41980E190E0E6
:1057E0000E94DD236EE671E085E695E00E94D41903
:1057F0008091F6029091F7020E94DD2354CF0E941F
:10580000211880E090E0892B09F446CE0E94000028
:1058100041CE8CE395E00E94DC1B86CE1F5F0E9488
:105820001A1860CE11500E941A1864CEE3E9F5E010
:105830001382128288EE93E0A0E0B0E08483958327
:10584000A683B78389E491E0918380838FEF9FEFF4
:105850009587848710926805109267058BE591E023
:10586000909366058093650508958F929F92AF92FD
:10587000BF92CF92DF92EF92FF92CF93DF93EC0132
:10588000688179818A819B81611571058105910506
:1058900021F464E279ED8BE597E02DE133EF41E00F
:1058A00050E00E94A72C49015A019B01AC01A7EAD4
:1058B000B1E40E94C62C6B017C01ACEEB4EFA501F3
:1058C00094010E94D42CDC01CB018C0D9D1DAE1DDA
:1058D000BF1DB7FF03C00197A109B0488883998312
:1058E000AA83BB83BC01CD019F77DF91CF91FF904D
:1058F000EF90DF90CF90BF90AF909F908F900895E2
:105900000E94352C08958DE091E00E94352C089579
:1059100060930D0170930E0180930F01909310011D
:105920000895F999FECF92BD81BDF89A992780B567
:105930000895262FF999FECF1FBA92BD81BD20BDD3
:105940000FB6F894FA9AF99A0FBE01960895052EAB
:1059500097FB1EF400940E94BE2C57FD07D00E94B6
:10596000D92C07FC03D04EF40C94BE2C50954095D6
:10597000309521953F4F4F4F5F4F089590958095FB
:10598000709561957F4F8F4F9F4F08950E94FB2C1C
:10599000A59F900DB49F900DA49F800D911D112483
:1059A0000895B7FF0C94C62C0E94C62C821B930B43
:1059B0000895A1E21A2EAA1BBB1BFD010DC0AA1F50
:1059C000BB1FEE1FFF1FA217B307E407F50720F068
:1059D000A21BB30BE40BF50B661F771F881F991FE3
:1059E0001A9469F760957095809590959B01AC012C
:1059F000BD01CF010895A29FB001B39FC001A39F35
:105A0000700D811D1124911DB29F700D811D1124F7
:105A1000911D0895991B79E004C0991F961708F00D
:105A2000961B881F7A95C9F78095089597FB072ED6
:105A300016F4009407D077FD09D00E94302D07FCA2
:105A400005D03EF4909581959F4F0895709561958E
:105A50007F4F0895EE0FFF1F0590F491E02D0994FC
:105A6000AA1BBB1B51E107C0AA1FBB1FA617B70784
:105A700010F0A61BB70B881F991F5A95A9F78095A0
:105A80009095BC01CD010895FB01DC0101900D92C0
:0A5A90000020E1F70895F894FFCF1D
:105A9A0000E100000000000001FFFFFFFF0100001D
:105AAA000003020300030A020305040000010303C2
:105ABA0001020100021E01021E0104050302050281
:105ACA00010203020F27F4012C011400960000C101
