:100000000C94CA1B0C94F21B0C94F21B0C94F21B64
:100010000C94F21B0C94F21B0C94F21B0C94F21B2C
:100020000C94F21B0C94F21B0C94E52B0C94542CA6
:100030000C94F21B0C94F21B0C94F21B0C94F21B0C
:100040000C94F21B0C94D02E0C94F21B0C94F21B0B
:100050000C94F21B0C94F21B0C94F21B0C94862E45
:100060000C94F21B0C94F21B0C94F21B0C94F21BDC
:100070000C94F21B0C94F21B0C94F21B0C94F21BCC
:100080000C94F21B0C94F21B0C94F21B0C94F21BBC
:100090000C94F21B0C94F21B0C94F21B0C94F21BAC
:1000A0000C94F21B0C94F21B0C94F21B0008430CF2
:1000B0004673300008623398EA1B2A418A329D0356
:1000C00052A1B43B2E4BF13B6F8F43C9F9AD8ED893
:1000D0008A572AE87FA649DD7AD72D4FD368FA3DA3
:1000E000C9B9755F0CA1154AE10008430C4673308D
:1000F0000008623398EA2B442088313D0F68ACF445
:100100007A8B61AAF47D1FE7FC7B4B93A85CABF173
:10011000603FDE8F61FF7A3E5953E87F168E1F2BBA
:100120005B9EE908CE666008430C467330000862A7
:100130003398CD53DDC1090842022A8C249A9EA52A
:10014000B4340FA75AD0EA2F8EBFA9F5FF9E21F92C
:10015000FE4A9300F9F4520021F67F9914153817DE
:10016000538430C46733004B08430C467330C631A8
:100170008C5192E3A1042210A908A63C1842421017
:1001800080190831C3134341507D0DA805515D35D9
:100190000887A04F3AC084417C553D43A17C5E0650
:1001A0008F9837E1054BA0885F16C7B803E024702D
:1001B000320000F876868425296188CE63084D8850
:1001C00065119CC2608430C46733000708430C4645
:1001D0007330C6218A219147508E188CE63A9C6371
:1001E000294AD00000F8239984318765508C11008A
:1001F000C20922AAF81234C414C8AABD142668C4BD
:10020000210DB5383DA5E8FA97D5ED7C3180C44283
:1002100010206E600D62A3B24252946368EA1BE143
:10022000B7803E800F430C3119CCC01F084D0C46DF
:1002300073285A000218048A0684C018C70C467333
:10024000080C100F47E64600D421D7E7AF80011114
:1002500008422E28177260B76825554C127AF81A92
:1002600019C69A24F5F1507B4FC7500C6108C71985
:10027000E33648010C01B21F71F0633154A7F05FFF
:1002800099EF001084D0C46732801B08430C46737A
:1002900030C4230C6318D7190C24A8AC018AC08C75
:1002A000268A9EA0AE2A5CA0210C93F3C8341000CD
:1002B000A0001F0E021D409A668FC8E8FC4D97D023
:1002C0007602F665B094A52946305D2210842FE0B1
:1002D0001F06F1516045A8BA01C521B82F8D09A0AC
:1002E0006EC0408430C46733002808430C46733026
:1002F0008421082310C431086000815355753E8164
:100300008C68FA30E181FC9F486A65FD1500461053
:10031000814A00000DCF14F9AA7D4021284B379463
:10032000A5080016C404210840CE00861A00D60194
:1003300020882154CD09EB0168FB0F13A090C10860
:100340006188CE661408430C467330C638602210AC
:10035000842082705D40218AA798834C8B479874D3
:10036000407C40F86A18E7E1FE0295000008411C55
:10037000F0011441ECE8DB9F49538B20887A10840C
:10038000A5297B8286309202100010C024154B8173
:10039000254F7CD8150557A1E12608430C4673303C
:1003A0002108430C467330C6386233988D500142A1
:1003B000108401001108003D0123210841906314BD
:1003C000403A8813C8EA0A6B18A8C42A829BD1BD98
:1003D00088A2C8F9FE4AAEA7A86ABF944216D5FC07
:1003E000FCA427A1A97CC218A20F0251F856007FD5
:1003F00011001B2A0421862339981408430C4673E4
:1004000030C638623398EA010C510C8A3104221D3F
:10041000763294A500230A808410C1FFFC242108B1
:100420003055D7804329D4FA0800A00010C4618455
:100430000066D0032C27E20903F18650DA29A210C6
:1004400029A8880204BA3E82412C44FE3EA8CC2250
:1004500011218FC010C462AF83F88CE6601C084382
:100460000C4673308422086118C70C46419B027009
:100470000010C0060004206CE2121090C465A208AF
:1004800020D3741C3F47188628846004A810D3B674
:10049000E887A00C70C467318420ABEA638C8B00C2
:1004A000010C466006824A7EA430BEFF9430C467C9
:1004B00033000208430C467330C4318E1834773C45
:1004C0005413248A3A9EDFD1F7FF9DAD437E7FAD62
:1004D00084233E7D1084D1FE66FCFF2789F3D8FF7C
:1004E0003ECFF3FF2BF9C218623399802908430CE1
:1004F00046733000086003908810185505A7C10C9A
:1005000063086A2212F88C853406B88E6A29E6A13F
:10051000F23E1A8FB8A919EC102BF848305A1A2657
:10052000A3BC0E5907C2318E682000050340A8A65F
:10053000800E61022492F922D288308822883E12ED
:1005400008934D90521485FA33820C84B249C08EC0
:1005500068F83F88CE662208430C467331062100B6
:10056000000800310E48962A01CB21A7F410034859
:10057000088399E83C0EA0126A18C043F0780AACD0
:100580000150000425B1695F5510C5510040144168
:10059000510AA418C43F634039043F01B508CA5149
:1005A0008FE1A23C9084800000025446A96A9254D4
:1005B0007A355110057C0862AB82219168202208AF
:1005C000430C4673300001000D8CA609E2A008C25E
:1005D0004B8726084F390C8009824212A2E8E600B8
:1005E000844216860DC0001848118C631847F070BD
:1005F0001A12FB04791F086B8D0C822089F112AA54
:100600008C7E33D48120C2008F48902A5F4003271C
:10061000F1F3EB29910A3F800057000002188CB2D9
:10062000CD939C2D08430C467330800110848623A3
:1006300010001982C40188628864408401008631F8
:10064000C31191475152C2F4000D084426944192BF
:10065000A62084321084E62A7FB2A326875605217D
:10066000EE2E0F807A4104417C06A809F0B74CF8C1
:10067000341A872808008003980034301072C4713F
:10068000FC1070C6E1C44673300E08430C4673304C
:10069000C8320C8421C00043000661108E430493CD
:1006A00051E241CE5720E857C9382D0B8A05203238
:1006B00046041907F1F0F392B42B0AD8B8F49F421C
:1006C0008CE4076D04031DE388FE1B1E87DC2BF3FF
:1006D000A8541D03D3F2B4118C70C0C9E8AAD9374D
:1006E000D1B04673301508430C4673311A408C76EE
:1006F000E80813042D2342000171000010571A016D
:100700000928E677854F9BE8FA8FA3A3F12DA8F57A
:100710001F9F47F93D8CD7E018C798E91F0B6A6CFB
:10072000EB520E101B4334917E310C5144673477E9
:10073000D275200F08430C46733340063231000057
:1007400018C5A10926B18863A8C15055402124CA03
:10075000843758C7A052ADBD32CF8803EE060318C8
:10076000C696072C543DD5472D681F3FF6D086B45A
:10077000193B0C0696000421139CF8063182328E38
:1007800075368D7C4774DEA9BF8C4322D0400B08A0
:10079000430C4673301A008842108918840069A2FD
:1007A000800679A62B09EAA2CAC84112A7F03D2DFE
:1007B000149A17C3A00A7A08C638623398EA7B9F56
:1007C0004300010C463A22EA7A9430C68F4237D071
:1007D000886456E4357DD7F1F273300708430C4640
:1007E00073334000004C10851C4C200841388EB8F3
:1007F0008E8425D4231CB0030846D02686681F0E9D
:1008000080C8EFE20C30114793E14A52947194781A
:1008100010F40C00A328F0210000000E328F2A41B2
:100820005471DE8FBFE8FBFE8FBF84218623399889
:100830002D08430C46733000003629000632088428
:100840001540318E188C2A121084A872B902A1D2D8
:100850002A2CD3E0F62A5E63D06FC42A94C4A43451
:10086000310AA7F8A90F9EA5FA3E418C7A2D4AD0ED
:100870000000F88554842BCCB596FCF956A7F108F6
:10088000210C3119CCC01808430C4673318631C392
:100890001198C5386735480006801548AA00547677
:1008A00050C1A1AEA7B2BE107F048CB9800000A2D7
:1008B000229A8002001A125482A8B432553F3B5B40
:1008C000516A175D4F54D4FD45464F8E3397271C10
:1008D00024006324B6B5B6AE2BD5001008430C46F1
:1008E00073308428606390E71A980018C70C461A82
:1008F0003D3D53D5FA062FF514A5A9FF70840000DD
:10090000003192429AAA7ABF47ABC2118C210C7374
:10091000209638A01AD6C3118719521A9EA800BF74
:100920000BEA95C24208430C4673308822431141BA
:10093000053088410D3B445C36C68320CD559E83EF
:1009400042DD7F8689E05536568010847194AE1062
:100950000010C0245000D53D4C0D1EA7F987A3FC04
:10096000E010042F916221082206389401380421F6
:10097000862339981108430C4673300006846310AF
:10098000C6419A73A84150888318E7309348A6B5AA
:100990000D82A2FE0211933120E7CF81BF0631C83C
:1009A0004E750803F07A239CC378006310E31FE2BE
:1009B000A2FE03F0DA021CFC41D423D0BE06E304FD
:1009C000A93D90FB1F04FBFC7C151AFA008043191B
:1009D00024926841862339980608430C467330C632
:1009E00038623398EA7B9F42001B1434031B411486
:1009F0005493C455297C44BC62A94BE2FE23398E32
:100A0000A7B9FE207C3154A5F136A26D94DF909AEF
:100A10000C552803E3FE23398C2132EB7A9430C441
:100A20006733000808430C4673301A0002188F27FA
:100A30000A806318C6210A1896AA5A6EABD10422FE
:100A40001221D4AA7A9F46FBC6D085BF055D30FC33
:100A50009F818C63535F2017F853153E85F94A75C3
:100A60003EA1267C20680008623C6FC01862339962
:100A7000801908430C46733182418C241104210CE7
:100A80008100881A44600C50410470C79248C2B873
:100A90008A58CC025BC67D8207B00800BD47801D26
:100AA000B5BCF340054008C021DC7A8F9420D222E7
:100AB0001B87C808C84F8C3208B43A287CC5C410BC
:100AC00080400003CD4813C7904D82C008884DD2A6
:100AD000A09C45D67A24E67B9916821708430C46DB
:100AE00073300006C411E4E3506A23DFE890044445
:100AF00014303E4080022A236823A839BF25A12252
:100B0000C641C31150BE3D080318E18212A3000282
:100B10002A801600AA70134106602105B520C6AFD1
:100B2000245A3B5B88532427CA10C31190E61D0149
:100B3000BEC7E11E4E397EFE100108430C467330DD
:100B400086120463180678C24810678D62A204B446
:100B50001A0042CC4798542A00320D03A2D0FF9FBE
:100B6000845D46B51E685D4086288790154A50947E
:100B7000310943E47C0209040002188C7C1F848440
:100B80001104168444036A3DE3908CFD8FE7BD5742
:100B9000FE132E6E022A4F7FFE3908430C46733037
:100BA0001800006168C63088421049504D15000693
:100BB0002A9041C20D519061294A5D1EA300343034
:100BC000000068C21092E8C007A04E140109D0CC02
:100BD000610884210EA4B4042D044418331E83C07C
:100BE000A8AC858391A9F43EC482D1EA418884B43B
:100BF0003461545DC1063D83E888645A081808438F
:100C00000C467332C00000228C40118C842063811A
:100C1000C304AAA621548210B53AE340FE22A08262
:100C200067C20630E46111082D009F493D2186907E
:100C300020BE521341BE7A80C764AA6A6EA1A0DEAC
:100C400062AF0F7BF43E808803113409006307C252
:100C50004FA6A120EA009A3810BACFE62A95C2170B
:100C600008430C467330C638623318000110218ED9
:100C70000153D30208484A8A39CC0841541FC0475F
:100C80001DC9D8113DDDA42117C0420C4315802A8F
:100C90008C841531A1D524D03F808E3B93B9058338
:100CA0002C17C9DF7C64A8C82159C4AA0210795640
:100CB0000DA2410CC1086188CE661708430C46732B
:100CC000384266800C001A18C420CE8842430408BB
:100CD000014CD454FD35A0E6E000F5AE2B0CF459E0
:100CE000ECD38108FA0F603A2DBDF8FC77D771E09C
:100CF00054BBC585E493ABFE06D88253F8B70CB35A
:100D0000A1D0BE86F97FD0C0BA82B88CE6601F0839
:100D1000430C467332C2A00010C4647210810806EE
:100D2000420E400C804103C28C47487F221E235054
:100D3000902408C7645B138FC55828000431D80B72
:100D4000421DC3F0E85519350D13502683F04503B5
:100D500018F618C388D0337D6F19B62FAC664206DB
:100D60006FA32426D04842106209081273FF78400E
:100D70000E08430C467330C8320C8421C000430077
:100D80000661108E43049351AAF2CE5720E857C94A
:100D9000382D0B8A05203246041907F1F0F39274BE
:100DA0002B0AD8B8F49F428CE4076D04031DE38836
:100DB000FE1B1E87DC2BF3A8521D03D3F2B4118C4B
:100DC00070C0C9E8A6D937D1B04673301B08430CB0
:100DD0004673310848608200C0338000003381EBE5
:100DE000600802021062A800220C6425F158E31981
:100DF00026E7F80464F04641CD000431F872150F7F
:100E0000F1AACBA4BE04020C879478847C1CC44154
:100E1000B88C631FE1A18F4018079D347A02469079
:100E2000924805B24203A10F01EC1341FC2A15AB15
:100E300091BC3E06FD26D0761916822608430C4644
:100E40007338C6020C230848419084212992027805
:100E50003DF5915E1A04516084000000808452C503
:100E60004633E85F090299001E4035826F1545E15F
:100E700040584120B59500000009F0806411067AC1
:100E8000C7408ABA116E59C23F12006318F08A83B4
:100E9000409AB00BE008D126426181098242136179
:100EA00048C2AD406BF86F9916821E08430C46731A
:100EB000308428604218000860016042320C9108BA
:100EC000F9300C01094A6294B700484B2001A83957
:100ED000DD0AA02680AAA8631C303D1098010811E5
:100EE000673AC7C5598C6002F920682318841184B9
:100EF0007A58C7244C12067184080027B2000804EF
:100F00009A241A8BE0C27299C44CA9081200426854
:100F100025027A1A0FF1154AE12608430C4673336D
:100F20004000000158442143118042008E2920488E
:100F3000424311854263597740E21D0748D00000C3
:100F40004311823E09A5BA16B119CC23184838A01E
:100F500022108428EA80FC2D0B02DA06124A8658F9
:100F600020C8320425F62A0A6360294A5A20000064
:100F70003B9A8A69E43E2112A7A80842102320E385
:100F800004CD44E43A88CE662D08430C467330887D
:100F9000018C6320641108421042418361204200A9
:100FA000D318068290909A05405294A4BC03A200E4
:100FB000003800418B904CD0007C40EE03F08FF065
:100FC00016835080841590420E401907C8041A1EDB
:100FD000F1C8DF03D6BE11085E40C442461A0109BB
:100FE000890E61E400007156013B12742190341A9D
:100FF00084890917580CE6A8BB28F2741808430C1A
:1010000046733188118C03004812340000179C4E3F
:10101000208C87D503D8A433018E4120C551687E2A
:1010200085C16C02A3D07830907FD7A2927C1F95A7
:1010300045655D322D43F10D310483385434A56A82
:101040009A8A76E0FE0EDB65F8024092219142100A
:10105000C3119CCE1108430C46733000008491826A
:10106000E509A49501AB01D8180E31516C2406A1F5
:10107000CCE89C5625A4FC5D166DA35F378C9411BB
:10108000C984B080160403D07531EE3B17152DD6F8
:10109000170DB5E0691FA8389D13ABD23F26E7585E
:1010A000501A109084CB364E702208430C46733091
:1010B000C638A092404710925820C000022A9241A0
:1010C000700491C81A0E4760AC421B43D0088420BC
:1010D000F83405433C52150621A47C231908422C00
:1010E00084F43E8B2826294B0C0423C0341DA40015
:1010F00004303A886DF807536502BE2A3210841115
:10110000044127B1F8071E07E0087A8AA42DF8E306
:101110003A4ABA95FD801E08430C467330C63180AA
:10112000421431198AA4B22EA8C82121081A9C6B36
:10113000192A0C6001860219A728D0D20002188C47
:101140002A3FA03780425294BC8CD51C0C61D683B8
:10115000A461249E0714D4F90541C6689C9049ED0A
:10116000007785426A846127F230704DD012127385
:1011700063492E0B0A3399802808430C4673388440
:101180002104242102000218184231D443A86780A8
:10119000809510EDA1D40320F439E289001A20884B
:1011A0007A1F223C03900E89A9840419218902A187
:1011B0000002CF206210BA8D0CA50F100A9F4300C9
:1011C0006B827C1A007E3180440700518C2327C338
:1011D0006400950001780482F817508426A88242A2
:1011E0006819CC6733002A08430C46733106718CAA
:1011F000848608422C751D012908429448296415EB
:101200001DC35092A40001680C4188345A9823F8F9
:1012100071810850C4635004351761E4467F153F5F
:101220006DFC25286762530427C21084230E103AF0
:101230009C10C590421B92C62A6DE63399EB7060F4
:1012400008430C467332C631C3119CC41092182453
:10125000532149950D83FC4555FE2FD1F6F97D3577
:10126000B5E8F53FCFF2E8FB97CF46FF3F3E5FF38F
:1012700084631C3119CC61086188CE643040170842
:10128000430C4673300006C411E4E3506A23DFE8E0
:1012900090044410C621F204001151E8350F37E4E0
:1012A000B4C458C838622A168E300C6386084F8C36
:1012B0000008AA005802A9C04D0419808416D483DE
:1012C0001ABC9168ED6E214C909F28430C464398C0
:1012D0007406FB1F847938E5FBF8401A08430C4676
:1012E0007333400000018C2500908400430C04946B
:1012F0004475D8D4399479D1F5198009848063185C
:10130000C72CF0219C05408C84BE2E2ACEC015B17E
:10131000F0A80017F10C00951F0032040308368E68
:10132000E2315D303F42A046E771611281AC81C37A
:10133000138B6F0190840B651000988D614C1251D6
:10134000A42E8FB64EF6000908430C467330863142
:1013500008411908208000036A318C2118AA121054
:101360008404D1508D63228C19E03148C8305B056C
:101370009EBE9B27C8BC783EC42155B78D8008C44B
:10138000ADBA2FE4D12FA8F33AD20E3FE74AC3807B
:10139000308F008A6681085B0545E584222089C874
:1013A000814009AE8D83EE95C21808430C46733018
:1013B000C6386042BB65100000B2C0A00311A8236C
:1013C0001DAECCD05B187ABA1F521213D8190988F7
:1013D0006860D06A1DF81B893480451F2688119EDD
:1013E000321AB78CE01A09347D183B9ABE2B440A96
:1013F00000F61D186BF8B6AF80DD97B52B84020898
:10140000430C467330C6010C638E06000001862A29
:10141000018EAA980006D73A0671A8E33A8E802179
:101420008AABEE49518C9F8FF070F5238C3E098674
:1014300080F9EE900E21F83218CA70A46A2036D3D3
:1014400038CE3887E0180DC0E8FA10343F13E2EECA
:101450003E15EC63CCDBA8DB519CCC0208430C4668
:101460007331860080110C863304231D215446609D
:1014700000C7EC01B55363CE63C1D3F9AA986318D2
:10148000E9DA9884A92AFD1FE7DF2A56FF4D8F3D30
:10149000FDDFE118FF7FE463085750EE3C8F6033B7
:1014A0007D10C46733000A08430C4673300008609F
:1014B0000054AAACE16118C618A832079FFE5499DF
:1014C00040C6216C5C8801D0D0318926AA6038C022
:1014D000860B24210443FDCD3B5643A08008000029
:1014E00000E719001BA2FC1BDCB1DD663A82B603E3
:1014F000D49A114BA3108109B4BF94350ECB2B8421
:101500001108430C467330C635C411C4B33812A059
:1015100010850C54F50E57A11064189B53D4631812
:10152000B46F07E3A8430C6E7D04F029C44286061D
:10153000529793B845C0886000072D705217C001BC
:10154000104418C951585505E820840108618B0AD8
:101550005C08000860C12000844D56AE2BD50016F3
:1015600008430C467330C62308631C31300C8425B5
:1015700040210AA008882A9F20AA2A5DE741268FD9
:101580005267174FC2296398D02A7A685F01341CCA
:101590008347F8463F07419ABE2AA6A7D03A0DC214
:1015A00042D1F41178BF28844F808427C6BEC7D1AA
:1015B0009168201408430C467330C4318842862356
:1015C00019807500C70C46731E860000085463A27C
:1015D000FD1B7FE010DB54FF51516AFCCD467FF4C8
:1015E00052C689FEF9353FF5E568E3184A50D4FA4A
:1015F0001FC3A326A459AA4484218623399812081C
:10160000430C46733000D03400088631C311854145
:101610004CD51538424212182686002AA7A93E400A
:10162000C3118FCE10DFA200010C02A310842E2E56
:10163000B9F478D9F0213042BFB0199681A817B219
:10164000D03330D42217A3F1211A98692AC3D3FECC
:101650001BC6F9BFD01708430C46733000000111B8
:10166000810840884210B3F08F98A9342DA8153016
:10167000C7C40C7DD54E386072104A5294B53DC92E
:101680007C854A00000054F5006188CFA09F1AD6DF
:10169000C30DF9323F4800E6FE418EB2D097610497
:1016A00026A933EE2A7A93B5800E08430C46733090
:1016B0000008623208C4310C5505BE1A6875090865
:1016C000420404268FC80C630806394E60A9BE1870
:1016D000A6380B34410AA008425284260AB1AF87CB
:1016E00053B203F4FCD586D02AC6D19132AE07A1FD
:1016F00090908479779C79EC66FC22F1FDBC200AFD
:1017000008430C467332C6318C6168000046610D97
:1017100034308064180364D40A90C04212A1368F1A
:10172000A00C601E89BD23B26D44DD1B5808618882
:10173000C86210A18B6654D1773E92A7A9C23D5FC3
:1017400033A8821860252C99F0B400043119CC1903
:101750006EC9CE000608430C467330C00001B14884
:101760000631C303A865C926E2A8895AE055093F96
:101770002CE1A0E8175178B48E899154DCCE83CC4B
:101780007719A771F0501CC92A52681DD4E7EC8F55
:10179000E1EE66927A55174199C79A10CD9D376A46
:1017A000FC4210C3119CCC0F08430C467330C6306A
:1017B0000010C014001AA410EDCE69B53D44000419
:1017C000201AF4506855087B8EAEA118EA79CB43F5
:1017D00007F1DC97D8EC639093C8B8557454B906F8
:1017E000838D763E07004D080318EE9DA6A3E3C245
:1017F000D084E12103106723982721D43AACAE109E
:101800000E08430C467332C6318C5150850C08616A
:101810000D3351CA58854A0056E10F06211360EA7C
:10182000FE024E348F621863E2A0B2CD0FD90000E1
:101830002C9B4406D1A3D49B007A8084A5D8884DE4
:1018400006A08ABE41FC1908BC1DE400001BA018BC
:101850002126177CE3322D040D08430C467331809A
:101860000043005482318C63CF48424304A9FFFDFA
:1018700013DC8EAA520C4317060C29B536F03A83B6
:10188000E8054EB98350DC74668024D1FE2CA2A0FA
:1018900068000E04611C401210840E703C02D1B826
:1018A000E719E6A5E8552E7C1FC4673300090843F5
:1018B0000C4673300008623398426A8357C6A89D6D
:1018C00011B8854C121090C461A3FBFC9FCF3DFE64
:1018D0009AFEAFA3F778BF59580002D1F43F93871F
:1018E00008075269FA8800BCBF7F080B08430C4602
:1018F000733000086233988C108F57D1DBAAC9BFB0
:10190000068FC9B740C3B47CFF8B1F8042109B4E2B
:1019100012218862154BC080631C31A44653D02D20
:10192000BF82A3D082A00000E838AF86682F66157A
:10193000FC2DD0AFAA87B18CE6600A08430C467331
:10194000310800340004311990210041B3E5551EDF
:101950007FC4E824D5788F22493670101229FE17EB
:10196000766E5C47CF19802DEEB2DDEF35F3393B53
:1019700097E026E84CD344DCB35F335803739F40B1
:1019800097E65733001008430C467332C00000023C
:101990008CA391033F084631C303A83381882210EA
:1019A000BF92FF1A010000882421218C267809AA01
:1019B0002D035CD06C9D148318863F8398104639A4
:1019C000863A9078816E3C0535A061220884216EAC
:1019D000753E8FA18002EB3D22FC43A93DB004215E
:1019E000862339980C08430C467330C42143118078
:1019F000C6386024A825B8F2A7B1F435E9FF18FE6F
:101A0000110C431038FF9AA1AF2A6A26A7E83F1DA0
:101A100004A52C31A3F520002180C80802A6CA9491
:101A200063BC6B2D18C32009FD13E60C3119CCC023
:101A30000508430C467330C000B1810302C0066044
:101A400010EA1A22B8A2AA59DB40E234158C638648
:101A500023398BE78C24AF8A8CF8EA496340D62B74
:101A6000BD0430C467327C00002188CE62A875FEB8
:101A7000ACB508B5FEABE11FF46A9FD7FFC0010803
:101A8000430C4673300E0002188CE61A9ED7D00124
:101A9000ABD4FFBE8FABFCABA9FFB2689AB8006AAB
:101AA0009EA7D1B55E02A7A9F47D4B62F9FF8180A4
:101AB00075186188CE662408430C467332C0004313
:101AC000119CC260841A88E2AE980121020245117D
:101AD000C302C065151511510218A8863C622AE49C
:101AE00059A1461A2543F1F21F27200033E7F86871
:101AF0000D13BA66D3E054F3D54FF10E2A947E3D10
:101B0000C221917E10C3119CCC1A08430C4673303D
:101B10008421040000A208EEA71D471C6824D04CB5
:101B20006343118D4CC31084860843302108461D41
:101B30001F4300160002188CE60084C62640221BB4
:101B400099EE7D81088230EA0FDAA509064210DF9E
:101B5000C92A7A80C0AA6A216886212A9A9C83A60B
:101B60002AAF8030C46733002D08430C467332C05F
:101B70000000631C3119108108AA7A6C410E73A30E
:101B8000909A0D4F4E0F47A7AA7A7F4017CD4E0B64
:101B9000E7CD7E7A7EA7CDFE117045F44B529BEACD
:101BA00007B32998210C3119CCC027318D0C46730D
:101BB00032C02100008CE623180218EA88CE623178
:101BC000863294621467315405000B6446730E80AC
:101BD0000055164467845426357319CC0CF8290334
:101BE0001AC18CE61F8BD1917C0A9EA718084D66FE
:101BF00033987E0212A98CE62A92C19148631A1882
:101C00008CE6602C08430C467332C00000E10041B2
:101C10001085800042486036056B50D011052F3D7D
:101C200054FB95478BFC4DEEBE8B8A3908E6B00419
:101C3000842430426F586548CA93C80059A3D45FC2
:101C40003E80739CFA3E8FF27B9F01BE10C3119CB5
:101C5000CC5A08430C467333000043000864C6CADC
:101C6000D53DEA2030216CA7C80D6318E1819A4464
:101C70001842CB65989C75C806ED14B94C10848643
:101C8000084A8255A9EA7D1F47F998267CFF3FCF75
:101C9000F3FCC1862339982D08430C467332C000EB
:101CA0004300648800042000842862D81005105482
:101CB00045A94C6318D53E8262108409B47A9024F9
:101CC000A859F0FF1A210CCF88A5862A6F881FC457
:101CD000626F42A7A9299D1F42018C63181F2ED550
:101CE0002AD4ECA9C218623399801308430C4673B6
:101CF00032C0000042143023088220821A64031884
:101D0000E18A6C95132C20539A2D3FA2E6FA3FE30B
:101D10009B0F40180210C3119F803F805987F7CD59
:101D20000B2018C70C46731842220A2191680A9E9C
:101D3000E7D1F8708430C467330041304218623311
:101D400098CC13300158C638623103730698000DE1
:101D500040218A99019A10C6154FF54CE2122021B4
:101D600088C7A8BE097518C68629A2541551084807
:101D7000629AA87E8A9EA3A6BE7F8A9AF6C84AAABD
:101D8000A1A7EABD0337D50211E6FFD8C2608430AF
:101D9000C467319804318D0C46733340C0322191B1
:101DA000406300210C3119CC2DD0020002188CC0E8
:101DB00000E85ABF300D06A1D45B99B341F8350253
:101DC00004910F53A18B000057C48BB8D0778F9F1D
:101DD0004508430C467A2615996A5A167FA9FC0DC8
:101DE000036219141F01A188CE663C08430C467398
:101DF000308428623398EA7B9C21369FA3FDFF3014
:101E0000C212C3011C65248420035A0002188C25C9
:101E1000ACA481862339843A08E188CE62D03C693B
:101E20003AA7B9F47E1C215FDFF306188CE6603B0D
:101E300008430C467330000030842430424E2CA8F6
:101E4000C1BB326A600831D95C88C5859094F004C2
:101E5000209290A82AE154FAAD31A3FF74CFCFFCB1
:101E60002E9BF9FF9A6FE2184631D5C3184C1080AB
:101E70000C000210C31184C134545A5EE14C330E7D
:101E8000D5B9800708430C4673300008623398EADE
:101E9000026BFD492A1D5F33A8F57CC743D5E6AA2E
:101EA0009354CCB450B5AD6B733A989F3E8DF1FF0F
:101EB0001F3E69AA7C26CFC2137C0BCDF55C7F6FD9
:101EC0006308430C4673300008600610850C4621F9
:101ED00009980008557D424300031EAF51553ABD95
:101EE00049A82F57A9357D1FFAD5EA4D5F47D5FF81
:101EF0008A9B57D1F5661747D4FF01842186233981
:101F0000981A08430C46733080001091408231B219
:101F100068054F51500188748D04431D4240B2B989
:101F200017C3E8D47F00001F869AA9FE3A9EA21428
:101F30003155FCC2D80355FCB4CD5BF2537A90C640
:101F4000CF8CB4D8005D0BC80849E82FF127C3D067
:101F500032C0084D194B54100908430C4673300821
:101F6000424302104000430C2540318E188C2A3227
:101F7000543FA8FFFBF180D100CD1F47D119B471A8
:101F800072868FA3E8598E872968FA3F3199E83223
:101F9000A68FA3FC19DAC23E10D73E6E102B084361
:101FA0000C467330022080F141E512108BA92CAA57
:101FB0008C43A9EA410D9A3ED621F41F3FC54C54EB
:101FC0004301C00C00F14D446094210C5529CE16FC
:101FD00095F52AD4F678424001BB0C552954154793
:101FE000C0425E31449114FC12CCF15206188CE6CA
:101FF000602A08430C467330842860225822898E58
:10200000A32846318C25A9C451840038023AABE29A
:1020100028C15000E10555F0D3150E800AABE0A6AB
:102020007403D95A88434D0034C545FC0434D68F17
:10203000FC04218623007D13732EBF60FCDB3080FF
:1020400098C1A84F644C5D4DC23F6003E8FFA8AA49
:1020500057085D08430C4673310848608218852E86
:1020600054C510CB53E8A3D1F451E8FA3E8E10C307
:102070001188C7338C631922992A51A8A52B92F88D
:10208000E849A100F5EFCE004AB53D45C4FC0BD1AF
:102090000FA0108420CC1086188CE6603008430C0A
:1020A000467332D8318E188CC63030210006210A92
:1020B000188CC6005444212188CEA5D1F47D1F4739
:1020C00028CB10C85F2800086233F946386233D144
:1020D00042DD3DB40D43F19FFAA9F4FD17E337CE7D
:1020E00018623399800F08430C467332C2000020F7
:1020F0006C4120B2680D00488645A92C1917B0A97B
:10210000EA7D1F47F809F844322FC410C3119CC25E
:102110003F80008623398F41104510C8BE00003033
:102120000E21917402D816C46730FC20043119CCFA
:1021300066CDF8704608430C467332C631C3119C15
:10214000C4108C8420C70C5C049AAA1996A2BE34D1
:102150003987239A7E0C13C00EC3A0E75A2ED23DB6
:102160000F61914753F65D1E8731D75A3CC5A4FCD9
:10217000F4EEC7F3F711C906608430C46733001565
:1021800008430C467332C0200010C467340420009A
:10219000EAF008751D5F4D547AB535527F228629C5
:1021A000AA98658629BD17DB972A620C64A9E9B055
:1021B000B401AB3E426F5567C74C9AAEF8B3067791
:1021C0002CFEC210C3119CCC0A08430C467332C6C5
:1021D00031C3031842210C6210821A7472B5407127
:1021E00000408803A804151802708020E423BB4235
:1021F000A0ACEA46DE390EC3A202A21822118C77E7
:10220000DB3FA8AA50187F0A448302B5800C5A9677
:10221000F151511105484A9F48D04B511B43480387
:10222000557C41862339980608430C46733300CB0E
:102230001E7C00016046110B27AA8A38FEE58A9FA2
:1022400052CC347D406330E4AF88802440358C72BA
:10225000E7C17D8C750715F333A0033E6A8821869C
:102260003A8A9F32D5345CF751F9335DD31FDBC214
:102270002F08430C467330C621046100010C4655FB
:102280002B400862A718D6321090C467FCEE03906A
:1022900066190D9B88FD1FB732087E7F899517CF81
:1022A000FCEE43F4BECA97E7F8751F9FFB3781F039
:1022B000FDE108EA2F9FE3F1FFC01108430C4673CC
:1022C0003000086002910006541A98C77AD100D5F0
:1022D0004206651526D1B05CDF17E6CF9FE70FB643
:1022E000CA9EF9E0BA900A6B188FF4ED1F00C24243
:1022F00012180FA2001FE158CD52501A8FC01D179F
:10230000B8F434208430C461E9591475AD8C0042AE
:1023100008430C467330180002188F278A82E5CBD9
:10232000B4020C84212E08E668D0A62A96E9A9EA10
:102330007FE430C48B452800043005C880568FC721
:10234000FC2421218936A224CD6D1347D1FE018CB6
:1023500070C4673118210C3119CCC00C08430C46ED
:102360007330C631AE2992642084020001149E5558
:10237000D0F613834719084860603CABA3AB47080D
:10238000000001A0698D144D41086188C4C6EA2788
:10239000CF9407F9C7F5006704AB518AA0D024AAEF
:1023A0008BECD03E6F6FF83CA9F006188CE6600508
:1023B00008430C467330000862330306318EA1D700
:1023C000FA818C5A3F07501327DC7A017C7ABE8051
:1023D0004A8F67EC063168FC132A0264FB8FC02F1A
:1023E0008F57A80951ECFD80C62D1F4418C9648E73
:1023F000188CD6309BE1F5E6601308430C46733227
:10240000C6308842108D190678882AC2539526A5B1
:1024100050E2751FF3A0619527F04A73E1EE3FA1EA
:10242000F9334E8C30839EA9860BDAA7A9C20034FB
:1024300000600008C9B285414C582100592D540450
:1024400021218210671CB81086188CE6601608439C
:102450000C467332C0000040147449A42188441013
:1024600044356542408F601D43A96864D0220FEC5B
:102470009A197E0882AB1687895498C6842F8220C9
:10248000A6F441F703F8C82F088126811053751070
:102490004210B628A7342F20409A69BA94661DB717
:1024A00051FA319CCC1A08430C467332C63188620B
:1024B0008864008C600C5153D4E31974718744AD67
:1024C000EA40876AD8F4510AB7F819F25D7B07C76A
:1024D000ED040CACFE32109748000D86A7A85954A5
:1024E000FC8310BE008618D18631C3119CC21361D3
:1024F000BA6F140F08430C467332C631C3119CC522
:102500009FF17518CC20883108823A9696A9EA7D09
:102510000C5A172119FC22F886018221903A0F8E5D
:10252000A7C6298D1F72EC7D8F9EA10300007C0140
:10253000284B10C818C4421B22E08CC7355BD93623
:10254000D03708430C4673301A00021864773454AD
:102550001A8AEE9E607DC36A121090C4C121E823DE
:10256000A8C776481A3DD9A0FF011C41D0C84CF835
:102570000006C411C4AB7D69724C88009084860744
:10258000261B411D4616497E4B3DCF864500010C5A
:10259000462C8CFE0C663399801E08430C46733023
:1025A0008631C30B8EE6810433355D53DCFA3F0F71
:1025B000F3FFFF0114320C90C4664254241D60984E
:1025C00060646491526803DA374A9BFBD007F14993
:1025D00055F54431C3119CC7531AE708430C4673A1
:1025E000302908430C467331084088429023C25476
:1025F0004318E188CEA2FA580000638C7FBCB0215A
:10260000160798AF20CE3480F81EC7C1A3789F2D3F
:1026100093504977C8BC1A90E09E383EEBE1A10880
:1026200042770DDA000D8279A92D093B433EE06A1D
:102630009FF98AA570801408430C467332C631C3D3
:1026400003184601822060434C82A210040886A32E
:10265000D0CA0280AC2D44C0000CD1F42F47F0D07A
:10266000730D0C033545A3E8F99E86C0000CD1FE1E
:102670002CE2290E67A1D4BA3E820D1F47FEC17419
:102680004401086188CE661A08430C4673308421E1
:102690002E280800086230084631C303184011880C
:1026A0006294425294A38A2A1BD02DE56A20685175
:1026B0008FCB31842210A181545F2E7953D4FF0B2C
:1026C000000FC4212E8E10F704204368D4B40545B2
:1026D000F18841002A7F907501806F8830C467338C
:1026E000001C08430C4673300008623398EA7B9F55
:1026F00040FDFE7A844221090C465F20C7FFFC039F
:10270000D97FDA20631EC14BCF151340C0442D057D
:1027100046BCA007002A80019CC74042102CD02B49
:102720000A0679A8BCCFA2A718C70C462136821882
:10273000623399801408430C4673310216921818BC
:10274000E58190841D42300C30C54F53E82218F8C3
:102750000D1E79A9FE31713A3FC0127E3EC7517DF0
:10276000D420CCFE11AEF9A89A1034000042508457
:1027700030C4673203E0632F8C4328EA2A3B2221CE
:1027800090EA11D4F5298210C3119CC61208430C9B
:1027900046733084286042580008623008657BD454
:1027A0002128CA52C317BE8FCBFCFC87143E5DBFE5
:1027B00038421862336FCC318E188C2FFA87E220A2
:1027C00049A4DD55202A0F86A7654062473A3E8F0F
:1027D000F106188CE6601408430C467332C40008F6
:1027E000115022A1042300C03146528CE010CDE4E8
:1027F00088718D189B10B91D0701D1F47FF252D05A
:10280000737BAF42CD774D1731D4F4104BBB180911
:10281000A01420002188CC00A2291ADC06AC4218A2
:10282000623399801808430C467331C00200008E51
:102830002309802708690886CAB8288A80328CD183
:10284000651F08D031FB2AA4D47E7FE731EE2CD15E
:10285000D75AAFF751747B91F9008EA3F73920AFA7
:102860004127B7A97F3F08799D46E925437CFB7F37
:10287000218210C3119CCC1E08430C46733000000B
:102880008043862319E831D0C50C46384E80BD639D
:1028900046D2747D18C1FA3F0D1B3AA6B47F9F47FC
:1028A000EA747D1FEC296188C69C0819D0F71C03C7
:1028B0007E4003A0ACE4A0848426E3A97713DD2145
:1028C00019CCC01208430C467332C0310850C4669C
:1028D000300021000631C31198EA40430024793CBE
:1028E0006821086188CE83CBF6DF8B4FD28216E455
:1028F000FBA7C39FE623D641FCE5C4A90A52C31136
:1029000098747D782317C4618C70C46750FF11548C
:10291000AE101708430C4673300006C411E4E350B0
:102920006A23DFE890044410C621F2040011511B11
:1029300041A879BF25A122C641C31150BE3D08035D
:1029400018E18212A300022A801600AA7013410621
:10295000602105B520C6AF245A3B5B88532427CAA3
:1029600010C31190E61D01BEC7E11E4E397EFE1058
:102970001A08430C467333400000018C25009084F4
:1029800000430C04944475D8D4399479D1F5198056
:102990000984806318C72CF0219C05408C84BE2ECE
:1029A0002ACEC015B1F0A80017F10C0368A8780171
:1029B00090201841B477118AE981FA1502373B8BD0
:1029C00008940D640E189C5B780C84205B288004AE
:1029D000C46B0A60928D21747DB277B00A08430CF3
:1029E000467331822108421C30318C8D0B42100617
:1029F00061A024221023A870AA90633D45F554C01D
:102A0000A200BFB2A7D07E7A9800001A306C41CAEB
:102A1000AA021080A809B010952723A01E88D619F5
:102A2000F0B7E91B46323746086188CE61F8731863
:102A3000AA55CBF7F0800108430C46733086120488
:102A400063180678C24810678D62A204B41A004267
:102A5000CC4798542A00320D03A2D0FF9F845D46D4
:102A6000B51E685D4086288708154A509431094391
:102A7000E47C0209040002188C7C1F848411041673
:102A8000844402AA3DE3908CFD8FE7BD57FE132ED0
:102A90006E022A4F7FFE0708430C467330C621089A
:102AA00000048039800010422A86791CB21B82A162
:102AB00021084AE43A8049607C01086180D41F07FC
:102AC000F01080000003A1E4388802088318CC3C91
:102AD0000C26A06D43FC6B039A342D846125323D96
:102AE00003E2D1AA1CE7E007C24184440B40001274
:102AF000A6D044100C60E6160203E018C442073862
:102B00006E81FC454697C00B08430C4673300008A5
:102B100080920CB118D4521DF0102AA33D93A31F2C
:102B200098F855BC06F23FB582E79EC68398721AA4
:102B30009F17A3F1212687899FF85681AD68FC81F4
:102B4000EE0D055AB607A3CE5D1680626A1782F9AC
:102B50001CC09F07951E4E801408430C467330849A
:102B600028604208E5318C2118C70C4A15385A00F4
:102B70000063212EEA8644A9E609E03A1CA5F0DCB0
:102B8000E30B5B14548010484EA2A206D40A88932B
:102B9000C02A50543F3E834C7C0AB4368F8E99F83D
:102BA000C953817529A18185A1086188CE66110864
:102BB000426882388CE621086318844210220B4850
:102BC000D2373850AC0A80231869926803A90813D9
:102BD000E8B50F91F08347104218603504A9F080E2
:102BE000008623810842C63C1A8ED018E780846193
:102BF000184631C303F9A826F723DF2D310854C640
:102C000089B8613F168E11104B19070C7C2DF9A362
:102C100039980908430C4673308631084119082059
:102C20008000036A318C2118AA12108404D1508DBF
:102C300063234C19E03148C8305B059EBE9B27C812
:102C4000BC783EC42155B78D8008C4ADBA2FE4D1FD
:102C50002FA8F33AD20E3FE74AC380308F008A662E
:102C600081085B0545E584222089C8814009AE8D35
:102C700083EE95C20908430C467331042110821C6F
:102C800070218C63182A2B0434006B0306A00CA25D
:102C90001112B090378D001A27C1B1682DE4099246
:102CA00068DD87A5907E3A08423AC691ACB4268F7B
:102CB000F0D1360D0413B6C5A183B4F4B70F803438
:102CC000BFE7F02C6D002188C010C461A0EC322D4C
:102CD000041B08430C4673308421082D0480318C7A
:102CE0004311AA5054C31D4F944F3F386921F442F9
:102CF000084A5294B5091A00021800714EEA565556
:102D0000E442740004D5A3EA17DFC1260342D4B419
:102D1000520C6208430C463F3846218A200857531C
:102D2000EF2419387F5C201F08430C467330842839
:102D3000623118C822460108C6386231C242315495
:102D4000F50B6A06E82B20C8388743213E1094A56E
:102D50008C3E027C14484E100015083F8863E11D2C
:102D60004E418A20F8B80A9F442109F2D4F519F49B
:102D70007D1421E83E0113E0DE46ACA350F83A8C06
:102D80000A33D60DBD000C08430C46733008100CF6
:102D90006118C00960421882165701A82E805B2B6B
:102DA000A82F8A8DA3A8BFCF4740BAA5108C5E85F7
:102DB000D44E2042D244408C8124403D045F88851B
:102DC000F56B3F003E227300EC0944461F1637B0F6
:102DD00000269C47E0665ADD922A8B3BFE462DA2D8
:102DE0006B210246EF42EA15966B73301408430CD0
:102DF0004673308428842318C669A27808D63B0815
:102E00000050309A88152815FC1084A9C00402913E
:102E1000A9FE04000118C631FC1148821A62A025DF
:102E20004B7948954682425E35BE8C218B32D12A41
:102E30007FAC210C3118CBE10A00004300010848A7
:102E40006230D1F970801408430C467330C44108D5
:102E5000630884118C72812A29806B18C000007A63
:102E600028422A203514F431760200041A23F2F89D
:102E700034AC22501ABF017F5E8139820460403435
:102E80003DE08210AA202B41FE36AE474510F20EDF
:102E90004084DA3A81FC05950648EF4120C880005D
:102EA0000000A2118882A801CC640218006A648123
:102EB000086188CE661E08430C46733000000C84FF
:102EC00010C6310C5108433454248C2A1B2021C4D1
:102ED000000A8743A885510421F9EA2A6338A9C268
:102EE000100021F66B9B67E008044112D0043118F2
:102EF000D45B4908150010C011E82C144D40102176
:102F000000468210AB30D03F8501485773C4541639
:102F10000E419C7C01318D98FD0A00010C7C310C26
:102F20008B41001708430C46733340D0000300E286
:102F30001904810908421001ADEA0FAAA7D0BC8F7D
:102F400080291A4710B2A2D739408B470988418C93
:102F5000630C3199D5219E2A4D149A0713516B9A0F
:102F6000081B52692BCE747CEB6BD1F4AD1F46DF8E
:102F70003B401408430C467330C431443228C4101B
:102F8000D3F76541A3F29FC7BFFDD43EFD37A3F938
:102F9000FEC06D0BA23398EA5B7EA70841C5800D89
:102FA000A9C1CEFC0BA98BF31B46CF3A00C3119CE1
:102FB000CC0C08430C467330C421431180C63860E2
:102FC00022A825B8F2A7B1F435E9FF18FE110C4389
:102FD0001038FF9AA1AF2A6A242300060D13F1D0FE
:102FE0004A52C31A3F520002180C80802A6CA96B07
:102FF00010567A31824013FA268FACC793A000088E
:10300000430C467330C2388645A02A605CC6D101A5
:103010005056A0F8A93ACEF0F83236DAF525235A00
:10302000B7429DB83F83B7D93E400E45A9C3505E15
:10303000DA152759DE010AE97B934888645A0C1B8C
:1030400008430C467330C638623398EA7B9F47E1E9
:10305000FE7FFFE7FFFE7FFFE7FFFE7FFC216B5B4C
:103060000C35A00000018AA7A9402AA02121090C43
:10307000466427C66ABEA3584218623399800F0877
:10308000430C467330C638606160000862300854F3
:10309000002000270134450AA832A1D2191E85CC90
:1030A000202CCE2C0D60FF0E8531663F1E713090B6
:1030B00084212A1D1EA257C08F8738D1FE4D1021B2
:1030C000863E5DA2529A28157C3A1679A8E82BF81C
:1030D0004DA77C593EEC0B08430C467330C6386252
:1030E0003318853C540218A21902FC0869FAB7FA91
:1030F0008AA5000CBA18C42143118943F2719E08B5
:103100002A7A7AA7A7F47A7FE7FBC7F3FEA21042D8
:103110001F20215E9FCE1ADAC0A5701A08430C4604
:10312000733084286042210840B18C6182118C7018
:10313000C0CB53302150000863430547A3D4384F18
:10314000CDA18AA7D80210C3028ED5706C9B85F6DC
:10315000290ABCA9C953E8A421347F905FC7CFF0E6
:103160008D7DCA7E3DC8210C3119CCC01208430C9C
:10317000462697C6000218032440102186367CABF1
:1031800040090631C31199329259386E63A10C205F
:10319000000006463DCE860D5248D1F5021330D1CF
:1031A000FE1AC23AD1BDDFE34420C6386233EE7363
:1031B00065EEBA08000862339872DC97A3140843DE
:1031C0000C4673308222106318C6121080008610DD
:1031D000AE82204240DA00086A00041104B0308058
:1031E0000004835213A101EA1C0344D6422DA09F80
:1031F00001FF217F22B6B0AD092118C64080DF4C07
:1032000081F813F9CA47ACC53500C5509004D0C742
:10321000E4043A008241773FC7E0015E1E05C3A186
:10322000102420C9A010601807A07751E4E8140802
:10323000430C467331084860812088288482084006
:10324000003220902399C001088428604118C70CDF
:103250004606A9A9E18C21294B0C6657207A7A8071
:1032600082254F907558D043C48BB8E0FB817C6BAE
:10327000F02B21044326F3C968442049F0CF3E4790
:10328000C340FC44C4BD1FE05C87CB1E4E802408B5
:10329000430C4673308428623314E410800318E131
:1032A00088CAA7ABC25294BA1043AE0B995FCB59F0
:1032B000906418CDF3E56219081097C4FF3A1F8097
:1032C0002409022C0430C46350563508000863E01A
:1032D000A9368A9EE9D43F8CEEA5D8024212188CFA
:1032E0004210C3119CCC2A08430C467332C0200CF8
:1032F0006386230000021675506F2208C8421081B1
:103300000DE3504B150715501044154BF2643E86E3
:1033100087F37804887E7D0AA1F86A7DE7F8D1F604
:103320001FA4C317B7F15531DEF0318AA29C724A4F
:1033300062A200263110848609C17552B840350852
:10334000430C4673310631C30230861964240841A8
:1033500030042310AA7082DAA93CAA849BCF724F52
:10336000CAA321380093C918C530F05584C5A18877
:103370004216B3509360D084418331E80752084429
:10338000583F0A9F44EC347D0AA2188648C346156C
:103390004E31FC3FC4673300546F67676C65204D46
:1033A0006F6465004C6576656C20646F776E004CC9
:1033B0006576656C2075700053617665004C6F61B1
:1033C0006400526573756D65004E65772047616DC9
:1033D0006500080670E8F86070D8080670F870207C
:1033E00070D8080670B8F83070D80806002050B8B9
:1033F0007020080620702070A824080670A870208D
:1034000070D80806205824702058080670F8F87004
:1034100020D80806106890381068080670A8F87060
:1034200020D80806784848584848080600FC8448D0
:1034300030FC080600205088502008069024885050
:1034400004480806007078F8F8700806FC84FCFC54
:1034500030FC08060000000000000000000024000E
:1034600027002A002D003000D5F08D14A1C881CF8F
:10347000D9F1AF200000000000250028002B002E0D
:1034800000310003053F213F1208120A100A0E1CEA
:103490000E0C1E0C141A14161F161E131E1E1B1EB5
:1034A0001E1F1E3F213F3A2F3A173D173F213F185D
:1034B0001F02040A041F0E04040E1F0A1F0A0E0E28
:1034C0001F04110E2E252E2F2A2E262929021F0217
:1034D000081F08150E04040E150E15151B151B04E8
:1034E0000604040C040000000017000300031F0A78
:1034F0001F16371A1904130A153A000300000E119B
:10350000110E000A040A040E040030000404040032
:1035100010001804031F111F121F101D151711157D
:103520001F07041F17151D1F151D01011F1F151F44
:1035300017151F000A00003200040A110A0A0A11B6
:103540000A040115020E11171E051E1F150A0E1181
:103550000A1F110E1F15111F05010E111D1F041F3B
:10356000111F1108100F1F041B1F10101F061F1E14
:10357000040F0E110E1F09060E112E1F051A12152B
:1035800009011F011F101F0F180F1F0C1F1B041B09
:10359000031C03191513001F11030418111F000247
:1035A00001022020200001020C121E1F120C0C121E
:1035B000120C121F0C1A14041E05242A1E1F021CB2
:1035C000141D1020201D1F0814111F101E041E1E84
:1035D000021C0C120C3E0A040C123E1E04021416AD
:1035E0000A020F120E101E0E100E1E081E120C12D2
:1035F00026281E322A26041E21001F00211E040137
:1036000002013F213F44494747455200444947474B
:10361000455200C933C233BD33B833AF33A43398F6
:1036200033204C3A0020033A002F00043A00080BE4
:10363000000202020000090400000102020000056D
:1036400024001001052401010104240206052406BA
:1036500000010705810310004009040100020A006F
:103660000000070502024000000705830240000039
:103670000403090412010002EF02014041233680D5
:1036800000010102030141726475696E6F204C4CA8
:10369000430041726475696E6F204C656F6E617294
:1036A000646F0017534400161378001613140015A6
:1036B00010200015201000540A03E181867F3E1877
:1036C0006D830F0F0E0183866033186DC3198F1839
:1036D00003C38E6033186DE330CF1803C39E60368A
:1036E00030CDE360CF3006C79E7E3E30CDB360CF95
:1036F000300CC6F6603330D9B660CF33CFCCF6602D
:1037000061B0DB1E60CF30D86CE6C061B0DB1E61FB
:103710008F19986CC6C063B19B0E330F0FB078C67B
:10372000FF7E1F1B061E0F0000000023002600293D
:10373000002C002F00040404040403040502020208
:10374000020403020202020606060606060404023A
:10375000020204040408020110408040102040804E
:1037600040800802040180402010020110801020D7
:103770004040200000000200090F00000304010087
:103780000C0000000000000000000000000000002D
:103790000000DA2E11241FBECFEFDAE0DEBFCDBF6E
:1037A00012E0A0E0B1E0E2ECF8E602C005900D9274
:1037B000A039B107D9F726E0A0E9B2E001C01D9217
:1037C000AD37B207E1F71BE1CAECDBE104C021979A
:1037D000FE010E944534C93CD107C9F70E94F72E6B
:1037E0000C945F340C940000E7E2F6E0A1ADB2ADBA
:1037F0008C9195AD892B8C93A3ADB4AD9C9186AD86
:10380000809589238C93A1ADB2AD9C9185AD8095B7
:1038100089238C930895FC018091DA03882311F1A8
:103820003FB7F89482E08093E9002091F200822F64
:1038300090E01816190614F481E090E0882339F01E
:10384000289844E64093D9034091F1004083222315
:1038500039F02091F200211103C02BE62093E800FB
:103860003FBF08958FEF9FEF08952FB7F89483E03F
:103870008093E9009091E800892F807295FF04C041
:103880009091F20080E4891B2FBF08958091D103AD
:1038900081110DC082E08093CD0384E08093CE033C
:1038A0001092D0031092CF0381E08093D1038DEC6E
:1038B00093E00895CF93DF931F92CDB7DEB769836E
:1038C000DC01ED91FC910280F381E02D41E050E0BC
:1038D000BE016F5F7F4F09950F90DF91CF910895E3
:1038E00083E08093E9008091F200882319F08AE355
:1038F0008093E80008950E94351C90E00895CF93CE
:10390000DF931F92CDB7DEB7FC018485958597FDC7
:1039100008C02FEF3FEF358724870F90DF91CF91BD
:103920000895CE0101960E940B1C019719F489811C
:1039300090E0F3CF8FEF9FEFF0CF0F931F93CF93D4
:10394000DF931F92CDB7DEB78C01FC01848595858E
:1039500097FF0BC0CE0101960E940B1C019771F4DA
:10396000898190E0F80195878487F80184859585A1
:103970000F90DF91CF911F910F9108958FEF9FEFDF
:10398000F1CFFC018485958597FD0BC09FB7F89416
:1039900082E08093E9008091F2009FBF90E0019661
:1039A00008959FB7F89482E08093E9008091F20037
:1039B0009FBF90E008954091C7035091C8032091A4
:1039C000C5033091C60342175307B4F49091E80041
:1039D0009570E1F39091E80092FD19C08093F10099
:1039E0008091C7039091C80301968F739927892B03
:1039F00019F48EEF8093E8008091C7039091C8037B
:103A000001969093C8038093C70381E0089580E0F6
:103A10000895EF92FF920F931F93CF93DF93F82EA9
:103A2000192FE62E042F81E0860F880F0E94DB1CE1
:103A300083E00E94DB1CCF2DD12FEC0EFD2EF11C5C
:103A4000CE15DF05B9F007FF13C0FE0184910E9477
:103A5000DB1C182F80E00E94DB1C81232196811142
:103A6000EFCFDF91CF911F910F91FF90EF900895CD
:103A70008881EDCF81E0F5CFDF92EF92FF920F9337
:103A80001F93CF93DF93D82E8A01EB017B01E40EC5
:103A9000F51ECE15DF0559F0D7FE12C0FE01849148
:103AA0000E94DB1C21968111F4CF0FEF1FEFC8019C
:103AB000DF91CF911F910F91FF90EF90DF900895CC
:103AC0008881EECF0F931F93CF93DF931F92CDB7D3
:103AD000DEB782E0898342E450E06EE276E380E87C
:103AE0000E943C1D0E94461CDC0112960D911C9107
:103AF0000115110589F0D801ED91FC910280F38147
:103B0000E02DBE016F5F7F4FC801099597FD04C08E
:103B1000F80100851185ECCF89810F90DF91CF915D
:103B20001F910F910895615030F02091F100FC0138
:103B300020830196F8CF289884E68093D9030895CE
:103B4000AF92BF92CF92DF92EF92FF920F931F93AB
:103B5000CF93DF936C017B018B01040F151FEB01E9
:103B60005E01AE18BF08C017D10759F06991D601A0
:103B7000ED91FC910190F081E02DC6010995892B12
:103B800079F7C501DF91CF911F910F91FF90EF90D1
:103B9000DF90CF90BF90AF90089581508F3008F0A4
:103BA00047C0E82FF0E0E952F24E0C944534F41D82
:103BB000F81DE61DEC1DF01D181E181E181EFB1D1D
:103BC000011E051E091E0F1E181E131E8091800067
:103BD0008F77809380000895809180008F7DF9CF4A
:103BE00080918000877FF5CF84B58F7784BD08955D
:103BF00084B58F7DFBCF809190008F77809390006C
:103C00000895809190008F7DF9CF80919000877FFB
:103C1000F5CF8091C0008F778093C0000895809188
:103C2000C0008F7DF9CF8091C200877F8093C20052
:103C300008951F93CF93DF93282F30E0F901ED58BB
:103C4000F84C8491F901EC5AF84CD491F901EB5CF1
:103C5000F84CC491CC23A9F0162F81110E94CD1DE0
:103C6000EC2FF0E0EE0FFF1FEB58FB4CA591B49149
:103C70008FB7F894EC91111108C0D095DE23DC9336
:103C80008FBFDF91CF911F910895DE2BF8CFCF9397
:103C9000DF9390E0FC01EC5AF84C24918B5C984C3B
:103CA000FC0184918823C9F090E0880F991FFC01E2
:103CB000E65AFB4CA591B491FC01EB58FB4CC59125
:103CC000D49161110DC09FB7F8948C9120958223F7
:103CD0008C938881282328839FBFDF91CF910895FB
:103CE000623051F49FB7F8943C91822F80958323E2
:103CF0008C93E8812E2BEFCF8FB7F894EC912E2B7D
:103D00002C938FBFEACFDF92EF92FF920F931F9316
:103D1000CF93DF93C7E2D6E00DE216E0EE24EA94FB
:103D200062E08A850E94471E2A8530E0F901ED583D
:103D3000F84C8491F901EC5AF84CF490F901EB5CE1
:103D4000F84CD490DD2029F181110E94CD1DED2D7C
:103D5000F0E0EE0FFF1FE95DF84CA591B491EC91F6
:103D60008989FE22B1F081111CC021960C171D0714
:103D7000B9F680913E069091380691509E3FB8F476
:103D800090913A0691509E3F90F48F5F80933E064B
:103D900014C089898F5F898B60E08A850E94471EE5
:103DA000E4CF8F3F11F4198AF7CFE98AF5CF882342
:103DB00021F08F3F51F410923E06DF91CF911F9179
:103DC0000F91FF90EF90DF9008958FEFDFCF3FB717
:103DD000F8948091950290919602A0919702B091EB
:103DE000980226B5A89B05C02F3F19F00196A11D8A
:103DF000B11D3FBFBA2FA92F982F8827BC01CD0135
:103E0000620F711D811D911D42E0660F771F881F93
:103E1000991F4A95D1F708958F929F92AF92BF92C2
:103E2000CF92DF92EF92FF924B015C010E94E71E5E
:103E30006B017C010E94E71E6C197D098E099F09A8
:103E4000683E734081059105A8F321E0821A91082C
:103E5000A108B10888EEC80E83E0D81EE11CF11C51
:103E600081149104A104B10429F7FF90EF90DF9031
:103E7000CF90BF90AF909F908F9008958F929F9218
:103E8000AF92BF92CF92DF92EF92FF920F931F9368
:103E9000CF93DF936C017B018A0180910D01882310
:103EA00009F45CC08091DA03882309F457C080913B
:103EB000CC0380FF05C08091E00082608093E00029
:103EC000E801B12C8AEFA82E93E0892E2AE3922EE6
:103ED000209711F4BB20D9F10E94351C81110AC032
:103EE000AA94AA20D9F161E070E080E090E00E94FD
:103EF0000C1FEECF8C171D0611F00CF08C2F9FB706
:103F0000F8948092E9002091E80025FD02C09FBF4F
:103F1000DFCF282F30E0C21BD30BF701815020F0F8
:103F200041914093F100FACFE20EF31EBB2021F045
:103F30009092E800B12CEBCF8091E80085FDE7CFAF
:103F40009092E800BB24B394209709F3F3CF5D98D7
:103F500084E68093CB03101611063CF081E090E0DC
:103F6000F6019383828310E000E0C801DF91CF91D6
:103F70001F910F91FF90EF90DF90CF90BF90AF9087
:103F80009F908F9008952F923F925F926F927F92B1
:103F90008F929F92AF92BF92CF92DF92EF92FF9259
:103FA0000F931F93CF93DF93EC01F901E4903196C7
:103FB000849164350CF015C140330CF012C10E2C05
:103FC000000CFF08062F062E000C110BF701E00F66
:103FD000F11F1E161F060CF004C1A82FC42E042EBC
:103FE000000CDD085601A80EB11C87FDBA941A1406
:103FF0001B040CF0F6C02E5F3F4F570197E0A90E4F
:10400000B11CB7FE04C05701BEE0AB0EB11CB3E05B
:10401000B594A794BA95E1F747FF0AC0A42FA80F5B
:10402000AC9CC001AD9C900D1124281B390B40E0C5
:104030008A2F0A2E000C990B840F911D47FD9A952B
:10404000C19714F0A0E3A41BFF8467FD60E0E53591
:10405000F10514F0E4E5F0E09E2FCC85C427C62ED0
:10406000062E000CDD08F601E01BF10B8F014F015D
:10407000F7E08F229924E0E8F0E002C0F595E7959B
:104080008A94E2F77E2F17FF02C0095F1F4FF3E00B
:1040900015950795FA95E1F7200F311F542F5770AA
:1040A00081E001C0880F5A95EAF7459545954595F9
:1040B000F601B4E54B02E00DF11D1124AF014552AC
:1040C0005C4FD0E02A2EAA0F3308EE24E394BB24E1
:1040D000D21513040CF085C0F9015490F1E0FF12E1
:1040E0001AC0962E8A01E72F6901991608F057C069
:1040F0008E2E852021F0D8018C90882A8C92E6950E
:1041000031F4BFEFCB1ADB0AF6015490E0E8939448
:104110000F5F1F4FEACFF1101CC0782E7094962EBF
:104120008A01E72F6901991608F039C08E2E852083
:1041300021F0D8018C9087208C92E69531F4BFEF66
:10414000CB1ADB0AF6015490E0E893940F5F1F4FFF
:10415000EACFF3E0FF122CC0782E7094862E8A01ED
:10416000972E69018916D0F4E92DE52141F0D80197
:10417000EC916C2E682460FE0FC0E82BEC939694B3
:1041800039F4BFEFCB1ADB0AF6015490E0E89E2E1B
:1041900083940F5F1F4FE6CFE721F0CFCE25880F26
:1041A00019F44C5A5F4F81E0DF5F2A0D3B1D90CF21
:1041B000962E8A01E72F6901991688F78E2E8520A1
:1041C00021F0D8018C9088268C92E69531F4BFEFCF
:1041D000CB1ADB0AF6015490E0E893940F5F1F4F6F
:1041E000EBCFDF91CF911F910F91FF90EF90DF9078
:1041F000CF90BF90AF909F908F907F906F905F9087
:104200003F902F900895DC01643570F5403360F5E0
:104210001F968C911F97E62F062E000CFF0B242F64
:1042200025952595259594E52902E00DF11D11248C
:10423000E552FC4F2081342F37708230B1F4822F49
:1042400090E0032E02C0959587950A94E2F7809539
:104250008170811114C081E090E001C0880F3A950F
:10426000EAF78095822380830895833091F71C9626
:104270008C9181706427609561708613ECCF81E02A
:1042800090E001C0880F3A95EAF7822BECCFAF920D
:10429000BF92CF92DF92EF92FF920F931F93CF9333
:1042A000DF93182F062FC0E0D3E08AEFD82E9EEFC1
:1042B000E92E842F8470C82E842F8270B82E842F0C
:1042C0008870A82E4170F42ECF5F8C2F880F8F5FDF
:1042D000E80ECC2081F0402F4D0F612F6C0F8FE442
:1042E00096E00E940321402F4C0F6D2F610F8FE449
:1042F00096E00E940321BB2081F0402F4D1B612FCF
:104300006C0F8FE496E00E940321402F4C1B6D2F11
:10431000610F8FE496E00E940321AA2081F0402FD4
:104320004C0F612F6D1B8FE496E00E940321402FFC
:104330004D0F612F6C1B8FE496E00E940321FF203C
:1043400081F0402F4C1B612F6D1B8FE496E00E9483
:104350000321402F4D1B612F6C1B8FE496E00E94C0
:104360000321CD173CF4E7FCAFCFD150D394D394C5
:10437000ED0CAACFDF91CF911F910F91FF90EF909D
:10438000DF90CF90BF90AF9008950F931F93CF937E
:10439000DF93D82F162F042FC0E0C0174CF4412F05
:1043A0004C0F6D2F8FE496E00E940321CF5FF5CF75
:1043B000DF91CF911F910F9108958F929F92AF92AD
:1043C000BF92CF92DF92EF92FF920F931F93CF9302
:1043D000DF93082FA62E842E922E83E0F82ED0E0B5
:1043E000C3E09AEFE92E1EEFBB24B394B20EDF5F59
:1043F0001F0D4C2F440F6A2D6C1BC92CCF0CDA2CCF
:10440000DD1A81E04B0D881215C0802F8D0F0E94A0
:10441000C5214C2D6D2D8C2F800F0E94C521DC17DE
:1044200094F417FD04C0C150E394E3941E0DF3947B
:10443000F394DDCF802F8D1B0E94C5214C2D6D2D57
:10444000802F8C1BEACFDF91CF911F910F91FF90AE
:10445000EF90DF90CF90BF90AF909F908F90089596
:10446000EF92FF920F931F93CF93DF938C01F62E61
:10447000D42FE22EC0E0CE1544F46F2D6C0F4D2FDB
:10448000C8010E940321CF5FF6CFDF91CF911F912A
:104490000F91FF90EF9008951F93CF93DF93C82F54
:1044A000162F2EE4482F63E08FE496E00E9430221E
:1044B000DC2FD10F4FEF4D0F2EE463E08FE496E039
:1044C0000E9430221650CD5F412F6C2F80E00E9459
:1044D000C521412F6C2F83E50E94C52141E06C2F3F
:1044E00083E00E94472142E06C2F80E50E94472133
:1044F000D45044E06D2F80E50E94472148E06D2FA5
:1045000083E0DF91CF911F910C9447212F923F922E
:104510004F925F926F927F928F929F92AF92BF92D3
:10452000CF92DF92EF92FF920F931F93CF93DF937F
:1045300000D000D0CDB7DEB79C838B836A3099F46E
:10454000DC0116962C91169718969C9118971A963E
:104550008C911A97299F800D11241A968C931A9783
:1045600019961C92F0C06D3009F4EDC0EB81FC810E
:104570005184F3E5F5150CF4C3C0AB81BC811A96E8
:10458000FC90BFE2BF150CF4BBC0EB81FC8116812F
:1045900027812150330B129FC001139F900D1124CE
:1045A000850D911D57FC9A95181619060CF0A8C098
:1045B00020858F2D0F2C000C990B129F800D911DC3
:1045C0001124181619060CF09BC0F785F983752C79
:1045D000612C262E312CA12E012E000CBB08E62DBD
:1045E000062C000CFF0BAB81BC8117968C911797A2
:1045F00090E0E817F9070CF07EC00197E817F9077B
:10460000A1F1289E6001299ED00C389ED00C112467
:10461000CE0EDF1E1D96ED91FC91EC0DFD1DE4917B
:104620000F2DE12CB62DB50DBA83AB81BC81189648
:104630002C9118978E2D0E2C000C990B281719060B
:1046400009F00CF455C0CE2ED12CE0FF26C011305D
:1046500071F44E2D4F0D6A81CD010E940321F601A8
:10466000F595E795E394010FE0CFE0E0D9CF402E38
:104670004501800E911C07FD9A94842D042C000C9A
:10468000990B881599055CF7212F442D672D8B8197
:104690009C810E9430224394F0CFEB81FC81808981
:1046A00097858917E1F28787113061F44E2D4F0D00
:1046B0006A81CF010E940321E981AB81BC811F96F1
:1046C000EC93CDCF402E4501800E911C07FD9A94AE
:1046D000842D042C000C990B881599056CF7212F5B
:1046E000442D672D8B819C810E9430224394F0CF12
:1046F0006394710E74CFE981AB81BC811F96EC93FA
:10470000AB81BC8116962C91169717963C91179702
:1047100019968C911997239F800D112419968C93CB
:10472000199715969C911597992369F0082E000CFE
:10473000990B44E550E0239F401951091124481773
:1047400059070CF401CF81E090E00F900F900F908B
:104750000F90DF91CF911F910F91FF90EF90DF901D
:10476000CF90BF90AF909F908F907F906F905F9011
:104770004F903F902F900895EF92FF920F931F93C9
:10478000CF93DF938C017B01D0E0C0E0F701EC0F09
:10479000FD1F6491662339F0C8010E948622892B8F
:1047A00011F02196F3CFCE01DF91CF911F910F91A0
:1047B000FF90EF9008958EBD00000DB407FEFDCF71
:1047C0008EB508958091A00220919E023EE0839FC5
:1047D000C001112489559D4F820F911D2CE0FC01D1
:1047E000208381E08093C3038091010181508093F5
:1047F000010108952091A0023091A102E0919E0252
:10480000F0919F024EE0429FD001439FB00D1124D2
:10481000A955BD4FAE0FBF1F1C92280F311D87FD3C
:104820003A953093A1022093A002CF01860F911DEB
:1048300067FD9A9590939F0280939E02429FF0019C
:10484000439FF00D1124E955FD4FE80FF91F8BE050
:10485000808308950F931F93CF93DF93483009F41B
:1048600043C038F4C62FD0E021964730D9F081E01C
:1048700036C0493099F0082F10E00F5F1F4F4A30C3
:10488000B1F7C62FD0E08EE0809FF001819FF00D40
:104890001124E955FD4FEC0FFD1F0EC0262F2150AE
:1048A000330BE901082F10E0FE013EE0839FE00D8D
:1048B000F11D1124E955FD4F80818B3011F40E94C8
:1048C000E2238EE0809FB001819F700D1124695515
:1048D0007D4FC60FD71F81E09881911180E0DF9155
:1048E000CF911F910F910895282F2150330B8901EB
:1048F000C8CF0F931F93CF93DF939EE0899FF00162
:104900001124E955FD4FE60FF11DC081DC2FD07C4D
:10491000CF70D03401F148F4DD23C9F08C2F8D0F16
:10492000DF91CF911F910F910895062F182FD03846
:10493000B1F0D03C99F74C2F602F812F0E942A2490
:104940008111ECCFC150C730B0F7CAE0F4CFC73007
:1049500091F0C7E0E3CFCA3081F0CAE0DFCF4C2F3F
:10496000602F812F0E942A248111D8CFCF5FCB30B6
:10497000B0F3C7E0F4CFC9E0D1CFC8E0CFCF9FEF0D
:10498000980F923170F49FEF960F9C3050F42EE008
:10499000829FC001112489559D4F860F911DFC01F6
:1049A00040830895EF92FF920F931F93CF93DF936D
:1049B000C82FD62F142F60916606709167068091DC
:1049C0006806909169062AE030E040E050E00E94DD
:1049D0000F34672B682B692BF1F5412F6D2F8C2F2E
:1049E0000C2F10E0780151E0E51AF108CD2FD0E04E
:1049F0005EE05E9DF0015F9DF00D1124E955FD4FD5
:104A0000EC0FFD1F9081992369F198012F5F3F4FB3
:104A1000529FF001539FF00D1124E955FD4FEC0F0B
:104A2000FD1F20812223F1F0509F9001519F300DF6
:104A3000112429553D4FF901EC0FFD1F319750818D
:104A4000552381F0FE0131962E0F3F1FD9012C9185
:104A5000222309F479C0DF91CF911F910F91FF902C
:104A6000EF9008954730E1F4FE0131969EE0909F6B
:104A70009001919F300D1124A90149555D4F7A0194
:104A8000DA01AE0FBF1F9C919F7009F460C09B308C
:104A900009F44CC00E947924CE0DDF1D8883DBCF42
:104AA0004930F1F49EE0909F9001919F300D1124C8
:104AB000890109551D4FFE013197E00FF11F9081CB
:104AC0009F7039F09B3091F10E947924C00FD11F63
:104AD000E5CFC00FD11F8881806280831882BBCF51
:104AE000483009F041C09F7079F09B30F9F00E9486
:104AF00079249EE0909F9001919F300D11242955BB
:104B00003D4FC20FD31FCACF2EE02E9DF0012F9D27
:104B1000F00D1124E955FD4FEC0FFD1F209FC00142
:104B2000219F900D112489559D4F1BC0DF91CF917E
:104B30001F910F91FF90EF900C94E223F09EC00123
:104B4000F19E900D1124EFCF473009F0A9CF2EE050
:104B5000209FC001219F900D112489559D4FE80F82
:104B6000F91FC80FD91FB7CF4A3009F074CF980189
:104B70002F5F3F4F9EE0F92EF29EF001F39EF00D65
:104B80001124E955FD4FEC0FFD1F90819F70B1F28C
:104B90009B3061F20E947924F09E9001F19E300DCD
:104BA0001124ADCFBF92CF92DF92EF92FF920F937D
:104BB0001F93CF93DF93D82FC62FE82EF12CC70178
:104BC0000197062F10E0A80141505109EEE0E89F3F
:104BD0009001E99F300D112429553D4FD901A40FB3
:104BE000B51F8C918B30F1F1D901A00FB11F8C91C1
:104BF0008B30C1F1B8016F5F7F4F260F371FD9018E
:104C00008C918B3079F1EE9D9001EF9D300D112448
:104C100029553D4FD901A40FB51F8C918B3011F14F
:104C2000260F371FD9018C918B30E1F097012F5F50
:104C30003F4FE29FC001E39F900D112489559D4F86
:104C4000480F591FFA0120812B3061F0FC01E00F61
:104C5000F11F20812B3031F0860F971FDC018C91E2
:104C60008B3011F40E94E223BB24BA94BD0E40E0C5
:104C7000DD24D394DC0E6D2D8B2D0E94BF2440E0EB
:104C80006D2D8D2F0E94BF24CC24C394CD0E40E007
:104C90006D2D8C2D0E94BF24DD24DA94DC0E8091D2
:104CA000A5022EE081112EC02E9DC0012F9D900DDA
:104CB000112489559D4F080F191F84E0F801808346
:104CC00044E06D2D8B2D0E94BF2444E06C2F8B2D72
:104CD0000E94BF2444E06D2D8D2F0E94BF2444E02C
:104CE0006D2D8C2D0E94BF2444E06C2F8C2DDF9104
:104CF000CF911F910F91FF90EF90DF90CF90BF90D9
:104D00000C94BF242E9DC0012F9D900D1124895518
:104D10009D4F080F191FD8011C9240E06D2D8B2D5F
:104D20000E94BF2440E06C2F8B2D0E94BF2440E0E6
:104D30006D2D8D2F0E94BF2440E06D2D8C2D0E9483
:104D4000BF2440E0D2CFDF92EF92FF920F931F93E8
:104D5000CF93DF93D42EC62FD0E08E010F5F1F4F6D
:104D6000E82EF12C9EE0899F9001112429553D4F9A
:104D7000F901EC0FFD1F908194FF0DC0200F311F32
:104D8000D9019C919F70973030F09B3028F19B3077
:104D900011F40E94E2232EE02E9DC0012F9D900D64
:104DA000112489559D4FFC01EC0FFD1F20812F7EA2
:104DB0002083DC01A00FB11F2C91211117C0DC92C0
:104DC00010828C9180618C93DF91CF911F910F9114
:104DD000FF90EF90DF9008956F5FDF91CF911F916B
:104DE0000F91FF90EF90DF900C94D225223011F0BC
:104DF0002430D9F5A7014F5F5F4F2EE0249FC001FB
:104E0000259F900D112489559D4FFC01E00FF11F46
:104E10003081311112C08C0F9D1FDC018C918111EA
:104E20000CC0D0822E9DC0012F9D900D112489555C
:104E30009D4FC80FD91F1882C7CFA70141505109F4
:104E40002EE0249FC001259F900D112489559D4F70
:104E5000FC01E00FF11F30813111B6CF8C0F9D1F87
:104E6000DC018C918111B0CFDCCFB2E0DB12ACCF92
:104E7000253009F0A9CF2296C80FD91F888181114A
:104E8000A3CF108284E188839FCF282F8091920244
:104E90009091930264E170E00E9431349927772762
:104EA000293009F449C0E0F4273009F445C028301E
:104EB00009F44FC03EE0389FF001399FF00D1124F6
:104EC000E955FD4FE60FF71F20832B3041F49093F7
:104ED000A1028093A00270939F0260939E020895A6
:104EE0002C3081F02D30E1F02A3021F74EE0489F40
:104EF0009001499F300D112429553D4F620F731FBA
:104F00008AE40BC04EE0489F9001499F300D112468
:104F100029553D4F620F731F8AE8FB018083089576
:104F20004EE0489F9001499F300D112429553D4F77
:104F3000620F731F88ECF1CF3EE0389FA001399FCC
:104F4000500D112449555D4F640F751FFB012083DF
:104F500008954EE0489F9001499F300D1124295536
:104F60003D4F620F731F88E4D8CFCF93DF93462F56
:104F70002091900230919102A82FB0E0AA0FBB1FA0
:104F8000A25FBE4FC90137FD079653E095958795FF
:104F90005A95E1F7ED91FC91E80FF91F8491319654
:104FA000E49190E0982F8827E80FF92FF11DC42F86
:104FB000D0E0C90168E070E00E943134BC0180E1BA
:104FC00090E0861B970B8C1B9D0B02C0F595E79517
:104FD0008A95E2F72C0F3D1F3093910220939002A7
:104FE00081E090E002C0880F991F4A95E2F701978F
:104FF0008E23DF91CF910895AF92BF92CF92DF922F
:10500000EF92FF920F931F93CF93DF93C82F1092CD
:10501000A4021092910210929002109293021092A8
:10502000920268E00E94B5278093A30224E1C22E79
:10503000D12CDEE00091920210919302083181E0C0
:1050400018070CF045C061E08C2F0E94B52788231B
:1050500091F166E08C2F0E94B527E82E63E08C2F3B
:105060000E94B52793E0A92EA80EB12CF12C009137
:10507000920210919302BA14E8F6083181E0180701
:10508000C4F4C8018E199F09B6010E943134D89F1B
:10509000F001D99FF00D1124E955FD4FE60FF71FE0
:1050A00080810E9445270F5F1F4F1093930200934A
:1050B0009202B394DCCF64E08C2F0E94B5270E944B
:1050C00045270F5F1F4F1093930200939202B2CFB8
:1050D000DF91CF911F910F91FF90EF90DF90CF90D4
:1050E000BF90AF9008958091A2028539F0F490911D
:1050F000A50291111EC090919B029F5F90939B020D
:1051000020919B0290919D02921708F4922F909308
:105110009D0220919A0290919C02921708F4922F7E
:1051200090939C028F5F8093A2028091A2020C94C4
:10513000FC2790919A029F5F90939A02E1CF982F5B
:10514000990F27E0260F920F9093000195E090931E
:10515000A6022091A0023091A10240919E0250919E
:105160009F02D901A80FB11D87FDBA959EE09A9FB5
:10517000F0019B9FF00D1124E955FD4FE40FF51F41
:10518000E60FF11D67FDFA95E081EF7EE73008F04C
:1051900058C0F0E0E253F74D0C9445340D29232913
:1051A000D5280D290F292329172961114CC0809179
:1051B0003A068930A1F42E5F3F4F8EE0829FF001C6
:1051C000839FF00D1124E955FD4FE40FF51F8081F9
:1051D000811105C082E0808381E00E94FA238091E2
:1051E0003806893081F58091A0029091A102029742
:1051F00020919E0230919F024EE0489FF001499F0E
:10520000F00D1124E955FD4FE20FF31F808181114C
:105210001AC082E0808360E08FEF0C94FA230E9432
:10522000FA238091A4028F5F8093A40208952091B5
:10523000A3029091A402921730F00E94FA230C94DA
:1052400073280C94E22308951092A20284E68093BE
:10525000010110929D0210929B0210929C021092EA
:105260009A021092C4031092C3030895089590E027
:1052700080E00895EF92FF920F931F93CF93DF93F7
:105280004091760650917706609178067091790684
:105290002FB7F8948091D3059091D405A091D505AE
:1052A000B091D6052FBF481B590B6A0B7B0B809121
:1052B000750690E0B0E0A0E000916E0610916F06D8
:1052C000209170063091710684179507A607B707DD
:1052D00008F04EC0011511052105310509F448C03B
:1052E0002FB7F8948091D3059091D405A091D5055E
:1052F000B091D6052FBF20917506820F911DA11D7B
:10530000B11D8093760690937706A0937806B093AC
:1053100079068091660690916706A0916806B09123
:1053200069060196A11DB11D8093660690936706DC
:10533000A0936806B093690610926E0610926F06ED
:1053400010927006109271060E94E71E60936A0622
:1053500070936B0680936C0690936D060E94831E7B
:1053600081E0DF91CF911F910F91FF90EF90089511
:10537000012B022B032B09F0C8C080917A068823E9
:1053800009F45FC0CCE0C81B8C3008F0C0E081E0BD
:105390008093550610925E0610925F06D0915706D4
:1053A00083E0E82EED0E1C2F1D1B0DE2010F0E2CCD
:1053B000000CFF08E00EF11C07FDFA94802F002E70
:1053C000000C990B8E159F054CF42EE4402F63E0E2
:1053D0008FE496E00E9430220F5FF0CFD450105D32
:1053E0002D2F41E0612F80E50E94DD212D2F42E02D
:1053F000612F83E00E94DD2181E080935E0680932F
:105400005F068091570663E0680F2C2F281B822FC0
:10541000835D0E944C2284E0809358068091570659
:10542000C81BC15DC093590660917B0670917C06D4
:105430008FE496E00E94BC2380917A06815080938D
:105440007A0680915B068F5F80935B060BED13E01D
:10545000C0E00E94F41B82E20E94DB23CF5F8C2F0E
:105460000E94DB2387E00E94DB2381E20E94DB2392
:1054700086E10E94DB238FE70E94DB23E091620636
:10548000F0916306808190916506892B8083E0917D
:105490006006F09161069081809164068095892371
:1054A00080837801D0E0D7018D917D010E94DB23BC
:1054B000DF5FD435C1F70C5A1F4FC63051F68091CB
:1054C000530681110EC0EBEDF3E088EF91E0DF01B0
:1054D0009C011D9221503040E1F710925806109225
:1054E00059060E94E71E60936E0670936F068093C4
:1054F00070069093710620916A0630916B06621BCC
:10550000730B709373066093720680E02ACF8F92BC
:105510009F92AF92BF920F931F93CF93DF93CDB71C
:10552000DEB7A1970FB6F894DEBF0FBECDBF19A2AC
:10553000423008F44AE08E010F5D1F4F842E912CFB
:10554000B12CA12CA50194010E940F34E62FB901C2
:10555000CA01EA3044F5E05DD801EE938D01232BBA
:10556000242B252B79F790E080E0109769F0FD015E
:1055700001900020E9F73197AF014A1B5B0BBD0199
:105580008FE496E00E94A01DA1960FB6F894DEBFAE
:105590000FBECDBFDF91CF911F910F91BF90AF9004
:1055A0009F908F900895E95CD7CFCF93DF93BC0194
:1055B0008FE496E00E94BC23EC0142E050E06DE8ED
:1055C00072E08FE496E00E94A01D8C0F9D1FDF917A
:1055D000CF910895CF92DF92EF92FF921F93CF93D6
:1055E000DF93EC0110923F0681E080935506109204
:1055F00054061092530680935E0680935F061CE06B
:105600000E943A298823E1F3FE01849127EB36E3D7
:1056100040E060E08FE496E00E94C31F10925806BD
:1056200010935906BE018FE496E00E94BC2380913E
:105630005606982F990F990F891B8D5A80935806FB
:1056400080915706982F990F990F891B835D80933E
:1056500059068091660684FF56C083EB96E30E944C
:10566000D52A80915606982F990F990F891B8D5A2C
:1056700080935806809159068F5F809359068091D8
:105680004D06882309F442C08BEA96E30E94D52A8E
:1056900080915606982F990F990F891B8D5A8093E8
:1056A0005806809159068F5F8093590683EA96E3E6
:1056B0000E94D52A80913C068130B9F08091740611
:1056C000482F50E070E060E0C0906606D09067061A
:1056D000E0906806F0906906C416D506E606F7065F
:1056E00008F48ECF8F3F09F48BCF8FEF8093740631
:1056F00081E080933F06DF91CF911F91FF90EF9063
:10570000DF90CF9008958FEA96E3A9CF87EA96E3DA
:10571000BDCF0C9401340C94F9330F931F93CF93A6
:10572000DF9380E190E00E948B2B813D09F048C01F
:1057300081E190E00E948B2B863609F041C082E126
:1057400090E00E948B2B8933D9F583E190E00E9491
:105750008B2B082F81E0011101C080E08093A5020E
:1057600084E190E00E948B2BD82F80939B0285E1EF
:1057700090E00E948B2B182F80939D0286E190E091
:105780000E948B2B8093010188E190E00E948B2B7B
:10579000C82F80939A0289E190E00E948B2B9D2F65
:1057A000D11708F4912F90939D029C2FC81708F4ED
:1057B000982F90939C02011101C0CD2FC093A2029B
:1057C000DF91CF911F910F9108951F920F920FB605
:1057D0000F9211248F939F938091E1009091E100AB
:1057E000937F9093E10083FF0FC01092E90091E056
:1057F0009093EB001092EC0092E39093ED001092E6
:10580000DA0398E09093F00082FF22C093E0909337
:10581000E9009091F200992319F09AE39093E8003F
:105820009091CB03992341F09091CB0391509093A9
:10583000CB03911101C05D9A9091D903992341F056
:105840009091D90391509093D903911101C0289A56
:1058500084FF18C08091E2008E7E81608093E20018
:105860008091E1008F7E8093E1008091CC038E7E59
:1058700080618093CC039F918F910F900FBE0F900A
:105880001F90189580FFF7CF8091E2008E7E806197
:105890008093E2008091E1008E7E8093E100809110
:1058A000CC038E7E8160E5CF1F920F920FB60F92D0
:1058B0001124CF92DF92EF92FF920F931F932F93B9
:1058C0003F934F935F936F937F938F939F93AF9388
:1058D000BF93EF93FF93CF93DF93CDB7DEB76C9772
:1058E000DEBFCDBF1092E9008091E80083FF25C0A4
:1058F00068E0CE0145960E94931D82EF8093E800F8
:105900008D8987FF39C09091E80090FFFCCF982FD8
:10591000907609F034C19E894F89588D2F89F88C73
:10592000911131C0803861F58091CA038093F100F4
:105930001092F1008EEF8093E8006C960FB6F89409
:10594000DEBF0FBECDBFDF91CF91FF91EF91BF9131
:10595000AF919F918F917F916F915F914F913F9107
:105960002F911F910F91FF90EF90DF90CF900F90AC
:105970000FBE0F901F9018959EEF9093E800C7CF31
:105980001092F100D5CF913059F48111D3CF41302D
:10599000510581F68091CA038D7F8093CA03CACFD7
:1059A000933049F48111C6CF4130510519F68091E9
:1059B000CA038260F2CF953041F48091E80080FF05
:1059C000FCCF20682093E300B5CF963009F0A9C042
:1059D0000B8D1C8D22E01092E9001092C8031092EA
:1059E000C703F2122EC01092C6031092C5030E9484
:1059F000621D1F8299E09983FA8291E09E8390EA6A
:105A000098879AEF99872091C7033091C803275F41
:105A10003F4F3C832B838D831092E9001092C80383
:105A20001092C7031093C6030093C50349E050E0EA
:105A3000BE016F5F7F4F80E00E943C1D0E94621D8F
:105A400079CF1093C6030093C5030E94461CDC0166
:105A500012960D911C910115110509F451C1D8013F
:105A6000ED91FC910480F581E02DBE016B5E7F4FCE
:105A7000C8010995009709F03EC1F801008511851C
:105A8000EACFF3E0FF120EC08F89882309F440C0EB
:105A9000823061F440E860E182E996E30E94091DEA
:105AA000811148CF81E28093EB0047CF813029F408
:105AB00040E86BE086E896E3F1CF833099F70E94E7
:105AC000461CDC011296ED90FC908E010F5F1F4F7B
:105AD0006801E114F10479F0D701ED91FC910680A1
