:100000000C94CF020C94F7020C94F7020C94F702B4
:100010000C94F7020C94F7020C94F7020C94F7027C
:100020000C94F7020C94F7020C94A2100C9411118A
:100030000C94F7020C94F7020C94F7020C94F7025C
:100040000C94F7020C948D130C94F7020C94F702A5
:100050000C94F7020C94F7020C94F7020C944313DF
:100060000C94F7020C94F7020C94F7020C94F7022C
:100070000C94F7020C94F7020C94F7020C94F7021C
:100080000C94F7020C94F7020C94F7020C94F7020C
:100090000C94F7020C94F7020C94F7020C94F702FC
:1000A0000C94F7020C94F7020C94F7020101FF0381
:1000B0000101F703B000AC0000000000240027009D
:1000C0002A002D003000D5F08D14A1C881CFD9F1C0
:1000D000AF200000000000250028002B002E00317A
:1000E0000003053F213F1208120A100A0E1C0E0CD5
:1000F0001E0C141A14161F161E131E1E1B1E1E1F66
:100100001E3F213F3A2F3A173D173F213F181F024C
:10011000040A041F0E04040E1F0A1F0A0E0E1F04F9
:10012000110E2E252E2F2A2E262929021F02081FE6
:1001300008150E04040E150E15151B151B040604D8
:10014000040C040000000017000300031F0A1F1620
:10015000371A1904130A153A000300000E11110E84
:10016000000A040A040E0400300004040400100015
:100170001804031F111F121F101D151711151F073B
:10018000041F17151D1F151D01011F1F151F171512
:100190001F000A00003200040A110A0A0A110A04A8
:1001A0000115020E11171E051E1F150A0E110A1F3A
:1001B000110E1F15111F05010E111D1F041F111F08
:1001C0001108100F1F041B1F10101F061F1E040F05
:1001D0000E110E1F09060E112E1F051A1215090108
:1001E0001F011F101F0F180F1F0C1F1B041B031CC8
:1001F00003191513001F11030418111F0002010237
:100200002020200001020C121E1F120C0C12120CD6
:10021000121F0C1A14041E05242A1E1F021C141D72
:100220001020201D1F0814111F101E041E1E021C6A
:100230000C120C3E0A040C123E1E040214160A0292
:100240000F120E101E0E100E1E081E120C12262863
:100250001E322A26041E21001F00211E0401020155
:100260003F213F05008930080238024978681400B0
:100270000020202020596F6461277300596F64614A
:100280002773000B041F006AC0FFE064C00B045D0D
:10029000C0554055405DC008057EFFFFE7C3080517
:1002A0007EDBFFA5C308056EDB76A5C3080566D90E
:1002B00056A5420805228952A5420204804080408A
:1002C0000204408040800704107CFEFE07048A4040
:1002D000049207049204408A20202020596F646110
:1002E000277300070538D6FE28C6070538D6FE4412
:1002F00028070510BAD67C2807053854FE9228072F
:100300000538547C4428070538547C285407055484
:100310008254825407055482548254080B0002020E
:100320000200000904000001020200000524001080
:100330000105240101010424020605240600010729
:1003400005810310004009040100020A00000007B3
:100350000502024000000705830240000004030973
:100360000412010002EF0201404123368000010126
:1003700002030141726475696E6F204C4C43004169
:10038000726475696E6F204C656F6E6172646F0088
:100390004500680100000500380168010000401AAE
:1003A000FFFFFFFFFFFFFFFF000000000000000055
:1003B0003B9DDC71F1FBE1F03B9DDCF9F9FBF3F8CF
:1003C0003B9DDCF9F9FBFBF83BDDDDFDFDC3BBB874
:1003D0003BDDDDFDDDC3BBB83BDDDDDDDDC3BB806B
:1003E0003BFDDDDDDDF3BBC03BFDDDDDDDF3F1E03D
:1003F0003BFDDDFDDDF3E0F03BFDDDFDDDC3F07831
:100400003BBDDDFDDDC3B8383BBDDDDDDDC3BBB8C5
:100410003BBDFDDDDDC3BBB83B9CF9DDF9FBBBF8A3
:100420003B9C71DDF9FBBBF83B9C21DDF1FBB9F096
:100430000000000000000000FFFFFFFFFFFFFFFFC4
:100440000000000000000000A6C66AECE66E66CE62
:10045000AAAA8A4A8AAA8AA8AAAEEA4ACAEC8EAC92
:100460004AAA2A4A8AAA8AA84ECAE4ECEEAAEACE86
:1004700017534400161378001613140015102000AB
:1004800015201000540A03E181867F3E186D830F0A
:100490000F0E0183866033186DC3198F1803C38E46
:1004A0006033186DE330CF1803C39E603630CDE360
:1004B00060CF3006C79E7E3E30CDB360CF300CC6D5
:1004C000F6603330D9B660CF33CFCCF66061B0DBA5
:1004D0001E60CF30D86CE6C061B0DB1E618F19980A
:1004E0006CC6C063B19B0E330F0FB078C6FF7E1F82
:1004F0001B061E0FF6E8DBCFC3B8AEA49B928A8220
:100500007B746E68625C57524E4945413E3A3734BF
:10051000312E2C29272523211F1D1C1A19171615CA
:1005200014131211100F0E0D0C0B0A090807060008
:100530000000002300260029002C002F00040404E2
:10054000040403040502020202040302020202067A
:100550000606060606040402020204040408020158
:1005600010408040102040804080080204018040FC
:1005700020100201108010204040200000000200E6
:10058000090F0000030401000C000000000000003F
:1005900000000000000000000000D113551F1124CE
:1005A0001FBECFEFDAE0DEBFCDBF12E0A0E0B1E0CA
:1005B000ECEBF5E402C005900D92AE32B107D9F72D
:1005C00027E0AEE2B2E001C01D92AA32B207E1F725
:1005D00012E0CEECD2E004C02197FE010E94E1219E
:1005E000CD3CD107C9F70E9429140C94D1220C9458
:1005F0000000CF93DF93E9E0F7E0C081D1818881EB
:10060000ADE0B7E09C91892B8883C0910B07D09116
:100610000C07988180910E0780958923888301902B
:10062000F081E02D90818C91809589238083DF91EA
:10063000CF910895FC0180915204882311F13FB7B6
:10064000F89482E08093E9002091F200822F90E0FC
:100650001816190614F481E090E0882339F02898E0
:1006600044E6409351044091F1004083222339F045
:100670002091F200211103C02BE62093E8003FBF38
:1006800008958FEF9FEF08952FB7F89483E080933C
:10069000E9009091E800892F807295FF04C0909145
:1006A000F20080E4891B2FBF0895809149048111D5
:1006B0000DC082E08093450484E08093460410924C
:1006C00048041092470481E08093490485E494E053
:1006D0000895CF93DF931F92CDB7DEB76983DC0116
:1006E000ED91FC910280F381E02D41E050E0BE01EC
:1006F0006F5F7F4F09950F90DF91CF91089583E051
:100700008093E9008091F200882319F08AE38093B6
:10071000E80008950E94440390E00895CF93DF938A
:100720001F92CDB7DEB7FC018485958597FD08C083
:100730002FEF3FEF358724870F90DF91CF910895FA
:10074000CE0101960E941A03019719F4898190E065
:10075000F3CF8FEF9FEFF0CF0F931F93CF93DF93E4
:100760001F92CDB7DEB78C01FC018485958597FF7C
:100770000BC0CE0101960E941A03019771F4898182
:1007800090E0F80195878487F801848595850F901E
:10079000DF91CF911F910F9108958FEF9FEFF1CFD0
:1007A000FC018485958597FD0BC09FB7F89482E086
:1007B0008093E9008091F2009FBF90E00196089538
:1007C0009FB7F89482E08093E9008091F2009FBF88
:1007D00090E0089540913F045091400420913D04E1
:1007E00030913E0442175307B4F49091E80095709D
:1007F000E1F39091E80092FD19C08093F10080919F
:100800003F049091400401968F739927892B19F426
:100810008EEF8093E80080913F0490914004019610
:100820009093400480933F0481E0089580E0089510
:10083000EF92FF920F931F93CF93DF93F82E192F10
:10084000E62E042F81E0860F880F0E94EA0383E0E2
:100850000E94EA03CF2DD12FEC0EFD2EF11CCE15F8
:10086000DF05B9F007FF13C0FE0184910E94EA037F
:10087000182F80E00E94EA03812321968111EFCF97
:10088000DF91CF911F910F91FF90EF900895888194
:10089000EDCF81E0F5CFDF92EF92FF920F931F93A0
:1008A000CF93DF93D82E8A01EB017B01E40EF51E76
:1008B000CE15DF0559F0D7FE12C0FE0184910E94CB
:1008C000EA0321968111F4CF0FEF1FEFC801DF91EA
:1008D000CF911F910F91FF90EF90DF900895888145
:1008E000EECF0F931F93CF93DF931F92CDB7DEB759
:1008F00082E0898342E450E06BE173E080E80E948B
:100900004B040E945503DC0112960D911C910115B8
:10091000110589F0D801ED91FC910280F381E02D61
:10092000BE016F5F7F4FC801099597FD04C0F801B4
:1009300000851185ECCF89810F90DF91CF911F91B8
:100940000F910895615030F02091F100FC01208357
:100950000196F8CF289884E6809351040895AF92C9
:10096000BF92CF92DF92EF92FF920F931F93CF939C
:10097000DF936C017B018B01040F151FEB015E01FE
:10098000AE18BF08C017D10759F06991D601ED9193
:10099000FC910190F081E02DC6010995892B79F732
:1009A000C501DF91CF911F910F91FF90EF90DF90E4
:1009B000CF90BF90AF90089581508F3008F047C01E
:1009C000E82FF0E0EA51FB4F0C94E1210305070505
:1009D000F504FB04FF042705270527050A05100574
:1009E000140518051E0527052205809180008F77C4
:1009F000809380000895809180008F7DF9CF809151
:100A00008000877FF5CF84B58F7784BD089584B546
:100A10008F7DFBCF809190008F7780939000089519
:100A2000809190008F7DF9CF80919000877FF5CFE6
:100A30008091C0008F778093C00008958091C0009E
:100A40008F7DF9CF8091C200877F8093C200089587
:100A50001F93CF93DF93282F30E0F901E558FA4F29
:100A60008491F901E45AFA4FD491F901E35CFA4F09
:100A7000C491CC23A9F0162F81110E94DC04EC2F25
:100A8000F0E0EE0FFF1FED52FF4FA591B4918FB72D
:100A9000F894EC91111108C0D095DE23DC938FBF40
:100AA000DF91CF911F910895DE2BF8CFCF93DF9385
:100AB00090E0FC01E45AFA4F2491835C9A4FFC01C8
:100AC00084918823C9F090E0880F991FFC01E854B5
:100AD000FF4FA591B491FC01ED52FF4FC591D49108
:100AE00061110DC09FB7F8948C91209582238C934F
:100AF0008881282328839FBFDF91CF91089562309A
:100B000051F49FB7F8943C91822F809583238C9366
:100B1000E8812E2BEFCF8FB7F894EC912E2B2C93EE
:100B20008FBFEACFDF92EF92FF920F931F93CF9385
:100B3000DF93CAEAD6E000EB16E0EE24EA9462E026
:100B40008A850E9456052A8530E0F901E558FA4F5A
:100B50008491F901E45AFA4FF490F901E35CFA4FF9
:100B6000D490DD2029F181110E94DC04ED2DF0E00C
:100B7000EE0FFF1FE15DFA4FA591B491EC918989C9
:100B8000FE22B1F081111CC021960C171D07B9F689
:100B90008091C1069091BB0691509E3FB8F4909110
:100BA000BD0691509E3F90F48F5F8093C10614C0A4
:100BB00089898F5F898B60E08A850E945605E4CF22
:100BC0008F3F11F4198AF7CFE98AF5CF882321F0F6
:100BD0008F3F51F41092C106DF91CF911F910F9179
:100BE000FF90EF90DF9008958FEFDFCF3FB7F8943D
:100BF0008091300290913102A0913202B091330283
:100C000026B5A89B05C02F3F19F00196A11DB11D67
:100C10003FBFBA2FA92F982F8827BC01CD01620FA3
:100C2000711D811D911D42E0660F771F881F991F5E
:100C30004A95D1F708958F929F92AF92BF92CF922B
:100C4000DF92EF92FF924B015C010E94F6056B016F
:100C50007C010E94F6056C197D098E099F09683E8A
:100C6000734081059105A8F321E0821A9108A1083B
:100C7000B10888EEC80E83E0D81EE11CF11C811477
:100C80009104A104B10429F7FF90EF90DF90CF9079
:100C9000BF90AF909F908F9008958F929F92AF9248
:100CA000BF92CF92DF92EF92FF920F931F93CF9359
:100CB000DF936C017B018A0180910C01882309F488
:100CC0005CC080915204882309F457C08091440489
:100CD00080FF05C08091E00082608093E000E80121
:100CE000B12C8AEFA82E93E0892E2AE3922E20972A
:100CF00011F4BB20D9F10E94440381110AC0AA94C7
:100D0000AA20D9F161E070E080E090E00E941B062B
:100D1000EECF8C171D0611F00CF08C2F9FB7F894B6
:100D20008092E9002091E80025FD02C09FBFDFCF3F
:100D3000282F30E0C21BD30BF701815020F04191E6
:100D40004093F100FACFE20EF31EBB2021F0909207
:100D5000E800B12CEBCF8091E80085FDE7CF9092C1
:100D6000E800BB24B394209709F3F3CF5D9884E6A1
:100D700080934304101611063CF081E090E0F601E8
:100D80009383828310E000E0C801DF91CF911F912F
:100D90000F91FF90EF90DF90CF90BF90AF909F901A
:100DA0008F900895FC01178A158A14A213A2108E41
:100DB00010924B0610924C0610924F06109299001A
:100DC0001092980008950F931F93CF93DF93EC0137
:100DD0008B010E94D2061E870D871B8A1A8A81E02A
:100DE000898389E08E8B198E1B8E1D8EDF91CF91AA
:100DF0001F910F910895E091D8068E2F90E0880FF3
:100E0000991FE091D606F091D706E80FF91F85915A
:100E100094918F3F980719F41092CF0608959093FC
:100E2000DB069927880F991FE091D906F091DA0621
:100E3000E80FF91F659174918FEC96E00E94E3062C
:100E40008091D8068F5F8093D8060895CF93DF9363
:100E5000DC0170E0660F771F1F96ED91FC915097B3
:100E6000E60FF71F2591349190963C932E935F9750
:100E7000F9014591549114968C911497849F402DBB
:100E8000112491964C939197F901C591D4916D2FAE
:100E900070E04617170629F020F0F90125913491EA
:100EA000432F849F402D112492964C93DF91CF9134
:100EB00008952F923F925F926F927F928F929F92AE
:100EC000AF92BF92CF92DF92EF92FF920F931F9358
:100ED000CF93DF93EC01F901E4903196849164356E
:100EE0000CF015C140330CF012C10E2C000CFF08A1
:100EF000062F062E000C110BF701E00FF11F1E1636
:100F00001F060CF004C1A82FC42E042E000CDD080F
:100F10005601A80EB11C87FDBA941A141B040CF0DC
:100F2000F6C02E5F3F4F570197E0A90EB11CB7FEE8
:100F300004C05701BEE0AB0EB11CB3E0B594A7945A
:100F4000BA95E1F747FF0AC0A42FA80FAC9CC001D7
:100F5000AD9C900D1124281B390B40E08A2F0A2EDE
:100F6000000C990B840F911D47FD9A95C19714F0C1
:100F7000A0E3A41BFF8467FD60E0E535F10514F0F4
:100F8000E4E5F0E09E2FCC85C427C62E062E000C8B
:100F9000DD08F601E01BF10B8F014F01F7E08F2216
:100FA0009924E0E8F0E002C0F595E7958A94E2F72D
:100FB0007E2F17FF02C0095F1F4FF3E015950795BD
:100FC000FA95E1F7200F311F542F577081E001C0CF
:100FD000880F5A95EAF7459545954595F601B4E58C
:100FE0004B02E00DF11D1124AF014D5A5B4FD0E0D3
:100FF0002A2EAA0F3308EE24E394BB24D21513043F
:101000000CF085C0F9015490F1E0FF121AC0962E41
:101010008A01E72F6901991608F057C08E2E8520A6
:1010200021F0D8018C90882A8C92E69531F4BFEF9C
:10103000CB1ADB0AF6015490E0E893940F5F1F4F40
:10104000EACFF1101CC0782E7094962E8A01E72FFB
:101050006901991608F039C08E2E852021F0D8013B
:101060008C9087208C92E69531F4BFEFCB1ADB0A87
:10107000F6015490E0E893940F5F1F4FEACFF3E03E
:10108000FF122CC0782E7094862E8A01972E69014B
:101090008916D0F4E92DE52141F0D801EC916C2EB0
:1010A000682460FE0FC0E82BEC93969439F4BFEFF0
:1010B000CB1ADB0AF6015490E0E89E2E83940F5F72
:1010C0001F4FE6CFE721F0CFCE25880F19F44C5AF9
:1010D0005F4F81E0DF5F2A0D3B1D90CF962E8A0186
:1010E000E72F6901991688F78E2E852021F0D80107
:1010F0008C9088268C92E69531F4BFEFCB1ADB0AF0
:10110000F6015490E0E893940F5F1F4FEBCFDF910F
:10111000CF911F910F91FF90EF90DF90CF90BF90F4
:10112000AF909F908F907F906F905F903F902F90A7
:101130000895DC01643570F5403360F51F968C919D
:101140001F97E62F062E000CFF0B242F25952595C3
:10115000259594E52902E00DF11D1124ED5AFB4F70
:101160002081342F37708230B1F4822F90E0032E2B
:1011700002C0959587950A94E2F780958170811158
:1011800014C081E090E001C0880F3A95EAF780959D
:10119000822380830895833091F71C968C9181700F
:1011A0006427609561708613ECCF81E090E001C008
:1011B000880F3A95EAF7822BECCFAF92BF92CF928D
:1011C000DF92EF92FF920F931F93CF93DF93182F2D
:1011D000062FC0E0D3E08AEFD82E9EEFE92E842FB1
:1011E0008470C82E842F8270B82E842F8870A82E09
:1011F0004170F42ECF5F8C2F880F8F5FE80ECC20CC
:1012000081F0402F4D0F612F6C0F88EF96E00E9408
:101210009908402F4C0F6D2F610F88EF96E00E94C8
:101220009908BB2081F0402F4D1B612F6C0F88EF78
:1012300096E00E949908402F4C1B6D2F610F88EF9C
:1012400096E00E949908AA2081F0402F4C0F612F50
:101250006D1B88EF96E00E949908402F4D0F612F7B
:101260006C1B88EF96E00E949908FF2081F0402FC8
:101270004C1B612F6D1B88EF96E00E949908402F50
:101280004D1B612F6C1B88EF96E00E949908CD17CB
:101290003CF4E7FCAFCFD150D394D394ED0CAACF5C
:1012A000DF91CF911F910F91FF90EF90DF90CF9042
:1012B000BF90AF900895EF92FF920F931F93CF933B
:1012C000DF938C01F62ED42FE22EC0E0CE1544F42D
:1012D0006F2D6C0F4D2FC8010E949908CF5FF6CF7C
:1012E000DF91CF911F910F91FF90EF9008952F9272
:1012F0003F924F925F926F927F928F929F92AF92A6
:10130000BF92CF92DF92EF92FF920F931F93CF93F2
:10131000DF9300D000D0CDB7DEB79C838B836A30DB
:1013200099F4DC0116962C91169718969C911897B3
:101330001A968C911A97299F800D11241A968C93D6
:101340001A9719961C92F0C06D3009F4EDC0EB812C
:10135000FC815184F3E5F5150CF4C3C0AB81BC816D
:101360001A96FC90BFE2BF150CF4BBC0EB81FC8168
:10137000168127812150330B129FC001139F900DBE
:101380001124850D911D57FC9A95181619060CF01D
:10139000A8C020858F2D0F2C000C990B129F800D5B
:1013A000911D1124181619060CF09BC0F785F983BE
:1013B000752C612C262E312CA12E012E000CBB0881
:1013C000E62D062C000CFF0BAB81BC8117968C918F
:1013D000179790E0E817F9070CF07EC00197E8171F
:1013E000F907A1F1289E6001299ED00C389ED00CEF
:1013F0001124CE0EDF1E1D96ED91FC91EC0DFD1D0E
:10140000E4910F2DE12CB62DB50DBA83AB81BC81D3
:1014100018962C9118978E2D0E2C000C990B2817CE
:10142000190609F00CF455C0CE2ED12CE0FF26C0D1
:10143000113071F44E2D4F0D6A81CD010E94990833
:10144000F601F595E795E394010FE0CFE0E0D9CF01
:10145000402E4501800E911C07FD9A94842D042C8A
:10146000000C990B881599055CF7212F442D672DE9
:101470008B819C810E945B094394F0CFEB81FC81BE
:10148000808997858917E1F28787113061F44E2DA5
:101490004F0D6A81CF010E949908E981AB81BC811F
:1014A0001F96EC93CDCF402E4501800E911C07FD79
:1014B0009A94842D042C000C990B881599056CF7CF
:1014C000212F442D672D8B819C810E945B094394C1
:1014D000F0CF6394710E74CFE981AB81BC811F960C
:1014E000EC93AB81BC8116962C91169717963C9184
:1014F000179719968C911997239F800D112419968F
:101500008C93199715969C911597992369F0082E3D
:10151000000C990B44E550E0239F40195109112418
:10152000481759070CF401CF81E090E00F900F901D
:101530000F900F90DF91CF911F910F91FF90EF903F
:10154000DF90CF90BF90AF909F908F907F906F90E3
:101550005F904F903F902F9008950F931F93CF93DC
:10156000DF938C01D0E0C0E0F801EC0FFD1F649127
:10157000662341F088EF96E00E947709892B11F0ED
:101580002196F2CFCE01DF91CF911F910F91089557
:10159000EF92FF920F931F93CF93DF938C01D62F7F
:1015A000F42EE22EC0E0CE1544F44F2D4C0F6D2FDB
:1015B000C8010E949908CF5FF6CFDF91CF911F91AC
:1015C0000F91FF90EF9008958F929F92AF92BF92EC
:1015D000CF92DF92EF92FF920F931F93CF93DF93FF
:1015E000082FB62E942EA22E83E0F82ED0E0C3E072
:1015F0009AEFE92E1EEFCC24C394C20EDF5F1F0DBD
:101600002C2F220F4B2D4C1B8A2C8F0CDB2CDD1A20
:1016100081E02C0D602F981218C06D0F88EF96E0B6
:101620000E94C80A282D4D2D6C2F600F88EF96E080
:101630000E94C80ADC179CF417FD04C0C150E39453
:10164000E3941E0DF394F394D9CF6D1B88EF96E0CD
:101650000E94C80A282D4D2D602F6C1BE7CFDF910B
:10166000CF911F910F91FF90EF90DF90CF90BF909F
:10167000AF909F908F9008958EBD00000DB407FE2F
:10168000FDCF8EB50895089590E080E00895CF9342
:10169000DF93611142C0EC0184E0CC0FDD1F8A951D
:1016A000E1F7FE01E95EFE4F84858B3008F08AE0A9
:1016B0008093E506C95EDE4F68818FEC96E00E945C
:1016C000260798852A858091D306289F202D1124EE
:1016D0002093E80691959093E9069C812E81289F9E
:1016E000202D11242093EA069A539093EB069E85B1
:1016F0002A812093E306899F802D11248093E4069C
:101700001092F4061092F3061092F20681E0809394
:10171000E60680934F061092E706DF91CF91089579
:10172000FB0101900020E9F73197AF01461B570BF1
:101730000C94AF048F929F92AF92BF92CF92DF92A0
:10174000EF92FF920F931F93CF93DF93CDB7DEB746
:10175000A1970FB6F894DEBF0FBECDBF6C01990FF5
:10176000EE08FF08F7FE43C06DE288EF96E00E94A6
:1017700077098C0122273327A9012C193D094E092D
:101780005F0919A2CE0181967C019AE0892E912CE5
:10179000A12CB12CCA01B901A50194010E9490218C
:1017A000605DF70162937F01211531054105510507
:1017B00089F790E080E0309729F0BF0188EF96E04C
:1017C0000E94900B800F911FA1960FB6F894DEBF78
:1017D0000FBECDBFDF91CF911F910F91FF90EF9082
:1017E000DF90CF90BF90AF909F908F900895A7010A
:1017F000960119A28E010F5D1F4F8AE0C82ED12CD1
:10180000E12CF12CCA01B901A70196010E94902197
:10181000605DF80162938F01211531054105510585
:1018200089F790E080E0309779F2BF0188EF96E089
:101830000E94900BC9CFCF93DF930E94AD0AEC01B9
:101840006CEB71E088EF96E00E94900B8C0F9D1F6F
:10185000DF91CF910895CF93DF93EC018091A4069F
:101860009091A506009759F02091A6063091A70601
:101870002C173D0720F081E0DF91CF910895BE0144
:101880006F5F7F4F0E94FB21009789F09093A50620
:101890008093A406D093A706C093A6062091A8061D
:1018A0003091A906232B39F7FC011082E4CF80E0A8
:1018B000E3CF0F931F93CF93DF938C01EC0109903B
:1018C0000020E9F72197C81BD90BCE010E942B0CF1
:1018D0002091A4063091A506811117C0211531056C
:1018E00019F0C9010E94FA1F1092A5061092A406D1
:1018F0001092A9061092A8061092A7061092A606AA
:10190000DF91CF911F910F910895D093A906C093B5
:10191000A806B801C901DF91CF911F910F910C94D6
:10192000CA22EF92FF920F931F93CF93DF934091C0
:101930001F075091200760912107709122072FB750
:10194000F8948091500690915106A0915206B09162
:1019500053062FBF481B590B6A0B7B0B80911E0748
:1019600090E0B0E0A0E000911707109118072091D7
:10197000190730911A0784179507A607B70708F0CB
:101980004EC0011511052105310509F448C02FB7D6
:10199000F8948091500690915106A0915206B09112
:1019A00053062FBF20911E07820F911DA11DB11D4F
:1019B00080931F0790932007A0932107B0932207DD
:1019C00080910F0790911007A0911107B091120715
:1019D0000196A11DB11D80930F0790931007A0934E
:1019E0001107B09312071092170710921807109260
:1019F000190710921A070E94F60560931307709357
:101A0000140780931507909316070E94920581E0B2
:101A1000DF91CF911F910F91FF90EF900895012BCF
:101A2000022B032B09F0A3C28091CF06882331F04B
:101A30008091D006811102C00E94FB068091D006E1
:101A4000882309F43DC08091E406811139C02091BA
:101A5000DC063091DD06E091E106F091E206EE0F42
:101A6000FF1FE20FF31F85919491009709F4BDC009
:101A70009C013695279536952795422F80FD5EC0AF
:101A80004F734093E3068091D306899F802D1124E4
:101A90008093E4061092F4061092F3061092F20678
:101AA00081E08093E60680934F061092E7068091CE
:101AB000E1069091E20601969093E2068093E1069A
:101AC0008091E606882341F08091E4068111A9C047
:101AD0008FEC96E00E94D20680912307882309F4B8
:101AE000E2C1CCE0C81B8C3008F0C0E081E08093FC
:101AF000FE061092070710920807D091000793E0A6
:101B0000E92EED0E1C2F1D1B0DE2010F0E2C000CFB
:101B1000FF08E00EF11C07FDFA94802F002E000C48
:101B2000990B8E159F050CF059C12EE4402F63E0F0
:101B300088EF96E00E945B090F5FEFCFBC01E6E003
:101B400076956795EA95E1F76F71892F8695869569
:101B5000869580512F70223099F1D0F4222309F418
:101B60003EC02130B9F1E091E106F091E2063196F4
:101B7000F093E206E093E106CF01880F991FE09110
:101B8000DC06F091DD06E80FF91F8591949170CF86
:101B9000233061F0243039F79091D306969F602D61
:101BA00011246093EC068093ED06DDCF9091D3066F
:101BB000969F602D11246093EA068093EB06D3CFA5
:101BC0009091D306969F602D11246093E806809330
:101BD000E906C9CF8FEC96E00E942607C4CF6B3090
:101BE00008F06AE06093E506BECF8091E0068111BF
:101BF00012C01092D0068091CF06811105C08FECE3
:101C000096E00E94D2065CCF0E94FB068091E1061E
:101C10009091E206B2CF1092E2061092E106F9012D
:101C2000B4CF81508093E4068091F406811142C0C4
:101C30002091F2063091F3062F5F3F4FC901880FC4
:101C4000991FE091EE06F091EF06E80FF91F8591DC
:101C50009491482F47704093F506492F4695469535
:101C60004093F606AC0164E0569547956A95E1F716
:101C70004F739091D306499F402D11244093F40651
:101C800083FB882780F980934E063093F3062093D8
:101C9000F2068091F00690E02817390758F020915D
:101CA000F106222309F492C0821B91099093F30656
:101CB0008093F2068091F40681508093F40680911F
:101CC000E70631E0380F3093E7064091E3062091B4
:101CD000F606240F8091DB06280F2093D106609131
:101CE000EA06662371F070E0832F032E000C990B37
:101CF0000E94CD218091EB06869F200D1124209318
:101D0000D1068091D10690E0CB966BE370E00E9403
:101D1000CD218093D1062091E5062093D2066091D3
:101D2000E806662381F0062E000C770B832F032E26
:101D3000000C990B0E94CD218091E906869F200D11
:101D400011242093D2066091EC066623A1F0832F24
:101D5000330F990B70E00E94CD21CB0162E070E05F
:101D60000E94CD212091ED069091D206289F900DE2
:101D700011249093D2064F3371F18091D2068A30AC
:101D80000CF089E087FD80E08093D206F894E09122
:101D9000D106F0E0EC50FB4FE491E0934D068091CA
:101DA000D4069091F706899F802D11249091D20638
:101DB000899F802D11249091F506899F802D1124F3
:101DC00080934C0680934B06789486CE8FEC96E0F9
:101DD0000E94D2066FCF1092D206D8CFD450105D99
:101DE0002D2F41E0612F80E50E94E40A2D2F42E073
:101DF000612F83E00E94E40A81E0809307078093CB
:101E00000807009100071C2F101B8DE2F82EF10E21
:101E10002EE44F2D63E088EF96E00E945B09D3E04B
:101E2000D00FDF0D4FEF4D0F2EE463E088EF96E00B
:101E30000E945B090350105D202F412F60E088EF66
:101E400096E00E94C80A202F412F63E588EF96E0B4
:101E50000E94C80A41E0612F83E00E94DD0842E051
:101E6000612F80E50E94DD08D45044E06D2F80E5AD
:101E70000E94DD0848E06D2F83E00E94DD0884E0C9
:101E80008093010780910007C81BC15DC0930207C2
:101E900080912407909125070E94AD0A8091230725
:101EA000815080932307809104078F5F80930407FC
:101EB00003E514E0C0E00E94F90282E20E943C0BBC
:101EC000CF5F8C2F0E943C0B87E00E943C0B81E28D
:101ED0000E943C0B86E10E943C0B8FE70E943C0B6A
:101EE000E0910B07F0910C07808190910E07892BF0
:101EF0008083E0910907F0910A07908180910D0796
:101F00008095892380837801D0E0D7018D917D0170
:101F10000E943C0BDF5FD435C1F70C5A1F4FC6300F
:101F200051F68091FC0681110EC0E3E5F4E088EFE4
:101F300091E0DF019C011D9221503040E1F71092A9
:101F40000107109202070E94F6056093170770932D
:101F500018078093190790931A072091130730915F
:101F60001407621B730B70931C0760931B0780E0C0
:101F70004FCDCF92DF92EF92FF920F931F93CF93AB
:101F8000DF93EC011092C20681E08093FE0610926E
:101F9000FD061092FC0680930707809308071CE05B
:101FA0000E94910C8823E1F3FE010491011100913C
:101FB000000724E834E040E060E088EF96E00E940B
:101FC00059074CE0400F2EE933E060E088EF96E0DF
:101FD0000E9459071092010710930207CE010E9438
:101FE000AD0A8091FF06982F990F990F891B8D5A82
:101FF0008093010780910007982F990F990F891BF3
:10200000835D8093020780910F0784FF7CC080E886
:1020100094E00E941B0C8091FF06982F990F990F56
:10202000891B8D5A80930107809102078F5F8093EF
:1020300002078091D406882309F468C088E794E0F9
:102040000E941B0C8091FF06982F990F990F891BF6
:102050008D5A80930107809102078F5F809302075A
:1020600080E794E00E941B0C8091C0068130A9F4A7
:102070008091D4068F5F082E000C990B6091D506D5
:1020800070E06F5F7F4F0E94CD218093D40660E99E
:1020900073E08FEC96E00E94E3068091BF068130EA
:1020A000B9F080911D07482F50E070E060E0C090CB
:1020B0000F07D0901007E0901107F0901207C41698
:1020C000D506E606F70608F46BCF8F3F09F468CF14
:1020D0008FEF80931D078FEC96E00E94D20610923E
:1020E000D00666E973E08FEC96E00E94E30681E09B
:1020F0008093C206DF91CF911F910F91FF90EF90D7
:10210000DF90CF9008958CE794E083CF84E794E04C
:1021100097CF2091A8063091A906232B39F421E00E
:10212000FC018081882361F020E00AC0BC0180911D
:10213000A4069091A5060E94C12221E0892BA1F757
:10214000822F08951F920F920FB60F9211248F9332
:102150009F938091E1009091E100937F9093E10043
:1021600083FF0FC01092E90091E09093EB00109272
:10217000EC0092E39093ED001092520498E090935B
:10218000F00082FF22C093E09093E9009091F2006A
:10219000992319F09AE39093E800909143049923CE
:1021A00041F090914304915090934304911101C0E8
:1021B0005D9A90915104992341F09091510491506E
:1021C00090935104911101C0289A84FF18C0809106
:1021D000E2008E7E81608093E2008091E1008F7E3C
:1021E0008093E100809144048E7E8061809344045A
:1021F0009F918F910F900FBE0F901F90189580FFA9
:10220000F7CF8091E2008E7E80618093E200809122
:10221000E1008E7E8093E100809144048E7E816097
:10222000E5CF1F920F920FB60F921124CF92DF923B
:10223000EF92FF920F931F932F933F934F935F93D0
:102240006F937F938F939F93AF93BF93EF93FF937E
:10225000CF93DF93CDB7DEB76C97DEBFCDBF1092C3
:10226000E9008091E80083FF25C068E0CE01459633
:102270000E94A20482EF8093E8008D8987FF39C015
:102280009091E80090FFFCCF982F907609F034C130
:102290009E894F89588D2F89F88C911131C08038D3
:1022A00061F5809142048093F1001092F1008EEF6D
:1022B0008093E8006C960FB6F894DEBF0FBECDBFDA
:1022C000DF91CF91FF91EF91BF91AF919F918F914E
:1022D0007F916F915F914F913F912F911F910F913E
:1022E000FF90EF90DF90CF900F900FBE0F901F9058
:1022F00018959EEF9093E800C7CF1092F100D5CFCC
:10230000913059F48111D3CF4130510581F680913C
:1023100042048D7F80934204CACF933049F48111E7
:10232000C6CF4130510519F6809142048260F2CF48
:10233000953041F48091E80080FFFCCF2068209325
:10234000E300B5CF963009F0A9C00B8D1C8D22E0BB
:102350001092E9001092400410923F04F2122EC035
:1023600010923E0410923D040E9471041F8299E075
:102370009983FA8291E09E8390EA98879AEF9987F1
:1023800020913F0430914004275F3F4F3C832B83D3
:102390008D831092E9001092400410923F04109334
:1023A0003E0400933D0449E050E0BE016F5F7F4F63
:1023B00080E00E944B040E94710479CF10933E0488
:1023C00000933D040E945503DC0112960D911C916F
:1023D0000115110509F451C1D801ED91FC9104805A
:1023E000F581E02DBE016B5E7F4FC8010995009716
:1023F00009F03EC1F80100851185EACFF3E0FF1234
:102400000EC08F89882309F440C0823061F440E80F
:1024100060E18FE793E00E941804811148CF81E2C8
:102420008093EB0047CF813029F440E86BE083E7ED
:1024300093E0F1CF833099F70E945503DC011296A7
:10244000ED90FC908E010F5F1F4F6801E114F104C5
:1024500079F0D701ED91FC910680F781E02DB8016C
:10246000C7010995080F111DF701E084F184EECF33
:10247000D8011C92F60101900020E9F73197BF01C5
:102480006C197D0940E0C601C6CF6DE573E0FB0124
:10249000449150E080E80E944B0409CF973009F442
:1024A000BECF983021F481E08093F10000CF9930C5
:1024B00009F0FDCE837009F0B2CFE8E9F1E081E0E8
:1024C00031E096E32191222371F08093E90030936B
:1024D000EB00DF0111972C912093EC009093ED001D
:1024E0008F5F873079F78EE78093EA001092EA00D9
:1024F0008F8980935204DBCE8B8D9C8D1092E900E6
:102500001092400410923F0490933E0480933D0447
:10251000898D811192C08E899D89913A49F48132C9
:1025200009F07DCF47E050E065E071E080E0B3CF97
:10253000913209F074CF833269F48F89988DB0E0BD
:10254000A0E08093010190930201A0930301B09356
:102550000401ADCE803269F48091E80082FFFCCFA7
:1025600067E085E091E00E94A2048BEF8093E80091
:102570009ECE823209F09BCE8F8980930C01EEEFC4
:10258000FFE7859194918B3F9C4D51F1E0E0F8E09D
:102590008091050190910601A0910701B091080179
:1025A000803B9440A105B105F1F480910C0180FDC0
:1025B0001AC0EE3F8AE0F80789F587E797E791832D
:1025C0008083809160008093410488E19BE00FB696
:1025D000F894A895809360000FBE9093600067CE3A
:1025E000EEEFFAE0D5CF808191818737974709F0E8
:1025F0005ECEA89580916000886180936000809194
:10260000410480936000EE3F2AE0F20789F0809158
:10261000FE0A9091FF0A9183808349CE8081918147
:102620008737980751F29093FF0A8093FE0AC5CF2F
:102630001092FF0A1092FE0A3ACE0E945503DC0166
:1026400012960D911C910115110509F4E8CED801DF
:10265000ED91FC910190F081E02DBE016B5E7F4F0A
:10266000C8010995811123CEF80100851185EBCFB2
:10267000181619060CF41BCED2CEF1E0FF12BECE16
:1026800061E673E004CF1F920F920FB60F921124F0
:102690002F933F938F939F93AF93BF938091500657
:1026A00090915106A0915206B091530630912F029D
:1026B00023E0230F2D3758F50196A11DB11D20935E
:1026C0002F028093500690935106A0935206B09328
:1026D00053068091300290913102A0913202B09164
:1026E00033020196A11DB11D8093300290933102F7
:1026F000A0933202B0933302BF91AF919F918F911B
:102700003F912F910F900FBE0F901F90189526E8C4
:10271000230F0296A11DB11DD2CF1F920F920FB6AB
:102720000F9211242F936F937F938F939F936091B8
:102730004C06662361F180912E028F5F80932E02FA
:1027400090914D06891718F120914F0681E02827B6
:1027500020934F0610922E0280914E06882369F036
:102760008091000193E4899F802D1124895B8093DF
:1027700000010E94C12190934B0680914B062111CC
:1027800001C080E090E090939900809398009F9121
:102790008F917F916F912F910F900FBE0F901F908F
:1027A0001895109257061092560688EE93E0A0E016
:1027B000B0E08093580690935906A0935A06B093C0
:1027C0005B0682EA91E090935506809354068FEF62
:1027D0009FEF90936106809360061092FB06109223
:1027E000FA0684EB91E09093F9068093F806109234
:1027F000A5061092A4061092A7061092A6061092A3
:10280000A9061092A80690E080E00E942B0C20916F
:10281000A4063091A506811113C02115310519F0C8
:10282000C9010E94FA1F1092A5061092A4061092E8
:10283000A9061092A8061092A7061092A60608955F
:102840001092A9061092A8066EEB71E0C9010C94D3
:10285000CA22CF93DF9300D000D000D0CDB7DEB72F
:10286000789484B5826084BD84B5816084BD85B56B
:10287000826085BD85B5816085BD80916E00816077
:1028800080936E001092810080918100826080931D
:10289000810080918100816080938100809180001F
:1028A000816080938000809191008260809391008C
:1028B000809191008160809391008091900081606F
:1028C000809390008091C10084608093C1008091CA
:1028D000C10082608093C1008091C10081608093BB
:1028E000C1008091C30081608093C3008091C000CB
:1028F00082608093C0008091C20081608093C2009A
:1029000080917A00846080937A0080917A0082605E
:1029100080937A0080917A00816080937A00809120
:102920007A00806880937A001092520410924204D8
:10293000109244048091D70081608093D70080EA90
:102940008093D80089B5806189BD89B5826089BDD1
:1029500009B400FEFDCF61E070E080E090E00E94ED
:102960001B068091D8008F7C80618093D800809175
:10297000E000807F8093E0008091E1008E7E809374
:10298000E1008DE08093E200559A209A82E38093E3
:102990001E0781E090E0A0E0B0E0809317079093DD
:1029A0001807A0931907B0931A07CC24C394C092B8
:1029B000D506C092D4068FEF80931D0784E18093E3
:1029C000B40682E18093B50683E18093B60685E183
:1029D0008093B70687E08093B80688E08093B906B5
:1029E0001092BA060E949205C0920707109208073B
:1029F000C092FD06C092FE06E1EEF0E0E491EF5FCA
:102A0000E093FF06E2EEF0E0E491EF5FE093000771
:102A100083EE90E09093060780930507DFB6D98296
:102A2000F89480913402811127C0EEE4F5E084919E
:102A3000EDE6F5E09491E82FF0E0EE0FFF1FE8548B
:102A4000FF4FA591B491EC91E92321F461E081E17C
:102A50000E94280561E081E10E9456058CB58061E5
:102A60008CBD8CB580648CBD61E08FE00E94560502
:102A700061E080E10E945605809134028F5F80936F
:102A80003402C980CFBE8CB58C7F8CBD8DB5816082
:102A90008DBD61E084E00E94560561E08CE00E94FB
:102AA000560561E086E00E94560561E086E00E94DE
:102AB000280561E070E080E090E00E941B0660E085
:102AC00086E00E9428056AE070E080E090E00E94C5
:102AD0001B0661E086E00E942805E9E4F5E0E49148
:102AE000F0E0EE0FFF1FED52FF4F85919491909310
:102AF0000A0780930907E1E4F5E0E491F0E0EE0FC6
:102B0000FF1FED52FF4F8591949190930C07809396
:102B10000B07E8E6F5E0E491E0930D07E0E6F5E069
:102B2000E491E0930E070E94F90226EC30E03A832C
:102B3000298303ED10E0E981FA8184910E943C0B26
:102B400029813A812F5F3F4F3A8329830217130768
:102B500091F7E0910B07F0910C07808190910E079F
:102B6000892B8083E0910907F0910A079081809179
:102B70000D0780958923808340E054E05A83498380
:102B800080E00E943C0B69817A81615071097A83EF
:102B90006983672BA9F781E08093D30684E0809353
:102BA000F70684EB90E09093DF068093DE0660E00A
:102BB0008FEC96E00E94260761E085E00E945605B2
:102BC00061E08DE00E94560561E085E00E945605B7
:102BD000E0E8F5E0E491E150EF3008F0F8C2F0E011
:102BE000EC50FA4E0C94E121031674187A188618EA
:102BF0009218E718E718E7189E18AA18B618C2180E
:102C0000D018E718D91884B5806884BD81E087BDE5
:102C100080919100887F816080939100F894109258
:102C2000800010928100109285001092840088E14B
:102C300091E0909389008093880080918100886062
:102C400080938100809181008160809381008091D8
:102C50006F00826080936F0078948091C00681300D
:102C600009F0BAC21092D40681E280931E0781E077
:102C70008093D30680911D07882321F081E792E09D
:102C80000E94B90F809164008E7F8093640087EC6E
:102C900080937C0080E280937B0062E070E080E0C3
:102CA00090E00E941B0680917A00806480937A00F5
:102CB00080917A0086FDFCCF809178009091790018
:102CC000809590959A8389838EE580937C0062E05D
:102CD00070E080E090E00E941B0680917A008064A2
:102CE00080937A0080917A0086FDFCCF0091780075
:102CF000109179000E94F60500951095C980DA8040
:102D00000C9DD0010D9DB00D1C9DB00D11249B019B
:102D1000AC0120953095409550950E9446216B015D
:102D20007C010E94F6056C0D7D1D8E1D9F1D611599
:102D300071058105910511F00E941E2180916400AA
:102D40008160809364008FEB91E00E94590C109297
:102D5000C20644244A94542CAA24AA94BA2C2224AD
:102D60002394312C0E94910C882311F40C94241F7D
:102D700085EC91E00E948910882309F448C01092E4
:102D800084021092830283E090E090938202809309
:102D900081021092800210927F0288E290E090936C
:102DA0007E0280937D02B0927C02A0927B02B09260
:102DB0007A02A0927902B0927802A0927702B09241
:102DC0007602A0927502B0926E02A0926D02B0924D
:102DD0006602A0926502B0927002A0926F02B09259
:102DE0006802A0926702B0927202A0927102B09241
:102DF0006A02A0926902B0927402A0927302B09229
:102E00006C02A0926B028DEC91E00E94590C8DEC4B
:102E100091E00E948910882309F4C5C088E290E0FF
:102E2000909364028093630287E290E09093620241
:102E30008093610282E090E09093600280935F0251
:102E400010925E0210925D0210925C0210925B0280
:102E500090935A028093590210925802109257028E
:102E600010925602109255022CE330E03093540237
:102E70002093530280EF90E090935202809351028E
:102E800080907F029090800239E0831691040CF0CC
:102E9000AAC19401220F331F45E852E063EF72E0AC
:102EA0007A8369838FEC93E09C838B83E1E6F3E084
:102EB0008AE090E0D9011696BE83AD837901BCE02B
:102EC000EB0EF11C89010E5E1F4FB901685E7F4F4A
:102ED000A2E06A2E712CDA018D939D93AD011F96AD
:102EE0009C938E931E975F969C938E935E979F966E
:102EF0009C938E939E97DF969C938E93DE97A981E9
:102F0000BA812D933D93BA83A983CD80DE801F962D
:102F1000DC92CE921E975F96FC92EE925E979F9601
:102F20001C930E939E97DF967C936E93DE97AB81F6
:102F3000BC816894CC24C2F8D12CCD92DD92BC83A4
:102F4000AB831F967C926E921E975F967C926E92D8
:102F50005E979F961C921E929E97DF961C921E92E1
:102F6000DE971192119217861686178E168E17A667
:102F700016A617AE16AE08968A34910509F0ABCFA7
:102F8000E9E4F2E081E592E026E0821691040CF09B
:102F90002DC11182108232968E179F07A9F786EDF8
:102FA00091E00E94590C86ED91E00E9489108823DF
:102FB00009F42FC68091BB0681508E3F98F4809112
:102FC0007D0290917E021816190664F42091770212
:102FD000309178022F3F3F4F29F4019790937E0262
:102FE00080937D028091BD0681508E3F98F4809140
:102FF0007D0290917E028E34910564F420917702D7
:10300000309178022F3F3F4F29F4019690937E0232
:1030100080937D028091C106813061F480911D070B
:10302000882321F088ED92E00E94B90F8FEB91E0A8
:103030000E94590CC0907702D0907802DA82C9823F
:1030400000917D0210917E028091BF068130D9F4FB
:1030500080917B0290917C020196A9F4CD20C094CE
:1030600091F4C801039690937C0280937B0289E2DD
:1030700090E090937A028093790270E060E090E0B3
:1030800080E00E94470BC980DA80CD20C09409F00F
:10309000B0C026EC32E04CE2602F88EF96E00E9450
:1030A000590780917B0290917C028F3F980709F429
:1030B00000C16091790270917A02625071097A833D
:1030C000698370937A0260937902062F0E5FE82E6F
:1030D0009980091509F4C3C0D02E192D09150CF0DB
:1030E000C1C0D980102FBEC084B5806284BD81E08C
:1030F00088BD8ECD8091800080688093800081E0C3
:1031000090E0909389008093880082CD8091800028
:1031100080628093800081E090E090938B008093A8
:103120008A0076CD8091800088608093800081E065
:1031300090E090938D0080938C006ACD80919000F8
:1031400080688093900081E090E090939900809354
:1031500098005ECD8091900080628093900081E025
:1031600090E090939B0080939A0052CD80919000C4
:1031700088608093900081E090E090939D00809320
:103180009C0046CD8091C00080688093C0008091F3
:10319000C0008F7B8093C00081E08093CF0038CD4A
:1031A0008091C00080628093C00081E08093D00055
:1031B0002FCD8091C20088608093C2008091C200B0
:1031C0008B7F8093C20081E08093D20021CD60E0AC
:1031D00085E00E9428051CCD63E672E08FEC96E046
:1031E0000E94E30641CD20E130E056CE518240827C
:1031F000D2CE8091470290914802019646E0489FC6
:103200009001499F300D11242A533D4F4CE2602F0D
:1032100088EF96E00E94590749815A81415051092F
:1032200029F050937802409377023BCFB092780216
:10323000A0927702809181029091820201979093EF
:1032400082028093810210927E0210927D02892B6D
:1032500009F027CF8EED91E00E94590C22CFD82E95
:10326000182FE02ECD2CC11AFC2CC7FE03C0FF2462
:10327000F394FC0CF594D11684F0412F6E2D0911B6
:1032800002C04E2D612F88EF96E00E949908F7FE4C
:1032900002C0EA94FC0C1F5FEECFC980DA80D7FE33
:1032A00008C0B0927C02A0927B02B0927A02A092F7
:1032B00079028091630290916402181619060CF04D
:1032C000FFC010925C0210925B02809161029091AB
:1032D00062020196883291050CF0A3C190936202BC
:1032E0008093610220916102309162023A832983C6
:1032F000F901EE0FFF1FE153FC4F80819181019690
:1033000021F380915B0290915C020197A9F4809176
:10331000570290915802892B09F49EC110926002C5
:1033200010925F0282E090E090935E0280935D02D3
:1033300010925C0210925B02C0905F02D09060021B
:1033400049815A81440F551F5A834983FA01EB572B
:10335000FD4F008111810C0D1D1D11830083809094
:103360005D0290905E02FA01ED50FD4FE080F18029
:10337000E80CF91CF182E08253E2E516F104C4F096
:10338000B0924A02A0924902B0924C02A0924B0223
:10339000B0924E02A0924D02B0925002A0924F0203
:1033A00069E2E616F10424F08EED91E00E94590CDA
:1033B0000C3411050CF45DC11C141D0464F48EEF73
:1033C0009FEF90935A028093590282E090E090938D
:1033D000580280935702892821F0109258021092C7
:1033E0005702E981FA81EF59FC4F80819181019662
:1033F00062E070E00E94CD219183808389819A816F
:1034000081539C4F9A838983DC018D919C91119704
:10341000069759F480916302909164024D925C92F8
:10342000019790936402809363028091530290917C
:103430005402181619060CF443C040917F025091B3
:103440008002809143029091440248175907C4F1C9
:1034500084309105ACF5B8E2EB16F1048CF566EF1B
:1034600064039001659F300D1124285D3F4F309318
:103470005402209353020196909344028093430296
:10348000EDE6F2E030E020E090E080E00F5F1F4FDB
:103490002115310581F4408151814F3F5F4F59F42F
:1034A00011830083DC01AA0FBB1FAB59BD4FED9206
:1034B000FC9221E030E0019632968430910541F78C
:1034C00030924202209241029FECC92E93E0D92E05
:1034D00083EF92E09A838983A5E8B2E0BC83AB8353
:1034E00021E6622E23E0722EF601E190F1906F0149
:1034F000A981BA810D911D91BA83A983EB81FC81C9
:1035000021913191FC83EB833E832D832A5F3F4FD2
:1035100049013FEFE316F30609F4B6C4D3018D91D8
:103520009C918E0D9F1DB7E0B89F9001B99F300D03
:1035300011242D513D4F402F6D8188EF96E00E9460
:1035400059070530110524F41092420210924102ED
:10355000ED81FE81F0934002E0933F0290923E02A3
:1035600080923D02F4E0EF16F10409F08FC08D81E6
:103570009E8101969093400280933F022D813E816F
:103580002B5F3F4F30933E0220933D0280917B02A0
:1035900090917C0220913F02309140028217930764
:1035A0000CF479C020913D0230913E022817390772
:1035B0000CF471C08091790290917A029C012E5F87
:1035C0003F4F201731070CF466C00C5F1F4F0817E0
:1035D00019070CF460C04AE04E9DC0014F9D900D4C
:1035E00011242091830230918402820F931F0A9646
:1035F0009093840280938302F601329766E070E034
:1036000071836083B0927C02A0927B02B0927A02B6
:10361000A092790270E060E081E090E00E94470BA8
:103620003AC0109262021092610230925C022092C3
:103630005B028091450290914602019664E070E041
:103640000E94CD21909346028093450261E070E094
:1036500004960E94470B46CE8091590290915A02DF
:103660009093600280935F0210925E0210925D025E
:103670005FCE023011050CF0AECED7FEACCE82E0AC
:1036800090E090935A0280935902A1CE36E0E3165F
:10369000F10409F07BCF72E0670E711C8FE194E0BA
:1036A0008C159D0509F020CF809153029091540212
:1036B0000197909354028093530280914702909116
:1036C0004802019662E070E00E94CD21909348028A
:1036D0008093470246E0489F9001499F300D112496
:1036E000D901A654BD4FBA83A9830DE612E0E5E6E1
:1036F000F2E0FC83EB83D8016D917C916F3F7607FC
:1037000009F4D6C0EB81FC81408151814F5F5F4F4E
:103710005183408329813A8188EF96E00E945907BE
:103720006090430270904402E9E4F2E082E190E0AC
:103730007C0127E0E21AF108208131812F3F320716
:1037400039F1D8014D915C91BA016F5F7F4F6E15D1
:103750007F05F4F084179507DCF0AB81BC814D91B7
:103760005C91445251094830510590F42F5F3F4F0E
:10377000253031050CF072C331832083D8014D927E
:103780005C92AB81BC814D925C92B1E06B1A710886
:10379000329642968A35910559F6709244026092AB
:1037A000430280917D0290917E029093400280932B
:1037B0003F029C012A5F3F4F30933E0220933D021F
:1037C000F801C080D1804601FFEF8F1A9F0AAB81BC
:1037D000BC81ED90FC9040917702509178024F3F70
:1037E0005F4FB1F4881699069CF02C153D0584F0C6
:1037F000C7018997079760F4ECE3F0E0F093780253
:10380000E093770262E070E082E090E00E94470B74
:10381000D0924002C0923F0290923E0280923D02BE
:1038200080917B0290917C028C159D0564F1881635
:1038300099064CF18091790290917A029C012E5F59
:103840003F4F2E153F05FCF0F3E0EF0EF11CE8169C
:10385000F906CCF0CC24CA94DC2CD0927C02C09225
:103860007B02D0927A02C0927902D8014D925C928A
:10387000EB81FC8151824082F1E06F1A71087092F5
:10388000440260924302AB81BC818D919C9111975F
:10389000C09774F0F801518240824D925C92809101
:1038A0004302909144020197909344028093430213
:1038B0000E5F1F4F2B813C812E5F3F4F3C832B833C
:1038C00045E752E04017510709F015CF8091630298
:1038D00090916402892BC9F480915502909156020F
:1038E000019690935602809355028A3591056CF0AB
:1038F00080917F0290918002019690938002809344
:103900007F028DEC91E00E94590C69E472E07A83A9
:1039100069830BE010E01093400200933F0298018E
:10392000295F3F4F30933E0220933D02E981FA81A7
:10393000819191918F3F980709F4B4C240917B0225
:1039400050917C02401751070CF4A9C22417350787
:103950000CF4A5C22091790230917A0225523109E6
:103960002730310508F09BC20196A981BA811196D2
:103970009C938E93B0927C02A0927B02B0927A02CA
:10398000A0927902059714F04D925C92A981BA81B8
:103990008D919C91FA83E9838F3F980771F0E7E05E
:1039A000E89F9001E99F300D112429563D4F47E2D1
:1039B000602F88EF96E00E9459070E5E1F4F033577
:1039C000110509F0A8CF8091510290915202019700
:1039D0009093520280935102181619066CF10091CF
:1039E000410210914202C0907502D0907602DA82B4
:1039F000C98280EF90E0909352028093510201308F
:103A00001105D1F4CD20C094B9F410927602109231
:103A100075020E94CF2022E030E040E050E00E949A
:103A20002721672B09F01DC210923C0210923B0225
:103A300010933A02009339028091750290917602B8
:103A4000892B09F067C020913B0230913C028091A4
:103A5000390290913A02280F391F3A832983309313
:103A60003C0220933B02C90101978834910520F064
:103A7000B0927602A092750289819A8165E070E029
:103A80000E94CD21892B31F470E060E083E090E06A
:103A90000E94470BC980DA80D0924002C0923F0258
:103AA0009601265F3F4F30933E0220933D02809166
:103AB0007B0290917C028C159D0564F128173907D3
:103AC0004CF18091790290917A020296069710F556
:103AD00080918302909184028C599F4F909384022D
:103AE000809383023092760220927502B0927C021B
:103AF000A0927B02B0927A02A09279028EE190E0CD
:103B0000909338028093370270E060E081E090E0AB
:103B10000E94470BC0907502D09076022FEFC2161C
:103B2000D20619F18AE08C9D90018D9D300D1124F3
:103B30002D573D4F40E060913B0288EF96E00E9498
:103B40005907A6014130510581F4809137029091C7
:103B5000380201979093380280933702181619069D
:103B600024F0B0927602A092750280914102909169
:103B70004202019709F04DC0809175029091760242
:103B8000019609F046C0C0908102D0908202DA828C
:103B9000C982960122303105ACF026EC32E040E0DB
:103BA00060E088EF96E00E94590749815A814230CF
:103BB000510541F026EC32E040E069E088EF96E004
:103BC0000E94590720918302309184022A303105E6
:103BD0000CF454C198E282E0243631050CF480E004
:103BE000981B82E0283E53E035070CF480E0981BD8
:103BF0009093010710920207C9010E949A0B88E472
:103C00008093010780917F029091800201960E942B
:103C10009A0B8FEB91E00E948910882309F482C0EF
:103C20008091830290918402209135023091360276
:103C30002817390724F490933602809335021092A6
:103C400001071092020767EE71E088EF96E00E948C
:103C5000900B20918302309184022A3031050CF4BC
:103C60000FC19CE082E0243631050CF480E0981B03
:103C700082E0283E63E036070CF480E0981B9093C6
:103C8000010786E080930207C9010E949A0B2091E8
:103C90003502309136022A3031050CF4F3C090E43D
:103CA00082E0243631050CF480E0981B82E0283E47
:103CB00073E037070CF480E0981B9093010786E0CF
:103CC00080930207C9010E949A0B2EE933E04DE070
:103CD0006AE088EF96E00E945907109201078AE295
:103CE000809302076BEF71E088EF96E00E94900BE3
:103CF0008091BF06813051F485EC91E00E94590C0F
:103D000066E973E08FEC96E00E94E3068091C106BD
:103D1000813041F480911D07882321F08CE792E0E7
:103D20000E94B90F8EED91E00E948910882309F45A
:103D30008BC00FEC13E01A821982D8018D919D91EE
:103D40008D018F3F9807F1F0E981FA81EF59FC4F1F
:103D500020813181820F931FE7E0E89F9001E99F66
:103D6000300D11242D513D4FE981FA81ED50FD4F69
:103D70004081E981FA81EB57FD4F608188EF96E041
:103D80000E94590729813A812E5F3F4F3A83298348
:103D90002035310591F6109207071092080730E19F
:103DA000398327E2498166E188EF96E00E945B094A
:103DB00049814F5F49834931A1F781E0809307072B
:103DC0008093080788E18093010782E180930207CE
:103DD00060E172E088EF96E00E94900B27E240E1FC
:103DE00066E188EF96E00E945B0927E248E166E120
:103DF00088EF96E00E945B0929E040E166E188EFE8
:103E000096E00E94C80A29E040E16CE388EF96E062
:103E10000E94C80A84E0809301078AE28093020727
:103E20006AE172E088EF96E00E94900B8091C006F4
:103E3000813051F48FEB91E00E94590C66E973E0F8
:103E40008FEC96E00E94E30680E090E0892B11F46D
:103E50000C94B2160E9400000C94AF16518240825E
:103E60008DCC89E490E090933C0280933B02C98022
:103E7000DA80D0923A02C0923902DECD9AE2AFCE19
:103E80009EE0F4CE92E410CF6D817E81709340026B
:103E900060933F0290923E0280923D02FCCBFA83F7
:103EA000E9837DCDFA83E98388CD8091A406909142
:103EB000A506009711F00C94FA1F08950F931F9315
:103EC000CF93DF938230910510F482E090E0E0918F
:103ED0002807F091290730E020E0B0E0A0E030971B
:103EE00099F42115310509F44AC0281B390B2430F7
:103EF0003105D8F58A819B816115710589F1FB0136
:103F000093838283FE0111C040815181028113811C
:103F100048175907E0F04817590799F4109761F0CE
:103F200012960C93129713961C933296CF01DF9141
:103F3000CF911F910F91089500932807109329079F
:103F4000F4CF2115310551F04217530738F0A9017C
:103F5000DB019A01BD01DF01F801C1CFEF01F9CF0B
:103F60009093290780932807CDCFFE01E20FF31F1E
:103F7000819391932250310939832883D7CF20919F
:103F8000260730912707232B41F420910F01309110
:103F90001001309327072093260720910D013091BF
:103FA0000E012115310541F42DB73EB740911101A5
:103FB00050911201241B350BE0912607F091270741
:103FC000E217F307A0F42E1B3F0B2817390778F0F0
:103FD000AC014E5F5F4F2417350748F04E0F5F1F4F
:103FE0005093270740932607819391939FCFF0E04A
:103FF000E0E09CCFCF93DF930097E9F0FC0132978C
:1040000013821282A0912807B0912907ED0130E0B8
:1040100020E01097A1F420813181820F931F20911D
:104020002607309127072817390709F061C0F09358
:104030002707E0932607DF91CF910895EA01CE1775
:10404000DF07E8F54A815B819E0141155105B1F713
:10405000E901FB83EA8349915991C40FD51FEC17FD
:10406000FD0761F4808191810296840F951FE9011B
:1040700099838883828193819B838A83F0E0E0E047
:1040800012968D919C9113970097B9F52D913C91C3
:104090001197CD010296820F931F20912607309130
:1040A00027072817390739F6309751F51092290755
:1040B00010922807B0932707A0932607BCCFD3837D
:1040C000C28340815181840F951FC817D90761F4BD
:1040D0004E5F5F4F88819981480F591F51834083FC
:1040E0008A819B81938382832115310509F0B0CFAA
:1040F000F0932907E09328079ECFFD01DC01C0CF94
:1041000013821282D7CF8F929F92AF92BF92CF929B
:10411000DF92EF92FF92CF93DF93EC016881798178
:104120008A819B81611571058105910521F464E205
:1041300079ED8BE597E02DE133EF41E050E00E940F
:10414000272149015A019B01AC01A7EAB1E40E9471
:1041500046216B017C01ACEEB4EFA50194010E94F5
:104160005421C60ED71EE81EF91EF7FE06C081E0D8
:10417000C81AD108E10880E8F80AC882D982EA8220
:10418000FB82C701B6019F77DF91CF91FF90EF903F
:10419000DF90CF90BF90AF909F908F9008958F92B7
:1041A0009F92AF92BF92CF92DF92EF92FF92609177
:1041B0001301709114018091150190911601611500
:1041C00071058105910521F464E279ED8BE597E0B5
:1041D0002DE133EF41E050E00E94272149015A01CF
:1041E0009B01AC01A7EAB1E40E9446216B017C016E
:1041F000ACEEB4EFA50194010E945421C60ED71E67
:10420000E81EF91EF7FE06C081E0C81AD108E108D1
:1042100080E8F80AC0921301D0921401E0921501CF
:10422000F0921601C701B6019F77FF90EF90DF90E3
:10423000CF90BF90AF909F908F900895609313019F
:104240007093140180931501909316010895052E23
:1042500097FB1EF400940E943E2157FD07D00E9458
:10426000902107FC03D04EF40C943E2150954095CC
:10427000309521953F4F4F4F5F4F08959095809512
:10428000709561957F4F8F4F9F4F08950E94B22187
:10429000A59F900DB49F900DA49F800D911D11249A
:1042A0000895B7FF0C9446210E944621821B930B70
:1042B00008952F923F924F925F926F927F928F92CA
:1042C0009F92AF92BF92CF92DF92EF92FF920F93A5
:1042D0001F93CF93DF93CDB7DEB7CA1BDB0B0FB6AF
:1042E000F894DEBF0FBECDBF09942A88398848886C
:1042F0005F846E847D848C849B84AA84B984C88402
:10430000DF80EE80FD800C811B81AA81B981CE0FF8
:10431000D11D0FB6F894DEBF0FBECDBFED010895DD
:10432000A1E21A2EAA1BBB1BFD010DC0AA1FBB1FB9
:10433000EE1FFF1FA217B307E407F50720F0A21B2B
:10434000B30BE40BF50B661F771F881F991F1A9498
:1043500069F760957095809590959B01AC01BD01C2
:10436000CF010895A29FB001B39FC001A39F700D1C
:10437000811D1124911DB29F700D811D1124911D6D
:104380000895991B79E004C0991F961708F0961BB1
:10439000881F7A95C9F78095089597FB072E16F424
:1043A000009407D077FD09D00E94E72107FC05D0D3
:1043B0003EF4909581959F4F0895709561957F4F3C
:1043C0000895EE0FFF1F0590F491E02D0994AA1BAC
:1043D000BB1B51E107C0AA1FBB1FA617B70710F0F0
:1043E000A61BB70B881F991F5A95A9F78095909522
:1043F000BC01CD010895B0E0A0E0E1E0F2E20C9450
:104400005B218C01009751F4CB010E945E1F8C014F
:10441000C801CDB7DEB7E0E10C947721FC01E60FCF
:10442000F71F9C0122503109E217F30708F49DC0E1
:10443000D901CD91DC911197C617D70798F0C530F7
:10444000D10530F3CE0104978617970708F3C61BF2
:10445000D70B2297C193D1936D937C93CF010E9488
:10446000FA1FD6CF5B01AC1ABD0A4C018C0E9D1E03
:10447000A0912807B0912907512C412CF12CE12C57
:10448000109731F580912607909127078815990597
:1044900009F05CC04616570608F058C080910D011F
:1044A00090910E01009741F48DB79EB74091110194
:1044B00050911201841B950BE817F90708F055C0BD
:1044C000F0932707E0932607F90171836083A0CF5B
:1044D0008D919C91119712966C90129713967C90E7
:1044E0001397A815B90559F56C0142E0C40ED11C0B
:1044F000CA14DB0420F1AC014A195B09DA011296F7
:10450000159780F06282738251834083D9016D9345
:104510007C93E114F10471F0D7011396FC93EE93B0
:10452000129776CF22968C0F9D1FF901918380837D
:10453000F301EFCFF0932907E093280769CF4816DE
:10454000590608F42C017D01D3019ACFCB010E94BA
:104550005E1F7C01009749F0AE01B8010E94B822AD
:10456000C8010E94FA1F870153CF10E000E050CF2E
:10457000FB01DC0102C001900D9241505040D8F780
:104580000895FB01DC018D91019080190110D9F390
:10459000990B0895FB01DC0101900D920020E1F7D9
:1045A000089512E0CEECD2E004C0FE010E94E121A9
:0C45B0002196CF3CD107C9F7F894FFCF4B
:1045BC0001FFFFFFFF00E100000000000000002AE7
:1045CC0007800001000000010039003900010001E2
:1045DC00000100050006000000000044000100007E
:1045EC000000000700040001000F00390001000169
:1045FC0000020007000F0000000A003C0001000050
:10460C0000000007000600000005003A0000000151
:10461C0000050005000200000004003A0000000143
:10462C0000050005000200000002003A0000000135
:10463C0000050005000200000001003A0000000126
:10464C000005000500020000C18081000000000090
:10465C00000069034D068A037F03D0038E03AC036D
:10466C00000000007709AF04440B430B0D0A0074E3
:10467C0069746C65006E657767616D65006E657752
:10468C006C6576656C0072756E6E696E670067613D
:10469C006D656F7665720020204C415354202020AC
:1046AC00202020202020484947480020413A205013
:1046BC004C41592020202020433A20515549540088
:1046CC0047414D45204F56455200505245535320BB
:0E46DC004220544F20434F4E54494E55450046
:00000001FF
