:100000000C94ED020C9415030C9415030C94150339
:100010000C9415030C9415030C9415030C94150300
:100020000C9415030C9415030C94800F0C94F20F90
:100030000C9415030C9415030C9415030C941503E0
:100040000C9415030C94CF0A0C9415030C9415030F
:100050000C9415030C9415030C9415030C940C0AC2
:100060000C9415030C9415030C9415030C941503B0
:100070000C9415030C9415030C9415030C941503A0
:100080000C9415030C9415030C9415030C94150390
:100090000C9415030C9415030C9415030C94150380
:1000A0000C9415030C9415030C94150392169816D2
:1000B0009E16AA16B6160B170B170B17C216CE16DE
:1000C000DA16E616F4160B17FD161C091F090E09A1
:1000D00012091809400940094009230927092B0979
:1000E0003109350940093B090101FF030101F7030B
:1000F000EC00E80000000000240027002A002D008A
:100100003000D5F08D14A1C881CFD9F1AF20000007
:10011000000000250028002B002E00310003053FC1
:10012000213F1208120A100A0E1C0E0C1E0C141A83
:1001300014161F161E131E1E1B1E1E1F1E3F213FC0
:100140003A2F3A173D173F213F181F02040A041F98
:100150000E04040E1F0A1F0A0E0E1F04110E2E2578
:100160002E2F2A2E262929021F02081F08150E04E9
:10017000040E150E15151B151B040604040C0400B3
:1001800000000017000300031F0A1F16371A190486
:10019000130A153A000300000E11110E000A040A9A
:1001A000040E040030000404040010001804031FAF
:1001B000111F121F101D151711151F07041F1715EA
:1001C0001D1F151D01011F1F151F17151F000A00F8
:1001D000003200040A110A0A0A110A040115020E6B
:1001E00011171E051E1F150A0E110A1F110E1F15CD
:1001F000111F05010E111D1F041F111F1108100FE3
:100200001F041B1F10101F061F1E040F0E110E1FB0
:1002100009060E112E1F051A121509011F011F10C4
:100220001F0F180F1F0C1F1B041B031C0319151392
:10023000001F11030418111F0002010220202000DA
:1002400001020C121E1F120C0C12120C121F0C1A9F
:1002500014041E05242A1E1F021C141D1020201D1C
:100260001F0814111F101E041E1E021C0C120C3E2F
:100270000A040C123E1E040214160A020F120E107B
:100280001E0E100E1E081E120C1226281E322A26C2
:10029000041E21001F00211E040102013F213F0511
:1002A00000893008023802497868140000202020B4
:1002B00020596F6461277300596F64612773000BC5
:1002C000041F006AC0FFE064C00B045DC0554055C8
:1002D000405DC008057EFFFFE7C308057EDBFFA584
:1002E000C308056EDB76A5C3080566D956A5420886
:1002F00005228952A54202048040804002044080C9
:1003000040800704107CFEFE07048A400492070424
:100310009204408A20202020596F646127730007CF
:100320000538D6FE28C6070538D6FE44280705102E
:10033000BAD67C2807053854FE9228070538547C25
:100340004428070538547C285407055482548254A5
:1003500007055482548254450068010000401AFF8A
:10036000FFFFFFFFFFFFFF00000000000000003B59
:100370009DDC71F1FBE1F03B9DDCF9F9FBF3F83B0F
:100380009DDCF9F9FBFBF83BDDDDFDFDC3BBB83BB4
:10039000DDDDFDDDC3BBB83BDDDDDDDDC3BB803BAB
:1003A000FDDDDDDDF3BBC03BFDDDDDDDF3F1E03B7D
:1003B000FDDDFDDDF3E0F03BFDDDFDDDC3F0783B71
:1003C000BDDDFDDDC3B8383BBDDDDDDDC3BBB83B06
:1003D000BDFDDDDDC3BBB83B9CF9DDF9FBBBF83BE4
:1003E0009C71DDF9FBBBF83B9C21DDF1FBB9F00012
:1003F00000000000000000FFFFFFFFFFFFFFFF0005
:1004000000000000000000A6C66AECE66E66CEAAF8
:10041000AA8A4A8AAA8AA8AAAEEA4ACAEC8EAC4A32
:10042000AA2A4A8AAA8AA84ECAE4ECEEAAEACE17F9
:1004300053440016137800161314001510200015ED
:10044000201000540A03E181867F3E186D830F0F50
:100450000E0183866033186DC3198F1803C38E6035
:1004600033186DE330CF1803C39E603630CDE360A0
:10047000CF3006C79E7E3E30CDB360CF300CC6F67F
:10048000603330D9B660CF33CFCCF66061B0DB1EBD
:1004900060CF30D86CE6C061B0DB1E618F19986CFC
:1004A000C6C063B19B0E330F0FB078C6FF7E1F1B13
:1004B000061E0FF6E8DBCFC3B8AEA49B928A827B00
:1004C000746E68625C57524E4945413E3A3734314A
:1004D0002E2C29272523211F1D1C1A191716151428
:1004E000131211100F0E0D0C0B0A09080706050058
:1004F000380168010000080B000202020100090433
:100500000000010202000005240010010524010181
:1005100001042402060524060001070581031000DA
:100520004009040100020A00000007050202400021
:1005300000070583024000000403090412010002C1
:10054000EF020140412336800001010203014172A4
:100550006475696E6F204C4C430041726475696E1E
:100560006F204C656F6E6172646F000000000023A5
:1005700000260029002C002F0004040404040304B6
:100580000502020202040302020202060606060631
:100590000604040202020404040802011040804020
:1005A0001020408040800802040180402010020199
:1005B000108010204040200000000200090F0000C1
:1005C000030401000C000000000000000000000017
:1005D00000000000000040203A2011241FBECFEF91
:1005E000DAE0DEBFCDBF12E0A0E0B1E0EEE7F7E475
:1005F00002C005900D92AA33B107D9F727E0AAE30C
:10060000B2E001C01D92AA33B207E1F712E0CCEECE
:10061000D2E004C02197FE010E94B022CB3ED10758
:10062000C9F70E94C5140C94B2230C9400002FB794
:10063000F89483E08093E9009091E800892F80721C
:1006400095FF04C09091F20080E4891B2FBF0895AC
:10065000CF93DF931F92CDB7DEB76983DC01ED91B5
:10066000FC910280F381E02D41E050E0BE016F5F1C
:100670007F4F09950F90DF91CF91089583E080938C
:10068000E9008091F200882319F08AE38093E80062
:1006900008950E94170390E00895CF93DF930E947E
:1006A0003513EC0167E372E088EB96E00E94EF08F7
:1006B0008C0F9D1FDF91CF9108958F929F92AF92E3
:1006C000BF92CF92DF92EF92FF920F931F93CF933F
:1006D000DF935C016B017A0180910701882309F4A3
:1006E0005BC080914A04882309F456C08091480475
:1006F00080FF05C08091E00082608093E000E70108
:1007000010E00AEF83E0882E9AE3992E2097D9F122
:100710000E94170381110AC0015009F43DC061E035
:1007200070E080E090E00E94D209F0CF282F30E006
:10073000C217D3070CF48C2F4FB7F8948092E900BE
:100740009091E80095FF1DC0282F30E0C21BD30B0D
:10075000F601982F915020F081918093F100FACF0B
:10076000C20ED31E112319F09092E80009C08091A7
:10077000E80085FD06C09092E80011E0209709F09E
:1007800010E04FBFC3CF1111C3CF5D9884E68093B3
:1007900047041E141F0444F081E090E0F5019383A8
:1007A000828380E090E001C0C701DF91CF911F916B
:1007B0000F91FF90EF90DF90CF90BF90AF909F9000
:1007C0008F900895EF92FF920F931F93CF93DF9333
:1007D0004091DF065091E0066091E1067091E206DB
:1007E0002FB7F8948091480690914906A0914A0647
:1007F000B0914B062FBF481B590B6A0B7B0B8091A6
:10080000DE0690E0A0E0B0E00091D7061091D80697
:100810002091D9063091DA0684179507A607B70705
:1008200030F4011511052105310509F0A8C280E059
:10083000012B022B032B09F0E3C20E94C812809106
:100840009006882309F4AFC08091A4068111ABC043
:1008500080919C0690919D06E091A106F091A206E0
:10086000EE0FFF1FE80FF91F259134912115310577
:1008700001F52091A006222331F01092A2061092D9
:10088000A106FC0114C01092900680918F06882367
:1008900041F080E00E94C812E091A106F091A2060A
:1008A0002FC060E08FE896E00E94BE0A7CC02591D0
:1008B0003491C901969587959695879520FF53C0E9
:1008C000B901B6E076956795BA95E1F76F71932F08
:1008D00096959695969590518F70823081F108F596
:1008E000811117C06B3008F06AE06093A506E091B3
:1008F000A106F091A2063196F093A206E093A1061C
:10090000EE0FFF1F80919C0690919D06E80FF91F46
:10091000CECF813061F740E08FE896E00E94560A22
:10092000E6CF8330B1F0843011F780919306689F51
:10093000602D11246093AC069093AD06D8CF8091C2
:100940009306689F602D11246093A8069093A906D2
:10095000CECF80919306689F602D11246093AA06E4
:100960009093AB06C4CF8F738093A30680919306B8
:10097000839F802D11248093A4061092B4061092B8
:10098000B3061092B20681E08093A60680934B04D2
:100990001092A7068091A1069091A20601969093CD
:1009A000A2068093A1068091A606882309F4E7C0D9
:1009B0008091A406811106C060E08FE896E00E9455
:1009C000BE0ADDC081508093A4068091B4068111D7
:1009D00048C02091B2063091B3062F5F3F4FC90146
:1009E000880F991FE091AE06F091AF06E80FF91F4E
:1009F00065917491862F87708093B506AB0163E093
:100A0000569547956A95E1F7CA0196958795972F70
:100A1000969596959093B6068F7390919306899FBD
:100A2000802D11248093B406417040934F0430937D
:100A3000B3062093B2068091B00690E028173907DC
:100A400080F02091B106222339F0821B9109909306
:100A5000B3068093B20605C060E08FE896E00E947E
:100A6000BE0A8091B40681508093B4068091A70697
:100A700021E0280F2093A7064091A3063091B606E7
:100A8000340F80919B06380F309391066091AA062F
:100A9000662371F070E0822F022E000C990B0E94E9
:100AA0009C228091AB06869F300D112430939106D5
:100AB0008091910690E0CB966BE370E00E949C22BF
:100AC000809391063091A506309392066091A80616
:100AD000662381F0062E000C770B822F022E000C6D
:100AE000990B0E949C228091A906869F300D1124AB
:100AF000309392066091AC066623A1F0822F220FFC
:100B0000990B70E00E949C22CB0162E070E00E9491
:100B10009C222091AD0690919206289F900D112461
:100B200090939206809192064F3341F08A300CF0F8
:100B300089E087FD80E08093920602C010929206C1
:100B4000F894E0919106F0E0ED54FB4FE491E093CE
:100B50004E048091B70690919406899F802D1124B0
:100B600090919206899F802D11249091B506899FBE
:100B7000802D112480934D0480934C0478948091AF
:100B8000E306882309F48FC08C3018F4CCE0C81B2E
:100B900001C0C0E081E08093BE061092C7061092AB
:100BA000C8061091C00683E0810FDC2FD11BD35DF6
:100BB0000D2FE82E880FFF08ED0EF11CD7FDFA94DB
:100BC000802F002E000C990B8E159F054CF42EE4FF
:100BD000402F63E088EB96E00E94B30C0F5FF0CFEC
:100BE0001450DD5F212F41E06D2F80E50E94D4136A
:100BF000212F42E06D2F83E00E94D41381E0809387
:100C0000C7068093C8060091C006DC2FD01BD35DB9
:100C10002EE44D2F63E088EB96E00E94B30C13E0C6
:100C2000100F1D0F4FEF410F2EE463E088EB96E0AD
:100C30000E94B30C0350DD5F202F4D2F60E088EB46
:100C400096E00E94CC0D202F4D2F63E588EB96E0B7
:100C50000E94CC0D41E06D2F83E00E94561342E0CC
:100C60006D2F80E50E945613145044E0612F80E5FB
:100C70000E94561348E0612F83E00E94561384E0DF
:100C80008093C1068091C006C81BC15DC093C20697
:100C90008091E4069091E5060E9435138091E30669
:100CA00081508093E3068091C4068F5F8093C406D1
:100CB00080E5E82E84E0F82EC0E00E94371482E23E
:100CC0000E94EF0DCF5F8C2F0E94EF0D87E00E94F6
:100CD000EF0D81E20E94EF0D86E10E94EF0D8FE79C
:100CE0000E94EF0DE091CB06F091CC0690818091AF
:100CF000CE06892B8083E091C906F091CA069081C7
:100D00008091CD0680958923808300E010E0F70173
:100D1000E00FF11F80810E94EF0D0F5F1F4F043520
:100D20001105A9F724E5E20EF11CC63031F68091D9
:100D3000BC0681110EC088EF91E0E0E5F4E0DF0130
:100D40009C011D9221503040E1F71092C106109293
:100D5000C2060E94AD096093D7067093D8068093AF
:100D6000D9069093DA062091D3063091D406621BFF
:100D7000730B7093DC066093DB0680E041C02FB7F5
:100D8000F8948091480690914906A0914A06B09146
:100D90004B062FBF2091DE06820F911DA11DB11DB4
:100DA0008093DF069093E006A093E106B093E206FD
:100DB0008091CF069091D006A091D106B091D20635
:100DC0000196A11DB11D8093CF069093D006A093EC
:100DD000D106B093D2061092D7061092D806109280
:100DE000D9061092DA060E94AD096093D30670937B
:100DF000D4068093D5069093D6060E94581481E0BD
:100E0000DF91CF911F910F91FF90EF9008958F92F6
:100E10009F92AF92BF92DF92EF92FF920F931F9338
:100E2000CF93DF93EC011092820681E08093BE069F
:100E30001092BD061092BC068093C7068093C80628
:100E40008CE0F82E07E513E099E0E92E0E94E2031A
:100E50008823E1F3FE018491882319F0D090C00625
:100E600001C0D12C23E434E040E060E088EB96E060
:100E70000E94190B4CE04D0D2DE533E060E088EB4E
:100E800096E00E94190B1092C106F092C206CE01A4
:100E90000E9435138091BF06982F990F890F819575
:100EA0008D5A8093C1068091C006982F990F890FA3
:100EB0008195835D8093C2068091CF0684FF03C035
:100EC0008FE394E002C08BE394E00E944D03909185
:100ED000BF06892F880F980F91959D5A9093C10650
:100EE0008091C2068F5F8093C2068091940688230A
:100EF00019F087E394E002C083E394E00E944D037D
:100F00009091BF06892F880F980F91959D5A9093C5
:100F1000C1068091C2068F5F8093C2068FE294E083
:100F20000E944D03D0908006F1E0DF1233C0809123
:100F300094068F5F082E000C990B6091950670E067
:100F40006F5F7F4F0E949C22809394061092A606AA
:100F50001092A4061092B3061092B2061092A70641
:100F600010924C0410924D0410924B040E94900A6F
:100F700010939D0600939C061092A2061092A10663
:100F8000D0929006E092A5061092A8061092AA06AA
:100F90001092AC0680917F068130B9F08091DD0619
:100FA000482F50E060E070E08090CF069090D0062F
:100FB000A090D106B090D20684169506A606B70674
:100FC00008F444CF8F3F09F441CF8FEF8093DD06C3
:100FD00060E08FE896E00E94BE0A109290068FE8CB
:100FE00096E00E949E0A81E080938206DF91CF9175
:100FF0001F910F91FF90EF90DF90BF90AF909F9067
:101000008F900895FC018091680690916906892B64
:1010100021F421E0309749F413C080916406909147
:101020006506309731F421E0FC018081882341F08E
:1010300006C0BF010E94A22321E0892B09F020E015
:10104000822F0895FC0180914A04811103C08FEF23
:101050009FEF08959FB7F89482E08093E900209174
:10106000F20030E01216130614F421E030E02115EE
:10107000310559F0289884E6809349048091F10065
:1010800080838091F200882319F09FBFC9010895E1
:101090008BE68093E800F9CFCF93DF931F92CDB713
:1010A000DEB7FC018485958597FD05C02FEF3FEFE6
:1010B000358724870BC0CE0101960E942208019734
:1010C00019F4898190E002C08FEF9FEF0F90DF91BC
:1010D000CF9108958091500681110DC082E08093D8
:1010E0004C0684E080934D0610924F0610924E06F7
:1010F00081E0809350068CE496E00895CF92DF92D1
:10110000EF92FF920F931F93CF93DF936C017A01BD
:101110008B01C0E0D0E0CE15DF0589F0D8016D91DC
:101120008D01D601ED91FC910190F081E02DC60179
:101130000995892B11F47E0102C02196ECCFC701DD
:10114000DF91CF911F910F91FF90EF90DF90CF90A3
:101150000895089580E090E008950E949423EF920E
:10116000FF920F931F93CF93DF93EC017B018A01D2
:1011700088819981009729F02A813B8124173507BE
:10118000F8F4B8016F5F7F4F0E94CA22009759F0B0
:10119000998388831B830A832C813D81232B81F4CF
:1011A000FC0110820DC088819981009711F00E9486
:1011B0000221198218821D821C821B821A8207C09A
:1011C0001D830C83B701888199810E94AB23CE01D6
:1011D000DF91CF911F910F91FF90EF9008956115CE
:1011E000710579F0FB0101900020E9F73197AF011B
:1011F000461B570BDC01ED91FC910280F381E02D41
:10120000099480E090E0089590E0FC013197EF3080
:10121000F105B0F5EB59FF4F0C94B022809180009E
:101220008F7703C0809180008F7D80938000089528
:1012300080918000877FF9CF84B58F7702C084B515
:101240008F7D84BD0895809190008F7707C0809135
:1012500090008F7D03C080919000877F80939000E5
:1012600008958091C0008F7703C08091C0008F7D6A
:101270008093C00008958091C200877F8093C20050
:1012800008951F93CF93DF93282F30E0F901E9549D
:10129000FA4F8491F901E856FA4FD491F901E758D1
:1012A000FA4FC491CC23C9F0162F81110E94040972
:1012B000EC2FF0E0EE0FFF1FE15FFE4FA591B49120
:1012C0008FB7F894111105C09C91ED2FE095E9239B
:1012D00002C0EC91ED2BEC938FBFDF91CF911F916A
:1012E0000895CF93DF9390E0FC01E856FA4F2491E4
:1012F000FC01E758FA4F8491882361F190E0880F50
:10130000991FFC01EC50FF4FC591D491FC01E15FA6
:10131000FE4FA591B491611109C09FB7F8948881DF
:10132000209582238883EC912E230BC0623061F4D8
:101330009FB7F8943881822F809583238883EC911E
:101340002E2B2C939FBF06C08FB7F894E8812E2BCD
:1013500028838FBFDF91CF9108953FB7F894809194
:101360005A0690915B06A0915C06B0915D0626B589
:10137000A89B05C02F3F19F00196A11DB11D3FBFCD
:10138000BA2FA92F982F8827820F911DA11DB11D5B
:10139000BC01CD0142E0660F771F881F991F4A9557
:1013A000D1F708958F929F92AF92BF92CF92DF9222
:1013B000EF92FF926B017C010E94AD094B015C0131
:1013C000C114D104E104F104F1F00E94AD09DC0183
:1013D000CB0188199909AA09BB09883E9340A10548
:1013E000B10570F321E0C21AD108E108F10888EED6
:1013F000880E83E0981EA11CB11CC114D104E10425
:10140000F10419F7DDCFFF90EF90DF90CF90BF9000
:10141000AF909F908F9008951F920F920FB60F92EA
:1014200011242F933F938F939F93AF93BF938091FA
:10143000480690914906A0914A06B0914B0630911A
:10144000590623E0230F2D3720F40196A11DB11D6D
:1014500005C026E8230F0296A11DB11D2093590651
:101460008093480690934906A0934A06B0934B0692
:1014700080915A0690915B06A0915C06B0915D0642
:101480000196A11DB11D80935A0690935B06A0930F
:101490005C06B0935D06BF91AF919F918F913F9194
:1014A0002F910F900FBE0F901F90189550E0DA010A
:1014B000AA0FBB1FA80FB91F1F963C911F975096EC
:1014C0002C915097E32FF22FE60FF11DE60FF11D3F
:1014D0006591749190967C936E935F97FB01259133
:1014E0003491FC013481329F202D1124DC01A40FA2
:1014F000B51F91962C939197FB0185919491E92FBB
:10150000F0E0822F90E0E817F90720F4FB018591C5
:101510009491292F239F202D112492962C93089586
:1015200080914B04882319F080914C0401C080E025
:1015300090E090939900809398000895CF93DF9363
:10154000EC011F8A1D8A1CA21BA2188E10924C044B
:1015500010924D0410924B040E94900A8EEE94E07B
:101560009E878D871B8A1A8A81E0898389E08E8B0A
:10157000198E1B8E1D8EDF91CF910895FC01611194
:101580000DC0178A158A14A213A2108E10924C0453
:1015900010924D0410924B040C94900A08951F92DF
:1015A0000F920FB60F9211242F933F934F935F9397
:1015B0006F937F938F939F93AF93BF93EF93FF931B
:1015C00060914D04662321F1809158068F5F8093CE
:1015D000580690914E048917D8F090914B0481E001
:1015E000892780934B041092580680914F048823DA
:1015F00069F08091080193E4899F802D1124895B13
:10160000809308010E94902290934C040E94900ABB
:10161000FF91EF91BF91AF919F918F917F916F91CA
:101620005F914F913F912F910F900FBE0F901F90A0
:1016300018954F925F926F927F928F929F92AF9286
:10164000BF92CF92DF92EF92FF920F931F93CF93AF
:10165000DF93F901C49031965491EC010F85643504
:101660000CF018C140330CF015C10C2C000CDD0837
:10167000A62F062E000CBB0B7D01EC0CFD1C1E14CE
:101680001F040CF007C1A52E842E042E000C99080F
:10169000F401E50FF11D57FDFA951E161F060CF01B
:1016A000F9C02E5F3F4FE6012796D7FD279673E0DE
:1016B000D595C7957A95E1F747FF0AC0A52EA40EE8
:1016C000C89DA001C99D500D1124241B350B40E07D
:1016D000EA2D0A2C000CFF0BE40FF11D47FDFA95D3
:1016E000F1971CF050E3A52EA41A67FD60E0F70106
:1016F000E535F10514F0E4E5F0E07E2FFC01D4843B
:10170000D426862F062E000C990BFC01EA1BFB0B3E
:10171000DF017F01F7E0EF22FF24E0E8F0E002C004
:10172000F595E795EA94E2F71E2FB7FD179653E07B
:10173000B595A7955A95E1F72A0F3B1FE42FE7705F
:1017400051E001C0550FEA95EAF745954595459555
:10175000B4E54B02800D911D1124805B9B4FC12C81
:101760000A2C000CBB08992493942E015524EC2DCF
:10177000F0E0EA15FB050CF08DC0F9014491013051
:10178000E1F47C01A12F862E881AB82DBE0DB71763
:1017900008F077C0B42FBA2321F0E701B881B52B48
:1017A000B883B0E0B595A795109719F43196449198
:1017B000A0E8DFEFED1AFD0AE8CF01111FC0752E7A
:1017C00070947C01A12FF901862E881AB82DBE0DC8
:1017D000B71708F056C0B42FBA2321F0E701B8813B
:1017E000B721B883B0E0B595A795109719F4319655
:1017F0004491A0E8DFEFED1AFD0AE8CF033031F0A5
:101800007C01A12FF901862E881A37C0752E70949D
:10181000862E7C01A12FF9018716D8F4B42FBA23A4
:1018200059F0E701B881682C6D2460FE02C0B52B29
:1018300002C0B721E701B883B0E0B595A79510972E
:1018400019F431964491A0E88394DFEFED1AFD0A74
:10185000E3CFD92416C0B42FBA2321F0E701B88111
:10186000B527B883B0E0B595A795109719F43196D0
:101870004491A0E8DFEFED1AFD0AB82DBE0DB717B1
:1018800050F3550F19F48C5A9F4F51E0C394240D17
:10189000351D6DCFDF91CF911F910F91FF90EF908C
:1018A000DF90CF90BF90AF909F908F907F906F9080
:1018B0005F904F900895FC01643508F053C04033A9
:1018C00008F050C09785742F759575957595262FDE
:1018D000062E000C330B542F57709230A1F4F901EF
:1018E000E05BFB4F84E57802E00DF11D112480815F
:1018F00090E0052E02C0959587950A94E2F78095B1
:10190000982F91700AC0933041F4848581704627E6
:1019100040954170841303C014C0911112C084E536
:101920007802200D311D1124F901E05BFB4F81E0AD
:1019300090E001C0880F5A95EAF78095908189233D
:1019400010C084E57802200D311D1124F901E05BFF
:10195000FB4F81E090E001C0880F5A95EAF7908133
:10196000892B80830895DF92EF92FF920F931F934C
:10197000CF93DF931F92CDB7DEB78C01D62EF42E16
:10198000E12CE21654F46E2D6D0D4F2DC801298304
:101990000E945B0CE3942981F4CF0F90DF91CF91EB
:1019A0001F910F91FF90EF90DF9008952F923F923B
:1019B0004F925F926F927F928F929F92AF92BF925F
:1019C000CF92DF92EF92FF920F931F93CF93DF930B
:1019D000EC016A3019F428859E81C3C06D3009F48A
:1019E000C6C03E807A84D9844F8483E58D150CF47B
:1019F000A1C08FE287150CF49DC08F8190E0019704
:101A0000389E9001399E300D1124C9018D0D911D14
:101A1000D7FC9A95181619060CF08CC08885839D02
:101A2000C0011124870D911D77FC9A95181619068F
:101A30000CF080C05D2CCD2CE62EF12CA32C032CB9
:101A4000000CBB08EC2DED190E2E000CFF0B8F8146
:101A500090E0E817F9070CF06CC00197E817F90758
:101A600079F0E89E9001E99E300DF89E300D11242A
:101A7000E20FF31F8D859E85E80FF91F149101C0B9
:101A800010E0072D672C262D2719022E000C330B92
:101A9000888590E0281739070CF048C010FF1EC059
:101AA00081E0381206C0462D6C2DCE010E945B0CE1
:101AB00039C0202E4501800E911C07FD9A94822D7D
:101AC000022C000C990B8815990564F5232D422DE5
:101AD000652DCE010E94B30C2394F1CF88899F8598
:101AE000891701F18F8781E0381206C0462D6C2DD1
:101AF000CE010E945B0C15C0202E4501800E911C6A
:101B000007FD9A94822D022C000C990B88159905DB
:101B100044F4232D422D652DCE010E94B30C239455
:101B2000F1CF4F8616956394030DADCFC394530C3C
:101B300089CF4F862E813F818985329F800D112468
:101B400089879D81992399F0082E000C990B44E513
:101B500050E0239F401951091124481759073CF4BC
:101B600098858A85299F800D11248A87198681E0AE
:101B700090E0DF91CF911F910F91FF90EF90DF9058
:101B8000CF90BF90AF909F908F907F906F905F901D
:101B90004F903F902F900895DF92EF92FF920F9316
:101BA0001F93CF93DF931F92CDB7DEB78C01D62E54
:101BB000F42EE12CE21654F44E2D4F0D6D2DC8017C
:101BC00029830E945B0CE3942981F4CF0F90DF916D
:101BD000CF911F910F91FF90EF90DF9008958EBDF0
:101BE00000000DB407FEFDCF8EB50895FF920F9350
:101BF0001F93CF93DF93EB01F62E8C0194E0000F3F
:101C0000111F9A95E1F7F801E95EFE4F8485611195
:101C100009C0FB01FF27E058F94F85A38B3008F07E
:101C20008AE085A3F801E95EFE4F6081F11005C0EE
:101C300040E08FE896E00E94560AF801E95EFE4F08
:101C400080852285F1100CC0FE01FF27E659F94F6F
:101C500090919306929F902D112496AF819587AF16
:101C6000F801E95EFE4F24814681F1100FC0CE01DC
:101C700099278659994FFC017B9630919306349FA2
:101C8000302D112435A331962A5325A3F801E95E9E
:101C9000FE4F96858281F1101EC0DD27FE01E659B8
:101CA000F94F81AF80919306899F802D112482AFD7
:101CB000DF01959695961C92DE01AA0FBB1FA357D4
:101CC000B94F96961C921E92959781E084AFC55BA2
:101CD000DB4F888315AEDF91CF911F910F91FF905D
:101CE0000895FC018485958597FD0BC09FB7F894F6
:101CF00082E08093E9008091F2009FBF90E001961E
:101D000008959FB7F89482E08093E9008091F200F3
:101D10009FBF90E008954091620650916306209124
:101D200060063091610642175307B4F49091E800C1
:101D30009570E1F39091E80092FD19C08093F10055
:101D4000809162069091630601968F739927892B83
:101D500019F48EEF8093E8008091620690916306FB
:101D60000196909363068093620681E0089580E077
:101D70000895CF92DF92EF92FF920F931F93CF932C
:101D8000DF931F92CDB7DEB7182F062FE42E862FD4
:101D9000880F8E5F99830E948B0E83E00E948B0ECA
:101DA000F12EC12E9981D92E8C2D8F19801798F480
:101DB000F601E7FE02C0849101C080810E948B0E73
:101DC000182F80E00E948B0E8123FFEFCF1ADF0ACD
:101DD0008111EACF01C081E00F90DF91CF911F9177
:101DE0000F91FF90EF90DF90CF900895DF92EF92E8
:101DF000FF920F931F93CF93DF93D82E8A017B011D
:101E0000E40EF51EEB01CE15DF0571F0D7FE03C021
:101E1000FE01849101C088810E948B0E2196811160
:101E2000F2CF8FEF9FEF01C0C801DF91CF911F91DB
:101E30000F91FF90EF90DF900895615030F0209166
:101E4000F100FC0120830196F8CF289884E6809366
:101E5000490408950F931F93CF93DF931F92CDB73B
:101E6000DEB78C01FC018485958597FF0EC0CE01FD
:101E700001960E942208019719F4298130E002C0DE
:101E80002FEF3FEFF80135872487F801848595858A
:101E90000F90DF91CF911F910F9108950F931F9392
:101EA000CF93DF931F92CDB7DEB782E0898342E400
:101EB00050E066EF74E080E80E94F60E0E946A0827
:101EC000DC0112960D911C9113970115110569F013
:101ED000D801ED91FC910280F381E02DBE016F5F8E
:101EE0007F4FC801099597FF07C089810F90DF9147
:101EF000CF911F910F910895F80100851185E5CFCD
:101F00001F920F920FB60F9211248F939F9380917F
:101F1000E1009091E100937F9093E10083FF0FC077
:101F20001092E90091E09093EB001092EC0092E3A4
:101F30009093ED0010924A0498E09093F00082FF95
:101F400020C093E09093E9009091F200992319F05A
:101F50009AE39093E80090914704992339F0909187
:101F60004704915090934704992389F19091490433
:101F7000992339F090914904915090934904992301
:101F800041F184FF10C08091E2008E7E81608093D9
:101F9000E2008091E1008F7E8093E100809148040F
:101FA0008E7E806111C080FF16C08091E2008E7E1F
:101FB00080618093E2008091E1008E7E8093E10059
:101FC000809148048E7E81608093480404C05D9AAD
:101FD000CDCF289AD6CF9F918F910F900FBE0F90A3
:101FE0001F9018951F920F920FB60F921124CF9247
:101FF000DF92EF92FF920F931F932F933F934F9394
:102000005F936F937F938F939F93AF93BF93EF9360
:10201000FF93CF93DF93CDB7DEB76C97DEBFCDBF15
:102020001092E9008091E80083FFEDC168E0CE01E5
:1020300045960E941D0F82EF8093E8008D8987FFEF
:1020400005C09091E80090FFFCCF03C09EEF9093F5
:10205000E800982F907609F0C6C09E892F89188DC8
:1020600091110CC0803829F480915F068093F100B3
:1020700002C01092F1001092F10048C1422F50E0CE
:10208000512B913051F4811141C14130510509F07A
:102090003DC180915F068D7F0BC0933061F481114B
:1020A00035C14130510509F031C180915F06826030
:1020B00080935F062BC1953041F48091E80080FF4A
:1020C000FCCF20682093E30021C1963009F05FC067
:1020D000EB8CFC8C1092E900109263061092620661
:1020E000123091F510926106109260060E944E0F18
:1020F00099E0BE016F5F7F4FDB01E92F1D92EA95EA
:10210000E9F799831A8391E09E8390EA98879AEF82
:1021100099872091620630916306275F3F4F3C8389
:102120002B838D831092E900109263061092620651
:10213000F0926106E092600649E050E080E00E9483
:10214000F60E0E944E0FE2C0F0926106E092600629
:102150000E946A08DC011296ED90FC901397E1143E
:10216000F10409F4C0C0D701ED91FC910480F58120
:10217000E02DBE016B5E7F4FC7010995009719F0F6
:102180000CF0C4C0C7C0F701E084F184E8CF9730F9
:1021900009F4C0C0983021F481E08093F100B6C00A
:1021A000993009F0B3C0837009F0B4C0E8E9F1E0F8
:1021B00081E021E036E39081992361F08093E9008A
:1021C0002093EB0091919093EC003093ED008F5FA2
:1021D000873089F78EE78093EA001092EA008F89B2
:1021E00080934A0493C08B8D9C8D1092E9001092CD
:1021F0006306109262069093610680936006898D53
:10220000811156C08E899D89913A59F4813209F025
:1022100081C047E050E060E071E080E00E94F60E8F
:1022200075C0913209F076C0833289F4888D90E0D0
:10223000982F88272F89822BA0E0B0E08093090196
:1022400090930A01A0930B01B0930C015FC0803200
:1022500069F48091E80082FFFCCF67E080E091E0C4
:102260000E941D0F8BEF8093E80006C0823209F0B8
:102270004DC08F898093070180915E06882319F0F5
:10228000EEEFFAE002C0E0E0F8E08091000190910A
:102290000101A0910201B0910301803B9440A1058E
:1022A000B10509F07BC08091070180FF93C076C023
:1022B0000E946A08DC0112960D911C91139701157A
:1022C000110541F1D801ED91FC910190F081E02DD3
:1022D000BE016B5E7F4FC8010995811117C0F801DF
:1022E00000851185ECCF113009F44EC0133091F404
:1022F0008F89882309F445C0823081F440E860E189
:102300008AE595E00E94B90E882321F08EEF809334
:10231000E80079C081E28093EB0075C0813029F438
:1023200040E86BE08EE495E0EDCF833099F70E94B2
:102330006A08DC011296ED90FC9013978E010F5FF6
:102340001F4F6801E114F10479F0D701ED91FC9180
:102350000680F781E02DB801C7010995080F111D0E
:10236000F701E084F184EECFD8011C92F6010190D0
:102370000020E9F73197BF016C197D0940E0C601E3
:10238000C1CF68E375E002C06CE375E061157105CB
:1023900009F2FB01449150E080E840CF0FB6F89479
:1023A000A895809160008861809360001092600021
:1023B0000FBEA895EE3F2AE0F20739F08091FE0AA1
:1023C0009091FF0A91838083A1CF1092FF0A10920F
:1023D000FE0A9CCFEE3F8AE0F80731F080819181C0
:1023E0009093FF0A8093FE0A87E797E791838083A3
:1023F0009BE088E10FB6F894A895809360000FBE2B
:102400009093600083CF6C960FB6F894DEBF0FBE3A
:10241000CDBFDF91CF91FF91EF91BF91AF919F9190
:102420008F917F916F915F914F913F912F911F916C
:102430000F91FF90EF90DF90CF900F900FBE0F9015
:102440001F9018958F929F92AF92BF92CF92DF927A
:10245000EF92FF920F931F93CF93DF93CDB7DEB729
:10246000A1970FB6F894DEBF0FBECDBF6C01990FD8
:10247000EE08FF08F7FE33C0E091B806F091B90608
:102480000190F081E02D6DE288EB96E009958C01DA
:1024900022273327A9012C193D094E095F0919A2EA
:1024A000CE0181967C019AE0892E912CA12CB12C31
:1024B000CA01B901A50194010E945F22605DF70184
:1024C00062937F01211531054105510589F7BF014F
:1024D00088EB96E00E94EF08800F911F1FC0A701B4
:1024E000960119A28E010F5D1F4F8AE0C82ED12CD4
:1024F000E12CF12CCA01B901A70196010E945F22CB
:10250000605DF80162938F01211531054105510588
:1025100089F7BF0188EB96E00E94EF08A1960FB6FD
:10252000F894DEBF0FBECDBFDF91CF911F910F9109
:10253000FF90EF90DF90CF90BF90AF909F908F90E3
:102540000895009771F0FC0101900020E9F73197A0
:10255000AF01481B590BBC0184E696E00E94AF080E
:1025600014C08091640690916506009711F00E9456
:10257000022110926506109264061092690610926C
:102580006806109267061092660684E696E0089543
:10259000AF92BF92CF92DF92EF92FF920F931F9371
:1025A000CF93DF93C82ED12CE601C659D94F9DA1F8
:1025B000992309F44FC07E019FEFE91AF90AF70148
:1025C00095A1911147C09EA58601000F111F0659C4
:1025D000194FF80134A525A5E32FF22FE90FF11DBE
:1025E000E90FF11D259134912F3FFFEF3F0711F4C3
:1025F0001DA230C039ABF601EE0FFF1FEC58F94FAA
:102600003327220F331F05A0F6A1E02DE20FF31FA1
:10261000A590B49081111AC060E08FE896E00E9406
:10262000BE0AF801B3AAA2AAF601EE0FFF1FE458F2
:10263000F94F16A215A281E0F70185A389E08BAFBF
:102640001EAEFE017B9615A2329615A229968DA18B
:102650008F5F8DA3DF91CF911F910F91FF90EF902E
:10266000DF90CF90BF90AF9008950F931F93CF93BB
:10267000DF938C01C0E0D0E0F801EC0FFD1F649106
:10268000662371F0E091B806F091B9060190F081EF
:10269000E02D88EB96E00995892B11F02196ECCF7F
:1026A000CE01DF91CF911F910F910895AF92BF920C
:1026B000CF92DF92EF92FF920F931F93CF93DF930E
:1026C000182F062FC1E0D3E08AEFD82E9EEFE92E17
:1026D000842F8470C82E842F8270B82E842F887027
:1026E000A82E4170F42E8C2F880F8F5FE80ECC201F
:1026F00081F04D2F400F6C2F610F88EB96E00E9408
:102700005B0C4C2F400F6D2F610F88EB96E00E9401
:102710005B0CBB2081F0402F4D1B6C2F610F88EBB1
:1027200096E00E945B0C402F4C1B6D2F610F88EBD5
:1027300096E00E945B0CAA2081F04C2F400F612F85
:102740006D1B88EB96E00E945B0C4D2F400F612FB4
:102750006C1B88EB96E00E945B0CFF2081F0402F01
:102760004C1B612F6D1B88EB96E00E945B0C402F89
:102770004D1B612F6C1B88EB96E00E945B0CCD1704
:1027800044F4E7FC04C0D150D394D394ED0CCF5F54
:10279000AACFDF91CF911F910F91FF90EF90DF9023
:1027A000CF90BF90AF9008959F92AF92BF92CF927B
:1027B000DF92EF92FF920F931F93CF93DF93F82E48
:1027C000E62EB22E03E0020FD0E0C3E08AEFC82E5F
:1027D0001EEF842F8170982EAA24A394A20E42701B
:1027E000D42EDF5F802F8B19180F9920A1F02C2F8A
:1027F000220F2A0D4E2D4C1B6D2F6F0D88EB96E08E
:102800000E94CC0D202F4E2D4D1B6C2F6F0D88EB91
:1028100096E00E94CC0DDD20A1F02C2F220F2A0D76
:102820004E2D4C1B6F2D6D1B88EB96E00E94CC0D3E
:10283000202F4E2D4D1B6F2D6C1B88EB96E00E94B8
:10284000CC0DDC1744F417FD04C0C150C394C394ED
:102850001C0D0E5FC6CFDF91CF911F910F91FF909E
:10286000EF90DF90CF90BF90AF909F900895CF935F
:10287000DF93E9ECF6E0C081D1819881ADECB6E060
:102880008C91892B8883C091CB06D091CC069881FE
:102890008091CE068095892388830190F081E02D78
:1028A00090818C91809589238083DF91CF910895C9
:1028B000CF92DF92EF92FF920F931F93CF93DF930C
:1028C000C4E7D6E00BE716E0FF24FA9496E0E92E81
:1028D000E00E62E088810E947109288130E0F901F0
:1028E000E954FA4F8491F901E856FA4FC490F9017E
:1028F000E758FA4FD490DD2071F081110E9404094D
:10290000ED2DF0E0EE0FFF1FE559FA4FA591B491C0
:10291000EC91EC2131F5F80180818F5F808360E0DC
:1029200088810E94710921960F5F1F4FE012D1CF5D
:1029300090917B069150809181069E3F38F4909152
:102940007D0691509E3F10F48F5F08C08823A1F050
:102950008F3F19F4109281060FC08FEF809381068C
:102960000BC0F80180818823F1F2F8018F3F11F448
:102970001082D5CFF082D3CFDF91CF911F910F91ED
:10298000FF90EF90DF90CF900895CF93DF93CDB776
:10299000DEB728970FB6F894DEBF0FBECDBF789490
:1029A00084B5826084BD84B5816084BD85B5826054
:1029B00085BD85B5816085BD80916E008160809305
:1029C0006E0010928100809181008260809381006E
:1029D000809181008160809381008091800081607E
:1029E000809380008091910082608093910080911B
:1029F000910081608093910080919000816080932C
:102A000090008091C10084608093C1008091C100DA
:102A100082608093C1008091C10081608093C10079
:102A20008091C30081608093C3008091C000826068
:102A30008093C0008091C20081608093C200809129
:102A40007A00846080937A0080917A00826080931B
:102A50007A0080917A00816080937A0080917A0078
:102A6000806880937A0010924A0410925F06109258
:102A700048048091D70081608093D70080EA8093DA
:102A8000D80089B5806189BD89B5826089BD09B4E6
:102A900000FEFDCF61E070E080E090E00E94D2098E
:102AA0008091D8008F7C80618093D8008091E00075
:102AB000807F8093E0008091E1008E7E8093E10032
:102AC0008DE08093E200559A209AEEEFFFE7859122
:102AD00094918B3F9C4D19F481E080935E0682E3D4
:102AE0008093DE0681E090E0A0E0B0E08093D7061E
:102AF0009093D806A093D906B093DA0611E010930C
:102B00009506109394068FEF8093DD0684E1809301
:102B1000740682E18093750683E18093760685E1F1
:102B20008093770687E08093780688E08093790623
:102B300010927A060E9458141093C7061092C80685
:102B40001093BD061093BE06EDE1F1E0E491EF5F56
:102B5000E093BF06EEE1F1E0E491EF5FE093C006A1
:102B60008FE191E09093C6068093C5061FB7F89455
:102B700080913A02811127C0EAE8F5E08491E9EA00
:102B8000F5E09491E82FF0E0EE0FFF1FEC50FF4FBF
:102B9000A591B491EC91E92321F461E081E10E94D7
:102BA000410961E081E10E9471098CB580618CBDB1
:102BB0008CB580648CBD61E08FE00E94710961E09A
:102BC00080E10E94710980913A028F5F80933A02FE
:102BD0001FBF8CB58C7F8CBD8DB581608DBD61E0D4
:102BE00084E00E94710961E08CE00E94710961E05B
:102BF00086E00E94710961E086E00E94410961E07F
:102C000070E080E090E00E94D20960E086E00E94DF
:102C100041096AE070E080E090E00E94D20961E042
:102C200086E00E944109E5E8F5E0E491F0E0EE0F6E
:102C3000FF1FE15FFE4F859194919093CA068093A8
:102C4000C906EDE7F5E0E491F0E0EE0FFF1FE15F6C
:102C5000FE4F859194919093CC068093CB06E4EA45
:102C6000F5E0E491E093CD06ECE9F5E0E491E09342
:102C7000CE060E943714B2E0EB2EB1E0FB2E1DE031
:102C80001E0DF70184910E94EF0DFFEFEF1AFF0A6E
:102C90001E11F7CFE091CB06F091CC069081809188
:102CA000CE06892B8083E091C906F091CA069081F7
:102CB0008091CD0680958923808300E014E080E038
:102CC0000E94EF0D01501109D1F781E08093930626
:102CD00084E08093B70680EF90E090939F06809306
:102CE0009E0640E060E08FE896E00E94560A61E0B0
:102CF00085E00E94710961E08DE00E94710961E048
:102D000085E00E947109ECEBF5E0E4918E2F90E0F4
:102D1000FC013197EF30F10508F07DC0EA5AFF4F12
:102D20000C94B02284B5806884BD81E087BD77C0F3
:102D300084B5806284BD81E088BD71C080918000CF
:102D400080688093800081E090E090938900809378
:102D5000880065C08091800080628093800081E05F
:102D600090E090938B0080938A0059C080918000FE
:102D700088608093800081E090E090938D00809344
:102D80008C004DC08091900080688093900081E01D
:102D900090E0909399008093980041C080919000BA
:102DA00080628093900081E090E090939B008093FC
:102DB0009A0035C08091900088608093900081E0F7
:102DC00090E090939D0080939C0029C08091C0006A
:102DD00080688093C0008091C0008F7B8093C0008A
:102DE00081E08093CF001BC08091C00080628093FF
:102DF000C00081E08093D00012C08091C200886042
:102E00008093C2008091C2008B7F8093C20081E0DA
:102E10008093D20004C060E085E00E944109809167
:102E20009100887F816080939100F89410928000D7
:102E300010928100109285001092840088E191E048
:102E400090938900809388008091810088608093AE
:102E500081008091810081608093810080916F006A
:102E6000826080936F00789480918006813019F49D
:102E7000109294061BC060E08FE896E00E94BE0AA4
:102E80008FE992E090939D0680939C061092A20693
:102E90001092A10681E08093900689E08093A506B8
:102EA0001092A8061092AA061092AC0681E28093B6
:102EB000DE0681E0809393068091DD06882321F071
:102EC0008DEA92E00E940707809164008E7F8093D4
:102ED000640087EC80937C0080E280937B0062E05A
:102EE00070E080E090E00E94D20980917A008064D6
:102EF00080937A0080917A0086FDFCCFE090780084
:102F0000F0907900E094F0948EE580937C0062E08C
:102F100070E080E090E00E94D20980917A008064A5
:102F200080937A0080917A0086FDFCCF0091780032
:102F3000109179000E94AD099B01AC01209530955C
:102F400040955095009510950E9DD0010F9DB00DA8
:102F50001E9DB00D11240E9415226B017C010E9460
:102F6000AD096C0D7D1D8E1D9F1D611571058105BF
:102F7000910511F00E94ED218091640081608093A1
:102F8000640088EC91E00E94A11210928206222433
:102F90002394312C0E94E203882311F40C941A200C
:102FA0008EEC91E00E940208882309F44AC0109236
:102FB0008E0210928D0283E090E090938C028093B9
:102FC0008B0210928A021092890288E290E090931C
:102FD0008802809387028FEF9FEF90938602809301
:102FE000850290938402809383029093820280935F
:102FF00081029093800280937F0290937802809365
:1030000077029093700280936F0290937A0280937C
:103010007902909372028093710290937C02809364
:103020007B02909374028093730290937E0280934C
:103030007D02909376028093750286ED91E00E9466
:10304000A11286ED91E00E940208882309F4D3C002
:1030500088E290E090936E0280936D0227E230E068
:1030600030936C0220936B0282E090E090936A02AE
:1030700080936902109268021092670210926602B1
:103080001092650290936402809363021092620230
:10309000109261021092600210925F028CE390E045
:1030A00090935E0280935D0280EF90E090935C02CB
:1030B00080935B020091890210918A020930110508
:1030C00024F49801220F331F02C020E130E08FE882
:1030D00092E04DEF52E05A834983A9EDB3E0BC83FF
:1030E000AB83EBE6F3E0FE83ED8360E070E0490143
:1030F000F6E08F0E911C39014CE0640E711C290121
:1031000052E1450E511C5901A8E1AA0EB11C42E042
:10311000E42EF12CAB01465F5F4FFC0151834083ED
:10312000518B408B51A340A351AB40AB6C01F0E4F9
:10313000CF0ED11CD6014D935C93E981FA81318386
:103140002083918A808A71A260A251AA40AAAF010D
:10315000405C5F4FDA01AD92BC9244E050E0EB81FD
:10316000FC8151834083F18AE08AF1A2E0A211AA96
:1031700010AAAF01405C5F4FDA011D921C92ED81F5
:10318000FE8111821082118A108A11A210A211AA46
:1031900010AAAF01405C5F4FDA011D921C92685F7C
:1031A0007F4F0296E981FA813296FA83E9834B8157
:1031B0005C814E5F5F4F5C834B83AD81BE81129615
:1031C000BE83AD836034710509F0A4CFE3E5F2E07E
:1031D0008FEF9FEF063011051CF41182108202C0A0
:1031E000918380833296B2E0EB35FB0799F78FED40
:1031F00091E00E94A1128FED91E00E9402088823C5
:1032000009F401C680917B0681508E3F98F480912D
:103210008702909188021816190664F420918102A1
:10322000309182022F3F3F4F29F4019790938802FB
:103230008093870280917D0681508E3F98F4809123
:103240008702909188028E34910564F42091810266
:10325000309182022F3F3F4F29F4019690938802CC
:103260008093870280918106813061F48091DD0630
:10327000882321F084E193E00E94070788EC91E025
:103280000E94A11280917F06813069F480918502AD
:1032900090918602019639F4809181029091820288
:1032A000019609F4D1C600918102109182020F3F6C
:1032B0004FEF140751F422E033E04CE260918702B3
:1032C00088EB96E00E94190B35C0809151029091D5
:1032D0005202019646E0489F9001499F300D11240B
:1032E0002E5F3C4F4CE26091870288EB96E00E9493
:1032F000190B0150110929F01093820200938102E9
:1033000019C08FEF9FEF909382028093810280918A
:103310008B0290918C02019790938C0280938B0288
:103320001092880210928702892B21F487EE91E097
:103330000E94A11280918502909186028F3F5FEFDB
:10334000950709F46DC0809083029090840262E03A
:10335000861A9108909284028092830212E0180DDE
:10336000D82C482F212F012E000C330B281931099E
:1033700087FC339537FF03C0319521953109EE2441
:10338000E394121613062CF0E12C982F412F182FDE
:1033900004C01D1534F0982DD82EBD2CD12E192F18
:1033A00001C0B82EAD2CA11A842F042E000C990B4D
:1033B0008B199109B7FC939597FF03C0919581955F
:1033C0009109F82E0A2DA7FE02C001E00A0D05950D
:1033D000B4161CF0CC24CA9411C0CC24C3940EC0E3
:1033E000EE2079F0412F6B2D88EB96E00E945B0C6C
:1033F0000F1907FF02C0BC0C0A0D1F5FD11684F71E
:1034000003C04B2D612FF0CF97FE0AC08FEF9FEFC7
:103410009093860280938502909384028093830226
:1034200080916D0290916E0218161906ECF03092A0
:103430004C0220924B0289ED93E09A838983BFE886
:10344000CB2EB2E0DB2E1DEFE12E12E0F12E0BE6CB
:1034500013E087E0B82E9AE0A92E26E0422E512CE8
:1034600066246A94762C2DC1109266021092650231
:1034700080916B0290916C020196883291052CF438
:1034800090936C0280936B021AC010926C0210929F
:103490006B02309266022092650280914F029091F9
:1034A0005002019664E070E00E949C2290935002CA
:1034B00080934F0261E070E004960E94F60D409107
:1034C0006B0250916C02FA01EE0FFF1FE752FC4FA6
:1034D00080819181019661F28091650290916602EE
:1034E000019709F58091610290916202892B59F050
:1034F00010926A021092690282E090E09093680252
:10350000809367020CC08091630290916402909353
:103510006A02809369021092680210926702109208
:10352000660210926502C0906902D0906A029A0108
:10353000220F331FF901E157FD4F008111810C0D5E
:103540001D1D11830083A0906702B0906802F901ED
:10355000E350FD4FE080F180EA0CFB1CF182E08239
:10356000B3E2EB16F104F4F08FEF9FEF9093540267
:103570008093530290935602809355029093580281
:103580008093570290935A0280935902E9E2EE1613
:10359000F10444F087EE91E02F8338870E94A11256
:1035A00038852F810C34110564F01C141D04C4F4FB
:1035B0008EEF9FEF909364028093630282E090E02D
:1035C0000BC00230110564F4D7FE0AC082E090E01F
:1035D00090936402809363029093620280936102ED
:1035E000AB2821F01092620210926102F901E559B4
:1035F000FC4F80819181019662E070E00E949C22E4
:1036000091838083F901E752FC4F80819181069775
:1036100069F48FEF9FEF9183808380916D02909189
:103620006E02019790936E0280936D0280915D020D
:1036300090915E02181619060CF4F9CE4091890299
:1036400050918A0280914D0290914E02481759077D
:103650000CF4EDCE843091050CF0E9CEF8E2EF16D3
:10366000F1040CF0E4CE66EF64039001659F300D29
:103670001124285D3F4F30935E0220935D02019636
:1036800090934E0280934D02E7E7F2E0AFE6B2E09E
:1036900080E090E00F5F1F4F009751F4208131814F
:1036A0002F3F3F4F39F4118300831196FC92EE9225
:1036B00081E090E03296129652E0EF37F50761F71D
:1036C000B6CEA981BA818D919C918F3FBFEF9B07A8
:1036D000F1F0F70180809180D8012D913C91820F0B
:1036E000931FB89E9001B99E300D1124215E3C4F6E
:1036F000482DF601608188EB96E00E94190BF5E0F9
:103700008F16910424F410924C0210924B02D601B1
:103710008D919D916D0190934A02809349029C0185
:103720002A5F3F4F3093480220934702F7014191AF
:1037300051917F015093460240934502BA016C5F5C
:103740007F4F7093440260934302A981BA812D9107
:103750003C912430310561F4FC013196F0934A022A
:10376000E09349020596909348028093470209C06E
:103770002F3FBFEF3B0709F444C02630310509F461
:1037800040C08091850290918602E0914902F091BB
:103790004A028E179F07ACF1E0914702F091480270
:1037A000E817F90774F18091830290918402FC017B
:1037B0003296E417F5072CF16817790714F1A29EE9
:1037C000C001A39E900D112420918D0230918E0294
:1037D000820F931F0A9690938E0280938D02E98147
:1037E000FA815182408270928602609285027092C4
:1037F00084026092830260E070E081E090E00E94C9
:10380000F60D29813A812E5F3F4F3A8329830E5F5F
:103810001F4F2952344009F054CF80915D0290919E
:103820005E02019790935E0280935D028091510247
:1038300090915202019662E070E00E949C22909367
:1038400052028093510207E712E0AFE6B2E0BC8378
:10385000AB8346E0489F9001499F300D1124F90148
:10386000EA50FD4F2F01EE24EA94FE2C5CE2652E17
:10387000712C6FE2862E912C7CE3A72EB12CD801FF
:103880006D917C916F3FBFEF7B0709F4EFC0EB8137
:10389000FC81408151814F5F5F4F51834083920192
:1038A00088EB96E00E94190B40914D0250914E0218
:1038B000E3E5F2E08BE090E09C01295F3F4F3A8323
:1038C0002983208131812F3F6FEF360759F1D801CD
:1038D0006D917C916B01BFEFCB1ADB0AC816D9063C
:1038E0000CF1A981BA81A617B707E4F0AB81BC81BE
:1038F0006D917C91645271096830710598F42F5F65
:103900003F4F253031051CF43183208302C0F18202
:10391000E082D801ED92FC92AB81BC81ED92FC92E9
:1039200041505109329642968335910529F65093BC
:103930004E0240934D0280918702909188029093AD
:103940004A02809349029C012A5F3F4F309348020C
:103950002093470270924602609245029092440280
:103960008092430240918102509182024F3F5F4F0B
:10397000E9F4F80140815181BA016F5F7F4F681708
:103980007907A4F0241735078CF0AB81BC818D91A9
:103990009C918997079750F4B0928202A09281027D
:1039A00062E070E082E090E00E94F60DF801208174
:1039B000318130934A0220934902B9016F5F7F4FF2
:1039C0007093480260934702AB81BC818D919C91BA
:1039D00011979093460280934502AC014D5F5F4F73
:1039E0005093440240934302E0918502F091860295
:1039F000E217F30734F16E177F071CF12091830261
:103A000030918402B9016E5F7F4F68177907CCF05F
:103A100042175307B4F0F0928602E0928502F092CA
:103A20008402E0928302F801F182E082ED92FC923E
:103A300080914D0290914E02019790934E02809397
:103A40004D02AB81BC818D919C911197C09774F010
:103A5000F801F182E082ED92FC9280914D0290910A
:103A60004E02019790934E0280934D020E5F1F4FBE
:103A70002B813C812E5F3F4F3C832B832757324065
:103A800009F0FDCE80916D0290916E02892BC9F4F0
:103A900080915F0290916002019690936002809302
:103AA0005F028A3591056CF08091890290918A02BB
:103AB000019690938A028093890286ED91E00E949C
:103AC000A11203E512E09BE0A92EB12CEE24EA94AA
:103AD000FE2C37E0D32EB0924A02A0924902950103
:103AE000295F3F4F309348022093470287E290E0DE
:103AF0009093460280934502ABE2B0E0B09344025B
:103B0000A0934302F801808191818F3FFFEF9F07CF
:103B100021F140918502509186024A155B05ECF037
:103B200024173507D4F02091830230918402255266
:103B300031092730310588F40196D80111969C93FC
:103B40008E93F0928602E0928502F0928402E092D7
:103B50008302059714F0ED92FC92F8018191919106
:103B60008F018F3FFFEF9F0769F0D89E9001D99E8C
:103B7000300D11242D523D4F47E26A2D88EB96E01F
:103B80000E94190B22E1A20EB11C33E5A316B10469
:103B900009F0A1CF80915B0290915C020197181609
:103BA00019062CF490935C0280935B0238C080EF7E
:103BB00090E090935C0280935B0200914B02109125
:103BC0004C020130110559F5E0907F02F09080021F
:103BD0004FEFE416F40619F51092800210927F025E
:103BE0000E94E82122E030E040E050E00E94F6210F
:103BF000672B682B692B49F4109242021092410204
:103C00001093400200933F020AC089E490E0909331
:103C1000420280934102F0924002E0923F02809182
:103C20007F0290918002892B09F06FC000914102C0
:103C30001091420280913F0290914002080F191F9B
:103C40001093420200934102C80101978834910504
:103C500030F08FEF9FEF9093800280937F02C80136
:103C600065E070E00E949C22892B31F460E070E0F6
:103C700083E090E00E94F60D10934A0200934902FF
:103C8000C8010A9690934802809347021092460218
:103C90001092450223E030E0309344022093430227
:103CA00020918502309186022017310774F1821726
:103CB00093075CF1809183029091840202960697AB
:103CC00020F580918D0290918E028C599F4F909398
:103CD0008E0280938D023092800220927F028FEFBD
:103CE0009FEF909386028093850290938402809345
:103CF00083028EE190E090933E0280933D0260E06B
:103D000070E081E090E00E94F60D00917F0210913A
:103D100080020F3F5FEF150721F18AE0809F90013D
:103D2000819F300D112421543D4F40E060914102AC
:103D300088EB96E00E94190B0130110591F48091F7
:103D40003D0290913E02019790933E0280933D0286
:103D50001816190634F08FEF9FEF9093800280932E
:103D60007F0280914B0290914C02019709F04BC069
:103D700080917F0290918002019609F044C00091E9
:103D80008B0210918C02023011059CF022E033E08E
:103D900040E060E088EB96E00E94190B02301105CC
:103DA00041F022E033E040E069E088EB96E00E94D9
:103DB000190B20918D0230918E022A3031052CF0A2
:103DC00098E22436310524F401C09AE280E001C073
:103DD00082E0981B283E83E0380714F480E001C09D
:103DE00082E0981B9093C1061092C206C9010E94FE
:103DF000221288E48093C1068091890290918A0200
:103E000001960E94221288EC91E00E940208882309
:103E100009F486C080918D0290918E0220913B0220
:103E200030913C022817390724F490933C02809388
:103E30003B021092C1061092C20660EF71E088EB5F
:103E400096E00E94EF0820918D0230918E022A3078
:103E500031052CF09CE02436310524F401C09EE0AD
:103E600080E001C082E0981B283EA3E03A0714F4EA
:103E700080E001C082E0981B9093C10686E08093A9
:103E8000C206C9010E94221220913B0230913C02DD
:103E90002A3031052CF090E42436310524F401C099
:103EA00092E480E001C082E0981B283EB3E03B072B
:103EB00014F480E001C082E0981B9093C10686E074
:103EC0008093C206C9010E9422122DE533E04DE025
:103ED0006AE088EB96E00E94190B1092C1068AE214
:103EE0008093C20664E072E088EB96E00E94EF08DF
:103EF00080917F06813041F48EEC91E00E94A11206
:103F00008FE896E00E949E0A80918106813041F4FC
:103F10008091DD06882321F088EB92E00E9407075C
:103F200087EE91E00E940208882309F483C009ED1E
:103F300013E0C12CD12C87E0F82EF80121913191AA
:103F40008F012F3FFFEF3F07D1F0F601E559FC4FFE
:103F500080819181820F931FF89E9001F99E300D10
:103F60001124215E3C4FF601E350FD4F4081F601E4
:103F7000E157FD4F608188EB96E00E94190B22E02B
:103F8000C20ED11C30E5C316D104B9F61092C70693
:103F90001092C80610E127E2412F66E188EB96E017
:103FA0000E94B30C1F5F1931B1F781E08093C706FF
:103FB0008093C80688E18093C10682E18093C2069F
:103FC00069E172E088EB96E00E94EF0827E240E1A9
:103FD00066E188EB96E00E94B30C27E248E166E1D7
:103FE00088EB96E00E94B30C29E040E166E188EBA3
:103FF00096E00E94CC0D29E040E16CE388EB96E06E
:104000000E94CC0D84E08093C1068AE28093C206B0
:1040100063E272E088EB96E00E94EF0880918006F0
:10402000813041F488EC91E00E94A1128FE896E083
:104030000E949E0A80E090E0892B11F40C94CA172C
:104040000E9400000C94CA17809187029091880208
:104050000396909386028093850289E290E0909384
:1040600084028093830260E070E080E090E00E9430
:10407000F60D19C980916406909165060C94022191
:10408000E6EEF6E01382128288EE93E0A0E0B0E064
:1040900084839583A683B78382EA91E091838083AA
:1040A0008FEF9FEF958784871092BB061092BA0618
:1040B00084EB91E09093B9068093B806E4E6F6E0CD
:1040C00011821082138212821582148240E050E025
:1040D00069E372E0CF010C94AF08CF93DF93823095
:1040E000910510F482E090E0E0913807F0913907F3
:1040F00020E030E0C0E0D0E0309711F14081518104
:1041000048175907C0F04817590761F48281938115
:10411000209719F09B838A832BC090933907809353
:10412000380726C02115310519F04217530718F436
:104130009A01BE01DF01EF010280F381E02DDCCFA7
:104140002115310509F1281B390B2430310590F474
:1041500012968D919C9113976115710521F0FB01C9
:104160009383828304C09093390780933807FD01BD
:10417000329644C0FD01E20FF31F819391932250C8
:1041800031092D933C933AC020913607309137077F
:10419000232B41F420910F01309110013093370708
:1041A0002093360720910D0130910E012115310524
:1041B00041F42DB73EB74091110150911201241BDB
:1041C000350BE0913607F0913707E217F307A0F4BB
:1041D0002E1B3F0B2817390778F0AC014E5F5F4F5D
:1041E0002417350748F04E0F5F1F50933707409351
:1041F00036078193919302C0E0E0F0E0CF01DF91B8
:10420000CF9108950F931F93CF93DF93009709F4F5
:104210008CC0FC01329713821282009138071091F2
:1042200039070115110581F420813181820F931F17
:1042300020913607309137072817390779F5F09321
:104240003707E093360771C0D80140E050E0AE1761
:10425000BF0750F412962D913C911397AD01211593
:10426000310509F1D901F3CF9D01DA0133832283AE
:1042700060817181860F971F8217930769F4EC01A3
:1042800028813981260F371F2E5F3F4F31832083CE
:104290008A819B8193838283452B29F4F09339078C
:1042A000E093380742C01396FC93EE931297ED010A
:1042B000499159919E01240F351FE217F30771F4BC
:1042C00080819181840F951F029611969C938E9305
:1042D0008281938113969C938E931297E0E0F0E095
:1042E000D80112968D919C911397009719F0F801BF
:1042F0008C01F6CF8D919C9198012E5F3F4F820FDC
:10430000931F20913607309137072817390769F432
:10431000309729F4109239071092380702C013829F
:1043200012821093370700933607DF91CF911F91C8
:104330000F9108958F929F92AF92BF92CF92DF928A
:10434000EF92FF92CF93DF93EC01688179818A81AC
:104350009B81611571058105910521F464E279ED78
:104360008BE597E02DE133EF41E050E00E94F6212C
:1043700049015A019B01AC01A7EAB1E40E94152250
:104380006B017C01ACEEB4EFA50194010E942322E5
:10439000DC01CB018C0D9D1DAE1DBF1DB7FF03C001
:1043A0000197A109B04888839983AA83BB83BC0184
:1043B000CD019F77DF91CF91FF90EF90DF90CF906D
:1043C000BF90AF909F908F9008950E949A2108957A
:1043D00083E191E00E949A21089560931301709304
:1043E000140180931501909316010895052E97FBF3
:1043F0001EF400940E940D2257FD07D00E945F22F8
:1044000007FC03D04EF40C940D2250954095309546
:1044100021953F4F4F4F5F4F089590958095709530
:1044200061957F4F8F4F9F4F08950E948122A59FD6
:10443000900DB49F900DA49F800D911D112408959F
:10444000B7FF0C9415220E941522821B930B08952E
:104450002F923F924F925F926F927F928F929F9294
:10446000AF92BF92CF92DF92EF92FF920F931F9382
:10447000CF93DF93CDB7DEB7CA1BDB0B0FB6F89433
:10448000DEBF0FBECDBF09942A88398848885F8473
:104490006E847D848C849B84AA84B984C884DF80E4
:1044A000EE80FD800C811B81AA81B981CE0FD11DC8
:1044B0000FB6F894DEBF0FBECDBFED010895A1E2A7
:1044C0001A2EAA1BBB1BFD010DC0AA1FBB1FEE1F8E
:1044D000FF1FA217B307E407F50720F0A21BB30BD9
:1044E000E40BF50B661F771F881F991F1A9469F755
:1044F00060957095809590959B01AC01BD01CF01B1
:104500000895A29FB001B39FC001A39F700D811DAC
:104510001124911DB29F700D811D1124911D0895CC
:10452000991B79E004C0991F961708F0961B881F05
:104530007A95C9F78095089597FB072E16F4009495
:1045400007D077FD09D00E94B62207FC05D03EF4C3
:10455000909581959F4F0895709561957F4F08952F
:10456000EE0FFF1F0590F491E02D0994AA1BBB1BD1
:1045700051E107C0AA1FBB1FA617B70710F0A61B63
:10458000B70B881F991F5A95A9F780959095BC0184
:10459000CD010895A0E0B0E0E0EDF2E20C942C2211
:1045A000EC01009721F4CB010E946D20B8C0FC0102
:1045B000E60FF71F9C0122503109E217F30708F4B8
:1045C000ACC0D9010D911C91119706171707B0F0D7
:1045D0000530110508F49FC0C80104978617970796
:1045E00008F499C002501109061B170B019311938F
:1045F0006D937C93CF010E9402218DC05B01A01AB4
:10460000B10A4C01800E911EA0913807B091390774
:1046100040E050E0E12CF12C109709F44AC0A815B5
:10462000B905D1F56D907C901197630182E0C80EB9
:10463000D11CCA14DB0480F1A3014A195B096A0189
:1046400082E0C80ED11C1296BC9012971396AC91C2
:10465000B5E0CB16D10440F0B282A38351834083EE
:10466000D9016D937C930AC00E5F1F4FC301800F69
:10467000911FF90191838083EB2DFA2FE114F1044E
:1046800031F0D7011396FC93EE93129744C0F09348
:104690003907E09338073FC08D919C9111974817D7
:1046A000590708F4AC017D0112960D90BC91A02D24
:1046B000B3CF809136079091370788159905E1F4BB
:1046C00046175707C8F480910D0190910E0100978D
:1046D00041F48DB79EB74091110150911201841B96
:1046E000950BE817F907C8F4F0933707E0933607FE
:1046F000F901718360830FC0CB010E946D207C01A2
:10470000009759F0A801BE010E949923CE010E9492
:104710000221C70104C0CE0102C080E090E0CDB705
:10472000DEB7EEE00C94482281E090E0F8940C941F
:10473000B223FB01DC0102C001900D9241505040B8
:10474000D8F70895FB01DC018D91019080190110CB
:10475000D9F3990B0895FB01DC0101900D92002023
:10476000E1F7089512E0CCEED2E004C0FE010E9411
:0E477000B0222196CD3ED107C9F7F894FFCFB5
:10477E0000E100000000000001FFFFFFFF00003A13
:10478E00078000010000000100390039000100011E
:10479E0000010005000600000000004400010000BA
:1047AE000000000700040001000F003900010001A5
:1047BE0000020007000F0000000A003C000100008C
:1047CE0000000007000600000005003A000000018E
:1047DE0000050005000200000004003A0000000180
:1047EE0000050005000200000002003A0000000172
:1047FE0000050005000200000001003A0000000163
:10480E000005000500020000C180810000000000CC
:10481E00000028035D0349033E03710E4C082A0F66
:10482E0000000000D60C7E08AA08A90800000000AF
:10483E00AD087E08AA08A9087469746C65006E65D7
:10484E007767616D65006E65776C6576656C007275
:10485E00756E6E696E670067616D656F7665720065
:10486E0020204C415354202020202020202020485E
:10487E004947480020413A20504C415920202020E1
:10488E0020433A20515549540047414D45204F563B
:10489E004552005052455353204220544F20434F0F
:0A48AE004E54494E5545000D0A0016
:00000001FF
