:100000000C945D050C9485050C9485050C94850570
:100010000C9485050C9485050C9485050C94850538
:100020000C9485050C9485050C9483120C94F512A0
:100030000C9485050C9485050C9485050C94850518
:100040000C9485050C94B3080C9485050C948505D7
:100050000C9485050C9485050C9485050C94630718
:100060000C9485050C9485050C9485050C948505E8
:100070000C9485050C9485050C9485050C948505D8
:100080000C9485050C9485050C9485050C948505C8
:100090000C9485050C9485050C9485050C948505B8
:1000A0000C9485050C9485050C948505EF18F518BE
:1000B000FB18071913196819681968191F192B19E2
:1000C00037194319511968195A19730676066506C6
:1000D00069066F069706970697067A067E068206D9
:1000E00088068C06970692060101FF030101F703BB
:1000F000EC00E80000000000240027002A002D008A
:100100003000D5F08D14A1C881CFD9F1AF20000007
:10011000000000250028002B002E00310003053FC1
:10012000213F1208120A100A0E1C0E0C1E0C141A83
:1001300014161F161E131E1E1B1E1E1F1E3F213FC0
:100140003A2F3A173D173F213F181F02040A041F98
:100150000E04040E1F0A1F0A0E0E1F04110E2E2578
:100160002E2F2A2E262929021F02081F08150E04E9
:10017000040E150E15151B151B040604040C0400B3
:1001800000000017000300031F0A1F16371A190486
:10019000130A153A000300000E11110E000A040A9A
:1001A000040E040030000404040010001804031FAF
:1001B000111F121F101D151711151F07041F1715EA
:1001C0001D1F151D01011F1F151F17151F000A00F8
:1001D000003200040A110A0A0A110A040115020E6B
:1001E00011171E051E1F150A0E110A1F110E1F15CD
:1001F000111F05010E111D1F041F111F1108100FE3
:100200001F041B1F10101F061F1E040F0E110E1FB0
:1002100009060E112E1F051A121509011F011F10C4
:100220001F0F180F1F0C1F1B041B031C0319151392
:10023000001F11030418111F0002010220202000DA
:1002400001020C121E1F120C0C12120C121F0C1A9F
:1002500014041E05242A1E1F021C141D1020201D1C
:100260001F0814111F101E041E1E021C0C120C3E2F
:100270000A040C123E1E040214160A020F120E107B
:100280001E0E100E1E081E120C1226281E322A26C2
:10029000041E21001F00211E040102013F213F0511
:1002A00000893008023802497868140000202020B4
:1002B00020596F6461277300596F646127730005CB
:1002C0000570F858F8A8050570F858F8500505703D
:1002D000F8D0F8A8050570F8D0F850050570A8F812
:1002E000F8A8050570A8F8F850050570F8A8F8A852
:1002F000050570F8A8F850050570F8F8F8A8050588
:100300000000000000050500505000000505000039
:1003100000000020202020596F646127730016051B
:10032000EE4CA4A8EAACCEAAE8A8EA40AEAC4805D8
:100330000570F8C0F870050570F8F8F870050570DC
:10034000F8C0F870050570E0C0E070050570F8D8D9
:10035000D850050570F8F8F870050570F8D8D85031
:10036000050570F8D88800050570F818F8700505BF
:1003700070F8F8F870050570F818F8700505703811
:10038000183870050550D8D8F870050570F8F8F8D9
:1003900070050550D8D8F87005050088D8F87005A4
:1003A00005000088F8700505000020707005050044
:1003B000000020200505885000508805053848D0E9
:1003C000F858050570B0E8702005051870F8D87069
:1003D000050550F8F8E8500505F870B8E87005050F
:1003E000A8F8D8702005052050B8B870050570F839
:1003F0005050705463000000000000000000000036
:1004000000000000000000000000007FFFFFFFFF71
:10041000FFFFFFFFFFE08000000000000000000081
:10042000103FFFFFFFFF0FFFFFFFFFC04000000076
:10043000009000000000204000000000900000003C
:10044000002040000000009000000000204000005C
:10045000000090000000002040000000009000001C
:1004600000002040FF01FFC0903FF80FF020410046
:10047000820020904004100820410082002090401B
:100480000410082041008200209040041008204100
:10049000008200209040041008204100820020903B
:1004A000400410082040FF01FFC0603FF80FF0201B
:1004B000400000000000000000002040000000009C
:1004C00000000000002040000000000000000000CC
:1004D000204000000000000000000020400000005C
:1004E0000000000000002040FF0180FFFFF0180F17
:1004F000F0204100824100000824100820410082C1
:10050000410000082410082040FF0240FF0FF024A3
:100510000FF0204000024000900024000020400026
:1005200002400090002400002040000240009000A3
:1005300024000020400002400090002400002040E1
:10054000000240009000240000203FFF023FC090C6
:100550003FC40FFFC08000820020904004100010B4
:100560007FFE82002090400417FFE00002823FC01F
:10057000603FC41400000002824000000024140008
:1005800000000282400000002414000000028240AB
:100590000000002414000000028240000000241427
:1005A00000000002824000000024140000000282CB
:1005B00041FC03F824140000FFFE824105FA0824E0
:1005C00017FFF0000082417C03E824100000FFFFC9
:1005D0000181400028180FFFF000000001400028B2
:1005E00000000000000000014000280000000000A2
:1005F0000000014000280000000000000001400051
:100600002800000000000000014000280000000059
:10061000FFFF0181400028180FFFF0000082417F9A
:10062000FFE824100000FFFE82410000082417FFAD
:10063000F000028241FFFFF8241400000002824013
:100640000000002414000000028240000000241476
:10065000000000028240000000241400000002821A
:10066000400000002414000000028240000000242A
:1006700014000000028240FFFFF0241400007FFEFF
:1006800082410000082417FFE0800082410000083A
:10069000241000103FFF0180FF0FF0180FFFC04033
:1006A00000000000900000000020400000000090CA
:1006B000000000002040000000009000000000202A
:1006C00040000000009000000000204000000000FA
:1006D00090000000002040FF01FFC0903FF80FF0A5
:1006E0002041008200209040041008204100820038
:1006F0002090400410082040FC81FFC0603FF813A8
:10070000F02040048000000000001200204004801F
:1007100000000000001200204004800000000000E3
:10072000120020400480000000000012002040045D
:100730008000000000001200203E048180FFFFF0D6
:10074000181207C0010482410000082412080001A9
:10075000048241000008241208003E030240FF0FFB
:10076000F0240C07C040000240009000240000204C
:1007700040000240009000240000204000024000A1
:10078000900024000020400002400090002400005F
:1007900020400002400090002400002040FFFC3F69
:1007A000C0903FC3FFF020410000002090400000B7
:1007B0000820410000002090400000082040FFFF7A
:1007C000FFC0603FFFFFF02040000000000000007D
:1007D0000000204000000000000000000020400059
:1007E00000000000000000002040000000000000A9
:1007F0000000002040000000000000000000203F3A
:10080000FFFFFFFFFFFFFFFFFFC0800000000000B1
:1008100000000000107FFFFFFFFFFFFFFFFFFFE072
:1008200000000000000000000000000000000000C8
:1008300000000000000005003801680100004500CC
:1008400068010000401AFFFFFFFFFFFFFFFF0000ED
:10085000000000000000FF0403E10040810FFF845E
:1008600007F180C0818FFF8E0FF9C1C1C1CFF7CED4
:100870000FF9E3C1C1EFFFDF1FFDF7C3E1FFFF5F2A
:100880001FFDFFC3E1FFFE9F1FF5FF43E1FDE1BF39
:100890009F75FF47F1FDEF3B9FF5FF4771FDE87F37
:1008A0005FF5FF4FE9FDE87F5FF5FF4FE9FDE87F6A
:1008B0005FF5FF4FE9FDE8FFAFE9FF5FF5FDE8FFFA
:1008C000AFD1FF5FF5FDC8FF2629FE5FE5F9F8FF10
:1008D000E3DDFFDFFDFF0000000000000000FFFF80
:1008E000FFFFFFFFFFFF0000000000000000A6C6A2
:1008F0006AECE66E66CEAAAA8A4A8AAA8AA8AAAE34
:10090000EA4ACAEC8EAC4AAA2A4A8AAA8AA84ECADD
:10091000E4ECEEAAEACE175344001613780016133F
:1009200014001510200015201000540A03E18186E0
:100930007F3E186D830F0F0E0183866033186DC3E1
:10094000198F1803C38E6033186DE330CF1803C3BB
:100950009E603630CDE360CF3006C79E7E3E30CD00
:10096000B360CF300CC6F6603330D9B660CF33CF2A
:10097000CCF66061B0DB1E60CF30D86CE6C061B0F1
:10098000DB1E618F19986CC6C063B19B0E330F0FCD
:10099000B078C6FF7E1F1B061E0FF6E8DBCFC3B87C
:1009A000AEA49B928A827B746E68625C57524E49F9
:1009B00045413E3A3734312E2C29272523211F1D4E
:1009C0001C1A1917161514131211100F0E0D0C0BFB
:1009D0000A09080706080B000202020100090400C8
:1009E000000102020000052400100105240101019C
:1009F00004240206052406000107058103100040B7
:100A000009040100020A000000070502024000007C
:100A1000070583024000000403090412010002EFED
:100A2000020140412336800001010203014172644A
:100A300075696E6F204C4C430041726475696E6F2E
:100A4000204C656F6E6172646F000000000023002F
:100A5000260029002C002F000404040404030405CC
:100A6000020202020403020202020606060606064B
:100A70000404020202040404080201104080401031
:100A800020408040800802040180402010020110B4
:100A90008010204040200000000200090F000003E9
:100AA0000401000C00000000000000000000000035
:100AB0000000000000008E25822511241FBECFEF0C
:100AC000DAE0DEBFCDBF13E0A0E0B1E0EEE7F4E591
:100AD00002C005900D92A038B107D9F727E0A0E831
:100AE000B3E001C01D92AE38B207E1F715E0CCE5E6
:100AF000D5E004C02197FE010E943029CB35D107F3
:100B0000C9F70E9422170C94322A0C940000CF924D
:100B1000DF92EF92FF920F931F93CF93DF936C01BD
:100B20007A018B01C0E0D0E0CE15DF0589F0D80155
:100B30006D918D01D601ED91FC910190F081E02D38
:100B4000C6010995892B11F47E0102C02196ECCFD4
:100B5000C701DF91CF911F910F91FF90EF90DF9030
:100B6000CF90089580919F04882319F08091A0046C
:100B700001C080E090E090939900809398000895E0
:100B8000089580E090E008950E94142AFC012481D9
:100B90003581232B31F421E061157105A1F0FB01B2
:100BA00008C0FC01808191816115710531F421E05B
:100BB000FC018081882339F005C00E94222A21E0AF
:100BC000892B09F020E0822F0895EF92FF920F9376
:100BD0001F93CF93DF93EC017B018A018881998178
:100BE000009729F02A813B8124173507F8F4B801D2
:100BF0006F5F7F4F0E944A29009759F0998388833D
:100C00001B830A832C813D81232B81F4FC011082FC
:100C10000DC088819981009711F00E945F2619828A
:100C200018821D821C821B821A8207C01D830C83BE
:100C3000B701888199810E942B2ACE01DF91CF9143
:100C40001F910F91FF90EF900895CF93DF93EC01E8
:100C50006115710559F0FB0101900020E9F731970A
:100C6000AF01461B570B0E94E5050CC08881998196
:100C7000009711F00E945F26198218821D821C8243
:100C80001B821A82CE01DF91CF9108956115710503
:100C900079F0FB0101900020E9F73197AF01461B85
:100CA000570BDC01ED91FC910280F381E02D09945A
:100CB00080E090E0089590E0FC013197EF30F1057D
:100CC000B0F5EB59FF4F0C943029809180008F775D
:100CD00003C0809180008F7D809380000895809173
:100CE0008000877FF9CF84B58F7702C084B58F7D70
:100CF00084BD0895809190008F7707C08091900007
:100D00008F7D03C080919000877F8093900008952D
:100D10008091C0008F7703C08091C0008F7D809349
:100D2000C00008958091C200877F8093C20008951B
:100D30001F93CF93DF93282F30E0F901EA56F54F48
:100D40008491F901E958F54FD491F901E85AF54F2A
:100D5000C491CC23C9F0162F81110E945B06EC2FA1
:100D6000F0E0EE0FFF1FE15FFE4FA591B4918FB74A
:100D7000F894111105C09C91ED2FE095E92302C074
:100D8000EC91ED2BEC938FBFDF91CF911F910895E4
:100D9000CF93DF9390E0FC01E958F54F2491FC01DB
:100DA000E85AF54F8491882361F190E0880F991FEC
:100DB000FC01EC50FF4FC591D491FC01E15FFE4F67
:100DC000A591B491611109C09FB7F89488812095CD
:100DD00082238883EC912E230BC0623061F49FB78D
:100DE000F8943881822F809583238883EC912E2B71
:100DF0002C939FBF06C08FB7F894E8812E2B2883D1
:100E00008FBFDF91CF9108953FB7F89480919704F9
:100E100090919804A0919904B0919A0426B5A89B4A
:100E200005C02F3F19F00196A11DB11D3FBFBA2F7C
:100E3000A92F982F8827820F911DA11DB11DBC01DC
:100E4000CD0142E0660F771F881F991F4A95D1F7A1
:100E500008958F929F92AF92BF92CF92DF92EF92BE
:100E6000FF926B017C010E9404074B015C01C114DD
:100E7000D104E104F104F1F00E940407DC01CB018C
:100E800088199909AA09BB09883E9340A105B105B3
:100E900070F321E0C21AD108E108F10888EE880E4B
:100EA00083E0981EA11CB11CC114D104E104F1041B
:100EB00019F7DDCFFF90EF90DF90CF90BF90AF900C
:100EC0009F908F9008951F920F920FB60F9211244A
:100ED0002F933F938F939F93AF93BF9380919C06E3
:100EE00090919D06A0919E06B0919F063091960428
:100EF00023E0230F2D3720F40196A11DB11D05C05D
:100F000026E8230F0296A11DB11D2093960480931D
:100F10009C0690939D06A0939E06B0939F06809199
:100F2000970490919804A0919904B0919A04019625
:100F3000A11DB11D8093970490939804A0939904E8
:100F4000B0939A04BF91AF919F918F913F912F9150
:100F50000F900FBE0F901F90189550E0DA01AA0F66
:100F6000BB1FA80FB91F1F963C911F9750962C913D
:100F70005097E32FF22FE60FF11DE60FF11D65915B
:100F8000749190967C936E935F97FB0125913491B9
:100F9000FC013481329F202D1124DC01A40FB51FE8
:100FA00091962C939197FB0185919491E92FF0E014
:100FB000822F90E0E817F90720F4FB0185919491C6
:100FC000292F239F202D112492962C930895FF9270
:100FD0000F931F93CF93DF93EB01F62E8C0194E0D8
:100FE000000F111F9A95E1F7F801E95BFD4F848529
:100FF000611109C0FB01FF27EC52F94F85A38B302B
:1010000008F08AE085A3F801E95BFD4F6081F110EB
:1010100005C040E083EE96E00E94AD07F801E95B71
:10102000FD4F80852285F1100CC0FE01FF27E254A0
:10103000F94F9091E706929F902D112496AF8195DC
:1010400087AFF801E95BFD4F24814681F1100FC0A5
:10105000CE0199278254994FFC017B963091E70687
:10106000349F302D112435A331962A5325A3F8013E
:10107000E95BFD4F96858281F1101EC0DD27FE01E0
:10108000E254F94F81AF8091E706899F802D1124AA
:1010900082AFDF01959695961C92DE01AA0FBB1FC9
:1010A000AF51B94F96961C921E92959781E084AFEE
:1010B000C156DB4F888315AEDF91CF911F910F9101
:1010C000FF900895CF93DF93EC011F8A1D8A1CA225
:1010D0001BA2188E1092A0041092A10410929F04DB
:1010E0000E94B2058EE398E09E878D871B8A1A8A3C
:1010F00081E0898389E08E8B198E1B8E1D8EDF9196
:10110000CF910895FC0161110DC0178A158A14A2B0
:1011100013A2108E1092A0041092A10410929F04AA
:101120000C94B2050895CF93DF93EC011F8A1D8ABA
:101130001CA21BA2188E1092A0041092A10410925F
:101140009F040E94B20586E398E09E878D871B8AE4
:101150001A8A81E0898389E08E8B198E1B8E1D8E01
:10116000DF91CF9108951F920F920FB60F92112425
:101170002F933F934F935F936F937F938F939F939F
:10118000AF93BF93EF93FF936091A104662321F186
:10119000809195048F5F809395049091A2048917A4
:1011A000D8F090919F0481E0892780939F0410924A
:1011B00095048091A304882369F08091000193E451
:1011C000899F802D1124895B809300010E94102942
:1011D0009093A0040E94B205FF91EF91BF91AF914F
:1011E0009F918F917F916F915F914F913F912F913F
:1011F0000F900FBE0F901F9018954F925F926F92B5
:101200007F928F929F92AF92BF92CF92DF92EF9296
:10121000FF920F931F93CF93DF93F901C490319600
:101220005491EC010F8564350CF018C140330CF07B
:1012300015C10C2C000CDD08A62F062E000CBB0BD4
:101240007D01EC0CFD1C1E141F040CF007C1A52E23
:10125000842E042E000C9908F401E50FF11D57FDB2
:10126000FA951E161F060CF0F9C02E5F3F4FE601DF
:101270002796D7FD279673E0D595C7957A95E1F720
:1012800047FF0AC0A52EA40EC89DA001C99D500D00
:101290001124241B350B40E0EA2D0A2C000CFF0B17
:1012A000E40FF11D47FDFA95F1971CF050E3A52ED0
:1012B000A41A67FD60E0F701E535F10514F0E4E5F7
:1012C000F0E07E2FFC01D484D426862F062E000C5D
:1012D000990BFC01EA1BFB0BDF017F01F7E0EF221A
:1012E000FF24E0E8F0E002C0F595E795EA94E2F724
:1012F0001E2FB7FD179653E0B595A7955A95E1F7C0
:101300002A0F3B1FE42FE77051E001C0550FEA950B
:10131000EAF7459545954595B4E54B02800D911D3D
:1013200011248C559B4FC12C0A2C000CBB0899240E
:1013300093942E015524EC2DF0E0EA15FB050CF0FA
:101340008DC0F90144910130E1F47C01A12F862E7A
:10135000881AB82DBE0DB71708F077C0B42FBA237E
:1013600021F0E701B881B52BB883B0E0B595A7951A
:10137000109719F431964491A0E8DFEFED1AFD0AB9
:10138000E8CF01111FC0752E70947C01A12FF901C7
:10139000862E881AB82DBE0DB71708F056C0B42F88
:1013A000BA2321F0E701B881B721B883B0E0B59541
:1013B000A795109719F431964491A0E8DFEFED1A44
:1013C000FD0AE8CF033031F07C01A12FF901862E10
:1013D000881A37C0752E7094862E7C01A12FF901D2
:1013E0008716D8F4B42FBA2359F0E701B881682CD6
:1013F0006D2460FE02C0B52B02C0B721E701B8839F
:10140000B0E0B595A795109719F431964491A0E8EE
:101410008394DFEFED1AFD0AE3CFD92416C0B42F71
:10142000BA2321F0E701B881B527B883B0E0B595BC
:10143000A795109719F431964491A0E8DFEFED1AC3
:10144000FD0AB82DBE0DB71750F3550F19F48C5A7D
:101450009F4F51E0C394240D351D6DCFDF91CF9187
:101460001F910F91FF90EF90DF90CF90BF90AF90C2
:101470009F908F907F906F905F904F900895FC01A8
:10148000643508F053C0403308F050C09785742F7E
:10149000759575957595262F062E000C330B542FD8
:1014A00057709230A1F4F901EC55FB4F84E57802B6
:1014B000E00DF11D1124808190E0052E02C095956C
:1014C00087950A94E2F78095982F91700AC093301F
:1014D00041F484858170462740954170841303C090
:1014E00014C0911112C084E57802200D311D112421
:1014F000F901EC55FB4F81E090E001C0880F5A954F
:10150000EAF780959081892310C084E57802200D48
:10151000311D1124F901EC55FB4F81E090E001C031
:10152000880F5A95EAF79081892B80830895DF927E
:10153000EF92FF920F931F93CF93DF931F92CDB73C
:10154000DEB78C01D62EF42EE12CE21654F46E2D6B
:101550006D0D4F2DC80129830E943F0AE394298114
:10156000F4CF0F90DF91CF911F910F91FF90EF90EB
:10157000DF9008952F923F924F925F926F927F92E9
:101580008F929F92AF92BF92CF92DF92EF92FF9293
:101590000F931F93CF93DF93EC016A3019F42885E2
:1015A0009E81C3C06D3009F4C6C03E807A84D98460
:1015B0004F8483E58D150CF4A1C08FE287150CF4E0
:1015C0009DC08F8190E00197389E9001399E300D2B
:1015D0001124C9018D0D911DD7FC9A951816190675
:1015E0000CF08CC08885839DC0011124870D911D4E
:1015F00077FC9A95181619060CF080C05D2CCD2C3E
:10160000E62EF12CA32C032C000CBB08EC2DED19BD
:101610000E2E000CFF0B8F8190E0E817F9070CF0FD
:101620006CC00197E817F90779F0E89E9001E99EF0
:10163000300DF89E300D1124E20FF31F8D859E852D
:10164000E80FF91F149101C010E0072D672C262D1B
:101650002719022E000C330B888590E028173907D4
:101660000CF048C010FF1EC081E0381206C0462DA5
:101670006C2DCE010E943F0A39C0202E4501800EFC
:10168000911C07FD9A94822D022C000C990B881551
:10169000990564F5232D422D652DCE010E94970AF0
:1016A0002394F1CF88899F85891701F18F8781E085
:1016B000381206C0462D6C2DCE010E943F0A15C07F
:1016C000202E4501800E911C07FD9A94822D022C3C
:1016D000000C990B8815990544F4232D422D652D96
:1016E000CE010E94970A2394F1CF4F8616956394FA
:1016F000030DADCFC394530C89CF4F862E813F810C
:101700008985329F800D112489879D81992399F0C5
:10171000082E000C990B44E550E0239F4019510915
:101720001124481759073CF498858A85299F800D14
:1017300011248A87198681E090E0DF91CF911F9173
:101740000F91FF90EF90DF90CF90BF90AF909F9060
:101750008F907F906F905F904F903F902F90089563
:10176000DF92EF92FF920F931F93CF93DF931F921D
:10177000CDB7DEB78C01D62EF42EE12CE21654F450
:101780004E2D4F0D6D2DC80129830E943F0AE39411
:101790002981F4CF0F90DF91CF911F910F91FF908E
:1017A000EF90DF9008958EBD00000DB407FEFDCFD1
:1017B0008EB50895CF93DF931F92CDB7DEB76983BF
:1017C000DC01ED91FC910280F381E02D41E050E0DD
:1017D000BE016F5F7F4F09950F90DF91CF91089504
:1017E00083E08093E9008091F200882319F08AE376
:1017F0008093E8000895CF93DF930E949416EC0144
:101800006DE773E08CE097E00E9446068C0F9D1F09
:10181000DF91CF910895EF92FF920F931F93CF9393
:10182000DF934091330750913407609135077091F1
:1018300036072FB7F89480919C0690919D06A09151
:101840009E06B0919F062FBF481B590B6A0B7B0B5E
:101850008091320790E0A0E0B0E000912B0710915A
:101860002C0720912D0730912E0784179507A60786
:10187000B70730F4011511052105310509F0A8C29B
:1018800080E0012B022B032B09F0E3C20E94B51666
:101890008091E406882309F4AFC08091F806811195
:1018A000ABC08091F0069091F106E091F506F091C1
:1018B000F606EE0FFF1FE80FF91F25913491211551
:1018C000310501F52091F406222331F01092F6063D
:1018D0001092F506FC0114C01092E4068091E30614
:1018E000882341F080E00E94B516E091F506F09162
:1018F000F6062FC060E083EE96E00E9482087CC06E
:1019000025913491C901969587959695879520FFE5
:1019100053C0B901B6E076956795BA95E1F76F7156
:10192000932F96959695969590518F70823081F170
:1019300008F5811117C06B3008F06AE06093F90672
:10194000E091F506F091F6063196F093F606E093F5
:10195000F506EE0FFF1F8091F0069091F106E80F5B
:10196000F91FCECF813061F740E083EE96E00E9410
:10197000AD07E6CF8330B1F0843011F78091E706F0
:10198000689F602D11246093000790930107D8CFC2
:101990008091E706689F602D11246093FC06909368
:1019A000FD06CECF8091E706689F602D11246093DD
:1019B000FE069093FF06C4CF8F738093F706809145
:1019C000E706839F802D11248093F8061092080764
:1019D000109207071092060781E08093FA06809321
:1019E0009F041092FB068091F5069091F6060196F1
:1019F0009093F6068093F5068091FA06882309F401
:101A0000E7C08091F806811106C060E083EE96E0A1
:101A10000E948208DDC081508093F80680910807FB
:101A2000811148C020910607309107072F5F3F4F73
:101A3000C901880F991FE0910207F0910307E80F91
:101A4000F91F65917491862F877080930907AB0108
:101A500063E0569547956A95E1F7CA019695879593
:101A6000972F9695969590930A078F739091E70616
:101A7000899F802D11248093080741704093A3040F
:101A800030930707209306078091040790E02817FA
:101A9000390780F020910507222339F0821B910934
:101AA000909307078093060705C060E083EE96E0F9
:101AB0000E948208809108078150809308078091D6
:101AC000FB0621E0280F2093FB064091F70630919A
:101AD0000A07340F8091EF06380F3093E5066091C6
:101AE000FE06662371F070E0822F022E000C990B27
:101AF0000E941C298091FF06869F300D112430938F
:101B0000E5068091E50690E0CB966BE370E00E94DD
:101B10001C298093E5063091F9063093E606609122
:101B2000FC06662381F0062E000C770B822F022E16
:101B3000000C990B0E941C298091FD06869F300D98
:101B400011243093E606609100076623A1F0822FEE
:101B5000220F990B70E00E941C29CB0162E070E01B
:101B60000E941C29209101079091E606289F900D64
:101B700011249093E6068091E6064F3341F08A30B7
:101B80000CF089E087FD80E08093E60602C01092A9
:101B9000E606F894E091E506F0E0E656F64FE491AB
:101BA000E093A20480910B079091E806899F802D15
:101BB00011249091E606899F802D112490910907A8
:101BC000899F802D11248093A1048093A004789490
:101BD00080913707882309F48FC08C3018F4CCE04B
:101BE000C81B01C0C0E081E08093120710921B0760
:101BF00010921C071091140783E0810FDC2FD11B7A
:101C0000D35D0D2FE82E880FFF08ED0EF11CD7FDD8
:101C1000FA94802F002E000C990B8E159F054CF422
:101C20002EE4402F63E08CE097E00E94970A0F5F5C
:101C3000F0CF1450DD5F212F41E06D2F80E50E9431
:101C40003116212F42E06D2F83E00E94311681E092
:101C500080931B0780931C0700911407DC2FD01B77
:101C6000D35D2EE44D2F63E08CE097E00E94970A4D
:101C700013E0100F1D0F4FEF410F2EE463E08CE0D7
:101C800097E00E94970A0350DD5F202F4D2F60E000
:101C90008CE097E00E94B00B202F4D2F63E58CE085
:101CA00097E00E94B00B41E06D2F83E00E94B315D6
:101CB00042E06D2F80E50E94B315145044E0612F7F
:101CC00080E50E94B31548E0612F83E00E94B315C0
:101CD00084E08093150780911407C81BC15DC093F1
:101CE000160780913807909139070E9494168091C9
:101CF0003707815080933707809118078F5F809353
:101D0000180784EAE82E84E0F82EC0E00E949215BD
:101D100082E20E94D30BCF5F8C2F0E94D30B87E00F
:101D20000E94D30B81E20E94D30B86E10E94D30B69
:101D30008FE70E94D30BE0911F07F091200790815D
:101D400080912207892B8083E0911D07F0911E0767
:101D500090818091210780958923808300E010E0A5
:101D6000F701E00FF11F80810E94D30B0F5F1F4F1F
:101D700004351105A9F724E5E20EF11CC63031F651
:101D80008091100781110EC088EF91E0E4EAF4E041
:101D9000DF019C011D9221503040E1F710921507A0
:101DA000109216070E94040760932B0770932C076C
:101DB00080932D0790932E072091270730912807B5
:101DC000621B730B7093300760932F0780E041C054
:101DD0002FB7F89480919C0690919D06A0919E0645
:101DE000B0919F062FBF20913207820F911DA11D38
:101DF000B11D8093330790933407A0933507B093B8
:101E000036078091230790912407A0912507B09170
:101E100026070196A11DB11D8093230790932407E7
:101E2000A0932507B093260710922B0710922C073A
:101E300010922D0710922E070E9404076093270727
:101E4000709328078093290790932A070E942515ED
:101E500081E0DF91CF911F910F91FF90EF90089556
:101E6000CF92DF92EF92FF920F931F93CF93DF9366
:101E7000EC011092D60681E08093120710921107B0
:101E80001092100780931B0780931C071CE00E9490
:101E90000B0C8823E1F3FE018491882319F0009153
:101EA000140701C000E02AE239E040E060E08CE085
:101EB00097E00E94FD084CE0400F24E438E060E029
:101EC0008CE097E00E94FD0810921507109316070A
:101ED000CE010E94941680911307982F990F890FB5
:101EE00081958D5A8093150780911407982F990F2B
:101EF000890F8195835D809316078091230784FF66
:101F000003C086E299E002C082E299E00E94FB0BE6
:101F100090911307892F880F980F91959D5A909350
:101F20001507809116078F5F809316078091E8064A
:101F3000882319F08EE199E002C08AE199E00E94BD
:101F4000FB0B90911307892F880F980F91959D5A3D
:101F500090931507809116078F5F8093160786E18F
:101F600099E00E94FB0B8091D406813099F4809116
:101F7000E8068F5F082E000C990B6091E90670E06F
:101F80006F5F7F4F0E941C298093E80683EE96E0E6
:101F90000E9462088091D3068130B9F080913107A8
:101FA000482F50E060E070E0C0902307D0902407F5
:101FB000E0902507F0902607C416D506E606F7063A
:101FC00008F465CF8F3F09F462CF8FEF809331071C
:101FD00060E083EE96E00E9482081092E40683EEB1
:101FE00096E00E94930881E08093D606DF91CF911E
:101FF0001F910F91FF90EF90DF90CF9008958F92F7
:102000009F92AF92BF92CF92DF92EF92FF920F9387
:102010001F93CF93DF93CDB7DEB7A1970FB6F89498
:10202000DEBF0FBECDBF6C01990FEE08FF08F7FEB3
:1020300033C0E0910C07F0910D070190F081E02D85
:102040006DE28CE097E009958C0122273327A901E6
:102050002C193D094E095F0919A2CE0181967C0118
:102060009AE0892E912CA12CB12CCA01B901A501AD
:1020700094010E944E28605DF70162937F01211553
:1020800031054105510589F7BF018CE097E00E94B9
:102090004606800F911F1FC0A701960119A28E014D
:1020A0000F5D1F4F8AE0C82ED12CE12CF12CCA0104
:1020B000B901A70196010E944E28605DF801629364
:1020C0008F01211531054105510589F7BF018CE0CC
:1020D00097E00E944606A1960FB6F894DEBF0FBEA9
:1020E000CDBFDF91CF911F910F91FF90EF90DF90C7
:1020F000CF90BF90AF909F908F900895FC018091FA
:102100009E04811103C08FEF9FEF08959FB7F8944D
:1021100082E08093E9002091F20030E0121613066D
:1021200014F421E030E02115310559F0289884E6B7
:1021300080939D048091F10080838091F200882338
:1021400019F09FBFC90108958BE68093E800F9CF8D
:102150002FB7F89483E08093E9009091E800892FED
:10216000807295FF04C09091F20080E4891B2FBF1C
:1021700008958F929F92AF92BF92CF92DF92EF928B
:10218000FF920F931F93CF93DF935C016B017A0152
:1021900080910801882309F45BC080919E04882304
:1021A00009F456C080919C0480FF05C08091E00036
:1021B00082608093E000E70110E00AEF83E0882E60
:1021C0009AE3992E2097D9F10E94A81081110AC094
:1021D000015009F43DC061E070E080E090E00E94B1
:1021E0002907F0CF282F30E0C217D3070CF48C2F2B
:1021F0004FB7F8948092E9009091E80095FF1DC0D8
:10220000282F30E0C21BD30BF601982F915020F0FD
:1022100081918093F100FACFC20ED31E112319F0E1
:102220009092E80009C08091E80085FD06C0909278
:10223000E80011E0209709F010E04FBFC3CF111163
:10224000C3CF5D9884E680939B041E141F0444F062
:1022500081E090E0F5019383828380E090E001C00B
:10226000C701DF91CF911F910F91FF90EF90DF9009
:10227000CF90BF90AF909F908F9008958091A406CB
:1022800081110DC082E08093A00684E08093A106B6
:102290001092A3061092A20681E08093A40680EA21
:1022A00096E00895FC018485958597FD0BC09FB746
:1022B000F89482E08093E9008091F2009FBF90E063
:1022C000019608959FB7F89482E08093E900809189
:1022D000F2009FBF90E008954091B0065091B10682
:1022E0002091AE063091AF0642175307B4F4909197
:1022F000E8009570E1F39091E80092FD19C0809399
:10230000F1008091B0069091B10601968F739927E4
:10231000892B19F48EEF8093E8008091B00690919C
:10232000B10601969093B1068093B00681E00895BE
:1023300080E00895CF92DF92EF92FF920F931F9368
:10234000CF93DF931F92CDB7DEB7182F062FE42E61
:10235000862F880F8E5F99830E946C1183E00E9404
:102360006C11F12EC12E9981D92E8C2D8F198017C9
:1023700098F4F601E7FE02C0849101C080810E94BA
:102380006C11182F80E00E946C118123FFEFCF1A8F
:10239000DF0A8111EACF01C081E00F90DF91CF9178
:1023A0001F910F91FF90EF90DF90CF900895DF92F3
:1023B000EF92FF920F931F93CF93DF93D82E8A0152
:1023C0007B01E40EF51EEB01CE15DF0571F0D7FEA3
:1023D00003C0FE01849101C088810E946C11219686
:1023E0008111F2CF8FEF9FEF01C0C801DF91CF9134
:1023F0001F910F91FF90EF90DF900895615030F0A2
:102400002091F100FC0120830196F8CF289884E602
:1024100080939D0408950E94A81090E00895CF93A2
:10242000DF931F92CDB7DEB7FC018485958597FDBC
:1024300005C02FEF3FEF358724870BC0CE010196F3
:102440000E947E10019719F4898190E002C08FEFFD
:102450009FEF0F90DF91CF9108950F931F93CF932C
:10246000DF931F92CDB7DEB78C01FC018485958583
:1024700097FF0EC0CE0101960E947E10019719F4BD
:10248000298130E002C02FEF3FEFF8013587248724
:10249000F801848595850F90DF91CF911F910F9161
:1024A00008950F931F93CF93DF931F92CDB7DEB79D
:1024B00082E0898342E450E065ED79E080E80E94A3
:1024C000D7110E943E11DC0112960D911C911397B9
:1024D0000115110569F0D801ED91FC910280F3819D
:1024E000E02DBE016F5F7F4FC801099597FF07C0C0
:1024F00089810F90DF91CF911F910F910895F8017D
:1025000000851185E5CF1F920F920FB60F9211240F
:102510008F939F938091E1009091E100937F90933E
:10252000E10083FF0FC01092E90091E09093EB006F
:102530001092EC0092E39093ED0010929E0498E0CC
:102540009093F00082FF20C093E09093E900909177
:10255000F200992319F09AE39093E80090919B047C
:10256000992339F090919B04915090939B04992367
:1025700089F190919D04992339F090919D04915097
:1025800090939D04992341F184FF10C08091E20053
:102590008E7E81608093E2008091E1008F7E809347
:1025A000E10080919C048E7E806111C080FF16C086
:1025B0008091E2008E7E80618093E2008091E10054
:1025C0008E7E8093E10080919C048E7E816080935A
:1025D0009C0404C05D9ACDCF289AD6CF9F918F914D
:1025E0000F900FBE0F901F9018951F920F920FB66D
:1025F0000F921124CF92DF92EF92FF920F931F93CD
:102600002F933F934F935F936F937F938F939F93FA
:10261000AF93BF93EF93FF93CF93DF93CDB7DEB725
:102620006C97DEBFCDBF1092E9008091E80083FF78
:10263000EDC168E0CE0145960E94FE1182EF8093C5
:10264000E8008D8987FF05C09091E80090FFFCCFDE
:1026500003C09EEF9093E800982F907609F0C6C0D3
:102660009E892F89188D91110CC0803829F4809192
:10267000AD068093F10002C01092F1001092F100BB
:1026800048C1422F50E0512B913051F4811141C18A
:102690004130510509F03DC18091AD068D7F0BC0E1
:1026A000933061F4811135C14130510509F031C1D8
:1026B0008091AD0682608093AD062BC1953041F4C8
:1026C0008091E80080FFFCCF20682093E30021C1C7
:1026D000963009F05FC0EB8CFC8C1092E9001092F0
:1026E000B1061092B006123091F51092AF0610921A
:1026F000AE060E94511299E0BE016F5F7F4FDB0171
:10270000E92F1D92EA95E9F799831A8391E09E8358
:1027100090EA98879AEF99872091B0063091B10698
:10272000275F3F4F3C832B838D831092E9001092EB
:10273000B1061092B006F092AF06E092AE0649E004
:1027400050E080E00E94D7110E945112E2C0F09246
:10275000AF06E092AE060E943E11DC011296ED90AB
:10276000FC901397E114F10409F4C0C0D701ED9176
:10277000FC910480F581E02DBE016B5E7F4FC701A7
:102780000995009719F00CF0C4C0C7C0F701E084A8
:10279000F184E8CF973009F4C0C0983021F481E08B
:1027A0008093F100B6C0993009F0B3C0837009F08E
:1027B000B4C0E8ECF2E081E021E036E390819923B7
:1027C00061F08093E9002093EB0091919093EC00ED
:1027D0003093ED008F5F873089F78EE78093EA00B2
:1027E0001092EA008F8980939E0493C08B8D9C8DFC
:1027F0001092E9001092B1061092B0069093AF06C5
:102800008093AE06898D811156C08E899D89913A3B
:1028100059F4813209F081C047E050E061E071E095
:1028200080E00E94D71175C0913209F076C08332E2
:1028300089F4888D90E0982F88272F89822BA0E03B
:10284000B0E08093090190930A01A0930B01B0932B
:102850000C015FC0803269F48091E80082FFFCCFF8
:1028600067E081E091E00E94FE118BEF8093E80029
:1028700006C0823209F04DC08F8980930801809193
:10288000AC06882319F0EEEFFAE002C0E0E0F8E0D1
:102890008091010190910201A0910301B091040186
:1028A000803B9440A105B10509F07BC080910801EF
:1028B00080FF93C076C00E943E11DC0112960D91FC
:1028C0001C9113970115110541F1D801ED91FC916F
:1028D0000190F081E02DBE016B5E7F4FC80109952C
:1028E000811117C0F80100851185ECCF113009F472
:1028F0004EC0133091F48F89882309F445C082308B
:1029000081F440E860E189E39AE00E949A1188230B
:1029100021F08EEF8093E80079C081E28093EB0094
:1029200075C0813029F440E86BE08DE29AE0EDCF8C
:10293000833099F70E943E11DC011296ED90FC90D5
:1029400013978E010F5F1F4F6801E114F10479F0B6
:10295000D701ED91FC910680F781E02DB801C70108
:102960000995080F111DF701E084F184EECFD8011D
:102970001C92F60101900020E9F73197BF016C1914
:102980007D0940E0C601C1CF67E17AE002C06BE19A
:102990007AE06115710509F2FB01449150E080E88D
:1029A00040CF0FB6F894A89580916000886180931D
:1029B0006000109260000FBEA895EE3F2AE0F2077B
:1029C00039F08091FE0A9091FF0A91838083A1CF14
:1029D0001092FF0A1092FE0A9CCFEE3F8AE0F807A1
:1029E00031F0808191819093FF0A8093FE0A87E7FE
:1029F00097E7918380839BE088E10FB6F894A895D0
:102A0000809360000FBE9093600083CF6C960FB6EA
:102A1000F894DEBF0FBECDBFDF91CF91FF91EF9154
:102A2000BF91AF919F918F917F916F915F914F91E6
:102A30003F912F911F910F91FF90EF90DF90CF90DA
:102A40000F900FBE0F901F901895CF92DF92EF92CC
:102A5000FF920F931F93CF93DF93C8ECD6E00FEC58
:102A600016E0FF24FA9496E0E92EE00E62E08881F9
:102A70000E94C806288130E0F901EA56F54F84919A
:102A8000F901E958F54FC490F901E85AF54FD4908F
:102A9000DD2071F081110E945B06ED2DF0E0EE0F5C
:102AA000FF1FE65BF54FA591B491EC91EC2131F558
:102AB000F80180818F5F808360E088810E94C80672
:102AC00021960F5F1F4FE012D1CF9091CF0691500A
:102AD0008091D5069E3F38F49091D10691509E3F4B
:102AE00010F48F5F08C08823A1F08F3F19F4109273
:102AF000D5060FC08FEF8093D5060BC0F8018081FB
:102B00008823F1F2F8018F3F11F41082D5CFF082C3
:102B1000D3CFDF91CF911F910F91FF90EF90DF9076
:102B2000CF900895CF93DF93EDE1F7E0C081D1819D
:102B30009881A1E2B7E08C91892B8883C0911F070F
:102B4000D0912007988180912207809589238883DE
:102B50000190F081E02D90818C9180958923808374
:102B6000DF91CF910895AF92BF92CF92DF92EF9213
:102B7000FF920F931F93CF93DF93182F062FC1E07F
:102B8000D3E08AEFD82E9EEFE92E842F8470C82ED2
:102B9000842F8270B82E842F8870A82E4170F42E56
:102BA0008C2F880F8F5FE80ECC2081F04D2F400FC7
:102BB0006C2F610F8CE097E00E943F0A4C2F400F72
:102BC0006D2F610F8CE097E00E943F0ABB2081F0DF
:102BD000402F4D1B6C2F610F8CE097E00E943F0A45
:102BE000402F4C1B6D2F610F8CE097E00E943F0A35
:102BF000AA2081F04C2F400F612F6D1B8CE097E0D5
:102C00000E943F0A4D2F400F612F6C1B8CE097E014
:102C10000E943F0AFF2081F0402F4C1B612F6D1B4B
:102C20008CE097E00E943F0A402F4D1B612F6C1BE8
:102C30008CE097E00E943F0ACD1744F4E7FC04C003
:102C4000D150D394D394ED0CCF5FAACFDF91CF9125
:102C50001F910F91FF90EF90DF90CF90BF90AF90BA
:102C600008959F92AF92BF92CF92DF92EF92FF9220
:102C70000F931F93CF93DF93F82EE62EB22E03E02F
:102C8000020FD0E0C3E08AEFC82E1EEF842F8170C0
:102C9000982EAA24A394A20E4270D42EDF5F802F18
:102CA0008B19180F9920A1F02C2F220F2A0D4E2DD1
:102CB0004C1B6D2F6F0D8CE097E00E94B00B202F06
:102CC0004E2D4D1B6C2F6F0D8CE097E00E94B00BCA
:102CD000DD20A1F02C2F220F2A0D4E2D4C1B6F2D25
:102CE0006D1B8CE097E00E94B00B202F4E2D4D1BEA
:102CF0006F2D6C1B8CE097E00E94B00BDC1744F446
:102D000017FD04C0C150C394C3941C0D0E5FC6CF01
:102D1000DF91CF911F910F91FF90EF90DF90CF90B7
:102D2000BF90AF909F9008950F931F93CF93DF9321
:102D30008C01C0E0D0E0F801EC0FFD1F6491662328
:102D400071F0E0910C07F0910D070190F081E02DFA
:102D50008CE097E00995892B11F02196ECCFCE01FC
:102D6000DF91CF911F910F910895AF92BF92CF92B3
:102D7000DF92EF92FF920F931F93CF93DF93C82EB2
:102D8000D12CE601C254D94F9DA1992309F44FC01B
:102D90007E019FEFE91AF90AF70195A1911147C049
:102DA0009EA58601000F111F0254194FF80134A58A
:102DB00025A5E32FF22FE90FF11DE90FF11D259154
:102DC00034912F3FFFEF3F0711F41DA230C039AB04
:102DD000F601EE0FFF1FE853F94F3327220F331F81
:102DE00005A0F6A1E02DE20FF31FA590B49081118C
:102DF0001AC060E083EE96E00E948208F801B3AA50
:102E0000A2AAF601EE0FFF1FE053F94F16A215A27A
:102E100081E0F70185A389E08BAF1EAEFE017B96B2
:102E200015A2329615A229968DA18F5F8DA3DF91F1
:102E3000CF911F910F91FF90EF90DF90CF90BF90B7
:102E4000AF900895CF93DF93CDB7DEB7A5970FB6B8
:102E5000F894DEBF0FBECDBF789484B5826084BD88
:102E600084B5816084BD85B5826085BD85B581608E
:102E700085BD80916E00816080936E00109281000C
:102E800080918100826080938100809181008160C7
:102E90008093810080918000816080938000809188
:102EA0009100826080939100809191008160809375
:102EB0009100809190008160809390008091C1008A
:102EC00084608093C1008091C10082608093C100C2
:102ED0008091C10081608093C1008091C3008160B6
:102EE0008093C3008091C00082608093C000809175
:102EF000C20081608093C20080917A0084608093D8
:102F00007A0080917A00826080937A0080917A00C2
:102F1000816080937A0080917A00806880937A0043
:102F200010929E041092AD0610929C048091D700DE
:102F300081608093D70080EA8093D80089B5806152
:102F400089BD89B5826089BD09B400FEFDCF61E00D
:102F500070E080E090E00E9429078091D8008F7C8B
:102F600080618093D8008091E000807F8093E000B2
:102F70008091E1008E7E8093E1008DE08093E200FD
:102F8000559A209AEEEFFFE7859194918B3F9C4DE7
:102F900019F481E08093AC0682E38093320781E0EC
:102FA00090E0A0E0B0E080932B0790932C07A093D3
:102FB0002D07B0932E0711E01093E9061093E80651
:102FC0008FEF8093310784E18093C80682E180937C
:102FD000C90683E18093CA0685E18093CB0687E02A
:102FE0008093CC0688E08093CD061092CE060E9496
:102FF000251510931B0710921C07109311071093AF
:103000001207EDE1F1E0E491EF5FE0931307EEE1E9
:10301000F1E0E491EF5FE09314078FE191E090938A
:103020001A07809319071FB7F894809180038111C4
:1030300027C0E9E6FAE08491E8E8FAE09491E82F05
:10304000F0E0EE0FFF1FEC50FF4FA591B491EC9113
:10305000E92321F461E081E10E94980661E081E1C9
:103060000E94C8068CB580618CBD8CB580648CBD17
:1030700061E08FE00E94C80661E080E10E94C8061E
:10308000809180038F5F809380031FBF8CB58C7FFE
:103090008CBD8DB581608DBD61E084E00E94C80665
:1030A00061E08CE00E94C80661E086E00E94C806EC
:1030B00061E086E00E94980661E070E080E090E0C8
:1030C0000E94290760E086E00E9498066AE070E0AE
:1030D00080E090E00E94290761E086E00E94980667
:1030E000E4E6FAE0E491F0E0EE0FFF1FE15FFE4F4F
:1030F0008591949190931E0780931D07ECE5FAE06B
:10310000E491F0E0EE0FFF1FE15FFE4F8591949197
:103110009093200780931F07E3E8FAE0E491E0939F
:103120002107EBE7FAE0E491E09322070E94921571
:1031300012E0E12E11E0F12E1DE01E0DF701849149
:103140000E94D30BFFEFEF1AFF0A1E11F7CFE09199
:103150001F07F0912007908180912207892B80839F
:10316000E0911D07F0911E079081809121078095C5
:103170008923808300E014E080E00E94D30B01509B
:103180001109D1F781E08093E70684E080930B0773
:1031900080EF90E09093F3068093F20640E060E0C9
:1031A00083EE96E00E94AD0761E085E00E94C806CC
:1031B00061E08DE00E94C80661E085E00E94C806DB
:1031C000EBE9FAE0E4918E2F90E0FC013197EF30CB
:1031D000F10508F07DC0EA5AFF4F0C94302984B500
:1031E000806884BD81E087BD77C084B5806284BD7E
:1031F00081E088BD71C080918000806880938000EC
:1032000081E090E0909389008093880065C0809170
:10321000800080628093800081E090E090938B003A
:1032200080938A0059C080918000886080938000DC
:1032300081E090E090938D0080938C004DC0809150
:10324000900080688093900081E090E090939900D6
:103250008093980041C0809190008062809390009C
:1032600081E090E090939B0080939A0035C080911C
:10327000900088608093900081E090E090939D00A2
:1032800080939C0029C08091C00080688093C0001A
:103290008091C0008F7B8093C00081E08093CF003D
:1032A0001BC08091C00080628093C00081E0809349
:1032B000D00012C08091C20088608093C2008091CB
:1032C000C2008B7F8093C20081E08093D20004C053
:1032D00060E085E00E94980680919100887F81607F
:1032E00080939100F89410928000109281001092C7
:1032F00085001092840088E191E09093890080938A
:103300008800809181008860809381008091810095
:1033100081608093810080916F00826080936F0054
:1033200078948091D406813019F41092E8061BC07D
:1033300060E083EE96E00E9482088FE992E090932D
:10334000F1068093F0061092F6061092F50681E0E1
:103350008093E40689E08093F9061092FC061092AF
:10336000FE061092000781E28093320781E080938D
:10337000E70680913107882321F08DEA92E00E94D0
:10338000300F809164008E7F8093640087EC80937F
:103390007C0080E280937B0062E070E080E090E05F
:1033A0000E94290780917A00806480937A0080913E
:1033B0007A0086FDFCCFE0907800F0907900E094F0
:1033C000F0948EE580937C0062E070E080E090E015
:1033D0000E94290780917A00806480937A0080910E
:1033E0007A0086FDFCCF00917800109179000E9450
:1033F00004079B01AC0120953095409550950095B0
:1034000010950E9DD0010F9DB00D1E9DB00D112485
:103410000E9404286B017C010E9404076C0D7D1D35
:103420008E1D9F1D611571058105910511F00E948A
:103430004A278091640081608093640068EF72E0A5
:1034400088EB96E00E9425061092D6060E940B0C8F
:10345000882311F40C9448256EEF72E088EB96E017
:103460000E94C605882379F0109294041092930468
:1034700083E0809392041092910466E073E088EBFD
:1034800096E00E94250666E073E088EB96E00E94D5
:10349000C6058823D1F0E3ECF1E0ADE0B4E0819122
:1034A0008D9322E0E734F207D1F784EF80930C0488
:1034B00080919104883008F087E080930B046FE0DE
:1034C00073E088EB96E00E9425066FE073E088EBDE
:1034D00096E00E94C605882309F49CC010920A0455
:1034E0001092090410920804109207048FEF9FEFC6
:1034F00090930604809305045DE05093040428E152
:103500002093030422E030E030930204209301046E
:10351000109200041092FF0301E010E01093FE03EC
:103520000093FD031092FC031092FB031093FA0327
:103530000093F9031093F8030093F7034CE04093D2
:10354000F60363E06093F5031092F4036EE1609379
:10355000F3035093EF034093EB031093E4030093C2
:10356000E3031092DC031092DB031093D403009367
:10357000D3031092CC031092CB034093F0034FE09F
:103580004093EC031092E6031092E5031092DE03E1
:103590001092DD031093D6030093D5031092CE034F
:1035A0001092CD035093F1034093ED033093E80361
:1035B0002093E7031092E0031092DF031093D803E7
:1035C0000093D7031092D0031092CF034093F203DD
:1035D0004093EE031092EA031092E9031092E20383
:1035E0001092E1039093DA038093D9031092D203EF
:1035F0001092D10367E173E082EB96E00E9425060A
:103600001093CA030093C9036DE173E088EB96E061
:103610000E9425066DE173E088EB96E00E94C605E6
:10362000882311F40C9458248091C8038F5F837011
:103630008093C803811106C08091C7038F5F81709A
:103640008093C703F0900304C090FF03D090000460
:103650008F2D90E007979C01220F331F820F931F3D
:103660008C0D9D1D8B3F3FEF930714F48BEF9FEF65
:103670009093C6038093C5038091C5039091C603C0
:10368000C99734F088E390E09093C6038093C50314
:103690008091070490910804892B59F44091C50347
:1036A000419523EF33E060E08CE097E00E94FD0855
:1036B00004C08091C703882389F38091F4038111AA
:1036C00009C080910C048E3A11F08A3419F480E913
:1036D0008093F4031091F403112399F120910B04CA
:1036E00047E0249F9001112425543C4F8091C5034D
:1036F00045E3481B69E28CE097E00E94FD08115009
:103700001093F403809104048D508230D0F452E180
:10371000F51217C01092F403209191048091930444
:103720009091940464E6269F800D911D112490933E
:1037300094048093930461E070E086E090E00E943E
:10374000E7070091050410910604EF2CEE0C0F3FE3
:103750007FEF170721F52091F6038091F50390E0A4
:10376000820F911D47E0489F9001499F300D112421
:10377000215D3C4F4E2D4F0D4C0D41508091C503A6
:10378000481B60910404862F880F680F8091010404
:10379000680F61508CE097E00E94FD084CC001501A
:1037A00011091093060400930504C80165E070E058
:1037B0000E941C29892B21F483EE96E00E94620866
:1037C000C80166EF7FEF0E941C296D5E7F4F87E086
:1037D000869F9001879F300D1124215D3C4F4E2D17
:1037E0004F0D4C0D41508091C503481B609104045E
:1037F000862F880F680F80910104680F61508CE05C
:1038000097E00E94FD08012BB1F48FEF9FEF90939A
:103810000604809305048091920481508093920461
:10382000811103C065E273E002C06FE073E088EBD2
:1038300096E00E9425061091F303112379F0809100
:10384000C703811108C02EE133E042E060E28CE062
:1038500097E00E94FD0811501093F3038091D00669
:1038600081508E3F10F40C9452258091D2068150E5
:103870008E3F10F40C945E258091CF0681508E3FD0
:1038800010F40C946A258091D10681508E3F10F47B
:103890000C9476258091D506813071F480913107A2
:1038A000882321F083E193E00E94300F68EF72E0FB
:1038B00088EB96E00E9425068091F303811132C0C7
:1038C0008091070490910804892B61F5809105048B
:1038D00090910604019631F54091FD035091FE034D
:1038E0008091010490910204840F951F909302042B
:1038F000809301042091FB033091FC038091FF032E
:1039000090910004820F931F909300048093FF0313
:10391000452B11F4232B31F08091F5038F5F8370D9
:103920008093F5038091010490910204029605971B
:1039300058F01092020410920104909104048091B6
:10394000FD03890F809304048091FF03909100048C
:103950000296059758F0109200041092FF03909180
:1039600003048091FB03890F809303048091040476
:10397000811109C08091FD039091FE03019619F415
:103980008BE180930404809104048B3140F080919A
:10399000FD039091FE03019711F4109204048091AD
:1039A000010490910204892B09F01AC18091FF0350
:1039B00090910004892B09F013C1D0900404E09089
:1039C0000304E0E2EE9EC00111248D0D911D909341
:1039D000C0038093BF039C01E3E035952795EA95EA
:1039E000E1F73093BE032093BD038770992707E06A
:1039F00010E0081B190B1093BC030093BB03A90133
:103A0000435F5B4F5A01DA01FC908F2D90E0002E4E
:103A100002C0959587950A94E2F781709927909353
:103A2000BA038093B903019709F04EC0C0900C040B
:103A3000CA94C0920C0461E070E0C0FC03C083E053
:103A400090E002C084E090E00E94E70781E090E00F
:103A500001C0880F0A95EAF7F81AF501F082809103
:103A6000930490919404F1E0DF1619F02AE1D21248
:103A70001EC034E0E31619F048E1E41218C0C29603
:103A800090939404809393042091910451EF5203F6
:103A9000C00111248C549F4F90930A048093090411
:103AA00088EC90E09093B8038093B70305C00A9622
:103AB0009093940480939304C11006C08CE390E02B
:103AC0009093080480930704E0910404F0E00091CF
:103AD000C1031091C2032091030430E0C090C303DE
:103AE000D090C403AF01400F511FC9018C0D9D1D23
:103AF00065E0880F991F6A95E1F7840F951F7C0197
:103B000073E0F594E7947A95E1F768E070E00E943D
:103B10001C2947E050E0481B590BD701A15CBE4F60
:103B20008C9190E002C0959587954A95E2F780FDCB
:103B300010C01093FE030093FD03D092FC03C092CB
:103B4000FB031093FA030093F903D092F803C09299
:103B5000F7038091FD039091FE03E80FF91F809118
:103B6000FB039091FC03280F391F15E0220F331F30
:103B70001A95E1F7CF01820F931F9093C0038093B2
:103B8000BF03FC0103E0F595E7950A95E1F7F09393
:103B9000BE03E093BD0368E070E00E941C2927E0AB
:103BA00030E0281B390B3093BC032093BB03E15C4E
:103BB000FE4F808190E002C0959587952A95E2F7A7
:103BC000817099279093BA038093B903892B41F0B0
:103BD0001092FE031092FD031092FC031092FB035F
:103BE0008091FD039091FE038F3F6FEF960721F4C4
:103BF00088E08093F60304C0019711F41092F60355
:103C00008091FB039091FC038130910511F484E0D5
:103C100003C0019619F48CE08093F60380910704A9
:103C2000909108041816190694F4019790930804CB
:103C300080930704892B59F4809191048F5F8093BE
:103C4000910466E073E088EB96E00E94250688E028
:103C500090E09093BE038093BD03B0E4CB2ED12CB3
:103C60000091BD031091BE030C3711050CF07CC010
:103C700087E090E09093BC038093BB03D801A35FDF
:103C8000BB4F5D01E090BB03F090BC03F7FC65C047
:103C9000F501808190E00E2C02C0959587950A94DD
:103CA000E2F7817099279093BA038093B903019743
:103CB00009F048C0C6018F7199279601F5E0359546
:103CC0002795FA95E1F7A901440F551F4A01820E85
:103CD000931E4091C5035091C603841A950A813002
:103CE000910519F08A31910519F52430310519F043
:103CF00028313105E9F4F0E38F169104C8F42091DE
:103D0000C7032130F9F4982F990F992E980E41E0AE
:103D1000480D23E0692D8CE097E00E94970A61E04E
:103D2000690D23E0482D8CE097E00E94B00B0AC09B
:103D300041E0480D682F660F680F6F5F8CE097E0D9
:103D40000E943F0A2FEFC21AD20A31E0E31AF108AB
:103D5000F092BC03E092BB0395CF0F5F1F4F10930F
:103D6000BE030093BD037CCF8091C9039091CA0329
:103D700001979093CA038093C903181619064CF152
:103D800067E173E082EB96E00E94C605882379F034
:103D90006EE273E082EB96E00E942506209191048A
:103DA00044EC4203C0011124845D9E4F0EC067E1C4
:103DB00073E082EB96E00E9425068091910456E91B
:103DC000859FC0011124885A9D4F9093CA03809308
:103DD000C9038091090490910A04181619060CF081
:103DE00061C00E9445272CE130E040E050E00E9495
:103DF000E5277093B0036093AF030E94452721E24B
:103E000030E040E050E00E94E5277093A803609303
:103E1000A7030E9445272CE130E040E050E00E94DB
:103E2000E5277093B2036093B1030E94452721E216
:103E300030E040E050E00E94E5277093AA036093D1
:103E4000A9030E9445272CE130E040E050E00E94A9
:103E5000E5277093B4036093B3030E94452721E2E2
:103E600030E040E050E00E94E5277093AC0360939F
:103E7000AB030E9445272CE130E040E050E00E9477
:103E8000E5277093B6036093B5030E94452721E2AE
:103E900030E040E050E00E94E5277093AE0360936D
:103EA000AD039EC06EE273E082EB96E00E94C60511
:103EB000882309F11092B0031092AF031092A80367
:103EC0001092A7032BE130E03093B2032093B103AB
:103ED0001092AA031092A9031092B4031092B30394
:103EE00080E290E09093AC038093AB033093B603F1
:103EF0002093B50371C06091040470E07093B00327
:103F00006093AF034091030450E05093A8034093A3
:103F1000A7030091F9031091FA039801220F331FB0
:103F2000220F331F260F371F3093B2032093B103A4
:103F3000E091F703F091F803CF01880F991F880FE4
:103F4000991F840F951F9093AA038093A903A091B2
:103F5000EF03B0E0000F111F201B310B2A1B3B0B9E
:103F6000220F331F2A0F3B1F3093B4032093B30358
:103F70002091EB0330E0EE0FFF1F8E1B9F0B821B87
:103F8000930B880F991F280F391F3093AC03209390
:103F9000AB038091F203DB01A81BB1092091EE0372
:103FA000FA01E21BF1099F01AA9FF001AB9FF00DFE
:103FB000F00D1124229FC001239F900D900D11241C
:103FC0008E0F9F1F0897C4F48BE190E09093B60387
:103FD0008093B50380E290E09093AE038093AD03AD
:103FE0002FE933E03A8B298B80E090E0F9012DE056
:103FF00030E04FE050E00DC07093B6036093B5031E
:104000005093AE034093AD03EBCF029688309105F9
:1040100081F06191719161307105B9F7DC01A155B1
:10402000BC4F2D933C93DC01A955BC4F4D935C9341
:10403000ECCF80919E038F5F65E00E941029292FAD
:1040400090939E038091090490910A041816190612
:10405000F4F4019790930A0480930904211135C068
:104060008091050490910604019679F58091F303FF
:1040700081112BC08091070490910804892B29F5A8
:1040800060E070E082E090E00E94E7071EC021112E
:104090001CC080910504909106040196B1F48091B2
:1040A000F303811112C08091070490910804892BB9
:1040B00061F410919D0360E070E0812F90E00E9418
:1040C000E7071F5F117010939D0380919B039091F0
:1040D0009C03181619060CF06FC2019790939C036D
:1040E00080939B038091F303811170C28091070438
:1040F00090910804892B09F069C280910504909180
:104100000604019609F062C213ED812E13E0912E90
:10411000EFEEF3E08BED93E02BEE33E04BEC53E06E
:1041200003EEA02E03E0B02E0FE913E06BE1F62EB4
:10413000D8016D917D918D01D5016130710591F4AA
:104140001D921C92DC011D921C927081D4016C9115
:10415000670F6083D9017C91DA016C91670FD901F7
:104160006C9315C0CD90DC90D4016D917C916C0D59
:104170007D1DD5016D937C93DC01CD90DC90DA013F
:104180006D917C916C0D7D1DDC016D937C93D5014F
:104190006D917C9111976E5F7F4F6530710538F09E
:1041A0001D921C927081D4016C91670F6083DC01B9
:1041B0006D917C9111976E5F7F4F6530710548F06E
:1041C0001D921C92D9017C91DA016C91670FD90183
:1041D0006C936081611107C0D4016D917C916F3F38
:1041E0007F4F09F4F08260816B3138F0D4016D911A
:1041F0007C916130710509F41082B2E08B0E911C44
:10420000319602962F5F3F4F4E5F5F4F62E0A60EE2
:10421000B11C7BED871673E0970609F089CF80917A
:10422000BF039091C0039C878B87A0919903B091A5
:104230009A03BA83A983E091BD03F091BE03FA8784
:10424000E9872091BB033091BC0338872F83A0906E
:104250009503B0909603209093033090940340917F
:104260009703509198035DA34CA300E010E0812CCC
:10427000912CF801ED51FC4F80819181892B09F03F
:1042800055C1F801E552FC4F80819181892B09F0DD
:104290004DC1F401E151FC4F2081622E712CF401DB
:1042A000E551FC4F3081432E512CB30180E2389F01
:1042B000600D711D11247C876B87D801AD52BC4FF6
:1042C000BE83AD834D915C91588F4F8BF801E155C2
:1042D000FC4F408151815A8F498FF801E955FC4FBD
:1042E000408151815C8F4B8F47E351E05E8B4D8B5A
:1042F0004FE151E0588B4F8747E151E05E874D8792
:1043000063E873E07C8B6B8B4FE251E05C834B8303
:104310006B01E12CF12C43EF420FB80161567C4F49
:104320007E8F6D8FC80185539C4F98A38F8FAD8969
:10433000BE898D919D91BE8BAD8BEB85FC85E80F81
:10434000F91FFA83E983B3E0F595E795BA95E1F7AC
:10435000FA87E98789819A8168E070E00E941C29C8
:1043600067E070E0681B790B78876F83E15CFE4F34
:10437000808190E00F8002C0959587950A94E2F7BE
:10438000DC01A170BB27BDA3ACA3423080F43C305C
:1043900071F4ED8DFE8D80819181019741F0F3E004
:1043A000EF16F10421F461E070E07DA36CA3AB8112
:1043B000BC818D919D91BC83AB83EF89F88DE8170B
:1043C000F907E9F4F701EE0FFF1FE95DFE4FAF8D2E
:1043D000B8A18D919C91608171818617970779F4BE
:1043E0003F3049F42C3059F02F3049F061E070E053
:1043F0007DA36CA304C0E1E0F0E0FDA3ECA3AF85D6
:10440000B8898D919D91B88BAF87860D971DA98C2A
:10441000BA8CA81AB90AED85FE8581919191FE8723
:10442000ED87840D951D2B8C3C8C281A390AAA9C8B
:10443000B001AB9C700D700D1124229CC001239C17
:10444000900D900D1124680F791F072E000C880B1A
:10445000990B29A33AA34BA30E945A270E94BB2879
:10446000D6016D937D938D939C93139729A13AA1C7
:104470004BA1ECA1FDA1319749F460E070E088EC1C
:1044800092E46D937D938D939C931397BFEFEB1AFA
:10449000FB0AE4E0CE0ED11CF4E0EF16F10409F0C3
:1044A00046CFEE24EA94FE2C23E630E03C832B83B7
:1044B000C12CD12CAB89BC894D905D906D907D90C5
:1044C000BC8BAB8BEB81FC81BF01FF0F880B990B81
:1044D0000E945A279B01AC01C301B2010E945327DD
:1044E00018163CF0C301B2010E947F287C836B83C5
:1044F0007601FFEFCF1ADF0A24E0C216D104D1F60D
:10450000C701880F991FFC01E15EFE4F20813181B8
:10451000AD81BE812D933C93FC01E95EFE4F80810D
:104520009181F801E553FC4F91838083F401E151BF
:10453000FC4F80818D3079F4F401E551FC4F80818E
:104540008F3049F4F801E156FC4F80819181019749
:1045500011F411821082BFEF8B1A9B0A0E5F1F4F5E
:10456000E4E08E16910409F084CE2CA13DA1309395
:1045700098032093970349815A8150939A0340935B
:10458000990369857A857093BE036093BD038F811B
:1045900098859093BC038093BB03B0929603A0923E
:1045A00095033092940320929303AB85BC85B0931E
:1045B000C003A093BF030AC08091910490E00196CC
:1045C000880F991F90939C0380939B03EFEEF3E079
:1045D000FA83E98333EE632E33E0732E4BEE242E01
:1045E00043E0342E5BED452E53E0552E7201610100
:1045F0002FE933E03C832B8353018F0166E4862E41
:10460000912C80910404209101043091020443E034
:10461000849F200D311D1124D8014D918D01F5018C
:10462000819191915F01F3E04F9F800D911D1124C5
:10463000AC014F5F5F4F421753070CF461C0019705
:10464000281739070CF45CC0809103042091FF0304
:104650003091000443E0849F200D311D1124D601C8
:104660004C91F70180819181F3E04F9F800D911D66
:104670001124AC014F5F5F4F421753070CF440C049
:10468000019728173907E4F1AB81BC818D919C918A
:10469000892BB1F58091050490910604019681F56E
:1046A0008091090490910A0418161906FCF480916F
:1046B000B7039091B8032091930430919404280F8C
:1046C000391F3093940420939304880F991F90937B
:1046D000B8038093B70381E090E0EB81FC81918384
:1046E000808361E070E085E090E008C0909206046D
:1046F0008092050461E070E087E090E00E94E707A7
:104700002B813C812E5F3F4F3C832B833FEFC31AAD
:10471000D30A42E0E40EF11C53E0033F150709F011
:1047200070CF80910504909106048F3F6FEF96073C
:1047300049F483EDC82E83E0D82E0BEC13E097E00C
:10474000F92E64C0CD97ACF78091C5039091C60354
:104750008B3F7FEF970709F066C06AC080E090E06A
:10476000F801219131918F012F3FFFEF3F0709F4AD
:1047700057C02130310511F486E090E02091090402
:1047800030910A041216130614F488E090E0A98907
:10479000BA892D913D91BA8BA98B2130310511F445
:1047A0008AE090E0F10151911F01D2016C91B2E0D9
:1047B0004B0E511CE981FA817191FA83E983D3018F
:1047C000EC91B2E06B0E711C2091C703820F911D1A
:1047D000F89E9001F99E300D112421543D4F809197
:1047E000C5038095452F440F450F480F460F672F8F
:1047F000660F670F6E0F61508CE097E00E94FD0816
:10480000EBEDCE16E3E0DE0609F49ECFD6018D91E6
:104810009D916D01019709F0A1CF82E090E0A0CFBA
:1048200084E090E0ABCFC89709F042C00BE201C032
:1048300000E010919204123090F024E433E0402F15
:1048400060E08CE097E00E94FD08123041F024E423
:1048500033E0402F66E08CE097E00E94FD08209155
:104860009304309194042A3031052CF096E22436DA
:10487000310524F401C098E280E001C082E0981B79
:10488000283EF3E03F0714F480E001C082E0981B6B
:104890009093150700931607C9010E94FF0F88E443
:1048A000809315078091910490E001960E94FF0F7C
:1048B00068EF72E088EB96E00E94C605882309F451
:1048C00088C0809193049091940420918103309149
:1048D00082032817390724F490938203809381037D
:1048E000109215071092160766E373E08CE097E0CC
:1048F0000E94460620919304309194042A30310599
:104900002CF09CE02436310524F401C09EE080E0C8
:1049100001C082E0981B283E43E0340714F480E095
:1049200001C082E0981B9093150786E080931607DC
:10493000C9010E94FF0F20918103309182032A3028
:1049400031052CF090E42436310524F401C092E4C2
:1049500080E001C082E0981B283E53E0350714F444
:1049600080E001C082E0981B9093150786E0809359
:104970001607C9010E94FF0F24E438E04DE06AE009
:104980008CE097E00E94FD08109215078AE2809360
:1049900016076AE473E08CE097E00E944606809177
:1049A000D306813051F46EEF72E088EB96E00E94FE
:1049B000250683EE96E00E9493088091D50681300B
:1049C00041F480913107882321F088EB92E00E9426
:1049D000300F65E273E088EB96E00E94C6058823FD
:1049E00009F456C010921B0710921C0710E127E231
:1049F000412F66E18CE097E00E94970A1F5F193112
:104A0000B1F781E080931B0780931C0788E18093B6
:104A1000150782E1809316076FE573E08CE097E05D
:104A20000E94460627E240E166E18CE097E00E94A2
:104A3000970A27E248E166E18CE097E00E94970A36
:104A400029E040E166E18CE097E00E94B00B29E0AC
:104A500040E16CE38CE097E00E94B00B84E080932F
:104A600015078AE28093160769E673E08CE097E009
:104A70000E9446068091D406813051F468EF72E0BE
:104A800088EB96E00E94250683EE96E00E9493084C
:104A900080E090E0892B11F40C94261A0E9400000B
:104AA0000C94261A8FEF9FEF9093C4038093C30357
:104AB0001092C2031092C1030C94351C81E090E067
:104AC0009093C4038093C3031092C2031092C10356
:104AD0000C943C1C8FEF9FEF9093C2038093C10313
:104AE0001092C4031092C3030C94431C81E090E025
:104AF0009093C2038093C1031092C4031092C30326
:104B00000C944A1C8091B2069091B3060E945F26D5
:104B10008091B8069091B9060C945F26EAE3F7E01D
:104B20001382128288EE93E0A0E0B0E08483958344
:104B3000A683B78382ED92E0918380838FEF9FEF0E
:104B40009587848710920F0710920E0784EE92E0EB
:104B500090930D0780930C07E8EBF6E0118210822A
:104B6000138212821582148240E050E06FE773E0F6
:104B7000CF010E94E505E2EBF6E01182108213827C
:104B800012821582148240E050E06FE773E0CF019B
:104B90000C94E505CF93DF938230910510F482E009
:104BA00090E0E0918C07F0918D0720E030E0C0E0CC
:104BB000D0E0309711F14081518148175907C0F07A
:104BC0004817590761F482819381209719F09B83DC
:104BD0008A832BC090938D0780938C0726C0211564
:104BE000310519F04217530718F49A01BE01DF018D
:104BF000EF010280F381E02DDCCF2115310509F1B1
:104C0000281B390B2430310590F412968D919C911C
:104C100013976115710521F0FB019383828304C012
:104C200090938D0780938C07FD01329644C0FD015F
:104C3000E20FF31F81939193225031092D933C93FE
:104C40003AC020918A0730918B07232B41F42091A1
:104C50000F013091100130938B0720938A07209128
:104C60000D0130910E012115310541F42DB73EB7EC
:104C70004091110150911201241B350BE0918A07DC
:104C8000F0918B07E217F307A0F42E1B3F0B2817B8
:104C9000390778F0AC014E5F5F4F2417350748F0B5
:104CA0004E0F5F1F50938B0740938A078193919318
:104CB00002C0E0E0F0E0CF01DF91CF9108950F93C3
:104CC0001F93CF93DF93009709F48CC0FC013297B8
:104CD0001382128200918C0710918D070115110526
:104CE00081F420813181820F931F20918A073091B6
:104CF0008B072817390779F5F0938B07E0938A071C
:104D000071C0D80140E050E0AE17BF0750F41296D2
:104D10002D913C911397AD012115310509F1D90170
:104D2000F3CF9D01DA013383228360817181860F85
:104D3000971F8217930769F4EC0128813981260FA8
:104D4000371F2E5F3F4F318320838A819B8193835E
:104D50008283452B29F4F0938D07E0938C0742C0A2
:104D60001396FC93EE931297ED01499159919E0190
:104D7000240F351FE217F30771F480819181840FAE
:104D8000951F029611969C938E9382819381139620
:104D90009C938E931297E0E0F0E0D80112968D91EB
:104DA0009C911397009719F0F8018C01F6CF8D9123
:104DB0009C9198012E5F3F4F820F931F20918A078D
:104DC00030918B072817390769F4309729F410922E
:104DD0008D0710928C0702C01382128210938B07EA
:104DE00000938A07DF91CF911F910F9108958F92C1
:104DF0009F92AF92BF92CF92DF92EF92FF92CF93AA
:104E0000DF93EC01688179818A819B81611571054D
:104E10008105910521F464E279ED8BE597E02DE1C0
:104E200033EF41E050E00E94E52749015A019B0120
:104E3000AC01A7EAB1E40E9404286B017C01ACEE4E
:104E4000B4EFA50194010E941228DC01CB018C0D66
:104E50009D1DAE1DBF1DB7FF03C00197A109B0483E
:104E600088839983AA83BB83BC01CD019F77DF919F
:104E7000CF91FF90EF90DF90CF90BF90AF909F9039
:104E80008F9008950E94F726089583E191E00E9493
:104E9000F726089560931301709314018093150110
:104EA0009093160108950E94952708F481E00895D3
:104EB000E89409C097FB3EF49095809570956195B4
:104EC0007F4F8F4F9F4F9923A9F0F92F96E9BB276A
:104ED0009395F695879577956795B795F111F8CFE6
:104EE000FAF4BB0F11F460FF1BC06F5F7F4F8F4F51
:104EF0009F4F16C0882311F096E911C0772321F047
:104F00009EE8872F762F05C0662371F096E8862FDE
:104F100070E060E02AF09A95660F771F881FDAF735
:104F2000880F9695879597F90895990F0008550F62
:104F3000AA0BE0E8FEEF16161706E807F907C0F01F
:104F400012161306E407F50798F0621B730B840B27
:104F5000950B39F40A2661F0232B242B252B21F401
:104F600008950A2609F4A140A6958FEF811D811DA1
:104F700008959FEF80EC089557FD9058440F551FFA
:104F800059F05F3F71F04795880F97FB991F61F0CB
:104F90009F3F79F087950895121613061406551F42
:104FA000F2CF4695F1DF08C0161617061806991FAE
:104FB000F1CF86957105610508940895E894BB27A3
:104FC00066277727CB0197F90895052E97FB1EF4E6
:104FD00000940E94FC2757FD07D00E944E2807FC32
:104FE00003D04EF40C94FC275095409530952195B4
:104FF0003F4F4F4F5F4F0895909580957095619505
:105000007F4F8F4F9F4F08950E947028A59F900D4E
:10501000B49F900DA49F800D911D11240895B7FF9A
:105020000C9404280E940428821B930B08952F924D
:105030003F924F925F926F927F928F929F92AF9228
:10504000BF92CF92DF92EF92FF920F931F93CF9375
:10505000DF93CDB7DEB7CA1BDB0B0FB6F894DEBF0C
:105060000FBECDBF09942A88398848885F846E8432
:105070007D848C849B84AA84B984C884DF80EE807C
:10508000FD800C811B81AA81B981CE0FD11D0FB685
:10509000F894DEBF0FBECDBFED010895A1E21A2E38
:1050A000AA1BBB1BFD010DC0AA1FBB1FEE1FFF1FCC
:1050B000A217B307E407F50720F0A21BB30BE40B1C
:1050C000F50B661F771F881F991F1A9469F7609563
:1050D0007095809590959B01AC01BD01CF0108951D
:1050E000A29FB001B39FC001A39F700D811D112429
:1050F000911DB29F700D811D1124911D08950E9474
:1051000086286894B1110C94DF2708950E94C42763
:1051100088F09F5798F0B92F9927B751B0F0E1F078
:10512000660F771F881F991F1AF0BA95C9F714C028
:10513000B13091F00E94DE27B1E008950C94DE2793
:10514000672F782F8827B85F39F0B93FCCF3869561
:1051500077956795B395D9F73EF4909580957095BE
:1051600061957F4F8F4F9F4F089519F416F40C945B
:10517000B9270C94FB280E94C427B8F39923C9F3DC
:10518000B6F39F57550B87FF0E9409290024A0E61C
:1051900040EA900180585695979528F4805C660FF8
:1051A000771F881F20F026173707480730F4621B47
:1051B000730B840B202931294A2BA6951794079449
:1051C000202531254A2758F7660F771F881F20F0C2
:1051D00026173707480730F4620B730B840B200D3A
:1051E000311D411DA09581F7B901842F9158880F79
:1051F0009695879508959F3F31F0915020F48795BB
:1052000077956795B795880F911D9695879597F92E
:10521000089591505040660F771F881FD2F7089568
:10522000991B79E004C0991F961708F0961B881FF8
:105230007A95C9F78095089597FB072E16F4009488
:1052400007D077FD09D00E94362907FC05D03EF42F
:10525000909581959F4F0895709561957F4F089522
:10526000EE0FFF1F0590F491E02D0994AA1BBB1BC4
:1052700051E107C0AA1FBB1FA617B70710F0A61B56
:10528000B70B881F991F5A95A9F780959095BC0177
:10529000CD010895A0E0B0E0E0E5F9E20C941B2810
:1052A000EC01009721F4CB010E94CA25B8C0FC0193
:1052B000E60FF71F9C0122503109E217F30708F4AB
:1052C000ACC0D9010D911C91119706171707B0F0CA
:1052D0000530110508F49FC0C80104978617970789
:1052E00008F499C002501109061B170B0193119382
:1052F0006D937C93CF010E945F268DC05B01A01A45
:10530000B10A4C01800E911EA0918C07B0918D07BF
:1053100040E050E0E12CF12C109709F44AC0A815A8
:10532000B905D1F56D907C901197630182E0C80EAC
:10533000D11CCA14DB0480F1A3014A195B096A017C
:1053400082E0C80ED11C1296BC9012971396AC91B5
:10535000B5E0CB16D10440F0B282A38351834083E1
:10536000D9016D937C930AC00E5F1F4FC301800F5C
:10537000911FF90191838083EB2DFA2FE114F10441
:1053800031F0D7011396FC93EE93129744C0F0933B
:105390008D07E0938C073FC08D919C911197481722
:1053A000590708F4AC017D0112960D90BC91A02D17
:1053B000B3CF80918A0790918B0788159905E1F406
:1053C00046175707C8F480910D0190910E01009780
:1053D00041F48DB79EB74091110150911201841B89
:1053E000950BE817F907C8F4F0938B07E0938A0749
:1053F000F901718360830FC0CB010E94CA257C0133
:10540000009759F0A801BE010E94192ACE010E94FE
:105410005F26C70104C0CE0102C080E090E0CDB796
:10542000DEB7EEE00C94372881E090E0F8940C941D
:10543000322AFB01DC0102C001900D924150504024
:10544000D8F70895FB01DC018D91019080190110BE
:10545000D9F3990B0895FB01DC0101900D92002016
:10546000E1F7089515E0CCE5D5E004C0FE010E9407
:0E54700030292196CD35D107C9F7F894FFCF2A
:10547E000100E1000000000000FFFFFFFF00008EB2
:10548E000780000100000000000000FFFF0100FF88
:10549E00FF010000000000000000000100FFFF01FE
:1054AE0000FFFF00000000FFFF0100E0FF2000FFF3
:1054BE00FFFFFFFFFFFFFF8006001FBDF6FBDFBDF6
:1054CE00F6FBDFBDF6FBDF8000001FBDBFDBDFBDDF
:1054DE00BFDBDF8186181FFDF6FBFFFDF6FBFFFD30
:1054EE00801BFFFDB9DBFFFDB9DBFE0030C007FD01
:1054FE00BFDBFFFDBFDBFFFD801BFFFDBFDBFFFD45
:10550E00BFDBFF8006001FBDF6FBDFBDF6FBDF8CA9
:10551E0000031FEDBFDB7FEDBFDB7F8186181FBF52
:10552E00F6FFDFBFF6FFDF8000001FFFFFFFFFFF6C
:10553E00FFFFFF00000000000000007FF9FFE042C7
:10554E000904204209042042090420FFFFFFFE4205
:10555E00402420424024207E79E7E002000400022D
:10556E000004000200040002000400020004000215
:10557E000004000200040002000400020004000205
:10558E00000400020004007FF9FFE04209042042FB
:10559E0009042073F9FCE012402480124024807E1E
:1055AE0079E7E040090020400900207FFFFFE0007E
:1055BE000000000000000000001E003B000100077C
:1055CE000000000200050000002300390001000762
:1055DE0000000002000500000006003E0001000071
:1055EE000000000200050001000B00420001000057
:1055FE000000000700030001002C00320001000033
:10560E00000000070003000000000002000100007F
:10561E0000000007000500000000006C0001000003
:10562E0000000007000500000036002C00010000FD
:10563E000000000700320000C18081000000000061
:10564E000000DA0BB9100B12F00B52110F122D12C3
:10565E0000000000BA0A8705C105C0050000000061
:10566E00C4058705C105C0057469746C65006E6557
:10567E007767616D65006E65776C6576656C006E3B
:10568E0065776C6966650063686173650072756E37
:10569E006E696E670067616D656F76657200736324
:1056AE0061747465720020204C41535420202020D8
:1056BE002020202020484947480020413A20504CC5
:1056CE0041592020202020433A205155495400476B
:1056DE00414D45204F56455200505245535320429E
:1056EE0020544F20434F4E54494E5545000D0A004D
:00000001FF
