:100000000C943F050C9467050C9467050C946705E8
:100010000C9467050C9467050C9467050C946705B0
:100020000C9467050C9467050C940F140C947E14C3
:100030000C9467050C9467050C9467050C94670590
:100040000C9467050C94FA160C9467050C946705DC
:100050000C9467050C9467050C9467050C94B01616
:100060000C9467050C9467050C9467050C94670560
:100070000C9467050C9467050C9467050C94670550
:100080000C9467050C9467050C9467050C94670540
:100090000C9467050C9467050C9467050C94670530
:1000A0000C9467050C9467050C9467050101FF0328
:1000B0000101F703B000AC0000000000240027009D
:1000C0002A002D003000D5F08D14A1C881CFD9F1C0
:1000D000AF200000000000250028002B002E00317A
:1000E0000003053F213F1208120A100A0E1C0E0CD5
:1000F0001E0C141A14161F161E131E1E1B1E1E1F66
:100100001E3F213F3A2F3A173D173F213F181F024C
:10011000040A041F0E04040E1F0A1F0A0E0E1F04F9
:10012000110E2E252E2F2A2E262929021F02081FE6
:1001300008150E04040E150E15151B151B040604D8
:10014000040C040000000017000300031F0A1F1620
:10015000371A1904130A153A000300000E11110E84
:10016000000A040A040E0400300004040400100015
:100170001804031F111F121F101D151711151F073B
:10018000041F17151D1F151D01011F1F151F171512
:100190001F000A00003200040A110A0A0A110A04A8
:1001A0000115020E11171E051E1F150A0E110A1F3A
:1001B000110E1F15111F05010E111D1F041F111F08
:1001C0001108100F1F041B1F10101F061F1E040F05
:1001D0000E110E1F09060E112E1F051A1215090108
:1001E0001F011F101F0F180F1F0C1F1B041B031CC8
:1001F00003191513001F11030418111F0002010237
:100200002020200001020C121E1F120C0C12120CD6
:10021000121F0C1A14041E05242A1E1F021C141D72
:100220001020201D1F0814111F101E041E1E021C6A
:100230000C120C3E0A040C123E1E040214160A0292
:100240000F120E101E0E100E1E081E120C12262863
:100250001E322A26041E21001F00211E0401020155
:100260003F213F05008930080238024978681400B0
:100270000020202020596F6461277300596F64614A
:10028000277300050570F858F8A8050570F858F8A8
:1002900050050570F8D0F8A8050570F8D0F850059D
:1002A0000570A8F8F8A8050570A8F8F850050570BD
:1002B000F8A8F8A8050570F8A8F850050570F8F832
:1002C000F8A80505000000000005050050500000DA
:1002D0000505000000000020202020596F646127E0
:1002E00073001605EE4CA4A8EAACCEAAE8A8EA4032
:1002F000AEAC48050570F8C0F870050570F8F8F860
:1003000070050570F8C0F870050570E0C0E0700574
:100310000570F8D8D850050570F8F8F87005057024
:10032000F8D8D850050570F8D88800050570F81879
:10033000F870050570F8F8F870050570F818F87091
:1003400005057038183870050550D8D8F8700505BF
:1003500070F8F8F870050550D8D8F87005050088D1
:10036000D8F8700505000088F870050500002070B9
:100370007005050000002020050588500050880504
:10038000053848D0F858050570B0E8702005051804
:1003900070F8D870050550F8F8E8500505F870B801
:1003A000E8700505A8F8D8702005052050B8B87089
:1003B000050570F850507054630000000000000004
:1003C0000000000000000000000000000000007FAE
:1003D000FFFFFFFFFFFFFFFFFFE0800000000000C6
:1003E00000000000103FFFFFFFFF0FFFFFFFFFC0F7
:1003F00040000000009000000000204000000000CD
:10040000900000000020400000000090000000006C
:10041000204000000000900000000020400000008C
:100420000090000000002040FF01FFC0903FF80F47
:10043000F0204100820020904004100820410082FA
:1004400000209040041008204100820020904004C9
:100450001008204100820020904004100820410034
:1004600082002090400410082040FF01FFC0603F40
:10047000F80FF020400000000000000000002040C5
:10048000000000000000000000204000000000000C
:1004900000000000204000000000000000000020DC
:1004A000400000000000000000002040FF0180FF2D
:1004B000FFF0180FF02041008241000008241008CE
:1004C00020410082410000082410082040FF024023
:1004D000FF0FF0240FF020400002400090002400A5
:1004E0000020400002400090002400002040000254
:1004F00040009000240000204000024000900024B2
:1005000000002040000240009000240000203FFF37
:10051000023FC0903FC40FFFC08000820020904087
:10052000041000107FFE82002090400417FFE000BE
:1005300002823FC0603FC4140000000282400000FD
:100540000024140000000282400000002414000077
:1005500000028240000000241400000002824000DB
:100560000000241400000002824000000024140057
:100570000000028241FC03F824140000FFFE8241C7
:1005800005FA082417FFF0000082417C03E82410DC
:100590000000FFFF0181400028180FFFF00000005D
:1005A0000140002800000000000000014000280079
:1005B00000000000000001400028000000000000D2
:1005C0000001400028000000000000000140002859
:1005D00000000000FFFF0181400028180FFFF0001D
:1005E0000082417FFFE824100000FFFE82410000EE
:1005F000082417FFF000028241FFFFF824140000D6
:10060000000282400000002414000000028240002A
:1006100000002414000000028240000000241400A6
:10062000000002824000000024140000000282400A
:100630000000002414000000028240FFFFF0241498
:1006400000007FFE82410000082417FFE080008246
:1006500041000008241000103FFF0180FF0FF01838
:100660000FFFC0400000000090000000002040008C
:1006700000000090000000002040000000009000FA
:10068000000000204000000000900000000020401A
:100690000000000090000000002040FF01FFC0901B
:1006A0003FF80FF020410082002090400410082005
:1006B000410082002090400410082040FC81FFC0CF
:1006C000603FF813F020400480000000000012009A
:1006D0002040048000000000001200204004800040
:1006E0000000000012002040048000000000001202
:1006F000002040048000000000001200203E048121
:1007000080FFFFF0181207C0010482410000082496
:1007100012080001048241000008241208003E0370
:100720000240FF0FF0240C07C04000024000900080
:1007300024000020400002400090002400002040DF
:100740000002400090002400002040000240009081
:1007500000240000204000024000900024000020FF
:1007600040FFFC3FC0903FC3FFF02041000000204D
:100770009040000008204100000020904000000848
:100780002040FFFFFFC0603FFFFFF020400000005F
:1007900000000000000020400000000000000000F9
:1007A0000020400000000000000000002040000089
:1007B00000000000000000204000000000000000D9
:1007C0000000203FFFFFFFFFFFFFFFFFFFC0800093
:1007D0000000000000000000107FFFFFFFFFFFFF90
:1007E000FFFFFFE00000000000000000000000002C
:1007F00000000000000000000000080B00020202E0
:10080000000009040000010202000005240010019C
:100810000524010101042402060524060001070540
:10082000810310004009040100020A0000000705CE
:10083000020240000007058302400000040309048F
:1008400012010002EF020140412336800001010243
:10085000030141726475696E6F204C4C4300417214
:100860006475696E6F204C656F6E6172646F0045D0
:1008700000680100000500380168010000401AFF0F
:10088000FFFFFFFFFFFFFF0000000000000000FF70
:100890000403E10040810FFF8407F180C0818FFFD6
:1008A0008E0FF9C1C1C1CFF7CE0FF9E3C1C1EFFF80
:1008B000DF1FFDF7C3E1FFFF5F1FFDFFC3E1FFFE89
:1008C0009F1FF5FF43E1FDE1BF9F75FF47F1FDEF7E
:1008D0003B9FF5FF4771FDE87F5FF5FF4FE9FDE8BE
:1008E0007F5FF5FF4FE9FDE87F5FF5FF4FE9FDE82A
:1008F000FFAFE9FF5FF5FDE8FFAFD1FF5FF5FDC892
:10090000FF2629FE5FE5F9F8FFE3DDFFDFFDFF00CD
:1009100000000000000000FFFFFFFFFFFFFFFF00DF
:1009200000000000000000A6C66AECE66E66CEAAD3
:10093000AA8A4A8AAA8AA8AAAEEA4ACAEC8EAC4A0D
:10094000AA2A4A8AAA8AA84ECAE4ECEEAAEACE17D4
:1009500053440016137800161314001510200015C8
:10096000201000540A03E181867F3E186D830F0F2B
:100970000E0183866033186DC3198F1803C38E6010
:1009800033186DE330CF1803C39E603630CDE3607B
:10099000CF3006C79E7E3E30CDB360CF300CC6F65A
:1009A000603330D9B660CF33CFCCF66061B0DB1E98
:1009B00060CF30D86CE6C061B0DB1E618F19986CD7
:1009C000C6C063B19B0E330F0FB078C6FF7E1F1BEE
:1009D000061E0FF6E8DBCFC3B8AEA49B928A827BDB
:1009E000746E68625C57524E4945413E3A37343125
:1009F0002E2C29272523211F1D1C1A191716151403
:100A0000131211100F0E0D0C0B0A09080706000037
:100A100000002300260029002C002F0004040404F9
:100A20000403040502020202040302020202060693
:100A30000606060604040202020404040802011069
:100A40004080401020408040800802040180402007
:100A50001002011080102040402000000002000918
:100A60000F0000030401000C000000000000000063
:100A700000000000000000000000C61750261124EE
:100A80001FBECFEFDAE0DEBFCDBF13E0A0E0B1E0E4
:100A9000E8E0F6E502C005900D92A437B107D9F75A
:100AA00027E0A4E7B3E001C01D92AC3FB207E1F735
:100AB00015E0CEE3D5E004C02197FE010E94072A8D
:100AC000CD33D107C9F70E94EC170C94F72A0C9488
:100AD0000000CF93DF93EBEDF7E0C081D1818881F7
:100AE000AFEDB7E09C91892B8883C091DD07D09151
:100AF000DE0798818091E0078095892388830190A3
:100B0000F081E02D90818C91809589238083DF9105
:100B1000CF910895FC0180919D04882311F13FB786
:100B2000F89482E08093E9002091F200822F90E017
:100B30001816190614F481E090E0882339F02898FB
:100B400044E640939C044091F1004083222339F015
:100B50002091F200211103C02BE62093E8003FBF53
:100B600008958FEF9FEF08952FB7F89483E0809357
:100B7000E9009091E800892F807295FF04C0909160
:100B8000F20080E4891B2FBF0895809194048111A5
:100B90000DC082E08093900484E0809391041092D1
:100BA00093041092920481E08093940480E994E08D
:100BB0000895CF93DF931F92CDB7DEB76983DC0131
:100BC000ED91FC910280F381E02D41E050E0BE0107
:100BD0006F5F7F4F09950F90DF91CF91089583E06C
:100BE0008093E9008091F200882319F08AE38093D2
:100BF000E80008950E94B40590E00895CF93DF9334
:100C00001F92CDB7DEB7FC018485958597FD08C09E
:100C10002FEF3FEF358724870F90DF91CF91089515
:100C2000CE0101960E948A05019719F4898190E00E
:100C3000F3CF8FEF9FEFF0CF0F931F93CF93DF93FF
:100C40001F92CDB7DEB78C01FC018485958597FF97
:100C50000BC0CE0101960E948A05019771F489812B
:100C600090E0F80195878487F801848595850F9039
:100C7000DF91CF911F910F9108958FEF9FEFF1CFEB
:100C8000FC018485958597FD0BC09FB7F89482E0A1
:100C90008093E9008091F2009FBF90E00196089553
:100CA0009FB7F89482E08093E9008091F2009FBFA3
:100CB00090E0089540918A0450918B04209188041B
:100CC0003091890442175307B4F49091E80095706D
:100CD000E1F39091E80092FD19C08093F1008091BA
:100CE0008A0490918B0401968F739927892B19F4AC
:100CF0008EEF8093E80080918A0490918B04019696
:100D000090938B0480938A0481E0089580E0089595
:100D1000EF92FF920F931F93CF93DF93F82E192F2B
:100D2000E62E042F81E0860F880F0E945A0683E08A
:100D30000E945A06CF2DD12FEC0EFD2EF11CCE15A0
:100D4000DF05B9F007FF13C0FE0184910E945A0627
:100D5000182F80E00E945A06812321968111EFCF3F
:100D6000DF91CF911F910F91FF90EF9008958881AF
:100D7000EDCF81E0F5CFDF92EF92FF920F931F93BB
:100D8000CF93DF93D82E8A01EB017B01E40EF51E91
:100D9000CE15DF0559F0D7FE12C0FE0184910E94E6
:100DA0005A0621968111F4CF0FEF1FEFC801DF9192
:100DB000CF911F910F91FF90EF90DF900895888160
:100DC000EECF0F931F93CF93DF931F92CDB7DEB774
:100DD00082E0898342E450E06AEF77E080E80E9495
:100DE000BB060E94C505DC0112960D911C910115F0
:100DF000110589F0D801ED91FC910280F381E02D7D
:100E0000BE016F5F7F4FC801099597FD04C0F801CF
:100E100000851185ECCF89810F90DF91CF911F91D3
:100E20000F910895615030F02091F100FC01208372
:100E30000196F8CF289884E680939C040895AF9299
:100E4000BF92CF92DF92EF92FF920F931F93CF93B7
:100E5000DF936C017B018B01040F151FEB015E0119
:100E6000AE18BF08C017D10759F06991D601ED91AE
:100E7000FC910190F081E02DC6010995892B79F74D
:100E8000C501DF91CF911F910F91FF90EF90DF90FF
:100E9000CF90BF90AF90089581508F3008F047C039
:100EA000E82FF0E0EA5AF84F0C94072A7307770707
:100EB00065076B076F079707970797077A078007FC
:100EC000840788078E0797079207809180008F77A5
:100ED000809380000895809180008F7DF9CF80916C
:100EE0008000877FF5CF84B58F7784BD089584B562
:100EF0008F7DFBCF809190008F7780939000089535
:100F0000809190008F7DF9CF80919000877FF5CF01
:100F10008091C0008F778093C00008958091C000B9
:100F20008F7DF9CF8091C200877F8093C2000895A2
:100F30001F93CF93DF93282F30E0F901E65AF54F46
:100F40008491F901E55CF54FD491F901E45EF54F28
:100F5000C491CC23A9F0162F81110E944C07EC2FCD
:100F6000F0E0EE0FFF1FED52FF4FA591B4918FB748
:100F7000F894EC91111108C0D095DE23DC938FBF5B
:100F8000DF91CF911F910895DE2BF8CFCF93DF93A0
:100F900090E0FC01E55CF54F2491845E954FFC01E7
:100FA00084918823C9F090E0880F991FFC01E854D0
:100FB000FF4FA591B491FC01ED52FF4FC591D49123
:100FC00061110DC09FB7F8948C91209582238C936A
:100FD0008881282328839FBFDF91CF9108956230B5
:100FE00051F49FB7F8943C91822F809583238C9382
:100FF000E8812E2BEFCF8FB7F894EC912E2B2C930A
:101000008FBFEACFDF92EF92FF920F931F93CF93A0
:10101000DF93CAE0D7E000E117E0EE24EA9462E053
:101020008A850E94C6072A8530E0F901E65AF54F05
:101030008491F901E55CF54FF490F901E45EF54F18
:10104000D490DD2029F181110E944C07ED2DF0E0B4
:10105000EE0FFF1FE25FF54FA591B491EC918989E6
:10106000FE22B1F081111CC021960C171D07B9F6A4
:101070008091210790911B0791509E3FB8F4909169
:101080001D0791509E3F90F48F5F8093210714C0FD
:1010900089898F5F898B60E08A850E94C607E4CFCB
:1010A0008F3F11F4198AF7CFE98AF5CF882321F011
:1010B0008F3F51F410922107DF91CF911F910F9133
:1010C000FF90EF90DF9008958FEFDFCF3FB7F89458
:1010D0008091790390917A03A0917B03B0917C0376
:1010E00026B5A89B05C02F3F19F00196A11DB11D83
:1010F0003FBFBA2FA92F982F8827BC01CD01620FBF
:10110000711D811D911D42E0660F771F881F991F79
:101110004A95D1F708958F929F92AF92BF92CF9246
:10112000DF92EF92FF924B015C010E9466086B0117
:101130007C010E9466086C197D098E099F09683E32
:10114000734081059105A8F321E0821A9108A10856
:10115000B10888EEC80E83E0D81EE11CF11C811492
:101160009104A104B10429F7FF90EF90DF90CF9094
:10117000BF90AF909F908F9008958F929F92AF9263
:10118000BF92CF92DF92EF92FF920F931F93CF9374
:10119000DF936C017B018A0180910C01882309F4A3
:1011A0005CC080919D04882309F457C080918F040E
:1011B00080FF05C08091E00082608093E000E8013C
:1011C000B12C8AEFA82E93E0892E2AE3922E209745
:1011D00011F4BB20D9F10E94B40581110AC0AA9470
:1011E000AA20D9F161E070E080E090E00E948B08D5
:1011F000EECF8C171D0611F00CF08C2F9FB7F894D2
:101200008092E9002091E80025FD02C09FBFDFCF5A
:10121000282F30E0C21BD30BF701815020F0419101
:101220004093F100FACFE20EF31EBB2021F0909222
:10123000E800B12CEBCF8091E80085FDE7CF9092DC
:10124000E800BB24B394209709F3F3CF5D9884E6BC
:1012500080938E04101611063CF081E090E0F601B8
:101260009383828310E000E0C801DF91CF911F914A
:101270000F91FF90EF90DF90CF90BF90AF909F9035
:101280008F90089550E0DA01AA0FBB1FA80FB91F75
:1012900070E0660F771FD396ED91FC91D497E60F1F
:1012A000F71F25913491AD58BF4F2D933C93F90111
:1012B00065917491FC017089769F602D1124840FD3
:1012C000951FFC01E558FF4F6083F901A591B4918A
:1012D0004B2F50E06417150629F020F0F9012591F5
:1012E0003491632F81589F4F769F602D1124FC010C
:1012F000608308958091A6068823E9F08091960680
:101300009091A706992319F090919706890F9091D3
:10131000A806992319F090919806890F9091A90633
:10132000992319F090919906890F90E09093990074
:1013300080939800089580E0E3CF643029F170E055
:101340009C01260F371FF901ED5AFF4F1082389785
:101350001082FB01EE0FFF1FE80FF91FED57FF4F43
:1013600011821082295A3F4FF9011082FB01EA567F
:10137000F94F1082FB01E656F94F10826A55794FFA
:10138000FB0110820C947A090895EF92FF920F935B
:101390001F93CF93DF93EC017B01042F10E04430C7
:1013A00019F0642F0E949D09F801EE0FFF1FEC0F4A
:1013B000FD1FF4A6E3A6FF9611821082FE01E00F46
:1013C000F11F81E08483DF01A15BBF4F89E08C9333
:1013D0001C961C9218961C92E559FF4F1082DF91C3
:1013E000CF911F910F91FF90EF900895CF93DF93CE
:1013F000A82FB0E0ED01C65FD84F9DA19923D9F089
:1014000099A5911118C0AA0FBB1FA65FB84FFE0186
:10141000E05CFF4FE0812E2F30E0220F331FD89683
:10142000ED91FC91D997E20FF31F259134912F3F55
:10143000320721F41DA2DF91CF910895FE01E45BF4
:10144000FF4F30835F963327220F331F9596ED9120
:10145000FC91E20FF31F65917491843029F0482FBD
:101460008FE297E00E94C509C05CDF4F88818F5FE3
:101470008883E1CF2F923F925F926F927F928F92FB
:101480009F92AF92BF92CF92DF92EF92FF920F9313
:101490001F93CF93DF93EC01F901E490319684918F
:1014A00064350CF015C140330CF012C10E2C000C49
:1014B000FF08062F062E000C110BF701E00FF11F9D
:1014C0001E161F060CF004C1A82FC42E042E000CFB
:1014D000DD085601A80EB11C87FDBA941A141B042E
:1014E0000CF0F6C02E5F3F4F570197E0A90EB11CDC
:1014F000B7FE04C05701BEE0AB0EB11CB3E0B5941B
:10150000A794BA95E1F747FF0AC0A42FA80FAC9C97
:10151000C001AD9C900D1124281B390B40E08A2F8F
:101520000A2E000C990B840F911D47FD9A95C197C7
:1015300014F0A0E3A41BFF8467FD60E0E535F1052E
:1015400014F0E4E5F0E09E2FCC85C427C62E062ECD
:10155000000CDD08F601E01BF10B8F014F01F7E0F5
:101560008F229924E0E8F0E002C0F595E7958A948F
:10157000E2F77E2F17FF02C0095F1F4FF3E01595BA
:101580000795FA95E1F7200F311F542F577081E02E
:1015900001C0880F5A95EAF7459545954595F6019E
:1015A000B4E54B02E00DF11D1124AF0142565B4F33
:1015B000D0E02A2EAA0F3308EE24E394BB24D215E0
:1015C00013040CF085C0F9015490F1E0FF121AC029
:1015D000962E8A01E72F6901991608F057C08E2EC2
:1015E000852021F0D8018C90882A8C92E69531F4E0
:1015F000BFEFCB1ADB0AF6015490E0E893940F5F3B
:101600001F4FEACFF1101CC0782E7094962E8A01DD
:10161000E72F6901991608F039C08E2E852021F038
:10162000D8018C9087208C92E69531F4BFEFCB1ACD
:10163000DB0AF6015490E0E893940F5F1F4FEACF66
:10164000F3E0FF122CC0782E7094862E8A01972E1C
:1016500069018916D0F4E92DE52141F0D801EC911A
:101660006C2E682460FE0FC0E82BEC93969439F43E
:10167000BFEFCB1ADB0AF6015490E0E89E2E83946C
:101680000F5F1F4FE6CFE721F0CFCE25880F19F46B
:101690004C5A5F4F81E0DF5F2A0D3B1D90CF962EA5
:1016A0008A01E72F6901991688F78E2E852021F08F
:1016B000D8018C9088268C92E69531F4BFEFCB1A36
:1016C000DB0AF6015490E0E893940F5F1F4FEBCFD5
:1016D000DF91CF911F910F91FF90EF90DF90CF900E
:1016E000BF90AF909F908F907F906F905F903F9052
:1016F0002F900895DC01643570F5403360F51F9636
:101700008C911F97E62F062E000CFF0B242F25959A
:101710002595259594E52902E00DF11D1124E25649
:10172000FB4F2081342F37708230B1F4822F90E04C
:10173000032E02C0959587950A94E2F780958170F3
:10174000811114C081E090E001C0880F3A95EAF75A
:101750008095822380830895833091F71C968C9125
:1017600081706427609561708613ECCF81E090E012
:1017700001C0880F3A95EAF7822BECCFAF92BF9267
:10178000CF92DF92EF92FF920F931F93CF93DF934D
:10179000182F062FC0E0D3E08AEFD82E9EEFE92E57
:1017A000842F8470C82E842F8270B82E842F887066
:1017B000A82E4170F42ECF5F8C2F880F8F5FE80E1C
:1017C000CC2081F0402F4D0F612F6C0F8AEC97E0F9
:1017D0000E947A0B402F4C0F6D2F610F8AEC97E01F
:1017E0000E947A0BBB2081F0402F4D1B612F6C0FA4
:1017F0008AEC97E00E947A0B402F4C1B6D2F610FF3
:101800008AEC97E00E947A0BAA2081F0402F4C0FBF
:10181000612F6D1B8AEC97E00E947A0B402F4D0FD1
:10182000612F6C1B8AEC97E00E947A0BFF2081F0FD
:10183000402F4C1B612F6D1B8AEC97E00E947A0BA6
:10184000402F4D1B612F6C1B8AEC97E00E947A0B96
:10185000CD173CF4E7FCAFCFD150D394D394ED0C2B
:10186000AACFDF91CF911F910F91FF90EF90DF9062
:10187000CF90BF90AF900895EF92FF920F931F9378
:10188000CF93DF938C01F62ED42FE22EC0E0CE153D
:1018900044F46F2D6C0F4D2FC8010E947A0BCF5F5F
:1018A000F6CFDF91CF911F910F91FF90EF900895A8
:1018B0002F923F924F925F926F927F928F929F9260
:1018C000AF92BF92CF92DF92EF92FF920F931F934E
:1018D000CF93DF9300D000D0CDB7DEB79C838B834E
:1018E0006A3099F4DC0116962C91169718969C9103
:1018F00018971A968C911A97299F800D11241A9681
:101900008C931A9719961C92F0C06D3009F4EDC0B3
:10191000EB81FC815184F3E5F5150CF4C3C0AB8178
:10192000BC811A96FC90BFE2BF150CF4BBC0EB81E2
:10193000FC81168127812150330B129FC001139F18
:10194000900D1124850D911D57FC9A9518161906B6
:101950000CF0A8C020858F2D0F2C000C990B129F26
:10196000800D911D1124181619060CF09BC0F785E7
:10197000F983752C612C262E312CA12E012E000C02
:10198000BB08E62D062C000CFF0BAB81BC81179623
:101990008C91179790E0E817F9070CF07EC001973B
:1019A000E817F907A1F1289E6001299ED00C389E06
:1019B000D00C1124CE0EDF1E1D96ED91FC91EC0D86
:1019C000FD1DE4910F2DE12CB62DB50DBA83AB8131
:1019D000BC8118962C9118978E2D0E2C000C990B0B
:1019E0002817190609F00CF455C0CE2ED12CE0FFB3
:1019F00026C0113071F44E2D4F0D6A81CD010E9429
:101A00007A0BF601F595E795E394010FE0CFE0E05E
:101A1000D9CF402E4501800E911C07FD9A94842D4C
:101A2000042C000C990B881599055CF7212F442D87
:101A3000672D8B819C810E943C0C4394F0CFEB81FD
:101A4000FC81808997858917E1F28787113061F4DD
:101A50004E2D4F0D6A81CF010E947A0BE981AB8137
:101A6000BC811F96EC93CDCF402E4501800E911C7A
:101A700007FD9A94842D042C000C990B8815990568
:101A80006CF7212F442D672D8B819C810E943C0C8B
:101A90004394F0CF6394710E74CFE981AB81BC8124
:101AA0001F96EC93AB81BC8116962C9116971796D6
:101AB0003C91179719968C911997239F800D1124AB
:101AC00019968C93199715969C911597992369F0FF
:101AD000082E000C990B44E550E0239F4019510952
:101AE0001124481759070CF401CF81E090E00F90C2
:101AF0000F900F900F90DF91CF911F910F91FF905A
:101B0000EF90DF90CF90BF90AF909F908F907F909D
:101B10006F905F904F903F902F9008950F931F9379
:101B2000CF93DF938C01D0E0C0E0F801EC0FFD1FF4
:101B30006491662341F08AEC97E00E94580C892B4F
:101B400011F02196F2CFCE01DF91CF911F910F912D
:101B50000895EF92FF920F931F93CF93DF938C0121
:101B6000D62FF42EE22EC0E0CE1544F44F2D4C0FAC
:101B70006D2FC8010E947A0BCF5FF6CFDF91CF9116
:101B80001F910F91FF90EF9008958F929F92AF92C7
:101B9000BF92CF92DF92EF92FF920F931F93CF935A
:101BA000DF93082FB62E942EA22E83E0F82ED0E0DD
:101BB000C3E09AEFE92E1EEFCC24C394C20EDF5F80
:101BC0001F0D2C2F220F4B2D4C1B8A2C8F0CDB2C26
:101BD000DD1A81E02C0D602F981218C06D0F8AEC71
:101BE00097E00E94A90D282D4D2D6C2F600F8AECD7
:101BF00097E00E94A90DDC179CF417FD04C0C150AA
:101C0000E394E3941E0DF394F394D9CF6D1B8AEC07
:101C100097E00E94A90D282D4D2D602F6C1BE7CF5A
:101C2000DF91CF911F910F91FF90EF90DF90CF90B8
:101C3000BF90AF909F908F9008958EBD00000DB41F
:101C400007FEFDCF8EB50895089590E080E00895D9
:101C5000EF92FF920F931F93CF93DF937B01EB01E2
:101C6000C65FD84FFE01EC58FF4F8C0194E0000F87
:101C7000111F9A95E1F7D801A95EBE4F1C969C9161
:101C800090839B3008F09AE09083095E1E4F4E2DA2
:101C9000D8016C918FE297E00E944209F80180859B
:101CA000819590913F07FE01E058FF4FD8011A96A9
:101CB0002C911A97299F202D1124208334968083FC
:101CC00014968C9114978A53349616962C911697E5
:101CD000299F202D11242083349680831E968C9179
:101CE0001E97B09712962C9120833496899F802D51
:101CF00011248083E05CFF4F1082F701EE0FFF1F7D
:101D0000E357F84F16A215A2FE01E858FF4F81E0F5
:101D10008083F701EA55F94F8083C458DF4F18825A
:101D2000DF91CF911F910F91FF90EF9008956F92E7
:101D30007F928F929F92AF92BF92CF92DF92EF925B
:101D4000FF920F931F93CF93DF934091F107509130
:101D5000F2076091F3077091F4072FB7F894809120
:101D6000AA069091AB06A091AC06B091AD062FBF2C
:101D7000481B590B6A0B7B0B8091F00790E0B0E099
:101D8000A0E00091E9071091EA072091EB0730915C
:101D9000EC0784179507A607B70708F056C001158A
:101DA00011052105310509F450C02FB7F894809131
:101DB000AA069091AB06A091AC06B091AD062FBFDC
:101DC0002091F007820F911DA11DB11D8093F10795
:101DD0009093F207A093F307B093F4078091E10783
:101DE0009091E207A091E307B091E4070196A11D4D
:101DF000B11D8093E1079093E207A093E307B093AE
:101E0000E4071092E9071092EA071092EB0710928C
:101E1000EC070E9466086093E5077093E6078093DD
:101E2000E7079093E8070E94020881E0DF91CF91D5
:101E30001F910F91FF90EF90DF90CF90BF90AF90E8
:101E40009F908F907F906F90089580E0012B022BE0
:101E5000032B61F70E94F60981E00E94F60982E0F7
:101E60000E94F60983E00E94F6090AE517E0C6E73A
:101E7000D7E0F12CE12CDD24D394CE2CDE01A35449
:101E8000B1098C91882309F468C08C81811165C0E7
:101E9000F8012081318184899589FC01EE0FFF1FB3
:101EA000E20FF31F85919491009769F4FE013C972E
:101EB00080818823C1F1D80155961C921E925497B7
:101EC000F901859194919C01369527953695279532
:101ED000422F80FFD6C0BC0136E0769567953A95D3
:101EE000E1F76F71892F86958695869580512F70C1
:101EF000223009F4B6C008F09CC0222309F4A6C021
:101F0000213009F4A8C0D8015496ED91FC91559761
:101F100031965596FC93EE935497CF01880F991FF5
:101F2000ED91FC9112C01C92FE01E754F1098081F1
:101F3000882371F08E2D0E94F609F8018489958915
:101F4000880F991F0190F081E02DE80FF91FB9CF9C
:101F50006E2D8FE297E00E949D09FFEFEF1AFF0AB6
:101F60000E5F1F4F219624E0E216F10409F085CFA1
:101F7000CAE0D7E00AE717E07AEBE72E77E0F72E22
:101F80005E01D12CC12CEBE36E2E712CF2E08F2E72
:101F9000912CD80118968C911897882341F08C9138
:101FA00081118DC06C2D8FE297E00E949D09BFEFDB
:101FB000CB1ADB0A2196E2E0AE0EB11C0F5F1F4F79
:101FC000FFEFEF1AFF0A24E0C216D10411F7809147
:101FD000F507882309F4B3C1CCE0C81B8C3008F0A6
:101FE000C0E081E08093D0071092D9071092DA0701
:101FF000D091D20793E0E92EED0E1C2F1D1B0DE2B0
:10200000010F0E2C000CFF08E00EF11C07FDFA94E6
:10201000802F002E000C990B8E159F050CF02AC105
:102020002EE4402F63E08AEC97E00E943C0C0F5FA7
:10203000EFCF2330F1F0243009F065CF90913F07C6
:10204000969F602D11246CA388A75DCF6B3008F09C
:102050006AE0688758CF4C2D8FE297E00E944209D2
:1020600052CF90913F07969F602D11246C8B888FE3
:102070004ACF90913F07969F602D11246C8F88A3C3
:1020800042CF4F73488380913F07899F802D112451
:102090008C83FE01EC5BFF4F1082F801E85AFF4F82
:1020A00011821082DC86F701EA55F94FD082188A36
:1020B000F801848995890196958B848B4ECF815048
:1020C000F8018083D7018C91811142C0D501A855B8
:1020D000BF4F2D913C9111972F5F3F4FC901880F42
:1020E000991FF501E856FF4F0190F081E02DE80FB0
:1020F000F91F85919491482F4770F7014483492F28
:10210000469546954087AC0164E0569547956A959B
:10211000E1F74F7390913F07499F402D1124408371
:10212000F601EE55F94F83FB882780F980831196DD
:102130003C932E93F80180A990E02817390740F0CE
:1021400024A9222309F48EC0821B91098D939C93AC
:10215000D7018C9181508C93F801848531E0380F40
:102160003487FE01E459FF4F408118962C91240FCB
:10217000B0978081280F2DA7D80158966C916623BF
:1021800069F070E0832F032E000C990B0E94F32955
:10219000F801848D869F200D11242DA78DA590E038
:1021A000CB96B3010E94F3298DA7D80114962C91E8
:1021B000149729AB50966C91662379F0062E000C8B
:1021C000770B832F032E000C990B0E94F329F80143
:1021D0008489869F200D112429ABD80190966C919B
:1021E000662389F0832F330F990B70E00E94F32947
:1021F000CB01B4010E94F329F80124A199A9289FD9
:10220000900D112499AB4F3399F189A98A300CF0C4
:1022100089E087FD80E089ABF894EDA5F0E0ED5210
:10222000F64FE491D601A256B94FEC938091400746
:10223000D7011C969C911C97899F802D112499A9E8
:10224000899F802D112414969C91899F802D1124A3
:10225000F601E656F94F8083F601EA56F94F80837E
:102260007894A5CE6C2D8FE297E00E949D0970CFE7
:1022700019AAD2CFD450105D2D2F41E0612F80E5F7
:102280000E94C50D2D2F42E0612F83E00E94C50DF5
:1022900081E08093D9078093DA070091D2071C2F41
:1022A000101B8DE2F82EF10E2EE44F2D63E08AEC28
:1022B00097E00E943C0CD3E0D00FDF0D4FEF4D0FA5
:1022C0002EE463E08AEC97E00E943C0C0350105D22
:1022D000202F412F60E08AEC97E00E94A90D202F6B
:1022E000412F63E58AEC97E00E94A90D41E0612F40
:1022F00083E00E94BE0B42E0612F80E50E94BE0B8E
:10230000D45044E06D2F80E50E94BE0B48E06D2F55
:1023100083E00E94BE0B84E08093D3078091D207B4
:10232000C81BC15DC093D4078091F6079091F70751
:102330000E948E0D8091F50781508093F507809162
:10234000D6078F5F8093D6070EE914E0C0E00E94A5
:10235000690582E20E941D0ECF5F8C2F0E941D0E28
:1023600087E00E941D0E81E20E941D0E86E10E9400
:102370001D0E8FE70E941D0EE091DD07F091DE0734
:1023800080819091E007892B8083E091DB07F091B9
:10239000DC0790818091DF07809589238083780115
:1023A000D0E0D7018D917D010E941D0EDF5FD435F5
:1023B000C1F70C5A1F4FC63051F68091CE078111DC
:1023C0000EC0EEE9F4E088EF91E0DF019C011D9280
:1023D00021503040E1F71092D3071092D4070E94A9
:1023E00066086093E9077093EA078093EB07909380
:1023F000EC072091E5073091E607621B730B7093A1
:10240000EE076093ED0780E011CDFB010190002005
:10241000E9F73197AF01461B570B0C941F07CF9379
:10242000DF930E948E0DEC016CEE72E08AEC97E077
:102430000E9405128C0F9D1FDF91CF910895CF92BE
:10244000DF92EF92FF920F931F93CF93DF93EC01F4
:102450001092220781E08093D0071092CF0710924C
:10246000CE078093D9078093DA071CE00E94970E6D
:102470008823E1F3FE01049101110091D20723E6C4
:1024800039E040E060E08AEC97E00E943A0A4CE0D4
:10249000400F2DE738E060E08AEC97E00E943A0AAE
:1024A0001092D3071093D407CE010E948E0D809115
:1024B000D107982F990F990F891B8D5A8093D307B5
:1024C0008091D207982F990F990F891B835D809374
:1024D000D4078091E10784FF7FC08FE599E00E94D7
:1024E0000F128091D107982F990F990F891B8D5A40
:1024F0008093D3078091D4078F5F8093D407809116
:102500004007882309F46BC087E599E00E940F1209
:102510008091D107982F990F990F891B8D5A80931D
:10252000D3078091D4078F5F8093D4078FE499E01D
:102530000E940F12809120078130B1F480914007F2
:102540008F5F082E000C990B6091410770E06F5F60
:102550007F4F0E94F3298093400740E06FE678E0C8
:102560008FE297E00E94C50980911F078130B9F082
:102570008091EF07482F50E070E060E0C090E107E5
:10258000D090E207E090E307F090E407C416D50688
:10259000E606F70608F46ACF8F3F09F467CF8FEF9E
:1025A0008093EF0760E08FE297E00E949D09109210
:1025B000330740E065E778E08FE297E00E94C509C5
:1025C00081E080932207DF91CF911F910F91FF90BF
:1025D000EF90DF90CF9008958BE599E080CF83E571
:1025E00099E094CF8F929F92AF92BF92CF92DF9259
:1025F000EF92FF920F931F93CF93DF93CDB7DEB788
:10260000A1970FB6F894DEBF0FBECDBF6C01990F36
:10261000EE08FF08F7FE43C06DE28AEC97E00E94E7
:10262000580C8C0122273327A9012C193D094E098A
:102630005F0919A2CE0181967C019AE0892E912C26
:10264000A12CB12CCA01B901A50194010E94252930
:10265000605DF70162937F01211531054105510548
:1026600089F790E080E0309729F0BF018AEC97E08D
:102670000E940512800F911FA1960FB6F894DEBF3D
:102680000FBECDBFDF91CF911F910F91FF90EF90C3
:10269000DF90CF90BF90AF909F908F900895A7014B
:1026A000960119A28E010F5D1F4F8AE0C82ED12C12
:1026B000E12CF12CCA01B901A70196010E9425293C
:1026C000605DF80162938F012115310541055105C7
:1026D00089F790E080E0309779F2BF018AEC97E0CB
:1026E0000E940512C9CFFC0124813581232B39F4C6
:1026F00021E0FB018081882349F020E007C0808130
:1027000091810E94E72A21E0892BB9F7822F089551
:102710000F931F93CF93DF93EC01888199810097EA
:1027200059F02A813B812617370730F081E0DF918D
:10273000CF911F910F9108958B016F5F7F4F0E9482
:10274000212A009759F0998388831B830A832C815F
:102750003D81232B59F7FC011082E8CF80E0E7CFC1
:10276000CF93DF93EC01198218821B821A821D829B
:102770001C8270E060E00E948813288139818111F9
:102780000FC02115310519F0C9010E94FD261982DB
:1027900018821D821C821B821A82DF91CF910895BC
:1027A0001D821C826EEE72E0C901DF91CF910C9404
:1027B000F02AEF92FF920F931F93CF93DF93EC01D8
:1027C0007B01FB0101900020E9F731978F01061B87
:1027D000170BB8010E94881328813981811113C019
:1027E0002115310519F0C9010E94FD2619821882B0
:1027F0001D821C821B821A82DF91CF911F910F9143
:10280000FF90EF9008951D830C83B701C901DF91FC
:10281000CF911F910F91FF90EF900C94F02A1F928F
:102820000F920FB60F9211248F939F938091E10026
:102830009091E100937F9093E10083FF0FC010928D
:10284000E90091E09093EB001092EC0092E39093FA
:10285000ED0010929D0498E09093F00082FF22C05A
:1028600093E09093E9009091F200992319F09AE394
:102870009093E80090918E04992341F090918E04FA
:10288000915090938E04911101C05D9A90919C0497
:10289000992341F090919C04915090939C04911144
:1028A00001C0289A84FF18C08091E2008E7E81606A
:1028B0008093E2008091E1008F7E8093E10080911F
:1028C0008F048E7E806180938F049F918F910F90F3
:1028D0000FBE0F901F90189580FFF7CF8091E200F8
:1028E0008E7E80618093E2008091E1008E7E8093F5
:1028F000E10080918F048E7E8160E5CF1F920F9260
:102900000FB60F921124CF92DF92EF92FF920F93A6
:102910001F932F933F934F935F936F937F938F9367
:102920009F93AF93BF93EF93FF93CF93DF93CDB775
:10293000DEB76C97DEBFCDBF1092E9008091E80052
:1029400083FF25C068E0CE0145960E94120782EF02
:102950008093E8008D8987FF39C09091E80090FF4F
:10296000FCCF982F907609F034C19E894F89588DFD
:102970002F89F88C911131C0803861F580918D04D8
:102980008093F1001092F1008EEF8093E8006C9636
:102990000FB6F894DEBF0FBECDBFDF91CF91FF9190
:1029A000EF91BF91AF919F918F917F916F915F91C7
:1029B0004F913F912F911F910F91FF90EF90DF90DA
:1029C000CF900F900FBE0F901F9018959EEF909391
:1029D000E800C7CF1092F100D5CF913059F48111A2
:1029E000D3CF4130510581F680918D048D7F809346
:1029F0008D04CACF933049F48111C6CF41305105BF
:102A000019F680918D048260F2CF953041F4809167
:102A1000E80080FFFCCF20682093E300B5CF96301C
:102A200009F0A9C00B8D1C8D22E01092E9001092D4
:102A30008B0410928A04F2122EC010928904109214
:102A400088040E94E1061F8299E09983FA8291E04E
:102A50009E8390EA98879AEF998720918A04309113
:102A60008B04275F3F4F3C832B838D831092E900BB
:102A700010928B0410928A041093890400938804A6
:102A800049E050E0BE016F5F7F4F80E00E94BB06CF
:102A90000E94E10679CF10938904009388040E9474
:102AA000C505DC0112960D911C910115110509F463
:102AB00051C1D801ED91FC910480F581E02DBE015A
:102AC0006B5E7F4FC8010995009709F03EC1F80180
:102AD00000851185EACFF3E0FF120EC08F898823AD
:102AE00009F440C0823061F440E860E18EE598E08E
:102AF0000E948806811148CF81E28093EB0047CF86
:102B0000813029F440E86BE082E598E0F1CF833032
:102B100099F70E94C505DC011296ED90FC908E019C
:102B20000F5F1F4F6801E114F10479F0D701ED91B7
:102B3000FC910680F781E02DB801C7010995080FC7
:102B4000111DF701E084F184EECFD8011C92F6014B
:102B500001900020E9F73197BF016C197D0940E031
:102B6000C601C6CF6CE378E0FB01449150E080E8F9
:102B70000E94BB0609CF973009F4BECF983021F4EC
:102B800081E08093F10000CF993009F0FDCE837091
:102B900009F0B2CFE8ECF2E081E031E096E3219178
:102BA000222371F08093E9003093EB00DF0111974D
:102BB0002C912093EC009093ED008F5F873079F794
:102BC0008EE78093EA001092EA008F8980939D043B
:102BD000DBCE8B8D9C8D1092E90010928B041092AD
:102BE0008A049093890480938804898D811192C00E
:102BF0008E899D89913A49F4813209F07DCF47E071
:102C000050E065E071E080E0B3CF913209F074CF1D
:102C1000833269F48F89988DB0E0A0E08093010140
:102C200090930201A0930301B0930401ADCE8032D2
:102C300069F48091E80082FFFCCF67E085E091E0D5
:102C40000E9412078BEF8093E8009ECE823209F03B
:102C50009BCE8F8980930C01EEEFFFE785919491D5
:102C60008B3F9C4D51F1E0E0F8E08091050190919F
:102C70000601A0910701B0910801803B9440A10595
:102C8000B105F1F480910C0180FD1AC0EE3F8AE09D
:102C9000F80789F587E797E7918380838091600043
:102CA00080938C0488E19BE00FB6F894A8958093FC
:102CB00060000FBE9093600067CEEEEFFAE0D5CFD4
:102CC000808191818737974709F05ECEA8958091E2
:102CD000600088618093600080918C048093600024
:102CE000EE3F2AE0F20789F08091FE0A9091FF0AF8
:102CF0009183808349CE808191818737980751F2F3
:102D00009093FF0A8093FE0AC5CF1092FF0A10929B
:102D1000FE0A3ACE0E94C505DC0112960D911C9167
:102D20000115110509F4E8CED801ED91FC9101904F
:102D3000F081E02DBE016B5E7F4FC80109958111C6
:102D400023CEF80100851185EBCF181619060CF477
:102D50001BCED2CEF1E0FF12BECE60E478E004CF0D
:102D60001F920F920FB60F9211242F933F938F93C0
:102D70009F93AF93BF938091AA069091AB06A091C9
:102D8000AC06B091AD063091780323E0230F2D37C8
:102D900058F50196A11DB11D209378038093AA06D2
:102DA0009093AB06A093AC06B093AD0680917903E7
:102DB00090917A03A0917B03B0917C030196A11DB1
:102DC000B11D8093790390937A03A0937B03B09312
:102DD0007C03BF91AF919F918F913F912F910F9065
:102DE0000FBE0F901F90189526E8230F0296A11D85
:102DF000B11DD2CF1F920F920FB60F9211242F93B5
:102E00003F934F935F936F937F938F939F93AF9372
:102E1000BF93EF93FF9360919A0661117AC020E00F
:102E200060919B06662319F1809175038F5F8093F3
:102E3000750390919F068917D0F08091A70691E0C5
:102E400089278093A706109275032091A306222359
:102E500009F485C08091000193E4899F802D11249D
:102E6000895B809300010E94E72990939706609107
:102E70009C06662319F1809176038F5F8093760319
:102E80009091A0068917D0F08091A80691E089273B
:102E90008093A806109276032091A406222309F4B9
:102EA00060C08091000193E4899F802D1124895B8B
:102EB000809300010E94E7299093980660919D06F7
:102EC000662309F450C0809177038F5F8093770366
:102ED0009091A106891708F446C08091A90691E057
:102EE00089278093A906109277038091A5068823ED
:102EF00069F08091000193E4899F802D1124895B02
:102F0000809300010E94E729909399060E947A0914
:102F10002CC0809174038F5F8093740390919E0600
:102F2000891708F47CCF8091A60691E089278093C9
:102F3000A606109274032091A206222371F08091BC
:102F4000000193E4899F802D1124895B8093000107
:102F50000E94E7299093960663CF21E061CF21E09C
:102F600086CF21E0ABCF2111D1CFFF91EF91BF915F
:102F7000AF919F918F917F916F915F914F913F9111
:102F80002F910F900FBE0F901F901895EEEAF6E06C
:102F90001382128288EE93E0A0E0B0E084839583F0
:102FA000A683B78382ED92E0918380838FEF9FEFBA
:102FB000958784871092CD071092CC0784EE92E01B
:102FC0009093CB078093CA0784E097E00E94B013E8
:102FD0008EEF96E00C94B013CF93DF93CDB7DEB7AE
:102FE000AC970FB6F894DEBF0FBECDBF789484B512
:102FF000826084BD84B5816084BD85B5826085BDF5
:1030000085B5816085BD80916E00816080936E0082
:103010001092810080918100826080938100809174
:103020008100816080938100809180008160809325
:103030008000809191008260809391008091910046
:1030400081608093910080919000816080939000D6
:103050008091C10084608093C1008091C100826032
:103060008093C1008091C10081608093C1008091F4
:10307000C30081608093C3008091C0008260809310
:10308000C0008091C20081608093C20080917A006C
:10309000846080937A0080917A00826080937A00C5
:1030A00080917A00816080937A0080917A008068B4
:1030B00080937A0010929D0410928D0410928F04D8
:1030C0008091D70081608093D70080EA8093D800F8
:1030D00089B5806189BD89B5826089BD09B400FE6A
:1030E000FDCF61E070E080E090E00E948B0880916D
:1030F000D8008F7C80618093D8008091E000807F31
:103100008093E0008091E1008E7E8093E1008DE06D
:103110008093E200559A209A82E38093F00781E041
:1031200090E0A0E0B0E08093E9079093EA07A093D5
:10313000EB07B093EC0701E00093410700934007D1
:103140008FEF8093EF0784E18093140782E18093EF
:10315000150783E18093160785E18093170787E0C1
:103160008093180788E08093190710921A070E942D
:1031700002080093D9071092DA070093CF07009353
:10318000D007E1EEF0E0E491EF5FE093D107E2EEEB
:10319000F0E0E491EF5FE093D20783EE90E090934C
:1031A000D8078093D7071FB71983F89480917D03C0
:1031B000811127C0EDE2FAE08491ECE4FAE0949109
:1031C000E82FF0E0EE0FFF1FE854FF4FA591B491F8
:1031D000EC91E92321F461E081E10E94980761E02C
:1031E00081E10E94C6078CB580618CBD8CB580647E
:1031F0008CBD61E08FE00E94C60761E080E10E9423
:10320000C60780917D038F5F80937D0309810FBF87
:103210008CB58C7F8CBD8DB581608DBD61E084E007
:103220000E94C60761E08CE00E94C60761E086E06C
:103230000E94C60761E086E00E94980761E070E0A6
:1032400080E090E00E948B0860E086E00E94980792
:103250006AE070E080E090E00E948B0861E086E028
:103260000E949807E8E2FAE0E491F0E0EE0FFF1F19
:10327000ED52FF4F859194919093DC078093DB078B
:10328000E0E2FAE0E491F0E0EE0FFF1FED52FF4FB5
:10329000859194919093DE078093DD07E7E4FAE04F
:1032A000E491E093DF07EFE3FAE0E491E093E007D5
:1032B0000E94690506EC10E01B830A83EA81FB810A
:1032C00084910E941D0E0A811B810F5F1F4F1B837B
:1032D0000A83035D104091F7E091DD07F091DE076E
:1032E00080819091E007892B8083E091DB07F0914A
:1032F000DC0790818091DF0780958923808300E03F
:1033000014E01B830A8380E00E941D0E0A811B814A
:10331000015011091B830A83012BA9F781E08093D7
:103320003F07A6ECEA2EA7E0FA2E02E617E0198284
:10333000B4EBCB2EB0E0DB2ED701E1E0ED937D01C5
:10334000D801CD92DD928D01498160E08FE297E056
:103350000E944209B981BF5FB983B43069F761E067
:1033600085E00E94C60761E08DE00E94C60761E02B
:1033700085E00E94C607EFE5FAE0E491E150EF3006
:1033800008F067C5F0E0E953F64E0C94072AD61909
:10339000B61EBC1EC81ED41E291F291F291FE01ED1
:1033A000EC1EF81E041F121F291F1B1F84B5806806
:1033B00084BD81E087BD80919100887F816080938A
:1033C0009100F89410928000109281001092850074
:1033D0001092840088E191E09093890080938800A6
:1033E000809181008860809381008091810081605C
:1033F0008093810080916F00826080936F00789449
:1034000080912007813009F029C51092400782E39E
:103410008093F00781E080933F078091EF07882336
:1034200021F081E792E00E941F12809164008E7F5C
:103430008093640087EC80937C0080E280937B0023
:1034400062E070E080E090E00E948B0880917A005A
:10345000806480937A0080917A0086FDFCCFE091B1
:103460007800F0917900E095F095FB83EA838EE592
:1034700080937C0062E070E080E090E00E948B0826
:1034800080917A00806480937A0080917A0086FD32
:10349000FCCF00917800109179000E946608009599
:1034A00010952A813B81029FD001039FB00D129F8E
:1034B000B00D11249B01AC0120953095409550959D
:1034C0000E94DB286B017C010E9466086C0D7D1D4B
:1034D0008E1D9F1D611571058105910511F00E94DA
:1034E0002128809164008160809364006FEE72E017
:1034F00084E097E00E94D91310922207FCE14F2E3E
:10350000512C612C712C0E94970E882311F40C947D
:10351000402665EF72E084E097E00E9473138823F1
:1035200079F0109287041092860483E080938504DA
:10353000109284046DEF72E084E097E00E94D9134A
:103540006DEF72E084E097E00E9473138823D1F05E
:10355000E3E4F2E0A0E0B4E081918D9332E0E73C57
:10356000F307D1F784EF8093FF03809184048830C0
:1035700008F091C48093FE0366E073E084E097E076
:103580000E94D91366E073E084E097E00E94731311
:10359000882309F4A0C01092FD031092FC0310923E
:1035A000FB031092FA032FEF3FEF3093F9032093C0
:1035B000F8039DE09093F70388E18093F60342E0DF
:1035C00050E05093F5034093F4031092F3031092EC
:1035D000F203A1E0B0E0B093F103A093F0031092E6
:1035E000EF031092EE03B093ED03A093EC03B093BE
:1035F000EB03A093EA038CE08093E90343E040935C
:10360000E8031092E7034EE14093E6039093E20350
:103610008093DE03B093D703A093D6031092CF0319
:103620001092CE03B093C703A093C6031092BF03BA
:103630001092BE038093E3038FE08093DF03109228
:10364000D9031092D8031092D1031092D003B093F3
:10365000C903A093C8031092C1031092C0039093B2
:10366000E4038093E003E2E0F0E0F093DB03E09317
:10367000DA031092D3031092D203B093CB03A0933A
:10368000CA031092C3031092C2038093E503809390
:10369000E1031092DD031092DC031092D503109227
:1036A000D4033093CD032093CC031092C503109222
:1036B000C4036EE073E08EEF96E00E94D91301E040
:1036C00010E01093BD030093BC0364E173E084E059
:1036D00097E00E94D91364E173E084E097E00E94D0
:1036E0007313882311F40C944D258091BB038F5FD5
:1036F00083708093BB03811106C08091BA038F5FF2
:1037000081708093BA031091F60319830091F2033C
:103710001091F303C801398123E0329F800D911D80
:10372000112445978B3F4FEF94070CF4B6C3909349
:10373000B9038093B8038091B8039091B903C997F6
:1037400034F088E390E09093B9038093B8035091EC
:10375000B8035A838091FA039091FB0327EB33E07F
:10376000452F892B39F08091BA03811109C027EBCD
:1037700033E04A81419560E08AEC97E00E943A0A82
:103780008091E703811109C08091FF038E3A11F007
:103790008A3419F480E98093E703F090E703E0901E
:1037A000F703FF2089F12091FE0387E0289F900115
:1037B000112421583C4F45E39A81491B69E28AEC68
:1037C00097E00E943A0AFA94F092E70383EF8E0D95
:1037D0008230D0F4A981A231B9F41092E70320918C
:1037E00084048091860490918704B4E62B9F800D19
:1037F000911D1124909387048093860461E070E00A
:1038000086E090E00E94280E8091F8039091F903E1
:103810002981220FE981E20F0E0F01501A81011B4D
:103820002E2D220FE20E2091F403E20EEA948F3F38
:10383000980709F035C38091E9039091E803890F57
:103840009927991F47E0489F9001499F300D112407
:103850002D503D4F402F6E2D8AEC97E00E943A0A82
:103860001091E6031983112381F08091BA0381112D
:1038700008C022EE32E042E060E28AEC97E00E946B
:103880003A0A098101500093E60380911C07815098
:103890008E3F50F48FEF9FEF9093B7038093B60362
:1038A0001092B5031092B40380911E0781508E3F91
:1038B00050F481E090E09093B7038093B6031092A8
:1038C000B5031092B40380911B0781508E3F50F4D2
:1038D0008FEF9FEF9093B5038093B4031092B703DB
:1038E0001092B60380911D0781508E3F50F481E005
:1038F00090E09093B5038093B4031092B7031092B5
:10390000B60380912107813071F48091EF078823FD
:1039100021F087ED92E00E941F126FEE72E084E0CA
:1039200097E00E94D9138091E603811132C0809103
:10393000FA039091FB03892B61F58091F803909134
:10394000F903019631F58091F2039091F3034091D0
:10395000F0035091F1032091F4033091F503240F0B
:10396000351F3093F5032093F4032091EE0330913B
:10397000EF03820F931F9093F3038093F203452B81
:1039800011F4232B31F08091E8038F5F83708093D3
:10399000E8038091F4039091F5030296059758F09F
:1039A0009091F7031092F5031092F4038091F003C5
:1039B000890F8093F7038091F2039091F3030296AD
:1039C000059758F01092F3031092F2038091F603DA
:1039D0009091EE03890F8093F6038091F703811194
:1039E00009C08091F0039091F103019619F48BE1E5
:1039F0008093F7038091F7038B3140F08091F003BF
:103A00009091F103019711F41092F7038091F40360
:103A10009091F503892B09F001C18091F2039091F7
:103A2000F303892B09F0FAC0C090F703D090F60396
:103A300080E2D89EA00111244C0D511D8A01E3E0C3
:103A400015950795EA95E1F71093B3030093B20338
:103A500040955095477055275B834A835093B10337
:103A60004093B00300501C4FD801EC908E2D90E095
:103A70000A8002C0959587950A94E2F780FF49C0B5
:103A8000F090FF03FA94F092FF0361E070E083E0AE
:103A900090E0F0FE02C084E090E00E94280E81E0F9
:103AA00090E00A8002C0880F991F0A94E2F7E81A92
:103AB000F801E0828091860490918704F1E0CF16AE
:103AC00019F00AE1C01234C214E0D11619F028E14D
:103AD000D2122EC2C29690938704809386042091BE
:103AE000840431EF3203C00111248C549F4F909312
:103AF000FD038093FC0388EC90E09093AF038093E8
:103B0000AE03F11006C08CE390E09093FB0380932A
:103B1000FA03E091F703F0E00091B4031091B503CC
:103B20002091F60330E04091B6035091B7035B83D8
:103B30004A83420F531F65E0440F551F6A95E1F712
:103B4000CF01800F911F840F951F7C0173E0F594C6
:103B5000E7947A95E1F768E070E00E94F32947E086
:103B600050E0481B590BD701A154BE4F8C9190E0F7
:103B700002C0959587954A95E2F780FD12C0109393
:103B8000F1030093F0034A815B815093EF0340936C
:103B9000EE031093ED030093EC035093EB0340937B
:103BA000EA038091EE039091EF03820F931F25E0CB
:103BB000880F991F2A95E1F72091F0033091F103C6
:103BC000E20FF31F8E0F9F1F9C0143E03595279551
:103BD0004A95E1F73093B3032093B20368E070E0B5
:103BE0000E94F32947E050E0481B590B5093B10362
:103BF0004093B00321543E4FD9018C9190E002C014
:103C0000959587954A95E2F780FF08C01092F103D9
:103C10001092F0031092EF031092EE038091F003E4
:103C20009091F1038F3F980709F088C188E0809355
:103C3000E9038091EE039091EF038130910509F043
:103C400083C184E08093E9038091FA039091FB03A0
:103C50001816190694F401979093FB038093FA03C6
:103C6000892B59F4809184048F5F809384046DEFD5
:103C700072E084E097E00E94D91388E090E090938E
:103C8000B3038093B20310E4C12ED12C07E0A02E21
:103C9000B12C0091B2031091B3030C3711050CF055
:103CA0006AC1B092B103A092B003980120503C4F7A
:103CB0004901E090B003F090B103F7FC55C1D40185
:103CC0008C9190E00E2C02C0959587950A94E2F7AE
:103CD00080FF41C0B6016F717727C601A5E09595B9
:103CE0008795AA95E1F7FC01EE0FFF1FE80FF91F7A
:103CF0002091B8033091B903E21BF30BFB83EA83F5
:103D00006130710521F06A31710509F022C18430FA
:103D1000910519F0489709F01CC12A813B81203395
:103D2000310508F016C18091BA038130A1F4362F15
:103D3000330F360F3983422F4F5F23E0632F8AEC16
:103D400097E00E943C0C69816F5F23E04A818AEC16
:103D500097E00E94A90D4FEFC41AD40A51E0E51A6A
:103D6000F108F092B103E092B003A3CF84B5806272
:103D700084BD81E088BD1FCB8091800080688093E6
:103D8000800081E090E0909389008093880013CBBD
:103D90008091800080628093800081E090E0909329
:103DA0008B0080938A0007CB80918000886080938D
:103DB000800081E090E090938D0080938C00FBCA9E
:103DC0008091900080688093900081E090E09093D3
:103DD000990080939800EFCA809190008062809350
:103DE000900081E090E090939B0080939A00E3CA5A
:103DF0008091900088608093900081E090E09093A3
:103E00009D0080939C00D7CA8091C00080688093F9
:103E1000C0008091C0008F7B8093C00081E08093C0
:103E2000CF00C9CA8091C00080628093C00081E049
:103E30008093D000C0CA8091C20088608093C20085
:103E40008091C2008B7F8093C20081E08093D2007A
:103E5000B2CA60E085E00E949807ADCA40E063E620
:103E600072E08FE297E00E94C50941E063E672E0EC
:103E70008FE297E00E94C50942E063E672E08FE2BC
:103E800097E00E94C50943E063E672E08FE297E0A5
:103E90000E94C509BCCA87E06DCB8BEF9FEF47CC72
:103EA000AC01415051095B834A835093F90340931D
:103EB000F803CA0165E070E00E94F329892B39F408
:103EC00040E06FE678E08FE297E00E94C5098A81C2
:103ED0009B8166EF7FEF0E94F3296D5E7F4F87E045
:103EE000869F9001879F300D11242D503D4F402F0C
:103EF0006E2D8AEC97E00E943A0A0A811B81012B01
:103F000009F0AECC8FEF9FEF9093F9038093F80305
:103F1000809185048150809385046CE173E088234F
:103F200011F066E073E084E097E00E94D91398CC2A
:103F30000A969093870480938604E3CD019709F055
:103F400078CE1092E90375CE019609F07DCE8CE013
:103F500079CE4A814F5F862F880F680F6F5F8AEC9A
:103F600097E00E947A0BF7CE0F5F1F4F1093B303B9
:103F70000093B2038ECE8091BC039091BD03019754
:103F80009093BD038093BC0318161906FCF06EE0F5
:103F900073E08EEF96E00E9473130091840409830E
:103FA00010E0882309F41BC465E273E08EEF96E00D
:103FB0000E94D91324EC2003C001219F900D1124ED
:103FC000845D9E4F9093BD038093BC038091FC035E
:103FD0009091FD03181619060CF00FC40E94D22709
:103FE000A30192010E94BC287093A7036093A603CB
:103FF0000E94D227F1E2CF2ED12CE12CF12CA70187
:1040000096010E94BC2870939F0360939E030E94B8
:10401000D227A30192010E94BC287093A903609348
:10402000A8030E94D227A70196010E94BC28709382
:10403000A1036093A0030E94D227A30192010E94D2
:10404000BC287093AB036093AA030E94D227A701F8
:1040500096010E94BC287093A3036093A2030E9460
:10406000D227A30192010E94BC287093AD036093F4
:10407000AC030E94D227A70196010E94BC2870932E
:10408000A5036093A40306E913E01D8F0C8FF801CC
:1040900090E080E02DE030E04FE050E061917191E0
:1040A0006130710551F4DC01AA55BC4F2D933C934E
:1040B000DC01A256BC4F4D935C930296883091056B
:1040C00069F7809195038F5F65E00E94E729292FAA
:1040D000909395038091FC039091FD030091F80368
:1040E0001091F9031B830A83181619060CF02FC4CC
:1040F00001979093FD038093FC03211113C00F3FA0
:104100001F4F81F48091E60381110CC08091FA0366
:104110009091FB03892B31F470E060E082E090E045
:104120000E94280E8091920390919303181619060D
:104130000CF04FC401979093930380939203809166
:10414000E603811135C28091FA039091FB03892B1C
:1041500009F02EC20A811B810F3F1F4F09F028C2B0
:1041600026EC33E00EEB13E042EE53E05B874A8728
:104170008EEC93E09B838A83AEEDB3E0BF83AE8386
:10418000E6EDF3E0FD87EC878EE9882E83E0982E3C
:104190001F01CD01FA0166E973E04BE1B42EDB01AA
:1041A000ED90FD90BD01D9014D915C91D801CD906C
:1041B000DD908D01EA94EF2809F0E9C3F080D10188
:1041C0001D921C92AA81BB811D921C92F40EF0825A
:1041D000DC01EC90EC0CEC92D101ED90FC90B2E0A3
:1041E000EB0EF11CA5E0EA16F10440F0E080D101ED
:1041F0001D921C92D901FC90FE0CF082AA81BB8119
:10420000ED90FC90B2E0EB0EF11CA5E0EA16F10493
:1042100078F0AA81BB811D921C92DC01DC907801B0
:10422000B2E0EB1AF108D701FC90DF0CDC01DC9264
:104230007F01D080D11004C04F3F540709F4B082F1
:104240003196D701FC90BAE1BF1540F441305105D9
:1042500029F4AF0141505109DA011C922E5F3F4F02
:104260004A815B814E5F5F4F5B834A83019652E0D8
:10427000250E311C8616970609F091CF2090B203C7
:104280003090B303C090B003D090B103009190037D
:10429000109191031CA70BA710E000E0AC85BD8531
:1042A0008D919D91BD87AC87EA85FB852191FB8728
:1042B000EA872983892B09F051C1F801E253FC4FA9
:1042C000A080B180A114B10409F048C1422F50E090
:1042D0005D8B4C8BAE81BF81BC91BA83EB2FF0E03C
:1042E000FF8BEE8BCF01E5E0880F991FEA95E1F790
:1042F000480F591F5F8F4E8F98012A533C4F3987C3
:104300002887D9010D90BC91A02DB9A3A8A3F801CD
:10431000EA55FC4F208131813BA32AA3F801E256E4
:10432000FC4F408151815DA34CA387EB91E0998FB5
:10433000888FA0E8B3E0BB8FAA8FEFE9F1E0FB8B99
:10434000EA8B27E931E0398B288B4FEA51E05F8710
:104350004E874D01F12CE12C59815D505EA3C801BF
:104360008A569C4F98A78FA3D801A254BC4FBAA7D6
:10437000A9A7E88DF98D81919191F98FE88F2E8D04
:104380003F8D820F931F1C0163E0359427946A953B
:10439000E1F768E070E00E94F32977E0C72ED12CA6
:1043A000C81AD90AF101E154FE4F3081432F50E081
:1043B0000C2C02C0559547950A94E2F74170552799
:1043C0005CA74BA78EA1823088F49A819C3071F44F
:1043D000AFA1B8A58D919C91019741F0B3E0EB1688
:1043E000F10421F4E1E0F0E0FCA7EBA7AE85BF8586
:1043F0008D919D91BF87AE87E8A1F9A1E817F907D4
:10440000D9F4F701EE0FFF1FE955FE4FA9A5BAA594
:104410002D913C91808191812817390769F4BA81E7
:10442000BF3009F0C6C2E981EC3031F0EF3021F045
:1044300021E030E03CA72BA7AA89BB898D919D91F3
:10444000BB8BAA8BEC89FD898E0F9F1F4AA15BA1B4
:10445000481B590BA889B9898D919D91B98BA88B5F
:10446000EE89FF898E0F9F1F2CA13DA1281B390BC0
:10447000C901449F9001459F300D300D1124889F44
:10448000B001899F700D700D1124620F731F072EEC
:10449000000C880B990B0E9431280E9492294BA591
:1044A0005CA54130510509F489C2D4016D937D9317
:1044B0008D939C931397BFEFEB1AFB0AE4E08E0EEB
:1044C000911CF4E0EF16F10409F053CFEE24EA94C6
:1044D000FE2C43E6842E912CAA8DBB8D2D913D910F
:1044E0004D915D91BB8FAA8F2A833B834C835D8363
:1044F000B401092C000C880B990B0E9431289B01F8
:10450000AC016A817B818C819D810E942A281816CA
:1045100044F06A817B818C819D810E9456294B01E8
:104520007501BFEFAB1ABB0AE4E0AE16B104A1F609
:10453000C701880F991FFC01E156FE4F2081318190
:10454000A885B9852D933C9389569E4FFC018081A7
:104550009181F801E254FC4F91838083F981FD3011
:1045600071F4AE81BF818C918F3049F4F801EA5625
:10457000FC4F80819181019711F411821082EE81AC
:10458000FF813196FF83EE830E5F1F4F08301105C8
:1045900009F084CE0BA51CA5109391030093900302
:1045A0003092B3032092B203D092B103C092B00311
:1045B00072EE272E73E0372EE6EDAE2EE3E0BE2E30
:1045C000850171011B821A82F3E09F2EA6E4CA2E98
:1045D000D12C8091F7032091F4033091F503899D4C
:1045E000200D311D1124D7014D917D01F8018191DC
:1045F00091918F01499D800D911D1124AC014F5F58
:104600005F4F421753070CF45EC001972817390714
:104610000CF459C08091F6034091F2035091F303DA
:10462000899D400D511D11242A813B81220F331F8A
:10463000EA81FB81E252FC4F6081F901E253FC4FB9
:1046400080819181699D800D911D1124BC016F5F56
:104650007F4F64177507BCF10197481759079CF104
:10466000F901EA56FC4F80819181892B61F5809197
:10467000F8039091F903019631F58091FC03909134
:10468000FD03181619060CF0AFC18091AE0390918E
:10469000AF032091860430918704280F391F30938F
:1046A000870420938604880F991F9093AF0380930B
:1046B000AE0381E090E09183808361E070E085E06B
:1046C00090E00E94280E4A815B814F5F5F4F5B83C1
:1046D0004A834430510509F07CCF8091F8039091D2
:1046E000F9038F3F980709F091C106EC13E01B8393
:1046F0000A838EEDE82E83E0F82E0EEC13E09EEB9D
:10470000C92E93E0D92E2EEC822E23E0922EAA8180
:10471000BB818D919D91BB83AA83019709F46DC1E3
:1047200090E080E0F601219131916F012F3F320737
:1047300009F466C12130310509F465C12091FC03FB
:104740003091FD031216130614F488E090E0AC8D4E
:10475000BD8D2D913D91BD8FAC8F2130310511F470
:104760008AE090E0F70171917F01D8014C910E5FD2
:104770001F4FF10151911F01D5016C91B2E0AB0EB9
:10478000B11C2091BA03820F911DE7E0E89F9001D0
:10479000E99F300D11242D573D4F872F880F780F3B
:1047A000470F7091B8037095470F852F880F580FEA
:1047B000650F61508AEC97E00E943A0A2A813B819A
:1047C0008216930609F0A3CF8091B8039091B903A4
:1047D0008B3F3FEF930709F01DC1198220C16EE0A6
:1047E00073E08EEF96E00E94D913098116E9019FCC
:1047F000C0011124885A9D4FE5CB65E273E08EEF2E
:1048000096E00E947313882329F11092A703109257
:10481000A60310929F0310929E032BE130E0309389
:10482000A9032093A8031092A1031092A003109251
:10483000AB031092AA0380E290E09093A3038093CD
:10484000A2033093AD032093AC039093A503809310
:10485000A40319CC6091F70370E07093A7036093F1
:10486000A6034091F60350E050939F0340939E03AC
:104870002091EC033091ED033B832A83220F331FF9
:10488000220F331F260F371F3093A9032093A8034D
:10489000E091EA03F091EB03CF01880F991F880F95
:1048A000991F840F951F9093A1038093A003A0915B
:1048B000E203B0E00A811B81000F111F201B310BA6
:1048C0002A1B3B0B220F331F2A0F3B1F3093AB03D6
:1048D0002093AA032091DE0330E0EE0FFF1F8E1B12
:1048E0009F0B821B930B880F991F280F391F309342
:1048F000A3032093A2038091E503FB01E81BF109C8
:104900008091E1039A01281B3109EE9FC001EF9FBE
:10491000900D900D1124229FF001239FF00DF00DBA
:1049200011248E0F9F1F08974CF48BE190E0909319
:10493000AD038093AC0380E290E087CF7093AD032A
:104940006093AC035093A5034093A4039CCB211127
:10495000E9CB0A811B810F3F1F4F09F0E3CB809108
:10496000E6038111DFCB8091FA039091FB03892B41
:1049700009F0D8CB1091940370E060E0812F90E0B3
:104980000E94280E1F5F117010939403CBCBD101AE
:10499000ED90FC901197E40EF51EED92FC92AA8129
:1049A000BB81ED90FC901197EC0CFD1CED92FC92FC
:1049B00013CC41E050E05CA74BA73ECD20E030E0B7
:1049C00048EC52E4D4012D933D934D935C9313979F
:1049D00072CD8091840490E00196880F991F909386
:1049E000930380939203E4CDD092F903C092F8032D
:1049F00061E070E087E090E064CE82E090E092CEEB
:104A000084E090E09BCE86E090E098CECD970CF0CD
:104A10006CCEDACEC89709F040C00BE20983109142
:104A200085041A83123090F028E033E0498160E079
:104A30008AEC97E00E943A0A123041F028E033E015
:104A4000498166E08AEC97E00E943A0A2091860448
:104A5000309187042A3031050CF41CC196E282E0C3
:104A6000243631050CF480E0981B82E0283E43E0B8
:104A700034070CF480E0981B9093D30709810093CE
:104A8000D407C9010E94F21288E48093D307809171
:104A9000840490E001960E94F2126FEE72E084E0CE
:104AA00097E00E947313882309F485C080918604DF
:104AB0009091870420917E0330917F032817390756
:104AC00024F490937F0380937E031092D307109277
:104AD000D4076DE273E08AEC97E00E940512209102
:104AE0008604309187042A3031050CF4D5C09CE04F
:104AF00082E0243631050CF480E0981B82E0283EE9
:104B000013E031070CF480E0981B9093D30786E004
:104B10008093D407C9010E94F21220917E03309144
:104B20007F032A3031050CF4B9C090E482E02436CA
:104B300031050CF480E0981B82E0283E43E0340706
:104B40000CF480E0981B9093D30786E08093D40701
:104B5000C9010E94F2122DE738E04DE06AE08AECCC
:104B600097E00E943A0A1092D3078AE28093D40712
:104B700061E473E08AEC97E00E94051280911F07C0
:104B8000813069F465EF72E084E097E00E94D91308
:104B900040E065E778E08FE297E00E94C5098091E8
:104BA0002107813041F48091EF07882321F08CE7C1
:104BB00092E00E941F126CE173E084E097E00E9493
:104BC0007313882309F45CC01092D9071092DA0796
:104BD00000E1098327E2498166E18AEC97E00E94BF
:104BE0003C0C19811F5F19831931A1F781E0809373
:104BF000D9078093DA0788E18093D30782E1809315
:104C0000D40766E573E08AEC97E00E94051227E27C
:104C100040E166E18AEC97E00E943C0C27E248E123
:104C200066E18AEC97E00E943C0C29E040E166E1F5
:104C30008AEC97E00E94A90D29E040E16CE38AEC40
:104C400097E00E94A90D84E08093D3078AE28093C5
:104C5000D40760E673E08AEC97E00E940512809129
:104C60002007813069F46FEE72E084E097E00E94E3
:104C7000D91340E065E778E08FE297E00E94C5092C
:104C800080E090E0892B11F40C94831A0E940000BC
:104C90000C94831A98E2E7CE9EE02ECF92E44ACF9E
:104CA0008091FE069091FF06009711F00E94FD266C
:104CB0008091040790910507009711F00C94FD2650
:104CC00008950F931F93CF93DF938230910510F4D3
:104CD00082E090E0E091FA07F091FB0730E020E0FD
:104CE000B0E0A0E0309799F42115310509F44AC0ED
:104CF000281B390B24303105D8F58A819B81611539
:104D0000710589F1FB0193838283FE0111C040810B
:104D100051810281138148175907E0F0481759075C
:104D200099F4109761F012960C93129713961C93B6
:104D30003296CF01DF91CF911F910F91089500938B
:104D4000FA071093FB07F4CF2115310551F04217F4
:104D5000530738F0A901DB019A01BD01DF01F80119
:104D6000C1CFEF01F9CF9093FB078093FA07CDCF26
:104D7000FE01E20FF31F8193919322503109398391
:104D80002883D7CF2091F8073091F907232B41F4DE
:104D900020910F01309110013093F9072093F8070B
:104DA00020910D0130910E012115310541F42DB7EF
:104DB0003EB74091110150911201241B350BE09137
:104DC000F807F091F907E217F307A0F42E1B3F0B49
:104DD0002817390778F0AC014E5F5F4F241735076D
:104DE00048F04E0F5F1F5093F9074093F8078193E7
:104DF00091939FCFF0E0E0E09CCFCF93DF930097BB
:104E0000E9F0FC01329713821282A091FA07B09167
:104E1000FB07ED0130E020E01097A1F42081318103
:104E2000820F931F2091F8073091F907281739074F
:104E300009F061C0F093F907E093F807DF91CF9193
:104E40000895EA01CE17DF07E8F54A815B819E01EC
:104E500041155105B1F7E901FB83EA834991599165
:104E6000C40FD51FEC17FD0761F480819181029674
:104E7000840F951FE90199838883828193819B83A5
:104E80008A83F0E0E0E012968D919C911397009751
:104E9000B9F52D913C911197CD010296820F931F88
:104EA0002091F8073091F9072817390739F630971C
:104EB00051F51092FB071092FA07B093F907A093EF
:104EC000F807BCCFD383C28340815181840F951FE3
:104ED000C817D90761F44E5F5F4F88819981480FE9
:104EE000591F518340838A819B819383828321153B
:104EF000310509F0B0CFF093FB07E093FA079ECF9E
:104F0000FD01DC01C0CF13821282D7CF8F929F9216
:104F1000AF92BF92CF92DF92EF92FF92CF93DF9347
:104F2000EC01688179818A819B8161157105810518
:104F3000910521F464E279ED8BE597E02DE133EF03
:104F400041E050E00E94BC2849015A019B01AC019C
:104F5000A7EAB1E40E94DB286B017C01ACEEB4EF60
:104F6000A50194010E94E928C60ED71EE81EF91E6D
:104F7000F7FE06C081E0C81AD108E10880E8F80A07
:104F8000C882D982EA82FB82C701B6019F77DF918E
:104F9000CF91FF90EF90DF90CF90BF90AF909F9018
:104FA0008F9008958F929F92AF92BF92CF92DF928F
:104FB000EF92FF926091130170911401809115019D
:104FC00090911601611571058105910521F464E246
:104FD00079ED8BE597E02DE133EF41E050E00E9461
:104FE000BC2849015A019B01AC01A7EAB1E40E9427
:104FF000DB286B017C01ACEEB4EFA50194010E94AB
:10500000E928C60ED71EE81EF91EF7FE06C081E08D
:10501000C81AD108E10880E8F80AC0921301D092BA
:105020001401E0921501F0921601C701B6019F77B5
:10503000FF90EF90DF90CF90BF90AF909F908F90B8
:105040000895609313017093140180931501909358
:10505000160108950E946C2808F481E00895E894F0
:1050600009C097FB3EF490958095709561957F4FB0
:105070008F4F9F4F9923A9F0F92F96E9BB2793955E
:10508000F695879577956795B795F111F8CFFAF46E
:10509000BB0F11F460FF1BC06F5F7F4F8F4F9F4F9F
:1050A00016C0882311F096E911C0772321F09EE8FD
:1050B000872F762F05C0662371F096E8862F70E063
:1050C00060E02AF09A95660F771F881FDAF7880F3D
:1050D0009695879597F90895990F0008550FAA0B93
:1050E000E0E8FEEF16161706E807F907C0F01216FB
:1050F0001306E407F50798F0621B730B840B950BFE
:1051000039F40A2661F0232B242B252B21F4089552
:105110000A2609F4A140A6958FEF811D811D0895EF
:105120009FEF80EC089557FD9058440F551F59F09C
:105130005F3F71F04795880F97FB991F61F09F3F84
:1051400079F087950895121613061406551FF2CFAD
:105150004695F1DF08C0161617061806991FF1CFFD
:1051600086957105610508940895E894BB27662724
:105170007727CB0197F90895052E97FB1EF400942D
:105180000E94D32857FD07D00E94252907FC03D091
:105190004EF40C94D32850954095309521953F4F6F
:1051A0004F4F5F4F089590958095709561957F4F13
:1051B0008F4F9F4F08950E944729A59F900DB49F40
:1051C000900DA49F800D911D11240895B7FF0C949C
:1051D000DB280E94DB28821B930B08952F923F92BD
:1051E0004F925F926F927F928F929F92AF92BF92F7
:1051F000CF92DF92EF92FF920F931F93CF93DF93A3
:10520000CDB7DEB7CA1BDB0B0FB6F894DEBF0FBEFF
:10521000CDBF09942A88398848885F846E847D844C
:105220008C849B84AA84B984C884DF80EE80FD804E
:105230000C811B81AA81B981CE0FD11D0FB6F894C4
:10524000DEBF0FBECDBFED010895A1E21A2EAA1B4D
:10525000BB1BFD010DC0AA1FBB1FEE1FFF1FA21726
:10526000B307E407F50720F0A21BB30BE40BF50B23
:10527000661F771F881F991F1A9469F760957095AC
:10528000809590959B01AC01BD01CF010895A29F2F
:10529000B001B39FC001A39F700D811D1124911D0A
:1052A000B29F700D811D1124911D08950E945D29EA
:1052B0006894B1110C94B62808950E949B2888F038
:1052C0009F5798F0B92F9927B751B0F0E1F0660FCA
:1052D000771F881F991F1AF0BA95C9F714C0B1300B
:1052E00091F00E94B528B1E008950C94B528672F7D
:1052F000782F8827B85F39F0B93FCCF3869577953A
:105300006795B395D9F73EF4909580957095619522
:105310007F4F8F4F9F4F089519F416F40C949028E7
:105320000C94D2290E949B28B8F39923C9F3B6F3B1
:105330009F57550B87FF0E94E0290024A0E640EA12
:10534000900180585695979528F4805C660F771FDA
:10535000881F20F026173707480730F4621B730BAD
:10536000840B202931294A2BA695179407942025D0
:1053700031254A2758F7660F771F881F20F0261718
:105380003707480730F4620B730B840B200D311D77
:10539000411DA09581F7B901842F9158880F9695EA
:1053A000879508959F3F31F0915020F48795779528
:1053B0006795B795880F911D9695879597F90895EC
:1053C00091505040660F771F881FD2F70895991BA0
:1053D00079E004C0991F961708F0961B881F7A95EC
:1053E000C9F78095089597FB072E16F4009407D00F
:1053F00077FD09D00E940D2A07FC05D03EF4909558
:1054000081959F4F0895709561957F4F0895EE0F98
:10541000FF1F0590F491E02D0994AA1BBB1B51E1DD
:1054200007C0AA1FBB1FA617B70710F0A61BB70B14
:10543000881F991F5A95A9F780959095BC01CD01B9
:105440000895B0E0A0E0E7E2FAE20C94F0288C01C5
:10545000009751F4CB010E9461268C01C801CDB7A1
:10546000DEB7E0E10C940C29FC01E60FF71F9C016C
:1054700022503109E217F30708F49DC0D901CD91FC
:10548000DC911197C617D70798F0C530D10530F3D6
:10549000CE0104978617970708F3C61BD70B2297F0
:1054A000C193D1936D937C93CF010E94FD26D6CFFB
:1054B0005B01AC1ABD0A4C018C0E9D1EA091FA072F
:1054C000B091FB07512C412CF12CE12C109731F5B8
:1054D0008091F8079091F9078815990509F05CC04B
:1054E0004616570608F058C080910D0190910E01A4
:1054F000009741F48DB79EB7409111015091120170
:10550000841B950BE817F90708F055C0F093F907CD
:10551000E093F807F90171836083A0CF8D919C918E
:10552000119712966C90129713967C901397A8156A
:10553000B90559F56C0142E0C40ED11CCA14DB0454
:1055400020F1AC014A195B09DA011296159780F037
:105550006282738251834083D9016D937C93E114FD
:10556000F10471F0D7011396FC93EE93129776CF66
:1055700022968C0F9D1FF90191838083F301EFCF59
:10558000F093FB07E093FA0769CF4816590608F431
:105590002C017D01D3019ACFCB010E9461267C01B1
:1055A000009749F0AE01B8010E94DE2AC8010E94AE
:1055B000FD26870153CF10E000E050CFFB01DC0156
:1055C00002C001900D9241505040D8F70895FB0160
:1055D000DC018D91019080190110D9F3990B089588
:1055E000FB01DC0101900D920020E1F7089515E028
:1055F000CEE3D5E004C0FE010E94072A2196CF33F6
:08560000D107C9F7F894FFCFB0
:1056080001FFFFFFFF00E10000000000000000FCB8
:105618000780000100000000001E003B0001000799
:105628000000000200050000002300390001000707
:1056380000000002000500000006003E0001000016
:105648000000000200050001000B004200010000FC
:105658000000000700030001002C003200010000D8
:105668000000000700030000000000020001000025
:1056780000000007000500000000006C00010000A9
:1056880000000007000500000036002C00010000A3
:105698000000000700320000000000FFFF0100FFCB
:1056A800FF010000000000000000000100FFFF01F2
:1056B80000FFFF00000000FFFF0100E0FF2000FFE7
:1056C800FFFFFFFFFFFFFF8006001FBDF6FBDFBDEA
:1056D800F6FBDFBDF6FBDF8000001FBDBFDBDFBDD3
:1056E800BFDBDF8186181FFDF6FBFFFDF6FBFFFD24
:1056F800801BFFFDB9DBFFFDB9DBFE0030C007FDF5
:10570800BFDBFFFDBFDBFFFD801BFFFDBFDBFFFD38
:10571800BFDBFF8006001FBDF6FBDFBDF6FBDF8C9D
:1057280000031FEDBFDB7FEDBFDB7F8186181FBF46
:10573800F6FFDFBFF6FFDF8000001FFFFFFFFFFF60
:10574800FFFFFF00000000000000007FF9FFE042BB
:105758000904204209042042090420FFFFFFFE42F9
:10576800402420424024207E79E7E0020004000221
:105778000004000200040002000400020004000209
:1057880000040002000400020004000200040002F9
:10579800000400020004007FF9FFE04209042042EF
:1057A80009042073F9FCE012402480124024807E12
:1057B80079E7E040090020400900207FFFFFE00072
:1057C8000000000000000000C1808100000000000F
:1057D8000000D905BD08FA05EF054006FE051C06C0
:1057E80000000000580C1F07250E240E0D0A007437
:1057F80069746C65006E657767616D65006E6577C5
:105808006C6576656C006E65776C696665006368C3
:105818006173650072756E6E696E670067616D65AC
:105828006F76657200736361747465720020204C32
:105838004153542020202020202020204849474838
:105848000020413A20504C41592020202020433A42
:1058580020515549540047414D45204F5645520067
:105868005052455353204220544F20434F4E5449E1
:045878004E55450044
:00000001FF
