:100000000C94A6060C94CE060C94CE060C94CE0648
:100010000C94CE060C94CE060C94CE060C94CE0610
:100020000C94CE060C94CE060C9423140C949514C8
:100030000C94CE060C94CE060C94CE060C94CE06F0
:100040000C94CE060C94D6080C94CE060C94CE06D6
:100050000C94CE060C94CE060C94CE060C94560846
:100060000C94CE060C94CE060C94CE060C94CE06C0
:100070000C94CE060C94CE060C94CE060C94CE06B0
:100080000C94CE060C94CE060C94CE060C94CE06A0
:100090000C94CE060C94CE060C94CE060C94CE0690
:1000A0000C94CE060C94CE060C94CE065B1A611A04
:1000B000671A731A7F1AD41AD41AD41A8B1A971A79
:1000C000A31AAF1ABD1AD41AC61A660769075807C9
:1000D0005C0762078A078A078A076D077107750739
:1000E0007B077F078A07850705A84CCDB2D44EB998
:1000F0003836A9020C50B9918688083CA6AAAA2ACB
:10010000BE000000803F0101FF030101F703101052
:10011000981818199818181998181819981818195B
:10012000981818199818181998181819981818194B
:100130001010AAAA00000000FFFFFFFF000000004F
:100140000000000000000000FFFFFFFF00000000B3
:1001500055551010AAAA000180000FF19FF81C3914
:10016000981818199818181998181819981818190B
:10017000981818191010AAAA000080000FFF9FFFFE
:100180001C0098001800980018009C001FFF8FFFAB
:100190000000800055551010981818199818181953
:1001A0009818181998181819981818199C381FF9C0
:1001B0008FF00001800055551010AAAA0001000020
:1001C000FFF1FFF800390018001900180019003875
:1001D000FFF9FFF00001000055551010AAAA000118
:1001E00080000FF19FF81C399818181998181819E1
:1001F0009C381FF98FF00001800055551010AAAAF5
:10020000000180000FF19FF81C3999981A599A58EB
:1002100019999C381FF98FF0000180005555101076
:1002200000000000000019981998066006601998EF
:1002300019980660066019981998000000000000DF
:100240001010000004100820104020804100800899
:1002500000110022044008801000201000200040FF
:10026000008010100020200204808008000010444C
:1002700002004022000008880001420000400008FF
:10028000840010801010000001800240042008103B
:10029000100820043C3C04200420042004200420F6
:1002A00007E000000000101000000000030005003F
:1002B000090011FC200440044004200411FC090042
:1002C000050003000000000010100000000007E01F
:1002D000042004200420042004203C3C20041008B6
:1002E00008100420024001800000101000000000EF
:1002F00000C000A000903F882004200220022004BB
:100300003F88009000A000C0000000001010000016
:10031000200200000000000010400000000000006B
:1003200000800000400000000008040000004D6153
:10033000696E204D656E750053797374656D204943
:100340006E666F00486967682073636F726573003B
:10035000506C6179000A01060100000000240027AA
:10036000002A002D003000D5F08D14A1C881CFD90E
:10037000F1AF200000000000250028002B002E0017
:1003800031000500893008023802497868140000FD
:100390002F00566F6C756D653A004261636B6C6936
:1003A0006768743A004C696768743A002F340042F9
:1003B0006174206C766C3A006D56004261743A00AC
:1003C000153A5361766520173A45786974000A57E3
:1003D0006F7273742020202020000A4265737420FD
:1003E000202020202000596F75722074696D6520CF
:1003F000004E4557204849474853434F5245000552
:1004000000400150015C01700180016C01540160E9
:1004100001740184014C015C0168017C018C0100C4
:1004200000177361766500166261636B001574795D
:100430007065000A0A0A153A6F6B617920163A65F1
:1004400064697400596F7520656E74657265640A1D
:10045000004E4557204C4150210005077F41414146
:100460007F3E5B4F5B3E3E6B4F6B3E183C783C18CB
:10047000183C7E3C181C577D571C1C5E7F5E1C0080
:100480007E43437E007E73737E007E7F7F7E7F414E
:1004900041417F30483A060E06297929067F4141BD
:1004A000417F60703F02042A1C361C2A7F3E1C08D4
:1004B0000000081C3E7F14227F22143C3C3C7EFF3F
:1004C00018423C817E3E6375633E3E616B633E3EF7
:1004D000636B6B3E04027F020410207F201008082B
:1004E0002A1C08081C2A0808143E55412263756915
:1004F000756310181C1810040C1C0C04000000007C
:100500000000005F00000007000700147F147F1444
:10051000042A7F2A102313086462364956205000AB
:1005200008070300001C2241000041221C002A1C75
:100530003E1C2A08083E080800E060000008080881
:100540000808006060000060100804033E5149453F
:100550003E00427F400062514949462141494D33A6
:100560001814127F1027454545393C4A4949304106
:10057000211109073649494936064949291E000013
:1005800024000000806400000814224100141414A8
:100590001414004122140802015909063E415D5914
:1005A0004E7C1211127C7F494949363E414141221D
:1005B0007F4141221C7F494949417F090909013E88
:1005C000414151327F0808087F00417F41002041AE
:1005D000413F017F081422417F404040407F020C90
:1005E000027F7F0204087F3E4141413E7F090909A5
:1005F000063E416141BE7F091929462649494932D3
:1006000001017F01013F4040403F1F2040201F3F2C
:100610004038403F631408146303047804036151B5
:10062000494543007F4141000304081060004141F7
:100630007F0004020102048080808080000307089C
:100640000020545478407F28444438384444442897
:10065000384444287F3854545418087E0909021835
:10066000A4A49C787F0804047800447D40000060C6
:1006700080847D7F1010284400417F40007C0478F6
:1006800004787C080404783844444438FC18242452
:100690001818242418FC7C08040408085454542016
:1006A000043F4444203C4040207C1C2040201C3C13
:1006B0004020403C44281028444C9090907C446456
:1006C000544C44000836410000007F0000004136D1
:1006D0000800180408100C7F4141417F03053F21A9
:1006E0003F1208120A100A0E1C0E0C1E0C141A14CB
:1006F000161F161E131E1E1B1E1E1F1E3F213F3AD5
:100700002F3A173D173F213F181F02040A041F0EFE
:1007100004040E1F0A1F0A0E0E1F04110E2E252E92
:100720002F2A2E262929021F02081F08150E04044D
:100730000E150E15151B151B040604040C040000F1
:10074000000017000300031F0A1F16371A190413AD
:100750000A153A000300000E11110E000A040A04E3
:100760000E040030000404040010001804031F11DC
:100770001F121F101D151711151F07041F17151D18
:100780001F151D01011F1F151F17151F000A00004F
:100790003200040A110A0A0A110A040115020E1194
:1007A000171E051E1F150A0E110A1F110E1F151107
:1007B0001F05010E111D1F041F111F1108100F1F0F
:1007C000041B1F10101F061F1E040F0E110E1F0901
:1007D000060E112E1F051A121509011F011F101FE9
:1007E0000F180F1F0C1F1B041B031C0319151300EC
:1007F0001F11030418111F00020102202020000114
:10080000020C121E1F120C0C12120C121F0C1A14C6
:10081000041E05242A1E1F021C141D1020201D1F4B
:100820000814111F101E041E1E021C0C120C3E0A7E
:10083000040C123E1E040214160A020F120E101EA1
:100840000E100E1E081E120C1226281E322A260416
:100850001E21001F00211E040102013F213F500301
:10086000440338032E030500380168010000050029
:1008700068013801000045006801000042455354FA
:100880002054494D45530017534400161378001661
:100890001314001510200015201000540A03E181E4
:1008A000867F3E186D830F0F0E0183866033186DAF
:1008B000C3198F1803C38E6033186DE330CF18034C
:1008C000C39E603630CDE360CF3006C79E7E3E309B
:1008D000CDB360CF300CC6F6603330D9B660CF33BD
:1008E000CFCCF66061B0DB1E60CF30D86CE6C06163
:1008F000B0DB1E618F19986CC6C063B19B0E330FBD
:100900000FB078C6FF7E1F1B061E0F004024FFFF9E
:10091000FFFFFFFFFFFF800000000030400180006C
:1009200000000060E001819BE78000C1F001819B35
:10093000EFC001C1F801819B0CC003FDF001819B58
:100940000CC003FCE401819B0CC007F84001819BB3
:10095000ECC00FF00001819BECC01818C201819B14
:100960000CC0383CE601819B0CC0307FE701819BC5
:100970000CC07FFDFF01819B0CC0FF3DFF81819B6F
:100980000CC1FE18CF8181FB0FC1FC00CE4180F36A
:10099000078304100621800000060E38841F8000A3
:1009A00000000F79843F9F060F3E1FFBCE3F9F86BE
:1009B0001FBE1F7FDF7F998F19B00E7BFF01998FBC
:1009C00019B00633DE01998F19B004218E019F8F73
:1009D0001830020104119F9F99BE026007E19F1F1A
:1009E0009B3E00738FC19B19983001F7DFC19B19A3
:1009F00099B000FFFF819B1F99B000F7C0019BBF1A
:100A0000D9B000E3800199B0DFBE0061040199B064
:100A1000CF3E00000001800000006533B3B98001C3
:100A20008000723AAA91FFFFFFFF722BB393DCEEB6
:100A3000EEEEEEEEEEEEEEEEEEEEEEEEEEADF00102
:100A40007100000000D000000DD00000055FF00C28
:100A5000EEEEEEEA00F00D000FF00000005FF00097
:100A6000D555005D00F00FD00FF00D50000FF08055
:100A7000F500000F00F00FF00FF00FCA800FF0002C
:100A8000F000D00B00F04FF00FF00F55000FF0808A
:100A9000F0D0F50005F44FF00BB00F50005FF00000
:100AA000F0B0F55555F46FF000000F00005FF080D6
:100AB000F000BCEEEAB66FF000000F008CAFF00063
:100AC000F500000066666FBCEEEEAF50005FF040D0
:100AD000B555000666666F0000000B55000FF50067
:100AE0000CEEEEEEEEEEAB000000CEEA000FF5509D
:100AF00000CEEEEEEEEEEEEEEEEEEEEA005FF55537
:100B00000000000055CEEA5508888800005FF555C2
:100B1000500000000003300000000000055FBCEE44
:100B2000EEEEEEEEEEEEEEEEA88888CEEEAB000036
:100B300000000000000000000000000000000000B5
:100B400000000000000000000000000000000000A5
:100B50000000000000000000000000000000000095
:100B60000000000000000000000000000000000085
:100B70000000000000000000000000000000000075
:100B80000000000000000000000000000000000065
:100B90000000000000000000000000000000000055
:100BA0000000000000000000000000000000000045
:100BB0000000000000000000000000000000000035
:100BC0000000000000000000000000000000000025
:100BD0000000000000000000000000000000000015
:100BE0000000000000000000000000000000000005
:100BF00000000000000000000000000000000000F5
:100C000000000000000000000000000000000000E4
:100C100000000000000000000000000000000000D4
:100C20000000000000000000000000000000F6E8E6
:100C3000DBCFC3B8AEA49B928A827B746E68625C81
:100C400057524E4945413E3A3734312E2C292725FB
:100C500023211F1D1C1A1917161514131211100F1A
:100C60000E0D0C0B0A09080706080B000202020110
:100C70000009040000010202000005240010010523
:100C80002401010104240206052406000107058150
:100C90000310004009040100020A000000070502D9
:100CA000024000000705830240000004030904120B
:100CB000010002EF020140412336800001010203DE
:100CC0000141726475696E6F204C4C43004172643F
:100CD00075696E6F204C656F6E6172646F00000005
:100CE00000002300260029002C002F000404040427
:100CF00004030405020202020403020202020606C1
:100D00000606060604040202020404040802011096
:100D10004080401020408040800802040180402034
:100D20001002011080102040402000000002000945
:100D30000F0000030401000C000000000000000090
:100D400000000000000000000000362611241FBE35
:100D5000CFEFDAE0DEBFCDBF11E0A0E0B1E0ECE91B
:100D6000F3E502C005900D92AA35B107D9F724E04A
:100D7000AAE5B1E001C01D92A53AB207E1F716E07D
:100D8000C6EAD6E004C02197FE010E94A629C53A12
:100D9000D107C9F70E949E180C94CC290C9400002E
:100DA000CF92DF92EF92FF920F931F93CF93DF9337
:100DB0006C017A018B01C0E0D0E0CE15DF0589F02F
:100DC000D8016D918D01D601ED91FC910190F081DA
:100DD000E02DC6010995892B11F47E0102C02196F0
:100DE000ECCFC701DF91CF911F910F91FF90EF9052
:100DF000DF90CF900895089580E090E008950E94DC
:100E0000C029EF92FF920F931F93CF93DF938C0132
:100E10007B01C0E0D0E0F701EC0FFD1F6491662379
:100E200061F0D801ED91FC910190F081E02DC801B5
:100E30000995892B11F02196EECFCE01DF91CF914C
:100E40001F910F91FF90EF9008956115710579F052
:100E5000FB0101900020E9F73197AF01461B570BCA
:100E6000DC01ED91FC910280F381E02D099480E09A
:100E700090E008950F931F93CF93DF93EC010E94AE
:100E800001078C0166E571E0CE010E942507800F05
:100E9000911FDF91CF911F910F91089590E0FC0178
:100EA0003197EF30F105B0F5EB59FF4F0C94A629BF
:100EB000809180008F7703C0809180008F7D809328
:100EC0008000089580918000877FF9CF84B58F7767
:100ED00002C084B58F7D84BD0895809190008F7786
:100EE00007C0809190008F7D03C080919000877F24
:100EF0008093900008958091C0008F7703C0809107
:100F0000C0008F7D8093C00008958091C200877FCC
:100F10008093C20008951F93CF93DF93282F30E072
:100F2000F901E65DF24F8491F901E55FF24FD4914A
:100F3000F901E451F34FC491CC23C9F0162F81116C
:100F40000E944E07EC2FF0E0EE0FFF1FEC58FC4F15
:100F5000A591B4918FB7F894111105C09C91ED2F14
:100F6000E095E92302C0EC91ED2BEC938FBFDF916C
:100F7000CF911F910895CF93DF9390E0FC01E55F3F
:100F8000F24F2491FC01E451F34F8491882361F1E5
:100F900090E0880F991FFC01E75AFC4FC591D4914E
:100FA000FC01EC58FC4FA591B491611109C09FB7A9
:100FB000F8948881209582238883EC912E230BC09E
:100FC000623061F49FB7F8943881822F8095832333
:100FD0008883EC912E2B2C939FBF06C08FB7F8947B
:100FE000E8812E2B28838FBFDF91CF9108953FB7E3
:100FF000F8948091BE019091BF01A091C001B09181
:10100000C10126B5A89B05C02F3F19F00196A11D6F
:10101000B11D3FBFBA2FA92F982F8827820F911D8E
:10102000A11DB11DBC01CD0142E0660F771F881FD5
:10103000991F4A95D1F708958F929F92AF92BF92D0
:10104000CF92DF92EF92FF926B017C010E94F70733
:101050004B015C01C114D104E104F104F1F00E94E0
:10106000F707DC01CB0188199909AA09BB09883E59
:101070009340A105B10570F321E0C21AD108E1083F
:10108000F10888EE880E83E0981EA11CB11CC114E3
:10109000D104E104F10419F7DDCFFF90EF90DF9068
:1010A000CF90BF90AF909F908F9008951F920F9216
:1010B0000FB60F9211242F933F938F939F93AF936B
:1010C000BF938091C3039091C403A091C503B091D5
:1010D000C6033091BD0123E0230F2D3720F4019684
:1010E000A11DB11D05C026E8230F0296A11DB11D4B
:1010F0002093BD018093C3039093C403A093C503C1
:10110000B093C6038091BE019091BF01A091C00130
:10111000B091C1010196A11DB11D8093BE019093B4
:10112000BF01A093C001B093C101BF91AF919F9146
:101130008F913F912F910F900FBE0F901F90189598
:10114000982F9695E62FF0E024E0EE0FFF1F2A95EA
:10115000E1F7E90FF11DE25DF54F80FF02C08491D8
:1011600002C0849182958F700895EBE9F1E083E0ED
:10117000808F80E090E0A0EAB1E480839183A28335
:10118000B38384839583A683B783108611861286E2
:1011900013861486158616861786108A118A128A77
:1011A000138A148A158A168A178A08951F920F9235
:1011B0000FB60F9211242F936F937F938F939F936A
:1011C0006091C801662371F18091BC018F5F8093AB
:1011D000BC019091C901891728F12091C60181E0D5
:1011E00028272093C6011092BC018091CA01882350
:1011F00069F08091000193E4899F802D1124895B1F
:10120000809300010E9486299093C701222341F018
:101210008091C70190E0909399008093980002C05C
:1012200080E0F8CF9F918F917F916F912F910F90D8
:101230000FBE0F901F901895FC0161110FC0178A07
:10124000158A14A213A2108E1092C7011092C80121
:101250001092C60110929900109298000895EF9292
:10126000FF920F931F93CF93DF931F92CDB7DEB7FB
:101270007C018B01411105C060E049830E941C097B
:10128000498150E0FA01EE0FFF1FEE0DFF1D16879A
:101290000587DA011996AA0FBB1FAE0DBF1D1D925F
:1012A0001C92F701E40FF51F81E0818389E0868BB2
:1012B000118E138E158E0F90DF91CF911F910F918C
:1012C000FF90EF90089540E066E778E00C942F09D6
:1012D00040E06EE678E00C942F0940E066E678E0A6
:1012E0000C942F098F929F92AF92BF92DF92EF9250
:1012F000FF920F931F93CF93DF9382E0882E912C60
:10130000A12CB12C95E1E92EF12C0E94E80F882345
:10131000E1F30E94A326A50194010E94C726675FFE
:10132000609330040E94A326A50194010E94C72661
:10133000609331046CE778E087E294E00E943A071A
:1013400010922C041092300480912F048093310469
:1013500001E911E0CAE5D1E0DD24D394F8018081F0
:101360009181892B61F4E0912704F0912804019088
:10137000F081E02D6DE287E294E0099505C0BE01A1
:1013800087E294E00E94250780912E049701281B94
:101390003109C901880F880F8093300480912F0490
:1013A000D89E802D112480933104F80161917191B0
:1013B0008F01072E000C880B990B97FF03C00E942A
:1013C000171303C04AE00E94D41266E571E087E279
:1013D00094E00E942507D3942B96F6E0DF12BECF4F
:1013E0008091EE03813049F08091EF03813029F044
:1013F0008091F003813009F088CF8EEF93E0DF9188
:10140000CF911F910F91FF90EF90DF90BF90AF9021
:101410009F908F900C946D09DC01FB0184918F5F8C
:1014200017968C9317973196E491EF5F1896EC938B
:1014300018976E5F7F4F1E967C936E931D9708954D
:101440004F925F926F927F928F929F92AF92BF92D4
:10145000CF92DF92EF92FF920F931F93CF93DF9380
:10146000F901C49031965491EC010F8564350CF06C
:1014700018C140330CF015C10C2C000CDD08A62F50
:10148000062E000CBB0B7D01EC0CFD1C1E141F0472
:101490000CF007C1A52E842E042E000C9908F4012F
:1014A000E50FF11D57FDFA951E161F060CF0F9C049
:1014B0002E5F3F4FE6012796D7FD279673E0D5951F
:1014C000C7957A95E1F747FF0AC0A52EA40EC89DDF
:1014D000A001C99D500D1124241B350B40E0EA2DBD
:1014E0000A2C000CFF0BE40FF11D47FDFA95F19754
:1014F0001CF050E3A52EA41A67FD60E0F701E53566
:10150000F10514F0E4E5F0E07E2FFC01D484D4264C
:10151000862F062E000C990BFC01EA1BFB0BDF014A
:101520007F01F7E0EF22FF24E0E8F0E002C0F5954C
:10153000E795EA94E2F71E2FB7FD179653E0B595AD
:10154000A7955A95E1F72A0F3B1FE42FE77051E06A
:1015500001C0550FEA95EAF7459545954595B4E5DF
:101560004B02800D911D112485539E4FC12C0A2CD6
:10157000000CBB08992493942E015524EC2DF0E027
:10158000EA15FB050CF08DC0F90144910130E1F43E
:101590007C01A12F862E881AB82DBE0DB71708F032
:1015A00077C0B42FBA2321F0E701B881B52BB883F7
:1015B000B0E0B595A795109719F431964491A0E83D
:1015C000DFEFED1AFD0AE8CF01111FC0752E7094F0
:1015D0007C01A12FF901862E881AB82DBE0DB717F0
:1015E00008F056C0B42FBA2321F0E701B881B72123
:1015F000B883B0E0B595A795109719F4319644914A
:10160000A0E8DFEFED1AFD0AE8CF033031F07C01EE
:10161000A12FF901862E881A37C0752E7094862E58
:101620007C01A12FF9018716D8F4B42FBA2359F001
:10163000E701B881682C6D2460FE02C0B52B02C0A2
:10164000B721E701B883B0E0B595A795109719F4D5
:1016500031964491A0E88394DFEFED1AFD0AE3CFC1
:10166000D92416C0B42FBA2321F0E701B881B527D9
:10167000B883B0E0B595A795109719F431964491C9
:10168000A0E8DFEFED1AFD0AB82DBE0DB71750F335
:10169000550F19F48C5A9F4F51E0C394240D351DFA
:1016A0006DCFDF91CF911F910F91FF90EF90DF9061
:1016B000CF90BF90AF909F908F907F906F905F90F2
:1016C0004F900895CF92DF92EF92FF920F931F9366
:1016D000CF93DF9380914C04882309F4C8C0109203
:1016E000F10381E080932D0410922C0410922B04BE
:1016F0008093360480933704CBE0D9E01CE00E944D
:10170000E80F8823E1F3FE018491882319F000910A
:101710002F0401C000E02BE938E040E060E087E200
:1017200094E00E94200A4CE0400F2CE039E060E099
:1017300087E294E00E94200A109230041093310452
:101740006BE079E087E294E00E94010780912E042B
:10175000982F990F890F81958D5A8093300480912D
:101760002F04982F990F890F8195835D8093310401
:1017700080913E0484FF03C067E978E002C063E91A
:1017800078E087E294E00E943A0780912E04982F37
:10179000990F890F81958D5A80933004809131047F
:1017A0008F5F8093310480910304882319F06FE8E0
:1017B00078E002C06BE878E087E294E00E943A07A4
:1017C00080912E04982F990F890F81958D5A8093BF
:1017D0003004809131048F5F8093310467E878E0B2
:1017E00087E294E00E943A078091EF03813099F4F8
:1017F000809103048F5F082E000C990B6091040404
:1018000070E06F5F7F4F0E949229809303048EEFF8
:1018100093E00E9463098091EE038130B9F08091DA
:101820004C04482F50E060E070E0C0903E04D0903F
:101830003F04E0904004F0904104C416D506E6064B
:10184000F70608F45CCF8F3F09F459CF8FEF8093F0
:101850004C0460E08EEF93E00E941C091092FF039D
:101860008EEF93E00E946D0981E08093F1038091F7
:1018700064008E7F8093640087EC80937C0080E21C
:1018800080937B0062E070E080E090E00E941C08A2
:1018900080917A00806480937A0080917A0086FD3E
:1018A000FCCFC0917800D0917900C095D0958EE59D
:1018B00080937C0062E070E080E090E00E941C0871
:1018C00080917A00806480937A0080917A0086FD0E
:1018D000FCCF00917800109179000E94F7079B01DE
:1018E000AC012095309540955095009510950C9F32
:1018F000D0010D9FB00D1C9FB00D11240E94E62653
:101900006B017C010E94F7076C0D7D1D8E1D9F1DD4
:10191000611571058105910511F00E94A82680913D
:101920006400816080936400DF91CF911F910F91DB
:10193000FF90EF90DF90CF900895FC01643508F0A0
:1019400053C0403308F050C09785742F7595759536
:101950007595262F062E000C330B542F577092309E
:10196000A1F4F901E553FE4F84E57802E00DF11D85
:101970001124808190E0052E02C0959587950A94E8
:10198000E2F78095982F91700AC0933041F48485D6
:101990008170462740954170841303C014C0911193
:1019A00012C084E57802200D311D1124F901E553A0
:1019B000FE4F81E090E001C0880F5A95EAF78095CC
:1019C0009081892310C084E57802200D311D1124F7
:1019D000F901E553FE4F81E090E001C0880F5A9570
:1019E000EAF79081892B80830895DF92EF92FF922E
:1019F0000F931F93CF93DF931F92CDB7DEB78C0168
:101A0000D62EF42EE12CE21654F46E2D6D0D4F2DD2
:101A1000C80129830E949D0CE3942981F4CF0F9083
:101A2000DF91CF911F910F91FF90EF90DF9008957C
:101A3000DF92EF92FF920F931F93CF93DF937C017E
:101A4000D62FD22EC42F002E000C110B040F111D07
:101A500047FD1A954C2F0C2E000C550B40175107C3
:101A600044F42D2D4C2F6D2FC7010E94F50CCF5F34
:101A7000F1CFDF91CF911F910F91FF90EF90DF9009
:101A800008956F927F928F929F92AF92BF92CF9262
:101A9000DF92EF92FF920F931F93CF93DF93EC01AE
:101AA0008F8464350CF080C040330CF07DC0EF8132
:101AB000F0E031970E9FC0010F9F900D1124860F0B
:101AC000911D67FD9A95181619060CF06DC0E885F2
:101AD000E09FF0011124E40FF11D47FDFA951E1659
:101AE0001F060CF061C0102FE42EF62E962EB62E97
:101AF000C22ED12CEB2DEF190E2E000CFF0B8F8177
:101B000090E0E817F9070CF04EC00197E817F907C5
:101B100079F0C89E9001C99E300DD89E300D1124D9
:101B2000E20FF31F8D859E85E80FF91F749001C0A9
:101B3000712C6E2CAE2C2A2D2E19022E000C330B7C
:101B4000888590E0281739075CF570FE10C01130C9
:101B500031F44A2D6B2DCE010E949D0C1DC0012F2A
:101B6000212F462D692DCE010E94180D15C08889A0
:101B70009F85891789F08F87113031F44A2D6B2D9D
:101B8000CE010E949D0C07C0012F212F462D692DEB
:101B9000CE010E94180D8F867694A394610ECBCF50
:101BA000B394910EA7CF8F86DF91CF911F910F91A4
:101BB000FF90EF90DF90CF90BF90AF909F908F906D
:101BC0007F906F9008950F93CF93DF93EC016A306D
:101BD00019F428859E811FC06D3019F1262F0E81C2
:101BE0004A8569850E94410D2E813F818985329FFA
:101BF000800D112489879D81992399F0082E000C6E
:101C0000990B44E550E0239F4019510911244817CE
:101C100059073CF498858A85299F800D11248A876D
:101C2000198681E090E0DF91CF910F910895DF92C6
:101C3000EF92FF920F931F93CF93DF931F92CDB735
:101C4000DEB78C01D62EF42EE12CE21654F44E2D84
:101C50004F0D6D2DC80129830E949D0CE3942981AD
:101C6000F4CF0F90DF91CF911F910F91FF90EF90E4
:101C7000DF9008958F929F92AF92BF92CF92DF92A2
:101C8000EF92FF920F931F93CF93DF936C01B62EC9
:101C9000A42EC22F11E0121BF22EF194FF0CD1E002
:101CA000802F8170882E992493949E0C02708FEF60
:101CB0008D0F8C17C4F517FD04C0C150F394F39435
:101CC0001F0D8D2F880F8F5F180F882099F02C2FF4
:101CD000220F290D4A2D4C1B6D2F6B0DC6010E9442
:101CE000170E23E02E0D4A2D4D1B6C2F6B0DC601D8
:101CF0000E94170E002399F02C2F220F290D4A2D38
:101D00004C1B6B2D6D1BC6010E94170E23E02E0D80
:101D10004A2D4D1B6B2D6C1BC6010E94170EDF5FF9
:101D2000E394E394C4CFDF91CF911F910F91FF9083
:101D3000EF90DF90CF90BF90AF909F908F900895DD
:101D40008EBD00000DB407FEFDCF8EB50895FC01D9
:101D50008091C501811103C08FEF9FEF08959FB758
:101D6000F89482E08093E9002091F20030E01216AE
:101D7000130614F421E030E02115310559F02898BC
:101D800084E68093C4018091F10080838091F20009
:101D9000882319F09FBFC90108958BE68093E8005E
:101DA000F9CF2FB7F89483E08093E9009091E80091
:101DB000892F807295FF04C09091F20080E4891B06
:101DC0002FBF0895CF93DF931F92CDB7DEB76983FE
:101DD000DC01ED91FC910280F381E02D41E050E0C7
:101DE000BE016F5F7F4F09950F90DF91CF910895EE
:101DF00083E08093E9008091F200882319F08AE360
:101E00008093E80008950E94D10E90E00895CF934A
:101E1000DF931F92CDB7DEB7FC018485958597FDD2
:101E200005C02FEF3FEF358724870BC0CE01019609
:101E30000E94A70E019719F4898190E002C08FEFEC
:101E40009FEF0F90DF91CF9108950F931F93CF9342
:101E5000DF931F92CDB7DEB78C01FC018485958599
:101E600097FF0EC0CE0101960E94A70E019719F4AC
:101E7000298130E002C02FEF3FEFF801358724873A
:101E8000F801848595850F90DF91CF911F910F9177
:101E90000895FC018485958597FD0BC09FB7F89444
:101EA00082E08093E9008091F2009FBF90E001966C
:101EB00008959FB7F89482E08093E9008091F20042
:101EC0009FBF90E008958F929F92AF92BF92CF9262
:101ED000DF92EF92FF920F931F93CF93DF935C01FA
:101EE0006B017A0180910801882309F45BC080911D
:101EF000C501882309F456C08091C30180FF05C045
:101F00008091E00082608093E000E70110E00AEF3A
:101F100083E0882E9AE3992E2097D9F10E94D10E62
:101F200081110AC0015009F43DC061E070E080E019
:101F300090E00E941C08F0CF282F30E0C217D30792
:101F40000CF48C2F4FB7F8948092E9009091E80040
:101F500095FF1DC0282F30E0C21BD30BF601982F30
:101F6000915020F081918093F100FACFC20ED31EE0
:101F7000112319F09092E80009C08091E80085FDD6
:101F800006C09092E80011E0209709F010E04FBFE2
:101F9000C3CF1111C3CF5D9884E68093C2011E1494
:101FA0001F0444F081E090E0F5019383828380E098
:101FB00090E001C0C701DF91CF911F910F91FF9079
:101FC000EF90DF90CF90BF90AF909F908F9008954B
:101FD000DF92EF92FF920F931F93CF93DF93409185
:101FE0004E0450914F0460915004709151042FB7EA
:101FF000F8948091C3039091C403A091C503B0915C
:10200000C6032FBF481B590B6A0B7B0B80914D04F5
:1020100090E0A0E0B0E000914604109147042091C8
:1020200048043091490484179507A607B70730F490
:10203000011511052105310509F06DC280E0012B64
:10204000022B032B09F0A8C20E945D188091FF03A8
:10205000882309F4ADC0809113048111A9C0809137
:102060000B0490910C04E0911004F0911104EE0F18
:10207000FF1FE80FF91F459154914115510501F5D6
:1020800020910F04222331F01092110410921004B9
:10209000FC0114C01092FF038091FE03882341F0DD
:1020A00080E00E945D18E0911004F09111042FC0AF
:1020B00060E08EEF93E00E941C097AC04591549134
:1020C0009A01369527953695279540FF51C0CA014C
:1020D000B6E096958795BA95E1F78F71952F96950D
:1020E0009695969590512F70223071F1F8F4211148
:1020F00017C08B3008F08AE080931404E09110043C
:10210000F09111043196F0931104E0931004EE0F56
:10211000FF1F80910B0490910C04E80FF91FCECFA4
:10212000213061F760E00E942218E8CF2330B1F03F
:10213000243021F720910204829F802D1124809366
:102140001B0490931C04DACF20910204829F802DFF
:1021500011248093170490931804D0CF2091020487
:10216000829F802D11248093190490931A04C6CF66
:102170002F732093120480910204859F802D1124D7
:1021800080931304109223041092220410922104CD
:1021900081E0809315048093C6011092160480910B
:1021A00010049091110401969093110480931004EF
:1021B00080911504882309F4E7C0809113048111EC
:1021C00006C060E08EEF93E00E941C09DDC08150E4
:1021D0008093130480912304811148C0209121042D
:1021E000309122042F5F3F4FC901880F991FE09162
:1021F0001D04F0911E04E80FF91F65917491862F5C
:10220000877080932404AB0163E0569547956A95E7
:10221000E1F7CA0196958795972F96959695909395
:1022200025048F7390910204899F802D112480933F
:10223000230441704093CA01309322042093210467
:1022400080911F0490E02817390780F02091200426
:10225000222339F0821B9109909322048093210458
:1022600005C060E08EEF93E00E941C09809123047A
:102270008150809323048091160421E0280F20933D
:1022800016044091120430912504340F80910A0401
:10229000380F3093000460911904662371F070E0E8
:1022A000822F022E000C990B0E94922980911A0411
:1022B000869F300D1124309300048091000490E03B
:1022C000CB966BE370E00E949229809300043091DA
:1022D00014043093010460911704662381F0062EE4
:1022E000000C770B822F022E000C990B0E94922972
:1022F00080911804869F300D112430930104609161
:102300001B046623A1F0822F220F990B70E00E941C
:102310009229CB0162E070E00E94922920911C0476
:1023200090910104289F900D1124909301048091B5
:1023300001044F3341F08A300CF089E087FD80E0E2
:102340008093010402C010920104F894E09100040B
:10235000F0E0E25DF34FE491E093C901809126043F
:1023600090910304899F802D112490910104899FED
:10237000802D112490912404899F802D1124809315
:10238000C8018093C701789480915204882309F48E
:1023900057C08C3018F4CCE0C81B01C0C0E0DD246D
:1023A000D394D0922D041092360410923704E0900A
:1023B0002F041DE2D12FDE19DC0F03E00E0D2EE4F9
:1023C0004D2F63E087E294E00E94180D8CEFF82E09
:1023D000FE0CDD5FEF2C01E023E04D2F60E587E28E
:1023E00094E00E943A0E02E023E04D2F63E087E282
:1023F00094E00E943A0ED0923604D0923704809135
:102400002F0423E0280F612F681B6C0F44E580E048
:102410000E94D11784E08093300480912F04C81B60
:10242000C15DC0933104609153047091540487E2FC
:1024300094E00E94010780915204815080935204DD
:10244000809133048F5F809333040BEC11E0C0E084
:102450000E94B01782E20E94A00ECF5F8C2F0E94D4
:10246000A00E87E00E94A00E81E20E94A00E86E1ED
:102470000E94A00E8FE70E94A00EE0913A04F09116
:102480003B04908180913D04892B8083E091380446
:10249000F0913904908180913C0480958923808358
:1024A000E12CF12CF801EE0DFF1D80810E94A00EA1
:1024B0002FEFE21AF20A34E5E316F10499F70C5A09
:1024C0001F4FC63029F680912B0481110EC088EF72
:1024D00091E0EBECF1E0DF019C011D9221503040D6
:1024E000E1F710923004109231040E94F7076093D4
:1024F00046047093470480934804909349042091C4
:10250000420430914304621B730B70934B0460933D
:102510004A0480E041C02FB7F8948091C3039091A2
:10252000C403A091C503B091C6032FBF20914D04F1
:10253000820F911DA11DB11D80934E0490934F04F5
:10254000A0935004B093510480913E0490913F04B5
:10255000A0914004B09141040196A11DB11D80934A
:102560003E0490933F04A0934004B0934104109222
:1025700046041092470410924804109249040E94A5
:10258000F70760934204709343048093440490934C
:1025900045040E94431781E0DF91CF911F910F9175
:1025A000FF90EF90DF9008958F929F92AF92BF922D
:1025B0000F931F93CF93DF93CDB7DEB7A1970FB6DD
:1025C000F894DEBF0FBECDBF19A2423008F44AE036
:1025D0008E010F5D1F4F842E912CA12CB12CA501D3
:1025E00094010E94F926E62FB901CA010150110990
:1025F000EA3014F4E05D01C0E95CD801EC93232BD0
:10260000242B252B61F7B80187E294E00E9425076F
:10261000A1960FB6F894DEBF0FBECDBFDF91CF916C
:102620001F910F91BF90AF909F908F900895CF9280
:10263000DF92EF92FF92CF93DF936B017C01E091E9
:102640002704F09128040190F081E02D6DE287E2EB
:1026500094E00995EC0166277727CB016C197D0979
:102660008E099F094AE00E94D4128C0F9D1FDF91B2
:10267000CF91FF90EF90DF90CF9008958091CB03A2
:1026800081110DC082E08093C70384E08093C8036A
:102690001092CA031092C90381E08093CB0387ECA8
:1026A00093E008954091D7035091D8032091D5032A
:1026B0003091D60342175307B4F49091E800957017
:1026C000E1F39091E80092FD19C08093F1008091B0
:1026D000D7039091D80301968F739927892B19F40A
:1026E0008EEF8093E8008091D7039091D8030196F4
:1026F0009093D8038093D70381E0089580E00895F4
:10270000CF92DF92EF92FF920F931F93CF93DF93BD
:102710001F92CDB7DEB7182F062FE42E862F880F15
:102720008E5F99830E94521383E00E945213F12E10
:10273000C12E9981D92E8C2D8F19801798F4F6010E
:10274000E7FE02C0849101C080810E945213182FBD
:1027500080E00E9452138123FFEFCF1ADF0A81111C
:10276000EACF01C081E00F90DF91CF911F910F91CF
:10277000FF90EF90DF90CF900895DF92EF92FF925D
:102780000F931F93CF93DF93D82E8A017B01E40E22
:10279000F51EEB01CE15DF0571F0D7FE03C0FE017B
:1027A000849101C088810E94521321968111F2CF39
:1027B0008FEF9FEF01C0C801DF91CF911F910F9163
:1027C000FF90EF90DF900895615030F02091F1007C
:1027D000FC0120830196F8CF289884E68093C401F9
:1027E00008950F931F93CF93DF931F92CDB7DEB75A
:1027F00082E0898342E450E069E67CE080E80E9460
:10280000BD130E943E13DC0112960D911C9113978B
:102810000115110569F0D801ED91FC910280F38159
:10282000E02DBE016F5F7F4FC801099597FF07C07C
:1028300089810F90DF91CF911F910F910895F80139
:1028400000851185E5CF1F920F920FB60F921124CC
:102850008F939F938091E1009091E100937F9093FB
:10286000E10083FF0FC01092E90091E09093EB002C
:102870001092EC0092E39093ED001092C50198E065
:102880009093F00082FF20C093E09093E900909134
:10289000F200992319F09AE39093E8009091C20115
:1028A000992339F09091C20191509093C2019923DC
:1028B00089F19091C401992339F09091C40191500C
:1028C0009093C401992341F184FF10C08091E200EC
:1028D0008E7E81608093E2008091E1008F7E809304
:1028E000E1008091C3018E7E806111C080FF16C01F
:1028F0008091E2008E7E80618093E2008091E10011
:102900008E7E8093E1008091C3018E7E81608093F2
:10291000C30104C05D9ACDCF289AD6CF9F918F91E5
:102920000F900FBE0F901F9018951F920F920FB629
:102930000F921124CF92DF92EF92FF920F931F9389
:102940002F933F934F935F936F937F938F939F93B7
:10295000AF93BF93EF93FF93CF93DF93CDB7DEB7E2
:102960006C97DEBFCDBF1092E9008091E80083FF35
:10297000EDC168E0CE0145960E94E41382EF80939A
:10298000E8008D8987FF05C09091E80090FFFCCF9B
:1029900003C09EEF9093E800982F907609F0C6C090
:1029A0009E892F89188D91110CC0803829F480914F
:1029B000D4038093F10002C01092F1001092F10054
:1029C00048C1422F50E0512B913051F4811141C147
:1029D0004130510509F03DC18091D4038D7F0BC07A
:1029E000933061F4811135C14130510509F031C195
:1029F0008091D40382608093D4032BC1953041F43D
:102A00008091E80080FFFCCF20682093E30021C183
:102A1000963009F05FC0EB8CFC8C1092E9001092AC
:102A2000D8031092D703123091F51092D60310926A
:102A3000D5030E94F11399E0BE016F5F7F4FDB0168
:102A4000E92F1D92EA95E9F799831A8391E09E8315
:102A500090EA98879AEF99872091D7033091D8030D
:102A6000275F3F4F3C832B838D831092E9001092A8
:102A7000D8031092D703F092D603E092D50349E031
:102A800050E080E00E94BD130E94F113E2C0F0927A
:102A9000D603E092D5030E943E13DC011296ED901E
:102AA000FC901397E114F10409F4C0C0D701ED9133
:102AB000FC910480F581E02DBE016B5E7F4FC70164
:102AC0000995009719F00CF0C4C0C7C0F701E08465
:102AD000F184E8CF973009F4C0C0983021F481E048
:102AE0008093F100B6C0993009F0B3C0837009F04B
:102AF000B4C0E2E3F1E081E021E036E39081992384
:102B000061F08093E9002093EB0091919093EC00A9
:102B10003093ED008F5F873089F78EE78093EA006E
:102B20001092EA008F898093C50193C08B8D9C8D94
:102B30001092E9001092D8031092D7039093D60315
:102B40008093D503898D811156C08E899D89913AD4
:102B500059F4813209F081C047E050E061E071E052
:102B600080E00E94BD1375C0913209F076C08332B7
:102B700089F4888D90E0982F88272F89822BA0E0F8
:102B8000B0E08093090190930A01A0930B01B093E8
:102B90000C015FC0803269F48091E80082FFFCCFB5
:102BA00067E081E091E00E94E4138BEF8093E800FE
:102BB00006C0823209F04DC08F8980930801809150
:102BC000D303882319F0EEEFFAE002C0E0E0F8E06A
:102BD0008091010190910201A0910301B091040143
:102BE000803B9440A105B10509F07BC080910801AC
:102BF00080FF93C076C00E943E13DC0112960D91B7
:102C00001C9113970115110541F1D801ED91FC912B
:102C10000190F081E02DBE016B5E7F4FC8010995E8
:102C2000811117C0F80100851185ECCF113009F42E
:102C30004EC0133091F48F89882309F445C0823047
:102C400081F440E860E18DEC9CE00E9480138823D1
:102C500021F08EEF8093E80079C081E28093EB0051
:102C600075C0813029F440E86BE081EC9CE0EDCF49
:102C7000833099F70E943E13DC011296ED90FC9090
:102C800013978E010F5F1F4F6801E114F10479F073
:102C9000D701ED91FC910680F781E02DB801C701C5
:102CA0000995080F111DF701E084F184EECFD801DA
:102CB0001C92F60101900020E9F73197BF016C19D1
:102CC0007D0940E0C601C1CF6BEA7CE002C06FEA3B
:102CD0007CE06115710509F2FB01449150E080E848
:102CE00040CF0FB6F894A8958091600088618093DA
:102CF0006000109260000FBEA895EE3F2AE0F20738
:102D000039F08091FE0A9091FF0A91838083A1CFD0
:102D10001092FF0A1092FE0A9CCFEE3F8AE0F8075D
:102D200031F0808191819093FF0A8093FE0A87E7BA
:102D300097E7918380839BE088E10FB6F894A8958C
:102D4000809360000FBE9093600083CF6C960FB6A7
:102D5000F894DEBF0FBECDBFDF91CF91FF91EF9111
:102D6000BF91AF919F918F917F916F915F914F91A3
:102D70003F912F911F910F91FF90EF90DF90CF9097
:102D80000F900FBE0F901F901895AF92BF92CF92E9
:102D9000DF92EF92FF920F931F93CF93DF93182F41
:102DA000062FC1E0D3E08AEFD82E9EEFE92E842FC4
:102DB0008470C82E842F8270B82E842F8870A82E1D
:102DC0004170F42E8C2F880F8F5FE80ECC2081F09D
:102DD0004D2F400F6C2F610F87E294E00E949D0CF5
:102DE0004C2F400F6D2F610F87E294E00E949D0CE5
:102DF000BB2081F0402F4D1B6C2F610F87E294E0C8
:102E00000E949D0C402F4C1B6D2F610F87E294E0B8
:102E10000E949D0CAA2081F04C2F400F612F6D1B4A
:102E200087E294E00E949D0C4D2F400F612F6C1B98
:102E300087E294E00E949D0CFF2081F0402F4C1B04
:102E4000612F6D1B87E294E00E949D0C402F4D1B6B
:102E5000612F6C1B87E294E00E949D0CCD1744F417
:102E6000E7FC04C0D150D394D394ED0CCF5FAACF2C
:102E7000DF91CF911F910F91FF90EF90DF90CF9056
:102E8000BF90AF900895CF92DF92EF92FF920F9391
:102E90001F93CF93DF93C3EED3E00AEE13E0FF243A
:102EA000FA9496E0E92EE00E62E088810E94BB076A
:102EB000288130E0F901E65DF24F8491F901E55F88
:102EC000F24FC490F901E451F34FD490DD2071F03A
:102ED00081110E944E07ED2DF0E0EE0FFF1FE25230
:102EE000F34FA591B491EC91EC2131F5F80180817B
:102EF0008F5F808360E088810E94BB0721960F5F0F
:102F00001F4FE012D1CF9091EA0391508091F003CE
:102F10009E3F38F49091EC0391509E3F10F48F5FE8
:102F200008C08823A1F08F3F19F41092F0030FC05E
:102F30008FEF8093F0030BC0F80180818823F1F2BA
:102F4000F8018F3F11F41082D5CFF082D3CFDF91FB
:102F5000CF911F910F91FF90EF90DF90CF90089548
:102F6000CF93DF93E8E3F4E0C081D1819881ACE3B3
:102F7000B4E08C91892B8883C0913A04D0913B04B2
:102F8000988180913D048095892388830190F08108
:102F9000E02D90818C91809589238083DF91CF9162
:102FA0000895DF92EF92FF920F931F93CF93DF93D9
:102FB000C82FD62FE42E022F8AEFD82ED40E93E0FE
:102FC000F92EFC0E2D2D462F6F2D87E294E00E94E6
:102FD000F50C1D2F100F4FEF410F2D2D6F2D87E298
:102FE00094E00E94F50C0650DD5F202F4D2F6C2FD2
:102FF00087E294E00E94170ECE0D6FEF6C0F202F2A
:103000004D2F87E294E00E94170E41E06D2F8F2D27
:103010000E94C516C45042E06D2F8C2F0E94C51629
:10302000145044E0612F8C2F0E94C51648E0612F98
:103030008F2DDF91CF911F910F91FF90EF90DF9037
:103040000C94C51670E0DB01AA0FBB1FA752BC4F42
:10305000D4962C91D497D5969C91D597E22FF92FA1
:10306000E80FF11DE80FF11D259134915F969696BA
:103070003C932E939597F901859194919091020438
:10308000989F802D112467527C4FFB01B19685A338
:10309000F901A591B4914B2F50E0E82FF0E04E17C5
:1030A0005F0720F4F90125913491832FFB01B2963B
:1030B000899F802D112485A30895CF93DF93482FF6
:1030C00050E0EA01C752DC4F9DA19923A1F19EA1D6
:1030D000911131C09EA5FA01EE0FFF1FE052FC4F87
:1030E00035A126A1E32FF22FE90FF11DE90FF11D04
:1030F000259134912F3F9FEF390711F41DA21BC07A
:1031000039AB440F551FFA01ED51FC4F3327220F05
:10311000331F05A0F6A1E02DE20FF31F6591749116
:10312000811105C040E08EEF93E00E942F0929969F
:103130008DA18F5F8DA3DF91CF910895CF93DF9302
:10314000CDB7DEB765970FB6F894DEBF0FBECDBF23
:10315000789484B5826084BD84B5816084BD85B572
:10316000826085BD85B5816085BD80916E0081607E
:1031700080936E0010928100809181008260809324
:103180008100809181008160809381008091800026
:103190008160809380008091910082608093910093
:1031A0008091910081608093910080919000816076
:1031B000809390008091C10084608093C1008091D1
:1031C000C10082608093C1008091C10081608093C2
:1031D000C1008091C30081608093C3008091C000D2
:1031E00082608093C0008091C20081608093C200A1
:1031F00080917A00846080937A0080917A00826066
:1032000080937A0080917A00816080937A00809127
:103210007A00806880937A001092C5011092D403DE
:103220001092C3018091D70081608093D70080EA1B
:103230008093D80089B5806189BD89B5826089BDD8
:1032400009B400FEFDCF61E070E080E090E00E94F4
:103250001C088091D8008F7C80618093D800809179
:10326000E000807F8093E0008091E1008E7E80937B
:10327000E1008DE08093E200559A209AEEEFFFE79F
:10328000859194918B3F9C4D19F481E08093D303F9
:1032900082E380934D0481E090E0A0E0B0E0809371
:1032A000460490934704A0934804B093490411E066
:1032B00010930404109303048FEF80934C0484E173
:1032C0008093E30382E18093E40383E18093E50349
:1032D00085E18093E60387E08093E70388E08093AD
:1032E000E8031092E9030E944317109336041092EA
:1032F000370410932C0410932D046CED76E087E2D4
:1033000094E00E940C0A1FB7F8948091B4018111D7
:1033100027C0EDEFFCE08491ECE1FDE09491E82F13
:10332000F0E0EE0FFF1FE75AFC4FA591B491EC912E
:10333000E92321F461E081E10E948B0761E081E1F2
:103340000E94BB078CB580618CBD8CB580648CBD40
:1033500061E08FE00E94BB0761E080E10E94BB0753
:103360008091B4018F5F8093B4011FBF8CB58C7FB7
:103370008CBD8DB581608DBD61E084E00E94BB078E
:1033800061E08CE00E94BB0761E086E00E94BB0721
:1033900061E086E00E948B0761E070E080E090E0F1
:1033A0000E941C0860E086E00E948B076AE070E0E3
:1033B00080E090E00E941C0861E086E00E948B079C
:1033C000E8EFFCE0E491F0E0EE0FFF1FEC58FC4F5B
:1033D000859194919093390480933804E0EFFCE058
:1033E000E491F0E0EE0FFF1FEC58FC4F85919491B3
:1033F00090933B0480933A04E7E1FDE0E491E0938D
:103400003C04EFE0FDE0E491E0933D040E94B0173E
:1034100007E613E08DE0F82EF00EF80184910E948B
:10342000A00E0F5F1F4FF012F8CFE0913A04F09119
:103430003B04908180913D04892B8083E091380486
:10344000F0913904908180913C0480958923808398
:1034500000E014E080E00E94A00E01501109D1F7B5
:1034600081E08093020484E08093260485E593E064
:1034700090930E0480930D0460E080E00E94221877
:1034800061E085E00E94BB0761E08DE00E94BB0720
:1034900061E085E00E94BB07EFE2FDE0E4918E2F42
:1034A00090E0FC013197EF30F10508F07DC0EA5A59
:1034B000FF4F0C94A62984B5806884BD81E087BD48
:1034C00077C084B5806284BD81E088BD71C0809181
:1034D000800080688093800081E090E09093890074
:1034E0008093880065C08091800080628093800016
:1034F00081E090E090938B0080938A0059C0809186
:10350000800088608093800081E090E090938D003F
:1035100080938C004DC080919000806880939000D3
:1035200081E090E0909399008093980041C0809151
:10353000900080628093900081E090E090939B00E7
:1035400080939A0035C080919000886080939000AD
:1035500081E090E090939D0080939C0029C0809131
:10356000C00080688093C0008091C0008F7B8093F2
:10357000C00081E08093CF001BC08091C0008062BA
:103580008093C00081E08093D00012C08091C2007F
:1035900088608093C2008091C2008B7F8093C200BC
:1035A00081E08093D20004C060E085E00E948B0738
:1035B00080919100887F816080939100F8941092AF
:1035C000800010928100109285001092840088E1A2
:1035D00091E09093890080938800809181008860B9
:1035E000809381008091810081608093810080912F
:1035F0006F00826080936F0078948091EF03813038
:1036000019F41092030407C040E062E873E08EEF03
:1036100093E00E942F096AE574E087E294E00E943B
:103620000C0A5AE5A52E51E0B52E61E9C62E61E0DF
:10363000D62E7AE0E72EF12C00E010E047019AE068
:10364000891A9108C801880D991D0E94B126F501BB
:10365000E00FF11F80830F5F1F4F0A30110591F7B4
:10366000C7010E94B126082F10E0D6010D931C93CC
:10367000C70101960E94B126282F30E0322F222761
:10368000200F311F2115310511F42FE037E2F6012B
:10369000219331936F01FCE0EF0EF11C2BE0A20EA1
:1036A000B11C86E4E816F10439F60E94620B109210
:1036B0002B04EE24EA94812CF12C00E310E09924F1
:1036C000939493E0592E0E94E80F8823E1F38091B0
:1036D000EE03C02E000FDD08813061F19091EF0301
:1036E000913041F19091F003913021F1811032C07D
:1036F0008091ED038F3F29F08370813011F40C9499
:1037000084258091EB038F3F29F08370813011F481
:103710000C948B25143021F017FF03C013E001C077
:1037200010E080912F0494E0980FF92E819FF018FB
:10373000112436C0F0902F04813011F00C947E25B6
:103740008EEF93E00E946D09E12EFF0CFF0CF194C7
:10375000FA94FA94C6018F199109F7FC9395029790
:10376000ECF4A1E0EA1611F40C946F25B2E0EB162C
:1037700009F4EAC0E1100C9472251092F1030E9442
:10378000B5081092B7011092B6011092B5016CED18
:1037900076E087E294E00E940C0A96C38824839422
:1037A000CF0CD11CF7FCDA94D7FE03C0EFEFCE1A92
:1037B000DE0AD594C7944C2C0C2D10923004C09284
:1037C000310490922D0410922C048EE5682E88E02E
:1037D000782EA12CB12C212E012E000C3308A2141E
:1037E000B30451F45092300480912F04F42D189FAB
:1037F000F00D1124F0933104F3016591749187E287
:1038000094E00E943A072FEFA21AB20A82E0680EF3
:10381000711C94E0A916B10411F7109236041092AD
:10382000370480912F044C2D189F400D11244150D6
:1038300024E560E087E294E00E94F50C9092360463
:103840009092370480912F0423E0280F6C2D189F4D
:10385000600D1124625044E580E00E94D11733CFFF
:103860006BEB73E087E294E00E9401076091F30341
:103870007091F40380E090E04AE00E94D41268EB7B
:1038800073E087E294E00E943A076FEA73E087E210
:1038900094E00E9401076091F20370E080E090E004
:1038A0004AE00E94D4126CEA73E087E294E00E943E
:1038B0003A0765EA73E087E294E00E9401076091AD
:1038C000DA037091DB0380E090E04AE00E94D412BA
:1038D00066E571E087E294E00E9425076AE973E0FB
:1038E00087E294E00E9401076091DC0370E080E0D1
:1038F00090E04AE00E94D41266E571E087E294E02D
:103900000E94250762E973E087E294E00E940107C4
:103910006091030470E080E090E04AE00E94D412DD
:1039200060E973E087E294E00E940107609104047B
:1039300070E080E090E04AE00E94D41266E571E019
:1039400087E294E00E9425070E94E80F8823E1F3B4
:103950008091F003813009F083CF8EEF93E00E94D5
:1039600068090C9474258091EC0381508E3F10F40B
:103970000C9492258091EA0381508E3F10F40C94B0
:10398000AA258091EE0381508E3F10F40C94C2253D
:103990008091EF0381508E3F10F40C94DA2520E0E3
:1039A00030E040E85DE360919F017091A00180915B
:1039B000A1019091A2010E94A4280E94A327162F82
:1039C00020E030E040E85DE360919B0170919C0154
:1039D00080919D0190919E010E94A4280E94A3279E
:1039E000862F612F0E94A008182F853009F4AFC2DE
:1039F000863009F079C223E333E343E35FE3609168
:103A0000A3017091A4018091A5019091A6010E944B
:103A1000A4286093A3017093A4018093A5019093BF
:103A2000A6014090AF015090B0016090B10170903C
:103A3000B201C301B2010E9497278090A301909028
:103A4000A401A090A501B090A601A50194010E9437
:103A5000A4282091A7013091A8014091A90150917B
:103A6000AA010E942B276B017C016093A701709330
:103A7000A8018093A9019093AA01C301B2010E94F9
:103A80001129A50194010E94A4289B01AC01609119
:103A9000AB017091AC018091AD019091AE010E949B
:103AA0002B276093AB017093AC018093AD01909391
:103AB000AE0120919B0130919C0140919D0150915C
:103AC0009E01C701B6010E942B272B013C01609388
:103AD0009B0170939C0180939D0190939E0120E037
:103AE00030E040E85DE360919F017091A00180911A
:103AF000A1019091A2010E94A4280E94A327162F41
:103B000020E030E040E85DE3C301B2010E94A42858
:103B10000E94A327862F612F0E94A008182F8830AB
:103B200008F0C5C2C090AB01D090AC01E090AD01EF
:103B3000F090AE0120919F013091A0014091A10130
:103B40005091A201C701B6010E942B274B015C01D5
:103B500060939F017093A0018093A1019093A201B3
:103B600020E030E040E85DE30E94A4280E94A32703
:103B7000162F20E030E040E85DE360919B017091FA
:103B80009C0180919D0190919E010E94A4280E9419
:103B9000A327862F612F0E94A008182F883008F0D5
:103BA000DAC240909B0150909C0160909D01709002
:103BB0009E018090AF019090B001A090B101B090B3
:103BC000B201C501B4010E9497276F87788B898B5A
:103BD0009A8BC090A301D090A401E090A501F09031
:103BE000A60180919F019091A001A091A101B091A7
:103BF000A2018B879C87AD87BE87C501B4010E9457
:103C000011294B015C018091BA019091BB018C019B
:103C1000000F111F080F191FA70196016F857889E2
:103C200089899A890E94A42820E030E040E852E483
:103C30000E94A4289B01AC01C301B2010E942B2762
:103C400020E030E048E252E40E942A270E949C27AC
:103C5000600F711F77FF02C06D5F7F4F759567958D
:103C6000759567957093BB016093BA018091B80117
:103C70009091B9018C01000F111F080F191FA701A6
:103C80009601C501B4010E94A42820E030E040E87C
:103C900052E40E94A4289B01AC016B857C858D8534
:103CA0009E850E942B2720E030E040EC51E40E94EA
:103CB0002A270E949C27600F711F77FF02C06D5F4B
:103CC0007F4F75956795759567957093B90160936A
:103CD000B80120E030E040E85DE36B857C858D85B0
:103CE0009E850E94A4280E94A327162F20E030E082
:103CF00040E85DE3C301B2010E94A4280E94A3270B
:103D0000862F612F0E94A008873009F47EC280911F
:103D1000B501882349F08091B6019091B7010196D1
:103D20009093B7018093B601A090B801B090B9010B
:103D300091EFA9169FEFB9060CF470C5C501B7FC49
:103D40000F96E4E095958795EA95E1F7182FA0ED99
:103D5000AA16A1E0BA060CF063C56501B0E3CB0E6C
:103D6000D11CD7FE04C06501EFE3CE0ED11C74E078
:103D7000D594C7947A95E1F7FFEFCF1ADF0A812F28
:103D800090E08C159D050CF44FC502E122E140E066
:103D900060E087E294E00E94180D109236041092C1
:103DA000370400E010E0E12CF12CC801012E000CDA
:103DB000AA0BBB0B8B879C87AD87BE87CC24C39493
:103DC000C00E40909F015090A0016090A1017090A2
:103DD000A201B7010F2C000C880B990B0E94D4276D
:103DE0004B015C0120E030E040E85DE360919B0125
:103DF00070919C0180919D0190919E010E94A42848
:103E00009B01AC01C501B4010E942B2720E030E0EA
:103E100040E051E40E942A270E949C27D62E20E2EF
:103E2000261708F05AC58FEFE81AF80A90E1E9164C
:103E3000F10439F60F5F1F4F0031110509F0B3CFC0
:103E400011E0109336041093370449E069E087E2EB
:103E500094E00E949D0C1092300490912F0480E316
:103E6000891B8093310410933604109237046091BB
:103E7000B6017091B70180E090E04AE00E94D41250
:103E800060919B0170919C0180919D0190919E0198
:103E90000E949C272091BA013091BB011B01221A7C
:103EA000330A60919F017091A0018091A1019091CE
:103EB000A2010091B8011091B9019101205F3F4F1B
:103EC0002536310508F438C50E94E80F8823E1F350
:103ED0008091F003813009F046CD6AE574E087E215
:103EE00094E00E940C0A00C623E333E343E75FE358
:103EF0006091A3017091A4018091A5019091A60108
:103F0000111160C00E94A4286093A3017093A401C2
:103F10008093A5019093A60126E636E646E65FE388
:103F20006091A7017091A8018091A9019091AA01C7
:103F30000E94A4286093A7017093A8018093A9010F
:103F40009093AA0126E636E646E65FE330C026E611
:103F500036E646E65FE36091A3017091A40180918B
:103F6000A5019091A6010E94A4286093A3017093DB
:103F7000A4018093A5019093A6012DEC3CEC4CE4A8
:103F80005FE36091A7017091A8018091A9019091D0
:103F9000AA010E94A4286093A7017093A8018093AE
:103FA000A9019093AA012DEC3CEC4CE45FE36091F5
:103FB000AB017091AC018091AD019091AE010E9476
:103FC000A4286CC00E94A4286093A3017093A4014C
:103FD0008093A5019093A60126E636E646E65FE3C8
:103FE0006091A7017091A8018091A9019091AA0107
:103FF0000E94A4286B017C016093A7017093A80123
:104000008093A9019093AA0126E636E646E65FE38F
:104010006091AB017091AC018091AD019091AE01C6
:104020000E94A4286093AB017093AC018093AD0112
:104030009093AE011330D9F060F4113079F0123062
:1040400009F0EFCC20E030E040E85FE30E942B274E
:1040500025C01430E9F0173009F0E3CC20E030E05F
:1040600040E85FE3C701B6010E942B2708C020E0AB
:1040700030E040E85FE3C701B6010E942A27609361
:10408000A7017093A8018093A9019093AA01C9CCBC
:1040900020E030E040E85FE30E942A276093AB0114
:1040A0007093AC018093AD019093AE01BACCA7019F
:1040B0009601C301B2010E942A2760939B0170936D
:1040C0009C0180939D0190939E011830F9F420E0AB
:1040D00030E0A901C701B6010E949F2887FD05C0F5
:1040E00080E090E0A0ECB0EC04C080E090E0A0ECB8
:1040F000B0E48093A7019093A801A093A901B09385
:10410000AA018EEF93E00E946D0914C020E030E018
:1041100040E05FEBC701B6010E94A4286093A701AD
:104120007093A8018093A9019093AA018EEF93E068
:104130000E94630920E030E040E05FE3C501B40184
:104140000E94A4286093A3017093A4018093A50109
:104150009093A601E7CCA7019601C501B4010E9486
:104160002A2760939F017093A0018093A1019093EF
:10417000A2011830F9F420E030E0A901C701B6012E
:104180000E949F2887FD05C080E090E0A0ECB0EC85
:1041900004C080E090E0A0ECB0E48093AB01909389
:1041A000AC01A093AD01B093AE018EEF93E00E94FD
:1041B0006D0914C020E030E040E05FEBC701B601BC
:1041C0000E94A4286093AB017093AC018093AD0171
:1041D0009093AE018EEF93E00E94630920E030E0FF
:1041E00040E05FE36091A3017091A4018091A5017B
:1041F0009091A6010E94A4286093A3017093A4014A
:104200008093A5019093A601CCCC8091B50181113A
:1042100008C081E08093B5011092B7011092B601F9
:1042200076CD8090B6019090B70195E689169104FD
:1042300008F46DCD6AE574E087E294E00E940C0A10
:104240008091990190919A018816990608F0CEC242
:1042500040E06FEF73E08EEF93E00E942F0964015E
:10426000E12CF12C0E94E80F8823E1F30E94A326A1
:1042700022E030E040E050E00E94C7266E5F60938D
:1042800030040E94A32622E030E040E050E00E948B
:10429000C7266093310461EF73E087E294E00E94E7
:1042A000010710923004ACE0A093310466EE73E095
:1042B00087E294E00E9401074AE0C701B6010E942C
:1042C000D4126AED73E087E294E00E9401076091E6
:1042D000910170919201072E000C880B990B97FFAA
:1042E00003C00E94171303C04AE00E94D4126EEC70
:1042F00073E087E294E00E94010760919901709158
:104300009A01072E000C880B990B97FF03C00E949F
:10431000171303C04AE00E94D41210923004B8E28E
:10432000B093310460EC73E087E294E00E940107EF
:104330008091EE038130A9F48EEF93E00E946D0925
:1043400010922B041092900130E3C32E44E5D42E3A
:1043500052E0E52EF12C10E06AEF562E70E3472E66
:1043600063C08091F003813009F07CCF8EEF93E041
:104370000E94680944C28091ED038F3F09F059C043
:104380008091EB038F3F09F059C08091EC038F3F80
:1043900009F059C08091EA038F3F09F059C0E0E16C
:1043A000FE125BC0F12CF8E0EF125CC0E12C9091A2
:1043B0002F0480912E0480958F9D802D1124895D7E
:1043C0006D2CDD0C7708680E711C87FD7A9477FEE2
:1043D00003C02FEF621A720A75946794362CD62C9C
:1043E00084E1891B90959E9D800D1124AC2CCC0CF2
:1043F000BB08A80EB11C87FDBA94B7FE03C08FEFAF
:10440000A81AB80AB594A7942A2CCA2C8091EE0356
:10441000813009F044C01A30D4F52F2D90E1E99E87
:10442000200D1124211123C00E94E80F8823E1F3FD
:10443000A2CF8370813009F0A3CF00C48370813094
:1044400009F0A3CF01C48370813009F0A3CF02C467
:104450008370813009F0A3CF03C4F7FEA4CF2FE00F
:10446000F22EA1CFE7FEA3CF97E0E92EA0CF2A300E
:10447000D9F22D30C9F2812F012E000C990BFC01CD
:10448000EA57FE4F2083FC01E957FE4F10821F5F61
:104490008EEF93E00E946D091C300CF01BE08091C0
:1044A000EF03813081F411508EEF93E00E94680990
:1044B00017FD08C0E12F012E000CFF0BEA57FE4F3D
:1044C000108201C010E08091F0038130A9F58EEFD9
:1044D00093E00E946D090E94E80F8823E1F364E4F1
:1044E00074E087E294E00E943A0766E871E087E2B0
:1044F00094E00E94250763E374E087E294E00E9461
:104500003A078091EE03813079F48EEF93E00E94B8
:104510006D0990929A0180929901B9E9EB2EB1E070
:10452000FB2E06E811E01EC18091EF03813099F661
:104530008EEF93E00E94680970E050E030E0232F96
:10454000270F80912F04452F589F400D1124420DB5
:1045500080912E04632F389F600D1124630D01E0BC
:1045600087E294E03B8B5C8B7D8B0E94410D3B8905
:104570003F5F5C897D89303111F75F5F705F583034
:10458000E9F680912E04A62D859DA00D11248A2F79
:1045900082508093300480912F048F5F8A0D809326
:1045A00031046DE274E087E294E00E94010780919B
:1045B0002E04B62D859DB00D11248B2F8250809333
:1045C000300480912F04880F8E5F8A0D8093310410
:1045D00067E274E087E294E00E94010780912E0474
:1045E000E62D859DE00D11248E2F8250809330049E
:1045F00080912F0490E00196982F990F890F8A0DD2
:104600008093310461E274E087E294E00E94010744
:10461000109236041092370480912F044E2DE89E9C
:10462000400D112442504A0D80912E046F2DF89EAA
:10463000600D11246150660D27E087E294E00E942E
:10464000F50CBB24B394B0923604B0923704309189
:104650002F0440912E04E42FF0E025E0230F4E5F5D
:10466000CF01019762E070E00E949229480F6E2D01
:10467000E39E600D112463506A0D8F2DFE9E800D08
:1046800011248250860D0E94D11780912F044EE292
:10469000481B24E560E087E294E00E94F50C10924C
:1046A00036041092370480912F0401E0080F4FE286
:1046B000481B24E560E087E294E00E94180D109208
:1046C000300480912F04F42DF81BF0933104B09244
:1046D0003604B092370466E871E087E294E00E9405
:1046E000250780913E0490913F04A0914004B09131
:1046F000410487709927AA27BB270497A105B10514
:1047000008F092CE1A300CF08FCE80912F04442DF9
:10471000481B60912E04169F602D112401E02FE5A7
:1047200087E294E00E94410D7FCE6801BBE0CB1A86
:10473000D108B601CE0101960E94C529B801C60173
:104740000E94C529BE016F5F7F4FC8010E94C52925
:10475000F70191828082B382A2828601F1E00A355C
:104760001F0759F0D701BE90AE907D0112968D9033
:104770009C9013978A149B04C4F2FAE5AF2EF1E0E3
:10478000BF2EA1E9CA2EA1E0DA2E0AE010E0E12C4A
:10479000F12C4801FAE08F1A9108F501EE0DFF1D8A
:1047A0006081C701880D991D0E94B9262FEFE21A7A
:1047B000F20A8AE0E816F10481F7D6016C91C8018B
:1047C0000E94B926F6016181B2E0CB0ED11CC8016E
:1047D00001960E94B926045F1F4FEBE0AE0EB11C9C
:1047E00006341105A1F60E94720909C081E594E022
:1047F000909354048093530480E2809352046CEDB0
:1048000076E087E294E00E940C0A1092B7011092C1
:10481000B6011092B5010E94B50879CA10E097CA96
:1048200060E2C62ED12CABCA8090BA019090BB0139
:1048300021EF82162FEF920664F0940197FE02C0DA
:10484000215F3F4F54E0359527955A95E1F7022FA8
:1048500001C000E0ACEA8A16A1E09A0694F4740163
:10486000B4E5EB0EF11CF7FE03C0EFE0EE0EF11C19
:1048700044E0F594E7944A95E1F7FFEFEF1AFF0A59
:1048800003C030E2E32EF12C24E0880F991F2A9513
:10489000E1F7582E5A18602E712C6E147F04DCF448
:1048A000612F802F0E94A008E82FF0E0EE0FFF1F7D
:1048B000EF5EFE4F20813181B30194E0660F771FD8
:1048C0009A95E1F768197909452D87E294E00E94ED
:1048D000200A0F5FE0CF1F5F52CA6B857C858D85F4
:1048E0009E850E94D4274B015C0120E030E040E827
:1048F0005DE3C301B2010E94A4289B01AC01C50184
:10490000B4010E942B2720E030E040E051E40E94F7
:104910002A270E949C27613208F085CA8D2D0E94AB
:10492000A008883008F07FCA4C2D61E06E0D87E248
:1049300094E00E949D0C77CA0E949C276B01C01ACC
:10494000D10AC60140968134910508F0BDCAB090E5
:10495000B301FC2C122D2B2D220F2F5F4C2D4B1948
:10496000622D87E294E00E94170EE12C03E02B2DCC
:104970004C2D622D87E294E00E943A0E109236048C
:10498000109237048090AF019090B001A090B101D7
:10499000B090B201C501B4010E9411296B877C87D8
:1049A0008D879E87B6010D2C000C880B990B0E94F9
:1049B000D4272B013C0120E030E040E850E46B8537
:1049C0007C858D859E850E94A4289B01AC01C30136
:1049D000B2010E942B270E949C27062FC501B4011B
:1049E0000E9497272B013C01B101032C000C880B7E
:1049F000990B0E94D4274B015C0120E030E040E895
:104A000050E4C301B2010E94A4289B01AC01C5017E
:104A1000B4010E942B270E949C27B62E202F002E27
:104A2000000C330B2C193D0937FF03C0319521953C
:104A300031098B2D0B2C000C990B8219930997FFD0
:104A400003C0919581959109EE24E3948217930711
:104A500014F0E12C05C08B2DB02E082F1C2DF22C4C
:104A6000B11634F48F2DF02E082F812F1B2DB82E68
:104A7000AB2CA11A802F002E000C990B8F199109D5
:104A8000F7FC939597FF03C0919581959109D82ED6
:104A9000CA2CA7FE03C0CC24C394CA0CC594F0163C
:104AA00014F00FEF10C001E00EC0EE2079F0412F9E
:104AB0006F2D87E294E00E949D0CCD18C7FE02C0C6
:104AC000F00ECA0C1F5FB11684F703C04F2D612F83
:104AD000F0CF81E08093360480933704F5C90E94BB
:104AE000720902C00E94620B80E090E0892B11F4F1
:104AF0000C94571B0E9400000C94571B8EEF93E000
:104B00000E9468090C94A51B1F5F8EEF93E00E9422
:104B100063090C94811B11508EEF93E00E9463098E
:104B20000C948A1B25E438ED40E25EE36091AF010E
:104B30007091B0018091B1019091B2010E942B2738
:104B40006093AF017093B0018093B1019093B20173
:104B50000C94BA1C25E438ED40E25EE36091AF01AD
:104B60007091B0018091B1019091B2010E942A2709
:104B70006093AF017093B0018093B1019093B20143
:104B80000C94C11C2AE037ED43EA5CE36091A30179
:104B90007091A4018091A5019091A6010E942B27FC
:104BA0006093A3017093A4018093A5019093A60143
:104BB0000C94C81C2DEC3CEC4CE45FE36091A30129
:104BC0007091A4018091A5019091A6010E94A42852
:104BD0006093A3017093A4018093A5019093A60113
:104BE0002DEC3CEC4CE45FE36091A7017091A801CF
:104BF0008091A9019091AA010E94A4286093A70125
:104C00007093A8018093A9019093AA012DEC3CEC2C
:104C10004CE45FE36091AB017091AC018091AD0118
:104C20009091AE010E94A4286093AB017093AC01F7
:104C30008093AD019093AE010C94CF1CE3948EEF62
:104C400093E00E9463099CCBEA948EEF93E00E946C
:104C500063099BCBF3948EEF93E00E9463099ACB98
:104C6000FA948EEF93E00E94630999CBE5E5F4E0B6
:104C70001382128288EE93E0A0E0B0E084839583F3
:104C8000A683B7838CE391E0918380838FEF9FEFBE
:104C90009587848710922A04109229048EE491E06B
:104CA000909328048093270408958F929F92AF9247
:104CB000BF92CF92DF92EF92FF92CF93DF93EC01FE
:104CC000688179818A819B816115710581059105D2
:104CD00021F464E279ED8BE597E02DE133EF41E0DB
:104CE00050E00E94C72649015A019B01AC01A7EA86
:104CF000B1E40E94E6266B017C01ACEEB4EFA501A5
:104D000094010E94F426DC01CB018C0D9D1DAE1D8B
:104D1000BF1DB7FF03C00197A109B04888839983DD
:104D2000AA83BB83BC01CD019F77DF91CF91FF9018
:104D3000EF90DF90CF90BF90AF909F908F900895AD
:104D40000E94552608958DE091E00E945526089511
:104D500060930D0170930E0180930F0190931001E9
:104D60000895F999FECF92BD81BDF89A992780B533
:104D70000895262FF999FECF1FBA92BD81BD20BD9F
:104D80000FB6F894FA9AF99A0FBE01960895052E77
:104D900097FB1EF400940E94DE2657FD07D00E9468
:104DA000F92607FC03D04EF40C94DE26509540956E
:104DB000309521953F4F4F4F5F4F089590958095C7
:104DC000709561957F4F8F4F9F4F08950E941B27CD
:104DD000A59F900DB49F900DA49F800D911D11244F
:104DE0000895B7FF0C94E6260E94E626821B930BDB
:104DF0000895A1E21A2EAA1BBB1BFD010DC0AA1F1C
:104E0000BB1FEE1FFF1FA217B307E407F50720F033
:104E1000A21BB30BE40BF50B661F771F881F991FAE
:104E20001A9469F760957095809590959B01AC01F7
:104E3000BD01CF010895A29FB001B39FC001A39F00
:104E4000700D811D1124911DB29F700D811D1124C3
:104E5000911D08955058BB27AA270E9442270C9401
:104E600051280E94182838F00E941F2820F039F499
:104E70009F3F19F426F40C9415280EF4E095E7FBF7
:104E80000C940F28E92F0E94762858F3BA1762076E
:104E900073078407950720F079F4A6F50C949828F9
:104EA0000EF4E0950B2EBA2FA02D0B01B901900145
:104EB0000C01CA01A0011124FF27591B99F0593F89
:104EC00050F4503E68F11A16F040A22F232F342FD1
:104ED0004427585FF3CF469537952795A795F0401F
:104EE0005395C9F77EF41F16BA0B620B730B840B34
:104EF000BAF09150A1F0FF0FBB1F661F771F881FEC
:104F0000C2F70EC0BA0F621F731F841F48F4879543
:104F100077956795B795F7959E3F08F0B0CF939535
:104F2000880F08F09927EE0F9795879508950E94AE
:104F30002828E3950C9462280E94A3276894B11155
:104F40000C94992808950E947E2888F09F5798F025
:104F5000B92F9927B751B0F0E1F0660F771F881F7E
:104F6000991F1AF0BA95C9F714C0B13091F00E9498
:104F70009828B1E008950C949828672F782F8827F7
:104F8000B85F39F0B93FCCF3869577956795B395BF
:104F9000D9F73EF490958095709561957F4F8F4F2E
:104FA0009F4F0895E89409C097FB3EF49095809533
:104FB000709561957F4F8F4F9F4F9923A9F0F92FDF
:104FC00096E9BB279395F695879577956795B7955D
:104FD000F111F8CFFAF4BB0F11F460FF1BC06F5F43
:104FE0007F4F8F4F9F4F16C0882311F096E911C055
:104FF000772321F09EE8872F762F05C0662371F076
:1050000096E8862F70E060E02AF09A95660F771F89
:10501000881FDAF7880F9695879597F9089597F97D
:105020009F6780E870E060E008959FEF80EC08954E
:1050300000240A9416161706180609060895002477
:105040000A94121613061406050608950C941528E2
:105050000E947E28D8F3E894E0E0BB279F57F0F049
:105060002AED3FE049EC06C0EE0FBB0F661F771F2D
:10507000881F28F0B23A62077307840728F0B25AF3
:10508000620B730B840BE3959A9572F7803830F4BA
:105090009A95BB0F661F771F881FD2F790480C9414
:1050A0003F29092E0394000C11F4882352F0BB0F02
:1050B00040F4BF2B11F460FF04C06F5F7F4F8F4F30
:1050C0009F4F0895EF93E0FF07C0A2EA2AED3FE06B
:1050D00049EC5FEB0E9442270E9451280F900394F5
:1050E00001FC9058E8EEF0E00C944B2957FD9058E5
:1050F000440F551F59F05F3F71F04795880F97FB9C
:10510000991F61F09F3F79F0879508951216130655
:105110001406551FF2CF4695F1DF08C01616170684
:105120001806991FF1CF86957105610508940895B9
:10513000E894BB2766277727CB0197F908950E944B
:10514000192908F48FEF08950E94B7280C9451286C
:105150000E94182838F00E941F2820F0952311F093
:105160000C940F280C94152811240C9499280E9453
:10517000762870F3959FC1F3950F50E0551F629FFD
:10518000F001729FBB27F00DB11D639FAA27F00DA0
:10519000B11DAA1F649F6627B00DA11D661F829FC7
:1051A0002227B00DA11D621F739FB00DA11D621FAC
:1051B000839FA00D611D221F749F3327A00D611DC9
:1051C000231F849F600D211D822F762F6A2F1124AB
:1051D0009F5750409AF0F1F088234AF0EE0FFF1FDE
:1051E000BB1F661F771F881F91505040A9F79E3F35
:1051F000510580F00C940F280C9499285F3FE4F33C
:10520000983ED4F3869577956795B795F795E7958A
:105210009F5FC1F7FE2B880F911D9695879597F993
:1052200008959F930E9428280F9007FCEE5F0C942E
:105230006228990F0008550FAA0BE0E8FEEF16163A
:105240001706E807F907C0F012161306E407F5077A
:1052500098F0621B730B840B950B39F40A2661F0EE
:10526000232B242B252B21F408950A2609F4A14091
:10527000A6958FEF811D811D08959F3F31F09150BC
:1052800020F4879577956795B795880F911D96952A
:10529000879597F908959F938F937F936F93FF93CB
:1052A000EF939B01AC010E94A428EF91FF910E9413
:1052B0005F292F913F914F915F910C94A428DF9328
:1052C000CF931F930F93FF92EF92DF927B018C019C
:1052D000689406C0DA2EEF010E94B728FE01E89418
:1052E000A5912591359145915591A6F3EF010E9425
:1052F0004227FE019701A801DA9469F7DF90EF9049
:10530000FF900F911F91CF91DF910895991B79E044
:1053100004C0991F961708F0961B881F7A95C9F745
:105320008095089597FB072E16F4009407D077FD1B
:1053300009D00E94AC2907FC05D03EF490958195D8
:105340009F4F0895709561957F4F0895EE0FFF1F51
:105350000590F491E02D0994AA1BBB1B51E107C0F5
:10536000AA1FBB1FA617B70710F0A61BB70B881FF5
:10537000991F5A95A9F780959095BC01CD01089584
:1053800081E090E0F8940C94CC29FB01DC010190C1
:0C5390000D920020E1F70895F894FFCF83
:10539C000100E1000000000000FFFFFFFF01000022
:1053AC00000C03EA02C802A6028402620240021E3A
:1053BC0002FC01DA01B80196017401520130010EB0
:1053CC000100C1808100000000000000E20E630FAC
:1053DC00030FF80E490F070F250F00000000E30D17
:0A53EC00D006FC06FB060D0A0000C7
:00000001FF
