:100000000C94B2100C94DA100C94DA100C94DA10F0
:100010000C94DA100C94DA100C94DA100C94DA10B8
:100020000C94DA100C94DA100C945D1B0C94CF1B1A
:100030000C94DA100C94DA100C94DA100C94DA1098
:100040000C94DA100C944A130C94DA100C94DA1015
:100050000C94DA100C94DA100C94DA100C9400134F
:100060000C94DA100C94DA100C94DA100C94DA1068
:100070000C94DA100C94DA100C94DA100C94DA1058
:100080000C94DA100C94DA100C94DA100C94DA1048
:100090000C94DA100C94DA100C94DA100C94DA1038
:1000A0000C94DA100C94DA100C94DA10101213126B
:1000B000021206120C1234123412341217121B12CE
:1000C0001F122512291234122F1224252A25302519
:1000D0003C2548259D259D259D25542560256C257D
:1000E000782586259D258F2502140C01010101012B
:1000F00001010101010101010101010101010101F0
:1001000001010101010101010101010101010101DF
:1001100001010101010101010101010101010101CF
:1001200001010101010101010101010101010101BF
:1001300001010101010101010101010101010101AF
:10014000010101010101010101010101010101019F
:10015000010101010101010101010101010101018F
:10016000010101010101010101010101010101017F
:10017000010101010101010101010101010101016F
:10018000010101010101010101010101010101015F
:10019000010101010101010101010101010101014F
:1001A000010101010101010101010101010101013F
:1001B0000101010202000000000000000000000038
:1001C000000000000000000202000000000000002B
:1001D00000000000000000000000000440FE0101DB
:1001E000370101FE0107010737FE010D370D01FE42
:1001F0000113011337FE0119371901FE011F011FF9
:1002000037FE0125372501FE012B012B37FE013179
:10021000373101FE0137013737FE013D373D01FE21
:100220000143014337FE0149374901FE014F014FA8
:1002300037FE0155375501FE015B015B37FE016159
:10024000376101FE0167016737FE016D376D01FE01
:100250000173017337FE03013701076D076D37FE28
:1002600003013101016D016D31FE03073107017397
:10027000017331FE030737070773077337FE030463
:1002800034040470047034FE036D076D37013701C8
:1002900007FE036D016D3101310101FE037301732E
:1002A0003107310701FE037307733707370707FE6E
:1002B000037004703404340404FE030D2B0D136129
:1002C00013612BFE030D250D0D610D6125FE03133A
:1002D00025130D670D6725FE03132B131367136793
:1002E0002BFE031028101064106428FE03611361B4
:1002F0002B0D2B0D13FE03610D61250D250D0DFE3C
:1003000003670D67251325130DFE036713672B1372
:100310002B1313FE036410642810281010FE031919
:100320001F551FFE0319195519FE031F195B19FEEE
:10033000031F1F5B1FFE031C1C581CFD0404FD70E3
:1003400004FD7034FF03140A0303030000000000DF
:10035000000000000000000000020202030303008E
:100360000000000000000000000000000002020287
:10037000000001000000000000000000000000007C
:100380000001000000000101010101010101010162
:100390000101010101010000000001010101010151
:1003A0000101010101010101010100000000010141
:1003B000010101010101010101010101010100002F
:1003C000000001010101010101010101010101011F
:1003D0000101000000000101010101010101010111
:1003E0000101010101010000000001010101010101
:1003F00001010101010101010101000000000101F1
:1004000001010101010101010101010101010000DE
:100410006D04FE030D370D13FE0313131337FE0394
:1004200019371913FE031F131F37FE032537251332
:10043000FE032B132B37FE0331373113FE03371323
:100440003737FE033D373D13FE0343134337FE03A7
:1004500049374913FE034F134F37FE0355375513E2
:10046000FE035B135B37FE0361376113FE03671303
:100470006737FE0367130D13FE030D196719FE039B
:10048000671F0D1FFE030D256725FE03672B0D2B30
:10049000FE030D316731FE0367370D37FD0D37FD64
:1004A0006737FF04120C040401010101010101017D
:1004B0000101010101010100040401010101010127
:1004C000010101010101010101000000010101011F
:1004D000010101010101010101010100000001010F
:1004E00001010101010101010101010101010000FE
:1004F00001010101010101010101010101010101EC
:1005000000000000000000000000000000000000EB
:1005100003030000000000000000000000000000D5
:1005200000000303000001010101010101010101BB
:1005300001010101010100000101010101010101AD
:10054000010101010101010100000101010101019D
:10055000010101010101010101000202010101018A
:10056000010101010101010101010100020201017A
:10057000010101010101010101010101010004402A
:10058000FE020D010D19FE0213191301FE021901DD
:100590001919FE021F191F01FE0225012519FE026D
:1005A0002B192B01FE0231013119FE0237193701D7
:1005B000FE023D013D19FE0243194301FE024901BD
:1005C0004919FE024F194F01FE0255015519FE024D
:1005D0005B195B01FE0261016119FE020D430D2BE7
:1005E000FE02132B1343FE021943192BFE021F2B8D
:1005F0001F43FE022543252BFE022B2B2B43FE021D
:100600003143312BFE02372B3743FE023D433D2B56
:10061000FE02432B4343FE024943492BFE024F2B6C
:100620004F43FE025543552BFE025B2B5B43FE02FC
:100630006143612BFE0225310D31FE0225370D3756
:10064000FE02253D0D3DFE0225430D43FE02432BD8
:100650002B2BFE0243312B31FE0243372B37FE0298
:10066000433D2B3DFE0261314931FE02613749377E
:10067000FE02613D493DFE0261434943FE020D0118
:100680002501FE020D072507FE020D0D250DFE02B8
:100690000D192519FE022B014301FE022B0D430DFE
:1006A000FE022B134313FE022B194319FE024901CC
:1006B0006101FE0249076107FE02490D610DFE025C
:1006C00049196119FF04140A000001010101010127
:1006D000010101010101010101010000000001010E
:1006E00001010101010101010101010101010000FC
:1006F00004040101010101010101010101010101E4
:1007000001010000040401010101010101010101D5
:1007100001010101010100000000010101010101CD
:1007200001010101010101010101030300000101B7
:1007300001010101010101010101010101010303A5
:100740000202010101010101010101010101010197
:100750000101000002020101010101010101010189
:10076000010101010101000000000101010101017D
:10077000010101010101010101010000000001016D
:10078000010101010101010101010101010100005B
:100790000428FE010D0D0D01FE010D130D07FE01D4
:1007A0000D190D0DFE010D2B0D1FFE010D310D2537
:1007B000FE010D370D2BFE02132B1301FE02133128
:1007C0001307FE021337130DFE0219131901FE025F
:1007D00019251913FE0219371925FE011F011F0DD6
:1007E000FE011F071F13FE011F0D1F19FE011F1F12
:1007F0001F2BFE011F251F31FE011F2B1F37FE017E
:100800002501250DFE0125072513FE01250D2519BE
:10081000FE01251F252BFE0125252531FE01252B57
:100820002537FE022B2B2B01FE022B312B07FE025C
:100830002B372B0DFE023101312BFE0231073131F6
:10084000FE02310D3137FE0237013713FE02371336
:100850003725FE0237253737FE023D133D01FE02E4
:100860003D253D13FE023D373D25FE014301430D6D
:10087000FE0143074313FE01430D4319FE01431FCD
:10088000432BFE0143254331FE01432B4337FE0238
:10089000492B4901FE0249314907FE024937490DFA
:1008A000FE014F014F0DFE014F074F13FE014F0D8B
:1008B0004F19FE014F1F4F2BFE014F254F31FE01F7
:1008C0004F2B4F37FE0255015513FE025513552588
:1008D000FE0255255537FE025B015B2BFE025B07CE
:1008E0005B31FE025B0D5B37FE02612B6101FE0294
:1008F00061316107FE026137610DFE016701670D1D
:10090000FE0167076713FE01670D6719FE01671F88
:10091000672BFE0167256731FE01672B6737FD7086
:100920001CFF02140A00000101000000000000008A
:1009300000000000000101000000000101010000B2
:1009400000000000000000000101010000000000A4
:100950000101010000000000000000010101000091
:100960000000000000010101000000000000010182
:100970000100000000000000000001010100000073
:100980000001010100000000000000000000000163
:100990000101000001010100000000000000000052
:1009A000000000000101020201010000000000003F
:1009B0000001010101010101010102020101010126
:1009C0000101010101010101010101010102020214
:1009D0000201010101010101010101010101010106
:1009E000010202020201010101010101013A2EFE90
:1009F00002312C311EFE022B182B26FE022520254B
:100A000012FE021F0C1F1AFE0219141906FE0243E1
:100A10001E432CFE0249264918FE024F124F20FEAB
:100A200002551A550CFE025B065B14FE02012B01F7
:100A300037FE020737072BFE020D2B0D37FE021380
:100A400037132BFE02192B1937FE021F371F2BFEFF
:100A500002252B2537FE022B372B2BFE0249374967
:100A60002BFE024F2B4F37FE025537552BFE025BF4
:100A70002B5B37FE026137612BFE02672B6737FE67
:100A8000026D376D2BFE02732B7337FD1004FD646E
:100A900004FD0131FD7331FF03140A000000000062
:100AA000000101000000000000000000000303003E
:100AB0000000000000010100000000000000000034
:100AC0000003030101010101010101010101010113
:100AD0000101010101010101010101010101010106
:100AE00001010101010101010101010101010101F6
:100AF00001010101010101010101010101010101E6
:100B000001010101010101010101010101010101D5
:100B100001010101010101010101010101010101C5
:100B200001010101010101010101010101010101B5
:100B300001010101010101010101010202000000A6
:100B400000000000000000010100000000000002A1
:100B50000200000000000000000000010100000091
:100B60000000000434FE03012B010DFE03070D07F6
:100B70002BFE030D2B0D0DFE03130D132BFE03197E
:100B80002B190DFE031F0D1F2BFE03252B250DFE1C
:100B9000032B0D2B2BFE03312B310DFE03370D37AD
:100BA0002BFE033D2B3D0DFE03430D432BFE03495E
:100BB0002B490DFE034F0D4F2BFE03552B550DFEFC
:100BC000035B0D5B2BFE03612B610DFE03670D675D
:100BD0002BFE036D2B6D0DFE03730D732BFE037344
:100BE0000D010DFE0301137313FE0373190119FEAA
:100BF00003011F731FFE0373250125FE03012B73E1
:100C00002BFF03120A010101010101010100000192
:100C100001010101010202010101010101010100C3
:100C200000010101010101020201010000000001B7
:100C300001000001010000000000000101000000AF
:100C4000000101000001010000000000000101009E
:100C5000000000010100000101010101010000018B
:100C6000010000000001010000010101010101007B
:100C7000000101000000000101000000000000016F
:100C8000010000010100000000010100000000005F
:100C90000001010000010103030000010101010145
:100CA0000101010101000001010303000001010134
:100CB0000101010101010100006404FE025C083C25
:100CC000083C005C00FE023C005C005C083C08FE46
:100CD0000244143C143C0C440CFE023C0C440C44F6
:100CE000143C14FE025C203C203C185C18FE023CC4
:100CF000185C185C203C20FE025C2C542C54245CB4
:100D000024FE0254245C245C2C542CFE025C383CEF
:100D1000383C305C30FE023C305C305C383C38FEA5
:100D2000023838303830303830FE02303038303821
:100D3000383038FE022C38243824182C18FE0224AF
:100D4000182C182C382438FE022C142414240C2CB3
:100D50000CFE02240C2C0C2C142414FE022C080C67
:100D6000080C002C00FE020C002C002C080C08FEC5
:100D7000020808000800000800FE02000008000841
:100D8000080008FE02082C080C000C002CFE0200D3
:100D90000C002C082C080CFE02083808300030002B
:100DA00038FE020030003808380830FF031208020D
:100DB0000201010101010101010101010101010023
:100DC0000002020101010101010101010101010112
:100DD0000100000000010101010101010101010107
:100DE00001010100000000010101010101010101F7
:100DF00001010101010000000001010101010101E7
:100E000001010101010101000000000101010101D6
:100E100001010101010101010100000000010101C6
:100E200001010101010101010101010303000001B0
:100E3000010101010101010101010101010303049B
:100E400004FE040D010D2BFE021301132BFE0119EC
:100E500001192BFE041F011F2BFE022501252BFE6D
:100E6000012B012B2BFE043101312BFE0237013700
:100E70002BFE013D013D2BFE044301432BFE0249A5
:100E800001492BFE014F014F2BFE045501552BFE4E
:100E9000025B015B2BFD0D2BFD3416FD5B01FF0397
:100EA0001408030303010100010101010000010115
:100EB0000101000001000303030001000100010122
:100EC000000001000101000001000000000001001D
:100ED0000100000101010100000101010100000009
:100EE00000000100010101010001010101010001F7
:100EF00001000000000001000100010100000100EC
:100F000001010000010000000000010101000001DA
:100F100001010100000101010100000000000000CA
:100F200000000000000000000000000102020000BC
:100F300000000000000000000000000000000000B1
:100F400002027028FE022501251FFE023701371F0D
:100F5000FE024901491FFE025B015B1FFE026D019B
:100F60006D1FFE0237012501FE0237132513FE0215
:100F7000490D370DFE02491F371FFE025B01490173
:100F8000FE025B134913FE026D0D5B0DFE026D1F29
:100F90005B1FFD3107FD3119FD4313FD5507FD555D
:100FA00019FD6713FD6D07FF031006000001010125
:100FB0000101010101010101010000020201010121
:100FC000010101010101010101030302020101010B
:100FD00001010101010101010103030202010101FB
:100FE00001010101010101010103030202010101EB
:100FF00001010101010101010103030000010101DF
:1010000001010101010101010100000410FE020DB6
:10101000012B1F49014F07371F19010D0D1F1F3DE0
:10102000014F13431F25010D19131F31014F1F31AC
:1010300001131F0D192501431F4F133D011F1F0DE4
:101040000D1901371F4F0749012B1FFE024F1F319A
:1010500001131F0D192501431F4F133D011F1F0DC4
:101060000D1901371F4F0749012B1F0D012B1F4978
:10107000014F07371F19010D0D1F1F3D014F13436E
:101080001F25010D19131F3101FE020D1F2B0149F0
:101090001F4F193701191F0D131F013D1F4F0D431E
:1010A00001251F0D071301311F4F01311F13010DC2
:1010B00007251F43014F0D3D1F1F010D13191F373A
:1010C000014F19491F2B01FE024F01311F13010D62
:1010D00007251F43014F0D3D1F1F010D13191F371A
:1010E000014F19491F2B010D1F2B01491F4F1937A4
:1010F00001191F0D131F013D1F4F0D4301251F0D2A
:10110000071301311FFE030D010D1FFE03131F13F3
:1011100001FE031901191FFE031F1F1F01FE0325F6
:1011200001251FFE032B1F2B01FE033101311FFE82
:1011300003371F3701FE033D013D1FFE03431F43DD
:1011400001FE034901491FFE034F1F4F01FF030E1C
:10115000040000010101010101010101010000027F
:101160000201010101010101010101030302020168
:10117000010101010101010101030300000101015D
:10118000010101010101010000040AFE020D010D2F
:1011900013FE0213131301FE0219011913FE021F9D
:1011A000131F01FE0225012513FE022B132B01FE46
:1011B0000231013113FE0237133701FE023D013DBA
:1011C00013FE0243134301FD0D01FD1301FD19013F
:1011D000FD1F01FD2501FD2B01FD3101FD3701FD45
:1011E0003D01FD4301FD0D07FD1307FD1907FD1F1F
:1011F00007FD2507FD2B07FD3107FD3707FD3D07DF
:10120000FD4307FD0D0DFD130DFD190DFD1F0DFD1A
:10121000250DFD2B0DFD310DFD370DFD3D0DFD4364
:101220000DFD0D13FD1313FD1913FD1F13FD2513E4
:10123000FD2B13FD3113FD3713FD3D13FD4313FD4E
:101240001004FD1604FD1C04FD2204FD2804FD2EDF
:1012500004FD3404FD3A04FD4004FD100AFD160AA5
:10126000FD1C0AFD220AFD280AFD2E0AFD340AFD96
:101270003A0AFD400AFD1010FD1610FD1C10FD225B
:1012800010FD2810FD2E10FD3410FD3A10FD401009
:10129000FF03100C0000010000000000000000002F
:1012A000000000000002010000000000000000003B
:1012B0000000000000000101010101010101010124
:1012C0000101010100000100000001000000000018
:1012D0000001000000000100010101010101010104
:1012E00001010000000001000000010000000000FA
:1012F00000010000000001000000010000000000EB
:1013000000010000000001000101010101010103D1
:1013100001010000000001000000010000000000C9
:1013200000010000010101010101010101010101B0
:1013300001010000000000000000010000000000AA
:10134000000100000000000000000100000000009B
:10135000000100000707FE00130DFE002513FE002C
:101360002531FE00253DFE00492BFE0219194F19BB
:10137000FE02192B4F2BFE020D010D37FE024F43CB
:101380004F0DFE0201374F37FE025B0D0D0DFE02C1
:10139000253A2543250DFF03140600000101010134
:1013A0000000010101010101010101010000000033
:1013B000010101010000010101010101010101011F
:1013C0000000020201010101000001010101000011
:1013D00001010101030302020101010100000101F9
:1013E00001010000010101010303000001010101ED
:1013F00001010101010100000101010100000000E3
:1014000001010101010101010101000001010101CE
:1014100000000410FE010D01130113070D07FE016A
:1014200019011F011F071907FE010D0D130D1313DD
:101430000D13FE01190D1F0D1F131913FE010D19B8
:101440001319131F0D1FFE0119191F191F1F191F33
:10145000FE0125192B192B1F251FFE013101370114
:1014600037073107FE013D01430143073D07FE01F8
:10147000310D370D37133113FE013D0D430D43136D
:101480003D13FE0131193719371F311FFE013D1978
:101490004319431F3D1FFE0149014F014F074907F3
:1014A000FE0155015B015B075507FE016101670104
:1014B00067076107FE01550D5B0D5B135513FE01B8
:1014C000610D670D67136113FE0155195B195B1FF1
:1014D000551FFE0161196719671F611FFD1F01FD7F
:1014E0003101FD431FFD551FFF03140A02020200D4
:1014F00001010101010101000101010101010101DD
:1015000002020200010101010101010001010101CA
:1015100001010101010000000101010101010100BF
:1015200001010101010101010101010001010100AD
:10153000010101000101010000010101010101009F
:10154000010101000101010001010100000101018F
:10155000010101000101010001010100010101007F
:10156000000101010101010001010100010101006F
:10157000010101000001010101010101010101005E
:10158000010101010101010000000001010101014F
:101590000101010001010101010101000003030338
:1015A000010101010101010001010101010101002D
:1015B000000303030704FE0301370113FE030713AF
:1015C0000737FE030D370D13FE041337132BFE03ED
:1015D00019371901FE031F011F37FE0325372501A7
:1015E000FE042B012B0DFE0331373101FE033701C1
:1015F0003737FE033D373D01FE044337432BFE03DF
:1016000049374901FE034F014F37FE035537550156
:10161000FE045B015B0DFE04610D6101FE036701C9
:101620006725FE036D256D01FE0373017325FF031E
:101630000A0A000000000303000000000000000090
:10164000030300000000010101010101010101018A
:10165000010101010101010101010101010101017A
:10166000010101010101010101010101010101016A
:10167000010101010101010101010101010101015A
:101680000101000000000202000000000000000054
:101690000202000000001C34FE03010D012BFE03BA
:1016A000072B070DFE030D0D0D2BFE03132B130D42
:1016B000FE03190D192BFE031F2B1F0DFE03250D15
:1016C000252BFE032B2B2B0DFE03310D312BFE039F
:1016D000372B370DFE0301193719FE03371F011F82
:1016E000FF03090A000002020200030303000002D4
:1016F00002020003030300000100000001000000DB
:1017000000010100010100000000010100010100D1
:1017100000000001010001010000010101010001C0
:1017200001010101010000000000010101010101AE
:101730000101010101000001010101010000130488
:10174000FE010D131413FE0114190D19FE010D1FD6
:10175000141FFE0114250D25FE0107250025FE019D
:10176000002B072BFE0107310031FE010D310D3832
:10177000FE0113381331FE0119311938FE011F38EB
:101780001F31FE0125312538FE012B313231FE019A
:10179000322B2B2BFE012B253225FE011E25252564
:1017A000FE01251F1E1FFE011E192519FE0125130E
:1017B0001E13FF04120A02020000010101010101CF
:1017C000000001010101010102020000010101010B
:1017D00001010000010101010101010101010101FB
:1017E00000000101000001010000010101010101EF
:1017F00001010000010100000101000001010101DF
:1018000000000000000001010000010100000404CC
:1018100001010000000000000101000001010000C2
:1018200004040101000001010101030301010101A0
:10183000000000000101000001010101030301019A
:101840000101000000000101010101010000000090
:10185000000001010101010101010101010100007C
:101860000000000001010101010104043428FE020E
:10187000010D070D07130113FE00071CFE000128D0
:10188000FE020737013701310731FE00100DFE005F
:101890001031FE001904FE021F131913190D1F0D3C
:1018A000FE001928FE021F37193719311F31FE00BB
:1018B0002807FE002225FE002B2BFE0237073107EA
:1018C00031013701FE003110FE02311F371F371082
:1018D000371FFE0249014F014F074907FE004F1015
:1018E000FE00491CFE0249254F254F2B492BFE00C7
:1018F0004934FE005807FE024F315E315E375E31DB
:10190000FE026707610761016701FE006110FD6467
:1019100034FF030C0A010101010000010101010073
:1019200000010200010101010000010000010000AE
:10193000010000010000010000010101010000019F
:10194000010101000001000001000001000001038D
:101950000301000001000001000001030301010177
:10196000010000010101010000010000010000016F
:101970000000010000010000010101010000010060
:10198000000101010100000101010100000707FE43
:10199000021301131301130101FE02131313250196
:1019A000250113FE021325133701370125FE0225F9
:1019B00001251337133701FE022513252537253757
:1019C00013FE022525253737373725FE0213072555
:1019D0000725311331FD0137FD3701FD3737FF038F
:1019E00012080000000101010101010101010101D2
:1019F00001000000000000010101010101010101DD
:101A000001010100000000000001010101010101CC
:101A100001010101010000000202020101010101B6
:101A2000010101010101010303030202020101019D
:101A30000101010101010101010303030000000193
:101A4000010101010101010101010100000000008B
:101A5000000101010101010101010101010000007A
:101A6000000000010101010101010101010101006A
:101A700000000716FE051301132BFE051F011F2B87
:101A8000FE052B012B2BFE053701372BFE054301ED
:101A9000432BFE054F014F2BFE05192B1901FE05A7
:101AA000252B2501FE05312B3101FE053D2B3D0186
:101AB000FE05492B4901FE05552B5501FD1301FD7E
:101AC0005501FD132BFD552BFF02040501000000FD
:101AD00001010101010202010102020101010101F2
:101AE0000A10FE020107130713190119FE02070766
:101AF0001307131901190107FE020B071307131926
:101B000001190107FE02130D13190119010713072B
:101B1000FE0213131319011901071307FE0213190B
:101B2000011901071307FE020D1901190107130717
:101B30001319FE0207190119010713071319FE02F1
:101B40000119010713071319FE02011301071307F7
:101B500013190119FE02010D0107130713190119C9
:101B6000FD0101FF03120600000001010101010156
:101B7000010101010101000000000000010101015B
:101B80000101010101010101000000020202010145
:101B9000010101010101010101010303030202022C
:101BA0000101010101010101010101010303030020
:101BB0000000010101010101010101010101000019
:101BC0000000000001010101010101010101010109
:101BD0000000000710FE021301131FFE021F011F69
:101BE0001FFE022B012B1FFE023701371FFE02438F
:101BF00001431FFE024F014F1FFE02191F1901FE74
:101C000002251F2501FE02311F3101FE023D1F3D4D
:101C100001FE02491F4901FE02551F5501FD341006
:101C2000FF03120602020200000000000000000094
:101C3000000101030303020202000101010101018D
:101C4000010101010003030302020200010101017D
:101C5000010101010101000303030202020001016D
:101C6000010101010101010100030303020202005D
:101C7000010101010101010101010003030302024D
:101C80000201010000000000000000000003030347
:101C90000710FE024F071907FE02190D4F0DFE0235
:101CA0004F131913FE0219194F19FF175344001649
:101CB000137800161314001510200015201000547E
:101CC0000A03E181867F3E186D830F0F0E01838624
:101CD0006033186DC3198F1803C38E6033186DE31A
:101CE00030CF1803C39E603630CDE360CF3006C7D7
:101CF0009E7E3E30CDB360CF300CC6F6603330D917
:101D0000B660CF33CFCCF66061B0DB1E60CF30D889
:101D10006CE6C061B0DB1E618F19986CC6C063B100
:101D20009B0E330F0FB078C6FF7E1F1B061E0F00E1
:101D3000402400F00000040007FC012800200A00F5
:101D40001F808A359328050038FFAAFD5290320083
:101D5000EFFEABD592886801FFE0DA655B3094074F
:101D6000F98001280000601FE200FFFFFFE3103F41
:101D70008400AD899A22C07E1800A8AAB762A0F894
:101D800030008A9A9B4901F07000A8AABB5081E0FC
:101D9000F800AAA9975601C38C00FFFFFDD2038764
:101DA00006000000000E0386070000000000078FF9
:101DB0000C800007FFFF1BFF9A40000B83806663C7
:101DC000F520000EA3FCCC88EA10000C8211D99CEF
:101DD000658C000F93FDF10C1B4200082A30F37C48
:101DE00004B1000A1316E60C0368000E02CF6C5C07
:101DF0000094000A0638195C006B000C074E42ACD8
:101E000000160008C6A59AAC00090008C2A5500C2F
:101E10000006000B0210106C0001000B31FFE06C9B
:101E2000000000043000018C00000004C600719C1A
:101E300000000002C955703800000001870021F041
:101E400000000000FFFFFFE0000000003FFFFF0078
:101E500000000807824428102844820807020488EA
:101E6000485030200101FF030101F703681E641E82
:101E700000000000240027002A002D003000D5F0CB
:101E80008D14A1C881CFD9F1AF200000000000253A
:101E90000028002B002E00310003053F213F1208CF
:101EA000120A100A0E1C0E0C1E0C141A14161F1601
:101EB0001E131E1E1B1E1E1F1E3F213F3A2F3A17C8
:101EC0003D173F213F181F02040A041F0E04040E91
:101ED0001F0A1F0A0E0E1F04110E2E252E2F2A2E4A
:101EE000262929021F02081F08150E04040E150ECC
:101EF00015151B151B040604040C04000000001734
:101F0000000300031F0A1F16371A1904130A153A93
:101F1000000300000E11110E000A040A040E040052
:101F200030000404040010001804031F111F121FC6
:101F3000101D151711151F07041F17151D1F151D3F
:101F400001011F1F151F17151F000A000032000492
:101F50000A110A0A0A110A040115020E11171E05B8
:101F60001E1F150A0E110A1F110E1F15111F050144
:101F70000E111D1F041F111F1108100F1F041B1F1E
:101F800010101F061F1E040F0E110E1F09060E1142
:101F90002E1F051A121509011F011F101F0F180F00
:101FA0001F0C1F1B041B031C03191513001F110317
:101FB0000418111F000201022020200001020C124F
:101FC0001E1F120C0C12120C121F0C1A14041E05E8
:101FD000242A1E1F021C141D1020201D1F0814116E
:101FE0001F101E041E1E021C0C120C3E0A040C12B2
:101FF0003E1E040214160A020F120E101E0E100EC0
:102000001E081E120C1226281E322A26041E21002B
:102010001F00211E040102013F213F0500893008F5
:102020000238024978681400000500380168010090
:102030000005006801380100004500680100000645
:1020400006AA55AA55AA55080B000202020100096A
:102050000400000102020000052400100105240113
:10206000010104240206052406000107058103106E
:10207000004009040100020A0000000705020240B6
:102080000000070583024000000403090412010058
:1020900002EF0201404123368000010102030141A9
:1020A000726475696E6F204C4C43004172647569AF
:1020B0006E6F204C656F6E6172646F00F6E8DBCF67
:1020C000C3B8AEA49B928A827B746E68625C5752DE
:1020D0004E4945413E3A3734312E2C2927252321BC
:1020E0001F1D1C1A1917161514131211100F0E0D9F
:1020F0000C0B0A090807060000000023002600292F
:10210000002C002F0004040404040304050202024E
:102110000204030202020206060606060604040280
:102120000202040404080201104080401020408094
:10213000408008020401804020100201108010201D
:102140004040200000000200090F000003040100CD
:102150000C00000000000000000000000000000073
:102160000000ED2811241FBECFEFDAE0DEBFCDBFA7
:1021700011E0A0E0B1E0E2E7F5E502C005900D92C4
:10218000A638B107D9F725E0A6E8B1E001C01D9255
:10219000AC36B207E1F710E1C2EBD0E104C0219701
:1021A000FE010E94912AC13BD107C9F70E945D231D
:1021B0000C94B72A0C940000CF92DF92EF92FF921A
:1021C0000F931F93CF93DF936C017A018B01C0E0D3
:1021D000D0E0CE15DF0589F0D8016D918D01D601D3
:1021E000ED91FC910190F081E02DC6010995892BBC
:1021F00011F47E0102C02196ECCFC701DF91CF918F
:102200001F910F91FF90EF90DF90CF900895FC0108
:10221000643508F053C0403308F050C09785742FE0
:10222000759575957595262F062E000C330B542F3A
:1022300057709230A1F4F901EC56FD4F84E5780215
:10224000E00DF11D1124808190E0052E02C09595CE
:1022500087950A94E2F78095982F91700AC0933081
:1022600041F484858170462740954170841303C0F2
:1022700014C0911112C084E57802200D311D112483
:10228000F901EC56FD4F81E090E001C0880F5A95AE
:10229000EAF780959081892310C084E57802200DAB
:1022A000311D1124F901EC56FD4F81E090E001C091
:1022B000880F5A95EAF79081892B808308958F9231
:1022C0009F92AF92BF92CF92DF92EF92FF920F93C5
:1022D0001F93CF93DF937C01162FD42EC22F81E062
:1022E000C82EC21AB22EB194BB0CD0E0802F8470DD
:1022F000A82E802F8270982E802F8870882E0170D3
:10230000DC170CF04DC0C7FC04C0C150B394B394AB
:10231000CB0CDF5F8D2F880F8F5FC80EAA2071F066
:102320004C2F4D0D6D2F610FC7010E9407114D2FCE
:102330004D0D6C2F610FC7010E940711992071F09C
:102340004D2D4C1B6D2F610FC7010E9407114D2DA4
:102350004D1B6C2F610FC7010E940711882071F07F
:102360004D2F4D0D612F6C1BC7010E9407114C2F83
:102370004D0D612F6D1BC7010E940711002309F449
:10238000BFCF4D2D4D1B612F6C1BC7010E94071144
:102390004D2D4C1B612F6D1BC7010E940711B0CF43
:1023A000DF91CF911F910F91FF90EF90DF90CF9031
:1023B000BF90AF909F908F900895089580E090E037
:1023C00008950E94AB2A6115710579F0FB01019017
:1023D0000020E9F73197AF01461B570BDC01ED9167
:1023E000FC910280F381E02D099480E090E0089553
:1023F00090E0FC013197EF30F105B0F5EA5AFF4F5C
:102400000C94912A809180008F7703C08091800086
:102410008F7D80938000089580918000877FF9CF21
:1024200084B58F7702C084B58F7D84BD0895809177
:1024300090008F7707C0809190008F7D03C08091BE
:102440009000877F8093900008958091C0008F77DF
:1024500003C08091C0008F7D8093C000089580915B
:10246000C200877F8093C20008951F93CF93DF93AC
:10247000282F30E0F901ED5BFE4D8491F901EC5D10
:10248000FE4DD491F901EB5FFE4DC491CC23C9F010
:10249000162F81110E94F811EC2FF0E0EE0FFF1FB4
:1024A000E557F14EA591B4918FB7F894111105C07D
:1024B0009C91ED2FE095E92302C0EC91ED2BEC937C
:1024C0008FBFDF91CF911F910895CF93DF9390E05D
:1024D000FC01EC5DFE4D2491FC01EB5FFE4D84910F
:1024E000882361F190E0880F991FFC01E059F14EBB
:1024F000C591D491FC01E557F14EA591B4916111BC
:1025000009C09FB7F8948881209582238883EC9135
:102510002E230BC0623061F49FB7F8943881822F6C
:10252000809583238883EC912E2B2C939FBF06C02C
:102530008FB7F894E8812E2B28838FBFDF91CF913E
:1025400008953FB7F89480918C0190918D01A091EE
:102550008E01B0918F0126B5A89B05C02F3F19F0C1
:102560000196A11DB11D3FBFBA2FA92F982F882713
:10257000820F911DA11DB11DBC01CD0142E0660F6E
:10258000771F881F991F4A95D1F708958F929F92C0
:10259000AF92BF92CF92DF92EF92FF926B017C01DC
:1025A0000E94A1124B015C01C114D104E104F104A9
:1025B000F1F00E94A112DC01CB0188199909AA0946
:1025C000BB09883E9340A105B10570F321E0C21A12
:1025D000D108E108F10888EE880E83E0981EA11C5E
:1025E000B11CC114D104E104F10419F7DDCFFF904F
:1025F000EF90DF90CF90BF90AF909F908F90089515
:102600001F920F920FB60F9211242F933F938F9327
:102610009F93AF93BF9380918C0490918D04A09170
:102620008E04B0918F0430918B0123E0230F2D375E
:1026300020F40196A11DB11D05C026E8230F0296C6
:10264000A11DB11D20938B0180938C0490938D0468
:10265000A0938E04B0938F0480918C0190918D0192
:10266000A0918E01B0918F010196A11DB11D8093A3
:102670008C0190938D01A0938E01B0938F01BF9137
:10268000AF919F918F913F912F910F900FBE0F901F
:102690001F9018951F920F920FB60F9211242F932F
:1026A0006F937F938F939F9360919102662371F153
:1026B00080918A018F5F80938A019091920289179D
:1026C00028F120918F0281E0282720938F02109219
:1026D0008A0180919302882369F08091000193E43C
:1026E000899F802D1124895B809300010E94712AAB
:1026F00090939002222341F08091900290E0909379
:1027000099008093980002C080E0F8CF9F918F914C
:102710007F916F912F910F900FBE0F901F90189582
:10272000FC0161110FC0178A158A14A213A2108E22
:10273000109290021092910210928F0210929900C2
:10274000109298000895EF92FF920F931F93CF93EA
:10275000DF931F92CDB7DEB77C018B01411105C01D
:1027600060E049830E949013498150E0FA01EE0F26
:10277000FF1FEE0DFF1D16870587DA011996AA0FB8
:10278000BB1FAE0DBF1D1D921C92F701E40FF51F7C
:1027900081E0818389E0868B118E138E158E0F90D8
:1027A000DF91CF911F910F91FF90EF9008954F927D
:1027B0005F926F927F928F929F92AF92BF92CF92D1
:1027C000DF92EF92FF920F931F93CF93DF93F90164
:1027D000C49031965491EC010F8564350CF018C10A
:1027E00040330CF015C10C2C000CDD08A62F062E72
:1027F000000CBB0B7D01EC0CFD1C1E141F040CF027
:1028000007C1A52E842E042E000C9908F401E50FB3
:10281000F11D57FDFA951E161F060CF0F9C02E5F2C
:102820003F4FE6012796D7FD279673E0D595C795CC
:102830007A95E1F747FF0AC0A52EA40EC89DA00116
:10284000C99D500D1124241B350B40E0EA2D0A2CA4
:10285000000CFF0BE40FF11D47FDFA95F1971CF0FA
:1028600050E3A52EA41A67FD60E0F701E535F105F8
:1028700014F0E4E5F0E07E2FFC01D484D426862F0A
:10288000062E000C990BFC01EA1BFB0BDF017F01FC
:10289000F7E0EF22FF24E0E8F0E002C0F595E795CD
:1028A000EA94E2F71E2FB7FD179653E0B595A7956A
:1028B0005A95E1F72A0F3B1FE42FE77051E001C062
:1028C000550FEA95EAF7459545954595B4E54B02D0
:1028D000800D911D11248C569D4FC12C0A2C000C8B
:1028E000BB08992493942E015524EC2DF0E0EA15B1
:1028F000FB050CF08DC0F90144910130E1F47C013D
:10290000A12F862E881AB82DBE0DB71708F077C0F4
:10291000B42FBA2321F0E701B881B52BB883B0E01A
:10292000B595A795109719F431964491A0E8DFEF7B
:10293000ED1AFD0AE8CF01111FC0752E70947C01BD
:10294000A12FF901862E881AB82DBE0DB71708F0F1
:1029500056C0B42FBA2321F0E701B881B721B8835C
:10296000B0E0B595A795109719F431964491A0E879
:10297000DFEFED1AFD0AE8CF033031F07C01A12F23
:10298000F901862E881A37C0752E7094862E7C0128
:10299000A12FF9018716D8F4B42FBA2359F0E70113
:1029A000B881682C6D2460FE02C0B52B02C0B7212F
:1029B000E701B883B0E0B595A795109719F4319663
:1029C0004491A0E88394DFEFED1AFD0AE3CFD92408
:1029D00016C0B42FBA2321F0E701B881B527B88318
:1029E000B0E0B595A795109719F431964491A0E8F9
:1029F000DFEFED1AFD0AB82DBE0DB71750F3550FD6
:102A000019F48C5A9F4F51E0C394240D351D6DCF9E
:102A1000DF91CF911F910F91FF90EF90DF90CF90BA
:102A2000BF90AF909F908F907F906F905F904F90EE
:102A30000895DF92EF92FF920F931F93CF93DF934E
:102A40001F92CDB7DEB78C01D62EF42EE12CE21604
:102A500054F46E2D6D0D4F2DC80129830E9407116E
:102A6000E3942981F4CF0F90DF91CF911F910F91C3
:102A7000FF90EF90DF900895DF92EF92FF920F9317
:102A80001F93CF93DF937C01D62FD22EC42F002E1D
:102A9000000C110B040F111D47FD1A954C2F0C2E25
:102AA000000C550B4017510744F42D2D4C2F6D2F62
:102AB000C7010E941915CF5FF1CFDF91CF911F9110
:102AC0000F91FF90EF90DF9008956F927F928F9219
:102AD0009F92AF92BF92CF92DF92EF92FF920F93AD
:102AE0001F93CF93DF93EC016A3019F428859E8100
:102AF000A1C06D3009F4A4C01E81BA84D9848F842A
:102B000083E58D150CF47FC08FE28B150CF47BC030
:102B10008F8190E00197189F9001199F300D11242B
:102B2000C9018D0D911DD7FC9A95181619060CF048
:102B30006AC08885819FC00111248B0D911DB7FC4F
:102B40009A95181619060CF05EC09D2CCD2CE62E19
:102B5000F12CEC2DED190E2E000CFF0B8F8190E067
:102B6000E817F9070CF04EC00197E817F90779F05C
:102B7000E89E9001E99E300DF89E300D1124E20F81
:102B8000F31F8D859E85E80FF91F749001C0712C8D
:102B90006B2CAB2C2A2D2B19022E000C330B8885A5
:102BA00090E0281739075CF570FE10C0113031F441
:102BB0004A2D6C2DCE010E9407111DC0012F212F1F
:102BC000462D692DCE010E943C1515C088899F8530
:102BD000891789F08F87113031F44A2D6C2DCE0181
:102BE0000E94071107C0012F212F462D692DCE010C
:102BF0000E943C158F867694A394610ECBCFC3942C
:102C0000910EA7CF8F862E813F818985329F800DBF
:102C1000112489879D81992399F0082E000C990B26
:102C200044E550E0239F40195109112448175907E2
:102C30003CF498858A85299F800D11248A871986FE
:102C400081E090E0DF91CF911F910F91FF90EF9085
:102C5000DF90CF90BF90AF909F908F907F906F90BC
:102C600008950F93CF93C82F81E08093EE04809353
:102C7000F9041092FA0488EF91E0E4E9F2E0DF0150
:102C80009C011D9221503040E1F71092F304109204
:102C9000F40468E671E08AEE94E00E94E31163E7D1
:102CA00071E08AEE94E00E94E31180E28093F304E5
:102CB0008CE08093F404CA3030F461E871E08AEE6D
:102CC00094E00E94E3116C2F70E080E090E04AE015
:102CD0000E9451218C2F90E001970E94392AC82F21
:102CE0001092F9041092FA040AE02AE04BE060E343
:102CF0008AEE94E00E943C1505E020E348E160E0A4
:102D00008AEE94E00E943C1591E09093F904909330
:102D1000FA04C11103C022E53EE102C02BE53EE109
:102D20004BE060E38AEE94E0CF910F910C94D713BF
:102D3000DF92EF92FF920F931F93CF93DF931F9237
:102D4000CDB7DEB78C01D62EF42EE12CE21654F46A
:102D50004E2D4F0D6D2DC80129830E940711E3945C
:102D60002981F4CF0F90DF91CF911F910F91FF90A8
:102D7000EF90DF9008959F92AF92BF92CF92DF9233
:102D8000EF92FF920F931F93CF93DF936C01C62FA7
:102D9000D42FA22EBE2CB194BB0C9B2C920EFE2CD9
:102DA000F60E292D6F2D0E9419151FEF100F1D0F04
:102DB000292D412F6F2DC6010E9419150B0DDE0D17
:102DC000202F4D2F6C2FC6010E949816CA0D6FEF51
:102DD0006C0F202F4D2FC6010E94981601E02E2D5A
:102DE0004D2F6F2DC6010E945F118E2D8095C80F4B
:102DF00002E02E2D4D2F6C2FC6010E945F11D12FA6
:102E0000DE1904E02E2D4D2F6C2FC6010E945F119C
:102E100008E02E2D4D2F6F2DC6010E945F11DF910E
:102E2000CF911F910F91FF90EF90DF90CF90BF90C7
:102E3000AF909F9008958EBD00000DB407FEFDCFAA
:102E40008EB508950F931F93CF93DF93282F309162
:102E50008102862F90E0830F911D4091EB0136E0B7
:102E6000439FA0011124841795070CF061C0409185
:102E7000800230E0240F311D4091EC01042F10E05E
:102E800066E0469FA0011124241735070CF050C0BE
:102E9000C6E0D0E0BE010E947D2A609FF001619FE4
:102EA000F00D709FF00D1124C901BE010E947D2A12
:102EB000E60FF71FBF016D5F7F4FE091ED01F091CD
:102EC000EE01E60FF71F849121E0909189018913AB
:102ED00020E090918202922B90938202409188018F
:102EE000481738F5911125C0282F30E0241B3109EF
:102EF000220F331F4091860150918701240F351F07
:102F00003093870120938601809388012091F001FE
:102F1000E1EFF1E032E0921761F0A191B1911296E8
:102F20004C911297413011F412963C939F5FF3CF6E
:102F300080E0DF91CF911F910F91089510927F0251
:102F4000E0918601F091870184918093800231960F
:102F5000E491E09381029091F001E1EFF1E080E0F3
:102F6000891759F0A191B19112962C9112972230A4
:102F700011F012961C928F5FF3CF0895CF93C0E0AB
:102F800080919001C81760F4EC2FF0E0EE0FFF1F66
:102F9000EF56FE4F808191810E94A129CF5FF0CF33
:102FA000C0E08091F001C81760F4EC2FF0E0EE0F64
:102FB000FF1FEF50FE4F808191810E94A129CF5FBA
:102FC000F0CF109290011092F001CF910895EF92FE
:102FD000FF920F931F93CF93DF93E091EF01F0E007
:102FE000EE0FFF1FE95EFE4F008111811093EE018D
:102FF0000093ED01109290011092F001F8013296C9
:1030000084918093EB01319724912093EC01289FC8
:10301000C001112403969801280F391F30938701AE
:1030200020938601F801E80FF91F24912F3F09F43E
:1030300063C09C012F5F3F4FE491EE3FA9F5EC0187
:103040002296F801E20FF31FF4908AE090E00E94CC
:103050000C29DC0198012C0F3D1FF901849190E0AF
:1030600011969C938E933196849190E013969C9345
:103070008E9312971496FC92149716963C932E9367
:10308000159718963C932E93179719961C9219979B
:10309000E091900181E08E0F80939001F0E0EE0FBF
:1030A000FF1FEF56FE4F23C0ED3F21F5EC012296A6
:1030B000F801E20FF31FF490F801EC0FFD1FE4900C
:1030C00083E090E00E940C29DC01FC921196EC92C6
:1030D000119712961C921297E091F00181E08E0FE9
:1030E0008093F001F0E0EE0FFF1FEF50FE4FB18331
:1030F000A0839E01C90196CFF80104910093890134
:1031000082E080938801DF91CF911F910F91FF9012
:10311000EF900C949E178F929F92AF92BF92CF9296
:10312000DF92EF92FF920F931F93CF93DF931F9243
:10313000CDB7DEB791E2E92ECC24C3940FE21DE1B6
:103140002CE0D22EFF24FA9489830E94BE17898135
:10315000882309F4CBC080910F05882309F4BEC0F1
:103160001092B404C092F0041092EF041092EE0496
:10317000C092F904C092FA040E94FF1D8823E1F373
:10318000F8018491882319F0B090F20401C0B12CA9
:103190002FEB3CE140E060E08AEE94E00E94D71320
:1031A0004CE04B0D20E33DE160E08AEE94E00E94AC
:1031B000D7131092F304D092F4048FE29DE10E94A1
:1031C00010228091F104982F990F890F81958D5AC3
:1031D0008093F3048091F204982F990F890F8195C1
:1031E000835D8093F4048091010584FF03C08BEB21
:1031F0009CE102C087EB9CE10E94F2208091F104E7
:10320000982F990F890F81958D5A8093F30480919F
:10321000F4048F5F8093F4048091C604882319F02E
:1032200083EB9CE102C08FEA9CE10E94F220809136
:10323000F104982F990F890F81958D5A8093F3048B
:103240008091F4048F5F8093F4048BEA9CE10E94E8
:10325000F2208091B2048130B1F48091C6048F5F76
:10326000082E000C990B6091C70470E06F5F7F4FD0
:103270000E947D2A8093C60440E069E370E281ECFD
:1032800094E00E94A3138091B1048130B9F0809141
:103290000F05482F50E060E070E0809001059090AD
:1032A0000205A0900305B090040584169506A606B5
:1032B000B70608F461CF8F3F09F45ECFF0920F0597
:1032C00060E081EC94E00E9490131092C20440E010
:1032D00069E270E281EC94E00E94A3131092B404BE
:1032E000E0921005C092C5041092EE04B090EF0178
:1032F000B3948B2D0E9431160E94FF1D8823E1F3A9
:103300008091B304813029F4BA94B092EF0196E130
:103310001FC08091AF04813049F4B394F6E1FB15EE
:1033200010F486E1B82E8B2D0E9431168091AD04E9
:10333000813041F4BA94B11002C0BB24B3948B2DF8
:103340000E9431168091B1048130B1F69FEF9B0D40
:1033500010927E0210927D0281E0963108F0F4CE48
:103360009093EF010F90DF91CF911F910F91FF90FC
:10337000EF90DF90CF90BF90AF909F908F900C9484
:10338000E717CF93DF931F92CDB7DEB76983DC01D8
:10339000ED91FC910280F381E02D41E050E0BE010F
:1033A0006F5F7F4F09950F90DF91CF91089583E074
:1033B0008093E9008091F200882319F08AE38093DA
:1033C000E8000895FC018485958597FD0BC09FB7A3
:1033D000F89482E08093E9008091F2009FBF90E032
:1033E000019608959FB7F89482E08093E900809158
:1033F000F2009FBF90E008958F929F92AF92BF928C
:10340000CF92DF92EF92FF920F931F93CF93DF93B0
:103410005C016B017A0180911001882309F45BC083
:1034200080918E02882309F456C080918B0280FF20
:1034300005C08091E00082608093E000E70110E029
:103440000AEF83E0882E9AE3992E2097D9F10E9403
:103450002C2181110AC0015009F43DC061E070E0E7
:1034600080E090E00E94C612F0CF282F30E0C21713
:10347000D3070CF48C2F4FB7F8948092E900909109
:10348000E80095FF1DC0282F30E0C21BD30BF601CA
:10349000982F915020F081918093F100FACFC20EC5
:1034A000D31E112319F09092E80009C08091E80022
:1034B00085FD06C09092E80011E0209709F010E029
:1034C0004FBFC3CF1111C3CF5D9884E680938C02A8
:1034D0001E141F0444F081E090E0F5019383828381
:1034E00080E090E001C0C701DF91CF911F910F9163
:1034F000FF90EF90DF90CF90BF90AF909F908F9014
:1035000008950E942C2190E008950F931F93CF936C
:10351000DF931F92CDB7DEB78C01FC0184859585C2
:1035200097FF0EC0CE0101960E940221019719F467
:10353000298130E002C02FEF3FEFF8013587248763
:10354000F801848595850F90DF91CF911F910F91A0
:103550000895CF93DF931F92CDB7DEB7FC0184852A
:10356000958597FD05C02FEF3FEF358724870BC06A
:10357000CE0101960E940221019719F4898190E001
:1035800002C08FEF9FEF0F90DF91CF910895CF9200
:10359000DF92EF92FF920F931F93CF93DF931F92CF
:1035A000CDB7DEB7182F062FE42E862F880F8E5F3B
:1035B00099830E94222383E00E942223F12EC12EB0
:1035C0009981D92E8C2D8F19801798F4F601E7FE7A
:1035D00002C0849101C080810E942223182F80E0C4
:1035E0000E9422238123FFEFCF1ADF0A8111EACF45
:1035F00001C081E00F90DF91CF911F910F91FF905B
:10360000EF90DF90CF900895DF92EF92FF920F93AB
:103610001F93CF93DF93D82E8A017B01E40EF51E12
:10362000EB01CE15DF0571F0D7FE03C0FE018491DA
:1036300001C088810E94222321968111F2CF8FEF51
:103640009FEF01C0C801DF91CF911F910F91FF90B3
:10365000EF90DF9008950F931F93CF93DF931F9206
:10366000CDB7DEB782E0898342E450E067E470E2E0
:1036700080E80E94041B0E943D21DC0112960D91FE
:103680001C9113970115110569F0D801ED91FC917A
:103690000280F381E02DBE016F5F7F4FC801099565
:1036A00097FF07C089810F90DF91CF911F910F91F4
:1036B0000895F80100851185E5CF1F920F920FB68E
:1036C0000F9211248F939F938091E1009091E100DC
:1036D000937F9093E10083FF0FC01092E90091E087
:1036E0009093EB001092EC0092E39093ED00109217
:1036F0008E0298E09093F00082FF20C093E09093B8
:10370000E9009091F200992319F09AE39093E80070
:1037100090918C02992339F090918C029150909362
:103720008C02992389F190918D02992339F090911F
:103730008D02915090938D02992341F184FF10C026
:103740008091E2008E7E81608093E2008091E100B2
:103750008F7E8093E10080918B028E7E806111C00C
:1037600080FF16C08091E2008E7E80618093E2002F
:103770008091E1008E7E8093E10080918B028E7EAD
:10378000816080938B0204C05D9ACDCF289AD6CFFA
:103790009F918F910F900FBE0F901F9018951F92C1
:1037A0000F920FB60F921124CF92DF92EF92FF92F9
:1037B0000F931F932F933F934F935F936F937F9339
:1037C0008F939F93AF93BF93EF93FF93CF93DF9329
:1037D000CDB7DEB76C97DEBFCDBF1092E900809108
:1037E000E80083FFEDC168E0CE0145960E945023BA
:1037F00082EF8093E8008D8987FF05C09091E800F3
:1038000090FFFCCF03C09EEF9093E800982F907636
:1038100009F0C6C09E892F89188D91110CC080387F
:1038200029F480918A028093F10002C01092F10085
:103830001092F10048C1422F50E0512B913051F4C9
:10384000811141C14130510509F03DC180918A0289
:103850008D7F0BC0933061F4811135C1413051052A
:1038600009F031C180918A02826080938A022BC163
:10387000953041F48091E80080FFFCCF20682093D0
:10388000E30021C1963009F05FC0EB8CFC8C1092F4
:10389000E9001092880210928702123091F510927E
:1038A0008602109285020E942B1B99E0BE016F5F79
:1038B0007F4FDB01E92F1D92EA95E9F799831A837F
:1038C00091E09E8390EA98879AEF998720918702EA
:1038D00030918802275F3F4F3C832B838D8310926A
:1038E000E9001092880210928702F0928602E0921C
:1038F000850249E050E080E00E94041B0E942B1BDF
:10390000E2C0F0928602E09285020E943D21DC0135
:103910001296ED90FC901397E114F10409F4C0C0E5
:10392000D701ED91FC910480F581E02DBE016B5E25
:103930007F4FC7010995009719F00CF0C4C0C7C0AC
:10394000F701E084F184E8CF973009F4C0C09830E3
:1039500021F481E08093F100B6C0993009F0B3C042
:10396000837009F0B4C0E4E4F1E081E021E036E3E3
:103970009081992361F08093E9002093EB0091916D
:103980009093EC003093ED008F5F873089F78EE7DE
:103990008093EA001092EA008F8980938E0293C090
:1039A0008B8D9C8D1092E9001092880210928702F4
:1039B0009093860280938502898D811156C08E89ED
:1039C0009D89913A59F4813209F081C047E050E075
:1039D00069E071E080E00E94041B75C0913209F03B
:1039E00076C0833289F4888D90E0982F88272F89BC
:1039F000822BA0E0B0E08093050190930601A09394
:103A00000701B09308015FC0803269F48091E8003B
:103A100082FFFCCF67E089E091E00E9450238BEFAA
:103A20008093E80006C0823209F04DC08F898093F0
:103A3000100180918902882319F0EEEFFAE002C0AC
:103A4000E0E0F8E08091090190910A01A0910B015A
:103A5000B0910C01803B9440A105B10509F07BC0F9
:103A60008091100180FF93C076C00E943D21DC014F
:103A700012960D911C9113970115110541F1D80172
:103A8000ED91FC910190F081E02DBE016B5E7F4FC6
:103A9000C8010995811117C0F80100851185ECCF87
:103AA000113009F44EC0133091F48F89882309F442
:103AB00045C0823081F440E860E18BEA90E20E94E8
:103AC000C71A882321F08EEF8093E80079C081E245
:103AD0008093EB0075C0813029F440E86BE08FE9FA
:103AE00090E2EDCF833099F70E943D21DC011296E0
:103AF000ED90FC9013978E010F5F1F4F6801E1144A
:103B0000F10479F0D701ED91FC910680F781E02D69
:103B1000B801C7010995080F111DF701E084F18470
:103B2000EECFD8011C92F60101900020E9F7319701
:103B3000BF016C197D0940E0C601C1CF69E870E2A0
:103B400002C06DE870E26115710509F2FB01449154
:103B500050E080E840CF0FB6F894A89580916000BF
:103B6000886180936000109260000FBEA895EE3FC0
:103B70002AE0F20739F08091FE0A9091FF0A9183C2
:103B80008083A1CF1092FF0A1092FE0A9CCFEE3FD5
:103B90008AE0F80731F0808191819093FF0A809349
:103BA000FE0A87E797E7918380839BE088E10FB661
:103BB000F894A895809360000FBE9093600083CF27
:103BC0006C960FB6F894DEBF0FBECDBFDF91CF91DC
:103BD000FF91EF91BF91AF919F918F917F916F91E5
:103BE0005F914F913F912F911F910F91FF90EF9017
:103BF000DF90CF900F900FBE0F901F901895DF921F
:103C0000EF92FF920F931F93CF93DF931F92CDB745
:103C1000DEB7409111055091120560911305709126
:103C200014052FB7F89480918C0490918D04A09185
:103C30008E04B0918F042FBF481B590B6A0B7B0B6E
:103C40008091100590E0A0E0B0E00091090510918E
:103C50000A0520910B0530910C0584179507A607DE
:103C6000B70730F4011511052105310509F070C2BF
:103C700080E0012B022B032B09F0ABC20E949421A0
:103C80008091C204882309F4ADC08091D6048111CB
:103C9000A9C08091CE049091CF04E091D304F0911B
:103CA000D404EE0FFF1FE80FF91F45915491411501
:103CB000510501F52091D204222331F01092D40451
:103CC0001092D304FC0114C01092C2048091C1046C
:103CD000882341F080E00E949421E091D304F09188
:103CE000D4042FC060E081EC94E00E9490137AC06D
:103CF000459154919A01369527953695279540FF21
:103D000051C0CA01B6E096958795BA95E1F78F71D3
:103D1000952F96959695969590512F70223071F12A
:103D2000F8F4211117C08B3008F08AE08093D70493
:103D3000E091D304F091D4043196F093D404E0934D
:103D4000D304EE0FFF1F8091CE049091CF04E80FB3
:103D5000F91FCECF213061F760E00E94D521E8CF76
:103D60002330B1F0243021F72091C504829F802DAB
:103D700011248093DE049093DF04DACF2091C504F0
:103D8000829F802D11248093DA049093DB04D0CF9E
:103D90002091C504829F802D11248093DC04909390
:103DA000DD04C6CF2F732093D5048091C504859F71
:103DB000802D11248093D6041092E6041092E5041D
:103DC0001092E40481E08093D80480938F021092D3
:103DD000D9048091D3049091D40401969093D40493
:103DE0008093D3048091D804882309F4E7C080919C
:103DF000D604811106C060E081EC94E00E9490132B
:103E0000DDC081508093D6048091E604811148C0C2
:103E10002091E4043091E5042F5F3F4FC901880FE2
:103E2000991FE091E004F091E104E80FF91F65911A
:103E30007491862F87708093E704AB0163E05695F9
:103E400047956A95E1F7CA0196958795972F9695BC
:103E500096959093E8048F739091C504899F802D67
:103E600011248093E6044170409393023093E5045B
:103E70002093E4048091E20490E02817390780F051
:103E80002091E304222339F0821B91099093E504E9
:103E90008093E40405C060E081EC94E00E949013FC
:103EA0008091E60481508093E6048091D90421E05A
:103EB000280F2093D9044091D5043091E804340FA1
:103EC0008091CD04380F3093C3046091DC046623E5
:103ED00071F070E0822F022E000C990B0E947D2A57
:103EE0008091DD04869F300D11243093C3048091AE
:103EF000C30490E0CB966BE370E00E947D2A809330
:103F0000C3043091D7043093C4046091DA0466236B
:103F100081F0062E000C770B822F022E000C990BDD
:103F20000E947D2A8091DB04869F300D11243093FE
:103F3000C4046091DE046623A1F0822F220F990B46
:103F400070E00E947D2ACB0162E070E00E947D2A31
:103F50002091DF049091C404289F900D1124909328
:103F6000C4048091C4044F3341F08A300CF089E0DE
:103F700087FD80E08093C40402C01092C404F894CA
:103F8000E091C304F0E0E454FF4DE491E093920229
:103F90008091E9049091C604899F802D112490910D
:103FA000C404899F802D11249091E704899F802D5E
:103FB000112480939102809390027894809115054A
:103FC000882309F458C08C3020F49CE0D92ED81AEC
:103FD00001C0D12CFF24F394F092F0041092F90464
:103FE0001092FA043091F2041DE2E12EE31AED0C76
:103FF00003E0030F2EE44E2D63E08AEE94E0398354
:104000000E943C1539810CEF030F23E0E20E202FB4
:1040100041E06E2D80E50E943122202F42E06E2D7E
:1040200083E00E943122F092F904F092FA04809128
:10403000F20403E0080F412F481B4D0D93E0E92ED9
:1040400024E560E08AEE94E00E94BB1684E0809351
:10405000F3048091F204D81A8D2D815D8093F404CD
:1040600080911605909117050E94102280911505E8
:104070008150809315058091F6048F5F8093F6043C
:1040800084E9E82E82E0F82ED12C0E94942282E26C
:104090000E941B17D3948D2D0E941B1787E00E944E
:1040A0001B1781E20E941B1786E10E941B178FE7F6
:1040B0000E941B17E091FD04F091FE049081809115
:1040C0000005892B8083E091FB04F091FC04908132
:1040D0008091FF0480958923808300E010E0F70140
:1040E000E00FF11F80810E941B170F5F1F4F0435E7
:1040F0001105A9F734E5E30EF11C86E0D812C5CF0F
:104100008091EE0481110EC088EF91E0E4E9F2E0C5
:10411000DF019C011D9221503040E1F71092F30421
:104120001092F4040E94A1126093090570930A058D
:1041300080930B0590930C052091050530910605A1
:10414000621B730B70930E0560930D0580E041C0F8
:104150002FB7F89480918C0490918D04A0918E04D7
:10416000B0918F042FBF20911005820F911DA11DCA
:10417000B11D8093110590931205A0931305B09380
:1041800014058091010590910205A0910305B0915D
:1041900004050196A11DB11D8093010590930205B0
:1041A000A0930305B09304051092090510920A0527
:1041B00010920B0510920C050E94A1126093050548
:1041C0007093060580930705909308050E94B52219
:1041D00081E00F90DF91CF911F910F91FF90EF90B1
:1041E000DF900895CF93DF930E941022EC0163E8E3
:1041F00071E08AEE94E00E94E3118C0F9D1FDF9125
:10420000CF910895FC0180918E02811103C08FEF40
:104210009FEF08959FB7F89482E08093E900209182
:10422000F20030E01216130614F421E030E02115FC
:10423000310559F0289884E680938D028091F10031
:1042400080838091F200882319F09FBFC9010895EF
:104250008BE68093E800F9CF2FB7F89483E0809342
:10426000E9009091E800892F807295FF04C0909139
:10427000F20080E4891B2FBF08958091940481117E
:104280000DC082E08093900484E0809391041092AA
:1042900093041092920481E08093940480E994E066
:1042A00008958F929F92AF92BF920F931F93CF93D7
:1042B000DF93CDB7DEB7A1970FB6F894DEBF0FBE80
:1042C000CDBF19A2423008F44AE08E010F5D1F4FA6
:1042D000842E912CA12CB12CA50194010E944F2A6F
:1042E000E62FB901CA0101501109EA3014F4E05D6A
:1042F00001C0E95CD801EC93232B242B252B61F71B
:10430000B8018AEE94E00E94E311A1960FB6F894EA
:10431000DEBF0FBECDBFDF91CF911F910F91BF9038
:10432000AF909F908F900895CF93DF93482F50E0E8
:10433000EA01C456DB4F9DA19923A1F19EA19111E1
:1043400031C09EA5FA01EE0FFF1FED55FB4F35A1C1
:1043500026A1E32FF22FE90FF11DE90FF11D2591A1
:1043600034912F3F9FEF390711F41DA21BC039ABC9
:10437000440F551FFA01EA55FB4F3327220F331F15
:1043800005A0F6A1E02DE20FF31F65917491811154
:1043900005C040E081EC94E00E94A31329968DA112
:1043A0008F5F8DA3DF91CF91089570E0DB01AA0F9D
:1043B000BB1FA456BB4FD4962C91D497D5969C91F5
:1043C000D597E22FF92FE80FF11DE80FF11D259188
:1043D00034915F9696963C932E939597F90185912B
:1043E00094919091C504989F802D112464567B4F21
:1043F000FB01B19685A3F901A591B4914B2F50E033
:10440000E82FF0E04E175F0720F4F9012591349171
:10441000832FFB01B296899F802D112485A30895D7
:104420000F931F93CF93DF938C01C0E0D0E0F8018E
:10443000EC0FFD1F6491662371F0E091EA04F091A6
:10444000EB040190F081E02D8AEE94E00995892B30
:1044500011F02196ECCFCE01DF91CF911F910F91FA
:1044600008959F92AF92BF92CF92DF92EF92FF9208
:104470000F931F93CF93DF93F82EE62EB22E03E017
:10448000020FD0E0C3E08AEFC82E1EEF842F8170A8
:10449000982EAA24A394A20E4270D42EDF5F802F00
:1044A0008B19180F9920A1F02C2F220F2A0D4E2DB9
:1044B0004C1B6D2F6F0D8AEE94E00E949816202FF2
:1044C0004E2D4D1B6C2F6F0D8AEE94E00E949816B6
:1044D000DD20A1F02C2F220F2A0D4E2D4C1B6F2D0D
:1044E0006D1B8AEE94E00E949816202F4E2D4D1BD6
:1044F0006F2D6C1B8AEE94E00E949816DC1744F432
:1045000017FD04C0C150C394C3941C0D0E5FC6CFE9
:10451000DF91CF911F910F91FF90EF90DF90CF909F
:10452000BF90AF909F900895CF93DF93EBEFF4E0AF
:10453000C081D1819881AFEFB4E08C91892B8883C1
:10454000C091FD04D091FE04988180910005809572
:10455000892388830190F081E02D90818C91809552
:1045600089238083DF91CF910895CF92DF92EF92DC
:10457000FF920F931F93CF93DF93C6EAD4E00DEA27
:1045800014E0FF24FA9496E0E92EE00E62E08881C0
:104590000E946512288130E0F901ED5BFE4D8491A7
:1045A000F901EC5DFE4DC490F901EB5FFE4DD49036
:1045B000DD2071F081110E94F811ED2DF0E0EE0F79
:1045C000FF1FE950FF4DA591B491EC91EC2131F51D
:1045D000F80180818F5F808360E088810E9465128E
:1045E00021960F5F1F4FE012D1CF9091AD049150F3
:1045F0008091B3049E3F38F49091AF0491509E3F58
:1046000010F48F5F08C08823A1F08F3F19F4109237
:10461000B3040FC08FEF8093B3040BC0F801808107
:104620008823F1F2F8018F3F11F41082D5CFF08288
:10463000D3CFDF91CF911F910F91FF90EF90DF903B
:10464000CF90089540918702509188022091850271
:104650003091860242175307B4F49091E8009570A8
:10466000E1F39091E80092FD19C08093F1008091F0
:1046700087029091880201968F739927892B19F4EC
:104680008EEF8093E80080918702909188020196D6
:10469000909388028093870281E0089580E00895D6
:1046A000615030F02091F100FC0120830196F8CF99
:1046B000289884E680938D020895CF93DF9300D0ED
:1046C00000D0CDB7DEB7789484B5826084BD84B560
:1046D000816084BD85B5826085BD85B5816085BDFD
:1046E00080916E00816080936E00109281008091B5
:1046F000810082608093810080918100816080933D
:104700008100809180008160809380008091910081
:1047100082608093910080919100816080939100EC
:10472000809190008160809390008091C1008460AE
:104730008093C1008091C10082608093C10080910C
:10474000C10081608093C1008091C300816080932B
:10475000C3008091C00082608093C0008091C2003D
:1047600081608093C20080917A00846080937A0097
:1047700080917A00826080937A0080917A008160D3
:1047800080937A0080917A00806880937A001092FA
:104790008E0210928A0210928B028091D700816063
:1047A0008093D70080EA8093D80089B5806189BD65
:1047B00089B5826089BD09B400FEFDCF61E070E07B
:1047C00080E090E00E94C6128091D8008F7C8061CA
:1047D0008093D8008091E000807F8093E0008091FA
:1047E000E1008E7E8093E1008DE08093E200559A97
:1047F000209AEEEFFFE7859194918B3F9C4D19F441
:1048000081E08093890282E38093100581E090E04B
:10481000A0E0B0E08093090590930A05A0930B05F2
:10482000B0930C0511E01093C7041093C6048FEFEA
:1048300080930F0584E18093A60482E18093A7040E
:1048400083E18093A80485E18093A90487E08093A5
:10485000AA0488E08093AB041092AC040E94B522B5
:104860001093F9041092FA041093EF041093F004DB
:10487000E9E9FEE1E491EF5FE093F104EAE9FEE1AA
:10488000E491EF5FE093F2048BE99EE19093F804EA
:104890008093F7041FB7F89480918302811127C099
:1048A000E6E1F1E28491E5E3F1E29491E82FF0E0B2
:1048B000EE0FFF1FE059F14EA591B491EC91E92361
:1048C00021F461E081E10E94351261E081E10E9402
:1048D00065128CB580618CBD8CB580648CBD61E047
:1048E0008FE00E94651261E080E10E946512809174
:1048F00083028F5F809383021FBF8CB58C7F8CBD3A
:104900008DB581608DBD61E084E00E94651261E03B
:104910008CE00E94651261E086E00E94651261E011
:1049200086E00E94351261E070E080E090E00E9435
:10493000C61260E086E00E9435126AE070E080E016
:1049400090E00E94C61261E086E00E943512E1E12B
:10495000F1E2E491F0E0EE0FFF1FE557F14E859193
:1049600094919093FC048093FB04E9E0F1E2E491DC
:10497000F0E0EE0FFF1FE557F14E85919491909373
:10498000FE048093FD04E0E3F1E2E491E093FF0490
:10499000E8E2F1E2E491E09300050E9494225EE7F0
:1049A000E52E5EE1F52E1DE01E0DF70184910E94BB
:1049B0001B17FFEFEF1AFF0A1E11F7CFE091FD045E
:1049C000F091FE04908180910005892B8083E09115
:1049D000FB04F091FC0490818091FF048095892371
:1049E000808300E014E080E00E941B170150110951
:1049F000D1F781E08093C50484E08093E9048CE6DC
:104A00009EE19093D1048093D00460E080E00E9406
:104A1000D52161E085E00E94651261E08DE00E9491
:104A2000651261E085E00E946512E8E4F1E2E4913C
:104A30008E2F90E0FC013197EF30F10508F07DC03A
:104A4000EB59FF4F0C94912A84B5806884BD81E0B6
:104A500087BD77C084B5806284BD81E088BD71C0A8
:104A60008091800080688093800081E090E0909346
:104A700089008093880065C0809180008062809367
:104A8000800081E090E090938B0080938A0059C071
:104A90008091800088608093800081E090E0909316
:104AA0008D0080938C004DC0809190008068809331
:104AB000900081E090E0909399008093980041C02D
:104AC0008091900080628093900081E090E09093CC
:104AD0009B0080939A0035C08091900088608093FD
:104AE000900081E090E090939D0080939C0029C00D
:104AF0008091C00080688093C0008091C0008F7B4F
:104B00008093C00081E08093CF001BC08091C000E3
:104B100080628093C00081E08093D00012C08091B9
:104B2000C20088608093C2008091C2008B7F809316
:104B3000C20081E08093D20004C060E085E00E9462
:104B4000351280919100887F816080939100F89464
:104B500010928000109281001092850010928400C3
:104B600088E191E090938900809388008091810092
:104B700088608093810080918100816080938100B2
:104B800080916F00826080936F0078948091B2046E
:104B9000813019F41092C60407C040E06BE170E266
:104BA00081EC94E00E94A31381E00E948B184424BE
:104BB000439411E00E94FF1D882309F4EDC2109276
:104BC00082028091AE0481508E3FA0F40091810258
:104BD0008FEF800F8093810260E080E00E942217B7
:104BE000882309F4E1C260E083E00E942217882351
:104BF00009F4DAC28091B00481508E3FA0F4009194
:104C0000810281E0800F8093810263E080E00E9456
:104C10002217882309F4CBC263E083E00E942217A5
:104C2000882309F4C4C28091AD0481508E3FA0F462
:104C3000009180028FEF800F8093800260E080E01F
:104C40000E942217882309F4B5C263E080E00E9425
:104C50002217882309F4AEC28091AF0481508E3FA1
:104C6000A0F40091800281E0800F8093800260E0D8
:104C700083E00E942217882309F49FC263E083E047
:104C80000E942217882309F498C2F09080022F2DE9
:104C900030E03C832B838091030190910401280F25
:104CA000391F243131052CF401969093040180932F
:104CB000030180910301909104012B813C81280F15
:104CC000391F213431052CF0019790930401809312
:104CD0000301E0908102CE2CD12C809101019091B2
:104CE00002019601280F391F2A3031052CF4019654
:104CF0009093020180930101809101019091020142
:104D00009601280F391F273231052CF00197909317
:104D100002018093010148EF51E06FEF7FEF84E9DA
:104D200092E00E94B02A1092F9041092FA04A12C89
:104D30008091EB01A81608F045C066E0A69E4001F0
:104D40001124B12C8091EC01B816D0F5EB2DF0E0D8
:104D5000A89EE00DF11D112433968091ED019091F4
:104D6000EE01E80FF91FE4916091030170910401D5
:104D700036E0B39E600D711D1124409101015091E8
:104D80000201CB0104968B359105C0F4480D591DE5
:104D9000CA0104968934910588F4E13039F406E0BB
:104DA00026E08AEE94E00E943C1508C0EE2331F024
:104DB0002FE330E28AEE94E00E94D713B394C2CF7F
:104DC000A394B6CFA0900101B0900201EA0C8090AC
:104DD000030190900401F80C41E04E0D61E06F0D6D
:104DE00002E022E08AEE94E00E943C151093F90460
:104DF0001093FA0424E04E2D6F2D8AEE94E00E9469
:104E0000191543E04E0D24E06F2D8AEE94E00E94C8
:104E1000191524E04E2D6F2D8AEE94E00E9498160D
:104E200063E06F0D24E04E2D8AEE94E00E94981608
:104E3000512C8B819C8104969A838983160194E07E
:104E4000290E311C80919001581608F0CEC0809137
:104E50008402E52CF12C811185C0F701EE0FFF1FB4
:104E6000EF56FE4FA081B18114960C911497002348
:104E700009F478C015962D913C911697F90144914B
:104E800050E03196E4918E2F90E06D917C911197D6
:104E90006417750764F4600F711D4617570724F0F7
:104EA00011967C936E9303C011965C934E936D9113
:104EB0007C9111974617570764F4601B71096417BA
:104EC000750724F011967C936E9303C011965C9342
:104ED0004E9312966D917C9113976817790774F42D
:104EE000600F711D861797072CF013967C936E93B5
:104EF000129704C013969C938E93129712966D91FD
:104F00007C9113978617970774F4601B71096817D3
:104F100079072CF013967C936E93129704C0139626
:104F20009C938E9312976D917C911197461757071A
:104F3000C9F412964D915C9113978417950791F4DB
:104F4000F90132961696FC93EE931597E491ED5F76
:104F5000E33040F417968D919C91189716969C9388
:104F60008E931597F701EE0FFF1FEF56FE4F01903E
:104F7000F081E02D62807380E080F180C7010496AB
:104F80002B813C812817390774F469817A81E616F0
:104F9000F7064CF4C3010496C816D90624F462142B
:104FA00073040CF40DC1E80CF91CC70104968B3591
:104FB0009105C8F46A0C7B1CC301049689349105E1
:104FC00090F441E0460D02E024E06E2D8AEE94E07C
:104FD0000E943C1561E06E0D04E022E0462D8AEE51
:104FE00094E00E943C1553942DCF512C2B803C8093
:104FF00074E0270E311C360184E0680E711C80912C
:10500000F001581608F042C0E52DF0E0EE0FFF1F4A
:10501000EF50FE4FE080F180F7018281811134C0B2
:105020008181208130E0A9014C5F5F4F6B817C81E1
:105030006417750774F4221533055CF490E09C0145
:105040002C5F3F4FC216D30624F4861597050CF447
:10505000BAC0F7018081B401680F711D2181CB01B5
:1050600004968B35910580F4A501420F511DCA01AC
:1050700004968934910540F4EE24E39404E024E09E
:105080008AEE94E00E94BB165394B9CF1093F304B8
:105090001093F4041092F9041093FA04C0907D0266
:1050A000D0907E020D2C000CEE08FF08F7FE14C015
:1050B000E091EA04F091EB040190F081E02D6DE2C3
:1050C0008AEE94E0099566277727CB016C197D0954
:1050D0008E099F094AE003C04AE0C701B6010E9459
:1050E00051218091840284258093840280917F02E3
:1050F000882399F080917D0290917E020196909391
:105100007E0280937D0240E061E370E281EC94E0F6
:105110000E94A3130E949E1738C0809182028823A8
:10512000A1F13091F001E1EFF1E090E081E093171F
:1051300059F0A191B19121E012964C91411101C019
:1051400020E082239F5FF3CF8823F9F040E069E2FB
:1051500070E281EC94E00E94A3138091EF0161E082
:1051600090E00E94412A0E94BE178091EF0191E0D9
:10517000980F9093EF01963130F08093EF0180E02B
:105180000E948B1802C00E94E7178091B3048130FF
:1051900019F480E00E948B1820E030E0232B09F402
:1051A00009CD0E94000006CD0093810223CD00931B
:1051B000810239CD009380024FCD0093800265CDEE
:1051C00010937F02F0CEF701428240E069E370E283
:1051D00081EC94E00E94A3133CCFE8E1F5E0138258
:1051E000128288EE93E0A0E0B0E084839583A683EA
:1051F000B7838EE491E0918380838FEF9FEF958753
:1052000084871092ED041092EC0480E691E0909374
:10521000EB048093EA040895CF93DF9382309105E5
:1052200010F482E090E0E0916A05F0916B0520E0D7
:1052300030E0C0E0D0E0309711F140815181481753
:105240005907C0F04817590761F48281938120976C
:1052500019F09B838A832BC090936B0580936A051A
:1052600026C02115310519F04217530718F49A0189
:10527000BE01DF01EF010280F381E02DDCCF2115BB
:10528000310509F1281B390B2430310590F41296B1
:105290008D919C9113976115710521F0FB0193830A
:1052A000828304C090936B0580936A05FD0132965A
:1052B00044C0FD01E20FF31F819391932250310905
:1052C0002D933C933AC02091680530916905232BBA
:1052D00041F420911301309114013093690520931A
:1052E000680520911101309112012115310541F419
:1052F0002DB73EB74091150150911601241B350B77
:10530000E0916805F0916905E217F307A0F42E1B00
:105310003F0B2817390778F0AC014E5F5F4F241719
:10532000350748F04E0F5F1F50936905409368059D
:105330008193919302C0E0E0F0E0CF01DF91CF9143
:1053400008950F931F93CF93DF93009709F48CC0B8
:10535000FC0132971382128200916A0510916B054D
:105360000115110581F420813181820F931F209155
:105370006805309169052817390779F5F0936905B3
:10538000E093680571C0D80140E050E0AE17BF0758
:1053900050F412962D913C911397AD0121153105D2
:1053A00009F1D901F3CF9D01DA01338322836081B2
:1053B0007181860F971F8217930769F4EC0128818A
:1053C0003981260F371F2E5F3F4F318320838A811B
:1053D0009B8193838283452B29F4F0936B05E093A3
:1053E0006A0542C01396FC93EE931297ED01499122
:1053F00059919E01240F351FE217F30771F4808144
:105400009181840F951F029611969C938E938281B1
:10541000938113969C938E931297E0E0F0E0D8016D
:1054200012968D919C911397009719F0F8018C01B9
:10543000F6CF8D919C9198012E5F3F4F820F931F65
:1054400020916805309169052817390769F430976C
:1054500029F410926B0510926A0502C01382128221
:105460001093690500936805DF91CF911F910F910B
:105470000895F999FECF92BD81BDF89A992780B51C
:105480000895262FF999FECF1FBA92BD81BD20BD88
:105490000FB6F894FA9AF99A0FBE01960895A1E210
:1054A0001A2EAA1BBB1BFD010DC0AA1FBB1FEE1F9E
:1054B000FF1FA217B307E407F50720F0A21BB30BE9
:1054C000E40BF50B661F771F881F991F1A9469F765
:1054D00060957095809590959B01AC01BD01CF01C1
:1054E0000895991B79E004C0991F961708F0961B40
:1054F000881F7A95C9F78095089597FB072E16F4B3
:10550000009407D077FD09D00E94972A07FC05D0A8
:105510003EF4909581959F4F0895709561957F4FCA
:105520000895EE0FFF1F0590F491E02D0994AA1B3A
:10553000BB1B51E107C0AA1FBB1FA617B70710F07E
:10554000A61BB70B881F991F5A95A9F780959095B0
:10555000BC01CD01089581E090E0F8940C94B72A45
:10556000DC0101C06D9341505040E0F70895F8947C
:02557000FFCF6B
:105572000106000600FFFFFFFF00E100000000003F
:105582000000006C058000211C641BC91ADF19127F
:1055920019B317E1162F16E914971391124E11A899
:1055A2000F9F0EAC0D020C980A2209C506A30445F2
:1055B20003E80000C1808100000000000000C11962
:1055C200FC19811AD719E219A91A851A00000000DC
:1055D2006515DC10DE11DD114C6576656C204D65BC
:1055E2006E75000A0A4C6576656C20201120201029
:0655F2000020000D0A007C
:00000001FF
